{
	"09_lesson_optimization/Optimization.sol": {
		"Op": {
			"abi": [
				{
					"inputs": [
						{
							"internalType": "uint256[]",
							"name": "data",
							"type": "uint256[]"
						}
					],
					"name": "doWork",
					"outputs": [],
					"stateMutability": "nonpayable",
					"type": "function"
				},
				{
					"inputs": [],
					"name": "result",
					"outputs": [
						{
							"internalType": "uint256",
							"name": "",
							"type": "uint256"
						}
					],
					"stateMutability": "view",
					"type": "function"
				}
			],
			"devdoc": {
				"kind": "dev",
				"methods": {},
				"version": 1
			},
			"evm": {
				"assembly": "    /* \"09_lesson_optimization/Optimization.sol\":59:867  contract Op {... */\n  mstore(0x40, 0x80)\n    /* \"09_lesson_optimization/Optimization.sol\":799:800  1 */\n  0x01\n    /* \"09_lesson_optimization/Optimization.sol\":778:800  uint public result = 1 */\n  0x00\n  sstore\n    /* \"09_lesson_optimization/Optimization.sol\":59:867  contract Op {... */\n  callvalue\n  dup1\n  iszero\n  tag_1\n  jumpi\n  0x00\n  dup1\n  revert\ntag_1:\n  pop\n  dataSize(sub_0)\n  dup1\n  dataOffset(sub_0)\n  0x00\n  codecopy\n  0x00\n  return\nstop\n\nsub_0: assembly {\n        /* \"09_lesson_optimization/Optimization.sol\":59:867  contract Op {... */\n      mstore(0x40, 0x80)\n      callvalue\n      dup1\n      iszero\n      tag_1\n      jumpi\n      0x00\n      dup1\n      revert\n    tag_1:\n      pop\n      jumpi(tag_2, lt(calldatasize, 0x04))\n      shr(0xe0, calldataload(0x00))\n      dup1\n      0x5186701d\n      eq\n      tag_3\n      jumpi\n      dup1\n      0x65372147\n      eq\n      tag_4\n      jumpi\n    tag_2:\n      0x00\n      dup1\n      revert\n        /* \"09_lesson_optimization/Optimization.sol\":806:865  function doWork(uint[] memory data) public {... */\n    tag_3:\n      tag_5\n      0x04\n      dup1\n      calldatasize\n      sub\n      dup2\n      add\n      swap1\n      tag_6\n      swap2\n      swap1\n      tag_7\n      jump\t// in\n    tag_6:\n      tag_8\n      jump\t// in\n    tag_5:\n      stop\n        /* \"09_lesson_optimization/Optimization.sol\":778:800  uint public result = 1 */\n    tag_4:\n      tag_9\n      tag_10\n      jump\t// in\n    tag_9:\n      mload(0x40)\n      tag_11\n      swap2\n      swap1\n      tag_12\n      jump\t// in\n    tag_11:\n      mload(0x40)\n      dup1\n      swap2\n      sub\n      swap1\n      return\n        /* \"09_lesson_optimization/Optimization.sol\":806:865  function doWork(uint[] memory data) public {... */\n    tag_8:\n      pop\n      jump\t// out\n        /* \"09_lesson_optimization/Optimization.sol\":778:800  uint public result = 1 */\n    tag_10:\n      sload(0x00)\n      dup2\n      jump\t// out\n        /* \"#utility.yul\":24:746   */\n    tag_15:\n        /* \"#utility.yul\":120:125   */\n      0x00\n        /* \"#utility.yul\":145:226   */\n      tag_17\n        /* \"#utility.yul\":161:225   */\n      tag_18\n        /* \"#utility.yul\":218:224   */\n      dup5\n        /* \"#utility.yul\":161:225   */\n      tag_19\n      jump\t// in\n    tag_18:\n        /* \"#utility.yul\":145:226   */\n      tag_20\n      jump\t// in\n    tag_17:\n        /* \"#utility.yul\":136:226   */\n      swap1\n      pop\n        /* \"#utility.yul\":246:251   */\n      dup1\n        /* \"#utility.yul\":275:281   */\n      dup4\n        /* \"#utility.yul\":268:273   */\n      dup3\n        /* \"#utility.yul\":261:282   */\n      mstore\n        /* \"#utility.yul\":309:313   */\n      0x20\n        /* \"#utility.yul\":302:307   */\n      dup3\n        /* \"#utility.yul\":298:314   */\n      add\n        /* \"#utility.yul\":291:314   */\n      swap1\n      pop\n        /* \"#utility.yul\":335:341   */\n      dup3\n        /* \"#utility.yul\":385:388   */\n      dup6\n        /* \"#utility.yul\":377:381   */\n      0x20\n        /* \"#utility.yul\":369:375   */\n      dup7\n        /* \"#utility.yul\":365:382   */\n      mul\n        /* \"#utility.yul\":360:363   */\n      dup3\n        /* \"#utility.yul\":356:383   */\n      add\n        /* \"#utility.yul\":353:389   */\n      gt\n        /* \"#utility.yul\":350:493   */\n      iszero\n      tag_21\n      jumpi\n        /* \"#utility.yul\":404:483   */\n      tag_22\n      tag_23\n      jump\t// in\n    tag_22:\n        /* \"#utility.yul\":350:493   */\n    tag_21:\n        /* \"#utility.yul\":517:518   */\n      0x00\n        /* \"#utility.yul\":502:740   */\n    tag_24:\n        /* \"#utility.yul\":527:533   */\n      dup6\n        /* \"#utility.yul\":524:525   */\n      dup2\n        /* \"#utility.yul\":521:534   */\n      lt\n        /* \"#utility.yul\":502:740   */\n      iszero\n      tag_26\n      jumpi\n        /* \"#utility.yul\":595:598   */\n      dup2\n        /* \"#utility.yul\":624:661   */\n      tag_27\n        /* \"#utility.yul\":657:660   */\n      dup9\n        /* \"#utility.yul\":645:655   */\n      dup3\n        /* \"#utility.yul\":624:661   */\n      tag_28\n      jump\t// in\n    tag_27:\n        /* \"#utility.yul\":619:622   */\n      dup5\n        /* \"#utility.yul\":612:662   */\n      mstore\n        /* \"#utility.yul\":691:695   */\n      0x20\n        /* \"#utility.yul\":686:689   */\n      dup5\n        /* \"#utility.yul\":682:696   */\n      add\n        /* \"#utility.yul\":675:696   */\n      swap4\n      pop\n        /* \"#utility.yul\":725:729   */\n      0x20\n        /* \"#utility.yul\":720:723   */\n      dup4\n        /* \"#utility.yul\":716:730   */\n      add\n        /* \"#utility.yul\":709:730   */\n      swap3\n      pop\n        /* \"#utility.yul\":562:740   */\n      pop\n        /* \"#utility.yul\":549:550   */\n      0x01\n        /* \"#utility.yul\":546:547   */\n      dup2\n        /* \"#utility.yul\":542:551   */\n      add\n        /* \"#utility.yul\":537:551   */\n      swap1\n      pop\n        /* \"#utility.yul\":502:740   */\n      jump(tag_24)\n    tag_26:\n        /* \"#utility.yul\":506:520   */\n      pop\n        /* \"#utility.yul\":126:746   */\n      pop\n      pop\n        /* \"#utility.yul\":24:746   */\n      swap4\n      swap3\n      pop\n      pop\n      pop\n      jump\t// out\n        /* \"#utility.yul\":769:1139   */\n    tag_29:\n        /* \"#utility.yul\":840:845   */\n      0x00\n        /* \"#utility.yul\":889:892   */\n      dup3\n        /* \"#utility.yul\":882:886   */\n      0x1f\n        /* \"#utility.yul\":874:880   */\n      dup4\n        /* \"#utility.yul\":870:887   */\n      add\n        /* \"#utility.yul\":866:893   */\n      slt\n        /* \"#utility.yul\":856:978   */\n      tag_31\n      jumpi\n        /* \"#utility.yul\":897:976   */\n      tag_32\n      tag_33\n      jump\t// in\n    tag_32:\n        /* \"#utility.yul\":856:978   */\n    tag_31:\n        /* \"#utility.yul\":1014:1020   */\n      dup2\n        /* \"#utility.yul\":1001:1021   */\n      calldataload\n        /* \"#utility.yul\":1039:1133   */\n      tag_34\n        /* \"#utility.yul\":1129:1132   */\n      dup5\n        /* \"#utility.yul\":1121:1127   */\n      dup3\n        /* \"#utility.yul\":1114:1118   */\n      0x20\n        /* \"#utility.yul\":1106:1112   */\n      dup7\n        /* \"#utility.yul\":1102:1119   */\n      add\n        /* \"#utility.yul\":1039:1133   */\n      tag_15\n      jump\t// in\n    tag_34:\n        /* \"#utility.yul\":1030:1133   */\n      swap2\n      pop\n        /* \"#utility.yul\":846:1139   */\n      pop\n        /* \"#utility.yul\":769:1139   */\n      swap3\n      swap2\n      pop\n      pop\n      jump\t// out\n        /* \"#utility.yul\":1145:1284   */\n    tag_28:\n        /* \"#utility.yul\":1191:1196   */\n      0x00\n        /* \"#utility.yul\":1229:1235   */\n      dup2\n        /* \"#utility.yul\":1216:1236   */\n      calldataload\n        /* \"#utility.yul\":1207:1236   */\n      swap1\n      pop\n        /* \"#utility.yul\":1245:1278   */\n      tag_36\n        /* \"#utility.yul\":1272:1277   */\n      dup2\n        /* \"#utility.yul\":1245:1278   */\n      tag_37\n      jump\t// in\n    tag_36:\n        /* \"#utility.yul\":1145:1284   */\n      swap3\n      swap2\n      pop\n      pop\n      jump\t// out\n        /* \"#utility.yul\":1290:1829   */\n    tag_7:\n        /* \"#utility.yul\":1374:1380   */\n      0x00\n        /* \"#utility.yul\":1423:1425   */\n      0x20\n        /* \"#utility.yul\":1411:1420   */\n      dup3\n        /* \"#utility.yul\":1402:1409   */\n      dup5\n        /* \"#utility.yul\":1398:1421   */\n      sub\n        /* \"#utility.yul\":1394:1426   */\n      slt\n        /* \"#utility.yul\":1391:1510   */\n      iszero\n      tag_39\n      jumpi\n        /* \"#utility.yul\":1429:1508   */\n      tag_40\n      tag_41\n      jump\t// in\n    tag_40:\n        /* \"#utility.yul\":1391:1510   */\n    tag_39:\n        /* \"#utility.yul\":1577:1578   */\n      0x00\n        /* \"#utility.yul\":1566:1575   */\n      dup3\n        /* \"#utility.yul\":1562:1579   */\n      add\n        /* \"#utility.yul\":1549:1580   */\n      calldataload\n        /* \"#utility.yul\":1607:1625   */\n      0xffffffffffffffff\n        /* \"#utility.yul\":1599:1605   */\n      dup2\n        /* \"#utility.yul\":1596:1626   */\n      gt\n        /* \"#utility.yul\":1593:1710   */\n      iszero\n      tag_42\n      jumpi\n        /* \"#utility.yul\":1629:1708   */\n      tag_43\n      tag_44\n      jump\t// in\n    tag_43:\n        /* \"#utility.yul\":1593:1710   */\n    tag_42:\n        /* \"#utility.yul\":1734:1812   */\n      tag_45\n        /* \"#utility.yul\":1804:1811   */\n      dup5\n        /* \"#utility.yul\":1795:1801   */\n      dup3\n        /* \"#utility.yul\":1784:1793   */\n      dup6\n        /* \"#utility.yul\":1780:1802   */\n      add\n        /* \"#utility.yul\":1734:1812   */\n      tag_29\n      jump\t// in\n    tag_45:\n        /* \"#utility.yul\":1724:1812   */\n      swap2\n      pop\n        /* \"#utility.yul\":1520:1822   */\n      pop\n        /* \"#utility.yul\":1290:1829   */\n      swap3\n      swap2\n      pop\n      pop\n      jump\t// out\n        /* \"#utility.yul\":1835:1953   */\n    tag_46:\n        /* \"#utility.yul\":1922:1946   */\n      tag_48\n        /* \"#utility.yul\":1940:1945   */\n      dup2\n        /* \"#utility.yul\":1922:1946   */\n      tag_49\n      jump\t// in\n    tag_48:\n        /* \"#utility.yul\":1917:1920   */\n      dup3\n        /* \"#utility.yul\":1910:1947   */\n      mstore\n        /* \"#utility.yul\":1835:1953   */\n      pop\n      pop\n      jump\t// out\n        /* \"#utility.yul\":1959:2181   */\n    tag_12:\n        /* \"#utility.yul\":2052:2056   */\n      0x00\n        /* \"#utility.yul\":2090:2092   */\n      0x20\n        /* \"#utility.yul\":2079:2088   */\n      dup3\n        /* \"#utility.yul\":2075:2093   */\n      add\n        /* \"#utility.yul\":2067:2093   */\n      swap1\n      pop\n        /* \"#utility.yul\":2103:2174   */\n      tag_51\n        /* \"#utility.yul\":2171:2172   */\n      0x00\n        /* \"#utility.yul\":2160:2169   */\n      dup4\n        /* \"#utility.yul\":2156:2173   */\n      add\n        /* \"#utility.yul\":2147:2153   */\n      dup5\n        /* \"#utility.yul\":2103:2174   */\n      tag_46\n      jump\t// in\n    tag_51:\n        /* \"#utility.yul\":1959:2181   */\n      swap3\n      swap2\n      pop\n      pop\n      jump\t// out\n        /* \"#utility.yul\":2187:2316   */\n    tag_20:\n        /* \"#utility.yul\":2221:2227   */\n      0x00\n        /* \"#utility.yul\":2248:2268   */\n      tag_53\n      tag_54\n      jump\t// in\n    tag_53:\n        /* \"#utility.yul\":2238:2268   */\n      swap1\n      pop\n        /* \"#utility.yul\":2277:2310   */\n      tag_55\n        /* \"#utility.yul\":2305:2309   */\n      dup3\n        /* \"#utility.yul\":2297:2303   */\n      dup3\n        /* \"#utility.yul\":2277:2310   */\n      tag_56\n      jump\t// in\n    tag_55:\n        /* \"#utility.yul\":2187:2316   */\n      swap2\n      swap1\n      pop\n      jump\t// out\n        /* \"#utility.yul\":2322:2397   */\n    tag_54:\n        /* \"#utility.yul\":2355:2361   */\n      0x00\n        /* \"#utility.yul\":2388:2390   */\n      0x40\n        /* \"#utility.yul\":2382:2391   */\n      mload\n        /* \"#utility.yul\":2372:2391   */\n      swap1\n      pop\n        /* \"#utility.yul\":2322:2397   */\n      swap1\n      jump\t// out\n        /* \"#utility.yul\":2403:2714   */\n    tag_19:\n        /* \"#utility.yul\":2480:2484   */\n      0x00\n        /* \"#utility.yul\":2570:2588   */\n      0xffffffffffffffff\n        /* \"#utility.yul\":2562:2568   */\n      dup3\n        /* \"#utility.yul\":2559:2589   */\n      gt\n        /* \"#utility.yul\":2556:2612   */\n      iszero\n      tag_59\n      jumpi\n        /* \"#utility.yul\":2592:2610   */\n      tag_60\n      tag_61\n      jump\t// in\n    tag_60:\n        /* \"#utility.yul\":2556:2612   */\n    tag_59:\n        /* \"#utility.yul\":2642:2646   */\n      0x20\n        /* \"#utility.yul\":2634:2640   */\n      dup3\n        /* \"#utility.yul\":2630:2647   */\n      mul\n        /* \"#utility.yul\":2622:2647   */\n      swap1\n      pop\n        /* \"#utility.yul\":2702:2706   */\n      0x20\n        /* \"#utility.yul\":2696:2700   */\n      dup2\n        /* \"#utility.yul\":2692:2707   */\n      add\n        /* \"#utility.yul\":2684:2707   */\n      swap1\n      pop\n        /* \"#utility.yul\":2403:2714   */\n      swap2\n      swap1\n      pop\n      jump\t// out\n        /* \"#utility.yul\":2720:2797   */\n    tag_49:\n        /* \"#utility.yul\":2757:2764   */\n      0x00\n        /* \"#utility.yul\":2786:2791   */\n      dup2\n        /* \"#utility.yul\":2775:2791   */\n      swap1\n      pop\n        /* \"#utility.yul\":2720:2797   */\n      swap2\n      swap1\n      pop\n      jump\t// out\n        /* \"#utility.yul\":2803:3084   */\n    tag_56:\n        /* \"#utility.yul\":2886:2913   */\n      tag_64\n        /* \"#utility.yul\":2908:2912   */\n      dup3\n        /* \"#utility.yul\":2886:2913   */\n      tag_65\n      jump\t// in\n    tag_64:\n        /* \"#utility.yul\":2878:2884   */\n      dup2\n        /* \"#utility.yul\":2874:2914   */\n      add\n        /* \"#utility.yul\":3016:3022   */\n      dup2\n        /* \"#utility.yul\":3004:3014   */\n      dup2\n        /* \"#utility.yul\":3001:3023   */\n      lt\n        /* \"#utility.yul\":2980:2998   */\n      0xffffffffffffffff\n        /* \"#utility.yul\":2968:2978   */\n      dup3\n        /* \"#utility.yul\":2965:2999   */\n      gt\n        /* \"#utility.yul\":2962:3024   */\n      or\n        /* \"#utility.yul\":2959:3047   */\n      iszero\n      tag_66\n      jumpi\n        /* \"#utility.yul\":3027:3045   */\n      tag_67\n      tag_61\n      jump\t// in\n    tag_67:\n        /* \"#utility.yul\":2959:3047   */\n    tag_66:\n        /* \"#utility.yul\":3067:3077   */\n      dup1\n        /* \"#utility.yul\":3063:3065   */\n      0x40\n        /* \"#utility.yul\":3056:3078   */\n      mstore\n        /* \"#utility.yul\":2846:3084   */\n      pop\n        /* \"#utility.yul\":2803:3084   */\n      pop\n      pop\n      jump\t// out\n        /* \"#utility.yul\":3090:3270   */\n    tag_61:\n        /* \"#utility.yul\":3138:3215   */\n      0x4e487b7100000000000000000000000000000000000000000000000000000000\n        /* \"#utility.yul\":3135:3136   */\n      0x00\n        /* \"#utility.yul\":3128:3216   */\n      mstore\n        /* \"#utility.yul\":3235:3239   */\n      0x41\n        /* \"#utility.yul\":3232:3233   */\n      0x04\n        /* \"#utility.yul\":3225:3240   */\n      mstore\n        /* \"#utility.yul\":3259:3263   */\n      0x24\n        /* \"#utility.yul\":3256:3257   */\n      0x00\n        /* \"#utility.yul\":3249:3264   */\n      revert\n        /* \"#utility.yul\":3276:3393   */\n    tag_33:\n        /* \"#utility.yul\":3385:3386   */\n      0x00\n        /* \"#utility.yul\":3382:3383   */\n      dup1\n        /* \"#utility.yul\":3375:3387   */\n      revert\n        /* \"#utility.yul\":3399:3516   */\n    tag_23:\n        /* \"#utility.yul\":3508:3509   */\n      0x00\n        /* \"#utility.yul\":3505:3506   */\n      dup1\n        /* \"#utility.yul\":3498:3510   */\n      revert\n        /* \"#utility.yul\":3522:3639   */\n    tag_44:\n        /* \"#utility.yul\":3631:3632   */\n      0x00\n        /* \"#utility.yul\":3628:3629   */\n      dup1\n        /* \"#utility.yul\":3621:3633   */\n      revert\n        /* \"#utility.yul\":3645:3762   */\n    tag_41:\n        /* \"#utility.yul\":3754:3755   */\n      0x00\n        /* \"#utility.yul\":3751:3752   */\n      dup1\n        /* \"#utility.yul\":3744:3756   */\n      revert\n        /* \"#utility.yul\":3768:3870   */\n    tag_65:\n        /* \"#utility.yul\":3809:3815   */\n      0x00\n        /* \"#utility.yul\":3860:3862   */\n      0x1f\n        /* \"#utility.yul\":3856:3863   */\n      not\n        /* \"#utility.yul\":3851:3853   */\n      0x1f\n        /* \"#utility.yul\":3844:3849   */\n      dup4\n        /* \"#utility.yul\":3840:3854   */\n      add\n        /* \"#utility.yul\":3836:3864   */\n      and\n        /* \"#utility.yul\":3826:3864   */\n      swap1\n      pop\n        /* \"#utility.yul\":3768:3870   */\n      swap2\n      swap1\n      pop\n      jump\t// out\n        /* \"#utility.yul\":3876:3998   */\n    tag_37:\n        /* \"#utility.yul\":3949:3973   */\n      tag_75\n        /* \"#utility.yul\":3967:3972   */\n      dup2\n        /* \"#utility.yul\":3949:3973   */\n      tag_49\n      jump\t// in\n    tag_75:\n        /* \"#utility.yul\":3942:3947   */\n      dup2\n        /* \"#utility.yul\":3939:3974   */\n      eq\n        /* \"#utility.yul\":3929:3992   */\n      tag_76\n      jumpi\n        /* \"#utility.yul\":3988:3989   */\n      0x00\n        /* \"#utility.yul\":3985:3986   */\n      dup1\n        /* \"#utility.yul\":3978:3990   */\n      revert\n        /* \"#utility.yul\":3929:3992   */\n    tag_76:\n        /* \"#utility.yul\":3876:3998   */\n      pop\n      jump\t// out\n\n    auxdata: 0xa26469706673582212209646e8f3b24a8dbb2a1bf6e0f9bd76e24c32c224e1dce9e4d369b51fddc0a27864736f6c63430008070033\n}\n",
				"bytecode": {
					"linkReferences": {},
					"object": "6080604052600160005534801561001557600080fd5b506102d1806100256000396000f3fe608060405234801561001057600080fd5b50600436106100365760003560e01c80635186701d1461003b5780636537214714610057575b600080fd5b61005560048036038101906100509190610131565b610075565b005b61005f610078565b60405161006c9190610189565b60405180910390f35b50565b60005481565b600061009161008c846101c9565b6101a4565b905080838252602082019050828560208602820111156100b4576100b3610264565b5b60005b858110156100e457816100ca888261011c565b8452602084019350602083019250506001810190506100b7565b5050509392505050565b600082601f8301126101035761010261025f565b5b813561011384826020860161007e565b91505092915050565b60008135905061012b81610284565b92915050565b6000602082840312156101475761014661026e565b5b600082013567ffffffffffffffff81111561016557610164610269565b5b610171848285016100ee565b91505092915050565b610183816101f5565b82525050565b600060208201905061019e600083018461017a565b92915050565b60006101ae6101bf565b90506101ba82826101ff565b919050565b6000604051905090565b600067ffffffffffffffff8211156101e4576101e3610230565b5b602082029050602081019050919050565b6000819050919050565b61020882610273565b810181811067ffffffffffffffff8211171561022757610226610230565b5b80604052505050565b7f4e487b7100000000000000000000000000000000000000000000000000000000600052604160045260246000fd5b600080fd5b600080fd5b600080fd5b600080fd5b6000601f19601f8301169050919050565b61028d816101f5565b811461029857600080fd5b5056fea26469706673582212209646e8f3b24a8dbb2a1bf6e0f9bd76e24c32c224e1dce9e4d369b51fddc0a27864736f6c63430008070033",
					"opcodes": "PUSH1 0x80 PUSH1 0x40 MSTORE PUSH1 0x1 PUSH1 0x0 SSTORE CALLVALUE DUP1 ISZERO PUSH2 0x15 JUMPI PUSH1 0x0 DUP1 REVERT JUMPDEST POP PUSH2 0x2D1 DUP1 PUSH2 0x25 PUSH1 0x0 CODECOPY PUSH1 0x0 RETURN INVALID PUSH1 0x80 PUSH1 0x40 MSTORE CALLVALUE DUP1 ISZERO PUSH2 0x10 JUMPI PUSH1 0x0 DUP1 REVERT JUMPDEST POP PUSH1 0x4 CALLDATASIZE LT PUSH2 0x36 JUMPI PUSH1 0x0 CALLDATALOAD PUSH1 0xE0 SHR DUP1 PUSH4 0x5186701D EQ PUSH2 0x3B JUMPI DUP1 PUSH4 0x65372147 EQ PUSH2 0x57 JUMPI JUMPDEST PUSH1 0x0 DUP1 REVERT JUMPDEST PUSH2 0x55 PUSH1 0x4 DUP1 CALLDATASIZE SUB DUP2 ADD SWAP1 PUSH2 0x50 SWAP2 SWAP1 PUSH2 0x131 JUMP JUMPDEST PUSH2 0x75 JUMP JUMPDEST STOP JUMPDEST PUSH2 0x5F PUSH2 0x78 JUMP JUMPDEST PUSH1 0x40 MLOAD PUSH2 0x6C SWAP2 SWAP1 PUSH2 0x189 JUMP JUMPDEST PUSH1 0x40 MLOAD DUP1 SWAP2 SUB SWAP1 RETURN JUMPDEST POP JUMP JUMPDEST PUSH1 0x0 SLOAD DUP2 JUMP JUMPDEST PUSH1 0x0 PUSH2 0x91 PUSH2 0x8C DUP5 PUSH2 0x1C9 JUMP JUMPDEST PUSH2 0x1A4 JUMP JUMPDEST SWAP1 POP DUP1 DUP4 DUP3 MSTORE PUSH1 0x20 DUP3 ADD SWAP1 POP DUP3 DUP6 PUSH1 0x20 DUP7 MUL DUP3 ADD GT ISZERO PUSH2 0xB4 JUMPI PUSH2 0xB3 PUSH2 0x264 JUMP JUMPDEST JUMPDEST PUSH1 0x0 JUMPDEST DUP6 DUP2 LT ISZERO PUSH2 0xE4 JUMPI DUP2 PUSH2 0xCA DUP9 DUP3 PUSH2 0x11C JUMP JUMPDEST DUP5 MSTORE PUSH1 0x20 DUP5 ADD SWAP4 POP PUSH1 0x20 DUP4 ADD SWAP3 POP POP PUSH1 0x1 DUP2 ADD SWAP1 POP PUSH2 0xB7 JUMP JUMPDEST POP POP POP SWAP4 SWAP3 POP POP POP JUMP JUMPDEST PUSH1 0x0 DUP3 PUSH1 0x1F DUP4 ADD SLT PUSH2 0x103 JUMPI PUSH2 0x102 PUSH2 0x25F JUMP JUMPDEST JUMPDEST DUP2 CALLDATALOAD PUSH2 0x113 DUP5 DUP3 PUSH1 0x20 DUP7 ADD PUSH2 0x7E JUMP JUMPDEST SWAP2 POP POP SWAP3 SWAP2 POP POP JUMP JUMPDEST PUSH1 0x0 DUP2 CALLDATALOAD SWAP1 POP PUSH2 0x12B DUP2 PUSH2 0x284 JUMP JUMPDEST SWAP3 SWAP2 POP POP JUMP JUMPDEST PUSH1 0x0 PUSH1 0x20 DUP3 DUP5 SUB SLT ISZERO PUSH2 0x147 JUMPI PUSH2 0x146 PUSH2 0x26E JUMP JUMPDEST JUMPDEST PUSH1 0x0 DUP3 ADD CALLDATALOAD PUSH8 0xFFFFFFFFFFFFFFFF DUP2 GT ISZERO PUSH2 0x165 JUMPI PUSH2 0x164 PUSH2 0x269 JUMP JUMPDEST JUMPDEST PUSH2 0x171 DUP5 DUP3 DUP6 ADD PUSH2 0xEE JUMP JUMPDEST SWAP2 POP POP SWAP3 SWAP2 POP POP JUMP JUMPDEST PUSH2 0x183 DUP2 PUSH2 0x1F5 JUMP JUMPDEST DUP3 MSTORE POP POP JUMP JUMPDEST PUSH1 0x0 PUSH1 0x20 DUP3 ADD SWAP1 POP PUSH2 0x19E PUSH1 0x0 DUP4 ADD DUP5 PUSH2 0x17A JUMP JUMPDEST SWAP3 SWAP2 POP POP JUMP JUMPDEST PUSH1 0x0 PUSH2 0x1AE PUSH2 0x1BF JUMP JUMPDEST SWAP1 POP PUSH2 0x1BA DUP3 DUP3 PUSH2 0x1FF JUMP JUMPDEST SWAP2 SWAP1 POP JUMP JUMPDEST PUSH1 0x0 PUSH1 0x40 MLOAD SWAP1 POP SWAP1 JUMP JUMPDEST PUSH1 0x0 PUSH8 0xFFFFFFFFFFFFFFFF DUP3 GT ISZERO PUSH2 0x1E4 JUMPI PUSH2 0x1E3 PUSH2 0x230 JUMP JUMPDEST JUMPDEST PUSH1 0x20 DUP3 MUL SWAP1 POP PUSH1 0x20 DUP2 ADD SWAP1 POP SWAP2 SWAP1 POP JUMP JUMPDEST PUSH1 0x0 DUP2 SWAP1 POP SWAP2 SWAP1 POP JUMP JUMPDEST PUSH2 0x208 DUP3 PUSH2 0x273 JUMP JUMPDEST DUP2 ADD DUP2 DUP2 LT PUSH8 0xFFFFFFFFFFFFFFFF DUP3 GT OR ISZERO PUSH2 0x227 JUMPI PUSH2 0x226 PUSH2 0x230 JUMP JUMPDEST JUMPDEST DUP1 PUSH1 0x40 MSTORE POP POP POP JUMP JUMPDEST PUSH32 0x4E487B7100000000000000000000000000000000000000000000000000000000 PUSH1 0x0 MSTORE PUSH1 0x41 PUSH1 0x4 MSTORE PUSH1 0x24 PUSH1 0x0 REVERT JUMPDEST PUSH1 0x0 DUP1 REVERT JUMPDEST PUSH1 0x0 DUP1 REVERT JUMPDEST PUSH1 0x0 DUP1 REVERT JUMPDEST PUSH1 0x0 DUP1 REVERT JUMPDEST PUSH1 0x0 PUSH1 0x1F NOT PUSH1 0x1F DUP4 ADD AND SWAP1 POP SWAP2 SWAP1 POP JUMP JUMPDEST PUSH2 0x28D DUP2 PUSH2 0x1F5 JUMP JUMPDEST DUP2 EQ PUSH2 0x298 JUMPI PUSH1 0x0 DUP1 REVERT JUMPDEST POP JUMP INVALID LOG2 PUSH5 0x6970667358 0x22 SLT KECCAK256 SWAP7 CHAINID 0xE8 RETURN 0xB2 0x4A DUP14 0xBB 0x2A SHL 0xF6 0xE0 0xF9 0xBD PUSH23 0xE24C32C224E1DCE9E4D369B51FDDC0A27864736F6C6343 STOP ADDMOD SMOD STOP CALLER "
				},
				"gasEstimates": {
					"creation": {
						"codeDepositCost": "144200",
						"executionCost": "22296",
						"totalCost": "166496"
					},
					"external": {
						"doWork(uint256[])": "infinite",
						"result()": "2429"
					}
				},
				"methodIdentifiers": {
					"doWork(uint256[])": "5186701d",
					"result()": "65372147"
				}
			},
			"storageLayout": {
				"storage": [
					{
						"astId": 4,
						"contract": "09_lesson_optimization/Optimization.sol:Op",
						"label": "result",
						"offset": 0,
						"slot": "0",
						"type": "t_uint256"
					}
				],
				"types": {
					"t_uint256": {
						"encoding": "inplace",
						"label": "uint256",
						"numberOfBytes": "32"
					}
				}
			},
			"userdoc": {
				"kind": "user",
				"methods": {},
				"version": 1
			}
		}
	}
}