{
	"09_lesson_optimization/Optimization.sol": {
		"Un": {
			"abi": [
				{
					"inputs": [],
					"name": "calc",
					"outputs": [],
					"stateMutability": "nonpayable",
					"type": "function"
				},
				{
					"inputs": [],
					"name": "call",
					"outputs": [],
					"stateMutability": "nonpayable",
					"type": "function"
				}
			],
			"devdoc": {
				"kind": "dev",
				"methods": {},
				"version": 1
			},
			"evm": {
				"assembly": "    /* \"09_lesson_optimization/Optimization.sol\":743:1574  contract Un {... */\n  mstore(0x40, 0x80)\n    /* \"09_lesson_optimization/Optimization.sol\":1349:1350  5 */\n  0x05\n    /* \"09_lesson_optimization/Optimization.sol\":1340:1350  uint c = 5 */\n  0x00\n  sstore\n    /* \"09_lesson_optimization/Optimization.sol\":743:1574  contract Un {... */\n  callvalue\n  dup1\n  iszero\n  tag_1\n  jumpi\n  0x00\n  dup1\n  revert\ntag_1:\n  pop\n  dataSize(sub_0)\n  dup1\n  dataOffset(sub_0)\n  0x00\n  codecopy\n  0x00\n  return\nstop\n\nsub_0: assembly {\n        /* \"09_lesson_optimization/Optimization.sol\":743:1574  contract Un {... */\n      mstore(0x40, 0x80)\n      callvalue\n      dup1\n      iszero\n      tag_1\n      jumpi\n      0x00\n      dup1\n      revert\n    tag_1:\n      pop\n      jumpi(tag_2, lt(calldatasize, 0x04))\n      shr(0xe0, calldataload(0x00))\n      dup1\n      0x28b5e32b\n      eq\n      tag_3\n      jumpi\n      dup1\n      0x96f1b6be\n      eq\n      tag_4\n      jumpi\n    tag_2:\n      0x00\n      dup1\n      revert\n        /* \"09_lesson_optimization/Optimization.sol\":1475:1572  function call() public {... */\n    tag_3:\n      tag_5\n      tag_6\n      jump\t// in\n    tag_5:\n      stop\n        /* \"09_lesson_optimization/Optimization.sol\":1368:1465  function calc() public {... */\n    tag_4:\n      tag_7\n      tag_8\n      jump\t// in\n    tag_7:\n      stop\n        /* \"09_lesson_optimization/Optimization.sol\":1475:1572  function call() public {... */\n    tag_6:\n        /* \"09_lesson_optimization/Optimization.sol\":1508:1514  uint a */\n      0x00\n        /* \"09_lesson_optimization/Optimization.sol\":1521:1522  c */\n      dup1\n      sload\n        /* \"09_lesson_optimization/Optimization.sol\":1517:1518  1 */\n      0x01\n        /* \"09_lesson_optimization/Optimization.sol\":1517:1522  1 + c */\n      tag_10\n      swap2\n      swap1\n      tag_11\n      jump\t// in\n    tag_10:\n        /* \"09_lesson_optimization/Optimization.sol\":1508:1522  uint a = 1 + c */\n      swap1\n      pop\n        /* \"09_lesson_optimization/Optimization.sol\":1532:1538  uint b */\n      0x00\n        /* \"09_lesson_optimization/Optimization.sol\":1545:1546  c */\n      dup1\n      sload\n        /* \"09_lesson_optimization/Optimization.sol\":1541:1542  2 */\n      0x02\n        /* \"09_lesson_optimization/Optimization.sol\":1541:1546  2 * c */\n      tag_12\n      swap2\n      swap1\n      tag_13\n      jump\t// in\n    tag_12:\n        /* \"09_lesson_optimization/Optimization.sol\":1532:1546  uint b = 2 * c */\n      swap1\n      pop\n        /* \"09_lesson_optimization/Optimization.sol\":1564:1565  b */\n      dup1\n        /* \"09_lesson_optimization/Optimization.sol\":1560:1561  a */\n      dup3\n        /* \"09_lesson_optimization/Optimization.sol\":1560:1565  a + b */\n      tag_14\n      swap2\n      swap1\n      tag_11\n      jump\t// in\n    tag_14:\n        /* \"09_lesson_optimization/Optimization.sol\":1556:1557  d */\n      0x01\n        /* \"09_lesson_optimization/Optimization.sol\":1556:1565  d = a + b */\n      dup2\n      swap1\n      sstore\n      pop\n        /* \"09_lesson_optimization/Optimization.sol\":1498:1572  {... */\n      pop\n      pop\n        /* \"09_lesson_optimization/Optimization.sol\":1475:1572  function call() public {... */\n      jump\t// out\n        /* \"09_lesson_optimization/Optimization.sol\":1368:1465  function calc() public {... */\n    tag_8:\n        /* \"09_lesson_optimization/Optimization.sol\":1401:1407  uint a */\n      0x00\n        /* \"09_lesson_optimization/Optimization.sol\":1414:1415  c */\n      dup1\n      sload\n        /* \"09_lesson_optimization/Optimization.sol\":1410:1411  1 */\n      0x01\n        /* \"09_lesson_optimization/Optimization.sol\":1410:1415  1 + c */\n      tag_16\n      swap2\n      swap1\n      tag_11\n      jump\t// in\n    tag_16:\n        /* \"09_lesson_optimization/Optimization.sol\":1401:1415  uint a = 1 + c */\n      swap1\n      pop\n        /* \"09_lesson_optimization/Optimization.sol\":1425:1431  uint b */\n      0x00\n        /* \"09_lesson_optimization/Optimization.sol\":1438:1439  c */\n      dup1\n      sload\n        /* \"09_lesson_optimization/Optimization.sol\":1434:1435  2 */\n      0x02\n        /* \"09_lesson_optimization/Optimization.sol\":1434:1439  2 * c */\n      tag_17\n      swap2\n      swap1\n      tag_13\n      jump\t// in\n    tag_17:\n        /* \"09_lesson_optimization/Optimization.sol\":1425:1439  uint b = 2 * c */\n      swap1\n      pop\n        /* \"09_lesson_optimization/Optimization.sol\":1457:1458  b */\n      dup1\n        /* \"09_lesson_optimization/Optimization.sol\":1453:1454  a */\n      dup3\n        /* \"09_lesson_optimization/Optimization.sol\":1453:1458  a + b */\n      tag_18\n      swap2\n      swap1\n      tag_11\n      jump\t// in\n    tag_18:\n        /* \"09_lesson_optimization/Optimization.sol\":1449:1450  d */\n      0x01\n        /* \"09_lesson_optimization/Optimization.sol\":1449:1458  d = a + b */\n      dup2\n      swap1\n      sstore\n      pop\n        /* \"09_lesson_optimization/Optimization.sol\":1391:1465  {... */\n      pop\n      pop\n        /* \"09_lesson_optimization/Optimization.sol\":1368:1465  function calc() public {... */\n      jump\t// out\n        /* \"#utility.yul\":7:312   */\n    tag_11:\n        /* \"#utility.yul\":47:50   */\n      0x00\n        /* \"#utility.yul\":66:86   */\n      tag_21\n        /* \"#utility.yul\":84:85   */\n      dup3\n        /* \"#utility.yul\":66:86   */\n      tag_22\n      jump\t// in\n    tag_21:\n        /* \"#utility.yul\":61:86   */\n      swap2\n      pop\n        /* \"#utility.yul\":100:120   */\n      tag_23\n        /* \"#utility.yul\":118:119   */\n      dup4\n        /* \"#utility.yul\":100:120   */\n      tag_22\n      jump\t// in\n    tag_23:\n        /* \"#utility.yul\":95:120   */\n      swap3\n      pop\n        /* \"#utility.yul\":254:255   */\n      dup3\n        /* \"#utility.yul\":186:252   */\n      0xffffffffffffffffffffffffffffffffffffffffffffffffffffffffffffffff\n        /* \"#utility.yul\":182:256   */\n      sub\n        /* \"#utility.yul\":179:180   */\n      dup3\n        /* \"#utility.yul\":176:257   */\n      gt\n        /* \"#utility.yul\":173:280   */\n      iszero\n      tag_24\n      jumpi\n        /* \"#utility.yul\":260:278   */\n      tag_25\n      tag_26\n      jump\t// in\n    tag_25:\n        /* \"#utility.yul\":173:280   */\n    tag_24:\n        /* \"#utility.yul\":304:305   */\n      dup3\n        /* \"#utility.yul\":301:302   */\n      dup3\n        /* \"#utility.yul\":297:306   */\n      add\n        /* \"#utility.yul\":290:306   */\n      swap1\n      pop\n        /* \"#utility.yul\":7:312   */\n      swap3\n      swap2\n      pop\n      pop\n      jump\t// out\n        /* \"#utility.yul\":318:666   */\n    tag_13:\n        /* \"#utility.yul\":358:365   */\n      0x00\n        /* \"#utility.yul\":381:401   */\n      tag_28\n        /* \"#utility.yul\":399:400   */\n      dup3\n        /* \"#utility.yul\":381:401   */\n      tag_22\n      jump\t// in\n    tag_28:\n        /* \"#utility.yul\":376:401   */\n      swap2\n      pop\n        /* \"#utility.yul\":415:435   */\n      tag_29\n        /* \"#utility.yul\":433:434   */\n      dup4\n        /* \"#utility.yul\":415:435   */\n      tag_22\n      jump\t// in\n    tag_29:\n        /* \"#utility.yul\":410:435   */\n      swap3\n      pop\n        /* \"#utility.yul\":603:604   */\n      dup2\n        /* \"#utility.yul\":535:601   */\n      0xffffffffffffffffffffffffffffffffffffffffffffffffffffffffffffffff\n        /* \"#utility.yul\":531:605   */\n      div\n        /* \"#utility.yul\":528:529   */\n      dup4\n        /* \"#utility.yul\":525:606   */\n      gt\n        /* \"#utility.yul\":520:521   */\n      dup3\n        /* \"#utility.yul\":513:522   */\n      iszero\n        /* \"#utility.yul\":506:523   */\n      iszero\n        /* \"#utility.yul\":502:607   */\n      and\n        /* \"#utility.yul\":499:630   */\n      iszero\n      tag_30\n      jumpi\n        /* \"#utility.yul\":610:628   */\n      tag_31\n      tag_26\n      jump\t// in\n    tag_31:\n        /* \"#utility.yul\":499:630   */\n    tag_30:\n        /* \"#utility.yul\":658:659   */\n      dup3\n        /* \"#utility.yul\":655:656   */\n      dup3\n        /* \"#utility.yul\":651:660   */\n      mul\n        /* \"#utility.yul\":640:660   */\n      swap1\n      pop\n        /* \"#utility.yul\":318:666   */\n      swap3\n      swap2\n      pop\n      pop\n      jump\t// out\n        /* \"#utility.yul\":672:749   */\n    tag_22:\n        /* \"#utility.yul\":709:716   */\n      0x00\n        /* \"#utility.yul\":738:743   */\n      dup2\n        /* \"#utility.yul\":727:743   */\n      swap1\n      pop\n        /* \"#utility.yul\":672:749   */\n      swap2\n      swap1\n      pop\n      jump\t// out\n        /* \"#utility.yul\":755:935   */\n    tag_26:\n        /* \"#utility.yul\":803:880   */\n      0x4e487b7100000000000000000000000000000000000000000000000000000000\n        /* \"#utility.yul\":800:801   */\n      0x00\n        /* \"#utility.yul\":793:881   */\n      mstore\n        /* \"#utility.yul\":900:904   */\n      0x11\n        /* \"#utility.yul\":897:898   */\n      0x04\n        /* \"#utility.yul\":890:905   */\n      mstore\n        /* \"#utility.yul\":924:928   */\n      0x24\n        /* \"#utility.yul\":921:922   */\n      0x00\n        /* \"#utility.yul\":914:929   */\n      revert\n\n    auxdata: 0xa2646970667358221220cd504b3b8d413b26ac319586153a9135fd8dafb4d145116ed02bfd3837f1e9db64736f6c63430008070033\n}\n",
				"bytecode": {
					"linkReferences": {},
					"object": "6080604052600560005534801561001557600080fd5b506101e2806100256000396000f3fe608060405234801561001057600080fd5b50600436106100365760003560e01c806328b5e32b1461003b57806396f1b6be14610045575b600080fd5b61004361004f565b005b61004d610089565b005b60008054600161005f91906100c3565b90506000805460026100719190610119565b9050808261007f91906100c3565b6001819055505050565b60008054600161009991906100c3565b90506000805460026100ab9190610119565b905080826100b991906100c3565b6001819055505050565b60006100ce82610173565b91506100d983610173565b9250827fffffffffffffffffffffffffffffffffffffffffffffffffffffffffffffffff0382111561010e5761010d61017d565b5b828201905092915050565b600061012482610173565b915061012f83610173565b9250817fffffffffffffffffffffffffffffffffffffffffffffffffffffffffffffffff04831182151516156101685761016761017d565b5b828202905092915050565b6000819050919050565b7f4e487b7100000000000000000000000000000000000000000000000000000000600052601160045260246000fdfea2646970667358221220cd504b3b8d413b26ac319586153a9135fd8dafb4d145116ed02bfd3837f1e9db64736f6c63430008070033",
					"opcodes": "PUSH1 0x80 PUSH1 0x40 MSTORE PUSH1 0x5 PUSH1 0x0 SSTORE CALLVALUE DUP1 ISZERO PUSH2 0x15 JUMPI PUSH1 0x0 DUP1 REVERT JUMPDEST POP PUSH2 0x1E2 DUP1 PUSH2 0x25 PUSH1 0x0 CODECOPY PUSH1 0x0 RETURN INVALID PUSH1 0x80 PUSH1 0x40 MSTORE CALLVALUE DUP1 ISZERO PUSH2 0x10 JUMPI PUSH1 0x0 DUP1 REVERT JUMPDEST POP PUSH1 0x4 CALLDATASIZE LT PUSH2 0x36 JUMPI PUSH1 0x0 CALLDATALOAD PUSH1 0xE0 SHR DUP1 PUSH4 0x28B5E32B EQ PUSH2 0x3B JUMPI DUP1 PUSH4 0x96F1B6BE EQ PUSH2 0x45 JUMPI JUMPDEST PUSH1 0x0 DUP1 REVERT JUMPDEST PUSH2 0x43 PUSH2 0x4F JUMP JUMPDEST STOP JUMPDEST PUSH2 0x4D PUSH2 0x89 JUMP JUMPDEST STOP JUMPDEST PUSH1 0x0 DUP1 SLOAD PUSH1 0x1 PUSH2 0x5F SWAP2 SWAP1 PUSH2 0xC3 JUMP JUMPDEST SWAP1 POP PUSH1 0x0 DUP1 SLOAD PUSH1 0x2 PUSH2 0x71 SWAP2 SWAP1 PUSH2 0x119 JUMP JUMPDEST SWAP1 POP DUP1 DUP3 PUSH2 0x7F SWAP2 SWAP1 PUSH2 0xC3 JUMP JUMPDEST PUSH1 0x1 DUP2 SWAP1 SSTORE POP POP POP JUMP JUMPDEST PUSH1 0x0 DUP1 SLOAD PUSH1 0x1 PUSH2 0x99 SWAP2 SWAP1 PUSH2 0xC3 JUMP JUMPDEST SWAP1 POP PUSH1 0x0 DUP1 SLOAD PUSH1 0x2 PUSH2 0xAB SWAP2 SWAP1 PUSH2 0x119 JUMP JUMPDEST SWAP1 POP DUP1 DUP3 PUSH2 0xB9 SWAP2 SWAP1 PUSH2 0xC3 JUMP JUMPDEST PUSH1 0x1 DUP2 SWAP1 SSTORE POP POP POP JUMP JUMPDEST PUSH1 0x0 PUSH2 0xCE DUP3 PUSH2 0x173 JUMP JUMPDEST SWAP2 POP PUSH2 0xD9 DUP4 PUSH2 0x173 JUMP JUMPDEST SWAP3 POP DUP3 PUSH32 0xFFFFFFFFFFFFFFFFFFFFFFFFFFFFFFFFFFFFFFFFFFFFFFFFFFFFFFFFFFFFFFFF SUB DUP3 GT ISZERO PUSH2 0x10E JUMPI PUSH2 0x10D PUSH2 0x17D JUMP JUMPDEST JUMPDEST DUP3 DUP3 ADD SWAP1 POP SWAP3 SWAP2 POP POP JUMP JUMPDEST PUSH1 0x0 PUSH2 0x124 DUP3 PUSH2 0x173 JUMP JUMPDEST SWAP2 POP PUSH2 0x12F DUP4 PUSH2 0x173 JUMP JUMPDEST SWAP3 POP DUP2 PUSH32 0xFFFFFFFFFFFFFFFFFFFFFFFFFFFFFFFFFFFFFFFFFFFFFFFFFFFFFFFFFFFFFFFF DIV DUP4 GT DUP3 ISZERO ISZERO AND ISZERO PUSH2 0x168 JUMPI PUSH2 0x167 PUSH2 0x17D JUMP JUMPDEST JUMPDEST DUP3 DUP3 MUL SWAP1 POP SWAP3 SWAP2 POP POP JUMP JUMPDEST PUSH1 0x0 DUP2 SWAP1 POP SWAP2 SWAP1 POP JUMP JUMPDEST PUSH32 0x4E487B7100000000000000000000000000000000000000000000000000000000 PUSH1 0x0 MSTORE PUSH1 0x11 PUSH1 0x4 MSTORE PUSH1 0x24 PUSH1 0x0 REVERT INVALID LOG2 PUSH5 0x6970667358 0x22 SLT KECCAK256 0xCD POP 0x4B EXTCODESIZE DUP14 COINBASE EXTCODESIZE 0x26 0xAC BALANCE SWAP6 DUP7 ISZERO GASPRICE SWAP2 CALLDATALOAD REVERT DUP14 0xAF 0xB4 0xD1 GASLIMIT GT PUSH15 0xD02BFD3837F1E9DB64736F6C634300 ADDMOD SMOD STOP CALLER "
				},
				"gasEstimates": {
					"creation": {
						"codeDepositCost": "96400",
						"executionCost": "22253",
						"totalCost": "118653"
					},
					"external": {
						"calc()": "infinite",
						"call()": "infinite"
					}
				},
				"methodIdentifiers": {
					"calc()": "96f1b6be",
					"call()": "28b5e32b"
				}
			},
			"storageLayout": {
				"storage": [
					{
						"astId": 32,
						"contract": "09_lesson_optimization/Optimization.sol:Un",
						"label": "c",
						"offset": 0,
						"slot": "0",
						"type": "t_uint256"
					},
					{
						"astId": 34,
						"contract": "09_lesson_optimization/Optimization.sol:Un",
						"label": "d",
						"offset": 0,
						"slot": "1",
						"type": "t_uint256"
					}
				],
				"types": {
					"t_uint256": {
						"encoding": "inplace",
						"label": "uint256",
						"numberOfBytes": "32"
					}
				}
			},
			"userdoc": {
				"kind": "user",
				"methods": {},
				"version": 1
			}
		}
	}
}