{
	"09_lesson_optimization/Optimization.sol": {
		"Un": {
			"abi": [
				{
					"inputs": [],
					"name": "calc",
					"outputs": [],
					"stateMutability": "nonpayable",
					"type": "function"
				},
				{
					"inputs": [
						{
							"internalType": "uint256",
							"name": "a",
							"type": "uint256"
						},
						{
							"internalType": "uint256",
							"name": "b",
							"type": "uint256"
						}
					],
					"name": "call",
					"outputs": [],
					"stateMutability": "nonpayable",
					"type": "function"
				}
			],
			"devdoc": {
				"kind": "dev",
				"methods": {},
				"version": 1
			},
			"evm": {
				"assembly": "    /* \"09_lesson_optimization/Optimization.sol\":743:1588  contract Un {... */\n  mstore(0x40, 0x80)\n    /* \"09_lesson_optimization/Optimization.sol\":1349:1350  5 */\n  0x05\n    /* \"09_lesson_optimization/Optimization.sol\":1340:1350  uint c = 5 */\n  0x00\n  sstore\n    /* \"09_lesson_optimization/Optimization.sol\":743:1588  contract Un {... */\n  callvalue\n  dup1\n  iszero\n  tag_1\n  jumpi\n  0x00\n  dup1\n  revert\ntag_1:\n  pop\n  dataSize(sub_0)\n  dup1\n  dataOffset(sub_0)\n  0x00\n  codecopy\n  0x00\n  return\nstop\n\nsub_0: assembly {\n        /* \"09_lesson_optimization/Optimization.sol\":743:1588  contract Un {... */\n      mstore(0x40, 0x80)\n      callvalue\n      dup1\n      iszero\n      tag_1\n      jumpi\n      0x00\n      dup1\n      revert\n    tag_1:\n      pop\n      jumpi(tag_2, lt(calldatasize, 0x04))\n      shr(0xe0, calldataload(0x00))\n      dup1\n      0x96f1b6be\n      eq\n      tag_3\n      jumpi\n      dup1\n      0xa1af1f42\n      eq\n      tag_4\n      jumpi\n    tag_2:\n      0x00\n      dup1\n      revert\n        /* \"09_lesson_optimization/Optimization.sol\":1368:1465  function calc() public {... */\n    tag_3:\n      tag_5\n      tag_6\n      jump\t// in\n    tag_5:\n      stop\n        /* \"09_lesson_optimization/Optimization.sol\":1475:1586  function call(uint a, uint b) public {... */\n    tag_4:\n      tag_7\n      0x04\n      dup1\n      calldatasize\n      sub\n      dup2\n      add\n      swap1\n      tag_8\n      swap2\n      swap1\n      tag_9\n      jump\t// in\n    tag_8:\n      tag_10\n      jump\t// in\n    tag_7:\n      stop\n        /* \"09_lesson_optimization/Optimization.sol\":1368:1465  function calc() public {... */\n    tag_6:\n        /* \"09_lesson_optimization/Optimization.sol\":1401:1407  uint a */\n      0x00\n        /* \"09_lesson_optimization/Optimization.sol\":1414:1415  c */\n      dup1\n      sload\n        /* \"09_lesson_optimization/Optimization.sol\":1410:1411  1 */\n      0x01\n        /* \"09_lesson_optimization/Optimization.sol\":1410:1415  1 + c */\n      tag_12\n      swap2\n      swap1\n      tag_13\n      jump\t// in\n    tag_12:\n        /* \"09_lesson_optimization/Optimization.sol\":1401:1415  uint a = 1 + c */\n      swap1\n      pop\n        /* \"09_lesson_optimization/Optimization.sol\":1425:1431  uint b */\n      0x00\n        /* \"09_lesson_optimization/Optimization.sol\":1438:1439  c */\n      dup1\n      sload\n        /* \"09_lesson_optimization/Optimization.sol\":1434:1435  2 */\n      0x02\n        /* \"09_lesson_optimization/Optimization.sol\":1434:1439  2 * c */\n      tag_14\n      swap2\n      swap1\n      tag_15\n      jump\t// in\n    tag_14:\n        /* \"09_lesson_optimization/Optimization.sol\":1425:1439  uint b = 2 * c */\n      swap1\n      pop\n        /* \"09_lesson_optimization/Optimization.sol\":1457:1458  b */\n      dup1\n        /* \"09_lesson_optimization/Optimization.sol\":1453:1454  a */\n      dup3\n        /* \"09_lesson_optimization/Optimization.sol\":1453:1458  a + b */\n      tag_16\n      swap2\n      swap1\n      tag_13\n      jump\t// in\n    tag_16:\n        /* \"09_lesson_optimization/Optimization.sol\":1449:1450  d */\n      0x01\n        /* \"09_lesson_optimization/Optimization.sol\":1449:1458  d = a + b */\n      dup2\n      swap1\n      sstore\n      pop\n        /* \"09_lesson_optimization/Optimization.sol\":1391:1465  {... */\n      pop\n      pop\n        /* \"09_lesson_optimization/Optimization.sol\":1368:1465  function calc() public {... */\n      jump\t// out\n        /* \"09_lesson_optimization/Optimization.sol\":1475:1586  function call(uint a, uint b) public {... */\n    tag_10:\n        /* \"09_lesson_optimization/Optimization.sol\":1522:1528  uint a */\n      0x00\n        /* \"09_lesson_optimization/Optimization.sol\":1535:1536  c */\n      dup1\n      sload\n        /* \"09_lesson_optimization/Optimization.sol\":1531:1532  1 */\n      0x01\n        /* \"09_lesson_optimization/Optimization.sol\":1531:1536  1 + c */\n      tag_18\n      swap2\n      swap1\n      tag_13\n      jump\t// in\n    tag_18:\n        /* \"09_lesson_optimization/Optimization.sol\":1522:1536  uint a = 1 + c */\n      swap1\n      pop\n        /* \"09_lesson_optimization/Optimization.sol\":1546:1552  uint b */\n      0x00\n        /* \"09_lesson_optimization/Optimization.sol\":1559:1560  c */\n      dup1\n      sload\n        /* \"09_lesson_optimization/Optimization.sol\":1555:1556  2 */\n      0x02\n        /* \"09_lesson_optimization/Optimization.sol\":1555:1560  2 * c */\n      tag_19\n      swap2\n      swap1\n      tag_15\n      jump\t// in\n    tag_19:\n        /* \"09_lesson_optimization/Optimization.sol\":1546:1560  uint b = 2 * c */\n      swap1\n      pop\n        /* \"09_lesson_optimization/Optimization.sol\":1578:1579  b */\n      dup1\n        /* \"09_lesson_optimization/Optimization.sol\":1574:1575  a */\n      dup3\n        /* \"09_lesson_optimization/Optimization.sol\":1574:1579  a + b */\n      tag_20\n      swap2\n      swap1\n      tag_13\n      jump\t// in\n    tag_20:\n        /* \"09_lesson_optimization/Optimization.sol\":1570:1571  d */\n      0x01\n        /* \"09_lesson_optimization/Optimization.sol\":1570:1579  d = a + b */\n      dup2\n      swap1\n      sstore\n      pop\n        /* \"09_lesson_optimization/Optimization.sol\":1512:1586  {... */\n      pop\n      pop\n        /* \"09_lesson_optimization/Optimization.sol\":1475:1586  function call(uint a, uint b) public {... */\n      pop\n      pop\n      jump\t// out\n        /* \"#utility.yul\":7:146   */\n    tag_22:\n        /* \"#utility.yul\":53:58   */\n      0x00\n        /* \"#utility.yul\":91:97   */\n      dup2\n        /* \"#utility.yul\":78:98   */\n      calldataload\n        /* \"#utility.yul\":69:98   */\n      swap1\n      pop\n        /* \"#utility.yul\":107:140   */\n      tag_24\n        /* \"#utility.yul\":134:139   */\n      dup2\n        /* \"#utility.yul\":107:140   */\n      tag_25\n      jump\t// in\n    tag_24:\n        /* \"#utility.yul\":7:146   */\n      swap3\n      swap2\n      pop\n      pop\n      jump\t// out\n        /* \"#utility.yul\":152:626   */\n    tag_9:\n        /* \"#utility.yul\":220:226   */\n      0x00\n        /* \"#utility.yul\":228:234   */\n      dup1\n        /* \"#utility.yul\":277:279   */\n      0x40\n        /* \"#utility.yul\":265:274   */\n      dup4\n        /* \"#utility.yul\":256:263   */\n      dup6\n        /* \"#utility.yul\":252:275   */\n      sub\n        /* \"#utility.yul\":248:280   */\n      slt\n        /* \"#utility.yul\":245:364   */\n      iszero\n      tag_27\n      jumpi\n        /* \"#utility.yul\":283:362   */\n      tag_28\n      tag_29\n      jump\t// in\n    tag_28:\n        /* \"#utility.yul\":245:364   */\n    tag_27:\n        /* \"#utility.yul\":403:404   */\n      0x00\n        /* \"#utility.yul\":428:481   */\n      tag_30\n        /* \"#utility.yul\":473:480   */\n      dup6\n        /* \"#utility.yul\":464:470   */\n      dup3\n        /* \"#utility.yul\":453:462   */\n      dup7\n        /* \"#utility.yul\":449:471   */\n      add\n        /* \"#utility.yul\":428:481   */\n      tag_22\n      jump\t// in\n    tag_30:\n        /* \"#utility.yul\":418:481   */\n      swap3\n      pop\n        /* \"#utility.yul\":374:491   */\n      pop\n        /* \"#utility.yul\":530:532   */\n      0x20\n        /* \"#utility.yul\":556:609   */\n      tag_31\n        /* \"#utility.yul\":601:608   */\n      dup6\n        /* \"#utility.yul\":592:598   */\n      dup3\n        /* \"#utility.yul\":581:590   */\n      dup7\n        /* \"#utility.yul\":577:599   */\n      add\n        /* \"#utility.yul\":556:609   */\n      tag_22\n      jump\t// in\n    tag_31:\n        /* \"#utility.yul\":546:609   */\n      swap2\n      pop\n        /* \"#utility.yul\":501:619   */\n      pop\n        /* \"#utility.yul\":152:626   */\n      swap3\n      pop\n      swap3\n      swap1\n      pop\n      jump\t// out\n        /* \"#utility.yul\":713:1018   */\n    tag_13:\n        /* \"#utility.yul\":753:756   */\n      0x00\n        /* \"#utility.yul\":772:792   */\n      tag_35\n        /* \"#utility.yul\":790:791   */\n      dup3\n        /* \"#utility.yul\":772:792   */\n      tag_36\n      jump\t// in\n    tag_35:\n        /* \"#utility.yul\":767:792   */\n      swap2\n      pop\n        /* \"#utility.yul\":806:826   */\n      tag_37\n        /* \"#utility.yul\":824:825   */\n      dup4\n        /* \"#utility.yul\":806:826   */\n      tag_36\n      jump\t// in\n    tag_37:\n        /* \"#utility.yul\":801:826   */\n      swap3\n      pop\n        /* \"#utility.yul\":960:961   */\n      dup3\n        /* \"#utility.yul\":892:958   */\n      0xffffffffffffffffffffffffffffffffffffffffffffffffffffffffffffffff\n        /* \"#utility.yul\":888:962   */\n      sub\n        /* \"#utility.yul\":885:886   */\n      dup3\n        /* \"#utility.yul\":882:963   */\n      gt\n        /* \"#utility.yul\":879:986   */\n      iszero\n      tag_38\n      jumpi\n        /* \"#utility.yul\":966:984   */\n      tag_39\n      tag_40\n      jump\t// in\n    tag_39:\n        /* \"#utility.yul\":879:986   */\n    tag_38:\n        /* \"#utility.yul\":1010:1011   */\n      dup3\n        /* \"#utility.yul\":1007:1008   */\n      dup3\n        /* \"#utility.yul\":1003:1012   */\n      add\n        /* \"#utility.yul\":996:1012   */\n      swap1\n      pop\n        /* \"#utility.yul\":713:1018   */\n      swap3\n      swap2\n      pop\n      pop\n      jump\t// out\n        /* \"#utility.yul\":1024:1372   */\n    tag_15:\n        /* \"#utility.yul\":1064:1071   */\n      0x00\n        /* \"#utility.yul\":1087:1107   */\n      tag_42\n        /* \"#utility.yul\":1105:1106   */\n      dup3\n        /* \"#utility.yul\":1087:1107   */\n      tag_36\n      jump\t// in\n    tag_42:\n        /* \"#utility.yul\":1082:1107   */\n      swap2\n      pop\n        /* \"#utility.yul\":1121:1141   */\n      tag_43\n        /* \"#utility.yul\":1139:1140   */\n      dup4\n        /* \"#utility.yul\":1121:1141   */\n      tag_36\n      jump\t// in\n    tag_43:\n        /* \"#utility.yul\":1116:1141   */\n      swap3\n      pop\n        /* \"#utility.yul\":1309:1310   */\n      dup2\n        /* \"#utility.yul\":1241:1307   */\n      0xffffffffffffffffffffffffffffffffffffffffffffffffffffffffffffffff\n        /* \"#utility.yul\":1237:1311   */\n      div\n        /* \"#utility.yul\":1234:1235   */\n      dup4\n        /* \"#utility.yul\":1231:1312   */\n      gt\n        /* \"#utility.yul\":1226:1227   */\n      dup3\n        /* \"#utility.yul\":1219:1228   */\n      iszero\n        /* \"#utility.yul\":1212:1229   */\n      iszero\n        /* \"#utility.yul\":1208:1313   */\n      and\n        /* \"#utility.yul\":1205:1336   */\n      iszero\n      tag_44\n      jumpi\n        /* \"#utility.yul\":1316:1334   */\n      tag_45\n      tag_40\n      jump\t// in\n    tag_45:\n        /* \"#utility.yul\":1205:1336   */\n    tag_44:\n        /* \"#utility.yul\":1364:1365   */\n      dup3\n        /* \"#utility.yul\":1361:1362   */\n      dup3\n        /* \"#utility.yul\":1357:1366   */\n      mul\n        /* \"#utility.yul\":1346:1366   */\n      swap1\n      pop\n        /* \"#utility.yul\":1024:1372   */\n      swap3\n      swap2\n      pop\n      pop\n      jump\t// out\n        /* \"#utility.yul\":1378:1455   */\n    tag_36:\n        /* \"#utility.yul\":1415:1422   */\n      0x00\n        /* \"#utility.yul\":1444:1449   */\n      dup2\n        /* \"#utility.yul\":1433:1449   */\n      swap1\n      pop\n        /* \"#utility.yul\":1378:1455   */\n      swap2\n      swap1\n      pop\n      jump\t// out\n        /* \"#utility.yul\":1461:1641   */\n    tag_40:\n        /* \"#utility.yul\":1509:1586   */\n      0x4e487b7100000000000000000000000000000000000000000000000000000000\n        /* \"#utility.yul\":1506:1507   */\n      0x00\n        /* \"#utility.yul\":1499:1587   */\n      mstore\n        /* \"#utility.yul\":1606:1610   */\n      0x11\n        /* \"#utility.yul\":1603:1604   */\n      0x04\n        /* \"#utility.yul\":1596:1611   */\n      mstore\n        /* \"#utility.yul\":1630:1634   */\n      0x24\n        /* \"#utility.yul\":1627:1628   */\n      0x00\n        /* \"#utility.yul\":1620:1635   */\n      revert\n        /* \"#utility.yul\":1770:1887   */\n    tag_29:\n        /* \"#utility.yul\":1879:1880   */\n      0x00\n        /* \"#utility.yul\":1876:1877   */\n      dup1\n        /* \"#utility.yul\":1869:1881   */\n      revert\n        /* \"#utility.yul\":1893:2015   */\n    tag_25:\n        /* \"#utility.yul\":1966:1990   */\n      tag_52\n        /* \"#utility.yul\":1984:1989   */\n      dup2\n        /* \"#utility.yul\":1966:1990   */\n      tag_36\n      jump\t// in\n    tag_52:\n        /* \"#utility.yul\":1959:1964   */\n      dup2\n        /* \"#utility.yul\":1956:1991   */\n      eq\n        /* \"#utility.yul\":1946:2009   */\n      tag_53\n      jumpi\n        /* \"#utility.yul\":2005:2006   */\n      0x00\n        /* \"#utility.yul\":2002:2003   */\n      dup1\n        /* \"#utility.yul\":1995:2007   */\n      revert\n        /* \"#utility.yul\":1946:2009   */\n    tag_53:\n        /* \"#utility.yul\":1893:2015   */\n      pop\n      jump\t// out\n\n    auxdata: 0xa2646970667358221220dbeb945178cb8e21a49e02e1054bfdee204a3f05bdef6a8023a37b1841d592d664736f6c63430008070033\n}\n",
				"bytecode": {
					"linkReferences": {},
					"object": "6080604052600560005534801561001557600080fd5b50610267806100256000396000f3fe608060405234801561001057600080fd5b50600436106100365760003560e01c806396f1b6be1461003b578063a1af1f4214610045575b600080fd5b610043610061565b005b61005f600480360381019061005a91906100ec565b61009b565b005b600080546001610071919061012c565b90506000805460026100839190610182565b90508082610091919061012c565b6001819055505050565b6000805460016100ab919061012c565b90506000805460026100bd9190610182565b905080826100cb919061012c565b60018190555050505050565b6000813590506100e68161021a565b92915050565b6000806040838503121561010357610102610215565b5b6000610111858286016100d7565b9250506020610122858286016100d7565b9150509250929050565b6000610137826101dc565b9150610142836101dc565b9250827fffffffffffffffffffffffffffffffffffffffffffffffffffffffffffffffff03821115610177576101766101e6565b5b828201905092915050565b600061018d826101dc565b9150610198836101dc565b9250817fffffffffffffffffffffffffffffffffffffffffffffffffffffffffffffffff04831182151516156101d1576101d06101e6565b5b828202905092915050565b6000819050919050565b7f4e487b7100000000000000000000000000000000000000000000000000000000600052601160045260246000fd5b600080fd5b610223816101dc565b811461022e57600080fd5b5056fea2646970667358221220dbeb945178cb8e21a49e02e1054bfdee204a3f05bdef6a8023a37b1841d592d664736f6c63430008070033",
					"opcodes": "PUSH1 0x80 PUSH1 0x40 MSTORE PUSH1 0x5 PUSH1 0x0 SSTORE CALLVALUE DUP1 ISZERO PUSH2 0x15 JUMPI PUSH1 0x0 DUP1 REVERT JUMPDEST POP PUSH2 0x267 DUP1 PUSH2 0x25 PUSH1 0x0 CODECOPY PUSH1 0x0 RETURN INVALID PUSH1 0x80 PUSH1 0x40 MSTORE CALLVALUE DUP1 ISZERO PUSH2 0x10 JUMPI PUSH1 0x0 DUP1 REVERT JUMPDEST POP PUSH1 0x4 CALLDATASIZE LT PUSH2 0x36 JUMPI PUSH1 0x0 CALLDATALOAD PUSH1 0xE0 SHR DUP1 PUSH4 0x96F1B6BE EQ PUSH2 0x3B JUMPI DUP1 PUSH4 0xA1AF1F42 EQ PUSH2 0x45 JUMPI JUMPDEST PUSH1 0x0 DUP1 REVERT JUMPDEST PUSH2 0x43 PUSH2 0x61 JUMP JUMPDEST STOP JUMPDEST PUSH2 0x5F PUSH1 0x4 DUP1 CALLDATASIZE SUB DUP2 ADD SWAP1 PUSH2 0x5A SWAP2 SWAP1 PUSH2 0xEC JUMP JUMPDEST PUSH2 0x9B JUMP JUMPDEST STOP JUMPDEST PUSH1 0x0 DUP1 SLOAD PUSH1 0x1 PUSH2 0x71 SWAP2 SWAP1 PUSH2 0x12C JUMP JUMPDEST SWAP1 POP PUSH1 0x0 DUP1 SLOAD PUSH1 0x2 PUSH2 0x83 SWAP2 SWAP1 PUSH2 0x182 JUMP JUMPDEST SWAP1 POP DUP1 DUP3 PUSH2 0x91 SWAP2 SWAP1 PUSH2 0x12C JUMP JUMPDEST PUSH1 0x1 DUP2 SWAP1 SSTORE POP POP POP JUMP JUMPDEST PUSH1 0x0 DUP1 SLOAD PUSH1 0x1 PUSH2 0xAB SWAP2 SWAP1 PUSH2 0x12C JUMP JUMPDEST SWAP1 POP PUSH1 0x0 DUP1 SLOAD PUSH1 0x2 PUSH2 0xBD SWAP2 SWAP1 PUSH2 0x182 JUMP JUMPDEST SWAP1 POP DUP1 DUP3 PUSH2 0xCB SWAP2 SWAP1 PUSH2 0x12C JUMP JUMPDEST PUSH1 0x1 DUP2 SWAP1 SSTORE POP POP POP POP POP JUMP JUMPDEST PUSH1 0x0 DUP2 CALLDATALOAD SWAP1 POP PUSH2 0xE6 DUP2 PUSH2 0x21A JUMP JUMPDEST SWAP3 SWAP2 POP POP JUMP JUMPDEST PUSH1 0x0 DUP1 PUSH1 0x40 DUP4 DUP6 SUB SLT ISZERO PUSH2 0x103 JUMPI PUSH2 0x102 PUSH2 0x215 JUMP JUMPDEST JUMPDEST PUSH1 0x0 PUSH2 0x111 DUP6 DUP3 DUP7 ADD PUSH2 0xD7 JUMP JUMPDEST SWAP3 POP POP PUSH1 0x20 PUSH2 0x122 DUP6 DUP3 DUP7 ADD PUSH2 0xD7 JUMP JUMPDEST SWAP2 POP POP SWAP3 POP SWAP3 SWAP1 POP JUMP JUMPDEST PUSH1 0x0 PUSH2 0x137 DUP3 PUSH2 0x1DC JUMP JUMPDEST SWAP2 POP PUSH2 0x142 DUP4 PUSH2 0x1DC JUMP JUMPDEST SWAP3 POP DUP3 PUSH32 0xFFFFFFFFFFFFFFFFFFFFFFFFFFFFFFFFFFFFFFFFFFFFFFFFFFFFFFFFFFFFFFFF SUB DUP3 GT ISZERO PUSH2 0x177 JUMPI PUSH2 0x176 PUSH2 0x1E6 JUMP JUMPDEST JUMPDEST DUP3 DUP3 ADD SWAP1 POP SWAP3 SWAP2 POP POP JUMP JUMPDEST PUSH1 0x0 PUSH2 0x18D DUP3 PUSH2 0x1DC JUMP JUMPDEST SWAP2 POP PUSH2 0x198 DUP4 PUSH2 0x1DC JUMP JUMPDEST SWAP3 POP DUP2 PUSH32 0xFFFFFFFFFFFFFFFFFFFFFFFFFFFFFFFFFFFFFFFFFFFFFFFFFFFFFFFFFFFFFFFF DIV DUP4 GT DUP3 ISZERO ISZERO AND ISZERO PUSH2 0x1D1 JUMPI PUSH2 0x1D0 PUSH2 0x1E6 JUMP JUMPDEST JUMPDEST DUP3 DUP3 MUL SWAP1 POP SWAP3 SWAP2 POP POP JUMP JUMPDEST PUSH1 0x0 DUP2 SWAP1 POP SWAP2 SWAP1 POP JUMP JUMPDEST PUSH32 0x4E487B7100000000000000000000000000000000000000000000000000000000 PUSH1 0x0 MSTORE PUSH1 0x11 PUSH1 0x4 MSTORE PUSH1 0x24 PUSH1 0x0 REVERT JUMPDEST PUSH1 0x0 DUP1 REVERT JUMPDEST PUSH2 0x223 DUP2 PUSH2 0x1DC JUMP JUMPDEST DUP2 EQ PUSH2 0x22E JUMPI PUSH1 0x0 DUP1 REVERT JUMPDEST POP JUMP INVALID LOG2 PUSH5 0x6970667358 0x22 SLT KECCAK256 0xDB 0xEB SWAP5 MLOAD PUSH25 0xCB8E21A49E02E1054BFDEE204A3F05BDEF6A8023A37B1841D5 SWAP3 0xD6 PUSH5 0x736F6C6343 STOP ADDMOD SMOD STOP CALLER "
				},
				"gasEstimates": {
					"creation": {
						"codeDepositCost": "123000",
						"executionCost": "22277",
						"totalCost": "145277"
					},
					"external": {
						"calc()": "infinite",
						"call(uint256,uint256)": "infinite"
					}
				},
				"methodIdentifiers": {
					"calc()": "96f1b6be",
					"call(uint256,uint256)": "a1af1f42"
				}
			},
			"storageLayout": {
				"storage": [
					{
						"astId": 32,
						"contract": "09_lesson_optimization/Optimization.sol:Un",
						"label": "c",
						"offset": 0,
						"slot": "0",
						"type": "t_uint256"
					},
					{
						"astId": 34,
						"contract": "09_lesson_optimization/Optimization.sol:Un",
						"label": "d",
						"offset": 0,
						"slot": "1",
						"type": "t_uint256"
					}
				],
				"types": {
					"t_uint256": {
						"encoding": "inplace",
						"label": "uint256",
						"numberOfBytes": "32"
					}
				}
			},
			"userdoc": {
				"kind": "user",
				"methods": {},
				"version": 1
			}
		}
	}
}