{
	"09_lesson_optimization/Optimization.sol": {
		"Un": {
			"abi": [
				{
					"inputs": [],
					"name": "calc",
					"outputs": [],
					"stateMutability": "nonpayable",
					"type": "function"
				},
				{
					"inputs": [],
					"name": "calc2",
					"outputs": [],
					"stateMutability": "nonpayable",
					"type": "function"
				},
				{
					"inputs": [],
					"name": "call1",
					"outputs": [],
					"stateMutability": "nonpayable",
					"type": "function"
				}
			],
			"devdoc": {
				"kind": "dev",
				"methods": {},
				"version": 1
			},
			"evm": {
				"assembly": "    /* \"09_lesson_optimization/Optimization.sol\":743:1673  contract Un {... */\n  mstore(0x40, 0x80)\n    /* \"09_lesson_optimization/Optimization.sol\":1349:1350  5 */\n  0x05\n    /* \"09_lesson_optimization/Optimization.sol\":1340:1350  uint c = 5 */\n  0x00\n  sstore\n    /* \"09_lesson_optimization/Optimization.sol\":743:1673  contract Un {... */\n  callvalue\n  dup1\n  iszero\n  tag_1\n  jumpi\n  0x00\n  dup1\n  revert\ntag_1:\n  pop\n  dataSize(sub_0)\n  dup1\n  dataOffset(sub_0)\n  0x00\n  codecopy\n  0x00\n  return\nstop\n\nsub_0: assembly {\n        /* \"09_lesson_optimization/Optimization.sol\":743:1673  contract Un {... */\n      mstore(0x40, 0x80)\n      callvalue\n      dup1\n      iszero\n      tag_1\n      jumpi\n      0x00\n      dup1\n      revert\n    tag_1:\n      pop\n      jumpi(tag_2, lt(calldatasize, 0x04))\n      shr(0xe0, calldataload(0x00))\n      dup1\n      0x458db545\n      eq\n      tag_3\n      jumpi\n      dup1\n      0x96f1b6be\n      eq\n      tag_4\n      jumpi\n      dup1\n      0xe236188c\n      eq\n      tag_5\n      jumpi\n    tag_2:\n      0x00\n      dup1\n      revert\n        /* \"09_lesson_optimization/Optimization.sol\":1573:1671  function calc2() public {... */\n    tag_3:\n      tag_6\n      tag_7\n      jump\t// in\n    tag_6:\n      stop\n        /* \"09_lesson_optimization/Optimization.sol\":1368:1465  function calc() public {... */\n    tag_4:\n      tag_8\n      tag_9\n      jump\t// in\n    tag_8:\n      stop\n        /* \"09_lesson_optimization/Optimization.sol\":1470:1568  function call1() public {... */\n    tag_5:\n      tag_10\n      tag_11\n      jump\t// in\n    tag_10:\n      stop\n        /* \"09_lesson_optimization/Optimization.sol\":1573:1671  function calc2() public {... */\n    tag_7:\n        /* \"09_lesson_optimization/Optimization.sol\":1607:1613  uint a */\n      0x00\n        /* \"09_lesson_optimization/Optimization.sol\":1620:1621  c */\n      dup1\n      sload\n        /* \"09_lesson_optimization/Optimization.sol\":1616:1617  1 */\n      0x01\n        /* \"09_lesson_optimization/Optimization.sol\":1616:1621  1 + c */\n      tag_13\n      swap2\n      swap1\n      tag_14\n      jump\t// in\n    tag_13:\n        /* \"09_lesson_optimization/Optimization.sol\":1607:1621  uint a = 1 + c */\n      swap1\n      pop\n        /* \"09_lesson_optimization/Optimization.sol\":1631:1637  uint b */\n      0x00\n        /* \"09_lesson_optimization/Optimization.sol\":1644:1645  c */\n      dup1\n      sload\n        /* \"09_lesson_optimization/Optimization.sol\":1640:1641  2 */\n      0x02\n        /* \"09_lesson_optimization/Optimization.sol\":1640:1645  2 * c */\n      tag_15\n      swap2\n      swap1\n      tag_16\n      jump\t// in\n    tag_15:\n        /* \"09_lesson_optimization/Optimization.sol\":1631:1645  uint b = 2 * c */\n      swap1\n      pop\n        /* \"09_lesson_optimization/Optimization.sol\":1663:1664  b */\n      dup1\n        /* \"09_lesson_optimization/Optimization.sol\":1659:1660  a */\n      dup3\n        /* \"09_lesson_optimization/Optimization.sol\":1659:1664  a + b */\n      tag_17\n      swap2\n      swap1\n      tag_14\n      jump\t// in\n    tag_17:\n        /* \"09_lesson_optimization/Optimization.sol\":1655:1656  d */\n      0x01\n        /* \"09_lesson_optimization/Optimization.sol\":1655:1664  d = a + b */\n      dup2\n      swap1\n      sstore\n      pop\n        /* \"09_lesson_optimization/Optimization.sol\":1597:1671  {... */\n      pop\n      pop\n        /* \"09_lesson_optimization/Optimization.sol\":1573:1671  function calc2() public {... */\n      jump\t// out\n        /* \"09_lesson_optimization/Optimization.sol\":1368:1465  function calc() public {... */\n    tag_9:\n        /* \"09_lesson_optimization/Optimization.sol\":1401:1407  uint a */\n      0x00\n        /* \"09_lesson_optimization/Optimization.sol\":1414:1415  c */\n      dup1\n      sload\n        /* \"09_lesson_optimization/Optimization.sol\":1410:1411  1 */\n      0x01\n        /* \"09_lesson_optimization/Optimization.sol\":1410:1415  1 + c */\n      tag_19\n      swap2\n      swap1\n      tag_14\n      jump\t// in\n    tag_19:\n        /* \"09_lesson_optimization/Optimization.sol\":1401:1415  uint a = 1 + c */\n      swap1\n      pop\n        /* \"09_lesson_optimization/Optimization.sol\":1425:1431  uint b */\n      0x00\n        /* \"09_lesson_optimization/Optimization.sol\":1438:1439  c */\n      dup1\n      sload\n        /* \"09_lesson_optimization/Optimization.sol\":1434:1435  2 */\n      0x02\n        /* \"09_lesson_optimization/Optimization.sol\":1434:1439  2 * c */\n      tag_20\n      swap2\n      swap1\n      tag_16\n      jump\t// in\n    tag_20:\n        /* \"09_lesson_optimization/Optimization.sol\":1425:1439  uint b = 2 * c */\n      swap1\n      pop\n        /* \"09_lesson_optimization/Optimization.sol\":1457:1458  b */\n      dup1\n        /* \"09_lesson_optimization/Optimization.sol\":1453:1454  a */\n      dup3\n        /* \"09_lesson_optimization/Optimization.sol\":1453:1458  a + b */\n      tag_21\n      swap2\n      swap1\n      tag_14\n      jump\t// in\n    tag_21:\n        /* \"09_lesson_optimization/Optimization.sol\":1449:1450  d */\n      0x01\n        /* \"09_lesson_optimization/Optimization.sol\":1449:1458  d = a + b */\n      dup2\n      swap1\n      sstore\n      pop\n        /* \"09_lesson_optimization/Optimization.sol\":1391:1465  {... */\n      pop\n      pop\n        /* \"09_lesson_optimization/Optimization.sol\":1368:1465  function calc() public {... */\n      jump\t// out\n        /* \"09_lesson_optimization/Optimization.sol\":1470:1568  function call1() public {... */\n    tag_11:\n        /* \"09_lesson_optimization/Optimization.sol\":1504:1510  uint a */\n      0x00\n        /* \"09_lesson_optimization/Optimization.sol\":1517:1518  c */\n      dup1\n      sload\n        /* \"09_lesson_optimization/Optimization.sol\":1513:1514  1 */\n      0x01\n        /* \"09_lesson_optimization/Optimization.sol\":1513:1518  1 + c */\n      tag_23\n      swap2\n      swap1\n      tag_14\n      jump\t// in\n    tag_23:\n        /* \"09_lesson_optimization/Optimization.sol\":1504:1518  uint a = 1 + c */\n      swap1\n      pop\n        /* \"09_lesson_optimization/Optimization.sol\":1528:1534  uint b */\n      0x00\n        /* \"09_lesson_optimization/Optimization.sol\":1541:1542  c */\n      dup1\n      sload\n        /* \"09_lesson_optimization/Optimization.sol\":1537:1538  2 */\n      0x02\n        /* \"09_lesson_optimization/Optimization.sol\":1537:1542  2 * c */\n      tag_24\n      swap2\n      swap1\n      tag_16\n      jump\t// in\n    tag_24:\n        /* \"09_lesson_optimization/Optimization.sol\":1528:1542  uint b = 2 * c */\n      swap1\n      pop\n        /* \"09_lesson_optimization/Optimization.sol\":1560:1561  b */\n      dup1\n        /* \"09_lesson_optimization/Optimization.sol\":1556:1557  a */\n      dup3\n        /* \"09_lesson_optimization/Optimization.sol\":1556:1561  a + b */\n      tag_25\n      swap2\n      swap1\n      tag_14\n      jump\t// in\n    tag_25:\n        /* \"09_lesson_optimization/Optimization.sol\":1552:1553  d */\n      0x01\n        /* \"09_lesson_optimization/Optimization.sol\":1552:1561  d = a + b */\n      dup2\n      swap1\n      sstore\n      pop\n        /* \"09_lesson_optimization/Optimization.sol\":1494:1568  {... */\n      pop\n      pop\n        /* \"09_lesson_optimization/Optimization.sol\":1470:1568  function call1() public {... */\n      jump\t// out\n        /* \"#utility.yul\":7:312   */\n    tag_14:\n        /* \"#utility.yul\":47:50   */\n      0x00\n        /* \"#utility.yul\":66:86   */\n      tag_28\n        /* \"#utility.yul\":84:85   */\n      dup3\n        /* \"#utility.yul\":66:86   */\n      tag_29\n      jump\t// in\n    tag_28:\n        /* \"#utility.yul\":61:86   */\n      swap2\n      pop\n        /* \"#utility.yul\":100:120   */\n      tag_30\n        /* \"#utility.yul\":118:119   */\n      dup4\n        /* \"#utility.yul\":100:120   */\n      tag_29\n      jump\t// in\n    tag_30:\n        /* \"#utility.yul\":95:120   */\n      swap3\n      pop\n        /* \"#utility.yul\":254:255   */\n      dup3\n        /* \"#utility.yul\":186:252   */\n      0xffffffffffffffffffffffffffffffffffffffffffffffffffffffffffffffff\n        /* \"#utility.yul\":182:256   */\n      sub\n        /* \"#utility.yul\":179:180   */\n      dup3\n        /* \"#utility.yul\":176:257   */\n      gt\n        /* \"#utility.yul\":173:280   */\n      iszero\n      tag_31\n      jumpi\n        /* \"#utility.yul\":260:278   */\n      tag_32\n      tag_33\n      jump\t// in\n    tag_32:\n        /* \"#utility.yul\":173:280   */\n    tag_31:\n        /* \"#utility.yul\":304:305   */\n      dup3\n        /* \"#utility.yul\":301:302   */\n      dup3\n        /* \"#utility.yul\":297:306   */\n      add\n        /* \"#utility.yul\":290:306   */\n      swap1\n      pop\n        /* \"#utility.yul\":7:312   */\n      swap3\n      swap2\n      pop\n      pop\n      jump\t// out\n        /* \"#utility.yul\":318:666   */\n    tag_16:\n        /* \"#utility.yul\":358:365   */\n      0x00\n        /* \"#utility.yul\":381:401   */\n      tag_35\n        /* \"#utility.yul\":399:400   */\n      dup3\n        /* \"#utility.yul\":381:401   */\n      tag_29\n      jump\t// in\n    tag_35:\n        /* \"#utility.yul\":376:401   */\n      swap2\n      pop\n        /* \"#utility.yul\":415:435   */\n      tag_36\n        /* \"#utility.yul\":433:434   */\n      dup4\n        /* \"#utility.yul\":415:435   */\n      tag_29\n      jump\t// in\n    tag_36:\n        /* \"#utility.yul\":410:435   */\n      swap3\n      pop\n        /* \"#utility.yul\":603:604   */\n      dup2\n        /* \"#utility.yul\":535:601   */\n      0xffffffffffffffffffffffffffffffffffffffffffffffffffffffffffffffff\n        /* \"#utility.yul\":531:605   */\n      div\n        /* \"#utility.yul\":528:529   */\n      dup4\n        /* \"#utility.yul\":525:606   */\n      gt\n        /* \"#utility.yul\":520:521   */\n      dup3\n        /* \"#utility.yul\":513:522   */\n      iszero\n        /* \"#utility.yul\":506:523   */\n      iszero\n        /* \"#utility.yul\":502:607   */\n      and\n        /* \"#utility.yul\":499:630   */\n      iszero\n      tag_37\n      jumpi\n        /* \"#utility.yul\":610:628   */\n      tag_38\n      tag_33\n      jump\t// in\n    tag_38:\n        /* \"#utility.yul\":499:630   */\n    tag_37:\n        /* \"#utility.yul\":658:659   */\n      dup3\n        /* \"#utility.yul\":655:656   */\n      dup3\n        /* \"#utility.yul\":651:660   */\n      mul\n        /* \"#utility.yul\":640:660   */\n      swap1\n      pop\n        /* \"#utility.yul\":318:666   */\n      swap3\n      swap2\n      pop\n      pop\n      jump\t// out\n        /* \"#utility.yul\":672:749   */\n    tag_29:\n        /* \"#utility.yul\":709:716   */\n      0x00\n        /* \"#utility.yul\":738:743   */\n      dup2\n        /* \"#utility.yul\":727:743   */\n      swap1\n      pop\n        /* \"#utility.yul\":672:749   */\n      swap2\n      swap1\n      pop\n      jump\t// out\n        /* \"#utility.yul\":755:935   */\n    tag_33:\n        /* \"#utility.yul\":803:880   */\n      0x4e487b7100000000000000000000000000000000000000000000000000000000\n        /* \"#utility.yul\":800:801   */\n      0x00\n        /* \"#utility.yul\":793:881   */\n      mstore\n        /* \"#utility.yul\":900:904   */\n      0x11\n        /* \"#utility.yul\":897:898   */\n      0x04\n        /* \"#utility.yul\":890:905   */\n      mstore\n        /* \"#utility.yul\":924:928   */\n      0x24\n        /* \"#utility.yul\":921:922   */\n      0x00\n        /* \"#utility.yul\":914:929   */\n      revert\n\n    auxdata: 0xa264697066735822122095b89f40f6da4e7b043fa4bd55a65f8834059895fc3e51d4fdfed2e1e4194e9d64736f6c63430008070033\n}\n",
				"bytecode": {
					"linkReferences": {},
					"object": "6080604052600560005534801561001557600080fd5b50610231806100256000396000f3fe608060405234801561001057600080fd5b50600436106100415760003560e01c8063458db5451461004657806396f1b6be14610050578063e236188c1461005a575b600080fd5b61004e610064565b005b61005861009e565b005b6100626100d8565b005b6000805460016100749190610112565b90506000805460026100869190610168565b905080826100949190610112565b6001819055505050565b6000805460016100ae9190610112565b90506000805460026100c09190610168565b905080826100ce9190610112565b6001819055505050565b6000805460016100e89190610112565b90506000805460026100fa9190610168565b905080826101089190610112565b6001819055505050565b600061011d826101c2565b9150610128836101c2565b9250827fffffffffffffffffffffffffffffffffffffffffffffffffffffffffffffffff0382111561015d5761015c6101cc565b5b828201905092915050565b6000610173826101c2565b915061017e836101c2565b9250817fffffffffffffffffffffffffffffffffffffffffffffffffffffffffffffffff04831182151516156101b7576101b66101cc565b5b828202905092915050565b6000819050919050565b7f4e487b7100000000000000000000000000000000000000000000000000000000600052601160045260246000fdfea264697066735822122095b89f40f6da4e7b043fa4bd55a65f8834059895fc3e51d4fdfed2e1e4194e9d64736f6c63430008070033",
					"opcodes": "PUSH1 0x80 PUSH1 0x40 MSTORE PUSH1 0x5 PUSH1 0x0 SSTORE CALLVALUE DUP1 ISZERO PUSH2 0x15 JUMPI PUSH1 0x0 DUP1 REVERT JUMPDEST POP PUSH2 0x231 DUP1 PUSH2 0x25 PUSH1 0x0 CODECOPY PUSH1 0x0 RETURN INVALID PUSH1 0x80 PUSH1 0x40 MSTORE CALLVALUE DUP1 ISZERO PUSH2 0x10 JUMPI PUSH1 0x0 DUP1 REVERT JUMPDEST POP PUSH1 0x4 CALLDATASIZE LT PUSH2 0x41 JUMPI PUSH1 0x0 CALLDATALOAD PUSH1 0xE0 SHR DUP1 PUSH4 0x458DB545 EQ PUSH2 0x46 JUMPI DUP1 PUSH4 0x96F1B6BE EQ PUSH2 0x50 JUMPI DUP1 PUSH4 0xE236188C EQ PUSH2 0x5A JUMPI JUMPDEST PUSH1 0x0 DUP1 REVERT JUMPDEST PUSH2 0x4E PUSH2 0x64 JUMP JUMPDEST STOP JUMPDEST PUSH2 0x58 PUSH2 0x9E JUMP JUMPDEST STOP JUMPDEST PUSH2 0x62 PUSH2 0xD8 JUMP JUMPDEST STOP JUMPDEST PUSH1 0x0 DUP1 SLOAD PUSH1 0x1 PUSH2 0x74 SWAP2 SWAP1 PUSH2 0x112 JUMP JUMPDEST SWAP1 POP PUSH1 0x0 DUP1 SLOAD PUSH1 0x2 PUSH2 0x86 SWAP2 SWAP1 PUSH2 0x168 JUMP JUMPDEST SWAP1 POP DUP1 DUP3 PUSH2 0x94 SWAP2 SWAP1 PUSH2 0x112 JUMP JUMPDEST PUSH1 0x1 DUP2 SWAP1 SSTORE POP POP POP JUMP JUMPDEST PUSH1 0x0 DUP1 SLOAD PUSH1 0x1 PUSH2 0xAE SWAP2 SWAP1 PUSH2 0x112 JUMP JUMPDEST SWAP1 POP PUSH1 0x0 DUP1 SLOAD PUSH1 0x2 PUSH2 0xC0 SWAP2 SWAP1 PUSH2 0x168 JUMP JUMPDEST SWAP1 POP DUP1 DUP3 PUSH2 0xCE SWAP2 SWAP1 PUSH2 0x112 JUMP JUMPDEST PUSH1 0x1 DUP2 SWAP1 SSTORE POP POP POP JUMP JUMPDEST PUSH1 0x0 DUP1 SLOAD PUSH1 0x1 PUSH2 0xE8 SWAP2 SWAP1 PUSH2 0x112 JUMP JUMPDEST SWAP1 POP PUSH1 0x0 DUP1 SLOAD PUSH1 0x2 PUSH2 0xFA SWAP2 SWAP1 PUSH2 0x168 JUMP JUMPDEST SWAP1 POP DUP1 DUP3 PUSH2 0x108 SWAP2 SWAP1 PUSH2 0x112 JUMP JUMPDEST PUSH1 0x1 DUP2 SWAP1 SSTORE POP POP POP JUMP JUMPDEST PUSH1 0x0 PUSH2 0x11D DUP3 PUSH2 0x1C2 JUMP JUMPDEST SWAP2 POP PUSH2 0x128 DUP4 PUSH2 0x1C2 JUMP JUMPDEST SWAP3 POP DUP3 PUSH32 0xFFFFFFFFFFFFFFFFFFFFFFFFFFFFFFFFFFFFFFFFFFFFFFFFFFFFFFFFFFFFFFFF SUB DUP3 GT ISZERO PUSH2 0x15D JUMPI PUSH2 0x15C PUSH2 0x1CC JUMP JUMPDEST JUMPDEST DUP3 DUP3 ADD SWAP1 POP SWAP3 SWAP2 POP POP JUMP JUMPDEST PUSH1 0x0 PUSH2 0x173 DUP3 PUSH2 0x1C2 JUMP JUMPDEST SWAP2 POP PUSH2 0x17E DUP4 PUSH2 0x1C2 JUMP JUMPDEST SWAP3 POP DUP2 PUSH32 0xFFFFFFFFFFFFFFFFFFFFFFFFFFFFFFFFFFFFFFFFFFFFFFFFFFFFFFFFFFFFFFFF DIV DUP4 GT DUP3 ISZERO ISZERO AND ISZERO PUSH2 0x1B7 JUMPI PUSH2 0x1B6 PUSH2 0x1CC JUMP JUMPDEST JUMPDEST DUP3 DUP3 MUL SWAP1 POP SWAP3 SWAP2 POP POP JUMP JUMPDEST PUSH1 0x0 DUP2 SWAP1 POP SWAP2 SWAP1 POP JUMP JUMPDEST PUSH32 0x4E487B7100000000000000000000000000000000000000000000000000000000 PUSH1 0x0 MSTORE PUSH1 0x11 PUSH1 0x4 MSTORE PUSH1 0x24 PUSH1 0x0 REVERT INVALID LOG2 PUSH5 0x6970667358 0x22 SLT KECCAK256 SWAP6 0xB8 SWAP16 BLOCKHASH 0xF6 0xDA 0x4E PUSH28 0x43FA4BD55A65F8834059895FC3E51D4FDFED2E1E4194E9D64736F6C PUSH4 0x43000807 STOP CALLER "
				},
				"gasEstimates": {
					"creation": {
						"codeDepositCost": "112200",
						"executionCost": "22265",
						"totalCost": "134465"
					},
					"external": {
						"calc()": "infinite",
						"calc2()": "infinite",
						"call1()": "infinite"
					}
				},
				"methodIdentifiers": {
					"calc()": "96f1b6be",
					"calc2()": "458db545",
					"call1()": "e236188c"
				}
			},
			"storageLayout": {
				"storage": [
					{
						"astId": 32,
						"contract": "09_lesson_optimization/Optimization.sol:Un",
						"label": "c",
						"offset": 0,
						"slot": "0",
						"type": "t_uint256"
					},
					{
						"astId": 34,
						"contract": "09_lesson_optimization/Optimization.sol:Un",
						"label": "d",
						"offset": 0,
						"slot": "1",
						"type": "t_uint256"
					}
				],
				"types": {
					"t_uint256": {
						"encoding": "inplace",
						"label": "uint256",
						"numberOfBytes": "32"
					}
				}
			},
			"userdoc": {
				"kind": "user",
				"methods": {},
				"version": 1
			}
		}
	}
}