{
	"09_lesson_optimization/Optimization.sol": {
		"Op": {
			"abi": [
				{
					"inputs": [],
					"name": "calc",
					"outputs": [],
					"stateMutability": "nonpayable",
					"type": "function"
				}
			],
			"devdoc": {
				"kind": "dev",
				"methods": {},
				"version": 1
			},
			"evm": {
				"assembly": "    /* \"09_lesson_optimization/Optimization.sol\":59:741  contract Op {... */\n  mstore(0x40, 0x80)\n    /* \"09_lesson_optimization/Optimization.sol\":623:624  5 */\n  0x05\n    /* \"09_lesson_optimization/Optimization.sol\":614:624  uint c = 5 */\n  0x00\n  sstore\n    /* \"09_lesson_optimization/Optimization.sol\":59:741  contract Op {... */\n  callvalue\n  dup1\n  iszero\n  tag_1\n  jumpi\n  0x00\n  dup1\n  revert\ntag_1:\n  pop\n  dataSize(sub_0)\n  dup1\n  dataOffset(sub_0)\n  0x00\n  codecopy\n  0x00\n  return\nstop\n\nsub_0: assembly {\n        /* \"09_lesson_optimization/Optimization.sol\":59:741  contract Op {... */\n      mstore(0x40, 0x80)\n      callvalue\n      dup1\n      iszero\n      tag_1\n      jumpi\n      0x00\n      dup1\n      revert\n    tag_1:\n      pop\n      jumpi(tag_2, lt(calldatasize, 0x04))\n      shr(0xe0, calldataload(0x00))\n      dup1\n      0x96f1b6be\n      eq\n      tag_3\n      jumpi\n    tag_2:\n      0x00\n      dup1\n      revert\n        /* \"09_lesson_optimization/Optimization.sol\":642:739  function calc() public {... */\n    tag_3:\n      tag_4\n      tag_5\n      jump\t// in\n    tag_4:\n      stop\n    tag_5:\n        /* \"09_lesson_optimization/Optimization.sol\":675:681  uint a */\n      0x00\n        /* \"09_lesson_optimization/Optimization.sol\":688:689  c */\n      dup1\n      sload\n        /* \"09_lesson_optimization/Optimization.sol\":684:685  1 */\n      0x01\n        /* \"09_lesson_optimization/Optimization.sol\":684:689  1 + c */\n      tag_7\n      swap2\n      swap1\n      tag_8\n      jump\t// in\n    tag_7:\n        /* \"09_lesson_optimization/Optimization.sol\":675:689  uint a = 1 + c */\n      swap1\n      pop\n        /* \"09_lesson_optimization/Optimization.sol\":699:705  uint b */\n      0x00\n        /* \"09_lesson_optimization/Optimization.sol\":712:713  c */\n      dup1\n      sload\n        /* \"09_lesson_optimization/Optimization.sol\":708:709  2 */\n      0x02\n        /* \"09_lesson_optimization/Optimization.sol\":708:713  2 * c */\n      tag_9\n      swap2\n      swap1\n      tag_10\n      jump\t// in\n    tag_9:\n        /* \"09_lesson_optimization/Optimization.sol\":699:713  uint b = 2 * c */\n      swap1\n      pop\n        /* \"09_lesson_optimization/Optimization.sol\":731:732  b */\n      dup1\n        /* \"09_lesson_optimization/Optimization.sol\":727:728  a */\n      dup3\n        /* \"09_lesson_optimization/Optimization.sol\":727:732  a + b */\n      tag_11\n      swap2\n      swap1\n      tag_8\n      jump\t// in\n    tag_11:\n        /* \"09_lesson_optimization/Optimization.sol\":723:724  d */\n      0x01\n        /* \"09_lesson_optimization/Optimization.sol\":723:732  d = a + b */\n      dup2\n      swap1\n      sstore\n      pop\n        /* \"09_lesson_optimization/Optimization.sol\":665:739  {... */\n      pop\n      pop\n        /* \"09_lesson_optimization/Optimization.sol\":642:739  function calc() public {... */\n      jump\t// out\n        /* \"#utility.yul\":7:312   */\n    tag_8:\n        /* \"#utility.yul\":47:50   */\n      0x00\n        /* \"#utility.yul\":66:86   */\n      tag_14\n        /* \"#utility.yul\":84:85   */\n      dup3\n        /* \"#utility.yul\":66:86   */\n      tag_15\n      jump\t// in\n    tag_14:\n        /* \"#utility.yul\":61:86   */\n      swap2\n      pop\n        /* \"#utility.yul\":100:120   */\n      tag_16\n        /* \"#utility.yul\":118:119   */\n      dup4\n        /* \"#utility.yul\":100:120   */\n      tag_15\n      jump\t// in\n    tag_16:\n        /* \"#utility.yul\":95:120   */\n      swap3\n      pop\n        /* \"#utility.yul\":254:255   */\n      dup3\n        /* \"#utility.yul\":186:252   */\n      0xffffffffffffffffffffffffffffffffffffffffffffffffffffffffffffffff\n        /* \"#utility.yul\":182:256   */\n      sub\n        /* \"#utility.yul\":179:180   */\n      dup3\n        /* \"#utility.yul\":176:257   */\n      gt\n        /* \"#utility.yul\":173:280   */\n      iszero\n      tag_17\n      jumpi\n        /* \"#utility.yul\":260:278   */\n      tag_18\n      tag_19\n      jump\t// in\n    tag_18:\n        /* \"#utility.yul\":173:280   */\n    tag_17:\n        /* \"#utility.yul\":304:305   */\n      dup3\n        /* \"#utility.yul\":301:302   */\n      dup3\n        /* \"#utility.yul\":297:306   */\n      add\n        /* \"#utility.yul\":290:306   */\n      swap1\n      pop\n        /* \"#utility.yul\":7:312   */\n      swap3\n      swap2\n      pop\n      pop\n      jump\t// out\n        /* \"#utility.yul\":318:666   */\n    tag_10:\n        /* \"#utility.yul\":358:365   */\n      0x00\n        /* \"#utility.yul\":381:401   */\n      tag_21\n        /* \"#utility.yul\":399:400   */\n      dup3\n        /* \"#utility.yul\":381:401   */\n      tag_15\n      jump\t// in\n    tag_21:\n        /* \"#utility.yul\":376:401   */\n      swap2\n      pop\n        /* \"#utility.yul\":415:435   */\n      tag_22\n        /* \"#utility.yul\":433:434   */\n      dup4\n        /* \"#utility.yul\":415:435   */\n      tag_15\n      jump\t// in\n    tag_22:\n        /* \"#utility.yul\":410:435   */\n      swap3\n      pop\n        /* \"#utility.yul\":603:604   */\n      dup2\n        /* \"#utility.yul\":535:601   */\n      0xffffffffffffffffffffffffffffffffffffffffffffffffffffffffffffffff\n        /* \"#utility.yul\":531:605   */\n      div\n        /* \"#utility.yul\":528:529   */\n      dup4\n        /* \"#utility.yul\":525:606   */\n      gt\n        /* \"#utility.yul\":520:521   */\n      dup3\n        /* \"#utility.yul\":513:522   */\n      iszero\n        /* \"#utility.yul\":506:523   */\n      iszero\n        /* \"#utility.yul\":502:607   */\n      and\n        /* \"#utility.yul\":499:630   */\n      iszero\n      tag_23\n      jumpi\n        /* \"#utility.yul\":610:628   */\n      tag_24\n      tag_19\n      jump\t// in\n    tag_24:\n        /* \"#utility.yul\":499:630   */\n    tag_23:\n        /* \"#utility.yul\":658:659   */\n      dup3\n        /* \"#utility.yul\":655:656   */\n      dup3\n        /* \"#utility.yul\":651:660   */\n      mul\n        /* \"#utility.yul\":640:660   */\n      swap1\n      pop\n        /* \"#utility.yul\":318:666   */\n      swap3\n      swap2\n      pop\n      pop\n      jump\t// out\n        /* \"#utility.yul\":672:749   */\n    tag_15:\n        /* \"#utility.yul\":709:716   */\n      0x00\n        /* \"#utility.yul\":738:743   */\n      dup2\n        /* \"#utility.yul\":727:743   */\n      swap1\n      pop\n        /* \"#utility.yul\":672:749   */\n      swap2\n      swap1\n      pop\n      jump\t// out\n        /* \"#utility.yul\":755:935   */\n    tag_19:\n        /* \"#utility.yul\":803:880   */\n      0x4e487b7100000000000000000000000000000000000000000000000000000000\n        /* \"#utility.yul\":800:801   */\n      0x00\n        /* \"#utility.yul\":793:881   */\n      mstore\n        /* \"#utility.yul\":900:904   */\n      0x11\n        /* \"#utility.yul\":897:898   */\n      0x04\n        /* \"#utility.yul\":890:905   */\n      mstore\n        /* \"#utility.yul\":924:928   */\n      0x24\n        /* \"#utility.yul\":921:922   */\n      0x00\n        /* \"#utility.yul\":914:929   */\n      revert\n\n    auxdata: 0xa2646970667358221220cff8a8edd26581d6084829b3389f1e154a6a8f1f29d5eac2e53e2297641bc6a364736f6c63430008070033\n}\n",
				"bytecode": {
					"linkReferences": {},
					"object": "6080604052600560005534801561001557600080fd5b50610193806100256000396000f3fe608060405234801561001057600080fd5b506004361061002b5760003560e01c806396f1b6be14610030575b600080fd5b61003861003a565b005b60008054600161004a9190610074565b905060008054600261005c91906100ca565b9050808261006a9190610074565b6001819055505050565b600061007f82610124565b915061008a83610124565b9250827fffffffffffffffffffffffffffffffffffffffffffffffffffffffffffffffff038211156100bf576100be61012e565b5b828201905092915050565b60006100d582610124565b91506100e083610124565b9250817fffffffffffffffffffffffffffffffffffffffffffffffffffffffffffffffff04831182151516156101195761011861012e565b5b828202905092915050565b6000819050919050565b7f4e487b7100000000000000000000000000000000000000000000000000000000600052601160045260246000fdfea2646970667358221220cff8a8edd26581d6084829b3389f1e154a6a8f1f29d5eac2e53e2297641bc6a364736f6c63430008070033",
					"opcodes": "PUSH1 0x80 PUSH1 0x40 MSTORE PUSH1 0x5 PUSH1 0x0 SSTORE CALLVALUE DUP1 ISZERO PUSH2 0x15 JUMPI PUSH1 0x0 DUP1 REVERT JUMPDEST POP PUSH2 0x193 DUP1 PUSH2 0x25 PUSH1 0x0 CODECOPY PUSH1 0x0 RETURN INVALID PUSH1 0x80 PUSH1 0x40 MSTORE CALLVALUE DUP1 ISZERO PUSH2 0x10 JUMPI PUSH1 0x0 DUP1 REVERT JUMPDEST POP PUSH1 0x4 CALLDATASIZE LT PUSH2 0x2B JUMPI PUSH1 0x0 CALLDATALOAD PUSH1 0xE0 SHR DUP1 PUSH4 0x96F1B6BE EQ PUSH2 0x30 JUMPI JUMPDEST PUSH1 0x0 DUP1 REVERT JUMPDEST PUSH2 0x38 PUSH2 0x3A JUMP JUMPDEST STOP JUMPDEST PUSH1 0x0 DUP1 SLOAD PUSH1 0x1 PUSH2 0x4A SWAP2 SWAP1 PUSH2 0x74 JUMP JUMPDEST SWAP1 POP PUSH1 0x0 DUP1 SLOAD PUSH1 0x2 PUSH2 0x5C SWAP2 SWAP1 PUSH2 0xCA JUMP JUMPDEST SWAP1 POP DUP1 DUP3 PUSH2 0x6A SWAP2 SWAP1 PUSH2 0x74 JUMP JUMPDEST PUSH1 0x1 DUP2 SWAP1 SSTORE POP POP POP JUMP JUMPDEST PUSH1 0x0 PUSH2 0x7F DUP3 PUSH2 0x124 JUMP JUMPDEST SWAP2 POP PUSH2 0x8A DUP4 PUSH2 0x124 JUMP JUMPDEST SWAP3 POP DUP3 PUSH32 0xFFFFFFFFFFFFFFFFFFFFFFFFFFFFFFFFFFFFFFFFFFFFFFFFFFFFFFFFFFFFFFFF SUB DUP3 GT ISZERO PUSH2 0xBF JUMPI PUSH2 0xBE PUSH2 0x12E JUMP JUMPDEST JUMPDEST DUP3 DUP3 ADD SWAP1 POP SWAP3 SWAP2 POP POP JUMP JUMPDEST PUSH1 0x0 PUSH2 0xD5 DUP3 PUSH2 0x124 JUMP JUMPDEST SWAP2 POP PUSH2 0xE0 DUP4 PUSH2 0x124 JUMP JUMPDEST SWAP3 POP DUP2 PUSH32 0xFFFFFFFFFFFFFFFFFFFFFFFFFFFFFFFFFFFFFFFFFFFFFFFFFFFFFFFFFFFFFFFF DIV DUP4 GT DUP3 ISZERO ISZERO AND ISZERO PUSH2 0x119 JUMPI PUSH2 0x118 PUSH2 0x12E JUMP JUMPDEST JUMPDEST DUP3 DUP3 MUL SWAP1 POP SWAP3 SWAP2 POP POP JUMP JUMPDEST PUSH1 0x0 DUP2 SWAP1 POP SWAP2 SWAP1 POP JUMP JUMPDEST PUSH32 0x4E487B7100000000000000000000000000000000000000000000000000000000 PUSH1 0x0 MSTORE PUSH1 0x11 PUSH1 0x4 MSTORE PUSH1 0x24 PUSH1 0x0 REVERT INVALID LOG2 PUSH5 0x6970667358 0x22 SLT KECCAK256 0xCF 0xF8 0xA8 0xED 0xD2 PUSH6 0x81D6084829B3 CODESIZE SWAP16 0x1E ISZERO 0x4A PUSH11 0x8F1F29D5EAC2E53E229764 SHL 0xC6 LOG3 PUSH5 0x736F6C6343 STOP ADDMOD SMOD STOP CALLER "
				},
				"gasEstimates": {
					"creation": {
						"codeDepositCost": "80600",
						"executionCost": "22235",
						"totalCost": "102835"
					},
					"external": {
						"calc()": "infinite"
					}
				},
				"methodIdentifiers": {
					"calc()": "96f1b6be"
				}
			},
			"storageLayout": {
				"storage": [
					{
						"astId": 4,
						"contract": "09_lesson_optimization/Optimization.sol:Op",
						"label": "c",
						"offset": 0,
						"slot": "0",
						"type": "t_uint256"
					},
					{
						"astId": 6,
						"contract": "09_lesson_optimization/Optimization.sol:Op",
						"label": "d",
						"offset": 0,
						"slot": "1",
						"type": "t_uint256"
					}
				],
				"types": {
					"t_uint256": {
						"encoding": "inplace",
						"label": "uint256",
						"numberOfBytes": "32"
					}
				}
			},
			"userdoc": {
				"kind": "user",
				"methods": {},
				"version": 1
			}
		}
	}
}