{
	"09_lesson_optimization/Optimization.sol": {
		"Un": {
			"abi": [
				{
					"inputs": [],
					"name": "hash",
					"outputs": [
						{
							"internalType": "bytes32",
							"name": "",
							"type": "bytes32"
						}
					],
					"stateMutability": "view",
					"type": "function"
				}
			],
			"devdoc": {
				"kind": "dev",
				"methods": {},
				"version": 1
			},
			"evm": {
				"assembly": "    /* \"09_lesson_optimization/Optimization.sol\":388:601  contract Un {... */\n  mstore(0x40, 0x80)\n    /* \"09_lesson_optimization/Optimization.sol\":568:592  abi.encodePacked(\"test\") */\n  add(0x20, mload(0x40))\n  tag_1\n  swap1\n  tag_2\n  jump\t// in\ntag_1:\n  mload(0x40)\n  0x20\n  dup2\n  dup4\n  sub\n  sub\n  dup2\n  mstore\n  swap1\n  0x40\n  mstore\n    /* \"09_lesson_optimization/Optimization.sol\":549:598  keccak256(... */\n  dup1\n  mload\n  swap1\n  0x20\n  add\n  keccak256\n    /* \"09_lesson_optimization/Optimization.sol\":527:598  bytes32 public hash = keccak256(... */\n  0x00\n  sstore\n    /* \"09_lesson_optimization/Optimization.sol\":388:601  contract Un {... */\n  callvalue\n  dup1\n  iszero\n  tag_3\n  jumpi\n  0x00\n  dup1\n  revert\ntag_3:\n  pop\n  jump(tag_4)\n    /* \"#utility.yul\":7:407   */\ntag_6:\n    /* \"#utility.yul\":167:170   */\n  0x00\n    /* \"#utility.yul\":188:272   */\n  tag_8\n    /* \"#utility.yul\":270:271   */\n  0x04\n    /* \"#utility.yul\":265:268   */\n  dup4\n    /* \"#utility.yul\":188:272   */\n  tag_9\n  jump\t// in\ntag_8:\n    /* \"#utility.yul\":181:272   */\n  swap2\n  pop\n    /* \"#utility.yul\":281:374   */\n  tag_10\n    /* \"#utility.yul\":370:373   */\n  dup3\n    /* \"#utility.yul\":281:374   */\n  tag_11\n  jump\t// in\ntag_10:\n    /* \"#utility.yul\":399:400   */\n  0x04\n    /* \"#utility.yul\":394:397   */\n  dup3\n    /* \"#utility.yul\":390:401   */\n  add\n    /* \"#utility.yul\":383:401   */\n  swap1\n  pop\n    /* \"#utility.yul\":7:407   */\n  swap2\n  swap1\n  pop\n  jump\t// out\n    /* \"#utility.yul\":413:794   */\ntag_2:\n    /* \"#utility.yul\":598:601   */\n  0x00\n    /* \"#utility.yul\":620:768   */\n  tag_13\n    /* \"#utility.yul\":764:767   */\n  dup3\n    /* \"#utility.yul\":620:768   */\n  tag_6\n  jump\t// in\ntag_13:\n    /* \"#utility.yul\":613:768   */\n  swap2\n  pop\n    /* \"#utility.yul\":785:788   */\n  dup2\n    /* \"#utility.yul\":778:788   */\n  swap1\n  pop\n    /* \"#utility.yul\":413:794   */\n  swap2\n  swap1\n  pop\n  jump\t// out\n    /* \"#utility.yul\":800:948   */\ntag_9:\n    /* \"#utility.yul\":902:913   */\n  0x00\n    /* \"#utility.yul\":939:942   */\n  dup2\n    /* \"#utility.yul\":924:942   */\n  swap1\n  pop\n    /* \"#utility.yul\":800:948   */\n  swap3\n  swap2\n  pop\n  pop\n  jump\t// out\n    /* \"#utility.yul\":954:1108   */\ntag_11:\n    /* \"#utility.yul\":1094:1100   */\n  0x7465737400000000000000000000000000000000000000000000000000000000\n    /* \"#utility.yul\":1090:1091   */\n  0x00\n    /* \"#utility.yul\":1082:1088   */\n  dup3\n    /* \"#utility.yul\":1078:1092   */\n  add\n    /* \"#utility.yul\":1071:1101   */\n  mstore\n    /* \"#utility.yul\":954:1108   */\n  pop\n  jump\t// out\n    /* \"09_lesson_optimization/Optimization.sol\":388:601  contract Un {... */\ntag_4:\n  dataSize(sub_0)\n  dup1\n  dataOffset(sub_0)\n  0x00\n  codecopy\n  0x00\n  return\nstop\n\nsub_0: assembly {\n        /* \"09_lesson_optimization/Optimization.sol\":388:601  contract Un {... */\n      mstore(0x40, 0x80)\n      callvalue\n      dup1\n      iszero\n      tag_1\n      jumpi\n      0x00\n      dup1\n      revert\n    tag_1:\n      pop\n      jumpi(tag_2, lt(calldatasize, 0x04))\n      shr(0xe0, calldataload(0x00))\n      dup1\n      0x09bd5a60\n      eq\n      tag_3\n      jumpi\n    tag_2:\n      0x00\n      dup1\n      revert\n        /* \"09_lesson_optimization/Optimization.sol\":527:598  bytes32 public hash = keccak256(... */\n    tag_3:\n      tag_4\n      tag_5\n      jump\t// in\n    tag_4:\n      mload(0x40)\n      tag_6\n      swap2\n      swap1\n      tag_7\n      jump\t// in\n    tag_6:\n      mload(0x40)\n      dup1\n      swap2\n      sub\n      swap1\n      return\n    tag_5:\n      sload(0x00)\n      dup2\n      jump\t// out\n        /* \"#utility.yul\":7:125   */\n    tag_9:\n        /* \"#utility.yul\":94:118   */\n      tag_11\n        /* \"#utility.yul\":112:117   */\n      dup2\n        /* \"#utility.yul\":94:118   */\n      tag_12\n      jump\t// in\n    tag_11:\n        /* \"#utility.yul\":89:92   */\n      dup3\n        /* \"#utility.yul\":82:119   */\n      mstore\n        /* \"#utility.yul\":7:125   */\n      pop\n      pop\n      jump\t// out\n        /* \"#utility.yul\":131:353   */\n    tag_7:\n        /* \"#utility.yul\":224:228   */\n      0x00\n        /* \"#utility.yul\":262:264   */\n      0x20\n        /* \"#utility.yul\":251:260   */\n      dup3\n        /* \"#utility.yul\":247:265   */\n      add\n        /* \"#utility.yul\":239:265   */\n      swap1\n      pop\n        /* \"#utility.yul\":275:346   */\n      tag_14\n        /* \"#utility.yul\":343:344   */\n      0x00\n        /* \"#utility.yul\":332:341   */\n      dup4\n        /* \"#utility.yul\":328:345   */\n      add\n        /* \"#utility.yul\":319:325   */\n      dup5\n        /* \"#utility.yul\":275:346   */\n      tag_9\n      jump\t// in\n    tag_14:\n        /* \"#utility.yul\":131:353   */\n      swap3\n      swap2\n      pop\n      pop\n      jump\t// out\n        /* \"#utility.yul\":359:436   */\n    tag_12:\n        /* \"#utility.yul\":396:403   */\n      0x00\n        /* \"#utility.yul\":425:430   */\n      dup2\n        /* \"#utility.yul\":414:430   */\n      swap1\n      pop\n        /* \"#utility.yul\":359:436   */\n      swap2\n      swap1\n      pop\n      jump\t// out\n\n    auxdata: 0xa26469706673582212209ff7a4adadae599decccc7ee4f3ce1c58dce6feb6985268f1e69b2b1feeea00464736f6c63430008070033\n}\n",
				"bytecode": {
					"linkReferences": {},
					"object": "608060405260405160200161001390610061565b6040516020818303038152906040528051906020012060005534801561003857600080fd5b506100aa565b600061004b600483610076565b915061005682610081565b600482019050919050565b600061006c8261003e565b9150819050919050565b600081905092915050565b7f7465737400000000000000000000000000000000000000000000000000000000600082015250565b60b3806100b86000396000f3fe6080604052348015600f57600080fd5b506004361060285760003560e01c806309bd5a6014602d575b600080fd5b60336047565b604051603e9190605a565b60405180910390f35b60005481565b6054816073565b82525050565b6000602082019050606d6000830184604d565b92915050565b600081905091905056fea26469706673582212209ff7a4adadae599decccc7ee4f3ce1c58dce6feb6985268f1e69b2b1feeea00464736f6c63430008070033",
					"opcodes": "PUSH1 0x80 PUSH1 0x40 MSTORE PUSH1 0x40 MLOAD PUSH1 0x20 ADD PUSH2 0x13 SWAP1 PUSH2 0x61 JUMP JUMPDEST PUSH1 0x40 MLOAD PUSH1 0x20 DUP2 DUP4 SUB SUB DUP2 MSTORE SWAP1 PUSH1 0x40 MSTORE DUP1 MLOAD SWAP1 PUSH1 0x20 ADD KECCAK256 PUSH1 0x0 SSTORE CALLVALUE DUP1 ISZERO PUSH2 0x38 JUMPI PUSH1 0x0 DUP1 REVERT JUMPDEST POP PUSH2 0xAA JUMP JUMPDEST PUSH1 0x0 PUSH2 0x4B PUSH1 0x4 DUP4 PUSH2 0x76 JUMP JUMPDEST SWAP2 POP PUSH2 0x56 DUP3 PUSH2 0x81 JUMP JUMPDEST PUSH1 0x4 DUP3 ADD SWAP1 POP SWAP2 SWAP1 POP JUMP JUMPDEST PUSH1 0x0 PUSH2 0x6C DUP3 PUSH2 0x3E JUMP JUMPDEST SWAP2 POP DUP2 SWAP1 POP SWAP2 SWAP1 POP JUMP JUMPDEST PUSH1 0x0 DUP2 SWAP1 POP SWAP3 SWAP2 POP POP JUMP JUMPDEST PUSH32 0x7465737400000000000000000000000000000000000000000000000000000000 PUSH1 0x0 DUP3 ADD MSTORE POP JUMP JUMPDEST PUSH1 0xB3 DUP1 PUSH2 0xB8 PUSH1 0x0 CODECOPY PUSH1 0x0 RETURN INVALID PUSH1 0x80 PUSH1 0x40 MSTORE CALLVALUE DUP1 ISZERO PUSH1 0xF JUMPI PUSH1 0x0 DUP1 REVERT JUMPDEST POP PUSH1 0x4 CALLDATASIZE LT PUSH1 0x28 JUMPI PUSH1 0x0 CALLDATALOAD PUSH1 0xE0 SHR DUP1 PUSH4 0x9BD5A60 EQ PUSH1 0x2D JUMPI JUMPDEST PUSH1 0x0 DUP1 REVERT JUMPDEST PUSH1 0x33 PUSH1 0x47 JUMP JUMPDEST PUSH1 0x40 MLOAD PUSH1 0x3E SWAP2 SWAP1 PUSH1 0x5A JUMP JUMPDEST PUSH1 0x40 MLOAD DUP1 SWAP2 SUB SWAP1 RETURN JUMPDEST PUSH1 0x0 SLOAD DUP2 JUMP JUMPDEST PUSH1 0x54 DUP2 PUSH1 0x73 JUMP JUMPDEST DUP3 MSTORE POP POP JUMP JUMPDEST PUSH1 0x0 PUSH1 0x20 DUP3 ADD SWAP1 POP PUSH1 0x6D PUSH1 0x0 DUP4 ADD DUP5 PUSH1 0x4D JUMP JUMPDEST SWAP3 SWAP2 POP POP JUMP JUMPDEST PUSH1 0x0 DUP2 SWAP1 POP SWAP2 SWAP1 POP JUMP INVALID LOG2 PUSH5 0x6970667358 0x22 SLT KECCAK256 SWAP16 0xF7 LOG4 0xAD 0xAD 0xAE MSIZE SWAP14 0xEC 0xCC 0xC7 0xEE 0x4F EXTCODECOPY 0xE1 0xC5 DUP14 0xCE PUSH16 0xEB6985268F1E69B2B1FEEEA00464736F PUSH13 0x63430008070033000000000000 "
				},
				"gasEstimates": {
					"creation": {
						"codeDepositCost": "35800",
						"executionCost": "22504",
						"totalCost": "58304"
					},
					"external": {
						"hash()": "2407"
					}
				},
				"methodIdentifiers": {
					"hash()": "09bd5a60"
				}
			},
			"storageLayout": {
				"storage": [
					{
						"astId": 28,
						"contract": "09_lesson_optimization/Optimization.sol:Un",
						"label": "hash",
						"offset": 0,
						"slot": "0",
						"type": "t_bytes32"
					}
				],
				"types": {
					"t_bytes32": {
						"encoding": "inplace",
						"label": "bytes32",
						"numberOfBytes": "32"
					}
				}
			},
			"userdoc": {
				"kind": "user",
				"methods": {},
				"version": 1
			}
		}
	}
}