{
	"09_lesson_optimization/Optimization.sol": {
		"Un": {
			"abi": [
				{
					"inputs": [],
					"name": "calc",
					"outputs": [],
					"stateMutability": "nonpayable",
					"type": "function"
				},
				{
					"inputs": [
						{
							"internalType": "uint256",
							"name": "",
							"type": "uint256"
						}
					],
					"name": "call",
					"outputs": [],
					"stateMutability": "nonpayable",
					"type": "function"
				}
			],
			"devdoc": {
				"kind": "dev",
				"methods": {},
				"version": 1
			},
			"evm": {
				"assembly": "    /* \"09_lesson_optimization/Optimization.sol\":743:1579  contract Un {... */\n  mstore(0x40, 0x80)\n    /* \"09_lesson_optimization/Optimization.sol\":1349:1350  5 */\n  0x05\n    /* \"09_lesson_optimization/Optimization.sol\":1340:1350  uint c = 5 */\n  0x00\n  sstore\n    /* \"09_lesson_optimization/Optimization.sol\":743:1579  contract Un {... */\n  callvalue\n  dup1\n  iszero\n  tag_1\n  jumpi\n  0x00\n  dup1\n  revert\ntag_1:\n  pop\n  dataSize(sub_0)\n  dup1\n  dataOffset(sub_0)\n  0x00\n  codecopy\n  0x00\n  return\nstop\n\nsub_0: assembly {\n        /* \"09_lesson_optimization/Optimization.sol\":743:1579  contract Un {... */\n      mstore(0x40, 0x80)\n      callvalue\n      dup1\n      iszero\n      tag_1\n      jumpi\n      0x00\n      dup1\n      revert\n    tag_1:\n      pop\n      jumpi(tag_2, lt(calldatasize, 0x04))\n      shr(0xe0, calldataload(0x00))\n      dup1\n      0x2b096926\n      eq\n      tag_3\n      jumpi\n      dup1\n      0x96f1b6be\n      eq\n      tag_4\n      jumpi\n    tag_2:\n      0x00\n      dup1\n      revert\n        /* \"09_lesson_optimization/Optimization.sol\":1475:1577  function call(uint ) public {... */\n    tag_3:\n      tag_5\n      0x04\n      dup1\n      calldatasize\n      sub\n      dup2\n      add\n      swap1\n      tag_6\n      swap2\n      swap1\n      tag_7\n      jump\t// in\n    tag_6:\n      tag_8\n      jump\t// in\n    tag_5:\n      stop\n        /* \"09_lesson_optimization/Optimization.sol\":1368:1465  function calc() public {... */\n    tag_4:\n      tag_9\n      tag_10\n      jump\t// in\n    tag_9:\n      stop\n        /* \"09_lesson_optimization/Optimization.sol\":1475:1577  function call(uint ) public {... */\n    tag_8:\n        /* \"09_lesson_optimization/Optimization.sol\":1513:1519  uint a */\n      0x00\n        /* \"09_lesson_optimization/Optimization.sol\":1526:1527  c */\n      dup1\n      sload\n        /* \"09_lesson_optimization/Optimization.sol\":1522:1523  1 */\n      0x01\n        /* \"09_lesson_optimization/Optimization.sol\":1522:1527  1 + c */\n      tag_12\n      swap2\n      swap1\n      tag_13\n      jump\t// in\n    tag_12:\n        /* \"09_lesson_optimization/Optimization.sol\":1513:1527  uint a = 1 + c */\n      swap1\n      pop\n        /* \"09_lesson_optimization/Optimization.sol\":1537:1543  uint b */\n      0x00\n        /* \"09_lesson_optimization/Optimization.sol\":1550:1551  c */\n      dup1\n      sload\n        /* \"09_lesson_optimization/Optimization.sol\":1546:1547  2 */\n      0x02\n        /* \"09_lesson_optimization/Optimization.sol\":1546:1551  2 * c */\n      tag_14\n      swap2\n      swap1\n      tag_15\n      jump\t// in\n    tag_14:\n        /* \"09_lesson_optimization/Optimization.sol\":1537:1551  uint b = 2 * c */\n      swap1\n      pop\n        /* \"09_lesson_optimization/Optimization.sol\":1569:1570  b */\n      dup1\n        /* \"09_lesson_optimization/Optimization.sol\":1565:1566  a */\n      dup3\n        /* \"09_lesson_optimization/Optimization.sol\":1565:1570  a + b */\n      tag_16\n      swap2\n      swap1\n      tag_13\n      jump\t// in\n    tag_16:\n        /* \"09_lesson_optimization/Optimization.sol\":1561:1562  d */\n      0x01\n        /* \"09_lesson_optimization/Optimization.sol\":1561:1570  d = a + b */\n      dup2\n      swap1\n      sstore\n      pop\n        /* \"09_lesson_optimization/Optimization.sol\":1503:1577  {... */\n      pop\n      pop\n        /* \"09_lesson_optimization/Optimization.sol\":1475:1577  function call(uint ) public {... */\n      pop\n      jump\t// out\n        /* \"09_lesson_optimization/Optimization.sol\":1368:1465  function calc() public {... */\n    tag_10:\n        /* \"09_lesson_optimization/Optimization.sol\":1401:1407  uint a */\n      0x00\n        /* \"09_lesson_optimization/Optimization.sol\":1414:1415  c */\n      dup1\n      sload\n        /* \"09_lesson_optimization/Optimization.sol\":1410:1411  1 */\n      0x01\n        /* \"09_lesson_optimization/Optimization.sol\":1410:1415  1 + c */\n      tag_18\n      swap2\n      swap1\n      tag_13\n      jump\t// in\n    tag_18:\n        /* \"09_lesson_optimization/Optimization.sol\":1401:1415  uint a = 1 + c */\n      swap1\n      pop\n        /* \"09_lesson_optimization/Optimization.sol\":1425:1431  uint b */\n      0x00\n        /* \"09_lesson_optimization/Optimization.sol\":1438:1439  c */\n      dup1\n      sload\n        /* \"09_lesson_optimization/Optimization.sol\":1434:1435  2 */\n      0x02\n        /* \"09_lesson_optimization/Optimization.sol\":1434:1439  2 * c */\n      tag_19\n      swap2\n      swap1\n      tag_15\n      jump\t// in\n    tag_19:\n        /* \"09_lesson_optimization/Optimization.sol\":1425:1439  uint b = 2 * c */\n      swap1\n      pop\n        /* \"09_lesson_optimization/Optimization.sol\":1457:1458  b */\n      dup1\n        /* \"09_lesson_optimization/Optimization.sol\":1453:1454  a */\n      dup3\n        /* \"09_lesson_optimization/Optimization.sol\":1453:1458  a + b */\n      tag_20\n      swap2\n      swap1\n      tag_13\n      jump\t// in\n    tag_20:\n        /* \"09_lesson_optimization/Optimization.sol\":1449:1450  d */\n      0x01\n        /* \"09_lesson_optimization/Optimization.sol\":1449:1458  d = a + b */\n      dup2\n      swap1\n      sstore\n      pop\n        /* \"09_lesson_optimization/Optimization.sol\":1391:1465  {... */\n      pop\n      pop\n        /* \"09_lesson_optimization/Optimization.sol\":1368:1465  function calc() public {... */\n      jump\t// out\n        /* \"#utility.yul\":7:146   */\n    tag_22:\n        /* \"#utility.yul\":53:58   */\n      0x00\n        /* \"#utility.yul\":91:97   */\n      dup2\n        /* \"#utility.yul\":78:98   */\n      calldataload\n        /* \"#utility.yul\":69:98   */\n      swap1\n      pop\n        /* \"#utility.yul\":107:140   */\n      tag_24\n        /* \"#utility.yul\":134:139   */\n      dup2\n        /* \"#utility.yul\":107:140   */\n      tag_25\n      jump\t// in\n    tag_24:\n        /* \"#utility.yul\":7:146   */\n      swap3\n      swap2\n      pop\n      pop\n      jump\t// out\n        /* \"#utility.yul\":152:481   */\n    tag_7:\n        /* \"#utility.yul\":211:217   */\n      0x00\n        /* \"#utility.yul\":260:262   */\n      0x20\n        /* \"#utility.yul\":248:257   */\n      dup3\n        /* \"#utility.yul\":239:246   */\n      dup5\n        /* \"#utility.yul\":235:258   */\n      sub\n        /* \"#utility.yul\":231:263   */\n      slt\n        /* \"#utility.yul\":228:347   */\n      iszero\n      tag_27\n      jumpi\n        /* \"#utility.yul\":266:345   */\n      tag_28\n      tag_29\n      jump\t// in\n    tag_28:\n        /* \"#utility.yul\":228:347   */\n    tag_27:\n        /* \"#utility.yul\":386:387   */\n      0x00\n        /* \"#utility.yul\":411:464   */\n      tag_30\n        /* \"#utility.yul\":456:463   */\n      dup5\n        /* \"#utility.yul\":447:453   */\n      dup3\n        /* \"#utility.yul\":436:445   */\n      dup6\n        /* \"#utility.yul\":432:454   */\n      add\n        /* \"#utility.yul\":411:464   */\n      tag_22\n      jump\t// in\n    tag_30:\n        /* \"#utility.yul\":401:464   */\n      swap2\n      pop\n        /* \"#utility.yul\":357:474   */\n      pop\n        /* \"#utility.yul\":152:481   */\n      swap3\n      swap2\n      pop\n      pop\n      jump\t// out\n        /* \"#utility.yul\":568:873   */\n    tag_13:\n        /* \"#utility.yul\":608:611   */\n      0x00\n        /* \"#utility.yul\":627:647   */\n      tag_34\n        /* \"#utility.yul\":645:646   */\n      dup3\n        /* \"#utility.yul\":627:647   */\n      tag_35\n      jump\t// in\n    tag_34:\n        /* \"#utility.yul\":622:647   */\n      swap2\n      pop\n        /* \"#utility.yul\":661:681   */\n      tag_36\n        /* \"#utility.yul\":679:680   */\n      dup4\n        /* \"#utility.yul\":661:681   */\n      tag_35\n      jump\t// in\n    tag_36:\n        /* \"#utility.yul\":656:681   */\n      swap3\n      pop\n        /* \"#utility.yul\":815:816   */\n      dup3\n        /* \"#utility.yul\":747:813   */\n      0xffffffffffffffffffffffffffffffffffffffffffffffffffffffffffffffff\n        /* \"#utility.yul\":743:817   */\n      sub\n        /* \"#utility.yul\":740:741   */\n      dup3\n        /* \"#utility.yul\":737:818   */\n      gt\n        /* \"#utility.yul\":734:841   */\n      iszero\n      tag_37\n      jumpi\n        /* \"#utility.yul\":821:839   */\n      tag_38\n      tag_39\n      jump\t// in\n    tag_38:\n        /* \"#utility.yul\":734:841   */\n    tag_37:\n        /* \"#utility.yul\":865:866   */\n      dup3\n        /* \"#utility.yul\":862:863   */\n      dup3\n        /* \"#utility.yul\":858:867   */\n      add\n        /* \"#utility.yul\":851:867   */\n      swap1\n      pop\n        /* \"#utility.yul\":568:873   */\n      swap3\n      swap2\n      pop\n      pop\n      jump\t// out\n        /* \"#utility.yul\":879:1227   */\n    tag_15:\n        /* \"#utility.yul\":919:926   */\n      0x00\n        /* \"#utility.yul\":942:962   */\n      tag_41\n        /* \"#utility.yul\":960:961   */\n      dup3\n        /* \"#utility.yul\":942:962   */\n      tag_35\n      jump\t// in\n    tag_41:\n        /* \"#utility.yul\":937:962   */\n      swap2\n      pop\n        /* \"#utility.yul\":976:996   */\n      tag_42\n        /* \"#utility.yul\":994:995   */\n      dup4\n        /* \"#utility.yul\":976:996   */\n      tag_35\n      jump\t// in\n    tag_42:\n        /* \"#utility.yul\":971:996   */\n      swap3\n      pop\n        /* \"#utility.yul\":1164:1165   */\n      dup2\n        /* \"#utility.yul\":1096:1162   */\n      0xffffffffffffffffffffffffffffffffffffffffffffffffffffffffffffffff\n        /* \"#utility.yul\":1092:1166   */\n      div\n        /* \"#utility.yul\":1089:1090   */\n      dup4\n        /* \"#utility.yul\":1086:1167   */\n      gt\n        /* \"#utility.yul\":1081:1082   */\n      dup3\n        /* \"#utility.yul\":1074:1083   */\n      iszero\n        /* \"#utility.yul\":1067:1084   */\n      iszero\n        /* \"#utility.yul\":1063:1168   */\n      and\n        /* \"#utility.yul\":1060:1191   */\n      iszero\n      tag_43\n      jumpi\n        /* \"#utility.yul\":1171:1189   */\n      tag_44\n      tag_39\n      jump\t// in\n    tag_44:\n        /* \"#utility.yul\":1060:1191   */\n    tag_43:\n        /* \"#utility.yul\":1219:1220   */\n      dup3\n        /* \"#utility.yul\":1216:1217   */\n      dup3\n        /* \"#utility.yul\":1212:1221   */\n      mul\n        /* \"#utility.yul\":1201:1221   */\n      swap1\n      pop\n        /* \"#utility.yul\":879:1227   */\n      swap3\n      swap2\n      pop\n      pop\n      jump\t// out\n        /* \"#utility.yul\":1233:1310   */\n    tag_35:\n        /* \"#utility.yul\":1270:1277   */\n      0x00\n        /* \"#utility.yul\":1299:1304   */\n      dup2\n        /* \"#utility.yul\":1288:1304   */\n      swap1\n      pop\n        /* \"#utility.yul\":1233:1310   */\n      swap2\n      swap1\n      pop\n      jump\t// out\n        /* \"#utility.yul\":1316:1496   */\n    tag_39:\n        /* \"#utility.yul\":1364:1441   */\n      0x4e487b7100000000000000000000000000000000000000000000000000000000\n        /* \"#utility.yul\":1361:1362   */\n      0x00\n        /* \"#utility.yul\":1354:1442   */\n      mstore\n        /* \"#utility.yul\":1461:1465   */\n      0x11\n        /* \"#utility.yul\":1458:1459   */\n      0x04\n        /* \"#utility.yul\":1451:1466   */\n      mstore\n        /* \"#utility.yul\":1485:1489   */\n      0x24\n        /* \"#utility.yul\":1482:1483   */\n      0x00\n        /* \"#utility.yul\":1475:1490   */\n      revert\n        /* \"#utility.yul\":1625:1742   */\n    tag_29:\n        /* \"#utility.yul\":1734:1735   */\n      0x00\n        /* \"#utility.yul\":1731:1732   */\n      dup1\n        /* \"#utility.yul\":1724:1736   */\n      revert\n        /* \"#utility.yul\":1748:1870   */\n    tag_25:\n        /* \"#utility.yul\":1821:1845   */\n      tag_51\n        /* \"#utility.yul\":1839:1844   */\n      dup2\n        /* \"#utility.yul\":1821:1845   */\n      tag_35\n      jump\t// in\n    tag_51:\n        /* \"#utility.yul\":1814:1819   */\n      dup2\n        /* \"#utility.yul\":1811:1846   */\n      eq\n        /* \"#utility.yul\":1801:1864   */\n      tag_52\n      jumpi\n        /* \"#utility.yul\":1860:1861   */\n      0x00\n        /* \"#utility.yul\":1857:1858   */\n      dup1\n        /* \"#utility.yul\":1850:1862   */\n      revert\n        /* \"#utility.yul\":1801:1864   */\n    tag_52:\n        /* \"#utility.yul\":1748:1870   */\n      pop\n      jump\t// out\n\n    auxdata: 0xa26469706673582212206d8d77db77d35382af4a9c0efa4aa6f2329819aeb239b3d6de7afa6ddf5e7c4664736f6c63430008070033\n}\n",
				"bytecode": {
					"linkReferences": {},
					"object": "6080604052600560005534801561001557600080fd5b50610253806100256000396000f3fe608060405234801561001057600080fd5b50600436106100365760003560e01c80632b0969261461003b57806396f1b6be14610057575b600080fd5b610055600480360381019061005091906100eb565b610061565b005b61005f61009c565b005b6000805460016100719190610118565b9050600080546002610083919061016e565b905080826100919190610118565b600181905550505050565b6000805460016100ac9190610118565b90506000805460026100be919061016e565b905080826100cc9190610118565b6001819055505050565b6000813590506100e581610206565b92915050565b60006020828403121561010157610100610201565b5b600061010f848285016100d6565b91505092915050565b6000610123826101c8565b915061012e836101c8565b9250827fffffffffffffffffffffffffffffffffffffffffffffffffffffffffffffffff03821115610163576101626101d2565b5b828201905092915050565b6000610179826101c8565b9150610184836101c8565b9250817fffffffffffffffffffffffffffffffffffffffffffffffffffffffffffffffff04831182151516156101bd576101bc6101d2565b5b828202905092915050565b6000819050919050565b7f4e487b7100000000000000000000000000000000000000000000000000000000600052601160045260246000fd5b600080fd5b61020f816101c8565b811461021a57600080fd5b5056fea26469706673582212206d8d77db77d35382af4a9c0efa4aa6f2329819aeb239b3d6de7afa6ddf5e7c4664736f6c63430008070033",
					"opcodes": "PUSH1 0x80 PUSH1 0x40 MSTORE PUSH1 0x5 PUSH1 0x0 SSTORE CALLVALUE DUP1 ISZERO PUSH2 0x15 JUMPI PUSH1 0x0 DUP1 REVERT JUMPDEST POP PUSH2 0x253 DUP1 PUSH2 0x25 PUSH1 0x0 CODECOPY PUSH1 0x0 RETURN INVALID PUSH1 0x80 PUSH1 0x40 MSTORE CALLVALUE DUP1 ISZERO PUSH2 0x10 JUMPI PUSH1 0x0 DUP1 REVERT JUMPDEST POP PUSH1 0x4 CALLDATASIZE LT PUSH2 0x36 JUMPI PUSH1 0x0 CALLDATALOAD PUSH1 0xE0 SHR DUP1 PUSH4 0x2B096926 EQ PUSH2 0x3B JUMPI DUP1 PUSH4 0x96F1B6BE EQ PUSH2 0x57 JUMPI JUMPDEST PUSH1 0x0 DUP1 REVERT JUMPDEST PUSH2 0x55 PUSH1 0x4 DUP1 CALLDATASIZE SUB DUP2 ADD SWAP1 PUSH2 0x50 SWAP2 SWAP1 PUSH2 0xEB JUMP JUMPDEST PUSH2 0x61 JUMP JUMPDEST STOP JUMPDEST PUSH2 0x5F PUSH2 0x9C JUMP JUMPDEST STOP JUMPDEST PUSH1 0x0 DUP1 SLOAD PUSH1 0x1 PUSH2 0x71 SWAP2 SWAP1 PUSH2 0x118 JUMP JUMPDEST SWAP1 POP PUSH1 0x0 DUP1 SLOAD PUSH1 0x2 PUSH2 0x83 SWAP2 SWAP1 PUSH2 0x16E JUMP JUMPDEST SWAP1 POP DUP1 DUP3 PUSH2 0x91 SWAP2 SWAP1 PUSH2 0x118 JUMP JUMPDEST PUSH1 0x1 DUP2 SWAP1 SSTORE POP POP POP POP JUMP JUMPDEST PUSH1 0x0 DUP1 SLOAD PUSH1 0x1 PUSH2 0xAC SWAP2 SWAP1 PUSH2 0x118 JUMP JUMPDEST SWAP1 POP PUSH1 0x0 DUP1 SLOAD PUSH1 0x2 PUSH2 0xBE SWAP2 SWAP1 PUSH2 0x16E JUMP JUMPDEST SWAP1 POP DUP1 DUP3 PUSH2 0xCC SWAP2 SWAP1 PUSH2 0x118 JUMP JUMPDEST PUSH1 0x1 DUP2 SWAP1 SSTORE POP POP POP JUMP JUMPDEST PUSH1 0x0 DUP2 CALLDATALOAD SWAP1 POP PUSH2 0xE5 DUP2 PUSH2 0x206 JUMP JUMPDEST SWAP3 SWAP2 POP POP JUMP JUMPDEST PUSH1 0x0 PUSH1 0x20 DUP3 DUP5 SUB SLT ISZERO PUSH2 0x101 JUMPI PUSH2 0x100 PUSH2 0x201 JUMP JUMPDEST JUMPDEST PUSH1 0x0 PUSH2 0x10F DUP5 DUP3 DUP6 ADD PUSH2 0xD6 JUMP JUMPDEST SWAP2 POP POP SWAP3 SWAP2 POP POP JUMP JUMPDEST PUSH1 0x0 PUSH2 0x123 DUP3 PUSH2 0x1C8 JUMP JUMPDEST SWAP2 POP PUSH2 0x12E DUP4 PUSH2 0x1C8 JUMP JUMPDEST SWAP3 POP DUP3 PUSH32 0xFFFFFFFFFFFFFFFFFFFFFFFFFFFFFFFFFFFFFFFFFFFFFFFFFFFFFFFFFFFFFFFF SUB DUP3 GT ISZERO PUSH2 0x163 JUMPI PUSH2 0x162 PUSH2 0x1D2 JUMP JUMPDEST JUMPDEST DUP3 DUP3 ADD SWAP1 POP SWAP3 SWAP2 POP POP JUMP JUMPDEST PUSH1 0x0 PUSH2 0x179 DUP3 PUSH2 0x1C8 JUMP JUMPDEST SWAP2 POP PUSH2 0x184 DUP4 PUSH2 0x1C8 JUMP JUMPDEST SWAP3 POP DUP2 PUSH32 0xFFFFFFFFFFFFFFFFFFFFFFFFFFFFFFFFFFFFFFFFFFFFFFFFFFFFFFFFFFFFFFFF DIV DUP4 GT DUP3 ISZERO ISZERO AND ISZERO PUSH2 0x1BD JUMPI PUSH2 0x1BC PUSH2 0x1D2 JUMP JUMPDEST JUMPDEST DUP3 DUP3 MUL SWAP1 POP SWAP3 SWAP2 POP POP JUMP JUMPDEST PUSH1 0x0 DUP2 SWAP1 POP SWAP2 SWAP1 POP JUMP JUMPDEST PUSH32 0x4E487B7100000000000000000000000000000000000000000000000000000000 PUSH1 0x0 MSTORE PUSH1 0x11 PUSH1 0x4 MSTORE PUSH1 0x24 PUSH1 0x0 REVERT JUMPDEST PUSH1 0x0 DUP1 REVERT JUMPDEST PUSH2 0x20F DUP2 PUSH2 0x1C8 JUMP JUMPDEST DUP2 EQ PUSH2 0x21A JUMPI PUSH1 0x0 DUP1 REVERT JUMPDEST POP JUMP INVALID LOG2 PUSH5 0x6970667358 0x22 SLT KECCAK256 PUSH14 0x8D77DB77D35382AF4A9C0EFA4AA6 CALLCODE ORIGIN SWAP9 NOT 0xAE 0xB2 CODECOPY 0xB3 0xD6 0xDE PUSH27 0xFA6DDF5E7C4664736F6C6343000807003300000000000000000000 "
				},
				"gasEstimates": {
					"creation": {
						"codeDepositCost": "119000",
						"executionCost": "22271",
						"totalCost": "141271"
					},
					"external": {
						"calc()": "infinite",
						"call(uint256)": "infinite"
					}
				},
				"methodIdentifiers": {
					"calc()": "96f1b6be",
					"call(uint256)": "2b096926"
				}
			},
			"storageLayout": {
				"storage": [
					{
						"astId": 32,
						"contract": "09_lesson_optimization/Optimization.sol:Un",
						"label": "c",
						"offset": 0,
						"slot": "0",
						"type": "t_uint256"
					},
					{
						"astId": 34,
						"contract": "09_lesson_optimization/Optimization.sol:Un",
						"label": "d",
						"offset": 0,
						"slot": "1",
						"type": "t_uint256"
					}
				],
				"types": {
					"t_uint256": {
						"encoding": "inplace",
						"label": "uint256",
						"numberOfBytes": "32"
					}
				}
			},
			"userdoc": {
				"kind": "user",
				"methods": {},
				"version": 1
			}
		}
	}
}