{
	"09_lesson_optimization/Optimization.sol": {
		"Op": {
			"abi": [
				{
					"inputs": [],
					"name": "calc",
					"outputs": [],
					"stateMutability": "nonpayable",
					"type": "function"
				}
			],
			"devdoc": {
				"kind": "dev",
				"methods": {},
				"version": 1
			},
			"evm": {
				"assembly": "    /* \"09_lesson_optimization/Optimization.sol\":59:683  contract Op {... */\n  mstore(0x40, 0x80)\n    /* \"09_lesson_optimization/Optimization.sol\":623:624  5 */\n  0x05\n    /* \"09_lesson_optimization/Optimization.sol\":614:624  uint c = 5 */\n  0x00\n  sstore\n    /* \"09_lesson_optimization/Optimization.sol\":59:683  contract Op {... */\n  callvalue\n  dup1\n  iszero\n  tag_1\n  jumpi\n  0x00\n  dup1\n  revert\ntag_1:\n  pop\n  dataSize(sub_0)\n  dup1\n  dataOffset(sub_0)\n  0x00\n  codecopy\n  0x00\n  return\nstop\n\nsub_0: assembly {\n        /* \"09_lesson_optimization/Optimization.sol\":59:683  contract Op {... */\n      mstore(0x40, 0x80)\n      callvalue\n      dup1\n      iszero\n      tag_1\n      jumpi\n      0x00\n      dup1\n      revert\n    tag_1:\n      pop\n      jumpi(tag_2, lt(calldatasize, 0x04))\n      shr(0xe0, calldataload(0x00))\n      dup1\n      0x96f1b6be\n      eq\n      tag_3\n      jumpi\n    tag_2:\n      0x00\n      dup1\n      revert\n        /* \"09_lesson_optimization/Optimization.sol\":642:681  function calc() public {... */\n    tag_3:\n      tag_4\n      tag_5\n      jump\t// in\n    tag_4:\n      stop\n    tag_5:\n      jump\t// out\n\n    auxdata: 0xa264697066735822122092b7db39912b9d741cc0495a2503289506b78e28c5560b4123b5e2b7154e1c9a64736f6c63430008070033\n}\n",
				"bytecode": {
					"linkReferences": {},
					"object": "60806040526005600055348015601457600080fd5b50606d8060226000396000f3fe6080604052348015600f57600080fd5b506004361060285760003560e01c806396f1b6be14602d575b600080fd5b60336035565b005b56fea264697066735822122092b7db39912b9d741cc0495a2503289506b78e28c5560b4123b5e2b7154e1c9a64736f6c63430008070033",
					"opcodes": "PUSH1 0x80 PUSH1 0x40 MSTORE PUSH1 0x5 PUSH1 0x0 SSTORE CALLVALUE DUP1 ISZERO PUSH1 0x14 JUMPI PUSH1 0x0 DUP1 REVERT JUMPDEST POP PUSH1 0x6D DUP1 PUSH1 0x22 PUSH1 0x0 CODECOPY PUSH1 0x0 RETURN INVALID PUSH1 0x80 PUSH1 0x40 MSTORE CALLVALUE DUP1 ISZERO PUSH1 0xF JUMPI PUSH1 0x0 DUP1 REVERT JUMPDEST POP PUSH1 0x4 CALLDATASIZE LT PUSH1 0x28 JUMPI PUSH1 0x0 CALLDATALOAD PUSH1 0xE0 SHR DUP1 PUSH4 0x96F1B6BE EQ PUSH1 0x2D JUMPI JUMPDEST PUSH1 0x0 DUP1 REVERT JUMPDEST PUSH1 0x33 PUSH1 0x35 JUMP JUMPDEST STOP JUMPDEST JUMP INVALID LOG2 PUSH5 0x6970667358 0x22 SLT KECCAK256 SWAP3 0xB7 0xDB CODECOPY SWAP2 0x2B SWAP14 PUSH21 0x1CC0495A2503289506B78E28C5560B4123B5E2B715 0x4E SHR SWAP11 PUSH5 0x736F6C6343 STOP ADDMOD SMOD STOP CALLER "
				},
				"gasEstimates": {
					"creation": {
						"codeDepositCost": "21800",
						"executionCost": "22181",
						"totalCost": "43981"
					},
					"external": {
						"calc()": "122"
					}
				},
				"methodIdentifiers": {
					"calc()": "96f1b6be"
				}
			},
			"storageLayout": {
				"storage": [
					{
						"astId": 4,
						"contract": "09_lesson_optimization/Optimization.sol:Op",
						"label": "c",
						"offset": 0,
						"slot": "0",
						"type": "t_uint256"
					},
					{
						"astId": 6,
						"contract": "09_lesson_optimization/Optimization.sol:Op",
						"label": "d",
						"offset": 0,
						"slot": "1",
						"type": "t_uint256"
					}
				],
				"types": {
					"t_uint256": {
						"encoding": "inplace",
						"label": "uint256",
						"numberOfBytes": "32"
					}
				}
			},
			"userdoc": {
				"kind": "user",
				"methods": {},
				"version": 1
			}
		}
	}
}