{
	"06_lesson_functions/Demo.sol": {
		"Demo": {
			"abi": [
				{
					"inputs": [],
					"name": "balance",
					"outputs": [
						{
							"internalType": "uint256",
							"name": "",
							"type": "uint256"
						}
					],
					"stateMutability": "view",
					"type": "function"
				},
				{
					"inputs": [],
					"name": "getBalance",
					"outputs": [
						{
							"internalType": "uint256",
							"name": "balance",
							"type": "uint256"
						}
					],
					"stateMutability": "view",
					"type": "function"
				},
				{
					"inputs": [],
					"name": "getMesage",
					"outputs": [
						{
							"internalType": "string",
							"name": "",
							"type": "string"
						}
					],
					"stateMutability": "view",
					"type": "function"
				},
				{
					"inputs": [],
					"name": "pay",
					"outputs": [],
					"stateMutability": "payable",
					"type": "function"
				},
				{
					"inputs": [
						{
							"internalType": "uint256",
							"name": "amount",
							"type": "uint256"
						}
					],
					"name": "rate",
					"outputs": [
						{
							"internalType": "uint256",
							"name": "",
							"type": "uint256"
						}
					],
					"stateMutability": "pure",
					"type": "function"
				},
				{
					"inputs": [
						{
							"internalType": "string",
							"name": "newMessage",
							"type": "string"
						}
					],
					"name": "setMessage",
					"outputs": [],
					"stateMutability": "nonpayable",
					"type": "function"
				},
				{
					"stateMutability": "payable",
					"type": "receive"
				}
			],
			"devdoc": {
				"kind": "dev",
				"methods": {},
				"version": 1
			},
			"evm": {
				"assembly": "    /* \"06_lesson_functions/Demo.sol\":57:769  contract Demo {... */\n  mstore(0x40, 0x80)\n    /* \"06_lesson_functions/Demo.sol\":163:187  string message = \"hello\" */\n  mload(0x40)\n  dup1\n  0x40\n  add\n  0x40\n  mstore\n  dup1\n  0x05\n  dup2\n  mstore\n  0x20\n  add\n  0x68656c6c6f000000000000000000000000000000000000000000000000000000\n  dup2\n  mstore\n  pop\n  0x00\n  swap1\n  dup2\n  tag_1\n  swap2\n  swap1\n  tag_2\n  jump\t// in\ntag_1:\n  pop\n    /* \"06_lesson_functions/Demo.sol\":57:769  contract Demo {... */\n  callvalue\n  dup1\n  iszero\n  tag_3\n  jumpi\n  0x00\n  dup1\n  revert\ntag_3:\n  pop\n  jump(tag_4)\n    /* \"#utility.yul\":7:106   */\ntag_5:\n    /* \"#utility.yul\":59:65   */\n  0x00\n    /* \"#utility.yul\":93:98   */\n  dup2\n    /* \"#utility.yul\":87:99   */\n  mload\n    /* \"#utility.yul\":77:99   */\n  swap1\n  pop\n    /* \"#utility.yul\":7:106   */\n  swap2\n  swap1\n  pop\n  jump\t// out\n    /* \"#utility.yul\":112:292   */\ntag_6:\n    /* \"#utility.yul\":160:237   */\n  0x4e487b7100000000000000000000000000000000000000000000000000000000\n    /* \"#utility.yul\":157:158   */\n  0x00\n    /* \"#utility.yul\":150:238   */\n  mstore\n    /* \"#utility.yul\":257:261   */\n  0x41\n    /* \"#utility.yul\":254:255   */\n  0x04\n    /* \"#utility.yul\":247:262   */\n  mstore\n    /* \"#utility.yul\":281:285   */\n  0x24\n    /* \"#utility.yul\":278:279   */\n  0x00\n    /* \"#utility.yul\":271:286   */\n  revert\n    /* \"#utility.yul\":298:478   */\ntag_7:\n    /* \"#utility.yul\":346:423   */\n  0x4e487b7100000000000000000000000000000000000000000000000000000000\n    /* \"#utility.yul\":343:344   */\n  0x00\n    /* \"#utility.yul\":336:424   */\n  mstore\n    /* \"#utility.yul\":443:447   */\n  0x22\n    /* \"#utility.yul\":440:441   */\n  0x04\n    /* \"#utility.yul\":433:448   */\n  mstore\n    /* \"#utility.yul\":467:471   */\n  0x24\n    /* \"#utility.yul\":464:465   */\n  0x00\n    /* \"#utility.yul\":457:472   */\n  revert\n    /* \"#utility.yul\":484:804   */\ntag_8:\n    /* \"#utility.yul\":528:534   */\n  0x00\n    /* \"#utility.yul\":565:566   */\n  0x02\n    /* \"#utility.yul\":559:563   */\n  dup3\n    /* \"#utility.yul\":555:567   */\n  div\n    /* \"#utility.yul\":545:567   */\n  swap1\n  pop\n    /* \"#utility.yul\":612:613   */\n  0x01\n    /* \"#utility.yul\":606:610   */\n  dup3\n    /* \"#utility.yul\":602:614   */\n  and\n    /* \"#utility.yul\":633:651   */\n  dup1\n    /* \"#utility.yul\":623:704   */\n  tag_30\n  jumpi\n    /* \"#utility.yul\":689:693   */\n  0x7f\n    /* \"#utility.yul\":681:687   */\n  dup3\n    /* \"#utility.yul\":677:694   */\n  and\n    /* \"#utility.yul\":667:694   */\n  swap2\n  pop\n    /* \"#utility.yul\":623:704   */\ntag_30:\n    /* \"#utility.yul\":751:753   */\n  0x20\n    /* \"#utility.yul\":743:749   */\n  dup3\n    /* \"#utility.yul\":740:754   */\n  lt\n    /* \"#utility.yul\":720:738   */\n  dup2\n    /* \"#utility.yul\":717:755   */\n  sub\n    /* \"#utility.yul\":714:798   */\n  tag_31\n  jumpi\n    /* \"#utility.yul\":770:788   */\n  tag_32\n  tag_7\n  jump\t// in\ntag_32:\n    /* \"#utility.yul\":714:798   */\ntag_31:\n    /* \"#utility.yul\":535:804   */\n  pop\n    /* \"#utility.yul\":484:804   */\n  swap2\n  swap1\n  pop\n  jump\t// out\n    /* \"#utility.yul\":810:951   */\ntag_9:\n    /* \"#utility.yul\":859:863   */\n  0x00\n    /* \"#utility.yul\":882:885   */\n  dup2\n    /* \"#utility.yul\":874:885   */\n  swap1\n  pop\n    /* \"#utility.yul\":905:908   */\n  dup2\n    /* \"#utility.yul\":902:903   */\n  0x00\n    /* \"#utility.yul\":895:909   */\n  mstore\n    /* \"#utility.yul\":939:943   */\n  0x20\n    /* \"#utility.yul\":936:937   */\n  0x00\n    /* \"#utility.yul\":926:944   */\n  keccak256\n    /* \"#utility.yul\":918:944   */\n  swap1\n  pop\n    /* \"#utility.yul\":810:951   */\n  swap2\n  swap1\n  pop\n  jump\t// out\n    /* \"#utility.yul\":957:1050   */\ntag_10:\n    /* \"#utility.yul\":994:1000   */\n  0x00\n    /* \"#utility.yul\":1041:1043   */\n  0x20\n    /* \"#utility.yul\":1036:1038   */\n  0x1f\n    /* \"#utility.yul\":1029:1034   */\n  dup4\n    /* \"#utility.yul\":1025:1039   */\n  add\n    /* \"#utility.yul\":1021:1044   */\n  div\n    /* \"#utility.yul\":1011:1044   */\n  swap1\n  pop\n    /* \"#utility.yul\":957:1050   */\n  swap2\n  swap1\n  pop\n  jump\t// out\n    /* \"#utility.yul\":1056:1163   */\ntag_11:\n    /* \"#utility.yul\":1100:1108   */\n  0x00\n    /* \"#utility.yul\":1150:1155   */\n  dup3\n    /* \"#utility.yul\":1144:1148   */\n  dup3\n    /* \"#utility.yul\":1140:1156   */\n  shl\n    /* \"#utility.yul\":1119:1156   */\n  swap1\n  pop\n    /* \"#utility.yul\":1056:1163   */\n  swap3\n  swap2\n  pop\n  pop\n  jump\t// out\n    /* \"#utility.yul\":1169:1562   */\ntag_12:\n    /* \"#utility.yul\":1238:1244   */\n  0x00\n    /* \"#utility.yul\":1288:1289   */\n  0x08\n    /* \"#utility.yul\":1276:1286   */\n  dup4\n    /* \"#utility.yul\":1272:1290   */\n  mul\n    /* \"#utility.yul\":1311:1408   */\n  tag_37\n    /* \"#utility.yul\":1341:1407   */\n  0xffffffffffffffffffffffffffffffffffffffffffffffffffffffffffffffff\n    /* \"#utility.yul\":1330:1339   */\n  dup3\n    /* \"#utility.yul\":1311:1408   */\n  tag_11\n  jump\t// in\ntag_37:\n    /* \"#utility.yul\":1429:1468   */\n  tag_38\n    /* \"#utility.yul\":1459:1467   */\n  dup7\n    /* \"#utility.yul\":1448:1457   */\n  dup4\n    /* \"#utility.yul\":1429:1468   */\n  tag_11\n  jump\t// in\ntag_38:\n    /* \"#utility.yul\":1417:1468   */\n  swap6\n  pop\n    /* \"#utility.yul\":1501:1505   */\n  dup1\n    /* \"#utility.yul\":1497:1506   */\n  not\n    /* \"#utility.yul\":1490:1495   */\n  dup5\n    /* \"#utility.yul\":1486:1507   */\n  and\n    /* \"#utility.yul\":1477:1507   */\n  swap4\n  pop\n    /* \"#utility.yul\":1550:1554   */\n  dup1\n    /* \"#utility.yul\":1540:1548   */\n  dup7\n    /* \"#utility.yul\":1536:1555   */\n  and\n    /* \"#utility.yul\":1529:1534   */\n  dup5\n    /* \"#utility.yul\":1526:1556   */\n  or\n    /* \"#utility.yul\":1516:1556   */\n  swap3\n  pop\n    /* \"#utility.yul\":1245:1562   */\n  pop\n  pop\n    /* \"#utility.yul\":1169:1562   */\n  swap4\n  swap3\n  pop\n  pop\n  pop\n  jump\t// out\n    /* \"#utility.yul\":1568:1645   */\ntag_13:\n    /* \"#utility.yul\":1605:1612   */\n  0x00\n    /* \"#utility.yul\":1634:1639   */\n  dup2\n    /* \"#utility.yul\":1623:1639   */\n  swap1\n  pop\n    /* \"#utility.yul\":1568:1645   */\n  swap2\n  swap1\n  pop\n  jump\t// out\n    /* \"#utility.yul\":1651:1711   */\ntag_14:\n    /* \"#utility.yul\":1679:1682   */\n  0x00\n    /* \"#utility.yul\":1700:1705   */\n  dup2\n    /* \"#utility.yul\":1693:1705   */\n  swap1\n  pop\n    /* \"#utility.yul\":1651:1711   */\n  swap2\n  swap1\n  pop\n  jump\t// out\n    /* \"#utility.yul\":1717:1859   */\ntag_15:\n    /* \"#utility.yul\":1767:1776   */\n  0x00\n    /* \"#utility.yul\":1800:1853   */\n  tag_42\n    /* \"#utility.yul\":1818:1852   */\n  tag_43\n    /* \"#utility.yul\":1827:1851   */\n  tag_44\n    /* \"#utility.yul\":1845:1850   */\n  dup5\n    /* \"#utility.yul\":1827:1851   */\n  tag_13\n  jump\t// in\ntag_44:\n    /* \"#utility.yul\":1818:1852   */\n  tag_14\n  jump\t// in\ntag_43:\n    /* \"#utility.yul\":1800:1853   */\n  tag_13\n  jump\t// in\ntag_42:\n    /* \"#utility.yul\":1787:1853   */\n  swap1\n  pop\n    /* \"#utility.yul\":1717:1859   */\n  swap2\n  swap1\n  pop\n  jump\t// out\n    /* \"#utility.yul\":1865:1940   */\ntag_16:\n    /* \"#utility.yul\":1908:1911   */\n  0x00\n    /* \"#utility.yul\":1929:1934   */\n  dup2\n    /* \"#utility.yul\":1922:1934   */\n  swap1\n  pop\n    /* \"#utility.yul\":1865:1940   */\n  swap2\n  swap1\n  pop\n  jump\t// out\n    /* \"#utility.yul\":1946:2215   */\ntag_17:\n    /* \"#utility.yul\":2056:2095   */\n  tag_47\n    /* \"#utility.yul\":2087:2094   */\n  dup4\n    /* \"#utility.yul\":2056:2095   */\n  tag_15\n  jump\t// in\ntag_47:\n    /* \"#utility.yul\":2117:2208   */\n  tag_48\n    /* \"#utility.yul\":2166:2207   */\n  tag_49\n    /* \"#utility.yul\":2190:2206   */\n  dup3\n    /* \"#utility.yul\":2166:2207   */\n  tag_16\n  jump\t// in\ntag_49:\n    /* \"#utility.yul\":2158:2164   */\n  dup5\n    /* \"#utility.yul\":2151:2155   */\n  dup5\n    /* \"#utility.yul\":2145:2156   */\n  sload\n    /* \"#utility.yul\":2117:2208   */\n  tag_12\n  jump\t// in\ntag_48:\n    /* \"#utility.yul\":2111:2115   */\n  dup3\n    /* \"#utility.yul\":2104:2209   */\n  sstore\n    /* \"#utility.yul\":2022:2215   */\n  pop\n    /* \"#utility.yul\":1946:2215   */\n  pop\n  pop\n  pop\n  jump\t// out\n    /* \"#utility.yul\":2221:2294   */\ntag_18:\n    /* \"#utility.yul\":2266:2269   */\n  0x00\n    /* \"#utility.yul\":2221:2294   */\n  swap1\n  jump\t// out\n    /* \"#utility.yul\":2300:2489   */\ntag_19:\n    /* \"#utility.yul\":2377:2409   */\n  tag_52\n  tag_18\n  jump\t// in\ntag_52:\n    /* \"#utility.yul\":2418:2483   */\n  tag_53\n    /* \"#utility.yul\":2476:2482   */\n  dup2\n    /* \"#utility.yul\":2468:2474   */\n  dup5\n    /* \"#utility.yul\":2462:2466   */\n  dup5\n    /* \"#utility.yul\":2418:2483   */\n  tag_17\n  jump\t// in\ntag_53:\n    /* \"#utility.yul\":2353:2489   */\n  pop\n    /* \"#utility.yul\":2300:2489   */\n  pop\n  pop\n  jump\t// out\n    /* \"#utility.yul\":2495:2681   */\ntag_20:\n    /* \"#utility.yul\":2555:2675   */\ntag_55:\n    /* \"#utility.yul\":2572:2575   */\n  dup2\n    /* \"#utility.yul\":2565:2570   */\n  dup2\n    /* \"#utility.yul\":2562:2576   */\n  lt\n    /* \"#utility.yul\":2555:2675   */\n  iszero\n  tag_57\n  jumpi\n    /* \"#utility.yul\":2626:2665   */\n  tag_58\n    /* \"#utility.yul\":2663:2664   */\n  0x00\n    /* \"#utility.yul\":2656:2661   */\n  dup3\n    /* \"#utility.yul\":2626:2665   */\n  tag_19\n  jump\t// in\ntag_58:\n    /* \"#utility.yul\":2599:2600   */\n  0x01\n    /* \"#utility.yul\":2592:2597   */\n  dup2\n    /* \"#utility.yul\":2588:2601   */\n  add\n    /* \"#utility.yul\":2579:2601   */\n  swap1\n  pop\n    /* \"#utility.yul\":2555:2675   */\n  jump(tag_55)\ntag_57:\n    /* \"#utility.yul\":2495:2681   */\n  pop\n  pop\n  jump\t// out\n    /* \"#utility.yul\":2687:3230   */\ntag_21:\n    /* \"#utility.yul\":2788:2790   */\n  0x1f\n    /* \"#utility.yul\":2783:2786   */\n  dup3\n    /* \"#utility.yul\":2780:2791   */\n  gt\n    /* \"#utility.yul\":2777:3223   */\n  iszero\n  tag_60\n  jumpi\n    /* \"#utility.yul\":2822:2860   */\n  tag_61\n    /* \"#utility.yul\":2854:2859   */\n  dup2\n    /* \"#utility.yul\":2822:2860   */\n  tag_9\n  jump\t// in\ntag_61:\n    /* \"#utility.yul\":2906:2935   */\n  tag_62\n    /* \"#utility.yul\":2924:2934   */\n  dup5\n    /* \"#utility.yul\":2906:2935   */\n  tag_10\n  jump\t// in\ntag_62:\n    /* \"#utility.yul\":2896:2904   */\n  dup2\n    /* \"#utility.yul\":2892:2936   */\n  add\n    /* \"#utility.yul\":3089:3091   */\n  0x20\n    /* \"#utility.yul\":3077:3087   */\n  dup6\n    /* \"#utility.yul\":3074:3092   */\n  lt\n    /* \"#utility.yul\":3071:3120   */\n  iszero\n  tag_63\n  jumpi\n    /* \"#utility.yul\":3110:3118   */\n  dup2\n    /* \"#utility.yul\":3095:3118   */\n  swap1\n  pop\n    /* \"#utility.yul\":3071:3120   */\ntag_63:\n    /* \"#utility.yul\":3133:3213   */\n  tag_64\n    /* \"#utility.yul\":3189:3211   */\n  tag_65\n    /* \"#utility.yul\":3207:3210   */\n  dup6\n    /* \"#utility.yul\":3189:3211   */\n  tag_10\n  jump\t// in\ntag_65:\n    /* \"#utility.yul\":3179:3187   */\n  dup4\n    /* \"#utility.yul\":3175:3212   */\n  add\n    /* \"#utility.yul\":3162:3173   */\n  dup3\n    /* \"#utility.yul\":3133:3213   */\n  tag_20\n  jump\t// in\ntag_64:\n    /* \"#utility.yul\":2792:3223   */\n  pop\n  pop\n    /* \"#utility.yul\":2777:3223   */\ntag_60:\n    /* \"#utility.yul\":2687:3230   */\n  pop\n  pop\n  pop\n  jump\t// out\n    /* \"#utility.yul\":3236:3353   */\ntag_22:\n    /* \"#utility.yul\":3290:3298   */\n  0x00\n    /* \"#utility.yul\":3340:3345   */\n  dup3\n    /* \"#utility.yul\":3334:3338   */\n  dup3\n    /* \"#utility.yul\":3330:3346   */\n  shr\n    /* \"#utility.yul\":3309:3346   */\n  swap1\n  pop\n    /* \"#utility.yul\":3236:3353   */\n  swap3\n  swap2\n  pop\n  pop\n  jump\t// out\n    /* \"#utility.yul\":3359:3528   */\ntag_23:\n    /* \"#utility.yul\":3403:3409   */\n  0x00\n    /* \"#utility.yul\":3436:3487   */\n  tag_68\n    /* \"#utility.yul\":3484:3485   */\n  0x00\n    /* \"#utility.yul\":3480:3486   */\n  not\n    /* \"#utility.yul\":3472:3477   */\n  dup5\n    /* \"#utility.yul\":3469:3470   */\n  0x08\n    /* \"#utility.yul\":3465:3478   */\n  mul\n    /* \"#utility.yul\":3436:3487   */\n  tag_22\n  jump\t// in\ntag_68:\n    /* \"#utility.yul\":3432:3488   */\n  not\n    /* \"#utility.yul\":3517:3521   */\n  dup1\n    /* \"#utility.yul\":3511:3515   */\n  dup4\n    /* \"#utility.yul\":3507:3522   */\n  and\n    /* \"#utility.yul\":3497:3522   */\n  swap2\n  pop\n    /* \"#utility.yul\":3410:3528   */\n  pop\n    /* \"#utility.yul\":3359:3528   */\n  swap3\n  swap2\n  pop\n  pop\n  jump\t// out\n    /* \"#utility.yul\":3533:3828   */\ntag_24:\n    /* \"#utility.yul\":3609:3613   */\n  0x00\n    /* \"#utility.yul\":3755:3784   */\n  tag_70\n    /* \"#utility.yul\":3780:3783   */\n  dup4\n    /* \"#utility.yul\":3774:3778   */\n  dup4\n    /* \"#utility.yul\":3755:3784   */\n  tag_23\n  jump\t// in\ntag_70:\n    /* \"#utility.yul\":3747:3784   */\n  swap2\n  pop\n    /* \"#utility.yul\":3817:3820   */\n  dup3\n    /* \"#utility.yul\":3814:3815   */\n  0x02\n    /* \"#utility.yul\":3810:3821   */\n  mul\n    /* \"#utility.yul\":3804:3808   */\n  dup3\n    /* \"#utility.yul\":3801:3822   */\n  or\n    /* \"#utility.yul\":3793:3822   */\n  swap1\n  pop\n    /* \"#utility.yul\":3533:3828   */\n  swap3\n  swap2\n  pop\n  pop\n  jump\t// out\n    /* \"#utility.yul\":3833:5228   */\ntag_2:\n    /* \"#utility.yul\":3950:3987   */\n  tag_72\n    /* \"#utility.yul\":3983:3986   */\n  dup3\n    /* \"#utility.yul\":3950:3987   */\n  tag_5\n  jump\t// in\ntag_72:\n    /* \"#utility.yul\":4052:4070   */\n  0xffffffffffffffff\n    /* \"#utility.yul\":4044:4050   */\n  dup2\n    /* \"#utility.yul\":4041:4071   */\n  gt\n    /* \"#utility.yul\":4038:4094   */\n  iszero\n  tag_73\n  jumpi\n    /* \"#utility.yul\":4074:4092   */\n  tag_74\n  tag_6\n  jump\t// in\ntag_74:\n    /* \"#utility.yul\":4038:4094   */\ntag_73:\n    /* \"#utility.yul\":4118:4156   */\n  tag_75\n    /* \"#utility.yul\":4150:4154   */\n  dup3\n    /* \"#utility.yul\":4144:4155   */\n  sload\n    /* \"#utility.yul\":4118:4156   */\n  tag_8\n  jump\t// in\ntag_75:\n    /* \"#utility.yul\":4203:4270   */\n  tag_76\n    /* \"#utility.yul\":4263:4269   */\n  dup3\n    /* \"#utility.yul\":4255:4261   */\n  dup3\n    /* \"#utility.yul\":4249:4253   */\n  dup6\n    /* \"#utility.yul\":4203:4270   */\n  tag_21\n  jump\t// in\ntag_76:\n    /* \"#utility.yul\":4297:4298   */\n  0x00\n    /* \"#utility.yul\":4321:4325   */\n  0x20\n    /* \"#utility.yul\":4308:4325   */\n  swap1\n  pop\n    /* \"#utility.yul\":4353:4355   */\n  0x1f\n    /* \"#utility.yul\":4345:4351   */\n  dup4\n    /* \"#utility.yul\":4342:4356   */\n  gt\n    /* \"#utility.yul\":4370:4371   */\n  0x01\n    /* \"#utility.yul\":4365:4983   */\n  dup2\n  eq\n  tag_78\n  jumpi\n    /* \"#utility.yul\":5027:5028   */\n  0x00\n    /* \"#utility.yul\":5044:5050   */\n  dup5\n    /* \"#utility.yul\":5041:5118   */\n  iszero\n  tag_79\n  jumpi\n    /* \"#utility.yul\":5093:5102   */\n  dup3\n    /* \"#utility.yul\":5088:5091   */\n  dup8\n    /* \"#utility.yul\":5084:5103   */\n  add\n    /* \"#utility.yul\":5078:5104   */\n  mload\n    /* \"#utility.yul\":5069:5104   */\n  swap1\n  pop\n    /* \"#utility.yul\":5041:5118   */\ntag_79:\n    /* \"#utility.yul\":5144:5211   */\n  tag_80\n    /* \"#utility.yul\":5204:5210   */\n  dup6\n    /* \"#utility.yul\":5197:5202   */\n  dup3\n    /* \"#utility.yul\":5144:5211   */\n  tag_24\n  jump\t// in\ntag_80:\n    /* \"#utility.yul\":5138:5142   */\n  dup7\n    /* \"#utility.yul\":5131:5212   */\n  sstore\n    /* \"#utility.yul\":5000:5222   */\n  pop\n    /* \"#utility.yul\":4335:5222   */\n  jump(tag_77)\n    /* \"#utility.yul\":4365:4983   */\ntag_78:\n    /* \"#utility.yul\":4417:4421   */\n  0x1f\n    /* \"#utility.yul\":4413:4422   */\n  not\n    /* \"#utility.yul\":4405:4411   */\n  dup5\n    /* \"#utility.yul\":4401:4423   */\n  and\n    /* \"#utility.yul\":4451:4488   */\n  tag_81\n    /* \"#utility.yul\":4483:4487   */\n  dup7\n    /* \"#utility.yul\":4451:4488   */\n  tag_9\n  jump\t// in\ntag_81:\n    /* \"#utility.yul\":4510:4511   */\n  0x00\n    /* \"#utility.yul\":4524:4732   */\ntag_82:\n    /* \"#utility.yul\":4538:4545   */\n  dup3\n    /* \"#utility.yul\":4535:4536   */\n  dup2\n    /* \"#utility.yul\":4532:4546   */\n  lt\n    /* \"#utility.yul\":4524:4732   */\n  iszero\n  tag_84\n  jumpi\n    /* \"#utility.yul\":4617:4626   */\n  dup5\n    /* \"#utility.yul\":4612:4615   */\n  dup10\n    /* \"#utility.yul\":4608:4627   */\n  add\n    /* \"#utility.yul\":4602:4628   */\n  mload\n    /* \"#utility.yul\":4594:4600   */\n  dup3\n    /* \"#utility.yul\":4587:4629   */\n  sstore\n    /* \"#utility.yul\":4668:4669   */\n  0x01\n    /* \"#utility.yul\":4660:4666   */\n  dup3\n    /* \"#utility.yul\":4656:4670   */\n  add\n    /* \"#utility.yul\":4646:4670   */\n  swap2\n  pop\n    /* \"#utility.yul\":4715:4717   */\n  0x20\n    /* \"#utility.yul\":4704:4713   */\n  dup6\n    /* \"#utility.yul\":4700:4718   */\n  add\n    /* \"#utility.yul\":4687:4718   */\n  swap5\n  pop\n    /* \"#utility.yul\":4561:4565   */\n  0x20\n    /* \"#utility.yul\":4558:4559   */\n  dup2\n    /* \"#utility.yul\":4554:4566   */\n  add\n    /* \"#utility.yul\":4549:4566   */\n  swap1\n  pop\n    /* \"#utility.yul\":4524:4732   */\n  jump(tag_82)\ntag_84:\n    /* \"#utility.yul\":4760:4766   */\n  dup7\n    /* \"#utility.yul\":4751:4758   */\n  dup4\n    /* \"#utility.yul\":4748:4767   */\n  lt\n    /* \"#utility.yul\":4745:4924   */\n  iszero\n  tag_85\n  jumpi\n    /* \"#utility.yul\":4818:4827   */\n  dup5\n    /* \"#utility.yul\":4813:4816   */\n  dup10\n    /* \"#utility.yul\":4809:4828   */\n  add\n    /* \"#utility.yul\":4803:4829   */\n  mload\n    /* \"#utility.yul\":4861:4909   */\n  tag_86\n    /* \"#utility.yul\":4903:4907   */\n  0x1f\n    /* \"#utility.yul\":4895:4901   */\n  dup10\n    /* \"#utility.yul\":4891:4908   */\n  and\n    /* \"#utility.yul\":4880:4889   */\n  dup3\n    /* \"#utility.yul\":4861:4909   */\n  tag_23\n  jump\t// in\ntag_86:\n    /* \"#utility.yul\":4853:4859   */\n  dup4\n    /* \"#utility.yul\":4846:4910   */\n  sstore\n    /* \"#utility.yul\":4768:4924   */\n  pop\n    /* \"#utility.yul\":4745:4924   */\ntag_85:\n    /* \"#utility.yul\":4970:4971   */\n  0x01\n    /* \"#utility.yul\":4966:4967   */\n  0x02\n    /* \"#utility.yul\":4958:4964   */\n  dup9\n    /* \"#utility.yul\":4954:4968   */\n  mul\n    /* \"#utility.yul\":4950:4972   */\n  add\n    /* \"#utility.yul\":4944:4948   */\n  dup9\n    /* \"#utility.yul\":4937:4973   */\n  sstore\n    /* \"#utility.yul\":4372:4983   */\n  pop\n  pop\n  pop\n    /* \"#utility.yul\":4335:5222   */\ntag_77:\n  pop\n    /* \"#utility.yul\":3925:5228   */\n  pop\n  pop\n  pop\n    /* \"#utility.yul\":3833:5228   */\n  pop\n  pop\n  jump\t// out\n    /* \"06_lesson_functions/Demo.sol\":57:769  contract Demo {... */\ntag_4:\n  dataSize(sub_0)\n  dup1\n  dataOffset(sub_0)\n  0x00\n  codecopy\n  0x00\n  return\nstop\n\nsub_0: assembly {\n        /* \"06_lesson_functions/Demo.sol\":57:769  contract Demo {... */\n      mstore(0x40, 0x80)\n      jumpi(tag_1, lt(calldatasize, 0x04))\n      shr(0xe0, calldataload(0x00))\n      dup1\n      0x12065fe0\n      eq\n      tag_3\n      jumpi\n      dup1\n      0x1b9265b8\n      eq\n      tag_4\n      jumpi\n      dup1\n      0x368b8772\n      eq\n      tag_5\n      jumpi\n      dup1\n      0xb69ef8a8\n      eq\n      tag_6\n      jumpi\n      dup1\n      0xdcdecd6a\n      eq\n      tag_7\n      jumpi\n      dup1\n      0xe7ee6ad6\n      eq\n      tag_8\n      jumpi\n      jump(tag_2)\n    tag_1:\n      jumpi(tag_2, calldatasize)\n      stop\n    tag_2:\n      0x00\n      dup1\n      revert\n        /* \"06_lesson_functions/Demo.sol\":445:581  function getBalance() public view returns(uint balance) {... */\n    tag_3:\n      callvalue\n      dup1\n      iszero\n      tag_11\n      jumpi\n      0x00\n      dup1\n      revert\n    tag_11:\n      pop\n      tag_12\n      tag_13\n      jump\t// in\n    tag_12:\n      mload(0x40)\n      tag_14\n      swap2\n      swap1\n      tag_15\n      jump\t// in\n    tag_14:\n      mload(0x40)\n      dup1\n      swap2\n      sub\n      swap1\n      return\n        /* \"06_lesson_functions/Demo.sol\":261:330  function pay() external payable {... */\n    tag_4:\n      tag_16\n      tag_17\n      jump\t// in\n    tag_16:\n      stop\n        /* \"06_lesson_functions/Demo.sol\":337:427  function setMessage(string memory newMessage) public {... */\n    tag_5:\n      callvalue\n      dup1\n      iszero\n      tag_18\n      jumpi\n      0x00\n      dup1\n      revert\n    tag_18:\n      pop\n      tag_19\n      0x04\n      dup1\n      calldatasize\n      sub\n      dup2\n      add\n      swap1\n      tag_20\n      swap2\n      swap1\n      tag_21\n      jump\t// in\n    tag_20:\n      tag_22\n      jump\t// in\n    tag_19:\n      stop\n        /* \"06_lesson_functions/Demo.sol\":202:221  uint public balance */\n    tag_6:\n      callvalue\n      dup1\n      iszero\n      tag_23\n      jumpi\n      0x00\n      dup1\n      revert\n    tag_23:\n      pop\n      tag_24\n      tag_25\n      jump\t// in\n    tag_24:\n      mload(0x40)\n      tag_26\n      swap2\n      swap1\n      tag_15\n      jump\t// in\n    tag_26:\n      mload(0x40)\n      dup1\n      swap2\n      sub\n      swap1\n      return\n        /* \"06_lesson_functions/Demo.sol\":587:674  function getMesage() public view returns(string memory) {... */\n    tag_7:\n      callvalue\n      dup1\n      iszero\n      tag_27\n      jumpi\n      0x00\n      dup1\n      revert\n    tag_27:\n      pop\n      tag_28\n      tag_29\n      jump\t// in\n    tag_28:\n      mload(0x40)\n      tag_30\n      swap2\n      swap1\n      tag_31\n      jump\t// in\n    tag_30:\n      mload(0x40)\n      dup1\n      swap2\n      sub\n      swap1\n      return\n        /* \"06_lesson_functions/Demo.sol\":680:767  function rate(uint amount) public pure returns(uint) {... */\n    tag_8:\n      callvalue\n      dup1\n      iszero\n      tag_32\n      jumpi\n      0x00\n      dup1\n      revert\n    tag_32:\n      pop\n      tag_33\n      0x04\n      dup1\n      calldatasize\n      sub\n      dup2\n      add\n      swap1\n      tag_34\n      swap2\n      swap1\n      tag_35\n      jump\t// in\n    tag_34:\n      tag_36\n      jump\t// in\n    tag_33:\n      mload(0x40)\n      tag_37\n      swap2\n      swap1\n      tag_15\n      jump\t// in\n    tag_37:\n      mload(0x40)\n      dup1\n      swap2\n      sub\n      swap1\n      return\n        /* \"06_lesson_functions/Demo.sol\":445:581  function getBalance() public view returns(uint balance) {... */\n    tag_13:\n        /* \"06_lesson_functions/Demo.sol\":487:499  uint balance */\n      0x00\n        /* \"06_lesson_functions/Demo.sol\":511:523  uint balance */\n      dup1\n        /* \"06_lesson_functions/Demo.sol\":526:547  address(this).balance */\n      selfbalance\n        /* \"06_lesson_functions/Demo.sol\":511:547  uint balance = address(this).balance */\n      swap1\n      pop\n        /* \"06_lesson_functions/Demo.sol\":501:581  {... */\n      pop\n        /* \"06_lesson_functions/Demo.sol\":445:581  function getBalance() public view returns(uint balance) {... */\n      swap1\n      jump\t// out\n        /* \"06_lesson_functions/Demo.sol\":261:330  function pay() external payable {... */\n    tag_17:\n        /* \"06_lesson_functions/Demo.sol\":314:323  msg.value */\n      callvalue\n        /* \"06_lesson_functions/Demo.sol\":303:310  balance */\n      0x01\n      0x00\n        /* \"06_lesson_functions/Demo.sol\":303:323  balance += msg.value */\n      dup3\n      dup3\n      sload\n      tag_40\n      swap2\n      swap1\n      tag_41\n      jump\t// in\n    tag_40:\n      swap3\n      pop\n      pop\n      dup2\n      swap1\n      sstore\n      pop\n        /* \"06_lesson_functions/Demo.sol\":261:330  function pay() external payable {... */\n      jump\t// out\n        /* \"06_lesson_functions/Demo.sol\":337:427  function setMessage(string memory newMessage) public {... */\n    tag_22:\n        /* \"06_lesson_functions/Demo.sol\":410:420  newMessage */\n      dup1\n        /* \"06_lesson_functions/Demo.sol\":400:407  message */\n      0x00\n        /* \"06_lesson_functions/Demo.sol\":400:420  message = newMessage */\n      swap1\n      dup2\n      tag_43\n      swap2\n      swap1\n      tag_44\n      jump\t// in\n    tag_43:\n      pop\n        /* \"06_lesson_functions/Demo.sol\":337:427  function setMessage(string memory newMessage) public {... */\n      pop\n      jump\t// out\n        /* \"06_lesson_functions/Demo.sol\":202:221  uint public balance */\n    tag_25:\n      sload(0x01)\n      dup2\n      jump\t// out\n        /* \"06_lesson_functions/Demo.sol\":587:674  function getMesage() public view returns(string memory) {... */\n    tag_29:\n        /* \"06_lesson_functions/Demo.sol\":628:641  string memory */\n      0x60\n        /* \"06_lesson_functions/Demo.sol\":660:667  message */\n      0x00\n        /* \"06_lesson_functions/Demo.sol\":653:667  return message */\n      dup1\n      sload\n      tag_46\n      swap1\n      tag_47\n      jump\t// in\n    tag_46:\n      dup1\n      0x1f\n      add\n      0x20\n      dup1\n      swap2\n      div\n      mul\n      0x20\n      add\n      mload(0x40)\n      swap1\n      dup2\n      add\n      0x40\n      mstore\n      dup1\n      swap3\n      swap2\n      swap1\n      dup2\n      dup2\n      mstore\n      0x20\n      add\n      dup3\n      dup1\n      sload\n      tag_48\n      swap1\n      tag_47\n      jump\t// in\n    tag_48:\n      dup1\n      iszero\n      tag_49\n      jumpi\n      dup1\n      0x1f\n      lt\n      tag_50\n      jumpi\n      0x0100\n      dup1\n      dup4\n      sload\n      div\n      mul\n      dup4\n      mstore\n      swap2\n      0x20\n      add\n      swap2\n      jump(tag_49)\n    tag_50:\n      dup3\n      add\n      swap2\n      swap1\n      0x00\n      mstore\n      keccak256(0x00, 0x20)\n      swap1\n    tag_51:\n      dup2\n      sload\n      dup2\n      mstore\n      swap1\n      0x01\n      add\n      swap1\n      0x20\n      add\n      dup1\n      dup4\n      gt\n      tag_51\n      jumpi\n      dup3\n      swap1\n      sub\n      0x1f\n      and\n      dup3\n      add\n      swap2\n    tag_49:\n      pop\n      pop\n      pop\n      pop\n      pop\n      swap1\n      pop\n        /* \"06_lesson_functions/Demo.sol\":587:674  function getMesage() public view returns(string memory) {... */\n      swap1\n      jump\t// out\n        /* \"06_lesson_functions/Demo.sol\":680:767  function rate(uint amount) public pure returns(uint) {... */\n    tag_36:\n        /* \"06_lesson_functions/Demo.sol\":727:731  uint */\n      0x00\n        /* \"06_lesson_functions/Demo.sol\":759:760  3 */\n      0x03\n        /* \"06_lesson_functions/Demo.sol\":750:756  amount */\n      dup3\n        /* \"06_lesson_functions/Demo.sol\":750:760  amount * 3 */\n      tag_53\n      swap2\n      swap1\n      tag_54\n      jump\t// in\n    tag_53:\n        /* \"06_lesson_functions/Demo.sol\":743:760  return amount * 3 */\n      swap1\n      pop\n        /* \"06_lesson_functions/Demo.sol\":680:767  function rate(uint amount) public pure returns(uint) {... */\n      swap2\n      swap1\n      pop\n      jump\t// out\n        /* \"#utility.yul\":7:84   */\n    tag_55:\n        /* \"#utility.yul\":44:51   */\n      0x00\n        /* \"#utility.yul\":73:78   */\n      dup2\n        /* \"#utility.yul\":62:78   */\n      swap1\n      pop\n        /* \"#utility.yul\":7:84   */\n      swap2\n      swap1\n      pop\n      jump\t// out\n        /* \"#utility.yul\":90:208   */\n    tag_56:\n        /* \"#utility.yul\":177:201   */\n      tag_96\n        /* \"#utility.yul\":195:200   */\n      dup2\n        /* \"#utility.yul\":177:201   */\n      tag_55\n      jump\t// in\n    tag_96:\n        /* \"#utility.yul\":172:175   */\n      dup3\n        /* \"#utility.yul\":165:202   */\n      mstore\n        /* \"#utility.yul\":90:208   */\n      pop\n      pop\n      jump\t// out\n        /* \"#utility.yul\":214:436   */\n    tag_15:\n        /* \"#utility.yul\":307:311   */\n      0x00\n        /* \"#utility.yul\":345:347   */\n      0x20\n        /* \"#utility.yul\":334:343   */\n      dup3\n        /* \"#utility.yul\":330:348   */\n      add\n        /* \"#utility.yul\":322:348   */\n      swap1\n      pop\n        /* \"#utility.yul\":358:429   */\n      tag_98\n        /* \"#utility.yul\":426:427   */\n      0x00\n        /* \"#utility.yul\":415:424   */\n      dup4\n        /* \"#utility.yul\":411:428   */\n      add\n        /* \"#utility.yul\":402:408   */\n      dup5\n        /* \"#utility.yul\":358:429   */\n      tag_56\n      jump\t// in\n    tag_98:\n        /* \"#utility.yul\":214:436   */\n      swap3\n      swap2\n      pop\n      pop\n      jump\t// out\n        /* \"#utility.yul\":442:517   */\n    tag_57:\n        /* \"#utility.yul\":475:481   */\n      0x00\n        /* \"#utility.yul\":508:510   */\n      0x40\n        /* \"#utility.yul\":502:511   */\n      mload\n        /* \"#utility.yul\":492:511   */\n      swap1\n      pop\n        /* \"#utility.yul\":442:517   */\n      swap1\n      jump\t// out\n        /* \"#utility.yul\":523:640   */\n    tag_58:\n        /* \"#utility.yul\":632:633   */\n      0x00\n        /* \"#utility.yul\":629:630   */\n      dup1\n        /* \"#utility.yul\":622:634   */\n      revert\n        /* \"#utility.yul\":646:763   */\n    tag_59:\n        /* \"#utility.yul\":755:756   */\n      0x00\n        /* \"#utility.yul\":752:753   */\n      dup1\n        /* \"#utility.yul\":745:757   */\n      revert\n        /* \"#utility.yul\":769:886   */\n    tag_60:\n        /* \"#utility.yul\":878:879   */\n      0x00\n        /* \"#utility.yul\":875:876   */\n      dup1\n        /* \"#utility.yul\":868:880   */\n      revert\n        /* \"#utility.yul\":892:1009   */\n    tag_61:\n        /* \"#utility.yul\":1001:1002   */\n      0x00\n        /* \"#utility.yul\":998:999   */\n      dup1\n        /* \"#utility.yul\":991:1003   */\n      revert\n        /* \"#utility.yul\":1015:1117   */\n    tag_62:\n        /* \"#utility.yul\":1056:1062   */\n      0x00\n        /* \"#utility.yul\":1107:1109   */\n      0x1f\n        /* \"#utility.yul\":1103:1110   */\n      not\n        /* \"#utility.yul\":1098:1100   */\n      0x1f\n        /* \"#utility.yul\":1091:1096   */\n      dup4\n        /* \"#utility.yul\":1087:1101   */\n      add\n        /* \"#utility.yul\":1083:1111   */\n      and\n        /* \"#utility.yul\":1073:1111   */\n      swap1\n      pop\n        /* \"#utility.yul\":1015:1117   */\n      swap2\n      swap1\n      pop\n      jump\t// out\n        /* \"#utility.yul\":1123:1303   */\n    tag_63:\n        /* \"#utility.yul\":1171:1248   */\n      0x4e487b7100000000000000000000000000000000000000000000000000000000\n        /* \"#utility.yul\":1168:1169   */\n      0x00\n        /* \"#utility.yul\":1161:1249   */\n      mstore\n        /* \"#utility.yul\":1268:1272   */\n      0x41\n        /* \"#utility.yul\":1265:1266   */\n      0x04\n        /* \"#utility.yul\":1258:1273   */\n      mstore\n        /* \"#utility.yul\":1292:1296   */\n      0x24\n        /* \"#utility.yul\":1289:1290   */\n      0x00\n        /* \"#utility.yul\":1282:1297   */\n      revert\n        /* \"#utility.yul\":1309:1590   */\n    tag_64:\n        /* \"#utility.yul\":1392:1419   */\n      tag_107\n        /* \"#utility.yul\":1414:1418   */\n      dup3\n        /* \"#utility.yul\":1392:1419   */\n      tag_62\n      jump\t// in\n    tag_107:\n        /* \"#utility.yul\":1384:1390   */\n      dup2\n        /* \"#utility.yul\":1380:1420   */\n      add\n        /* \"#utility.yul\":1522:1528   */\n      dup2\n        /* \"#utility.yul\":1510:1520   */\n      dup2\n        /* \"#utility.yul\":1507:1529   */\n      lt\n        /* \"#utility.yul\":1486:1504   */\n      0xffffffffffffffff\n        /* \"#utility.yul\":1474:1484   */\n      dup3\n        /* \"#utility.yul\":1471:1505   */\n      gt\n        /* \"#utility.yul\":1468:1530   */\n      or\n        /* \"#utility.yul\":1465:1553   */\n      iszero\n      tag_108\n      jumpi\n        /* \"#utility.yul\":1533:1551   */\n      tag_109\n      tag_63\n      jump\t// in\n    tag_109:\n        /* \"#utility.yul\":1465:1553   */\n    tag_108:\n        /* \"#utility.yul\":1573:1583   */\n      dup1\n        /* \"#utility.yul\":1569:1571   */\n      0x40\n        /* \"#utility.yul\":1562:1584   */\n      mstore\n        /* \"#utility.yul\":1352:1590   */\n      pop\n        /* \"#utility.yul\":1309:1590   */\n      pop\n      pop\n      jump\t// out\n        /* \"#utility.yul\":1596:1725   */\n    tag_65:\n        /* \"#utility.yul\":1630:1636   */\n      0x00\n        /* \"#utility.yul\":1657:1677   */\n      tag_111\n      tag_57\n      jump\t// in\n    tag_111:\n        /* \"#utility.yul\":1647:1677   */\n      swap1\n      pop\n        /* \"#utility.yul\":1686:1719   */\n      tag_112\n        /* \"#utility.yul\":1714:1718   */\n      dup3\n        /* \"#utility.yul\":1706:1712   */\n      dup3\n        /* \"#utility.yul\":1686:1719   */\n      tag_64\n      jump\t// in\n    tag_112:\n        /* \"#utility.yul\":1596:1725   */\n      swap2\n      swap1\n      pop\n      jump\t// out\n        /* \"#utility.yul\":1731:2039   */\n    tag_66:\n        /* \"#utility.yul\":1793:1797   */\n      0x00\n        /* \"#utility.yul\":1883:1901   */\n      0xffffffffffffffff\n        /* \"#utility.yul\":1875:1881   */\n      dup3\n        /* \"#utility.yul\":1872:1902   */\n      gt\n        /* \"#utility.yul\":1869:1925   */\n      iszero\n      tag_114\n      jumpi\n        /* \"#utility.yul\":1905:1923   */\n      tag_115\n      tag_63\n      jump\t// in\n    tag_115:\n        /* \"#utility.yul\":1869:1925   */\n    tag_114:\n        /* \"#utility.yul\":1943:1972   */\n      tag_116\n        /* \"#utility.yul\":1965:1971   */\n      dup3\n        /* \"#utility.yul\":1943:1972   */\n      tag_62\n      jump\t// in\n    tag_116:\n        /* \"#utility.yul\":1935:1972   */\n      swap1\n      pop\n        /* \"#utility.yul\":2027:2031   */\n      0x20\n        /* \"#utility.yul\":2021:2025   */\n      dup2\n        /* \"#utility.yul\":2017:2032   */\n      add\n        /* \"#utility.yul\":2009:2032   */\n      swap1\n      pop\n        /* \"#utility.yul\":1731:2039   */\n      swap2\n      swap1\n      pop\n      jump\t// out\n        /* \"#utility.yul\":2045:2199   */\n    tag_67:\n        /* \"#utility.yul\":2129:2135   */\n      dup3\n        /* \"#utility.yul\":2124:2127   */\n      dup2\n        /* \"#utility.yul\":2119:2122   */\n      dup4\n        /* \"#utility.yul\":2106:2136   */\n      calldatacopy\n        /* \"#utility.yul\":2191:2192   */\n      0x00\n        /* \"#utility.yul\":2182:2188   */\n      dup4\n        /* \"#utility.yul\":2177:2180   */\n      dup4\n        /* \"#utility.yul\":2173:2189   */\n      add\n        /* \"#utility.yul\":2166:2193   */\n      mstore\n        /* \"#utility.yul\":2045:2199   */\n      pop\n      pop\n      pop\n      jump\t// out\n        /* \"#utility.yul\":2205:2617   */\n    tag_68:\n        /* \"#utility.yul\":2283:2288   */\n      0x00\n        /* \"#utility.yul\":2308:2374   */\n      tag_119\n        /* \"#utility.yul\":2324:2373   */\n      tag_120\n        /* \"#utility.yul\":2366:2372   */\n      dup5\n        /* \"#utility.yul\":2324:2373   */\n      tag_66\n      jump\t// in\n    tag_120:\n        /* \"#utility.yul\":2308:2374   */\n      tag_65\n      jump\t// in\n    tag_119:\n        /* \"#utility.yul\":2299:2374   */\n      swap1\n      pop\n        /* \"#utility.yul\":2397:2403   */\n      dup3\n        /* \"#utility.yul\":2390:2395   */\n      dup2\n        /* \"#utility.yul\":2383:2404   */\n      mstore\n        /* \"#utility.yul\":2435:2439   */\n      0x20\n        /* \"#utility.yul\":2428:2433   */\n      dup2\n        /* \"#utility.yul\":2424:2440   */\n      add\n        /* \"#utility.yul\":2473:2476   */\n      dup5\n        /* \"#utility.yul\":2464:2470   */\n      dup5\n        /* \"#utility.yul\":2459:2462   */\n      dup5\n        /* \"#utility.yul\":2455:2471   */\n      add\n        /* \"#utility.yul\":2452:2477   */\n      gt\n        /* \"#utility.yul\":2449:2561   */\n      iszero\n      tag_121\n      jumpi\n        /* \"#utility.yul\":2480:2559   */\n      tag_122\n      tag_61\n      jump\t// in\n    tag_122:\n        /* \"#utility.yul\":2449:2561   */\n    tag_121:\n        /* \"#utility.yul\":2570:2611   */\n      tag_123\n        /* \"#utility.yul\":2604:2610   */\n      dup5\n        /* \"#utility.yul\":2599:2602   */\n      dup3\n        /* \"#utility.yul\":2594:2597   */\n      dup6\n        /* \"#utility.yul\":2570:2611   */\n      tag_67\n      jump\t// in\n    tag_123:\n        /* \"#utility.yul\":2289:2617   */\n      pop\n        /* \"#utility.yul\":2205:2617   */\n      swap4\n      swap3\n      pop\n      pop\n      pop\n      jump\t// out\n        /* \"#utility.yul\":2637:2977   */\n    tag_69:\n        /* \"#utility.yul\":2693:2698   */\n      0x00\n        /* \"#utility.yul\":2742:2745   */\n      dup3\n        /* \"#utility.yul\":2735:2739   */\n      0x1f\n        /* \"#utility.yul\":2727:2733   */\n      dup4\n        /* \"#utility.yul\":2723:2740   */\n      add\n        /* \"#utility.yul\":2719:2746   */\n      slt\n        /* \"#utility.yul\":2709:2831   */\n      tag_125\n      jumpi\n        /* \"#utility.yul\":2750:2829   */\n      tag_126\n      tag_60\n      jump\t// in\n    tag_126:\n        /* \"#utility.yul\":2709:2831   */\n    tag_125:\n        /* \"#utility.yul\":2867:2873   */\n      dup2\n        /* \"#utility.yul\":2854:2874   */\n      calldataload\n        /* \"#utility.yul\":2892:2971   */\n      tag_127\n        /* \"#utility.yul\":2967:2970   */\n      dup5\n        /* \"#utility.yul\":2959:2965   */\n      dup3\n        /* \"#utility.yul\":2952:2956   */\n      0x20\n        /* \"#utility.yul\":2944:2950   */\n      dup7\n        /* \"#utility.yul\":2940:2957   */\n      add\n        /* \"#utility.yul\":2892:2971   */\n      tag_68\n      jump\t// in\n    tag_127:\n        /* \"#utility.yul\":2883:2971   */\n      swap2\n      pop\n        /* \"#utility.yul\":2699:2977   */\n      pop\n        /* \"#utility.yul\":2637:2977   */\n      swap3\n      swap2\n      pop\n      pop\n      jump\t// out\n        /* \"#utility.yul\":2983:3492   */\n    tag_21:\n        /* \"#utility.yul\":3052:3058   */\n      0x00\n        /* \"#utility.yul\":3101:3103   */\n      0x20\n        /* \"#utility.yul\":3089:3098   */\n      dup3\n        /* \"#utility.yul\":3080:3087   */\n      dup5\n        /* \"#utility.yul\":3076:3099   */\n      sub\n        /* \"#utility.yul\":3072:3104   */\n      slt\n        /* \"#utility.yul\":3069:3188   */\n      iszero\n      tag_129\n      jumpi\n        /* \"#utility.yul\":3107:3186   */\n      tag_130\n      tag_58\n      jump\t// in\n    tag_130:\n        /* \"#utility.yul\":3069:3188   */\n    tag_129:\n        /* \"#utility.yul\":3255:3256   */\n      0x00\n        /* \"#utility.yul\":3244:3253   */\n      dup3\n        /* \"#utility.yul\":3240:3257   */\n      add\n        /* \"#utility.yul\":3227:3258   */\n      calldataload\n        /* \"#utility.yul\":3285:3303   */\n      0xffffffffffffffff\n        /* \"#utility.yul\":3277:3283   */\n      dup2\n        /* \"#utility.yul\":3274:3304   */\n      gt\n        /* \"#utility.yul\":3271:3388   */\n      iszero\n      tag_131\n      jumpi\n        /* \"#utility.yul\":3307:3386   */\n      tag_132\n      tag_59\n      jump\t// in\n    tag_132:\n        /* \"#utility.yul\":3271:3388   */\n    tag_131:\n        /* \"#utility.yul\":3412:3475   */\n      tag_133\n        /* \"#utility.yul\":3467:3474   */\n      dup5\n        /* \"#utility.yul\":3458:3464   */\n      dup3\n        /* \"#utility.yul\":3447:3456   */\n      dup6\n        /* \"#utility.yul\":3443:3465   */\n      add\n        /* \"#utility.yul\":3412:3475   */\n      tag_69\n      jump\t// in\n    tag_133:\n        /* \"#utility.yul\":3402:3475   */\n      swap2\n      pop\n        /* \"#utility.yul\":3198:3485   */\n      pop\n        /* \"#utility.yul\":2983:3492   */\n      swap3\n      swap2\n      pop\n      pop\n      jump\t// out\n        /* \"#utility.yul\":3498:3597   */\n    tag_70:\n        /* \"#utility.yul\":3550:3556   */\n      0x00\n        /* \"#utility.yul\":3584:3589   */\n      dup2\n        /* \"#utility.yul\":3578:3590   */\n      mload\n        /* \"#utility.yul\":3568:3590   */\n      swap1\n      pop\n        /* \"#utility.yul\":3498:3597   */\n      swap2\n      swap1\n      pop\n      jump\t// out\n        /* \"#utility.yul\":3603:3772   */\n    tag_71:\n        /* \"#utility.yul\":3687:3698   */\n      0x00\n        /* \"#utility.yul\":3721:3727   */\n      dup3\n        /* \"#utility.yul\":3716:3719   */\n      dup3\n        /* \"#utility.yul\":3709:3728   */\n      mstore\n        /* \"#utility.yul\":3761:3765   */\n      0x20\n        /* \"#utility.yul\":3756:3759   */\n      dup3\n        /* \"#utility.yul\":3752:3766   */\n      add\n        /* \"#utility.yul\":3737:3766   */\n      swap1\n      pop\n        /* \"#utility.yul\":3603:3772   */\n      swap3\n      swap2\n      pop\n      pop\n      jump\t// out\n        /* \"#utility.yul\":3778:4085   */\n    tag_72:\n        /* \"#utility.yul\":3846:3847   */\n      0x00\n        /* \"#utility.yul\":3856:3969   */\n    tag_137:\n        /* \"#utility.yul\":3870:3876   */\n      dup4\n        /* \"#utility.yul\":3867:3868   */\n      dup2\n        /* \"#utility.yul\":3864:3877   */\n      lt\n        /* \"#utility.yul\":3856:3969   */\n      iszero\n      tag_139\n      jumpi\n        /* \"#utility.yul\":3955:3956   */\n      dup1\n        /* \"#utility.yul\":3950:3953   */\n      dup3\n        /* \"#utility.yul\":3946:3957   */\n      add\n        /* \"#utility.yul\":3940:3958   */\n      mload\n        /* \"#utility.yul\":3936:3937   */\n      dup2\n        /* \"#utility.yul\":3931:3934   */\n      dup5\n        /* \"#utility.yul\":3927:3938   */\n      add\n        /* \"#utility.yul\":3920:3959   */\n      mstore\n        /* \"#utility.yul\":3892:3894   */\n      0x20\n        /* \"#utility.yul\":3889:3890   */\n      dup2\n        /* \"#utility.yul\":3885:3895   */\n      add\n        /* \"#utility.yul\":3880:3895   */\n      swap1\n      pop\n        /* \"#utility.yul\":3856:3969   */\n      jump(tag_137)\n    tag_139:\n        /* \"#utility.yul\":3987:3993   */\n      dup4\n        /* \"#utility.yul\":3984:3985   */\n      dup2\n        /* \"#utility.yul\":3981:3994   */\n      gt\n        /* \"#utility.yul\":3978:4079   */\n      iszero\n      tag_140\n      jumpi\n        /* \"#utility.yul\":4067:4068   */\n      0x00\n        /* \"#utility.yul\":4058:4064   */\n      dup5\n        /* \"#utility.yul\":4053:4056   */\n      dup5\n        /* \"#utility.yul\":4049:4065   */\n      add\n        /* \"#utility.yul\":4042:4069   */\n      mstore\n        /* \"#utility.yul\":3978:4079   */\n    tag_140:\n        /* \"#utility.yul\":3827:4085   */\n      pop\n        /* \"#utility.yul\":3778:4085   */\n      pop\n      pop\n      pop\n      jump\t// out\n        /* \"#utility.yul\":4091:4455   */\n    tag_73:\n        /* \"#utility.yul\":4179:4182   */\n      0x00\n        /* \"#utility.yul\":4207:4246   */\n      tag_142\n        /* \"#utility.yul\":4240:4245   */\n      dup3\n        /* \"#utility.yul\":4207:4246   */\n      tag_70\n      jump\t// in\n    tag_142:\n        /* \"#utility.yul\":4262:4333   */\n      tag_143\n        /* \"#utility.yul\":4326:4332   */\n      dup2\n        /* \"#utility.yul\":4321:4324   */\n      dup6\n        /* \"#utility.yul\":4262:4333   */\n      tag_71\n      jump\t// in\n    tag_143:\n        /* \"#utility.yul\":4255:4333   */\n      swap4\n      pop\n        /* \"#utility.yul\":4342:4394   */\n      tag_144\n        /* \"#utility.yul\":4387:4393   */\n      dup2\n        /* \"#utility.yul\":4382:4385   */\n      dup6\n        /* \"#utility.yul\":4375:4379   */\n      0x20\n        /* \"#utility.yul\":4368:4373   */\n      dup7\n        /* \"#utility.yul\":4364:4380   */\n      add\n        /* \"#utility.yul\":4342:4394   */\n      tag_72\n      jump\t// in\n    tag_144:\n        /* \"#utility.yul\":4419:4448   */\n      tag_145\n        /* \"#utility.yul\":4441:4447   */\n      dup2\n        /* \"#utility.yul\":4419:4448   */\n      tag_62\n      jump\t// in\n    tag_145:\n        /* \"#utility.yul\":4414:4417   */\n      dup5\n        /* \"#utility.yul\":4410:4449   */\n      add\n        /* \"#utility.yul\":4403:4449   */\n      swap2\n      pop\n        /* \"#utility.yul\":4183:4455   */\n      pop\n        /* \"#utility.yul\":4091:4455   */\n      swap3\n      swap2\n      pop\n      pop\n      jump\t// out\n        /* \"#utility.yul\":4461:4774   */\n    tag_31:\n        /* \"#utility.yul\":4574:4578   */\n      0x00\n        /* \"#utility.yul\":4612:4614   */\n      0x20\n        /* \"#utility.yul\":4601:4610   */\n      dup3\n        /* \"#utility.yul\":4597:4615   */\n      add\n        /* \"#utility.yul\":4589:4615   */\n      swap1\n      pop\n        /* \"#utility.yul\":4661:4670   */\n      dup2\n        /* \"#utility.yul\":4655:4659   */\n      dup2\n        /* \"#utility.yul\":4651:4671   */\n      sub\n        /* \"#utility.yul\":4647:4648   */\n      0x00\n        /* \"#utility.yul\":4636:4645   */\n      dup4\n        /* \"#utility.yul\":4632:4649   */\n      add\n        /* \"#utility.yul\":4625:4672   */\n      mstore\n        /* \"#utility.yul\":4689:4767   */\n      tag_147\n        /* \"#utility.yul\":4762:4766   */\n      dup2\n        /* \"#utility.yul\":4753:4759   */\n      dup5\n        /* \"#utility.yul\":4689:4767   */\n      tag_73\n      jump\t// in\n    tag_147:\n        /* \"#utility.yul\":4681:4767   */\n      swap1\n      pop\n        /* \"#utility.yul\":4461:4774   */\n      swap3\n      swap2\n      pop\n      pop\n      jump\t// out\n        /* \"#utility.yul\":4780:4902   */\n    tag_74:\n        /* \"#utility.yul\":4853:4877   */\n      tag_149\n        /* \"#utility.yul\":4871:4876   */\n      dup2\n        /* \"#utility.yul\":4853:4877   */\n      tag_55\n      jump\t// in\n    tag_149:\n        /* \"#utility.yul\":4846:4851   */\n      dup2\n        /* \"#utility.yul\":4843:4878   */\n      eq\n        /* \"#utility.yul\":4833:4896   */\n      tag_150\n      jumpi\n        /* \"#utility.yul\":4892:4893   */\n      0x00\n        /* \"#utility.yul\":4889:4890   */\n      dup1\n        /* \"#utility.yul\":4882:4894   */\n      revert\n        /* \"#utility.yul\":4833:4896   */\n    tag_150:\n        /* \"#utility.yul\":4780:4902   */\n      pop\n      jump\t// out\n        /* \"#utility.yul\":4908:5047   */\n    tag_75:\n        /* \"#utility.yul\":4954:4959   */\n      0x00\n        /* \"#utility.yul\":4992:4998   */\n      dup2\n        /* \"#utility.yul\":4979:4999   */\n      calldataload\n        /* \"#utility.yul\":4970:4999   */\n      swap1\n      pop\n        /* \"#utility.yul\":5008:5041   */\n      tag_152\n        /* \"#utility.yul\":5035:5040   */\n      dup2\n        /* \"#utility.yul\":5008:5041   */\n      tag_74\n      jump\t// in\n    tag_152:\n        /* \"#utility.yul\":4908:5047   */\n      swap3\n      swap2\n      pop\n      pop\n      jump\t// out\n        /* \"#utility.yul\":5053:5382   */\n    tag_35:\n        /* \"#utility.yul\":5112:5118   */\n      0x00\n        /* \"#utility.yul\":5161:5163   */\n      0x20\n        /* \"#utility.yul\":5149:5158   */\n      dup3\n        /* \"#utility.yul\":5140:5147   */\n      dup5\n        /* \"#utility.yul\":5136:5159   */\n      sub\n        /* \"#utility.yul\":5132:5164   */\n      slt\n        /* \"#utility.yul\":5129:5248   */\n      iszero\n      tag_154\n      jumpi\n        /* \"#utility.yul\":5167:5246   */\n      tag_155\n      tag_58\n      jump\t// in\n    tag_155:\n        /* \"#utility.yul\":5129:5248   */\n    tag_154:\n        /* \"#utility.yul\":5287:5288   */\n      0x00\n        /* \"#utility.yul\":5312:5365   */\n      tag_156\n        /* \"#utility.yul\":5357:5364   */\n      dup5\n        /* \"#utility.yul\":5348:5354   */\n      dup3\n        /* \"#utility.yul\":5337:5346   */\n      dup6\n        /* \"#utility.yul\":5333:5355   */\n      add\n        /* \"#utility.yul\":5312:5365   */\n      tag_75\n      jump\t// in\n    tag_156:\n        /* \"#utility.yul\":5302:5365   */\n      swap2\n      pop\n        /* \"#utility.yul\":5258:5375   */\n      pop\n        /* \"#utility.yul\":5053:5382   */\n      swap3\n      swap2\n      pop\n      pop\n      jump\t// out\n        /* \"#utility.yul\":5388:5568   */\n    tag_76:\n        /* \"#utility.yul\":5436:5513   */\n      0x4e487b7100000000000000000000000000000000000000000000000000000000\n        /* \"#utility.yul\":5433:5434   */\n      0x00\n        /* \"#utility.yul\":5426:5514   */\n      mstore\n        /* \"#utility.yul\":5533:5537   */\n      0x11\n        /* \"#utility.yul\":5530:5531   */\n      0x04\n        /* \"#utility.yul\":5523:5538   */\n      mstore\n        /* \"#utility.yul\":5557:5561   */\n      0x24\n        /* \"#utility.yul\":5554:5555   */\n      0x00\n        /* \"#utility.yul\":5547:5562   */\n      revert\n        /* \"#utility.yul\":5574:5879   */\n    tag_41:\n        /* \"#utility.yul\":5614:5617   */\n      0x00\n        /* \"#utility.yul\":5633:5653   */\n      tag_159\n        /* \"#utility.yul\":5651:5652   */\n      dup3\n        /* \"#utility.yul\":5633:5653   */\n      tag_55\n      jump\t// in\n    tag_159:\n        /* \"#utility.yul\":5628:5653   */\n      swap2\n      pop\n        /* \"#utility.yul\":5667:5687   */\n      tag_160\n        /* \"#utility.yul\":5685:5686   */\n      dup4\n        /* \"#utility.yul\":5667:5687   */\n      tag_55\n      jump\t// in\n    tag_160:\n        /* \"#utility.yul\":5662:5687   */\n      swap3\n      pop\n        /* \"#utility.yul\":5821:5822   */\n      dup3\n        /* \"#utility.yul\":5753:5819   */\n      0xffffffffffffffffffffffffffffffffffffffffffffffffffffffffffffffff\n        /* \"#utility.yul\":5749:5823   */\n      sub\n        /* \"#utility.yul\":5746:5747   */\n      dup3\n        /* \"#utility.yul\":5743:5824   */\n      gt\n        /* \"#utility.yul\":5740:5847   */\n      iszero\n      tag_161\n      jumpi\n        /* \"#utility.yul\":5827:5845   */\n      tag_162\n      tag_76\n      jump\t// in\n    tag_162:\n        /* \"#utility.yul\":5740:5847   */\n    tag_161:\n        /* \"#utility.yul\":5871:5872   */\n      dup3\n        /* \"#utility.yul\":5868:5869   */\n      dup3\n        /* \"#utility.yul\":5864:5873   */\n      add\n        /* \"#utility.yul\":5857:5873   */\n      swap1\n      pop\n        /* \"#utility.yul\":5574:5879   */\n      swap3\n      swap2\n      pop\n      pop\n      jump\t// out\n        /* \"#utility.yul\":5885:6065   */\n    tag_77:\n        /* \"#utility.yul\":5933:6010   */\n      0x4e487b7100000000000000000000000000000000000000000000000000000000\n        /* \"#utility.yul\":5930:5931   */\n      0x00\n        /* \"#utility.yul\":5923:6011   */\n      mstore\n        /* \"#utility.yul\":6030:6034   */\n      0x22\n        /* \"#utility.yul\":6027:6028   */\n      0x04\n        /* \"#utility.yul\":6020:6035   */\n      mstore\n        /* \"#utility.yul\":6054:6058   */\n      0x24\n        /* \"#utility.yul\":6051:6052   */\n      0x00\n        /* \"#utility.yul\":6044:6059   */\n      revert\n        /* \"#utility.yul\":6071:6391   */\n    tag_47:\n        /* \"#utility.yul\":6115:6121   */\n      0x00\n        /* \"#utility.yul\":6152:6153   */\n      0x02\n        /* \"#utility.yul\":6146:6150   */\n      dup3\n        /* \"#utility.yul\":6142:6154   */\n      div\n        /* \"#utility.yul\":6132:6154   */\n      swap1\n      pop\n        /* \"#utility.yul\":6199:6200   */\n      0x01\n        /* \"#utility.yul\":6193:6197   */\n      dup3\n        /* \"#utility.yul\":6189:6201   */\n      and\n        /* \"#utility.yul\":6220:6238   */\n      dup1\n        /* \"#utility.yul\":6210:6291   */\n      tag_165\n      jumpi\n        /* \"#utility.yul\":6276:6280   */\n      0x7f\n        /* \"#utility.yul\":6268:6274   */\n      dup3\n        /* \"#utility.yul\":6264:6281   */\n      and\n        /* \"#utility.yul\":6254:6281   */\n      swap2\n      pop\n        /* \"#utility.yul\":6210:6291   */\n    tag_165:\n        /* \"#utility.yul\":6338:6340   */\n      0x20\n        /* \"#utility.yul\":6330:6336   */\n      dup3\n        /* \"#utility.yul\":6327:6341   */\n      lt\n        /* \"#utility.yul\":6307:6325   */\n      dup2\n        /* \"#utility.yul\":6304:6342   */\n      sub\n        /* \"#utility.yul\":6301:6385   */\n      tag_166\n      jumpi\n        /* \"#utility.yul\":6357:6375   */\n      tag_167\n      tag_77\n      jump\t// in\n    tag_167:\n        /* \"#utility.yul\":6301:6385   */\n    tag_166:\n        /* \"#utility.yul\":6122:6391   */\n      pop\n        /* \"#utility.yul\":6071:6391   */\n      swap2\n      swap1\n      pop\n      jump\t// out\n        /* \"#utility.yul\":6397:6538   */\n    tag_78:\n        /* \"#utility.yul\":6446:6450   */\n      0x00\n        /* \"#utility.yul\":6469:6472   */\n      dup2\n        /* \"#utility.yul\":6461:6472   */\n      swap1\n      pop\n        /* \"#utility.yul\":6492:6495   */\n      dup2\n        /* \"#utility.yul\":6489:6490   */\n      0x00\n        /* \"#utility.yul\":6482:6496   */\n      mstore\n        /* \"#utility.yul\":6526:6530   */\n      0x20\n        /* \"#utility.yul\":6523:6524   */\n      0x00\n        /* \"#utility.yul\":6513:6531   */\n      keccak256\n        /* \"#utility.yul\":6505:6531   */\n      swap1\n      pop\n        /* \"#utility.yul\":6397:6538   */\n      swap2\n      swap1\n      pop\n      jump\t// out\n        /* \"#utility.yul\":6544:6637   */\n    tag_79:\n        /* \"#utility.yul\":6581:6587   */\n      0x00\n        /* \"#utility.yul\":6628:6630   */\n      0x20\n        /* \"#utility.yul\":6623:6625   */\n      0x1f\n        /* \"#utility.yul\":6616:6621   */\n      dup4\n        /* \"#utility.yul\":6612:6626   */\n      add\n        /* \"#utility.yul\":6608:6631   */\n      div\n        /* \"#utility.yul\":6598:6631   */\n      swap1\n      pop\n        /* \"#utility.yul\":6544:6637   */\n      swap2\n      swap1\n      pop\n      jump\t// out\n        /* \"#utility.yul\":6643:6750   */\n    tag_80:\n        /* \"#utility.yul\":6687:6695   */\n      0x00\n        /* \"#utility.yul\":6737:6742   */\n      dup3\n        /* \"#utility.yul\":6731:6735   */\n      dup3\n        /* \"#utility.yul\":6727:6743   */\n      shl\n        /* \"#utility.yul\":6706:6743   */\n      swap1\n      pop\n        /* \"#utility.yul\":6643:6750   */\n      swap3\n      swap2\n      pop\n      pop\n      jump\t// out\n        /* \"#utility.yul\":6756:7149   */\n    tag_81:\n        /* \"#utility.yul\":6825:6831   */\n      0x00\n        /* \"#utility.yul\":6875:6876   */\n      0x08\n        /* \"#utility.yul\":6863:6873   */\n      dup4\n        /* \"#utility.yul\":6859:6877   */\n      mul\n        /* \"#utility.yul\":6898:6995   */\n      tag_172\n        /* \"#utility.yul\":6928:6994   */\n      0xffffffffffffffffffffffffffffffffffffffffffffffffffffffffffffffff\n        /* \"#utility.yul\":6917:6926   */\n      dup3\n        /* \"#utility.yul\":6898:6995   */\n      tag_80\n      jump\t// in\n    tag_172:\n        /* \"#utility.yul\":7016:7055   */\n      tag_173\n        /* \"#utility.yul\":7046:7054   */\n      dup7\n        /* \"#utility.yul\":7035:7044   */\n      dup4\n        /* \"#utility.yul\":7016:7055   */\n      tag_80\n      jump\t// in\n    tag_173:\n        /* \"#utility.yul\":7004:7055   */\n      swap6\n      pop\n        /* \"#utility.yul\":7088:7092   */\n      dup1\n        /* \"#utility.yul\":7084:7093   */\n      not\n        /* \"#utility.yul\":7077:7082   */\n      dup5\n        /* \"#utility.yul\":7073:7094   */\n      and\n        /* \"#utility.yul\":7064:7094   */\n      swap4\n      pop\n        /* \"#utility.yul\":7137:7141   */\n      dup1\n        /* \"#utility.yul\":7127:7135   */\n      dup7\n        /* \"#utility.yul\":7123:7142   */\n      and\n        /* \"#utility.yul\":7116:7121   */\n      dup5\n        /* \"#utility.yul\":7113:7143   */\n      or\n        /* \"#utility.yul\":7103:7143   */\n      swap3\n      pop\n        /* \"#utility.yul\":6832:7149   */\n      pop\n      pop\n        /* \"#utility.yul\":6756:7149   */\n      swap4\n      swap3\n      pop\n      pop\n      pop\n      jump\t// out\n        /* \"#utility.yul\":7155:7215   */\n    tag_82:\n        /* \"#utility.yul\":7183:7186   */\n      0x00\n        /* \"#utility.yul\":7204:7209   */\n      dup2\n        /* \"#utility.yul\":7197:7209   */\n      swap1\n      pop\n        /* \"#utility.yul\":7155:7215   */\n      swap2\n      swap1\n      pop\n      jump\t// out\n        /* \"#utility.yul\":7221:7363   */\n    tag_83:\n        /* \"#utility.yul\":7271:7280   */\n      0x00\n        /* \"#utility.yul\":7304:7357   */\n      tag_176\n        /* \"#utility.yul\":7322:7356   */\n      tag_177\n        /* \"#utility.yul\":7331:7355   */\n      tag_178\n        /* \"#utility.yul\":7349:7354   */\n      dup5\n        /* \"#utility.yul\":7331:7355   */\n      tag_55\n      jump\t// in\n    tag_178:\n        /* \"#utility.yul\":7322:7356   */\n      tag_82\n      jump\t// in\n    tag_177:\n        /* \"#utility.yul\":7304:7357   */\n      tag_55\n      jump\t// in\n    tag_176:\n        /* \"#utility.yul\":7291:7357   */\n      swap1\n      pop\n        /* \"#utility.yul\":7221:7363   */\n      swap2\n      swap1\n      pop\n      jump\t// out\n        /* \"#utility.yul\":7369:7444   */\n    tag_84:\n        /* \"#utility.yul\":7412:7415   */\n      0x00\n        /* \"#utility.yul\":7433:7438   */\n      dup2\n        /* \"#utility.yul\":7426:7438   */\n      swap1\n      pop\n        /* \"#utility.yul\":7369:7444   */\n      swap2\n      swap1\n      pop\n      jump\t// out\n        /* \"#utility.yul\":7450:7719   */\n    tag_85:\n        /* \"#utility.yul\":7560:7599   */\n      tag_181\n        /* \"#utility.yul\":7591:7598   */\n      dup4\n        /* \"#utility.yul\":7560:7599   */\n      tag_83\n      jump\t// in\n    tag_181:\n        /* \"#utility.yul\":7621:7712   */\n      tag_182\n        /* \"#utility.yul\":7670:7711   */\n      tag_183\n        /* \"#utility.yul\":7694:7710   */\n      dup3\n        /* \"#utility.yul\":7670:7711   */\n      tag_84\n      jump\t// in\n    tag_183:\n        /* \"#utility.yul\":7662:7668   */\n      dup5\n        /* \"#utility.yul\":7655:7659   */\n      dup5\n        /* \"#utility.yul\":7649:7660   */\n      sload\n        /* \"#utility.yul\":7621:7712   */\n      tag_81\n      jump\t// in\n    tag_182:\n        /* \"#utility.yul\":7615:7619   */\n      dup3\n        /* \"#utility.yul\":7608:7713   */\n      sstore\n        /* \"#utility.yul\":7526:7719   */\n      pop\n        /* \"#utility.yul\":7450:7719   */\n      pop\n      pop\n      pop\n      jump\t// out\n        /* \"#utility.yul\":7725:7798   */\n    tag_86:\n        /* \"#utility.yul\":7770:7773   */\n      0x00\n        /* \"#utility.yul\":7725:7798   */\n      swap1\n      jump\t// out\n        /* \"#utility.yul\":7804:7993   */\n    tag_87:\n        /* \"#utility.yul\":7881:7913   */\n      tag_186\n      tag_86\n      jump\t// in\n    tag_186:\n        /* \"#utility.yul\":7922:7987   */\n      tag_187\n        /* \"#utility.yul\":7980:7986   */\n      dup2\n        /* \"#utility.yul\":7972:7978   */\n      dup5\n        /* \"#utility.yul\":7966:7970   */\n      dup5\n        /* \"#utility.yul\":7922:7987   */\n      tag_85\n      jump\t// in\n    tag_187:\n        /* \"#utility.yul\":7857:7993   */\n      pop\n        /* \"#utility.yul\":7804:7993   */\n      pop\n      pop\n      jump\t// out\n        /* \"#utility.yul\":7999:8185   */\n    tag_88:\n        /* \"#utility.yul\":8059:8179   */\n    tag_189:\n        /* \"#utility.yul\":8076:8079   */\n      dup2\n        /* \"#utility.yul\":8069:8074   */\n      dup2\n        /* \"#utility.yul\":8066:8080   */\n      lt\n        /* \"#utility.yul\":8059:8179   */\n      iszero\n      tag_191\n      jumpi\n        /* \"#utility.yul\":8130:8169   */\n      tag_192\n        /* \"#utility.yul\":8167:8168   */\n      0x00\n        /* \"#utility.yul\":8160:8165   */\n      dup3\n        /* \"#utility.yul\":8130:8169   */\n      tag_87\n      jump\t// in\n    tag_192:\n        /* \"#utility.yul\":8103:8104   */\n      0x01\n        /* \"#utility.yul\":8096:8101   */\n      dup2\n        /* \"#utility.yul\":8092:8105   */\n      add\n        /* \"#utility.yul\":8083:8105   */\n      swap1\n      pop\n        /* \"#utility.yul\":8059:8179   */\n      jump(tag_189)\n    tag_191:\n        /* \"#utility.yul\":7999:8185   */\n      pop\n      pop\n      jump\t// out\n        /* \"#utility.yul\":8191:8734   */\n    tag_89:\n        /* \"#utility.yul\":8292:8294   */\n      0x1f\n        /* \"#utility.yul\":8287:8290   */\n      dup3\n        /* \"#utility.yul\":8284:8295   */\n      gt\n        /* \"#utility.yul\":8281:8727   */\n      iszero\n      tag_194\n      jumpi\n        /* \"#utility.yul\":8326:8364   */\n      tag_195\n        /* \"#utility.yul\":8358:8363   */\n      dup2\n        /* \"#utility.yul\":8326:8364   */\n      tag_78\n      jump\t// in\n    tag_195:\n        /* \"#utility.yul\":8410:8439   */\n      tag_196\n        /* \"#utility.yul\":8428:8438   */\n      dup5\n        /* \"#utility.yul\":8410:8439   */\n      tag_79\n      jump\t// in\n    tag_196:\n        /* \"#utility.yul\":8400:8408   */\n      dup2\n        /* \"#utility.yul\":8396:8440   */\n      add\n        /* \"#utility.yul\":8593:8595   */\n      0x20\n        /* \"#utility.yul\":8581:8591   */\n      dup6\n        /* \"#utility.yul\":8578:8596   */\n      lt\n        /* \"#utility.yul\":8575:8624   */\n      iszero\n      tag_197\n      jumpi\n        /* \"#utility.yul\":8614:8622   */\n      dup2\n        /* \"#utility.yul\":8599:8622   */\n      swap1\n      pop\n        /* \"#utility.yul\":8575:8624   */\n    tag_197:\n        /* \"#utility.yul\":8637:8717   */\n      tag_198\n        /* \"#utility.yul\":8693:8715   */\n      tag_199\n        /* \"#utility.yul\":8711:8714   */\n      dup6\n        /* \"#utility.yul\":8693:8715   */\n      tag_79\n      jump\t// in\n    tag_199:\n        /* \"#utility.yul\":8683:8691   */\n      dup4\n        /* \"#utility.yul\":8679:8716   */\n      add\n        /* \"#utility.yul\":8666:8677   */\n      dup3\n        /* \"#utility.yul\":8637:8717   */\n      tag_88\n      jump\t// in\n    tag_198:\n        /* \"#utility.yul\":8296:8727   */\n      pop\n      pop\n        /* \"#utility.yul\":8281:8727   */\n    tag_194:\n        /* \"#utility.yul\":8191:8734   */\n      pop\n      pop\n      pop\n      jump\t// out\n        /* \"#utility.yul\":8740:8857   */\n    tag_90:\n        /* \"#utility.yul\":8794:8802   */\n      0x00\n        /* \"#utility.yul\":8844:8849   */\n      dup3\n        /* \"#utility.yul\":8838:8842   */\n      dup3\n        /* \"#utility.yul\":8834:8850   */\n      shr\n        /* \"#utility.yul\":8813:8850   */\n      swap1\n      pop\n        /* \"#utility.yul\":8740:8857   */\n      swap3\n      swap2\n      pop\n      pop\n      jump\t// out\n        /* \"#utility.yul\":8863:9032   */\n    tag_91:\n        /* \"#utility.yul\":8907:8913   */\n      0x00\n        /* \"#utility.yul\":8940:8991   */\n      tag_202\n        /* \"#utility.yul\":8988:8989   */\n      0x00\n        /* \"#utility.yul\":8984:8990   */\n      not\n        /* \"#utility.yul\":8976:8981   */\n      dup5\n        /* \"#utility.yul\":8973:8974   */\n      0x08\n        /* \"#utility.yul\":8969:8982   */\n      mul\n        /* \"#utility.yul\":8940:8991   */\n      tag_90\n      jump\t// in\n    tag_202:\n        /* \"#utility.yul\":8936:8992   */\n      not\n        /* \"#utility.yul\":9021:9025   */\n      dup1\n        /* \"#utility.yul\":9015:9019   */\n      dup4\n        /* \"#utility.yul\":9011:9026   */\n      and\n        /* \"#utility.yul\":9001:9026   */\n      swap2\n      pop\n        /* \"#utility.yul\":8914:9032   */\n      pop\n        /* \"#utility.yul\":8863:9032   */\n      swap3\n      swap2\n      pop\n      pop\n      jump\t// out\n        /* \"#utility.yul\":9037:9332   */\n    tag_92:\n        /* \"#utility.yul\":9113:9117   */\n      0x00\n        /* \"#utility.yul\":9259:9288   */\n      tag_204\n        /* \"#utility.yul\":9284:9287   */\n      dup4\n        /* \"#utility.yul\":9278:9282   */\n      dup4\n        /* \"#utility.yul\":9259:9288   */\n      tag_91\n      jump\t// in\n    tag_204:\n        /* \"#utility.yul\":9251:9288   */\n      swap2\n      pop\n        /* \"#utility.yul\":9321:9324   */\n      dup3\n        /* \"#utility.yul\":9318:9319   */\n      0x02\n        /* \"#utility.yul\":9314:9325   */\n      mul\n        /* \"#utility.yul\":9308:9312   */\n      dup3\n        /* \"#utility.yul\":9305:9326   */\n      or\n        /* \"#utility.yul\":9297:9326   */\n      swap1\n      pop\n        /* \"#utility.yul\":9037:9332   */\n      swap3\n      swap2\n      pop\n      pop\n      jump\t// out\n        /* \"#utility.yul\":9337:10732   */\n    tag_44:\n        /* \"#utility.yul\":9454:9491   */\n      tag_206\n        /* \"#utility.yul\":9487:9490   */\n      dup3\n        /* \"#utility.yul\":9454:9491   */\n      tag_70\n      jump\t// in\n    tag_206:\n        /* \"#utility.yul\":9556:9574   */\n      0xffffffffffffffff\n        /* \"#utility.yul\":9548:9554   */\n      dup2\n        /* \"#utility.yul\":9545:9575   */\n      gt\n        /* \"#utility.yul\":9542:9598   */\n      iszero\n      tag_207\n      jumpi\n        /* \"#utility.yul\":9578:9596   */\n      tag_208\n      tag_63\n      jump\t// in\n    tag_208:\n        /* \"#utility.yul\":9542:9598   */\n    tag_207:\n        /* \"#utility.yul\":9622:9660   */\n      tag_209\n        /* \"#utility.yul\":9654:9658   */\n      dup3\n        /* \"#utility.yul\":9648:9659   */\n      sload\n        /* \"#utility.yul\":9622:9660   */\n      tag_47\n      jump\t// in\n    tag_209:\n        /* \"#utility.yul\":9707:9774   */\n      tag_210\n        /* \"#utility.yul\":9767:9773   */\n      dup3\n        /* \"#utility.yul\":9759:9765   */\n      dup3\n        /* \"#utility.yul\":9753:9757   */\n      dup6\n        /* \"#utility.yul\":9707:9774   */\n      tag_89\n      jump\t// in\n    tag_210:\n        /* \"#utility.yul\":9801:9802   */\n      0x00\n        /* \"#utility.yul\":9825:9829   */\n      0x20\n        /* \"#utility.yul\":9812:9829   */\n      swap1\n      pop\n        /* \"#utility.yul\":9857:9859   */\n      0x1f\n        /* \"#utility.yul\":9849:9855   */\n      dup4\n        /* \"#utility.yul\":9846:9860   */\n      gt\n        /* \"#utility.yul\":9874:9875   */\n      0x01\n        /* \"#utility.yul\":9869:10487   */\n      dup2\n      eq\n      tag_212\n      jumpi\n        /* \"#utility.yul\":10531:10532   */\n      0x00\n        /* \"#utility.yul\":10548:10554   */\n      dup5\n        /* \"#utility.yul\":10545:10622   */\n      iszero\n      tag_213\n      jumpi\n        /* \"#utility.yul\":10597:10606   */\n      dup3\n        /* \"#utility.yul\":10592:10595   */\n      dup8\n        /* \"#utility.yul\":10588:10607   */\n      add\n        /* \"#utility.yul\":10582:10608   */\n      mload\n        /* \"#utility.yul\":10573:10608   */\n      swap1\n      pop\n        /* \"#utility.yul\":10545:10622   */\n    tag_213:\n        /* \"#utility.yul\":10648:10715   */\n      tag_214\n        /* \"#utility.yul\":10708:10714   */\n      dup6\n        /* \"#utility.yul\":10701:10706   */\n      dup3\n        /* \"#utility.yul\":10648:10715   */\n      tag_92\n      jump\t// in\n    tag_214:\n        /* \"#utility.yul\":10642:10646   */\n      dup7\n        /* \"#utility.yul\":10635:10716   */\n      sstore\n        /* \"#utility.yul\":10504:10726   */\n      pop\n        /* \"#utility.yul\":9839:10726   */\n      jump(tag_211)\n        /* \"#utility.yul\":9869:10487   */\n    tag_212:\n        /* \"#utility.yul\":9921:9925   */\n      0x1f\n        /* \"#utility.yul\":9917:9926   */\n      not\n        /* \"#utility.yul\":9909:9915   */\n      dup5\n        /* \"#utility.yul\":9905:9927   */\n      and\n        /* \"#utility.yul\":9955:9992   */\n      tag_215\n        /* \"#utility.yul\":9987:9991   */\n      dup7\n        /* \"#utility.yul\":9955:9992   */\n      tag_78\n      jump\t// in\n    tag_215:\n        /* \"#utility.yul\":10014:10015   */\n      0x00\n        /* \"#utility.yul\":10028:10236   */\n    tag_216:\n        /* \"#utility.yul\":10042:10049   */\n      dup3\n        /* \"#utility.yul\":10039:10040   */\n      dup2\n        /* \"#utility.yul\":10036:10050   */\n      lt\n        /* \"#utility.yul\":10028:10236   */\n      iszero\n      tag_218\n      jumpi\n        /* \"#utility.yul\":10121:10130   */\n      dup5\n        /* \"#utility.yul\":10116:10119   */\n      dup10\n        /* \"#utility.yul\":10112:10131   */\n      add\n        /* \"#utility.yul\":10106:10132   */\n      mload\n        /* \"#utility.yul\":10098:10104   */\n      dup3\n        /* \"#utility.yul\":10091:10133   */\n      sstore\n        /* \"#utility.yul\":10172:10173   */\n      0x01\n        /* \"#utility.yul\":10164:10170   */\n      dup3\n        /* \"#utility.yul\":10160:10174   */\n      add\n        /* \"#utility.yul\":10150:10174   */\n      swap2\n      pop\n        /* \"#utility.yul\":10219:10221   */\n      0x20\n        /* \"#utility.yul\":10208:10217   */\n      dup6\n        /* \"#utility.yul\":10204:10222   */\n      add\n        /* \"#utility.yul\":10191:10222   */\n      swap5\n      pop\n        /* \"#utility.yul\":10065:10069   */\n      0x20\n        /* \"#utility.yul\":10062:10063   */\n      dup2\n        /* \"#utility.yul\":10058:10070   */\n      add\n        /* \"#utility.yul\":10053:10070   */\n      swap1\n      pop\n        /* \"#utility.yul\":10028:10236   */\n      jump(tag_216)\n    tag_218:\n        /* \"#utility.yul\":10264:10270   */\n      dup7\n        /* \"#utility.yul\":10255:10262   */\n      dup4\n        /* \"#utility.yul\":10252:10271   */\n      lt\n        /* \"#utility.yul\":10249:10428   */\n      iszero\n      tag_219\n      jumpi\n        /* \"#utility.yul\":10322:10331   */\n      dup5\n        /* \"#utility.yul\":10317:10320   */\n      dup10\n        /* \"#utility.yul\":10313:10332   */\n      add\n        /* \"#utility.yul\":10307:10333   */\n      mload\n        /* \"#utility.yul\":10365:10413   */\n      tag_220\n        /* \"#utility.yul\":10407:10411   */\n      0x1f\n        /* \"#utility.yul\":10399:10405   */\n      dup10\n        /* \"#utility.yul\":10395:10412   */\n      and\n        /* \"#utility.yul\":10384:10393   */\n      dup3\n        /* \"#utility.yul\":10365:10413   */\n      tag_91\n      jump\t// in\n    tag_220:\n        /* \"#utility.yul\":10357:10363   */\n      dup4\n        /* \"#utility.yul\":10350:10414   */\n      sstore\n        /* \"#utility.yul\":10272:10428   */\n      pop\n        /* \"#utility.yul\":10249:10428   */\n    tag_219:\n        /* \"#utility.yul\":10474:10475   */\n      0x01\n        /* \"#utility.yul\":10470:10471   */\n      0x02\n        /* \"#utility.yul\":10462:10468   */\n      dup9\n        /* \"#utility.yul\":10458:10472   */\n      mul\n        /* \"#utility.yul\":10454:10476   */\n      add\n        /* \"#utility.yul\":10448:10452   */\n      dup9\n        /* \"#utility.yul\":10441:10477   */\n      sstore\n        /* \"#utility.yul\":9876:10487   */\n      pop\n      pop\n      pop\n        /* \"#utility.yul\":9839:10726   */\n    tag_211:\n      pop\n        /* \"#utility.yul\":9429:10732   */\n      pop\n      pop\n      pop\n        /* \"#utility.yul\":9337:10732   */\n      pop\n      pop\n      jump\t// out\n        /* \"#utility.yul\":10738:11086   */\n    tag_54:\n        /* \"#utility.yul\":10778:10785   */\n      0x00\n        /* \"#utility.yul\":10801:10821   */\n      tag_222\n        /* \"#utility.yul\":10819:10820   */\n      dup3\n        /* \"#utility.yul\":10801:10821   */\n      tag_55\n      jump\t// in\n    tag_222:\n        /* \"#utility.yul\":10796:10821   */\n      swap2\n      pop\n        /* \"#utility.yul\":10835:10855   */\n      tag_223\n        /* \"#utility.yul\":10853:10854   */\n      dup4\n        /* \"#utility.yul\":10835:10855   */\n      tag_55\n      jump\t// in\n    tag_223:\n        /* \"#utility.yul\":10830:10855   */\n      swap3\n      pop\n        /* \"#utility.yul\":11023:11024   */\n      dup2\n        /* \"#utility.yul\":10955:11021   */\n      0xffffffffffffffffffffffffffffffffffffffffffffffffffffffffffffffff\n        /* \"#utility.yul\":10951:11025   */\n      div\n        /* \"#utility.yul\":10948:10949   */\n      dup4\n        /* \"#utility.yul\":10945:11026   */\n      gt\n        /* \"#utility.yul\":10940:10941   */\n      dup3\n        /* \"#utility.yul\":10933:10942   */\n      iszero\n        /* \"#utility.yul\":10926:10943   */\n      iszero\n        /* \"#utility.yul\":10922:11027   */\n      and\n        /* \"#utility.yul\":10919:11050   */\n      iszero\n      tag_224\n      jumpi\n        /* \"#utility.yul\":11030:11048   */\n      tag_225\n      tag_76\n      jump\t// in\n    tag_225:\n        /* \"#utility.yul\":10919:11050   */\n    tag_224:\n        /* \"#utility.yul\":11078:11079   */\n      dup3\n        /* \"#utility.yul\":11075:11076   */\n      dup3\n        /* \"#utility.yul\":11071:11080   */\n      mul\n        /* \"#utility.yul\":11060:11080   */\n      swap1\n      pop\n        /* \"#utility.yul\":10738:11086   */\n      swap3\n      swap2\n      pop\n      pop\n      jump\t// out\n\n    auxdata: 0xa26469706673582212202dffb6c6bdf9aa2ce2eb56cfeac1d4ada891309d61919a59882a16c6668c30b664736f6c634300080f0033\n}\n",
				"bytecode": {
					"linkReferences": {},
					"object": "60806040526040518060400160405280600581526020017f68656c6c6f000000000000000000000000000000000000000000000000000000815250600090816200004a9190620002d9565b503480156200005857600080fd5b50620003c0565b600081519050919050565b7f4e487b7100000000000000000000000000000000000000000000000000000000600052604160045260246000fd5b7f4e487b7100000000000000000000000000000000000000000000000000000000600052602260045260246000fd5b60006002820490506001821680620000e157607f821691505b602082108103620000f757620000f662000099565b5b50919050565b60008190508160005260206000209050919050565b60006020601f8301049050919050565b600082821b905092915050565b600060088302620001617fffffffffffffffffffffffffffffffffffffffffffffffffffffffffffffffff8262000122565b6200016d868362000122565b95508019841693508086168417925050509392505050565b6000819050919050565b6000819050919050565b6000620001ba620001b4620001ae8462000185565b6200018f565b62000185565b9050919050565b6000819050919050565b620001d68362000199565b620001ee620001e582620001c1565b8484546200012f565b825550505050565b600090565b62000205620001f6565b62000212818484620001cb565b505050565b5b818110156200023a576200022e600082620001fb565b60018101905062000218565b5050565b601f82111562000289576200025381620000fd565b6200025e8462000112565b810160208510156200026e578190505b620002866200027d8562000112565b83018262000217565b50505b505050565b600082821c905092915050565b6000620002ae600019846008026200028e565b1980831691505092915050565b6000620002c983836200029b565b9150826002028217905092915050565b620002e4826200005f565b67ffffffffffffffff8111156200030057620002ff6200006a565b5b6200030c8254620000c8565b620003198282856200023e565b600060209050601f8311600181146200035157600084156200033c578287015190505b620003488582620002bb565b865550620003b8565b601f1984166200036186620000fd565b60005b828110156200038b5784890151825560018201915060208501945060208101905062000364565b86831015620003ab5784890151620003a7601f8916826200029b565b8355505b6001600288020188555050505b505050505050565b61090980620003d06000396000f3fe6080604052600436106100595760003560e01c806312065fe0146100655780631b9265b814610090578063368b87721461009a578063b69ef8a8146100c3578063dcdecd6a146100ee578063e7ee6ad61461011957610060565b3661006057005b600080fd5b34801561007157600080fd5b5061007a610156565b6040516100879190610255565b60405180910390f35b610098610160565b005b3480156100a657600080fd5b506100c160048036038101906100bc91906103ca565b61017b565b005b3480156100cf57600080fd5b506100d861018e565b6040516100e59190610255565b60405180910390f35b3480156100fa57600080fd5b50610103610194565b604051610110919061049b565b60405180910390f35b34801561012557600080fd5b50610140600480360381019061013b91906104e9565b610226565b60405161014d9190610255565b60405180910390f35b6000804790505090565b34600160008282546101729190610545565b92505081905550565b806000908161018a91906107a7565b5050565b60015481565b6060600080546101a3906105ca565b80601f01602080910402602001604051908101604052809291908181526020018280546101cf906105ca565b801561021c5780601f106101f15761010080835404028352916020019161021c565b820191906000526020600020905b8154815290600101906020018083116101ff57829003601f168201915b5050505050905090565b60006003826102359190610879565b9050919050565b6000819050919050565b61024f8161023c565b82525050565b600060208201905061026a6000830184610246565b92915050565b6000604051905090565b600080fd5b600080fd5b600080fd5b600080fd5b6000601f19601f8301169050919050565b7f4e487b7100000000000000000000000000000000000000000000000000000000600052604160045260246000fd5b6102d78261028e565b810181811067ffffffffffffffff821117156102f6576102f561029f565b5b80604052505050565b6000610309610270565b905061031582826102ce565b919050565b600067ffffffffffffffff8211156103355761033461029f565b5b61033e8261028e565b9050602081019050919050565b82818337600083830152505050565b600061036d6103688461031a565b6102ff565b90508281526020810184848401111561038957610388610289565b5b61039484828561034b565b509392505050565b600082601f8301126103b1576103b0610284565b5b81356103c184826020860161035a565b91505092915050565b6000602082840312156103e0576103df61027a565b5b600082013567ffffffffffffffff8111156103fe576103fd61027f565b5b61040a8482850161039c565b91505092915050565b600081519050919050565b600082825260208201905092915050565b60005b8381101561044d578082015181840152602081019050610432565b8381111561045c576000848401525b50505050565b600061046d82610413565b610477818561041e565b935061048781856020860161042f565b6104908161028e565b840191505092915050565b600060208201905081810360008301526104b58184610462565b905092915050565b6104c68161023c565b81146104d157600080fd5b50565b6000813590506104e3816104bd565b92915050565b6000602082840312156104ff576104fe61027a565b5b600061050d848285016104d4565b91505092915050565b7f4e487b7100000000000000000000000000000000000000000000000000000000600052601160045260246000fd5b60006105508261023c565b915061055b8361023c565b9250827fffffffffffffffffffffffffffffffffffffffffffffffffffffffffffffffff038211156105905761058f610516565b5b828201905092915050565b7f4e487b7100000000000000000000000000000000000000000000000000000000600052602260045260246000fd5b600060028204905060018216806105e257607f821691505b6020821081036105f5576105f461059b565b5b50919050565b60008190508160005260206000209050919050565b60006020601f8301049050919050565b600082821b905092915050565b60006008830261065d7fffffffffffffffffffffffffffffffffffffffffffffffffffffffffffffffff82610620565b6106678683610620565b95508019841693508086168417925050509392505050565b6000819050919050565b60006106a461069f61069a8461023c565b61067f565b61023c565b9050919050565b6000819050919050565b6106be83610689565b6106d26106ca826106ab565b84845461062d565b825550505050565b600090565b6106e76106da565b6106f28184846106b5565b505050565b5b818110156107165761070b6000826106df565b6001810190506106f8565b5050565b601f82111561075b5761072c816105fb565b61073584610610565b81016020851015610744578190505b61075861075085610610565b8301826106f7565b50505b505050565b600082821c905092915050565b600061077e60001984600802610760565b1980831691505092915050565b6000610797838361076d565b9150826002028217905092915050565b6107b082610413565b67ffffffffffffffff8111156107c9576107c861029f565b5b6107d382546105ca565b6107de82828561071a565b600060209050601f83116001811461081157600084156107ff578287015190505b610809858261078b565b865550610871565b601f19841661081f866105fb565b60005b8281101561084757848901518255600182019150602085019450602081019050610822565b868310156108645784890151610860601f89168261076d565b8355505b6001600288020188555050505b505050505050565b60006108848261023c565b915061088f8361023c565b9250817fffffffffffffffffffffffffffffffffffffffffffffffffffffffffffffffff04831182151516156108c8576108c7610516565b5b82820290509291505056fea26469706673582212202dffb6c6bdf9aa2ce2eb56cfeac1d4ada891309d61919a59882a16c6668c30b664736f6c634300080f0033",
					"opcodes": "PUSH1 0x80 PUSH1 0x40 MSTORE PUSH1 0x40 MLOAD DUP1 PUSH1 0x40 ADD PUSH1 0x40 MSTORE DUP1 PUSH1 0x5 DUP2 MSTORE PUSH1 0x20 ADD PUSH32 0x68656C6C6F000000000000000000000000000000000000000000000000000000 DUP2 MSTORE POP PUSH1 0x0 SWAP1 DUP2 PUSH3 0x4A SWAP2 SWAP1 PUSH3 0x2D9 JUMP JUMPDEST POP CALLVALUE DUP1 ISZERO PUSH3 0x58 JUMPI PUSH1 0x0 DUP1 REVERT JUMPDEST POP PUSH3 0x3C0 JUMP JUMPDEST PUSH1 0x0 DUP2 MLOAD SWAP1 POP SWAP2 SWAP1 POP JUMP JUMPDEST PUSH32 0x4E487B7100000000000000000000000000000000000000000000000000000000 PUSH1 0x0 MSTORE PUSH1 0x41 PUSH1 0x4 MSTORE PUSH1 0x24 PUSH1 0x0 REVERT JUMPDEST PUSH32 0x4E487B7100000000000000000000000000000000000000000000000000000000 PUSH1 0x0 MSTORE PUSH1 0x22 PUSH1 0x4 MSTORE PUSH1 0x24 PUSH1 0x0 REVERT JUMPDEST PUSH1 0x0 PUSH1 0x2 DUP3 DIV SWAP1 POP PUSH1 0x1 DUP3 AND DUP1 PUSH3 0xE1 JUMPI PUSH1 0x7F DUP3 AND SWAP2 POP JUMPDEST PUSH1 0x20 DUP3 LT DUP2 SUB PUSH3 0xF7 JUMPI PUSH3 0xF6 PUSH3 0x99 JUMP JUMPDEST JUMPDEST POP SWAP2 SWAP1 POP JUMP JUMPDEST PUSH1 0x0 DUP2 SWAP1 POP DUP2 PUSH1 0x0 MSTORE PUSH1 0x20 PUSH1 0x0 KECCAK256 SWAP1 POP SWAP2 SWAP1 POP JUMP JUMPDEST PUSH1 0x0 PUSH1 0x20 PUSH1 0x1F DUP4 ADD DIV SWAP1 POP SWAP2 SWAP1 POP JUMP JUMPDEST PUSH1 0x0 DUP3 DUP3 SHL SWAP1 POP SWAP3 SWAP2 POP POP JUMP JUMPDEST PUSH1 0x0 PUSH1 0x8 DUP4 MUL PUSH3 0x161 PUSH32 0xFFFFFFFFFFFFFFFFFFFFFFFFFFFFFFFFFFFFFFFFFFFFFFFFFFFFFFFFFFFFFFFF DUP3 PUSH3 0x122 JUMP JUMPDEST PUSH3 0x16D DUP7 DUP4 PUSH3 0x122 JUMP JUMPDEST SWAP6 POP DUP1 NOT DUP5 AND SWAP4 POP DUP1 DUP7 AND DUP5 OR SWAP3 POP POP POP SWAP4 SWAP3 POP POP POP JUMP JUMPDEST PUSH1 0x0 DUP2 SWAP1 POP SWAP2 SWAP1 POP JUMP JUMPDEST PUSH1 0x0 DUP2 SWAP1 POP SWAP2 SWAP1 POP JUMP JUMPDEST PUSH1 0x0 PUSH3 0x1BA PUSH3 0x1B4 PUSH3 0x1AE DUP5 PUSH3 0x185 JUMP JUMPDEST PUSH3 0x18F JUMP JUMPDEST PUSH3 0x185 JUMP JUMPDEST SWAP1 POP SWAP2 SWAP1 POP JUMP JUMPDEST PUSH1 0x0 DUP2 SWAP1 POP SWAP2 SWAP1 POP JUMP JUMPDEST PUSH3 0x1D6 DUP4 PUSH3 0x199 JUMP JUMPDEST PUSH3 0x1EE PUSH3 0x1E5 DUP3 PUSH3 0x1C1 JUMP JUMPDEST DUP5 DUP5 SLOAD PUSH3 0x12F JUMP JUMPDEST DUP3 SSTORE POP POP POP POP JUMP JUMPDEST PUSH1 0x0 SWAP1 JUMP JUMPDEST PUSH3 0x205 PUSH3 0x1F6 JUMP JUMPDEST PUSH3 0x212 DUP2 DUP5 DUP5 PUSH3 0x1CB JUMP JUMPDEST POP POP POP JUMP JUMPDEST JUMPDEST DUP2 DUP2 LT ISZERO PUSH3 0x23A JUMPI PUSH3 0x22E PUSH1 0x0 DUP3 PUSH3 0x1FB JUMP JUMPDEST PUSH1 0x1 DUP2 ADD SWAP1 POP PUSH3 0x218 JUMP JUMPDEST POP POP JUMP JUMPDEST PUSH1 0x1F DUP3 GT ISZERO PUSH3 0x289 JUMPI PUSH3 0x253 DUP2 PUSH3 0xFD JUMP JUMPDEST PUSH3 0x25E DUP5 PUSH3 0x112 JUMP JUMPDEST DUP2 ADD PUSH1 0x20 DUP6 LT ISZERO PUSH3 0x26E JUMPI DUP2 SWAP1 POP JUMPDEST PUSH3 0x286 PUSH3 0x27D DUP6 PUSH3 0x112 JUMP JUMPDEST DUP4 ADD DUP3 PUSH3 0x217 JUMP JUMPDEST POP POP JUMPDEST POP POP POP JUMP JUMPDEST PUSH1 0x0 DUP3 DUP3 SHR SWAP1 POP SWAP3 SWAP2 POP POP JUMP JUMPDEST PUSH1 0x0 PUSH3 0x2AE PUSH1 0x0 NOT DUP5 PUSH1 0x8 MUL PUSH3 0x28E JUMP JUMPDEST NOT DUP1 DUP4 AND SWAP2 POP POP SWAP3 SWAP2 POP POP JUMP JUMPDEST PUSH1 0x0 PUSH3 0x2C9 DUP4 DUP4 PUSH3 0x29B JUMP JUMPDEST SWAP2 POP DUP3 PUSH1 0x2 MUL DUP3 OR SWAP1 POP SWAP3 SWAP2 POP POP JUMP JUMPDEST PUSH3 0x2E4 DUP3 PUSH3 0x5F JUMP JUMPDEST PUSH8 0xFFFFFFFFFFFFFFFF DUP2 GT ISZERO PUSH3 0x300 JUMPI PUSH3 0x2FF PUSH3 0x6A JUMP JUMPDEST JUMPDEST PUSH3 0x30C DUP3 SLOAD PUSH3 0xC8 JUMP JUMPDEST PUSH3 0x319 DUP3 DUP3 DUP6 PUSH3 0x23E JUMP JUMPDEST PUSH1 0x0 PUSH1 0x20 SWAP1 POP PUSH1 0x1F DUP4 GT PUSH1 0x1 DUP2 EQ PUSH3 0x351 JUMPI PUSH1 0x0 DUP5 ISZERO PUSH3 0x33C JUMPI DUP3 DUP8 ADD MLOAD SWAP1 POP JUMPDEST PUSH3 0x348 DUP6 DUP3 PUSH3 0x2BB JUMP JUMPDEST DUP7 SSTORE POP PUSH3 0x3B8 JUMP JUMPDEST PUSH1 0x1F NOT DUP5 AND PUSH3 0x361 DUP7 PUSH3 0xFD JUMP JUMPDEST PUSH1 0x0 JUMPDEST DUP3 DUP2 LT ISZERO PUSH3 0x38B JUMPI DUP5 DUP10 ADD MLOAD DUP3 SSTORE PUSH1 0x1 DUP3 ADD SWAP2 POP PUSH1 0x20 DUP6 ADD SWAP5 POP PUSH1 0x20 DUP2 ADD SWAP1 POP PUSH3 0x364 JUMP JUMPDEST DUP7 DUP4 LT ISZERO PUSH3 0x3AB JUMPI DUP5 DUP10 ADD MLOAD PUSH3 0x3A7 PUSH1 0x1F DUP10 AND DUP3 PUSH3 0x29B JUMP JUMPDEST DUP4 SSTORE POP JUMPDEST PUSH1 0x1 PUSH1 0x2 DUP9 MUL ADD DUP9 SSTORE POP POP POP JUMPDEST POP POP POP POP POP POP JUMP JUMPDEST PUSH2 0x909 DUP1 PUSH3 0x3D0 PUSH1 0x0 CODECOPY PUSH1 0x0 RETURN INVALID PUSH1 0x80 PUSH1 0x40 MSTORE PUSH1 0x4 CALLDATASIZE LT PUSH2 0x59 JUMPI PUSH1 0x0 CALLDATALOAD PUSH1 0xE0 SHR DUP1 PUSH4 0x12065FE0 EQ PUSH2 0x65 JUMPI DUP1 PUSH4 0x1B9265B8 EQ PUSH2 0x90 JUMPI DUP1 PUSH4 0x368B8772 EQ PUSH2 0x9A JUMPI DUP1 PUSH4 0xB69EF8A8 EQ PUSH2 0xC3 JUMPI DUP1 PUSH4 0xDCDECD6A EQ PUSH2 0xEE JUMPI DUP1 PUSH4 0xE7EE6AD6 EQ PUSH2 0x119 JUMPI PUSH2 0x60 JUMP JUMPDEST CALLDATASIZE PUSH2 0x60 JUMPI STOP JUMPDEST PUSH1 0x0 DUP1 REVERT JUMPDEST CALLVALUE DUP1 ISZERO PUSH2 0x71 JUMPI PUSH1 0x0 DUP1 REVERT JUMPDEST POP PUSH2 0x7A PUSH2 0x156 JUMP JUMPDEST PUSH1 0x40 MLOAD PUSH2 0x87 SWAP2 SWAP1 PUSH2 0x255 JUMP JUMPDEST PUSH1 0x40 MLOAD DUP1 SWAP2 SUB SWAP1 RETURN JUMPDEST PUSH2 0x98 PUSH2 0x160 JUMP JUMPDEST STOP JUMPDEST CALLVALUE DUP1 ISZERO PUSH2 0xA6 JUMPI PUSH1 0x0 DUP1 REVERT JUMPDEST POP PUSH2 0xC1 PUSH1 0x4 DUP1 CALLDATASIZE SUB DUP2 ADD SWAP1 PUSH2 0xBC SWAP2 SWAP1 PUSH2 0x3CA JUMP JUMPDEST PUSH2 0x17B JUMP JUMPDEST STOP JUMPDEST CALLVALUE DUP1 ISZERO PUSH2 0xCF JUMPI PUSH1 0x0 DUP1 REVERT JUMPDEST POP PUSH2 0xD8 PUSH2 0x18E JUMP JUMPDEST PUSH1 0x40 MLOAD PUSH2 0xE5 SWAP2 SWAP1 PUSH2 0x255 JUMP JUMPDEST PUSH1 0x40 MLOAD DUP1 SWAP2 SUB SWAP1 RETURN JUMPDEST CALLVALUE DUP1 ISZERO PUSH2 0xFA JUMPI PUSH1 0x0 DUP1 REVERT JUMPDEST POP PUSH2 0x103 PUSH2 0x194 JUMP JUMPDEST PUSH1 0x40 MLOAD PUSH2 0x110 SWAP2 SWAP1 PUSH2 0x49B JUMP JUMPDEST PUSH1 0x40 MLOAD DUP1 SWAP2 SUB SWAP1 RETURN JUMPDEST CALLVALUE DUP1 ISZERO PUSH2 0x125 JUMPI PUSH1 0x0 DUP1 REVERT JUMPDEST POP PUSH2 0x140 PUSH1 0x4 DUP1 CALLDATASIZE SUB DUP2 ADD SWAP1 PUSH2 0x13B SWAP2 SWAP1 PUSH2 0x4E9 JUMP JUMPDEST PUSH2 0x226 JUMP JUMPDEST PUSH1 0x40 MLOAD PUSH2 0x14D SWAP2 SWAP1 PUSH2 0x255 JUMP JUMPDEST PUSH1 0x40 MLOAD DUP1 SWAP2 SUB SWAP1 RETURN JUMPDEST PUSH1 0x0 DUP1 SELFBALANCE SWAP1 POP POP SWAP1 JUMP JUMPDEST CALLVALUE PUSH1 0x1 PUSH1 0x0 DUP3 DUP3 SLOAD PUSH2 0x172 SWAP2 SWAP1 PUSH2 0x545 JUMP JUMPDEST SWAP3 POP POP DUP2 SWAP1 SSTORE POP JUMP JUMPDEST DUP1 PUSH1 0x0 SWAP1 DUP2 PUSH2 0x18A SWAP2 SWAP1 PUSH2 0x7A7 JUMP JUMPDEST POP POP JUMP JUMPDEST PUSH1 0x1 SLOAD DUP2 JUMP JUMPDEST PUSH1 0x60 PUSH1 0x0 DUP1 SLOAD PUSH2 0x1A3 SWAP1 PUSH2 0x5CA JUMP JUMPDEST DUP1 PUSH1 0x1F ADD PUSH1 0x20 DUP1 SWAP2 DIV MUL PUSH1 0x20 ADD PUSH1 0x40 MLOAD SWAP1 DUP2 ADD PUSH1 0x40 MSTORE DUP1 SWAP3 SWAP2 SWAP1 DUP2 DUP2 MSTORE PUSH1 0x20 ADD DUP3 DUP1 SLOAD PUSH2 0x1CF SWAP1 PUSH2 0x5CA JUMP JUMPDEST DUP1 ISZERO PUSH2 0x21C JUMPI DUP1 PUSH1 0x1F LT PUSH2 0x1F1 JUMPI PUSH2 0x100 DUP1 DUP4 SLOAD DIV MUL DUP4 MSTORE SWAP2 PUSH1 0x20 ADD SWAP2 PUSH2 0x21C JUMP JUMPDEST DUP3 ADD SWAP2 SWAP1 PUSH1 0x0 MSTORE PUSH1 0x20 PUSH1 0x0 KECCAK256 SWAP1 JUMPDEST DUP2 SLOAD DUP2 MSTORE SWAP1 PUSH1 0x1 ADD SWAP1 PUSH1 0x20 ADD DUP1 DUP4 GT PUSH2 0x1FF JUMPI DUP3 SWAP1 SUB PUSH1 0x1F AND DUP3 ADD SWAP2 JUMPDEST POP POP POP POP POP SWAP1 POP SWAP1 JUMP JUMPDEST PUSH1 0x0 PUSH1 0x3 DUP3 PUSH2 0x235 SWAP2 SWAP1 PUSH2 0x879 JUMP JUMPDEST SWAP1 POP SWAP2 SWAP1 POP JUMP JUMPDEST PUSH1 0x0 DUP2 SWAP1 POP SWAP2 SWAP1 POP JUMP JUMPDEST PUSH2 0x24F DUP2 PUSH2 0x23C JUMP JUMPDEST DUP3 MSTORE POP POP JUMP JUMPDEST PUSH1 0x0 PUSH1 0x20 DUP3 ADD SWAP1 POP PUSH2 0x26A PUSH1 0x0 DUP4 ADD DUP5 PUSH2 0x246 JUMP JUMPDEST SWAP3 SWAP2 POP POP JUMP JUMPDEST PUSH1 0x0 PUSH1 0x40 MLOAD SWAP1 POP SWAP1 JUMP JUMPDEST PUSH1 0x0 DUP1 REVERT JUMPDEST PUSH1 0x0 DUP1 REVERT JUMPDEST PUSH1 0x0 DUP1 REVERT JUMPDEST PUSH1 0x0 DUP1 REVERT JUMPDEST PUSH1 0x0 PUSH1 0x1F NOT PUSH1 0x1F DUP4 ADD AND SWAP1 POP SWAP2 SWAP1 POP JUMP JUMPDEST PUSH32 0x4E487B7100000000000000000000000000000000000000000000000000000000 PUSH1 0x0 MSTORE PUSH1 0x41 PUSH1 0x4 MSTORE PUSH1 0x24 PUSH1 0x0 REVERT JUMPDEST PUSH2 0x2D7 DUP3 PUSH2 0x28E JUMP JUMPDEST DUP2 ADD DUP2 DUP2 LT PUSH8 0xFFFFFFFFFFFFFFFF DUP3 GT OR ISZERO PUSH2 0x2F6 JUMPI PUSH2 0x2F5 PUSH2 0x29F JUMP JUMPDEST JUMPDEST DUP1 PUSH1 0x40 MSTORE POP POP POP JUMP JUMPDEST PUSH1 0x0 PUSH2 0x309 PUSH2 0x270 JUMP JUMPDEST SWAP1 POP PUSH2 0x315 DUP3 DUP3 PUSH2 0x2CE JUMP JUMPDEST SWAP2 SWAP1 POP JUMP JUMPDEST PUSH1 0x0 PUSH8 0xFFFFFFFFFFFFFFFF DUP3 GT ISZERO PUSH2 0x335 JUMPI PUSH2 0x334 PUSH2 0x29F JUMP JUMPDEST JUMPDEST PUSH2 0x33E DUP3 PUSH2 0x28E JUMP JUMPDEST SWAP1 POP PUSH1 0x20 DUP2 ADD SWAP1 POP SWAP2 SWAP1 POP JUMP JUMPDEST DUP3 DUP2 DUP4 CALLDATACOPY PUSH1 0x0 DUP4 DUP4 ADD MSTORE POP POP POP JUMP JUMPDEST PUSH1 0x0 PUSH2 0x36D PUSH2 0x368 DUP5 PUSH2 0x31A JUMP JUMPDEST PUSH2 0x2FF JUMP JUMPDEST SWAP1 POP DUP3 DUP2 MSTORE PUSH1 0x20 DUP2 ADD DUP5 DUP5 DUP5 ADD GT ISZERO PUSH2 0x389 JUMPI PUSH2 0x388 PUSH2 0x289 JUMP JUMPDEST JUMPDEST PUSH2 0x394 DUP5 DUP3 DUP6 PUSH2 0x34B JUMP JUMPDEST POP SWAP4 SWAP3 POP POP POP JUMP JUMPDEST PUSH1 0x0 DUP3 PUSH1 0x1F DUP4 ADD SLT PUSH2 0x3B1 JUMPI PUSH2 0x3B0 PUSH2 0x284 JUMP JUMPDEST JUMPDEST DUP2 CALLDATALOAD PUSH2 0x3C1 DUP5 DUP3 PUSH1 0x20 DUP7 ADD PUSH2 0x35A JUMP JUMPDEST SWAP2 POP POP SWAP3 SWAP2 POP POP JUMP JUMPDEST PUSH1 0x0 PUSH1 0x20 DUP3 DUP5 SUB SLT ISZERO PUSH2 0x3E0 JUMPI PUSH2 0x3DF PUSH2 0x27A JUMP JUMPDEST JUMPDEST PUSH1 0x0 DUP3 ADD CALLDATALOAD PUSH8 0xFFFFFFFFFFFFFFFF DUP2 GT ISZERO PUSH2 0x3FE JUMPI PUSH2 0x3FD PUSH2 0x27F JUMP JUMPDEST JUMPDEST PUSH2 0x40A DUP5 DUP3 DUP6 ADD PUSH2 0x39C JUMP JUMPDEST SWAP2 POP POP SWAP3 SWAP2 POP POP JUMP JUMPDEST PUSH1 0x0 DUP2 MLOAD SWAP1 POP SWAP2 SWAP1 POP JUMP JUMPDEST PUSH1 0x0 DUP3 DUP3 MSTORE PUSH1 0x20 DUP3 ADD SWAP1 POP SWAP3 SWAP2 POP POP JUMP JUMPDEST PUSH1 0x0 JUMPDEST DUP4 DUP2 LT ISZERO PUSH2 0x44D JUMPI DUP1 DUP3 ADD MLOAD DUP2 DUP5 ADD MSTORE PUSH1 0x20 DUP2 ADD SWAP1 POP PUSH2 0x432 JUMP JUMPDEST DUP4 DUP2 GT ISZERO PUSH2 0x45C JUMPI PUSH1 0x0 DUP5 DUP5 ADD MSTORE JUMPDEST POP POP POP POP JUMP JUMPDEST PUSH1 0x0 PUSH2 0x46D DUP3 PUSH2 0x413 JUMP JUMPDEST PUSH2 0x477 DUP2 DUP6 PUSH2 0x41E JUMP JUMPDEST SWAP4 POP PUSH2 0x487 DUP2 DUP6 PUSH1 0x20 DUP7 ADD PUSH2 0x42F JUMP JUMPDEST PUSH2 0x490 DUP2 PUSH2 0x28E JUMP JUMPDEST DUP5 ADD SWAP2 POP POP SWAP3 SWAP2 POP POP JUMP JUMPDEST PUSH1 0x0 PUSH1 0x20 DUP3 ADD SWAP1 POP DUP2 DUP2 SUB PUSH1 0x0 DUP4 ADD MSTORE PUSH2 0x4B5 DUP2 DUP5 PUSH2 0x462 JUMP JUMPDEST SWAP1 POP SWAP3 SWAP2 POP POP JUMP JUMPDEST PUSH2 0x4C6 DUP2 PUSH2 0x23C JUMP JUMPDEST DUP2 EQ PUSH2 0x4D1 JUMPI PUSH1 0x0 DUP1 REVERT JUMPDEST POP JUMP JUMPDEST PUSH1 0x0 DUP2 CALLDATALOAD SWAP1 POP PUSH2 0x4E3 DUP2 PUSH2 0x4BD JUMP JUMPDEST SWAP3 SWAP2 POP POP JUMP JUMPDEST PUSH1 0x0 PUSH1 0x20 DUP3 DUP5 SUB SLT ISZERO PUSH2 0x4FF JUMPI PUSH2 0x4FE PUSH2 0x27A JUMP JUMPDEST JUMPDEST PUSH1 0x0 PUSH2 0x50D DUP5 DUP3 DUP6 ADD PUSH2 0x4D4 JUMP JUMPDEST SWAP2 POP POP SWAP3 SWAP2 POP POP JUMP JUMPDEST PUSH32 0x4E487B7100000000000000000000000000000000000000000000000000000000 PUSH1 0x0 MSTORE PUSH1 0x11 PUSH1 0x4 MSTORE PUSH1 0x24 PUSH1 0x0 REVERT JUMPDEST PUSH1 0x0 PUSH2 0x550 DUP3 PUSH2 0x23C JUMP JUMPDEST SWAP2 POP PUSH2 0x55B DUP4 PUSH2 0x23C JUMP JUMPDEST SWAP3 POP DUP3 PUSH32 0xFFFFFFFFFFFFFFFFFFFFFFFFFFFFFFFFFFFFFFFFFFFFFFFFFFFFFFFFFFFFFFFF SUB DUP3 GT ISZERO PUSH2 0x590 JUMPI PUSH2 0x58F PUSH2 0x516 JUMP JUMPDEST JUMPDEST DUP3 DUP3 ADD SWAP1 POP SWAP3 SWAP2 POP POP JUMP JUMPDEST PUSH32 0x4E487B7100000000000000000000000000000000000000000000000000000000 PUSH1 0x0 MSTORE PUSH1 0x22 PUSH1 0x4 MSTORE PUSH1 0x24 PUSH1 0x0 REVERT JUMPDEST PUSH1 0x0 PUSH1 0x2 DUP3 DIV SWAP1 POP PUSH1 0x1 DUP3 AND DUP1 PUSH2 0x5E2 JUMPI PUSH1 0x7F DUP3 AND SWAP2 POP JUMPDEST PUSH1 0x20 DUP3 LT DUP2 SUB PUSH2 0x5F5 JUMPI PUSH2 0x5F4 PUSH2 0x59B JUMP JUMPDEST JUMPDEST POP SWAP2 SWAP1 POP JUMP JUMPDEST PUSH1 0x0 DUP2 SWAP1 POP DUP2 PUSH1 0x0 MSTORE PUSH1 0x20 PUSH1 0x0 KECCAK256 SWAP1 POP SWAP2 SWAP1 POP JUMP JUMPDEST PUSH1 0x0 PUSH1 0x20 PUSH1 0x1F DUP4 ADD DIV SWAP1 POP SWAP2 SWAP1 POP JUMP JUMPDEST PUSH1 0x0 DUP3 DUP3 SHL SWAP1 POP SWAP3 SWAP2 POP POP JUMP JUMPDEST PUSH1 0x0 PUSH1 0x8 DUP4 MUL PUSH2 0x65D PUSH32 0xFFFFFFFFFFFFFFFFFFFFFFFFFFFFFFFFFFFFFFFFFFFFFFFFFFFFFFFFFFFFFFFF DUP3 PUSH2 0x620 JUMP JUMPDEST PUSH2 0x667 DUP7 DUP4 PUSH2 0x620 JUMP JUMPDEST SWAP6 POP DUP1 NOT DUP5 AND SWAP4 POP DUP1 DUP7 AND DUP5 OR SWAP3 POP POP POP SWAP4 SWAP3 POP POP POP JUMP JUMPDEST PUSH1 0x0 DUP2 SWAP1 POP SWAP2 SWAP1 POP JUMP JUMPDEST PUSH1 0x0 PUSH2 0x6A4 PUSH2 0x69F PUSH2 0x69A DUP5 PUSH2 0x23C JUMP JUMPDEST PUSH2 0x67F JUMP JUMPDEST PUSH2 0x23C JUMP JUMPDEST SWAP1 POP SWAP2 SWAP1 POP JUMP JUMPDEST PUSH1 0x0 DUP2 SWAP1 POP SWAP2 SWAP1 POP JUMP JUMPDEST PUSH2 0x6BE DUP4 PUSH2 0x689 JUMP JUMPDEST PUSH2 0x6D2 PUSH2 0x6CA DUP3 PUSH2 0x6AB JUMP JUMPDEST DUP5 DUP5 SLOAD PUSH2 0x62D JUMP JUMPDEST DUP3 SSTORE POP POP POP POP JUMP JUMPDEST PUSH1 0x0 SWAP1 JUMP JUMPDEST PUSH2 0x6E7 PUSH2 0x6DA JUMP JUMPDEST PUSH2 0x6F2 DUP2 DUP5 DUP5 PUSH2 0x6B5 JUMP JUMPDEST POP POP POP JUMP JUMPDEST JUMPDEST DUP2 DUP2 LT ISZERO PUSH2 0x716 JUMPI PUSH2 0x70B PUSH1 0x0 DUP3 PUSH2 0x6DF JUMP JUMPDEST PUSH1 0x1 DUP2 ADD SWAP1 POP PUSH2 0x6F8 JUMP JUMPDEST POP POP JUMP JUMPDEST PUSH1 0x1F DUP3 GT ISZERO PUSH2 0x75B JUMPI PUSH2 0x72C DUP2 PUSH2 0x5FB JUMP JUMPDEST PUSH2 0x735 DUP5 PUSH2 0x610 JUMP JUMPDEST DUP2 ADD PUSH1 0x20 DUP6 LT ISZERO PUSH2 0x744 JUMPI DUP2 SWAP1 POP JUMPDEST PUSH2 0x758 PUSH2 0x750 DUP6 PUSH2 0x610 JUMP JUMPDEST DUP4 ADD DUP3 PUSH2 0x6F7 JUMP JUMPDEST POP POP JUMPDEST POP POP POP JUMP JUMPDEST PUSH1 0x0 DUP3 DUP3 SHR SWAP1 POP SWAP3 SWAP2 POP POP JUMP JUMPDEST PUSH1 0x0 PUSH2 0x77E PUSH1 0x0 NOT DUP5 PUSH1 0x8 MUL PUSH2 0x760 JUMP JUMPDEST NOT DUP1 DUP4 AND SWAP2 POP POP SWAP3 SWAP2 POP POP JUMP JUMPDEST PUSH1 0x0 PUSH2 0x797 DUP4 DUP4 PUSH2 0x76D JUMP JUMPDEST SWAP2 POP DUP3 PUSH1 0x2 MUL DUP3 OR SWAP1 POP SWAP3 SWAP2 POP POP JUMP JUMPDEST PUSH2 0x7B0 DUP3 PUSH2 0x413 JUMP JUMPDEST PUSH8 0xFFFFFFFFFFFFFFFF DUP2 GT ISZERO PUSH2 0x7C9 JUMPI PUSH2 0x7C8 PUSH2 0x29F JUMP JUMPDEST JUMPDEST PUSH2 0x7D3 DUP3 SLOAD PUSH2 0x5CA JUMP JUMPDEST PUSH2 0x7DE DUP3 DUP3 DUP6 PUSH2 0x71A JUMP JUMPDEST PUSH1 0x0 PUSH1 0x20 SWAP1 POP PUSH1 0x1F DUP4 GT PUSH1 0x1 DUP2 EQ PUSH2 0x811 JUMPI PUSH1 0x0 DUP5 ISZERO PUSH2 0x7FF JUMPI DUP3 DUP8 ADD MLOAD SWAP1 POP JUMPDEST PUSH2 0x809 DUP6 DUP3 PUSH2 0x78B JUMP JUMPDEST DUP7 SSTORE POP PUSH2 0x871 JUMP JUMPDEST PUSH1 0x1F NOT DUP5 AND PUSH2 0x81F DUP7 PUSH2 0x5FB JUMP JUMPDEST PUSH1 0x0 JUMPDEST DUP3 DUP2 LT ISZERO PUSH2 0x847 JUMPI DUP5 DUP10 ADD MLOAD DUP3 SSTORE PUSH1 0x1 DUP3 ADD SWAP2 POP PUSH1 0x20 DUP6 ADD SWAP5 POP PUSH1 0x20 DUP2 ADD SWAP1 POP PUSH2 0x822 JUMP JUMPDEST DUP7 DUP4 LT ISZERO PUSH2 0x864 JUMPI DUP5 DUP10 ADD MLOAD PUSH2 0x860 PUSH1 0x1F DUP10 AND DUP3 PUSH2 0x76D JUMP JUMPDEST DUP4 SSTORE POP JUMPDEST PUSH1 0x1 PUSH1 0x2 DUP9 MUL ADD DUP9 SSTORE POP POP POP JUMPDEST POP POP POP POP POP POP JUMP JUMPDEST PUSH1 0x0 PUSH2 0x884 DUP3 PUSH2 0x23C JUMP JUMPDEST SWAP2 POP PUSH2 0x88F DUP4 PUSH2 0x23C JUMP JUMPDEST SWAP3 POP DUP2 PUSH32 0xFFFFFFFFFFFFFFFFFFFFFFFFFFFFFFFFFFFFFFFFFFFFFFFFFFFFFFFFFFFFFFFF DIV DUP4 GT DUP3 ISZERO ISZERO AND ISZERO PUSH2 0x8C8 JUMPI PUSH2 0x8C7 PUSH2 0x516 JUMP JUMPDEST JUMPDEST DUP3 DUP3 MUL SWAP1 POP SWAP3 SWAP2 POP POP JUMP INVALID LOG2 PUSH5 0x6970667358 0x22 SLT KECCAK256 0x2D SELFDESTRUCT 0xB6 0xC6 0xBD 0xF9 0xAA 0x2C 0xE2 0xEB JUMP 0xCF 0xEA 0xC1 0xD4 0xAD 0xA8 SWAP2 ADDRESS SWAP14 PUSH2 0x919A MSIZE DUP9 0x2A AND 0xC6 PUSH7 0x8C30B664736F6C PUSH4 0x4300080F STOP CALLER "
				},
				"gasEstimates": {
					"creation": {
						"codeDepositCost": "462600",
						"executionCost": "infinite",
						"totalCost": "infinite"
					},
					"external": {
						"balance()": "2473",
						"getBalance()": "322",
						"getMesage()": "infinite",
						"pay()": "infinite",
						"rate(uint256)": "infinite",
						"setMessage(string)": "infinite"
					}
				},
				"methodIdentifiers": {
					"balance()": "b69ef8a8",
					"getBalance()": "12065fe0",
					"getMesage()": "dcdecd6a",
					"pay()": "1b9265b8",
					"rate(uint256)": "e7ee6ad6",
					"setMessage(string)": "368b8772"
				}
			},
			"storageLayout": {
				"storage": [
					{
						"astId": 4,
						"contract": "06_lesson_functions/Demo.sol:Demo",
						"label": "message",
						"offset": 0,
						"slot": "0",
						"type": "t_string_storage"
					},
					{
						"astId": 6,
						"contract": "06_lesson_functions/Demo.sol:Demo",
						"label": "balance",
						"offset": 0,
						"slot": "1",
						"type": "t_uint256"
					}
				],
				"types": {
					"t_string_storage": {
						"encoding": "bytes",
						"label": "string",
						"numberOfBytes": "32"
					},
					"t_uint256": {
						"encoding": "inplace",
						"label": "uint256",
						"numberOfBytes": "32"
					}
				}
			},
			"userdoc": {
				"kind": "user",
				"methods": {},
				"version": 1
			}
		}
	}
}