{
	"07_lesson_/DEMO.sol": {
		"Demo": {
			"abi": [
				{
					"inputs": [],
					"stateMutability": "nonpayable",
					"type": "constructor"
				},
				{
					"inputs": [],
					"name": "pay",
					"outputs": [],
					"stateMutability": "payable",
					"type": "function"
				},
				{
					"inputs": [
						{
							"internalType": "address payable",
							"name": "_to",
							"type": "address"
						}
					],
					"name": "withdraw_assert",
					"outputs": [],
					"stateMutability": "nonpayable",
					"type": "function"
				},
				{
					"inputs": [
						{
							"internalType": "address payable",
							"name": "_to",
							"type": "address"
						}
					],
					"name": "withdraw_require",
					"outputs": [],
					"stateMutability": "nonpayable",
					"type": "function"
				},
				{
					"inputs": [
						{
							"internalType": "address payable",
							"name": "_to",
							"type": "address"
						}
					],
					"name": "withdraw_require_modifier",
					"outputs": [],
					"stateMutability": "nonpayable",
					"type": "function"
				},
				{
					"inputs": [
						{
							"internalType": "address payable",
							"name": "_to",
							"type": "address"
						}
					],
					"name": "withdraw_revert",
					"outputs": [],
					"stateMutability": "nonpayable",
					"type": "function"
				}
			],
			"devdoc": {
				"kind": "dev",
				"methods": {},
				"version": 1
			},
			"evm": {
				"assembly": "    /* \"07_lesson_/DEMO.sol\":58:1321  contract Demo {... */\n  mstore(0x40, 0x80)\n    /* \"07_lesson_/DEMO.sol\":163:212  constructor() {... */\n  callvalue\n  dup1\n  iszero\n  tag_1\n  jumpi\n  0x00\n  dup1\n  revert\ntag_1:\n  pop\n    /* \"07_lesson_/DEMO.sol\":195:205  msg.sender */\n  caller\n    /* \"07_lesson_/DEMO.sol\":187:192  owner */\n  0x00\n  dup1\n    /* \"07_lesson_/DEMO.sol\":187:205  owner = msg.sender */\n  0x0100\n  exp\n  dup2\n  sload\n  dup2\n  0xffffffffffffffffffffffffffffffffffffffff\n  mul\n  not\n  and\n  swap1\n  dup4\n  0xffffffffffffffffffffffffffffffffffffffff\n  and\n  mul\n  or\n  swap1\n  sstore\n  pop\n    /* \"07_lesson_/DEMO.sol\":58:1321  contract Demo {... */\n  dataSize(sub_0)\n  dup1\n  dataOffset(sub_0)\n  0x00\n  codecopy\n  0x00\n  return\nstop\n\nsub_0: assembly {\n        /* \"07_lesson_/DEMO.sol\":58:1321  contract Demo {... */\n      mstore(0x40, 0x80)\n      jumpi(tag_1, lt(calldatasize, 0x04))\n      shr(0xe0, calldataload(0x00))\n      dup1\n      0x1b9265b8\n      eq\n      tag_2\n      jumpi\n      dup1\n      0x41629cdf\n      eq\n      tag_3\n      jumpi\n      dup1\n      0x41f07182\n      eq\n      tag_4\n      jumpi\n      dup1\n      0x7a6ef969\n      eq\n      tag_5\n      jumpi\n      dup1\n      0xd7414cd3\n      eq\n      tag_6\n      jumpi\n    tag_1:\n      0x00\n      dup1\n      revert\n        /* \"07_lesson_/DEMO.sol\":218:258  function pay() external payable {... */\n    tag_2:\n      tag_7\n      tag_8\n      jump\t// in\n    tag_7:\n      stop\n        /* \"07_lesson_/DEMO.sol\":662:811  function withdraw_assert(address payable _to) external {... */\n    tag_3:\n      callvalue\n      dup1\n      iszero\n      tag_9\n      jumpi\n      0x00\n      dup1\n      revert\n    tag_9:\n      pop\n      tag_10\n      0x04\n      dup1\n      calldatasize\n      sub\n      dup2\n      add\n      swap1\n      tag_11\n      swap2\n      swap1\n      tag_12\n      jump\t// in\n    tag_11:\n      tag_13\n      jump\t// in\n    tag_10:\n      stop\n        /* \"07_lesson_/DEMO.sol\":264:434  function withdraw_require(address payable _to) external {... */\n    tag_4:\n      callvalue\n      dup1\n      iszero\n      tag_14\n      jumpi\n      0x00\n      dup1\n      revert\n    tag_14:\n      pop\n      tag_15\n      0x04\n      dup1\n      calldatasize\n      sub\n      dup2\n      add\n      swap1\n      tag_16\n      swap2\n      swap1\n      tag_12\n      jump\t// in\n    tag_16:\n      tag_17\n      jump\t// in\n    tag_15:\n      stop\n        /* \"07_lesson_/DEMO.sol\":1124:1318  function withdraw_require_modifier(address payable _to) external onlyOwner(_to) {... */\n    tag_5:\n      callvalue\n      dup1\n      iszero\n      tag_18\n      jumpi\n      0x00\n      dup1\n      revert\n    tag_18:\n      pop\n      tag_19\n      0x04\n      dup1\n      calldatasize\n      sub\n      dup2\n      add\n      swap1\n      tag_20\n      swap2\n      swap1\n      tag_12\n      jump\t// in\n    tag_20:\n      tag_21\n      jump\t// in\n    tag_19:\n      stop\n        /* \"07_lesson_/DEMO.sol\":440:656  function withdraw_revert(address payable _to) external {... */\n    tag_6:\n      callvalue\n      dup1\n      iszero\n      tag_22\n      jumpi\n      0x00\n      dup1\n      revert\n    tag_22:\n      pop\n      tag_23\n      0x04\n      dup1\n      calldatasize\n      sub\n      dup2\n      add\n      swap1\n      tag_24\n      swap2\n      swap1\n      tag_12\n      jump\t// in\n    tag_24:\n      tag_25\n      jump\t// in\n    tag_23:\n      stop\n        /* \"07_lesson_/DEMO.sol\":218:258  function pay() external payable {... */\n    tag_8:\n      jump\t// out\n        /* \"07_lesson_/DEMO.sol\":662:811  function withdraw_assert(address payable _to) external {... */\n    tag_13:\n        /* \"07_lesson_/DEMO.sol\":748:753  owner */\n      0x00\n      dup1\n      sload\n      swap1\n      0x0100\n      exp\n      swap1\n      div\n      0xffffffffffffffffffffffffffffffffffffffff\n      and\n        /* \"07_lesson_/DEMO.sol\":734:753  msg.sender == owner */\n      0xffffffffffffffffffffffffffffffffffffffff\n      and\n        /* \"07_lesson_/DEMO.sol\":734:744  msg.sender */\n      caller\n        /* \"07_lesson_/DEMO.sol\":734:753  msg.sender == owner */\n      0xffffffffffffffffffffffffffffffffffffffff\n      and\n      eq\n        /* \"07_lesson_/DEMO.sol\":727:754  assert(msg.sender == owner) */\n      tag_28\n      jumpi\n      tag_29\n      tag_30\n      jump\t// in\n    tag_29:\n    tag_28:\n        /* \"07_lesson_/DEMO.sol\":769:772  _to */\n      dup1\n        /* \"07_lesson_/DEMO.sol\":769:781  _to.transfer */\n      0xffffffffffffffffffffffffffffffffffffffff\n      and\n        /* \"07_lesson_/DEMO.sol\":769:804  _to.transfer(address(this).balance) */\n      0x08fc\n        /* \"07_lesson_/DEMO.sol\":782:803  address(this).balance */\n      selfbalance\n        /* \"07_lesson_/DEMO.sol\":769:804  _to.transfer(address(this).balance) */\n      swap1\n      dup2\n      iszero\n      mul\n      swap1\n      mload(0x40)\n      0x00\n      mload(0x40)\n      dup1\n      dup4\n      sub\n      dup2\n      dup6\n      dup9\n      dup9\n      call\n      swap4\n      pop\n      pop\n      pop\n      pop\n      iszero\n      dup1\n      iszero\n      tag_32\n      jumpi\n      returndatasize\n      0x00\n      dup1\n      returndatacopy\n      revert(0x00, returndatasize)\n    tag_32:\n      pop\n        /* \"07_lesson_/DEMO.sol\":662:811  function withdraw_assert(address payable _to) external {... */\n      pop\n      jump\t// out\n        /* \"07_lesson_/DEMO.sol\":264:434  function withdraw_require(address payable _to) external {... */\n    tag_17:\n        /* \"07_lesson_/DEMO.sol\":352:357  owner */\n      0x00\n      dup1\n      sload\n      swap1\n      0x0100\n      exp\n      swap1\n      div\n      0xffffffffffffffffffffffffffffffffffffffff\n      and\n        /* \"07_lesson_/DEMO.sol\":338:357  msg.sender == owner */\n      0xffffffffffffffffffffffffffffffffffffffff\n      and\n        /* \"07_lesson_/DEMO.sol\":338:348  msg.sender */\n      caller\n        /* \"07_lesson_/DEMO.sol\":338:357  msg.sender == owner */\n      0xffffffffffffffffffffffffffffffffffffffff\n      and\n      eq\n        /* \"07_lesson_/DEMO.sol\":330:382  require(msg.sender == owner, \"you are not an owner\") */\n      tag_34\n      jumpi\n      mload(0x40)\n      0x08c379a000000000000000000000000000000000000000000000000000000000\n      dup2\n      mstore\n      0x04\n      add\n      tag_35\n      swap1\n      tag_36\n      jump\t// in\n    tag_35:\n      mload(0x40)\n      dup1\n      swap2\n      sub\n      swap1\n      revert\n    tag_34:\n        /* \"07_lesson_/DEMO.sol\":392:395  _to */\n      dup1\n        /* \"07_lesson_/DEMO.sol\":392:404  _to.transfer */\n      0xffffffffffffffffffffffffffffffffffffffff\n      and\n        /* \"07_lesson_/DEMO.sol\":392:427  _to.transfer(address(this).balance) */\n      0x08fc\n        /* \"07_lesson_/DEMO.sol\":405:426  address(this).balance */\n      selfbalance\n        /* \"07_lesson_/DEMO.sol\":392:427  _to.transfer(address(this).balance) */\n      swap1\n      dup2\n      iszero\n      mul\n      swap1\n      mload(0x40)\n      0x00\n      mload(0x40)\n      dup1\n      dup4\n      sub\n      dup2\n      dup6\n      dup9\n      dup9\n      call\n      swap4\n      pop\n      pop\n      pop\n      pop\n      iszero\n      dup1\n      iszero\n      tag_38\n      jumpi\n      returndatasize\n      0x00\n      dup1\n      returndatacopy\n      revert(0x00, returndatasize)\n    tag_38:\n      pop\n        /* \"07_lesson_/DEMO.sol\":264:434  function withdraw_require(address payable _to) external {... */\n      pop\n      jump\t// out\n        /* \"07_lesson_/DEMO.sol\":1124:1318  function withdraw_require_modifier(address payable _to) external onlyOwner(_to) {... */\n    tag_21:\n        /* \"07_lesson_/DEMO.sol\":1199:1202  _to */\n      dup1\n        /* \"07_lesson_/DEMO.sol\":881:886  owner */\n      0x00\n      dup1\n      sload\n      swap1\n      0x0100\n      exp\n      swap1\n      div\n      0xffffffffffffffffffffffffffffffffffffffff\n      and\n        /* \"07_lesson_/DEMO.sol\":867:886  msg.sender == owner */\n      0xffffffffffffffffffffffffffffffffffffffff\n      and\n        /* \"07_lesson_/DEMO.sol\":867:877  msg.sender */\n      caller\n        /* \"07_lesson_/DEMO.sol\":867:886  msg.sender == owner */\n      0xffffffffffffffffffffffffffffffffffffffff\n      and\n      eq\n        /* \"07_lesson_/DEMO.sol\":859:911  require(msg.sender == owner, \"you are not an owner\") */\n      tag_40\n      jumpi\n      mload(0x40)\n      0x08c379a000000000000000000000000000000000000000000000000000000000\n      dup2\n      mstore\n      0x04\n      add\n      tag_41\n      swap1\n      tag_36\n      jump\t// in\n    tag_41:\n      mload(0x40)\n      dup1\n      swap2\n      sub\n      swap1\n      revert\n    tag_40:\n        /* \"07_lesson_/DEMO.sol\":936:944  zeroAddr */\n      0x01\n      0x00\n      swap1\n      sload\n      swap1\n      0x0100\n      exp\n      swap1\n      div\n      0xffffffffffffffffffffffffffffffffffffffff\n      and\n        /* \"07_lesson_/DEMO.sol\":929:944  _to != zeroAddr */\n      0xffffffffffffffffffffffffffffffffffffffff\n      and\n        /* \"07_lesson_/DEMO.sol\":929:932  _to */\n      dup2\n        /* \"07_lesson_/DEMO.sol\":929:944  _to != zeroAddr */\n      0xffffffffffffffffffffffffffffffffffffffff\n      and\n      eq\n      iszero\n        /* \"07_lesson_/DEMO.sol\":921:966  require(_to != zeroAddr, \"incorrect address\") */\n      tag_42\n      jumpi\n      mload(0x40)\n      0x08c379a000000000000000000000000000000000000000000000000000000000\n      dup2\n      mstore\n      0x04\n      add\n      tag_43\n      swap1\n      tag_44\n      jump\t// in\n    tag_43:\n      mload(0x40)\n      dup1\n      swap2\n      sub\n      swap1\n      revert\n    tag_42:\n        /* \"07_lesson_/DEMO.sol\":1236:1241  owner */\n      0x00\n      dup1\n      sload\n      swap1\n      0x0100\n      exp\n      swap1\n      div\n      0xffffffffffffffffffffffffffffffffffffffff\n      and\n        /* \"07_lesson_/DEMO.sol\":1222:1241  msg.sender == owner */\n      0xffffffffffffffffffffffffffffffffffffffff\n      and\n        /* \"07_lesson_/DEMO.sol\":1222:1232  msg.sender */\n      caller\n        /* \"07_lesson_/DEMO.sol\":1222:1241  msg.sender == owner */\n      0xffffffffffffffffffffffffffffffffffffffff\n      and\n      eq\n        /* \"07_lesson_/DEMO.sol\":1214:1266  require(msg.sender == owner, \"you are not an owner\") */\n      tag_46\n      jumpi\n      mload(0x40)\n      0x08c379a000000000000000000000000000000000000000000000000000000000\n      dup2\n      mstore\n      0x04\n      add\n      tag_47\n      swap1\n      tag_36\n      jump\t// in\n    tag_47:\n      mload(0x40)\n      dup1\n      swap2\n      sub\n      swap1\n      revert\n    tag_46:\n        /* \"07_lesson_/DEMO.sol\":1276:1279  _to */\n      dup2\n        /* \"07_lesson_/DEMO.sol\":1276:1288  _to.transfer */\n      0xffffffffffffffffffffffffffffffffffffffff\n      and\n        /* \"07_lesson_/DEMO.sol\":1276:1311  _to.transfer(address(this).balance) */\n      0x08fc\n        /* \"07_lesson_/DEMO.sol\":1289:1310  address(this).balance */\n      selfbalance\n        /* \"07_lesson_/DEMO.sol\":1276:1311  _to.transfer(address(this).balance) */\n      swap1\n      dup2\n      iszero\n      mul\n      swap1\n      mload(0x40)\n      0x00\n      mload(0x40)\n      dup1\n      dup4\n      sub\n      dup2\n      dup6\n      dup9\n      dup9\n      call\n      swap4\n      pop\n      pop\n      pop\n      pop\n      iszero\n      dup1\n      iszero\n      tag_49\n      jumpi\n      returndatasize\n      0x00\n      dup1\n      returndatacopy\n      revert(0x00, returndatasize)\n    tag_49:\n      pop\n        /* \"07_lesson_/DEMO.sol\":1013:1055  0x5B38Da6a701c568545dCfcB03FcB875f56beddC4 */\n      0x5b38da6a701c568545dcfcb03fcb875f56beddc4\n        /* \"07_lesson_/DEMO.sol\":1006:1055  _to != 0x5B38Da6a701c568545dCfcB03FcB875f56beddC4 */\n      0xffffffffffffffffffffffffffffffffffffffff\n      and\n        /* \"07_lesson_/DEMO.sol\":1006:1009  _to */\n      dup2\n        /* \"07_lesson_/DEMO.sol\":1006:1055  _to != 0x5B38Da6a701c568545dCfcB03FcB875f56beddC4 */\n      0xffffffffffffffffffffffffffffffffffffffff\n      and\n      eq\n      iszero\n        /* \"07_lesson_/DEMO.sol\":998:1086  require(_to != 0x5B38Da6a701c568545dCfcB03FcB875f56beddC4, \"you are not an owner, shit\") */\n      tag_50\n      jumpi\n      mload(0x40)\n      0x08c379a000000000000000000000000000000000000000000000000000000000\n      dup2\n      mstore\n      0x04\n      add\n      tag_51\n      swap1\n      tag_52\n      jump\t// in\n    tag_51:\n      mload(0x40)\n      dup1\n      swap2\n      sub\n      swap1\n      revert\n    tag_50:\n        /* \"07_lesson_/DEMO.sol\":1124:1318  function withdraw_require_modifier(address payable _to) external onlyOwner(_to) {... */\n      pop\n      pop\n      jump\t// out\n        /* \"07_lesson_/DEMO.sol\":440:656  function withdraw_revert(address payable _to) external {... */\n    tag_25:\n        /* \"07_lesson_/DEMO.sol\":522:527  owner */\n      0x00\n      dup1\n      sload\n      swap1\n      0x0100\n      exp\n      swap1\n      div\n      0xffffffffffffffffffffffffffffffffffffffff\n      and\n        /* \"07_lesson_/DEMO.sol\":508:527  msg.sender != owner */\n      0xffffffffffffffffffffffffffffffffffffffff\n      and\n        /* \"07_lesson_/DEMO.sol\":508:518  msg.sender */\n      caller\n        /* \"07_lesson_/DEMO.sol\":508:527  msg.sender != owner */\n      0xffffffffffffffffffffffffffffffffffffffff\n      and\n      eq\n        /* \"07_lesson_/DEMO.sol\":505:650  if(msg.sender != owner) {... */\n      tag_54\n      jumpi\n        /* \"07_lesson_/DEMO.sol\":543:573  revert(\"you are not an owner\") */\n      mload(0x40)\n      0x08c379a000000000000000000000000000000000000000000000000000000000\n      dup2\n      mstore\n      0x04\n      add\n      tag_55\n      swap1\n      tag_36\n      jump\t// in\n    tag_55:\n      mload(0x40)\n      dup1\n      swap2\n      sub\n      swap1\n      revert\n        /* \"07_lesson_/DEMO.sol\":505:650  if(msg.sender != owner) {... */\n    tag_54:\n        /* \"07_lesson_/DEMO.sol\":604:607  _to */\n      dup1\n        /* \"07_lesson_/DEMO.sol\":604:616  _to.transfer */\n      0xffffffffffffffffffffffffffffffffffffffff\n      and\n        /* \"07_lesson_/DEMO.sol\":604:639  _to.transfer(address(this).balance) */\n      0x08fc\n        /* \"07_lesson_/DEMO.sol\":617:638  address(this).balance */\n      selfbalance\n        /* \"07_lesson_/DEMO.sol\":604:639  _to.transfer(address(this).balance) */\n      swap1\n      dup2\n      iszero\n      mul\n      swap1\n      mload(0x40)\n      0x00\n      mload(0x40)\n      dup1\n      dup4\n      sub\n      dup2\n      dup6\n      dup9\n      dup9\n      call\n      swap4\n      pop\n      pop\n      pop\n      pop\n      iszero\n      dup1\n      iszero\n      tag_58\n      jumpi\n      returndatasize\n      0x00\n      dup1\n      returndatacopy\n      revert(0x00, returndatasize)\n    tag_58:\n      pop\n        /* \"07_lesson_/DEMO.sol\":440:656  function withdraw_revert(address payable _to) external {... */\n      pop\n      jump\t// out\n        /* \"#utility.yul\":7:162   */\n    tag_60:\n        /* \"#utility.yul\":61:66   */\n      0x00\n        /* \"#utility.yul\":99:105   */\n      dup2\n        /* \"#utility.yul\":86:106   */\n      calldataload\n        /* \"#utility.yul\":77:106   */\n      swap1\n      pop\n        /* \"#utility.yul\":115:156   */\n      tag_62\n        /* \"#utility.yul\":150:155   */\n      dup2\n        /* \"#utility.yul\":115:156   */\n      tag_63\n      jump\t// in\n    tag_62:\n        /* \"#utility.yul\":7:162   */\n      swap3\n      swap2\n      pop\n      pop\n      jump\t// out\n        /* \"#utility.yul\":168:513   */\n    tag_12:\n        /* \"#utility.yul\":235:241   */\n      0x00\n        /* \"#utility.yul\":284:286   */\n      0x20\n        /* \"#utility.yul\":272:281   */\n      dup3\n        /* \"#utility.yul\":263:270   */\n      dup5\n        /* \"#utility.yul\":259:282   */\n      sub\n        /* \"#utility.yul\":255:287   */\n      slt\n        /* \"#utility.yul\":252:371   */\n      iszero\n      tag_65\n      jumpi\n        /* \"#utility.yul\":290:369   */\n      tag_66\n      tag_67\n      jump\t// in\n    tag_66:\n        /* \"#utility.yul\":252:371   */\n    tag_65:\n        /* \"#utility.yul\":410:411   */\n      0x00\n        /* \"#utility.yul\":435:496   */\n      tag_68\n        /* \"#utility.yul\":488:495   */\n      dup5\n        /* \"#utility.yul\":479:485   */\n      dup3\n        /* \"#utility.yul\":468:477   */\n      dup6\n        /* \"#utility.yul\":464:486   */\n      add\n        /* \"#utility.yul\":435:496   */\n      tag_60\n      jump\t// in\n    tag_68:\n        /* \"#utility.yul\":425:496   */\n      swap2\n      pop\n        /* \"#utility.yul\":381:506   */\n      pop\n        /* \"#utility.yul\":168:513   */\n      swap3\n      swap2\n      pop\n      pop\n      jump\t// out\n        /* \"#utility.yul\":519:885   */\n    tag_69:\n        /* \"#utility.yul\":661:664   */\n      0x00\n        /* \"#utility.yul\":682:749   */\n      tag_71\n        /* \"#utility.yul\":746:748   */\n      0x1a\n        /* \"#utility.yul\":741:744   */\n      dup4\n        /* \"#utility.yul\":682:749   */\n      tag_72\n      jump\t// in\n    tag_71:\n        /* \"#utility.yul\":675:749   */\n      swap2\n      pop\n        /* \"#utility.yul\":758:851   */\n      tag_73\n        /* \"#utility.yul\":847:850   */\n      dup3\n        /* \"#utility.yul\":758:851   */\n      tag_74\n      jump\t// in\n    tag_73:\n        /* \"#utility.yul\":876:878   */\n      0x20\n        /* \"#utility.yul\":871:874   */\n      dup3\n        /* \"#utility.yul\":867:879   */\n      add\n        /* \"#utility.yul\":860:879   */\n      swap1\n      pop\n        /* \"#utility.yul\":519:885   */\n      swap2\n      swap1\n      pop\n      jump\t// out\n        /* \"#utility.yul\":891:1257   */\n    tag_75:\n        /* \"#utility.yul\":1033:1036   */\n      0x00\n        /* \"#utility.yul\":1054:1121   */\n      tag_77\n        /* \"#utility.yul\":1118:1120   */\n      0x14\n        /* \"#utility.yul\":1113:1116   */\n      dup4\n        /* \"#utility.yul\":1054:1121   */\n      tag_72\n      jump\t// in\n    tag_77:\n        /* \"#utility.yul\":1047:1121   */\n      swap2\n      pop\n        /* \"#utility.yul\":1130:1223   */\n      tag_78\n        /* \"#utility.yul\":1219:1222   */\n      dup3\n        /* \"#utility.yul\":1130:1223   */\n      tag_79\n      jump\t// in\n    tag_78:\n        /* \"#utility.yul\":1248:1250   */\n      0x20\n        /* \"#utility.yul\":1243:1246   */\n      dup3\n        /* \"#utility.yul\":1239:1251   */\n      add\n        /* \"#utility.yul\":1232:1251   */\n      swap1\n      pop\n        /* \"#utility.yul\":891:1257   */\n      swap2\n      swap1\n      pop\n      jump\t// out\n        /* \"#utility.yul\":1263:1629   */\n    tag_80:\n        /* \"#utility.yul\":1405:1408   */\n      0x00\n        /* \"#utility.yul\":1426:1493   */\n      tag_82\n        /* \"#utility.yul\":1490:1492   */\n      0x11\n        /* \"#utility.yul\":1485:1488   */\n      dup4\n        /* \"#utility.yul\":1426:1493   */\n      tag_72\n      jump\t// in\n    tag_82:\n        /* \"#utility.yul\":1419:1493   */\n      swap2\n      pop\n        /* \"#utility.yul\":1502:1595   */\n      tag_83\n        /* \"#utility.yul\":1591:1594   */\n      dup3\n        /* \"#utility.yul\":1502:1595   */\n      tag_84\n      jump\t// in\n    tag_83:\n        /* \"#utility.yul\":1620:1622   */\n      0x20\n        /* \"#utility.yul\":1615:1618   */\n      dup3\n        /* \"#utility.yul\":1611:1623   */\n      add\n        /* \"#utility.yul\":1604:1623   */\n      swap1\n      pop\n        /* \"#utility.yul\":1263:1629   */\n      swap2\n      swap1\n      pop\n      jump\t// out\n        /* \"#utility.yul\":1635:2054   */\n    tag_52:\n        /* \"#utility.yul\":1801:1805   */\n      0x00\n        /* \"#utility.yul\":1839:1841   */\n      0x20\n        /* \"#utility.yul\":1828:1837   */\n      dup3\n        /* \"#utility.yul\":1824:1842   */\n      add\n        /* \"#utility.yul\":1816:1842   */\n      swap1\n      pop\n        /* \"#utility.yul\":1888:1897   */\n      dup2\n        /* \"#utility.yul\":1882:1886   */\n      dup2\n        /* \"#utility.yul\":1878:1898   */\n      sub\n        /* \"#utility.yul\":1874:1875   */\n      0x00\n        /* \"#utility.yul\":1863:1872   */\n      dup4\n        /* \"#utility.yul\":1859:1876   */\n      add\n        /* \"#utility.yul\":1852:1899   */\n      mstore\n        /* \"#utility.yul\":1916:2047   */\n      tag_86\n        /* \"#utility.yul\":2042:2046   */\n      dup2\n        /* \"#utility.yul\":1916:2047   */\n      tag_69\n      jump\t// in\n    tag_86:\n        /* \"#utility.yul\":1908:2047   */\n      swap1\n      pop\n        /* \"#utility.yul\":1635:2054   */\n      swap2\n      swap1\n      pop\n      jump\t// out\n        /* \"#utility.yul\":2060:2479   */\n    tag_36:\n        /* \"#utility.yul\":2226:2230   */\n      0x00\n        /* \"#utility.yul\":2264:2266   */\n      0x20\n        /* \"#utility.yul\":2253:2262   */\n      dup3\n        /* \"#utility.yul\":2249:2267   */\n      add\n        /* \"#utility.yul\":2241:2267   */\n      swap1\n      pop\n        /* \"#utility.yul\":2313:2322   */\n      dup2\n        /* \"#utility.yul\":2307:2311   */\n      dup2\n        /* \"#utility.yul\":2303:2323   */\n      sub\n        /* \"#utility.yul\":2299:2300   */\n      0x00\n        /* \"#utility.yul\":2288:2297   */\n      dup4\n        /* \"#utility.yul\":2284:2301   */\n      add\n        /* \"#utility.yul\":2277:2324   */\n      mstore\n        /* \"#utility.yul\":2341:2472   */\n      tag_88\n        /* \"#utility.yul\":2467:2471   */\n      dup2\n        /* \"#utility.yul\":2341:2472   */\n      tag_75\n      jump\t// in\n    tag_88:\n        /* \"#utility.yul\":2333:2472   */\n      swap1\n      pop\n        /* \"#utility.yul\":2060:2479   */\n      swap2\n      swap1\n      pop\n      jump\t// out\n        /* \"#utility.yul\":2485:2904   */\n    tag_44:\n        /* \"#utility.yul\":2651:2655   */\n      0x00\n        /* \"#utility.yul\":2689:2691   */\n      0x20\n        /* \"#utility.yul\":2678:2687   */\n      dup3\n        /* \"#utility.yul\":2674:2692   */\n      add\n        /* \"#utility.yul\":2666:2692   */\n      swap1\n      pop\n        /* \"#utility.yul\":2738:2747   */\n      dup2\n        /* \"#utility.yul\":2732:2736   */\n      dup2\n        /* \"#utility.yul\":2728:2748   */\n      sub\n        /* \"#utility.yul\":2724:2725   */\n      0x00\n        /* \"#utility.yul\":2713:2722   */\n      dup4\n        /* \"#utility.yul\":2709:2726   */\n      add\n        /* \"#utility.yul\":2702:2749   */\n      mstore\n        /* \"#utility.yul\":2766:2897   */\n      tag_90\n        /* \"#utility.yul\":2892:2896   */\n      dup2\n        /* \"#utility.yul\":2766:2897   */\n      tag_80\n      jump\t// in\n    tag_90:\n        /* \"#utility.yul\":2758:2897   */\n      swap1\n      pop\n        /* \"#utility.yul\":2485:2904   */\n      swap2\n      swap1\n      pop\n      jump\t// out\n        /* \"#utility.yul\":2991:3160   */\n    tag_72:\n        /* \"#utility.yul\":3075:3086   */\n      0x00\n        /* \"#utility.yul\":3109:3115   */\n      dup3\n        /* \"#utility.yul\":3104:3107   */\n      dup3\n        /* \"#utility.yul\":3097:3116   */\n      mstore\n        /* \"#utility.yul\":3149:3153   */\n      0x20\n        /* \"#utility.yul\":3144:3147   */\n      dup3\n        /* \"#utility.yul\":3140:3154   */\n      add\n        /* \"#utility.yul\":3125:3154   */\n      swap1\n      pop\n        /* \"#utility.yul\":2991:3160   */\n      swap3\n      swap2\n      pop\n      pop\n      jump\t// out\n        /* \"#utility.yul\":3166:3270   */\n    tag_94:\n        /* \"#utility.yul\":3211:3218   */\n      0x00\n        /* \"#utility.yul\":3240:3264   */\n      tag_96\n        /* \"#utility.yul\":3258:3263   */\n      dup3\n        /* \"#utility.yul\":3240:3264   */\n      tag_97\n      jump\t// in\n    tag_96:\n        /* \"#utility.yul\":3229:3264   */\n      swap1\n      pop\n        /* \"#utility.yul\":3166:3270   */\n      swap2\n      swap1\n      pop\n      jump\t// out\n        /* \"#utility.yul\":3276:3402   */\n    tag_97:\n        /* \"#utility.yul\":3313:3320   */\n      0x00\n        /* \"#utility.yul\":3353:3395   */\n      0xffffffffffffffffffffffffffffffffffffffff\n        /* \"#utility.yul\":3346:3351   */\n      dup3\n        /* \"#utility.yul\":3342:3396   */\n      and\n        /* \"#utility.yul\":3331:3396   */\n      swap1\n      pop\n        /* \"#utility.yul\":3276:3402   */\n      swap2\n      swap1\n      pop\n      jump\t// out\n        /* \"#utility.yul\":3408:3588   */\n    tag_30:\n        /* \"#utility.yul\":3456:3533   */\n      0x4e487b7100000000000000000000000000000000000000000000000000000000\n        /* \"#utility.yul\":3453:3454   */\n      0x00\n        /* \"#utility.yul\":3446:3534   */\n      mstore\n        /* \"#utility.yul\":3553:3557   */\n      0x01\n        /* \"#utility.yul\":3550:3551   */\n      0x04\n        /* \"#utility.yul\":3543:3558   */\n      mstore\n        /* \"#utility.yul\":3577:3581   */\n      0x24\n        /* \"#utility.yul\":3574:3575   */\n      0x00\n        /* \"#utility.yul\":3567:3582   */\n      revert\n        /* \"#utility.yul\":3717:3834   */\n    tag_67:\n        /* \"#utility.yul\":3826:3827   */\n      0x00\n        /* \"#utility.yul\":3823:3824   */\n      dup1\n        /* \"#utility.yul\":3816:3828   */\n      revert\n        /* \"#utility.yul\":3840:4016   */\n    tag_74:\n        /* \"#utility.yul\":3980:4008   */\n      0x796f7520617265206e6f7420616e206f776e65722c2073686974000000000000\n        /* \"#utility.yul\":3976:3977   */\n      0x00\n        /* \"#utility.yul\":3968:3974   */\n      dup3\n        /* \"#utility.yul\":3964:3978   */\n      add\n        /* \"#utility.yul\":3957:4009   */\n      mstore\n        /* \"#utility.yul\":3840:4016   */\n      pop\n      jump\t// out\n        /* \"#utility.yul\":4022:4192   */\n    tag_79:\n        /* \"#utility.yul\":4162:4184   */\n      0x796f7520617265206e6f7420616e206f776e6572000000000000000000000000\n        /* \"#utility.yul\":4158:4159   */\n      0x00\n        /* \"#utility.yul\":4150:4156   */\n      dup3\n        /* \"#utility.yul\":4146:4160   */\n      add\n        /* \"#utility.yul\":4139:4185   */\n      mstore\n        /* \"#utility.yul\":4022:4192   */\n      pop\n      jump\t// out\n        /* \"#utility.yul\":4198:4365   */\n    tag_84:\n        /* \"#utility.yul\":4338:4357   */\n      0x696e636f72726563742061646472657373000000000000000000000000000000\n        /* \"#utility.yul\":4334:4335   */\n      0x00\n        /* \"#utility.yul\":4326:4332   */\n      dup3\n        /* \"#utility.yul\":4322:4336   */\n      add\n        /* \"#utility.yul\":4315:4358   */\n      mstore\n        /* \"#utility.yul\":4198:4365   */\n      pop\n      jump\t// out\n        /* \"#utility.yul\":4371:4509   */\n    tag_63:\n        /* \"#utility.yul\":4452:4484   */\n      tag_107\n        /* \"#utility.yul\":4478:4483   */\n      dup2\n        /* \"#utility.yul\":4452:4484   */\n      tag_94\n      jump\t// in\n    tag_107:\n        /* \"#utility.yul\":4445:4450   */\n      dup2\n        /* \"#utility.yul\":4442:4485   */\n      eq\n        /* \"#utility.yul\":4432:4503   */\n      tag_108\n      jumpi\n        /* \"#utility.yul\":4499:4500   */\n      0x00\n        /* \"#utility.yul\":4496:4497   */\n      dup1\n        /* \"#utility.yul\":4489:4501   */\n      revert\n        /* \"#utility.yul\":4432:4503   */\n    tag_108:\n        /* \"#utility.yul\":4371:4509   */\n      pop\n      jump\t// out\n\n    auxdata: 0xa2646970667358221220ff9485690a72330e2e250233cd1c3a03966d5c06e21398fd9f1dd96f0f6f489f64736f6c63430008070033\n}\n",
				"bytecode": {
					"linkReferences": {},
					"object": "608060405234801561001057600080fd5b50336000806101000a81548173ffffffffffffffffffffffffffffffffffffffff021916908373ffffffffffffffffffffffffffffffffffffffff16021790555061081b806100606000396000f3fe60806040526004361061004a5760003560e01c80631b9265b81461004f57806341629cdf1461005957806341f07182146100825780637a6ef969146100ab578063d7414cd3146100d4575b600080fd5b6100576100fd565b005b34801561006557600080fd5b50610080600480360381019061007b91906105e6565b6100ff565b005b34801561008e57600080fd5b506100a960048036038101906100a491906105e6565b6101a5565b005b3480156100b757600080fd5b506100d260048036038101906100cd91906105e6565b61027d565b005b3480156100e057600080fd5b506100fb60048036038101906100f691906105e6565b6104f9565b005b565b60008054906101000a900473ffffffffffffffffffffffffffffffffffffffff1673ffffffffffffffffffffffffffffffffffffffff163373ffffffffffffffffffffffffffffffffffffffff161461015b5761015a61071f565b5b8073ffffffffffffffffffffffffffffffffffffffff166108fc479081150290604051600060405180830381858888f193505050501580156101a1573d6000803e3d6000fd5b5050565b60008054906101000a900473ffffffffffffffffffffffffffffffffffffffff1673ffffffffffffffffffffffffffffffffffffffff163373ffffffffffffffffffffffffffffffffffffffff1614610233576040517f08c379a000000000000000000000000000000000000000000000000000000000815260040161022a9061069c565b60405180910390fd5b8073ffffffffffffffffffffffffffffffffffffffff166108fc479081150290604051600060405180830381858888f19350505050158015610279573d6000803e3d6000fd5b5050565b8060008054906101000a900473ffffffffffffffffffffffffffffffffffffffff1673ffffffffffffffffffffffffffffffffffffffff163373ffffffffffffffffffffffffffffffffffffffff161461030c576040517f08c379a00000000000000000000000000000000000000000000000000000000081526004016103039061069c565b60405180910390fd5b600160009054906101000a900473ffffffffffffffffffffffffffffffffffffffff1673ffffffffffffffffffffffffffffffffffffffff168173ffffffffffffffffffffffffffffffffffffffff16141561039d576040517f08c379a0000000000000000000000000000000000000000000000000000000008152600401610394906106bc565b60405180910390fd5b60008054906101000a900473ffffffffffffffffffffffffffffffffffffffff1673ffffffffffffffffffffffffffffffffffffffff163373ffffffffffffffffffffffffffffffffffffffff161461042b576040517f08c379a00000000000000000000000000000000000000000000000000000000081526004016104229061069c565b60405180910390fd5b8173ffffffffffffffffffffffffffffffffffffffff166108fc479081150290604051600060405180830381858888f19350505050158015610471573d6000803e3d6000fd5b50735b38da6a701c568545dcfcb03fcb875f56beddc473ffffffffffffffffffffffffffffffffffffffff168173ffffffffffffffffffffffffffffffffffffffff1614156104f5576040517f08c379a00000000000000000000000000000000000000000000000000000000081526004016104ec9061067c565b60405180910390fd5b5050565b60008054906101000a900473ffffffffffffffffffffffffffffffffffffffff1673ffffffffffffffffffffffffffffffffffffffff163373ffffffffffffffffffffffffffffffffffffffff1614610587576040517f08c379a000000000000000000000000000000000000000000000000000000000815260040161057e9061069c565b60405180910390fd5b8073ffffffffffffffffffffffffffffffffffffffff166108fc479081150290604051600060405180830381858888f193505050501580156105cd573d6000803e3d6000fd5b5050565b6000813590506105e0816107ce565b92915050565b6000602082840312156105fc576105fb61074e565b5b600061060a848285016105d1565b91505092915050565b6000610620601a836106dc565b915061062b82610753565b602082019050919050565b60006106436014836106dc565b915061064e8261077c565b602082019050919050565b60006106666011836106dc565b9150610671826107a5565b602082019050919050565b6000602082019050818103600083015261069581610613565b9050919050565b600060208201905081810360008301526106b581610636565b9050919050565b600060208201905081810360008301526106d581610659565b9050919050565b600082825260208201905092915050565b60006106f8826106ff565b9050919050565b600073ffffffffffffffffffffffffffffffffffffffff82169050919050565b7f4e487b7100000000000000000000000000000000000000000000000000000000600052600160045260246000fd5b600080fd5b7f796f7520617265206e6f7420616e206f776e65722c2073686974000000000000600082015250565b7f796f7520617265206e6f7420616e206f776e6572000000000000000000000000600082015250565b7f696e636f72726563742061646472657373000000000000000000000000000000600082015250565b6107d7816106ed565b81146107e257600080fd5b5056fea2646970667358221220ff9485690a72330e2e250233cd1c3a03966d5c06e21398fd9f1dd96f0f6f489f64736f6c63430008070033",
					"opcodes": "PUSH1 0x80 PUSH1 0x40 MSTORE CALLVALUE DUP1 ISZERO PUSH2 0x10 JUMPI PUSH1 0x0 DUP1 REVERT JUMPDEST POP CALLER PUSH1 0x0 DUP1 PUSH2 0x100 EXP DUP2 SLOAD DUP2 PUSH20 0xFFFFFFFFFFFFFFFFFFFFFFFFFFFFFFFFFFFFFFFF MUL NOT AND SWAP1 DUP4 PUSH20 0xFFFFFFFFFFFFFFFFFFFFFFFFFFFFFFFFFFFFFFFF AND MUL OR SWAP1 SSTORE POP PUSH2 0x81B DUP1 PUSH2 0x60 PUSH1 0x0 CODECOPY PUSH1 0x0 RETURN INVALID PUSH1 0x80 PUSH1 0x40 MSTORE PUSH1 0x4 CALLDATASIZE LT PUSH2 0x4A JUMPI PUSH1 0x0 CALLDATALOAD PUSH1 0xE0 SHR DUP1 PUSH4 0x1B9265B8 EQ PUSH2 0x4F JUMPI DUP1 PUSH4 0x41629CDF EQ PUSH2 0x59 JUMPI DUP1 PUSH4 0x41F07182 EQ PUSH2 0x82 JUMPI DUP1 PUSH4 0x7A6EF969 EQ PUSH2 0xAB JUMPI DUP1 PUSH4 0xD7414CD3 EQ PUSH2 0xD4 JUMPI JUMPDEST PUSH1 0x0 DUP1 REVERT JUMPDEST PUSH2 0x57 PUSH2 0xFD JUMP JUMPDEST STOP JUMPDEST CALLVALUE DUP1 ISZERO PUSH2 0x65 JUMPI PUSH1 0x0 DUP1 REVERT JUMPDEST POP PUSH2 0x80 PUSH1 0x4 DUP1 CALLDATASIZE SUB DUP2 ADD SWAP1 PUSH2 0x7B SWAP2 SWAP1 PUSH2 0x5E6 JUMP JUMPDEST PUSH2 0xFF JUMP JUMPDEST STOP JUMPDEST CALLVALUE DUP1 ISZERO PUSH2 0x8E JUMPI PUSH1 0x0 DUP1 REVERT JUMPDEST POP PUSH2 0xA9 PUSH1 0x4 DUP1 CALLDATASIZE SUB DUP2 ADD SWAP1 PUSH2 0xA4 SWAP2 SWAP1 PUSH2 0x5E6 JUMP JUMPDEST PUSH2 0x1A5 JUMP JUMPDEST STOP JUMPDEST CALLVALUE DUP1 ISZERO PUSH2 0xB7 JUMPI PUSH1 0x0 DUP1 REVERT JUMPDEST POP PUSH2 0xD2 PUSH1 0x4 DUP1 CALLDATASIZE SUB DUP2 ADD SWAP1 PUSH2 0xCD SWAP2 SWAP1 PUSH2 0x5E6 JUMP JUMPDEST PUSH2 0x27D JUMP JUMPDEST STOP JUMPDEST CALLVALUE DUP1 ISZERO PUSH2 0xE0 JUMPI PUSH1 0x0 DUP1 REVERT JUMPDEST POP PUSH2 0xFB PUSH1 0x4 DUP1 CALLDATASIZE SUB DUP2 ADD SWAP1 PUSH2 0xF6 SWAP2 SWAP1 PUSH2 0x5E6 JUMP JUMPDEST PUSH2 0x4F9 JUMP JUMPDEST STOP JUMPDEST JUMP JUMPDEST PUSH1 0x0 DUP1 SLOAD SWAP1 PUSH2 0x100 EXP SWAP1 DIV PUSH20 0xFFFFFFFFFFFFFFFFFFFFFFFFFFFFFFFFFFFFFFFF AND PUSH20 0xFFFFFFFFFFFFFFFFFFFFFFFFFFFFFFFFFFFFFFFF AND CALLER PUSH20 0xFFFFFFFFFFFFFFFFFFFFFFFFFFFFFFFFFFFFFFFF AND EQ PUSH2 0x15B JUMPI PUSH2 0x15A PUSH2 0x71F JUMP JUMPDEST JUMPDEST DUP1 PUSH20 0xFFFFFFFFFFFFFFFFFFFFFFFFFFFFFFFFFFFFFFFF AND PUSH2 0x8FC SELFBALANCE SWAP1 DUP2 ISZERO MUL SWAP1 PUSH1 0x40 MLOAD PUSH1 0x0 PUSH1 0x40 MLOAD DUP1 DUP4 SUB DUP2 DUP6 DUP9 DUP9 CALL SWAP4 POP POP POP POP ISZERO DUP1 ISZERO PUSH2 0x1A1 JUMPI RETURNDATASIZE PUSH1 0x0 DUP1 RETURNDATACOPY RETURNDATASIZE PUSH1 0x0 REVERT JUMPDEST POP POP JUMP JUMPDEST PUSH1 0x0 DUP1 SLOAD SWAP1 PUSH2 0x100 EXP SWAP1 DIV PUSH20 0xFFFFFFFFFFFFFFFFFFFFFFFFFFFFFFFFFFFFFFFF AND PUSH20 0xFFFFFFFFFFFFFFFFFFFFFFFFFFFFFFFFFFFFFFFF AND CALLER PUSH20 0xFFFFFFFFFFFFFFFFFFFFFFFFFFFFFFFFFFFFFFFF AND EQ PUSH2 0x233 JUMPI PUSH1 0x40 MLOAD PUSH32 0x8C379A000000000000000000000000000000000000000000000000000000000 DUP2 MSTORE PUSH1 0x4 ADD PUSH2 0x22A SWAP1 PUSH2 0x69C JUMP JUMPDEST PUSH1 0x40 MLOAD DUP1 SWAP2 SUB SWAP1 REVERT JUMPDEST DUP1 PUSH20 0xFFFFFFFFFFFFFFFFFFFFFFFFFFFFFFFFFFFFFFFF AND PUSH2 0x8FC SELFBALANCE SWAP1 DUP2 ISZERO MUL SWAP1 PUSH1 0x40 MLOAD PUSH1 0x0 PUSH1 0x40 MLOAD DUP1 DUP4 SUB DUP2 DUP6 DUP9 DUP9 CALL SWAP4 POP POP POP POP ISZERO DUP1 ISZERO PUSH2 0x279 JUMPI RETURNDATASIZE PUSH1 0x0 DUP1 RETURNDATACOPY RETURNDATASIZE PUSH1 0x0 REVERT JUMPDEST POP POP JUMP JUMPDEST DUP1 PUSH1 0x0 DUP1 SLOAD SWAP1 PUSH2 0x100 EXP SWAP1 DIV PUSH20 0xFFFFFFFFFFFFFFFFFFFFFFFFFFFFFFFFFFFFFFFF AND PUSH20 0xFFFFFFFFFFFFFFFFFFFFFFFFFFFFFFFFFFFFFFFF AND CALLER PUSH20 0xFFFFFFFFFFFFFFFFFFFFFFFFFFFFFFFFFFFFFFFF AND EQ PUSH2 0x30C JUMPI PUSH1 0x40 MLOAD PUSH32 0x8C379A000000000000000000000000000000000000000000000000000000000 DUP2 MSTORE PUSH1 0x4 ADD PUSH2 0x303 SWAP1 PUSH2 0x69C JUMP JUMPDEST PUSH1 0x40 MLOAD DUP1 SWAP2 SUB SWAP1 REVERT JUMPDEST PUSH1 0x1 PUSH1 0x0 SWAP1 SLOAD SWAP1 PUSH2 0x100 EXP SWAP1 DIV PUSH20 0xFFFFFFFFFFFFFFFFFFFFFFFFFFFFFFFFFFFFFFFF AND PUSH20 0xFFFFFFFFFFFFFFFFFFFFFFFFFFFFFFFFFFFFFFFF AND DUP2 PUSH20 0xFFFFFFFFFFFFFFFFFFFFFFFFFFFFFFFFFFFFFFFF AND EQ ISZERO PUSH2 0x39D JUMPI PUSH1 0x40 MLOAD PUSH32 0x8C379A000000000000000000000000000000000000000000000000000000000 DUP2 MSTORE PUSH1 0x4 ADD PUSH2 0x394 SWAP1 PUSH2 0x6BC JUMP JUMPDEST PUSH1 0x40 MLOAD DUP1 SWAP2 SUB SWAP1 REVERT JUMPDEST PUSH1 0x0 DUP1 SLOAD SWAP1 PUSH2 0x100 EXP SWAP1 DIV PUSH20 0xFFFFFFFFFFFFFFFFFFFFFFFFFFFFFFFFFFFFFFFF AND PUSH20 0xFFFFFFFFFFFFFFFFFFFFFFFFFFFFFFFFFFFFFFFF AND CALLER PUSH20 0xFFFFFFFFFFFFFFFFFFFFFFFFFFFFFFFFFFFFFFFF AND EQ PUSH2 0x42B JUMPI PUSH1 0x40 MLOAD PUSH32 0x8C379A000000000000000000000000000000000000000000000000000000000 DUP2 MSTORE PUSH1 0x4 ADD PUSH2 0x422 SWAP1 PUSH2 0x69C JUMP JUMPDEST PUSH1 0x40 MLOAD DUP1 SWAP2 SUB SWAP1 REVERT JUMPDEST DUP2 PUSH20 0xFFFFFFFFFFFFFFFFFFFFFFFFFFFFFFFFFFFFFFFF AND PUSH2 0x8FC SELFBALANCE SWAP1 DUP2 ISZERO MUL SWAP1 PUSH1 0x40 MLOAD PUSH1 0x0 PUSH1 0x40 MLOAD DUP1 DUP4 SUB DUP2 DUP6 DUP9 DUP9 CALL SWAP4 POP POP POP POP ISZERO DUP1 ISZERO PUSH2 0x471 JUMPI RETURNDATASIZE PUSH1 0x0 DUP1 RETURNDATACOPY RETURNDATASIZE PUSH1 0x0 REVERT JUMPDEST POP PUSH20 0x5B38DA6A701C568545DCFCB03FCB875F56BEDDC4 PUSH20 0xFFFFFFFFFFFFFFFFFFFFFFFFFFFFFFFFFFFFFFFF AND DUP2 PUSH20 0xFFFFFFFFFFFFFFFFFFFFFFFFFFFFFFFFFFFFFFFF AND EQ ISZERO PUSH2 0x4F5 JUMPI PUSH1 0x40 MLOAD PUSH32 0x8C379A000000000000000000000000000000000000000000000000000000000 DUP2 MSTORE PUSH1 0x4 ADD PUSH2 0x4EC SWAP1 PUSH2 0x67C JUMP JUMPDEST PUSH1 0x40 MLOAD DUP1 SWAP2 SUB SWAP1 REVERT JUMPDEST POP POP JUMP JUMPDEST PUSH1 0x0 DUP1 SLOAD SWAP1 PUSH2 0x100 EXP SWAP1 DIV PUSH20 0xFFFFFFFFFFFFFFFFFFFFFFFFFFFFFFFFFFFFFFFF AND PUSH20 0xFFFFFFFFFFFFFFFFFFFFFFFFFFFFFFFFFFFFFFFF AND CALLER PUSH20 0xFFFFFFFFFFFFFFFFFFFFFFFFFFFFFFFFFFFFFFFF AND EQ PUSH2 0x587 JUMPI PUSH1 0x40 MLOAD PUSH32 0x8C379A000000000000000000000000000000000000000000000000000000000 DUP2 MSTORE PUSH1 0x4 ADD PUSH2 0x57E SWAP1 PUSH2 0x69C JUMP JUMPDEST PUSH1 0x40 MLOAD DUP1 SWAP2 SUB SWAP1 REVERT JUMPDEST DUP1 PUSH20 0xFFFFFFFFFFFFFFFFFFFFFFFFFFFFFFFFFFFFFFFF AND PUSH2 0x8FC SELFBALANCE SWAP1 DUP2 ISZERO MUL SWAP1 PUSH1 0x40 MLOAD PUSH1 0x0 PUSH1 0x40 MLOAD DUP1 DUP4 SUB DUP2 DUP6 DUP9 DUP9 CALL SWAP4 POP POP POP POP ISZERO DUP1 ISZERO PUSH2 0x5CD JUMPI RETURNDATASIZE PUSH1 0x0 DUP1 RETURNDATACOPY RETURNDATASIZE PUSH1 0x0 REVERT JUMPDEST POP POP JUMP JUMPDEST PUSH1 0x0 DUP2 CALLDATALOAD SWAP1 POP PUSH2 0x5E0 DUP2 PUSH2 0x7CE JUMP JUMPDEST SWAP3 SWAP2 POP POP JUMP JUMPDEST PUSH1 0x0 PUSH1 0x20 DUP3 DUP5 SUB SLT ISZERO PUSH2 0x5FC JUMPI PUSH2 0x5FB PUSH2 0x74E JUMP JUMPDEST JUMPDEST PUSH1 0x0 PUSH2 0x60A DUP5 DUP3 DUP6 ADD PUSH2 0x5D1 JUMP JUMPDEST SWAP2 POP POP SWAP3 SWAP2 POP POP JUMP JUMPDEST PUSH1 0x0 PUSH2 0x620 PUSH1 0x1A DUP4 PUSH2 0x6DC JUMP JUMPDEST SWAP2 POP PUSH2 0x62B DUP3 PUSH2 0x753 JUMP JUMPDEST PUSH1 0x20 DUP3 ADD SWAP1 POP SWAP2 SWAP1 POP JUMP JUMPDEST PUSH1 0x0 PUSH2 0x643 PUSH1 0x14 DUP4 PUSH2 0x6DC JUMP JUMPDEST SWAP2 POP PUSH2 0x64E DUP3 PUSH2 0x77C JUMP JUMPDEST PUSH1 0x20 DUP3 ADD SWAP1 POP SWAP2 SWAP1 POP JUMP JUMPDEST PUSH1 0x0 PUSH2 0x666 PUSH1 0x11 DUP4 PUSH2 0x6DC JUMP JUMPDEST SWAP2 POP PUSH2 0x671 DUP3 PUSH2 0x7A5 JUMP JUMPDEST PUSH1 0x20 DUP3 ADD SWAP1 POP SWAP2 SWAP1 POP JUMP JUMPDEST PUSH1 0x0 PUSH1 0x20 DUP3 ADD SWAP1 POP DUP2 DUP2 SUB PUSH1 0x0 DUP4 ADD MSTORE PUSH2 0x695 DUP2 PUSH2 0x613 JUMP JUMPDEST SWAP1 POP SWAP2 SWAP1 POP JUMP JUMPDEST PUSH1 0x0 PUSH1 0x20 DUP3 ADD SWAP1 POP DUP2 DUP2 SUB PUSH1 0x0 DUP4 ADD MSTORE PUSH2 0x6B5 DUP2 PUSH2 0x636 JUMP JUMPDEST SWAP1 POP SWAP2 SWAP1 POP JUMP JUMPDEST PUSH1 0x0 PUSH1 0x20 DUP3 ADD SWAP1 POP DUP2 DUP2 SUB PUSH1 0x0 DUP4 ADD MSTORE PUSH2 0x6D5 DUP2 PUSH2 0x659 JUMP JUMPDEST SWAP1 POP SWAP2 SWAP1 POP JUMP JUMPDEST PUSH1 0x0 DUP3 DUP3 MSTORE PUSH1 0x20 DUP3 ADD SWAP1 POP SWAP3 SWAP2 POP POP JUMP JUMPDEST PUSH1 0x0 PUSH2 0x6F8 DUP3 PUSH2 0x6FF JUMP JUMPDEST SWAP1 POP SWAP2 SWAP1 POP JUMP JUMPDEST PUSH1 0x0 PUSH20 0xFFFFFFFFFFFFFFFFFFFFFFFFFFFFFFFFFFFFFFFF DUP3 AND SWAP1 POP SWAP2 SWAP1 POP JUMP JUMPDEST PUSH32 0x4E487B7100000000000000000000000000000000000000000000000000000000 PUSH1 0x0 MSTORE PUSH1 0x1 PUSH1 0x4 MSTORE PUSH1 0x24 PUSH1 0x0 REVERT JUMPDEST PUSH1 0x0 DUP1 REVERT JUMPDEST PUSH32 0x796F7520617265206E6F7420616E206F776E65722C2073686974000000000000 PUSH1 0x0 DUP3 ADD MSTORE POP JUMP JUMPDEST PUSH32 0x796F7520617265206E6F7420616E206F776E6572000000000000000000000000 PUSH1 0x0 DUP3 ADD MSTORE POP JUMP JUMPDEST PUSH32 0x696E636F72726563742061646472657373000000000000000000000000000000 PUSH1 0x0 DUP3 ADD MSTORE POP JUMP JUMPDEST PUSH2 0x7D7 DUP2 PUSH2 0x6ED JUMP JUMPDEST DUP2 EQ PUSH2 0x7E2 JUMPI PUSH1 0x0 DUP1 REVERT JUMPDEST POP JUMP INVALID LOG2 PUSH5 0x6970667358 0x22 SLT KECCAK256 SELFDESTRUCT SWAP5 DUP6 PUSH10 0xA72330E2E250233CD1C GASPRICE SUB SWAP7 PUSH14 0x5C06E21398FD9F1DD96F0F6F489F PUSH5 0x736F6C6343 STOP ADDMOD SMOD STOP CALLER "
				},
				"gasEstimates": {
					"creation": {
						"codeDepositCost": "415000",
						"executionCost": "24715",
						"totalCost": "439715"
					},
					"external": {
						"pay()": "98",
						"withdraw_assert(address)": "infinite",
						"withdraw_require(address)": "infinite",
						"withdraw_require_modifier(address)": "infinite",
						"withdraw_revert(address)": "infinite"
					}
				},
				"methodIdentifiers": {
					"pay()": "1b9265b8",
					"withdraw_assert(address)": "41629cdf",
					"withdraw_require(address)": "41f07182",
					"withdraw_require_modifier(address)": "7a6ef969",
					"withdraw_revert(address)": "d7414cd3"
				}
			},
			"storageLayout": {
				"storage": [
					{
						"astId": 3,
						"contract": "07_lesson_/DEMO.sol:Demo",
						"label": "owner",
						"offset": 0,
						"slot": "0",
						"type": "t_address"
					},
					{
						"astId": 5,
						"contract": "07_lesson_/DEMO.sol:Demo",
						"label": "zeroAddr",
						"offset": 0,
						"slot": "1",
						"type": "t_address"
					}
				],
				"types": {
					"t_address": {
						"encoding": "inplace",
						"label": "address",
						"numberOfBytes": "20"
					}
				}
			},
			"userdoc": {
				"kind": "user",
				"methods": {},
				"version": 1
			}
		}
	}
}