{
	"07_lesson_/DEMO.sol": {
		"Demo": {
			"abi": [
				{
					"inputs": [],
					"stateMutability": "nonpayable",
					"type": "constructor"
				},
				{
					"inputs": [],
					"name": "pay",
					"outputs": [],
					"stateMutability": "payable",
					"type": "function"
				},
				{
					"inputs": [
						{
							"internalType": "address payable",
							"name": "_to",
							"type": "address"
						}
					],
					"name": "withdraw_assert",
					"outputs": [],
					"stateMutability": "nonpayable",
					"type": "function"
				},
				{
					"inputs": [
						{
							"internalType": "address payable",
							"name": "_to",
							"type": "address"
						}
					],
					"name": "withdraw_require",
					"outputs": [],
					"stateMutability": "nonpayable",
					"type": "function"
				},
				{
					"inputs": [
						{
							"internalType": "address payable",
							"name": "_to",
							"type": "address"
						}
					],
					"name": "withdraw_revert",
					"outputs": [],
					"stateMutability": "nonpayable",
					"type": "function"
				}
			],
			"devdoc": {
				"kind": "dev",
				"methods": {},
				"version": 1
			},
			"evm": {
				"assembly": "    /* \"07_lesson_/DEMO.sol\":58:860  contract Demo {... */\n  mstore(0x40, 0x80)\n    /* \"07_lesson_/DEMO.sol\":141:190  constructor() {... */\n  callvalue\n  dup1\n  iszero\n  tag_1\n  jumpi\n  0x00\n  dup1\n  revert\ntag_1:\n  pop\n    /* \"07_lesson_/DEMO.sol\":173:183  msg.sender */\n  caller\n    /* \"07_lesson_/DEMO.sol\":165:170  owner */\n  0x00\n  dup1\n    /* \"07_lesson_/DEMO.sol\":165:183  owner = msg.sender */\n  0x0100\n  exp\n  dup2\n  sload\n  dup2\n  0xffffffffffffffffffffffffffffffffffffffff\n  mul\n  not\n  and\n  swap1\n  dup4\n  0xffffffffffffffffffffffffffffffffffffffff\n  and\n  mul\n  or\n  swap1\n  sstore\n  pop\n    /* \"07_lesson_/DEMO.sol\":58:860  contract Demo {... */\n  dataSize(sub_0)\n  dup1\n  dataOffset(sub_0)\n  0x00\n  codecopy\n  0x00\n  return\nstop\n\nsub_0: assembly {\n        /* \"07_lesson_/DEMO.sol\":58:860  contract Demo {... */\n      mstore(0x40, 0x80)\n      jumpi(tag_1, lt(calldatasize, 0x04))\n      shr(0xe0, calldataload(0x00))\n      dup1\n      0x1b9265b8\n      eq\n      tag_2\n      jumpi\n      dup1\n      0x41629cdf\n      eq\n      tag_3\n      jumpi\n      dup1\n      0x41f07182\n      eq\n      tag_4\n      jumpi\n      dup1\n      0xd7414cd3\n      eq\n      tag_5\n      jumpi\n    tag_1:\n      0x00\n      dup1\n      revert\n        /* \"07_lesson_/DEMO.sol\":196:236  function pay() external payable {... */\n    tag_2:\n      tag_6\n      tag_7\n      jump\t// in\n    tag_6:\n      stop\n        /* \"07_lesson_/DEMO.sol\":640:856  function withdraw_assert(address payable _to) external {... */\n    tag_3:\n      callvalue\n      dup1\n      iszero\n      tag_8\n      jumpi\n      0x00\n      dup1\n      revert\n    tag_8:\n      pop\n      tag_9\n      0x04\n      dup1\n      calldatasize\n      sub\n      dup2\n      add\n      swap1\n      tag_10\n      swap2\n      swap1\n      tag_11\n      jump\t// in\n    tag_10:\n      tag_12\n      jump\t// in\n    tag_9:\n      stop\n        /* \"07_lesson_/DEMO.sol\":242:412  function withdraw_require(address payable _to) external {... */\n    tag_4:\n      callvalue\n      dup1\n      iszero\n      tag_13\n      jumpi\n      0x00\n      dup1\n      revert\n    tag_13:\n      pop\n      tag_14\n      0x04\n      dup1\n      calldatasize\n      sub\n      dup2\n      add\n      swap1\n      tag_15\n      swap2\n      swap1\n      tag_11\n      jump\t// in\n    tag_15:\n      tag_16\n      jump\t// in\n    tag_14:\n      stop\n        /* \"07_lesson_/DEMO.sol\":418:634  function withdraw_revert(address payable _to) external {... */\n    tag_5:\n      callvalue\n      dup1\n      iszero\n      tag_17\n      jumpi\n      0x00\n      dup1\n      revert\n    tag_17:\n      pop\n      tag_18\n      0x04\n      dup1\n      calldatasize\n      sub\n      dup2\n      add\n      swap1\n      tag_19\n      swap2\n      swap1\n      tag_11\n      jump\t// in\n    tag_19:\n      tag_20\n      jump\t// in\n    tag_18:\n      stop\n        /* \"07_lesson_/DEMO.sol\":196:236  function pay() external payable {... */\n    tag_7:\n      jump\t// out\n        /* \"07_lesson_/DEMO.sol\":640:856  function withdraw_assert(address payable _to) external {... */\n    tag_12:\n        /* \"07_lesson_/DEMO.sol\":722:727  owner */\n      0x00\n      dup1\n      sload\n      swap1\n      0x0100\n      exp\n      swap1\n      div\n      0xffffffffffffffffffffffffffffffffffffffff\n      and\n        /* \"07_lesson_/DEMO.sol\":708:727  msg.sender != owner */\n      0xffffffffffffffffffffffffffffffffffffffff\n      and\n        /* \"07_lesson_/DEMO.sol\":708:718  msg.sender */\n      caller\n        /* \"07_lesson_/DEMO.sol\":708:727  msg.sender != owner */\n      0xffffffffffffffffffffffffffffffffffffffff\n      and\n      eq\n        /* \"07_lesson_/DEMO.sol\":705:850  if(msg.sender != owner) {... */\n      tag_23\n      jumpi\n        /* \"07_lesson_/DEMO.sol\":743:773  revert(\"you are not an owner\") */\n      mload(0x40)\n      0x08c379a000000000000000000000000000000000000000000000000000000000\n      dup2\n      mstore\n      0x04\n      add\n      tag_24\n      swap1\n      tag_25\n      jump\t// in\n    tag_24:\n      mload(0x40)\n      dup1\n      swap2\n      sub\n      swap1\n      revert\n        /* \"07_lesson_/DEMO.sol\":705:850  if(msg.sender != owner) {... */\n    tag_23:\n        /* \"07_lesson_/DEMO.sol\":804:807  _to */\n      dup1\n        /* \"07_lesson_/DEMO.sol\":804:816  _to.transfer */\n      0xffffffffffffffffffffffffffffffffffffffff\n      and\n        /* \"07_lesson_/DEMO.sol\":804:839  _to.transfer(address(this).balance) */\n      0x08fc\n        /* \"07_lesson_/DEMO.sol\":817:838  address(this).balance */\n      selfbalance\n        /* \"07_lesson_/DEMO.sol\":804:839  _to.transfer(address(this).balance) */\n      swap1\n      dup2\n      iszero\n      mul\n      swap1\n      mload(0x40)\n      0x00\n      mload(0x40)\n      dup1\n      dup4\n      sub\n      dup2\n      dup6\n      dup9\n      dup9\n      call\n      swap4\n      pop\n      pop\n      pop\n      pop\n      iszero\n      dup1\n      iszero\n      tag_28\n      jumpi\n      returndatasize\n      0x00\n      dup1\n      returndatacopy\n      revert(0x00, returndatasize)\n    tag_28:\n      pop\n        /* \"07_lesson_/DEMO.sol\":640:856  function withdraw_assert(address payable _to) external {... */\n      pop\n      jump\t// out\n        /* \"07_lesson_/DEMO.sol\":242:412  function withdraw_require(address payable _to) external {... */\n    tag_16:\n        /* \"07_lesson_/DEMO.sol\":330:335  owner */\n      0x00\n      dup1\n      sload\n      swap1\n      0x0100\n      exp\n      swap1\n      div\n      0xffffffffffffffffffffffffffffffffffffffff\n      and\n        /* \"07_lesson_/DEMO.sol\":316:335  msg.sender == owner */\n      0xffffffffffffffffffffffffffffffffffffffff\n      and\n        /* \"07_lesson_/DEMO.sol\":316:326  msg.sender */\n      caller\n        /* \"07_lesson_/DEMO.sol\":316:335  msg.sender == owner */\n      0xffffffffffffffffffffffffffffffffffffffff\n      and\n      eq\n        /* \"07_lesson_/DEMO.sol\":308:360  require(msg.sender == owner, \"you are not an owner\") */\n      tag_30\n      jumpi\n      mload(0x40)\n      0x08c379a000000000000000000000000000000000000000000000000000000000\n      dup2\n      mstore\n      0x04\n      add\n      tag_31\n      swap1\n      tag_25\n      jump\t// in\n    tag_31:\n      mload(0x40)\n      dup1\n      swap2\n      sub\n      swap1\n      revert\n    tag_30:\n        /* \"07_lesson_/DEMO.sol\":370:373  _to */\n      dup1\n        /* \"07_lesson_/DEMO.sol\":370:382  _to.transfer */\n      0xffffffffffffffffffffffffffffffffffffffff\n      and\n        /* \"07_lesson_/DEMO.sol\":370:405  _to.transfer(address(this).balance) */\n      0x08fc\n        /* \"07_lesson_/DEMO.sol\":383:404  address(this).balance */\n      selfbalance\n        /* \"07_lesson_/DEMO.sol\":370:405  _to.transfer(address(this).balance) */\n      swap1\n      dup2\n      iszero\n      mul\n      swap1\n      mload(0x40)\n      0x00\n      mload(0x40)\n      dup1\n      dup4\n      sub\n      dup2\n      dup6\n      dup9\n      dup9\n      call\n      swap4\n      pop\n      pop\n      pop\n      pop\n      iszero\n      dup1\n      iszero\n      tag_33\n      jumpi\n      returndatasize\n      0x00\n      dup1\n      returndatacopy\n      revert(0x00, returndatasize)\n    tag_33:\n      pop\n        /* \"07_lesson_/DEMO.sol\":242:412  function withdraw_require(address payable _to) external {... */\n      pop\n      jump\t// out\n        /* \"07_lesson_/DEMO.sol\":418:634  function withdraw_revert(address payable _to) external {... */\n    tag_20:\n        /* \"07_lesson_/DEMO.sol\":500:505  owner */\n      0x00\n      dup1\n      sload\n      swap1\n      0x0100\n      exp\n      swap1\n      div\n      0xffffffffffffffffffffffffffffffffffffffff\n      and\n        /* \"07_lesson_/DEMO.sol\":486:505  msg.sender != owner */\n      0xffffffffffffffffffffffffffffffffffffffff\n      and\n        /* \"07_lesson_/DEMO.sol\":486:496  msg.sender */\n      caller\n        /* \"07_lesson_/DEMO.sol\":486:505  msg.sender != owner */\n      0xffffffffffffffffffffffffffffffffffffffff\n      and\n      eq\n        /* \"07_lesson_/DEMO.sol\":483:628  if(msg.sender != owner) {... */\n      tag_35\n      jumpi\n        /* \"07_lesson_/DEMO.sol\":521:551  revert(\"you are not an owner\") */\n      mload(0x40)\n      0x08c379a000000000000000000000000000000000000000000000000000000000\n      dup2\n      mstore\n      0x04\n      add\n      tag_36\n      swap1\n      tag_25\n      jump\t// in\n    tag_36:\n      mload(0x40)\n      dup1\n      swap2\n      sub\n      swap1\n      revert\n        /* \"07_lesson_/DEMO.sol\":483:628  if(msg.sender != owner) {... */\n    tag_35:\n        /* \"07_lesson_/DEMO.sol\":582:585  _to */\n      dup1\n        /* \"07_lesson_/DEMO.sol\":582:594  _to.transfer */\n      0xffffffffffffffffffffffffffffffffffffffff\n      and\n        /* \"07_lesson_/DEMO.sol\":582:617  _to.transfer(address(this).balance) */\n      0x08fc\n        /* \"07_lesson_/DEMO.sol\":595:616  address(this).balance */\n      selfbalance\n        /* \"07_lesson_/DEMO.sol\":582:617  _to.transfer(address(this).balance) */\n      swap1\n      dup2\n      iszero\n      mul\n      swap1\n      mload(0x40)\n      0x00\n      mload(0x40)\n      dup1\n      dup4\n      sub\n      dup2\n      dup6\n      dup9\n      dup9\n      call\n      swap4\n      pop\n      pop\n      pop\n      pop\n      iszero\n      dup1\n      iszero\n      tag_39\n      jumpi\n      returndatasize\n      0x00\n      dup1\n      returndatacopy\n      revert(0x00, returndatasize)\n    tag_39:\n      pop\n        /* \"07_lesson_/DEMO.sol\":418:634  function withdraw_revert(address payable _to) external {... */\n      pop\n      jump\t// out\n        /* \"#utility.yul\":7:162   */\n    tag_41:\n        /* \"#utility.yul\":61:66   */\n      0x00\n        /* \"#utility.yul\":99:105   */\n      dup2\n        /* \"#utility.yul\":86:106   */\n      calldataload\n        /* \"#utility.yul\":77:106   */\n      swap1\n      pop\n        /* \"#utility.yul\":115:156   */\n      tag_43\n        /* \"#utility.yul\":150:155   */\n      dup2\n        /* \"#utility.yul\":115:156   */\n      tag_44\n      jump\t// in\n    tag_43:\n        /* \"#utility.yul\":7:162   */\n      swap3\n      swap2\n      pop\n      pop\n      jump\t// out\n        /* \"#utility.yul\":168:513   */\n    tag_11:\n        /* \"#utility.yul\":235:241   */\n      0x00\n        /* \"#utility.yul\":284:286   */\n      0x20\n        /* \"#utility.yul\":272:281   */\n      dup3\n        /* \"#utility.yul\":263:270   */\n      dup5\n        /* \"#utility.yul\":259:282   */\n      sub\n        /* \"#utility.yul\":255:287   */\n      slt\n        /* \"#utility.yul\":252:371   */\n      iszero\n      tag_46\n      jumpi\n        /* \"#utility.yul\":290:369   */\n      tag_47\n      tag_48\n      jump\t// in\n    tag_47:\n        /* \"#utility.yul\":252:371   */\n    tag_46:\n        /* \"#utility.yul\":410:411   */\n      0x00\n        /* \"#utility.yul\":435:496   */\n      tag_49\n        /* \"#utility.yul\":488:495   */\n      dup5\n        /* \"#utility.yul\":479:485   */\n      dup3\n        /* \"#utility.yul\":468:477   */\n      dup6\n        /* \"#utility.yul\":464:486   */\n      add\n        /* \"#utility.yul\":435:496   */\n      tag_41\n      jump\t// in\n    tag_49:\n        /* \"#utility.yul\":425:496   */\n      swap2\n      pop\n        /* \"#utility.yul\":381:506   */\n      pop\n        /* \"#utility.yul\":168:513   */\n      swap3\n      swap2\n      pop\n      pop\n      jump\t// out\n        /* \"#utility.yul\":519:885   */\n    tag_50:\n        /* \"#utility.yul\":661:664   */\n      0x00\n        /* \"#utility.yul\":682:749   */\n      tag_52\n        /* \"#utility.yul\":746:748   */\n      0x14\n        /* \"#utility.yul\":741:744   */\n      dup4\n        /* \"#utility.yul\":682:749   */\n      tag_53\n      jump\t// in\n    tag_52:\n        /* \"#utility.yul\":675:749   */\n      swap2\n      pop\n        /* \"#utility.yul\":758:851   */\n      tag_54\n        /* \"#utility.yul\":847:850   */\n      dup3\n        /* \"#utility.yul\":758:851   */\n      tag_55\n      jump\t// in\n    tag_54:\n        /* \"#utility.yul\":876:878   */\n      0x20\n        /* \"#utility.yul\":871:874   */\n      dup3\n        /* \"#utility.yul\":867:879   */\n      add\n        /* \"#utility.yul\":860:879   */\n      swap1\n      pop\n        /* \"#utility.yul\":519:885   */\n      swap2\n      swap1\n      pop\n      jump\t// out\n        /* \"#utility.yul\":891:1310   */\n    tag_25:\n        /* \"#utility.yul\":1057:1061   */\n      0x00\n        /* \"#utility.yul\":1095:1097   */\n      0x20\n        /* \"#utility.yul\":1084:1093   */\n      dup3\n        /* \"#utility.yul\":1080:1098   */\n      add\n        /* \"#utility.yul\":1072:1098   */\n      swap1\n      pop\n        /* \"#utility.yul\":1144:1153   */\n      dup2\n        /* \"#utility.yul\":1138:1142   */\n      dup2\n        /* \"#utility.yul\":1134:1154   */\n      sub\n        /* \"#utility.yul\":1130:1131   */\n      0x00\n        /* \"#utility.yul\":1119:1128   */\n      dup4\n        /* \"#utility.yul\":1115:1132   */\n      add\n        /* \"#utility.yul\":1108:1155   */\n      mstore\n        /* \"#utility.yul\":1172:1303   */\n      tag_57\n        /* \"#utility.yul\":1298:1302   */\n      dup2\n        /* \"#utility.yul\":1172:1303   */\n      tag_50\n      jump\t// in\n    tag_57:\n        /* \"#utility.yul\":1164:1303   */\n      swap1\n      pop\n        /* \"#utility.yul\":891:1310   */\n      swap2\n      swap1\n      pop\n      jump\t// out\n        /* \"#utility.yul\":1397:1566   */\n    tag_53:\n        /* \"#utility.yul\":1481:1492   */\n      0x00\n        /* \"#utility.yul\":1515:1521   */\n      dup3\n        /* \"#utility.yul\":1510:1513   */\n      dup3\n        /* \"#utility.yul\":1503:1522   */\n      mstore\n        /* \"#utility.yul\":1555:1559   */\n      0x20\n        /* \"#utility.yul\":1550:1553   */\n      dup3\n        /* \"#utility.yul\":1546:1560   */\n      add\n        /* \"#utility.yul\":1531:1560   */\n      swap1\n      pop\n        /* \"#utility.yul\":1397:1566   */\n      swap3\n      swap2\n      pop\n      pop\n      jump\t// out\n        /* \"#utility.yul\":1572:1676   */\n    tag_61:\n        /* \"#utility.yul\":1617:1624   */\n      0x00\n        /* \"#utility.yul\":1646:1670   */\n      tag_63\n        /* \"#utility.yul\":1664:1669   */\n      dup3\n        /* \"#utility.yul\":1646:1670   */\n      tag_64\n      jump\t// in\n    tag_63:\n        /* \"#utility.yul\":1635:1670   */\n      swap1\n      pop\n        /* \"#utility.yul\":1572:1676   */\n      swap2\n      swap1\n      pop\n      jump\t// out\n        /* \"#utility.yul\":1682:1808   */\n    tag_64:\n        /* \"#utility.yul\":1719:1726   */\n      0x00\n        /* \"#utility.yul\":1759:1801   */\n      0xffffffffffffffffffffffffffffffffffffffff\n        /* \"#utility.yul\":1752:1757   */\n      dup3\n        /* \"#utility.yul\":1748:1802   */\n      and\n        /* \"#utility.yul\":1737:1802   */\n      swap1\n      pop\n        /* \"#utility.yul\":1682:1808   */\n      swap2\n      swap1\n      pop\n      jump\t// out\n        /* \"#utility.yul\":1937:2054   */\n    tag_48:\n        /* \"#utility.yul\":2046:2047   */\n      0x00\n        /* \"#utility.yul\":2043:2044   */\n      dup1\n        /* \"#utility.yul\":2036:2048   */\n      revert\n        /* \"#utility.yul\":2060:2230   */\n    tag_55:\n        /* \"#utility.yul\":2200:2222   */\n      0x796f7520617265206e6f7420616e206f776e6572000000000000000000000000\n        /* \"#utility.yul\":2196:2197   */\n      0x00\n        /* \"#utility.yul\":2188:2194   */\n      dup3\n        /* \"#utility.yul\":2184:2198   */\n      add\n        /* \"#utility.yul\":2177:2223   */\n      mstore\n        /* \"#utility.yul\":2060:2230   */\n      pop\n      jump\t// out\n        /* \"#utility.yul\":2236:2374   */\n    tag_44:\n        /* \"#utility.yul\":2317:2349   */\n      tag_71\n        /* \"#utility.yul\":2343:2348   */\n      dup2\n        /* \"#utility.yul\":2317:2349   */\n      tag_61\n      jump\t// in\n    tag_71:\n        /* \"#utility.yul\":2310:2315   */\n      dup2\n        /* \"#utility.yul\":2307:2350   */\n      eq\n        /* \"#utility.yul\":2297:2368   */\n      tag_72\n      jumpi\n        /* \"#utility.yul\":2364:2365   */\n      0x00\n        /* \"#utility.yul\":2361:2362   */\n      dup1\n        /* \"#utility.yul\":2354:2366   */\n      revert\n        /* \"#utility.yul\":2297:2368   */\n    tag_72:\n        /* \"#utility.yul\":2236:2374   */\n      pop\n      jump\t// out\n\n    auxdata: 0xa26469706673582212200165db88d5cc2fc6eb54b4cd6625ff4ac9198c958087144728085fff3dd9219164736f6c63430008070033\n}\n",
				"bytecode": {
					"linkReferences": {},
					"object": "608060405234801561001057600080fd5b50336000806101000a81548173ffffffffffffffffffffffffffffffffffffffff021916908373ffffffffffffffffffffffffffffffffffffffff160217905550610496806100606000396000f3fe60806040526004361061003f5760003560e01c80631b9265b81461004457806341629cdf1461004e57806341f0718214610077578063d7414cd3146100a0575b600080fd5b61004c6100c9565b005b34801561005a57600080fd5b5061007560048036038101906100709190610368565b6100cb565b005b34801561008357600080fd5b5061009e60048036038101906100999190610368565b6101a3565b005b3480156100ac57600080fd5b506100c760048036038101906100c29190610368565b61027b565b005b565b60008054906101000a900473ffffffffffffffffffffffffffffffffffffffff1673ffffffffffffffffffffffffffffffffffffffff163373ffffffffffffffffffffffffffffffffffffffff1614610159576040517f08c379a0000000000000000000000000000000000000000000000000000000008152600401610150906103b8565b60405180910390fd5b8073ffffffffffffffffffffffffffffffffffffffff166108fc479081150290604051600060405180830381858888f1935050505015801561019f573d6000803e3d6000fd5b5050565b60008054906101000a900473ffffffffffffffffffffffffffffffffffffffff1673ffffffffffffffffffffffffffffffffffffffff163373ffffffffffffffffffffffffffffffffffffffff1614610231576040517f08c379a0000000000000000000000000000000000000000000000000000000008152600401610228906103b8565b60405180910390fd5b8073ffffffffffffffffffffffffffffffffffffffff166108fc479081150290604051600060405180830381858888f19350505050158015610277573d6000803e3d6000fd5b5050565b60008054906101000a900473ffffffffffffffffffffffffffffffffffffffff1673ffffffffffffffffffffffffffffffffffffffff163373ffffffffffffffffffffffffffffffffffffffff1614610309576040517f08c379a0000000000000000000000000000000000000000000000000000000008152600401610300906103b8565b60405180910390fd5b8073ffffffffffffffffffffffffffffffffffffffff166108fc479081150290604051600060405180830381858888f1935050505015801561034f573d6000803e3d6000fd5b5050565b60008135905061036281610449565b92915050565b60006020828403121561037e5761037d61041b565b5b600061038c84828501610353565b91505092915050565b60006103a26014836103d8565b91506103ad82610420565b602082019050919050565b600060208201905081810360008301526103d181610395565b9050919050565b600082825260208201905092915050565b60006103f4826103fb565b9050919050565b600073ffffffffffffffffffffffffffffffffffffffff82169050919050565b600080fd5b7f796f7520617265206e6f7420616e206f776e6572000000000000000000000000600082015250565b610452816103e9565b811461045d57600080fd5b5056fea26469706673582212200165db88d5cc2fc6eb54b4cd6625ff4ac9198c958087144728085fff3dd9219164736f6c63430008070033",
					"opcodes": "PUSH1 0x80 PUSH1 0x40 MSTORE CALLVALUE DUP1 ISZERO PUSH2 0x10 JUMPI PUSH1 0x0 DUP1 REVERT JUMPDEST POP CALLER PUSH1 0x0 DUP1 PUSH2 0x100 EXP DUP2 SLOAD DUP2 PUSH20 0xFFFFFFFFFFFFFFFFFFFFFFFFFFFFFFFFFFFFFFFF MUL NOT AND SWAP1 DUP4 PUSH20 0xFFFFFFFFFFFFFFFFFFFFFFFFFFFFFFFFFFFFFFFF AND MUL OR SWAP1 SSTORE POP PUSH2 0x496 DUP1 PUSH2 0x60 PUSH1 0x0 CODECOPY PUSH1 0x0 RETURN INVALID PUSH1 0x80 PUSH1 0x40 MSTORE PUSH1 0x4 CALLDATASIZE LT PUSH2 0x3F JUMPI PUSH1 0x0 CALLDATALOAD PUSH1 0xE0 SHR DUP1 PUSH4 0x1B9265B8 EQ PUSH2 0x44 JUMPI DUP1 PUSH4 0x41629CDF EQ PUSH2 0x4E JUMPI DUP1 PUSH4 0x41F07182 EQ PUSH2 0x77 JUMPI DUP1 PUSH4 0xD7414CD3 EQ PUSH2 0xA0 JUMPI JUMPDEST PUSH1 0x0 DUP1 REVERT JUMPDEST PUSH2 0x4C PUSH2 0xC9 JUMP JUMPDEST STOP JUMPDEST CALLVALUE DUP1 ISZERO PUSH2 0x5A JUMPI PUSH1 0x0 DUP1 REVERT JUMPDEST POP PUSH2 0x75 PUSH1 0x4 DUP1 CALLDATASIZE SUB DUP2 ADD SWAP1 PUSH2 0x70 SWAP2 SWAP1 PUSH2 0x368 JUMP JUMPDEST PUSH2 0xCB JUMP JUMPDEST STOP JUMPDEST CALLVALUE DUP1 ISZERO PUSH2 0x83 JUMPI PUSH1 0x0 DUP1 REVERT JUMPDEST POP PUSH2 0x9E PUSH1 0x4 DUP1 CALLDATASIZE SUB DUP2 ADD SWAP1 PUSH2 0x99 SWAP2 SWAP1 PUSH2 0x368 JUMP JUMPDEST PUSH2 0x1A3 JUMP JUMPDEST STOP JUMPDEST CALLVALUE DUP1 ISZERO PUSH2 0xAC JUMPI PUSH1 0x0 DUP1 REVERT JUMPDEST POP PUSH2 0xC7 PUSH1 0x4 DUP1 CALLDATASIZE SUB DUP2 ADD SWAP1 PUSH2 0xC2 SWAP2 SWAP1 PUSH2 0x368 JUMP JUMPDEST PUSH2 0x27B JUMP JUMPDEST STOP JUMPDEST JUMP JUMPDEST PUSH1 0x0 DUP1 SLOAD SWAP1 PUSH2 0x100 EXP SWAP1 DIV PUSH20 0xFFFFFFFFFFFFFFFFFFFFFFFFFFFFFFFFFFFFFFFF AND PUSH20 0xFFFFFFFFFFFFFFFFFFFFFFFFFFFFFFFFFFFFFFFF AND CALLER PUSH20 0xFFFFFFFFFFFFFFFFFFFFFFFFFFFFFFFFFFFFFFFF AND EQ PUSH2 0x159 JUMPI PUSH1 0x40 MLOAD PUSH32 0x8C379A000000000000000000000000000000000000000000000000000000000 DUP2 MSTORE PUSH1 0x4 ADD PUSH2 0x150 SWAP1 PUSH2 0x3B8 JUMP JUMPDEST PUSH1 0x40 MLOAD DUP1 SWAP2 SUB SWAP1 REVERT JUMPDEST DUP1 PUSH20 0xFFFFFFFFFFFFFFFFFFFFFFFFFFFFFFFFFFFFFFFF AND PUSH2 0x8FC SELFBALANCE SWAP1 DUP2 ISZERO MUL SWAP1 PUSH1 0x40 MLOAD PUSH1 0x0 PUSH1 0x40 MLOAD DUP1 DUP4 SUB DUP2 DUP6 DUP9 DUP9 CALL SWAP4 POP POP POP POP ISZERO DUP1 ISZERO PUSH2 0x19F JUMPI RETURNDATASIZE PUSH1 0x0 DUP1 RETURNDATACOPY RETURNDATASIZE PUSH1 0x0 REVERT JUMPDEST POP POP JUMP JUMPDEST PUSH1 0x0 DUP1 SLOAD SWAP1 PUSH2 0x100 EXP SWAP1 DIV PUSH20 0xFFFFFFFFFFFFFFFFFFFFFFFFFFFFFFFFFFFFFFFF AND PUSH20 0xFFFFFFFFFFFFFFFFFFFFFFFFFFFFFFFFFFFFFFFF AND CALLER PUSH20 0xFFFFFFFFFFFFFFFFFFFFFFFFFFFFFFFFFFFFFFFF AND EQ PUSH2 0x231 JUMPI PUSH1 0x40 MLOAD PUSH32 0x8C379A000000000000000000000000000000000000000000000000000000000 DUP2 MSTORE PUSH1 0x4 ADD PUSH2 0x228 SWAP1 PUSH2 0x3B8 JUMP JUMPDEST PUSH1 0x40 MLOAD DUP1 SWAP2 SUB SWAP1 REVERT JUMPDEST DUP1 PUSH20 0xFFFFFFFFFFFFFFFFFFFFFFFFFFFFFFFFFFFFFFFF AND PUSH2 0x8FC SELFBALANCE SWAP1 DUP2 ISZERO MUL SWAP1 PUSH1 0x40 MLOAD PUSH1 0x0 PUSH1 0x40 MLOAD DUP1 DUP4 SUB DUP2 DUP6 DUP9 DUP9 CALL SWAP4 POP POP POP POP ISZERO DUP1 ISZERO PUSH2 0x277 JUMPI RETURNDATASIZE PUSH1 0x0 DUP1 RETURNDATACOPY RETURNDATASIZE PUSH1 0x0 REVERT JUMPDEST POP POP JUMP JUMPDEST PUSH1 0x0 DUP1 SLOAD SWAP1 PUSH2 0x100 EXP SWAP1 DIV PUSH20 0xFFFFFFFFFFFFFFFFFFFFFFFFFFFFFFFFFFFFFFFF AND PUSH20 0xFFFFFFFFFFFFFFFFFFFFFFFFFFFFFFFFFFFFFFFF AND CALLER PUSH20 0xFFFFFFFFFFFFFFFFFFFFFFFFFFFFFFFFFFFFFFFF AND EQ PUSH2 0x309 JUMPI PUSH1 0x40 MLOAD PUSH32 0x8C379A000000000000000000000000000000000000000000000000000000000 DUP2 MSTORE PUSH1 0x4 ADD PUSH2 0x300 SWAP1 PUSH2 0x3B8 JUMP JUMPDEST PUSH1 0x40 MLOAD DUP1 SWAP2 SUB SWAP1 REVERT JUMPDEST DUP1 PUSH20 0xFFFFFFFFFFFFFFFFFFFFFFFFFFFFFFFFFFFFFFFF AND PUSH2 0x8FC SELFBALANCE SWAP1 DUP2 ISZERO MUL SWAP1 PUSH1 0x40 MLOAD PUSH1 0x0 PUSH1 0x40 MLOAD DUP1 DUP4 SUB DUP2 DUP6 DUP9 DUP9 CALL SWAP4 POP POP POP POP ISZERO DUP1 ISZERO PUSH2 0x34F JUMPI RETURNDATASIZE PUSH1 0x0 DUP1 RETURNDATACOPY RETURNDATASIZE PUSH1 0x0 REVERT JUMPDEST POP POP JUMP JUMPDEST PUSH1 0x0 DUP2 CALLDATALOAD SWAP1 POP PUSH2 0x362 DUP2 PUSH2 0x449 JUMP JUMPDEST SWAP3 SWAP2 POP POP JUMP JUMPDEST PUSH1 0x0 PUSH1 0x20 DUP3 DUP5 SUB SLT ISZERO PUSH2 0x37E JUMPI PUSH2 0x37D PUSH2 0x41B JUMP JUMPDEST JUMPDEST PUSH1 0x0 PUSH2 0x38C DUP5 DUP3 DUP6 ADD PUSH2 0x353 JUMP JUMPDEST SWAP2 POP POP SWAP3 SWAP2 POP POP JUMP JUMPDEST PUSH1 0x0 PUSH2 0x3A2 PUSH1 0x14 DUP4 PUSH2 0x3D8 JUMP JUMPDEST SWAP2 POP PUSH2 0x3AD DUP3 PUSH2 0x420 JUMP JUMPDEST PUSH1 0x20 DUP3 ADD SWAP1 POP SWAP2 SWAP1 POP JUMP JUMPDEST PUSH1 0x0 PUSH1 0x20 DUP3 ADD SWAP1 POP DUP2 DUP2 SUB PUSH1 0x0 DUP4 ADD MSTORE PUSH2 0x3D1 DUP2 PUSH2 0x395 JUMP JUMPDEST SWAP1 POP SWAP2 SWAP1 POP JUMP JUMPDEST PUSH1 0x0 DUP3 DUP3 MSTORE PUSH1 0x20 DUP3 ADD SWAP1 POP SWAP3 SWAP2 POP POP JUMP JUMPDEST PUSH1 0x0 PUSH2 0x3F4 DUP3 PUSH2 0x3FB JUMP JUMPDEST SWAP1 POP SWAP2 SWAP1 POP JUMP JUMPDEST PUSH1 0x0 PUSH20 0xFFFFFFFFFFFFFFFFFFFFFFFFFFFFFFFFFFFFFFFF DUP3 AND SWAP1 POP SWAP2 SWAP1 POP JUMP JUMPDEST PUSH1 0x0 DUP1 REVERT JUMPDEST PUSH32 0x796F7520617265206E6F7420616E206F776E6572000000000000000000000000 PUSH1 0x0 DUP3 ADD MSTORE POP JUMP JUMPDEST PUSH2 0x452 DUP2 PUSH2 0x3E9 JUMP JUMPDEST DUP2 EQ PUSH2 0x45D JUMPI PUSH1 0x0 DUP1 REVERT JUMPDEST POP JUMP INVALID LOG2 PUSH5 0x6970667358 0x22 SLT KECCAK256 ADD PUSH6 0xDB88D5CC2FC6 0xEB SLOAD 0xB4 0xCD PUSH7 0x25FF4AC9198C95 DUP1 DUP8 EQ SELFBALANCE 0x28 ADDMOD 0x5F SELFDESTRUCT RETURNDATASIZE 0xD9 0x21 SWAP2 PUSH5 0x736F6C6343 STOP ADDMOD SMOD STOP CALLER "
				},
				"gasEstimates": {
					"creation": {
						"codeDepositCost": "234800",
						"executionCost": "24541",
						"totalCost": "259341"
					},
					"external": {
						"pay()": "98",
						"withdraw_assert(address)": "infinite",
						"withdraw_require(address)": "infinite",
						"withdraw_revert(address)": "infinite"
					}
				},
				"methodIdentifiers": {
					"pay()": "1b9265b8",
					"withdraw_assert(address)": "41629cdf",
					"withdraw_require(address)": "41f07182",
					"withdraw_revert(address)": "d7414cd3"
				}
			},
			"storageLayout": {
				"storage": [
					{
						"astId": 3,
						"contract": "07_lesson_/DEMO.sol:Demo",
						"label": "owner",
						"offset": 0,
						"slot": "0",
						"type": "t_address"
					}
				],
				"types": {
					"t_address": {
						"encoding": "inplace",
						"label": "address",
						"numberOfBytes": "20"
					}
				}
			},
			"userdoc": {
				"kind": "user",
				"methods": {},
				"version": 1
			}
		}
	}
}