{
	"data": {
		"bytecode": {
			"linkReferences": {},
			"object": "6080604052600160005534801561001557600080fd5b50610424806100256000396000f3fe608060405234801561001057600080fd5b50600436106100365760003560e01c80635186701d1461003b5780636537214714610057575b600080fd5b61005560048036038101906100509190610183565b610075565b005b61005f6100ca565b60405161006c91906101db565b60405180910390f35b60005b81518110156100c65781818151811061009457610093610354565b5b60200260200101516000808282546100ac9190610247565b9250508190555080806100be906102dc565b915050610078565b5050565b60005481565b60006100e36100de8461021b565b6101f6565b90508083825260208201905082856020860282011115610106576101056103b7565b5b60005b85811015610136578161011c888261016e565b845260208401935060208301925050600181019050610109565b5050509392505050565b600082601f830112610155576101546103b2565b5b81356101658482602086016100d0565b91505092915050565b60008135905061017d816103d7565b92915050565b600060208284031215610199576101986103c1565b5b600082013567ffffffffffffffff8111156101b7576101b66103bc565b5b6101c384828501610140565b91505092915050565b6101d5816102a1565b82525050565b60006020820190506101f060008301846101cc565b92915050565b6000610200610211565b905061020c82826102ab565b919050565b6000604051905090565b600067ffffffffffffffff82111561023657610235610383565b5b602082029050602081019050919050565b6000610252826102a1565b915061025d836102a1565b9250817fffffffffffffffffffffffffffffffffffffffffffffffffffffffffffffffff048311821515161561029657610295610325565b5b828202905092915050565b6000819050919050565b6102b4826103c6565b810181811067ffffffffffffffff821117156102d3576102d2610383565b5b80604052505050565b60006102e7826102a1565b91507fffffffffffffffffffffffffffffffffffffffffffffffffffffffffffffffff82141561031a57610319610325565b5b600182019050919050565b7f4e487b7100000000000000000000000000000000000000000000000000000000600052601160045260246000fd5b7f4e487b7100000000000000000000000000000000000000000000000000000000600052603260045260246000fd5b7f4e487b7100000000000000000000000000000000000000000000000000000000600052604160045260246000fd5b600080fd5b600080fd5b600080fd5b600080fd5b6000601f19601f8301169050919050565b6103e0816102a1565b81146103eb57600080fd5b5056fea2646970667358221220967e3a422ccf7a076f5c8cc159f27a838657c98aea6bba924a420df56e83a16064736f6c63430008070033",
			"opcodes": "PUSH1 0x80 PUSH1 0x40 MSTORE PUSH1 0x1 PUSH1 0x0 SSTORE CALLVALUE DUP1 ISZERO PUSH2 0x15 JUMPI PUSH1 0x0 DUP1 REVERT JUMPDEST POP PUSH2 0x424 DUP1 PUSH2 0x25 PUSH1 0x0 CODECOPY PUSH1 0x0 RETURN INVALID PUSH1 0x80 PUSH1 0x40 MSTORE CALLVALUE DUP1 ISZERO PUSH2 0x10 JUMPI PUSH1 0x0 DUP1 REVERT JUMPDEST POP PUSH1 0x4 CALLDATASIZE LT PUSH2 0x36 JUMPI PUSH1 0x0 CALLDATALOAD PUSH1 0xE0 SHR DUP1 PUSH4 0x5186701D EQ PUSH2 0x3B JUMPI DUP1 PUSH4 0x65372147 EQ PUSH2 0x57 JUMPI JUMPDEST PUSH1 0x0 DUP1 REVERT JUMPDEST PUSH2 0x55 PUSH1 0x4 DUP1 CALLDATASIZE SUB DUP2 ADD SWAP1 PUSH2 0x50 SWAP2 SWAP1 PUSH2 0x183 JUMP JUMPDEST PUSH2 0x75 JUMP JUMPDEST STOP JUMPDEST PUSH2 0x5F PUSH2 0xCA JUMP JUMPDEST PUSH1 0x40 MLOAD PUSH2 0x6C SWAP2 SWAP1 PUSH2 0x1DB JUMP JUMPDEST PUSH1 0x40 MLOAD DUP1 SWAP2 SUB SWAP1 RETURN JUMPDEST PUSH1 0x0 JUMPDEST DUP2 MLOAD DUP2 LT ISZERO PUSH2 0xC6 JUMPI DUP2 DUP2 DUP2 MLOAD DUP2 LT PUSH2 0x94 JUMPI PUSH2 0x93 PUSH2 0x354 JUMP JUMPDEST JUMPDEST PUSH1 0x20 MUL PUSH1 0x20 ADD ADD MLOAD PUSH1 0x0 DUP1 DUP3 DUP3 SLOAD PUSH2 0xAC SWAP2 SWAP1 PUSH2 0x247 JUMP JUMPDEST SWAP3 POP POP DUP2 SWAP1 SSTORE POP DUP1 DUP1 PUSH2 0xBE SWAP1 PUSH2 0x2DC JUMP JUMPDEST SWAP2 POP POP PUSH2 0x78 JUMP JUMPDEST POP POP JUMP JUMPDEST PUSH1 0x0 SLOAD DUP2 JUMP JUMPDEST PUSH1 0x0 PUSH2 0xE3 PUSH2 0xDE DUP5 PUSH2 0x21B JUMP JUMPDEST PUSH2 0x1F6 JUMP JUMPDEST SWAP1 POP DUP1 DUP4 DUP3 MSTORE PUSH1 0x20 DUP3 ADD SWAP1 POP DUP3 DUP6 PUSH1 0x20 DUP7 MUL DUP3 ADD GT ISZERO PUSH2 0x106 JUMPI PUSH2 0x105 PUSH2 0x3B7 JUMP JUMPDEST JUMPDEST PUSH1 0x0 JUMPDEST DUP6 DUP2 LT ISZERO PUSH2 0x136 JUMPI DUP2 PUSH2 0x11C DUP9 DUP3 PUSH2 0x16E JUMP JUMPDEST DUP5 MSTORE PUSH1 0x20 DUP5 ADD SWAP4 POP PUSH1 0x20 DUP4 ADD SWAP3 POP POP PUSH1 0x1 DUP2 ADD SWAP1 POP PUSH2 0x109 JUMP JUMPDEST POP POP POP SWAP4 SWAP3 POP POP POP JUMP JUMPDEST PUSH1 0x0 DUP3 PUSH1 0x1F DUP4 ADD SLT PUSH2 0x155 JUMPI PUSH2 0x154 PUSH2 0x3B2 JUMP JUMPDEST JUMPDEST DUP2 CALLDATALOAD PUSH2 0x165 DUP5 DUP3 PUSH1 0x20 DUP7 ADD PUSH2 0xD0 JUMP JUMPDEST SWAP2 POP POP SWAP3 SWAP2 POP POP JUMP JUMPDEST PUSH1 0x0 DUP2 CALLDATALOAD SWAP1 POP PUSH2 0x17D DUP2 PUSH2 0x3D7 JUMP JUMPDEST SWAP3 SWAP2 POP POP JUMP JUMPDEST PUSH1 0x0 PUSH1 0x20 DUP3 DUP5 SUB SLT ISZERO PUSH2 0x199 JUMPI PUSH2 0x198 PUSH2 0x3C1 JUMP JUMPDEST JUMPDEST PUSH1 0x0 DUP3 ADD CALLDATALOAD PUSH8 0xFFFFFFFFFFFFFFFF DUP2 GT ISZERO PUSH2 0x1B7 JUMPI PUSH2 0x1B6 PUSH2 0x3BC JUMP JUMPDEST JUMPDEST PUSH2 0x1C3 DUP5 DUP3 DUP6 ADD PUSH2 0x140 JUMP JUMPDEST SWAP2 POP POP SWAP3 SWAP2 POP POP JUMP JUMPDEST PUSH2 0x1D5 DUP2 PUSH2 0x2A1 JUMP JUMPDEST DUP3 MSTORE POP POP JUMP JUMPDEST PUSH1 0x0 PUSH1 0x20 DUP3 ADD SWAP1 POP PUSH2 0x1F0 PUSH1 0x0 DUP4 ADD DUP5 PUSH2 0x1CC JUMP JUMPDEST SWAP3 SWAP2 POP POP JUMP JUMPDEST PUSH1 0x0 PUSH2 0x200 PUSH2 0x211 JUMP JUMPDEST SWAP1 POP PUSH2 0x20C DUP3 DUP3 PUSH2 0x2AB JUMP JUMPDEST SWAP2 SWAP1 POP JUMP JUMPDEST PUSH1 0x0 PUSH1 0x40 MLOAD SWAP1 POP SWAP1 JUMP JUMPDEST PUSH1 0x0 PUSH8 0xFFFFFFFFFFFFFFFF DUP3 GT ISZERO PUSH2 0x236 JUMPI PUSH2 0x235 PUSH2 0x383 JUMP JUMPDEST JUMPDEST PUSH1 0x20 DUP3 MUL SWAP1 POP PUSH1 0x20 DUP2 ADD SWAP1 POP SWAP2 SWAP1 POP JUMP JUMPDEST PUSH1 0x0 PUSH2 0x252 DUP3 PUSH2 0x2A1 JUMP JUMPDEST SWAP2 POP PUSH2 0x25D DUP4 PUSH2 0x2A1 JUMP JUMPDEST SWAP3 POP DUP2 PUSH32 0xFFFFFFFFFFFFFFFFFFFFFFFFFFFFFFFFFFFFFFFFFFFFFFFFFFFFFFFFFFFFFFFF DIV DUP4 GT DUP3 ISZERO ISZERO AND ISZERO PUSH2 0x296 JUMPI PUSH2 0x295 PUSH2 0x325 JUMP JUMPDEST JUMPDEST DUP3 DUP3 MUL SWAP1 POP SWAP3 SWAP2 POP POP JUMP JUMPDEST PUSH1 0x0 DUP2 SWAP1 POP SWAP2 SWAP1 POP JUMP JUMPDEST PUSH2 0x2B4 DUP3 PUSH2 0x3C6 JUMP JUMPDEST DUP2 ADD DUP2 DUP2 LT PUSH8 0xFFFFFFFFFFFFFFFF DUP3 GT OR ISZERO PUSH2 0x2D3 JUMPI PUSH2 0x2D2 PUSH2 0x383 JUMP JUMPDEST JUMPDEST DUP1 PUSH1 0x40 MSTORE POP POP POP JUMP JUMPDEST PUSH1 0x0 PUSH2 0x2E7 DUP3 PUSH2 0x2A1 JUMP JUMPDEST SWAP2 POP PUSH32 0xFFFFFFFFFFFFFFFFFFFFFFFFFFFFFFFFFFFFFFFFFFFFFFFFFFFFFFFFFFFFFFFF DUP3 EQ ISZERO PUSH2 0x31A JUMPI PUSH2 0x319 PUSH2 0x325 JUMP JUMPDEST JUMPDEST PUSH1 0x1 DUP3 ADD SWAP1 POP SWAP2 SWAP1 POP JUMP JUMPDEST PUSH32 0x4E487B7100000000000000000000000000000000000000000000000000000000 PUSH1 0x0 MSTORE PUSH1 0x11 PUSH1 0x4 MSTORE PUSH1 0x24 PUSH1 0x0 REVERT JUMPDEST PUSH32 0x4E487B7100000000000000000000000000000000000000000000000000000000 PUSH1 0x0 MSTORE PUSH1 0x32 PUSH1 0x4 MSTORE PUSH1 0x24 PUSH1 0x0 REVERT JUMPDEST PUSH32 0x4E487B7100000000000000000000000000000000000000000000000000000000 PUSH1 0x0 MSTORE PUSH1 0x41 PUSH1 0x4 MSTORE PUSH1 0x24 PUSH1 0x0 REVERT JUMPDEST PUSH1 0x0 DUP1 REVERT JUMPDEST PUSH1 0x0 DUP1 REVERT JUMPDEST PUSH1 0x0 DUP1 REVERT JUMPDEST PUSH1 0x0 DUP1 REVERT JUMPDEST PUSH1 0x0 PUSH1 0x1F NOT PUSH1 0x1F DUP4 ADD AND SWAP1 POP SWAP2 SWAP1 POP JUMP JUMPDEST PUSH2 0x3E0 DUP2 PUSH2 0x2A1 JUMP JUMPDEST DUP2 EQ PUSH2 0x3EB JUMPI PUSH1 0x0 DUP1 REVERT JUMPDEST POP JUMP INVALID LOG2 PUSH5 0x6970667358 0x22 SLT KECCAK256 SWAP7 PUSH31 0x3A422CCF7A076F5C8CC159F27A838657C98AEA6BBA924A420DF56E83A16064 PUSH20 0x6F6C634300080700330000000000000000000000 "
		},
		"gasEstimates": {
			"creation": {
				"codeDepositCost": "212000",
				"executionCost": "22363",
				"totalCost": "234363"
			},
			"external": {
				"doWork(uint256[])": "infinite",
				"result()": "2429"
			}
		},
		"methodIdentifiers": {
			"doWork(uint256[])": "5186701d",
			"result()": "65372147"
		}
	},
	"abi": [
		{
			"inputs": [
				{
					"internalType": "uint256[]",
					"name": "data",
					"type": "uint256[]"
				}
			],
			"name": "doWork",
			"outputs": [],
			"stateMutability": "nonpayable",
			"type": "function"
		},
		{
			"inputs": [],
			"name": "result",
			"outputs": [
				{
					"internalType": "uint256",
					"name": "",
					"type": "uint256"
				}
			],
			"stateMutability": "view",
			"type": "function"
		}
	]
}