{
	"04_lesson_DataTypes/DataTypes.sol": {
		"Demo": {
			"abi": [
				{
					"inputs": [],
					"name": "currentStatus",
					"outputs": [
						{
							"internalType": "enum Demo.Status",
							"name": "",
							"type": "uint8"
						}
					],
					"stateMutability": "view",
					"type": "function"
				},
				{
					"inputs": [],
					"name": "delivered",
					"outputs": [],
					"stateMutability": "nonpayable",
					"type": "function"
				},
				{
					"inputs": [],
					"name": "getLenBytes",
					"outputs": [
						{
							"internalType": "uint256",
							"name": "",
							"type": "uint256"
						}
					],
					"stateMutability": "view",
					"type": "function"
				},
				{
					"inputs": [
						{
							"internalType": "uint256",
							"name": "",
							"type": "uint256"
						}
					],
					"name": "items0",
					"outputs": [
						{
							"internalType": "uint256",
							"name": "",
							"type": "uint256"
						}
					],
					"stateMutability": "view",
					"type": "function"
				},
				{
					"inputs": [
						{
							"internalType": "uint256",
							"name": "",
							"type": "uint256"
						},
						{
							"internalType": "uint256",
							"name": "",
							"type": "uint256"
						}
					],
					"name": "items1",
					"outputs": [
						{
							"internalType": "uint256",
							"name": "",
							"type": "uint256"
						}
					],
					"stateMutability": "view",
					"type": "function"
				},
				{
					"inputs": [
						{
							"internalType": "uint256",
							"name": "",
							"type": "uint256"
						}
					],
					"name": "items2",
					"outputs": [
						{
							"internalType": "uint256",
							"name": "",
							"type": "uint256"
						}
					],
					"stateMutability": "view",
					"type": "function"
				},
				{
					"inputs": [],
					"name": "len",
					"outputs": [
						{
							"internalType": "uint256",
							"name": "",
							"type": "uint256"
						}
					],
					"stateMutability": "view",
					"type": "function"
				},
				{
					"inputs": [],
					"name": "myDynVar",
					"outputs": [
						{
							"internalType": "bytes",
							"name": "",
							"type": "bytes"
						}
					],
					"stateMutability": "view",
					"type": "function"
				},
				{
					"inputs": [],
					"name": "myDynVarUni",
					"outputs": [
						{
							"internalType": "bytes",
							"name": "",
							"type": "bytes"
						}
					],
					"stateMutability": "view",
					"type": "function"
				},
				{
					"inputs": [],
					"name": "myVar",
					"outputs": [
						{
							"internalType": "bytes32",
							"name": "",
							"type": "bytes32"
						}
					],
					"stateMutability": "view",
					"type": "function"
				},
				{
					"inputs": [],
					"name": "pay",
					"outputs": [],
					"stateMutability": "nonpayable",
					"type": "function"
				},
				{
					"inputs": [
						{
							"internalType": "uint256",
							"name": "element",
							"type": "uint256"
						}
					],
					"name": "pushElement",
					"outputs": [],
					"stateMutability": "nonpayable",
					"type": "function"
				},
				{
					"inputs": [],
					"name": "sampleMemory",
					"outputs": [
						{
							"internalType": "uint256[]",
							"name": "",
							"type": "uint256[]"
						}
					],
					"stateMutability": "view",
					"type": "function"
				},
				{
					"inputs": [],
					"name": "setArray",
					"outputs": [],
					"stateMutability": "nonpayable",
					"type": "function"
				},
				{
					"inputs": [],
					"name": "setPartArray",
					"outputs": [],
					"stateMutability": "nonpayable",
					"type": "function"
				}
			],
			"devdoc": {
				"kind": "dev",
				"methods": {},
				"version": 1
			},
			"evm": {
				"assembly": "    /* \"04_lesson_DataTypes/DataTypes.sol\":57:1232  contract Demo {... */\n  mstore(0x40, 0x80)\n    /* \"04_lesson_DataTypes/DataTypes.sol\":1020:1049  bytes32 public myVar = \"test\" */\n  sstore(0x13, 0x7465737400000000000000000000000000000000000000000000000000000000)\n    /* \"04_lesson_DataTypes/DataTypes.sol\":1055:1085  bytes public myDynVar = \"test\" */\n  mload(0x40)\n  dup1\n  0x40\n  add\n  0x40\n  mstore\n  dup1\n  0x04\n  dup2\n  mstore\n  0x20\n  add\n  0x7465737400000000000000000000000000000000000000000000000000000000\n  dup2\n  mstore\n  pop\n  0x14\n  swap1\n  dup1\n  mload\n  swap1\n  0x20\n  add\n  swap1\n  tag_1\n  swap3\n  swap2\n  swap1\n  tag_2\n  jump\t// in\ntag_1:\n  pop\n    /* \"04_lesson_DataTypes/DataTypes.sol\":1091:1135  bytes public myDynVarUni = unicode\"тест\" */\n  mload(0x40)\n  dup1\n  0x40\n  add\n  0x40\n  mstore\n  dup1\n  0x08\n  dup2\n  mstore\n  0x20\n  add\n  0xd182d0b5d181d182000000000000000000000000000000000000000000000000\n  dup2\n  mstore\n  pop\n  0x15\n  swap1\n  dup1\n  mload\n  swap1\n  0x20\n  add\n  swap1\n  tag_3\n  swap3\n  swap2\n  swap1\n  tag_2\n  jump\t// in\ntag_3:\n  pop\n    /* \"04_lesson_DataTypes/DataTypes.sol\":57:1232  contract Demo {... */\n  callvalue\n  dup1\n  iszero\n  tag_4\n  jumpi\n  0x00\n  dup1\n  revert\ntag_4:\n  pop\n  jump(tag_5)\ntag_2:\n  dup3\n  dup1\n  sload\n  tag_6\n  swap1\n  tag_7\n  jump\t// in\ntag_6:\n  swap1\n  0x00\n  mstore\n  keccak256(0x00, 0x20)\n  swap1\n  0x1f\n  add\n  0x20\n  swap1\n  div\n  dup2\n  add\n  swap3\n  dup3\n  tag_9\n  jumpi\n  0x00\n  dup6\n  sstore\n  jump(tag_8)\ntag_9:\n  dup3\n  0x1f\n  lt\n  tag_10\n  jumpi\n  dup1\n  mload\n  not(0xff)\n  and\n  dup4\n  dup1\n  add\n  or\n  dup6\n  sstore\n  jump(tag_8)\ntag_10:\n  dup3\n  dup1\n  add\n  0x01\n  add\n  dup6\n  sstore\n  dup3\n  iszero\n  tag_8\n  jumpi\n  swap2\n  dup3\n  add\ntag_11:\n  dup3\n  dup2\n  gt\n  iszero\n  tag_12\n  jumpi\n  dup3\n  mload\n  dup3\n  sstore\n  swap2\n  0x20\n  add\n  swap2\n  swap1\n  0x01\n  add\n  swap1\n  jump(tag_11)\ntag_12:\ntag_8:\n  pop\n  swap1\n  pop\n  tag_13\n  swap2\n  swap1\n  tag_14\n  jump\t// in\ntag_13:\n  pop\n  swap1\n  jump\t// out\ntag_14:\ntag_15:\n  dup1\n  dup3\n  gt\n  iszero\n  tag_16\n  jumpi\n  0x00\n  dup2\n  0x00\n  swap1\n  sstore\n  pop\n  0x01\n  add\n  jump(tag_15)\ntag_16:\n  pop\n  swap1\n  jump\t// out\n    /* \"#utility.yul\":7:187   */\ntag_17:\n    /* \"#utility.yul\":55:132   */\n  0x4e487b7100000000000000000000000000000000000000000000000000000000\n    /* \"#utility.yul\":52:53   */\n  0x00\n    /* \"#utility.yul\":45:133   */\n  mstore\n    /* \"#utility.yul\":152:156   */\n  0x22\n    /* \"#utility.yul\":149:150   */\n  0x04\n    /* \"#utility.yul\":142:157   */\n  mstore\n    /* \"#utility.yul\":176:180   */\n  0x24\n    /* \"#utility.yul\":173:174   */\n  0x00\n    /* \"#utility.yul\":166:181   */\n  revert\n    /* \"#utility.yul\":193:513   */\ntag_7:\n    /* \"#utility.yul\":237:243   */\n  0x00\n    /* \"#utility.yul\":274:275   */\n  0x02\n    /* \"#utility.yul\":268:272   */\n  dup3\n    /* \"#utility.yul\":264:276   */\n  div\n    /* \"#utility.yul\":254:276   */\n  swap1\n  pop\n    /* \"#utility.yul\":321:322   */\n  0x01\n    /* \"#utility.yul\":315:319   */\n  dup3\n    /* \"#utility.yul\":311:323   */\n  and\n    /* \"#utility.yul\":342:360   */\n  dup1\n    /* \"#utility.yul\":332:413   */\n  tag_21\n  jumpi\n    /* \"#utility.yul\":398:402   */\n  0x7f\n    /* \"#utility.yul\":390:396   */\n  dup3\n    /* \"#utility.yul\":386:403   */\n  and\n    /* \"#utility.yul\":376:403   */\n  swap2\n  pop\n    /* \"#utility.yul\":332:413   */\ntag_21:\n    /* \"#utility.yul\":460:462   */\n  0x20\n    /* \"#utility.yul\":452:458   */\n  dup3\n    /* \"#utility.yul\":449:463   */\n  lt\n    /* \"#utility.yul\":429:447   */\n  dup2\n    /* \"#utility.yul\":426:464   */\n  sub\n    /* \"#utility.yul\":423:507   */\n  tag_22\n  jumpi\n    /* \"#utility.yul\":479:497   */\n  tag_23\n  tag_17\n  jump\t// in\ntag_23:\n    /* \"#utility.yul\":423:507   */\ntag_22:\n    /* \"#utility.yul\":244:513   */\n  pop\n    /* \"#utility.yul\":193:513   */\n  swap2\n  swap1\n  pop\n  jump\t// out\n    /* \"04_lesson_DataTypes/DataTypes.sol\":57:1232  contract Demo {... */\ntag_5:\n  dataSize(sub_0)\n  dup1\n  dataOffset(sub_0)\n  0x00\n  codecopy\n  0x00\n  return\nstop\n\nsub_0: assembly {\n        /* \"04_lesson_DataTypes/DataTypes.sol\":57:1232  contract Demo {... */\n      mstore(0x40, 0x80)\n      callvalue\n      dup1\n      iszero\n      tag_1\n      jumpi\n      0x00\n      dup1\n      revert\n    tag_1:\n      pop\n      jumpi(tag_2, lt(calldatasize, 0x04))\n      shr(0xe0, calldataload(0x00))\n      dup1\n      0x56d88e27\n      gt\n      tag_18\n      jumpi\n      dup1\n      0xc1a42d19\n      gt\n      tag_19\n      jumpi\n      dup1\n      0xc1a42d19\n      eq\n      tag_14\n      jumpi\n      dup1\n      0xc6b91540\n      eq\n      tag_15\n      jumpi\n      dup1\n      0xef8a9235\n      eq\n      tag_16\n      jumpi\n      dup1\n      0xffb1e210\n      eq\n      tag_17\n      jumpi\n      jump(tag_2)\n    tag_19:\n      dup1\n      0x56d88e27\n      eq\n      tag_10\n      jumpi\n      dup1\n      0x78321efb\n      eq\n      tag_11\n      jumpi\n      dup1\n      0xa34343c9\n      eq\n      tag_12\n      jumpi\n      dup1\n      0xbbdfbfba\n      eq\n      tag_13\n      jumpi\n      jump(tag_2)\n    tag_18:\n      dup1\n      0x2724898b\n      gt\n      tag_20\n      jumpi\n      dup1\n      0x2724898b\n      eq\n      tag_6\n      jumpi\n      dup1\n      0x503f8cab\n      eq\n      tag_7\n      jumpi\n      dup1\n      0x526aa79a\n      eq\n      tag_8\n      jumpi\n      dup1\n      0x5464fb90\n      eq\n      tag_9\n      jumpi\n      jump(tag_2)\n    tag_20:\n      dup1\n      0x14d0c51e\n      eq\n      tag_3\n      jumpi\n      dup1\n      0x1b9265b8\n      eq\n      tag_4\n      jumpi\n      dup1\n      0x1f0393a3\n      eq\n      tag_5\n      jumpi\n    tag_2:\n      0x00\n      dup1\n      revert\n        /* \"04_lesson_DataTypes/DataTypes.sol\":1091:1135  bytes public myDynVarUni = unicode\"тест\" */\n    tag_3:\n      tag_21\n      tag_22\n      jump\t// in\n    tag_21:\n      mload(0x40)\n      tag_23\n      swap2\n      swap1\n      tag_24\n      jump\t// in\n    tag_23:\n      mload(0x40)\n      dup1\n      swap2\n      sub\n      swap1\n      return\n        /* \"04_lesson_DataTypes/DataTypes.sol\":171:237  function pay() public {... */\n    tag_4:\n      tag_25\n      tag_26\n      jump\t// in\n    tag_25:\n      stop\n        /* \"04_lesson_DataTypes/DataTypes.sol\":500:524  uint[3][2] public items1 */\n    tag_5:\n      tag_27\n      0x04\n      dup1\n      calldatasize\n      sub\n      dup2\n      add\n      swap1\n      tag_28\n      swap2\n      swap1\n      tag_29\n      jump\t// in\n    tag_28:\n      tag_30\n      jump\t// in\n    tag_27:\n      mload(0x40)\n      tag_31\n      swap2\n      swap1\n      tag_32\n      jump\t// in\n    tag_31:\n      mload(0x40)\n      dup1\n      swap2\n      sub\n      swap1\n      return\n        /* \"04_lesson_DataTypes/DataTypes.sol\":531:640  function setArray() public {... */\n    tag_6:\n      tag_33\n      tag_34\n      jump\t// in\n    tag_33:\n      stop\n        /* \"04_lesson_DataTypes/DataTypes.sol\":646:666  uint[] public items2 */\n    tag_7:\n      tag_35\n      0x04\n      dup1\n      calldatasize\n      sub\n      dup2\n      add\n      swap1\n      tag_36\n      swap2\n      swap1\n      tag_37\n      jump\t// in\n    tag_36:\n      tag_38\n      jump\t// in\n    tag_35:\n      mload(0x40)\n      tag_39\n      swap2\n      swap1\n      tag_32\n      jump\t// in\n    tag_39:\n      mload(0x40)\n      dup1\n      swap2\n      sub\n      swap1\n      return\n        /* \"04_lesson_DataTypes/DataTypes.sol\":1142:1230  function getLenBytes() public view returns(uint) {... */\n    tag_8:\n      tag_40\n      tag_41\n      jump\t// in\n    tag_40:\n      mload(0x40)\n      tag_42\n      swap2\n      swap1\n      tag_32\n      jump\t// in\n    tag_42:\n      mload(0x40)\n      dup1\n      swap2\n      sub\n      swap1\n      return\n        /* \"04_lesson_DataTypes/DataTypes.sol\":368:481  function setPartArray() public {... */\n    tag_9:\n      tag_43\n      tag_44\n      jump\t// in\n    tag_43:\n      stop\n        /* \"04_lesson_DataTypes/DataTypes.sol\":672:687  uint public len */\n    tag_10:\n      tag_45\n      tag_46\n      jump\t// in\n    tag_45:\n      mload(0x40)\n      tag_47\n      swap2\n      swap1\n      tag_32\n      jump\t// in\n    tag_47:\n      mload(0x40)\n      dup1\n      swap2\n      sub\n      swap1\n      return\n        /* \"04_lesson_DataTypes/DataTypes.sol\":694:802  function pushElement(uint element) public {... */\n    tag_11:\n      tag_48\n      0x04\n      dup1\n      calldatasize\n      sub\n      dup2\n      add\n      swap1\n      tag_49\n      swap2\n      swap1\n      tag_37\n      jump\t// in\n    tag_49:\n      tag_50\n      jump\t// in\n    tag_48:\n      stop\n        /* \"04_lesson_DataTypes/DataTypes.sol\":835:1002  function sampleMemory() public view returns(uint[] memory){... */\n    tag_12:\n      tag_51\n      tag_52\n      jump\t// in\n    tag_51:\n      mload(0x40)\n      tag_53\n      swap2\n      swap1\n      tag_54\n      jump\t// in\n    tag_53:\n      mload(0x40)\n      dup1\n      swap2\n      sub\n      swap1\n      return\n        /* \"04_lesson_DataTypes/DataTypes.sol\":243:320  function delivered() public {... */\n    tag_13:\n      tag_55\n      tag_56\n      jump\t// in\n    tag_55:\n      stop\n        /* \"04_lesson_DataTypes/DataTypes.sol\":339:361  uint[10] public items0 */\n    tag_14:\n      tag_57\n      0x04\n      dup1\n      calldatasize\n      sub\n      dup2\n      add\n      swap1\n      tag_58\n      swap2\n      swap1\n      tag_37\n      jump\t// in\n    tag_58:\n      tag_59\n      jump\t// in\n    tag_57:\n      mload(0x40)\n      tag_60\n      swap2\n      swap1\n      tag_32\n      jump\t// in\n    tag_60:\n      mload(0x40)\n      dup1\n      swap2\n      sub\n      swap1\n      return\n        /* \"04_lesson_DataTypes/DataTypes.sol\":1020:1049  bytes32 public myVar = \"test\" */\n    tag_15:\n      tag_61\n      tag_62\n      jump\t// in\n    tag_61:\n      mload(0x40)\n      tag_63\n      swap2\n      swap1\n      tag_64\n      jump\t// in\n    tag_63:\n      mload(0x40)\n      dup1\n      swap2\n      sub\n      swap1\n      return\n        /* \"04_lesson_DataTypes/DataTypes.sol\":137:164  Status public currentStatus */\n    tag_16:\n      tag_65\n      tag_66\n      jump\t// in\n    tag_65:\n      mload(0x40)\n      tag_67\n      swap2\n      swap1\n      tag_68\n      jump\t// in\n    tag_67:\n      mload(0x40)\n      dup1\n      swap2\n      sub\n      swap1\n      return\n        /* \"04_lesson_DataTypes/DataTypes.sol\":1055:1085  bytes public myDynVar = \"test\" */\n    tag_17:\n      tag_69\n      tag_70\n      jump\t// in\n    tag_69:\n      mload(0x40)\n      tag_71\n      swap2\n      swap1\n      tag_24\n      jump\t// in\n    tag_71:\n      mload(0x40)\n      dup1\n      swap2\n      sub\n      swap1\n      return\n        /* \"04_lesson_DataTypes/DataTypes.sol\":1091:1135  bytes public myDynVarUni = unicode\"тест\" */\n    tag_22:\n      0x15\n      dup1\n      sload\n      tag_72\n      swap1\n      tag_73\n      jump\t// in\n    tag_72:\n      dup1\n      0x1f\n      add\n      0x20\n      dup1\n      swap2\n      div\n      mul\n      0x20\n      add\n      mload(0x40)\n      swap1\n      dup2\n      add\n      0x40\n      mstore\n      dup1\n      swap3\n      swap2\n      swap1\n      dup2\n      dup2\n      mstore\n      0x20\n      add\n      dup3\n      dup1\n      sload\n      tag_74\n      swap1\n      tag_73\n      jump\t// in\n    tag_74:\n      dup1\n      iszero\n      tag_75\n      jumpi\n      dup1\n      0x1f\n      lt\n      tag_76\n      jumpi\n      0x0100\n      dup1\n      dup4\n      sload\n      div\n      mul\n      dup4\n      mstore\n      swap2\n      0x20\n      add\n      swap2\n      jump(tag_75)\n    tag_76:\n      dup3\n      add\n      swap2\n      swap1\n      0x00\n      mstore\n      keccak256(0x00, 0x20)\n      swap1\n    tag_77:\n      dup2\n      sload\n      dup2\n      mstore\n      swap1\n      0x01\n      add\n      swap1\n      0x20\n      add\n      dup1\n      dup4\n      gt\n      tag_77\n      jumpi\n      dup3\n      swap1\n      sub\n      0x1f\n      and\n      dup3\n      add\n      swap2\n    tag_75:\n      pop\n      pop\n      pop\n      pop\n      pop\n      dup2\n      jump\t// out\n        /* \"04_lesson_DataTypes/DataTypes.sol\":171:237  function pay() public {... */\n    tag_26:\n        /* \"04_lesson_DataTypes/DataTypes.sol\":219:230  Status.Paid */\n      0x00\n        /* \"04_lesson_DataTypes/DataTypes.sol\":203:216  currentStatus */\n      dup1\n      0x00\n        /* \"04_lesson_DataTypes/DataTypes.sol\":203:230  currentStatus = Status.Paid */\n      0x0100\n      exp\n      dup2\n      sload\n      dup2\n      0xff\n      mul\n      not\n      and\n      swap1\n      dup4\n      0x02\n      dup2\n      gt\n      iszero\n      tag_79\n      jumpi\n      tag_80\n      tag_81\n      jump\t// in\n    tag_80:\n    tag_79:\n      mul\n      or\n      swap1\n      sstore\n      pop\n        /* \"04_lesson_DataTypes/DataTypes.sol\":171:237  function pay() public {... */\n      jump\t// out\n        /* \"04_lesson_DataTypes/DataTypes.sol\":500:524  uint[3][2] public items1 */\n    tag_30:\n      0x0b\n      dup3\n      0x02\n      dup2\n      lt\n      tag_82\n      jumpi\n      0x00\n      dup1\n      revert\n    tag_82:\n      0x03\n      mul\n      add\n      dup2\n      0x03\n      dup2\n      lt\n      tag_84\n      jumpi\n      0x00\n      dup1\n      revert\n    tag_84:\n      add\n      0x00\n      swap2\n      pop\n      swap2\n      pop\n      pop\n      sload\n      dup2\n      jump\t// out\n        /* \"04_lesson_DataTypes/DataTypes.sol\":531:640  function setArray() public {... */\n    tag_34:\n        /* \"04_lesson_DataTypes/DataTypes.sol\":568:633  items1 = [... */\n      mload(0x40)\n      dup1\n      0x40\n      add\n      0x40\n      mstore\n      dup1\n      mload(0x40)\n      dup1\n      0x60\n      add\n      0x40\n      mstore\n      dup1\n        /* \"04_lesson_DataTypes/DataTypes.sol\":592:593  3 */\n      0x03\n        /* \"04_lesson_DataTypes/DataTypes.sol\":568:633  items1 = [... */\n      0xff\n      and\n      dup2\n      mstore\n      0x20\n      add\n        /* \"04_lesson_DataTypes/DataTypes.sol\":595:596  4 */\n      0x04\n        /* \"04_lesson_DataTypes/DataTypes.sol\":568:633  items1 = [... */\n      0xff\n      and\n      dup2\n      mstore\n      0x20\n      add\n        /* \"04_lesson_DataTypes/DataTypes.sol\":598:599  5 */\n      0x05\n        /* \"04_lesson_DataTypes/DataTypes.sol\":568:633  items1 = [... */\n      0xff\n      and\n      dup2\n      mstore\n      pop\n      dup2\n      mstore\n      0x20\n      add\n      mload(0x40)\n      dup1\n      0x60\n      add\n      0x40\n      mstore\n      dup1\n        /* \"04_lesson_DataTypes/DataTypes.sol\":615:616  6 */\n      0x06\n        /* \"04_lesson_DataTypes/DataTypes.sol\":568:633  items1 = [... */\n      0xff\n      and\n      dup2\n      mstore\n      0x20\n      add\n        /* \"04_lesson_DataTypes/DataTypes.sol\":618:619  7 */\n      0x07\n        /* \"04_lesson_DataTypes/DataTypes.sol\":568:633  items1 = [... */\n      0xff\n      and\n      dup2\n      mstore\n      0x20\n      add\n        /* \"04_lesson_DataTypes/DataTypes.sol\":621:622  8 */\n      0x08\n        /* \"04_lesson_DataTypes/DataTypes.sol\":568:633  items1 = [... */\n      0xff\n      and\n      dup2\n      mstore\n      pop\n      dup2\n      mstore\n      pop\n        /* \"04_lesson_DataTypes/DataTypes.sol\":568:574  items1 */\n      0x0b\n        /* \"04_lesson_DataTypes/DataTypes.sol\":568:633  items1 = [... */\n      swap1\n      0x02\n      tag_87\n      swap3\n      swap2\n      swap1\n      tag_88\n      jump\t// in\n    tag_87:\n      pop\n        /* \"04_lesson_DataTypes/DataTypes.sol\":531:640  function setArray() public {... */\n      jump\t// out\n        /* \"04_lesson_DataTypes/DataTypes.sol\":646:666  uint[] public items2 */\n    tag_38:\n      0x11\n      dup2\n      dup2\n      sload\n      dup2\n      lt\n      tag_89\n      jumpi\n      0x00\n      dup1\n      revert\n    tag_89:\n      swap1\n      0x00\n      mstore\n      keccak256(0x00, 0x20)\n      add\n      0x00\n      swap2\n      pop\n      swap1\n      pop\n      sload\n      dup2\n      jump\t// out\n        /* \"04_lesson_DataTypes/DataTypes.sol\":1142:1230  function getLenBytes() public view returns(uint) {... */\n    tag_41:\n        /* \"04_lesson_DataTypes/DataTypes.sol\":1185:1189  uint */\n      0x00\n        /* \"04_lesson_DataTypes/DataTypes.sol\":1208:1216  myDynVar */\n      0x14\n        /* \"04_lesson_DataTypes/DataTypes.sol\":1208:1223  myDynVar.length */\n      dup1\n      sload\n      tag_92\n      swap1\n      tag_73\n      jump\t// in\n    tag_92:\n      swap1\n      pop\n        /* \"04_lesson_DataTypes/DataTypes.sol\":1201:1223  return myDynVar.length */\n      swap1\n      pop\n        /* \"04_lesson_DataTypes/DataTypes.sol\":1142:1230  function getLenBytes() public view returns(uint) {... */\n      swap1\n      jump\t// out\n        /* \"04_lesson_DataTypes/DataTypes.sol\":368:481  function setPartArray() public {... */\n    tag_44:\n        /* \"04_lesson_DataTypes/DataTypes.sol\":421:424  100 */\n      0x64\n        /* \"04_lesson_DataTypes/DataTypes.sol\":409:415  items0 */\n      0x01\n        /* \"04_lesson_DataTypes/DataTypes.sol\":416:417  0 */\n      0x00\n        /* \"04_lesson_DataTypes/DataTypes.sol\":409:418  items0[0] */\n      0x0a\n      dup2\n      lt\n      tag_94\n      jumpi\n      tag_95\n      tag_96\n      jump\t// in\n    tag_95:\n    tag_94:\n      add\n        /* \"04_lesson_DataTypes/DataTypes.sol\":409:424  items0[0] = 100 */\n      dup2\n      swap1\n      sstore\n      pop\n        /* \"04_lesson_DataTypes/DataTypes.sol\":446:449  200 */\n      0xc8\n        /* \"04_lesson_DataTypes/DataTypes.sol\":434:440  items0 */\n      0x01\n        /* \"04_lesson_DataTypes/DataTypes.sol\":441:442  1 */\n      dup1\n        /* \"04_lesson_DataTypes/DataTypes.sol\":434:443  items0[1] */\n      0x0a\n      dup2\n      lt\n      tag_98\n      jumpi\n      tag_99\n      tag_96\n      jump\t// in\n    tag_99:\n    tag_98:\n      add\n        /* \"04_lesson_DataTypes/DataTypes.sol\":434:449  items0[1] = 200 */\n      dup2\n      swap1\n      sstore\n      pop\n        /* \"04_lesson_DataTypes/DataTypes.sol\":471:474  300 */\n      0x012c\n        /* \"04_lesson_DataTypes/DataTypes.sol\":459:465  items0 */\n      0x01\n        /* \"04_lesson_DataTypes/DataTypes.sol\":466:467  2 */\n      0x02\n        /* \"04_lesson_DataTypes/DataTypes.sol\":459:468  items0[2] */\n      0x0a\n      dup2\n      lt\n      tag_101\n      jumpi\n      tag_102\n      tag_96\n      jump\t// in\n    tag_102:\n    tag_101:\n      add\n        /* \"04_lesson_DataTypes/DataTypes.sol\":459:474  items0[2] = 300 */\n      dup2\n      swap1\n      sstore\n      pop\n        /* \"04_lesson_DataTypes/DataTypes.sol\":368:481  function setPartArray() public {... */\n      jump\t// out\n        /* \"04_lesson_DataTypes/DataTypes.sol\":672:687  uint public len */\n    tag_46:\n      sload(0x12)\n      dup2\n      jump\t// out\n        /* \"04_lesson_DataTypes/DataTypes.sol\":694:802  function pushElement(uint element) public {... */\n    tag_50:\n        /* \"04_lesson_DataTypes/DataTypes.sol\":746:752  items2 */\n      0x11\n        /* \"04_lesson_DataTypes/DataTypes.sol\":758:765  element */\n      dup2\n        /* \"04_lesson_DataTypes/DataTypes.sol\":746:766  items2.push(element) */\n      swap1\n      dup1\n      0x01\n      dup2\n      sload\n      add\n      dup1\n      dup3\n      sstore\n      dup1\n      swap2\n      pop\n      pop\n      0x01\n      swap1\n      sub\n      swap1\n      0x00\n      mstore\n      keccak256(0x00, 0x20)\n      add\n      0x00\n      swap1\n      swap2\n      swap1\n      swap2\n      swap1\n      swap2\n      pop\n      sstore\n        /* \"04_lesson_DataTypes/DataTypes.sol\":782:788  items2 */\n      0x11\n        /* \"04_lesson_DataTypes/DataTypes.sol\":782:795  items2.length */\n      dup1\n      sload\n      swap1\n      pop\n        /* \"04_lesson_DataTypes/DataTypes.sol\":776:779  len */\n      0x12\n        /* \"04_lesson_DataTypes/DataTypes.sol\":776:795  len = items2.length */\n      dup2\n      swap1\n      sstore\n      pop\n        /* \"04_lesson_DataTypes/DataTypes.sol\":694:802  function pushElement(uint element) public {... */\n      pop\n      jump\t// out\n        /* \"04_lesson_DataTypes/DataTypes.sol\":835:1002  function sampleMemory() public view returns(uint[] memory){... */\n    tag_52:\n        /* \"04_lesson_DataTypes/DataTypes.sol\":879:892  uint[] memory */\n      0x60\n        /* \"04_lesson_DataTypes/DataTypes.sol\":903:926  uint[] memory tempArray */\n      0x00\n        /* \"04_lesson_DataTypes/DataTypes.sol\":940:942  10 */\n      0x0a\n        /* \"04_lesson_DataTypes/DataTypes.sol\":929:943  new uint[](10) */\n      0xffffffffffffffff\n      dup2\n      gt\n      iszero\n      tag_107\n      jumpi\n      tag_108\n      tag_109\n      jump\t// in\n    tag_108:\n    tag_107:\n      mload(0x40)\n      swap1\n      dup1\n      dup3\n      mstore\n      dup1\n      0x20\n      mul\n      0x20\n      add\n      dup3\n      add\n      0x40\n      mstore\n      dup1\n      iszero\n      tag_110\n      jumpi\n      dup2\n      0x20\n      add\n      0x20\n      dup3\n      mul\n      dup1\n      calldatasize\n      dup4\n      calldatacopy\n      dup1\n      dup3\n      add\n      swap2\n      pop\n      pop\n      swap1\n      pop\n    tag_110:\n      pop\n        /* \"04_lesson_DataTypes/DataTypes.sol\":903:943  uint[] memory tempArray = new uint[](10) */\n      swap1\n      pop\n        /* \"04_lesson_DataTypes/DataTypes.sol\":968:969  1 */\n      0x01\n        /* \"04_lesson_DataTypes/DataTypes.sol\":953:962  tempArray */\n      dup2\n        /* \"04_lesson_DataTypes/DataTypes.sol\":963:964  0 */\n      0x00\n        /* \"04_lesson_DataTypes/DataTypes.sol\":953:965  tempArray[0] */\n      dup2\n      mload\n      dup2\n      lt\n      tag_111\n      jumpi\n      tag_112\n      tag_96\n      jump\t// in\n    tag_112:\n    tag_111:\n      0x20\n      mul\n      0x20\n      add\n      add\n        /* \"04_lesson_DataTypes/DataTypes.sol\":953:969  tempArray[0] = 1 */\n      dup2\n      dup2\n      mstore\n      pop\n      pop\n        /* \"04_lesson_DataTypes/DataTypes.sol\":986:995  tempArray */\n      dup1\n        /* \"04_lesson_DataTypes/DataTypes.sol\":979:995  return tempArray */\n      swap2\n      pop\n      pop\n        /* \"04_lesson_DataTypes/DataTypes.sol\":835:1002  function sampleMemory() public view returns(uint[] memory){... */\n      swap1\n      jump\t// out\n        /* \"04_lesson_DataTypes/DataTypes.sol\":243:320  function delivered() public {... */\n    tag_56:\n        /* \"04_lesson_DataTypes/DataTypes.sol\":297:313  Status.Delivered */\n      0x01\n        /* \"04_lesson_DataTypes/DataTypes.sol\":281:294  currentStatus */\n      0x00\n      dup1\n        /* \"04_lesson_DataTypes/DataTypes.sol\":281:313  currentStatus = Status.Delivered */\n      0x0100\n      exp\n      dup2\n      sload\n      dup2\n      0xff\n      mul\n      not\n      and\n      swap1\n      dup4\n      0x02\n      dup2\n      gt\n      iszero\n      tag_114\n      jumpi\n      tag_115\n      tag_81\n      jump\t// in\n    tag_115:\n    tag_114:\n      mul\n      or\n      swap1\n      sstore\n      pop\n        /* \"04_lesson_DataTypes/DataTypes.sol\":243:320  function delivered() public {... */\n      jump\t// out\n        /* \"04_lesson_DataTypes/DataTypes.sol\":339:361  uint[10] public items0 */\n    tag_59:\n      0x01\n      dup2\n      0x0a\n      dup2\n      lt\n      tag_116\n      jumpi\n      0x00\n      dup1\n      revert\n    tag_116:\n      add\n      0x00\n      swap2\n      pop\n      swap1\n      pop\n      sload\n      dup2\n      jump\t// out\n        /* \"04_lesson_DataTypes/DataTypes.sol\":1020:1049  bytes32 public myVar = \"test\" */\n    tag_62:\n      sload(0x13)\n      dup2\n      jump\t// out\n        /* \"04_lesson_DataTypes/DataTypes.sol\":137:164  Status public currentStatus */\n    tag_66:\n      0x00\n      dup1\n      sload\n      swap1\n      0x0100\n      exp\n      swap1\n      div\n      0xff\n      and\n      dup2\n      jump\t// out\n        /* \"04_lesson_DataTypes/DataTypes.sol\":1055:1085  bytes public myDynVar = \"test\" */\n    tag_70:\n      0x14\n      dup1\n      sload\n      tag_118\n      swap1\n      tag_73\n      jump\t// in\n    tag_118:\n      dup1\n      0x1f\n      add\n      0x20\n      dup1\n      swap2\n      div\n      mul\n      0x20\n      add\n      mload(0x40)\n      swap1\n      dup2\n      add\n      0x40\n      mstore\n      dup1\n      swap3\n      swap2\n      swap1\n      dup2\n      dup2\n      mstore\n      0x20\n      add\n      dup3\n      dup1\n      sload\n      tag_119\n      swap1\n      tag_73\n      jump\t// in\n    tag_119:\n      dup1\n      iszero\n      tag_120\n      jumpi\n      dup1\n      0x1f\n      lt\n      tag_121\n      jumpi\n      0x0100\n      dup1\n      dup4\n      sload\n      div\n      mul\n      dup4\n      mstore\n      swap2\n      0x20\n      add\n      swap2\n      jump(tag_120)\n    tag_121:\n      dup3\n      add\n      swap2\n      swap1\n      0x00\n      mstore\n      keccak256(0x00, 0x20)\n      swap1\n    tag_122:\n      dup2\n      sload\n      dup2\n      mstore\n      swap1\n      0x01\n      add\n      swap1\n      0x20\n      add\n      dup1\n      dup4\n      gt\n      tag_122\n      jumpi\n      dup3\n      swap1\n      sub\n      0x1f\n      and\n      dup3\n      add\n      swap2\n    tag_120:\n      pop\n      pop\n      pop\n      pop\n      pop\n      dup2\n      jump\t// out\n    tag_88:\n      dup3\n      mul(0x03, 0x02)\n      dup2\n      add\n      swap3\n      dup3\n      iszero\n      tag_123\n      jumpi\n      swap2\n      0x20\n      mul\n      dup3\n      add\n    tag_124:\n      dup3\n      dup2\n      gt\n      iszero\n      tag_125\n      jumpi\n      dup3\n      mload\n      dup3\n      swap1\n      0x03\n      tag_126\n      swap3\n      swap2\n      swap1\n      tag_127\n      jump\t// in\n    tag_126:\n      pop\n      swap2\n      0x20\n      add\n      swap2\n      swap1\n      0x03\n      add\n      swap1\n      jump(tag_124)\n    tag_125:\n    tag_123:\n      pop\n      swap1\n      pop\n      tag_128\n      swap2\n      swap1\n      tag_129\n      jump\t// in\n    tag_128:\n      pop\n      swap1\n      jump\t// out\n    tag_127:\n      dup3\n      0x03\n      dup2\n      add\n      swap3\n      dup3\n      iszero\n      tag_130\n      jumpi\n      swap2\n      0x20\n      mul\n      dup3\n      add\n    tag_131:\n      dup3\n      dup2\n      gt\n      iszero\n      tag_132\n      jumpi\n      dup3\n      mload\n      dup3\n      swap1\n      0xff\n      and\n      swap1\n      sstore\n      swap2\n      0x20\n      add\n      swap2\n      swap1\n      0x01\n      add\n      swap1\n      jump(tag_131)\n    tag_132:\n    tag_130:\n      pop\n      swap1\n      pop\n      tag_133\n      swap2\n      swap1\n      tag_134\n      jump\t// in\n    tag_133:\n      pop\n      swap1\n      jump\t// out\n    tag_129:\n    tag_135:\n      dup1\n      dup3\n      gt\n      iszero\n      tag_136\n      jumpi\n      0x00\n      dup2\n      dup2\n      tag_137\n      swap2\n      swap1\n      tag_138\n      jump\t// in\n    tag_137:\n      pop\n      0x03\n      add\n      jump(tag_135)\n    tag_136:\n      pop\n      swap1\n      jump\t// out\n    tag_134:\n    tag_139:\n      dup1\n      dup3\n      gt\n      iszero\n      tag_140\n      jumpi\n      0x00\n      dup2\n      0x00\n      swap1\n      sstore\n      pop\n      0x01\n      add\n      jump(tag_139)\n    tag_140:\n      pop\n      swap1\n      jump\t// out\n    tag_138:\n      pop\n      0x00\n      dup2\n      sstore\n      0x01\n      add\n      0x00\n      dup2\n      sstore\n      0x01\n      add\n      0x00\n      swap1\n      sstore\n      jump\t// out\n        /* \"#utility.yul\":7:105   */\n    tag_141:\n        /* \"#utility.yul\":58:64   */\n      0x00\n        /* \"#utility.yul\":92:97   */\n      dup2\n        /* \"#utility.yul\":86:98   */\n      mload\n        /* \"#utility.yul\":76:98   */\n      swap1\n      pop\n        /* \"#utility.yul\":7:105   */\n      swap2\n      swap1\n      pop\n      jump\t// out\n        /* \"#utility.yul\":111:279   */\n    tag_142:\n        /* \"#utility.yul\":194:205   */\n      0x00\n        /* \"#utility.yul\":228:234   */\n      dup3\n        /* \"#utility.yul\":223:226   */\n      dup3\n        /* \"#utility.yul\":216:235   */\n      mstore\n        /* \"#utility.yul\":268:272   */\n      0x20\n        /* \"#utility.yul\":263:266   */\n      dup3\n        /* \"#utility.yul\":259:273   */\n      add\n        /* \"#utility.yul\":244:273   */\n      swap1\n      pop\n        /* \"#utility.yul\":111:279   */\n      swap3\n      swap2\n      pop\n      pop\n      jump\t// out\n        /* \"#utility.yul\":285:592   */\n    tag_143:\n        /* \"#utility.yul\":353:354   */\n      0x00\n        /* \"#utility.yul\":363:476   */\n    tag_171:\n        /* \"#utility.yul\":377:383   */\n      dup4\n        /* \"#utility.yul\":374:375   */\n      dup2\n        /* \"#utility.yul\":371:384   */\n      lt\n        /* \"#utility.yul\":363:476   */\n      iszero\n      tag_173\n      jumpi\n        /* \"#utility.yul\":462:463   */\n      dup1\n        /* \"#utility.yul\":457:460   */\n      dup3\n        /* \"#utility.yul\":453:464   */\n      add\n        /* \"#utility.yul\":447:465   */\n      mload\n        /* \"#utility.yul\":443:444   */\n      dup2\n        /* \"#utility.yul\":438:441   */\n      dup5\n        /* \"#utility.yul\":434:445   */\n      add\n        /* \"#utility.yul\":427:466   */\n      mstore\n        /* \"#utility.yul\":399:401   */\n      0x20\n        /* \"#utility.yul\":396:397   */\n      dup2\n        /* \"#utility.yul\":392:402   */\n      add\n        /* \"#utility.yul\":387:402   */\n      swap1\n      pop\n        /* \"#utility.yul\":363:476   */\n      jump(tag_171)\n    tag_173:\n        /* \"#utility.yul\":494:500   */\n      dup4\n        /* \"#utility.yul\":491:492   */\n      dup2\n        /* \"#utility.yul\":488:501   */\n      gt\n        /* \"#utility.yul\":485:586   */\n      iszero\n      tag_174\n      jumpi\n        /* \"#utility.yul\":574:575   */\n      0x00\n        /* \"#utility.yul\":565:571   */\n      dup5\n        /* \"#utility.yul\":560:563   */\n      dup5\n        /* \"#utility.yul\":556:572   */\n      add\n        /* \"#utility.yul\":549:576   */\n      mstore\n        /* \"#utility.yul\":485:586   */\n    tag_174:\n        /* \"#utility.yul\":334:592   */\n      pop\n        /* \"#utility.yul\":285:592   */\n      pop\n      pop\n      pop\n      jump\t// out\n        /* \"#utility.yul\":598:700   */\n    tag_144:\n        /* \"#utility.yul\":639:645   */\n      0x00\n        /* \"#utility.yul\":690:692   */\n      0x1f\n        /* \"#utility.yul\":686:693   */\n      not\n        /* \"#utility.yul\":681:683   */\n      0x1f\n        /* \"#utility.yul\":674:679   */\n      dup4\n        /* \"#utility.yul\":670:684   */\n      add\n        /* \"#utility.yul\":666:694   */\n      and\n        /* \"#utility.yul\":656:694   */\n      swap1\n      pop\n        /* \"#utility.yul\":598:700   */\n      swap2\n      swap1\n      pop\n      jump\t// out\n        /* \"#utility.yul\":706:1066   */\n    tag_145:\n        /* \"#utility.yul\":792:795   */\n      0x00\n        /* \"#utility.yul\":820:858   */\n      tag_177\n        /* \"#utility.yul\":852:857   */\n      dup3\n        /* \"#utility.yul\":820:858   */\n      tag_141\n      jump\t// in\n    tag_177:\n        /* \"#utility.yul\":874:944   */\n      tag_178\n        /* \"#utility.yul\":937:943   */\n      dup2\n        /* \"#utility.yul\":932:935   */\n      dup6\n        /* \"#utility.yul\":874:944   */\n      tag_142\n      jump\t// in\n    tag_178:\n        /* \"#utility.yul\":867:944   */\n      swap4\n      pop\n        /* \"#utility.yul\":953:1005   */\n      tag_179\n        /* \"#utility.yul\":998:1004   */\n      dup2\n        /* \"#utility.yul\":993:996   */\n      dup6\n        /* \"#utility.yul\":986:990   */\n      0x20\n        /* \"#utility.yul\":979:984   */\n      dup7\n        /* \"#utility.yul\":975:991   */\n      add\n        /* \"#utility.yul\":953:1005   */\n      tag_143\n      jump\t// in\n    tag_179:\n        /* \"#utility.yul\":1030:1059   */\n      tag_180\n        /* \"#utility.yul\":1052:1058   */\n      dup2\n        /* \"#utility.yul\":1030:1059   */\n      tag_144\n      jump\t// in\n    tag_180:\n        /* \"#utility.yul\":1025:1028   */\n      dup5\n        /* \"#utility.yul\":1021:1060   */\n      add\n        /* \"#utility.yul\":1014:1060   */\n      swap2\n      pop\n        /* \"#utility.yul\":796:1066   */\n      pop\n        /* \"#utility.yul\":706:1066   */\n      swap3\n      swap2\n      pop\n      pop\n      jump\t// out\n        /* \"#utility.yul\":1072:1381   */\n    tag_24:\n        /* \"#utility.yul\":1183:1187   */\n      0x00\n        /* \"#utility.yul\":1221:1223   */\n      0x20\n        /* \"#utility.yul\":1210:1219   */\n      dup3\n        /* \"#utility.yul\":1206:1224   */\n      add\n        /* \"#utility.yul\":1198:1224   */\n      swap1\n      pop\n        /* \"#utility.yul\":1270:1279   */\n      dup2\n        /* \"#utility.yul\":1264:1268   */\n      dup2\n        /* \"#utility.yul\":1260:1280   */\n      sub\n        /* \"#utility.yul\":1256:1257   */\n      0x00\n        /* \"#utility.yul\":1245:1254   */\n      dup4\n        /* \"#utility.yul\":1241:1258   */\n      add\n        /* \"#utility.yul\":1234:1281   */\n      mstore\n        /* \"#utility.yul\":1298:1374   */\n      tag_182\n        /* \"#utility.yul\":1369:1373   */\n      dup2\n        /* \"#utility.yul\":1360:1366   */\n      dup5\n        /* \"#utility.yul\":1298:1374   */\n      tag_145\n      jump\t// in\n    tag_182:\n        /* \"#utility.yul\":1290:1374   */\n      swap1\n      pop\n        /* \"#utility.yul\":1072:1381   */\n      swap3\n      swap2\n      pop\n      pop\n      jump\t// out\n        /* \"#utility.yul\":1468:1585   */\n    tag_147:\n        /* \"#utility.yul\":1577:1578   */\n      0x00\n        /* \"#utility.yul\":1574:1575   */\n      dup1\n        /* \"#utility.yul\":1567:1579   */\n      revert\n        /* \"#utility.yul\":1714:1791   */\n    tag_149:\n        /* \"#utility.yul\":1751:1758   */\n      0x00\n        /* \"#utility.yul\":1780:1785   */\n      dup2\n        /* \"#utility.yul\":1769:1785   */\n      swap1\n      pop\n        /* \"#utility.yul\":1714:1791   */\n      swap2\n      swap1\n      pop\n      jump\t// out\n        /* \"#utility.yul\":1797:1919   */\n    tag_150:\n        /* \"#utility.yul\":1870:1894   */\n      tag_188\n        /* \"#utility.yul\":1888:1893   */\n      dup2\n        /* \"#utility.yul\":1870:1894   */\n      tag_149\n      jump\t// in\n    tag_188:\n        /* \"#utility.yul\":1863:1868   */\n      dup2\n        /* \"#utility.yul\":1860:1895   */\n      eq\n        /* \"#utility.yul\":1850:1913   */\n      tag_189\n      jumpi\n        /* \"#utility.yul\":1909:1910   */\n      0x00\n        /* \"#utility.yul\":1906:1907   */\n      dup1\n        /* \"#utility.yul\":1899:1911   */\n      revert\n        /* \"#utility.yul\":1850:1913   */\n    tag_189:\n        /* \"#utility.yul\":1797:1919   */\n      pop\n      jump\t// out\n        /* \"#utility.yul\":1925:2064   */\n    tag_151:\n        /* \"#utility.yul\":1971:1976   */\n      0x00\n        /* \"#utility.yul\":2009:2015   */\n      dup2\n        /* \"#utility.yul\":1996:2016   */\n      calldataload\n        /* \"#utility.yul\":1987:2016   */\n      swap1\n      pop\n        /* \"#utility.yul\":2025:2058   */\n      tag_191\n        /* \"#utility.yul\":2052:2057   */\n      dup2\n        /* \"#utility.yul\":2025:2058   */\n      tag_150\n      jump\t// in\n    tag_191:\n        /* \"#utility.yul\":1925:2064   */\n      swap3\n      swap2\n      pop\n      pop\n      jump\t// out\n        /* \"#utility.yul\":2070:2544   */\n    tag_29:\n        /* \"#utility.yul\":2138:2144   */\n      0x00\n        /* \"#utility.yul\":2146:2152   */\n      dup1\n        /* \"#utility.yul\":2195:2197   */\n      0x40\n        /* \"#utility.yul\":2183:2192   */\n      dup4\n        /* \"#utility.yul\":2174:2181   */\n      dup6\n        /* \"#utility.yul\":2170:2193   */\n      sub\n        /* \"#utility.yul\":2166:2198   */\n      slt\n        /* \"#utility.yul\":2163:2282   */\n      iszero\n      tag_193\n      jumpi\n        /* \"#utility.yul\":2201:2280   */\n      tag_194\n      tag_147\n      jump\t// in\n    tag_194:\n        /* \"#utility.yul\":2163:2282   */\n    tag_193:\n        /* \"#utility.yul\":2321:2322   */\n      0x00\n        /* \"#utility.yul\":2346:2399   */\n      tag_195\n        /* \"#utility.yul\":2391:2398   */\n      dup6\n        /* \"#utility.yul\":2382:2388   */\n      dup3\n        /* \"#utility.yul\":2371:2380   */\n      dup7\n        /* \"#utility.yul\":2367:2389   */\n      add\n        /* \"#utility.yul\":2346:2399   */\n      tag_151\n      jump\t// in\n    tag_195:\n        /* \"#utility.yul\":2336:2399   */\n      swap3\n      pop\n        /* \"#utility.yul\":2292:2409   */\n      pop\n        /* \"#utility.yul\":2448:2450   */\n      0x20\n        /* \"#utility.yul\":2474:2527   */\n      tag_196\n        /* \"#utility.yul\":2519:2526   */\n      dup6\n        /* \"#utility.yul\":2510:2516   */\n      dup3\n        /* \"#utility.yul\":2499:2508   */\n      dup7\n        /* \"#utility.yul\":2495:2517   */\n      add\n        /* \"#utility.yul\":2474:2527   */\n      tag_151\n      jump\t// in\n    tag_196:\n        /* \"#utility.yul\":2464:2527   */\n      swap2\n      pop\n        /* \"#utility.yul\":2419:2537   */\n      pop\n        /* \"#utility.yul\":2070:2544   */\n      swap3\n      pop\n      swap3\n      swap1\n      pop\n      jump\t// out\n        /* \"#utility.yul\":2550:2668   */\n    tag_152:\n        /* \"#utility.yul\":2637:2661   */\n      tag_198\n        /* \"#utility.yul\":2655:2660   */\n      dup2\n        /* \"#utility.yul\":2637:2661   */\n      tag_149\n      jump\t// in\n    tag_198:\n        /* \"#utility.yul\":2632:2635   */\n      dup3\n        /* \"#utility.yul\":2625:2662   */\n      mstore\n        /* \"#utility.yul\":2550:2668   */\n      pop\n      pop\n      jump\t// out\n        /* \"#utility.yul\":2674:2896   */\n    tag_32:\n        /* \"#utility.yul\":2767:2771   */\n      0x00\n        /* \"#utility.yul\":2805:2807   */\n      0x20\n        /* \"#utility.yul\":2794:2803   */\n      dup3\n        /* \"#utility.yul\":2790:2808   */\n      add\n        /* \"#utility.yul\":2782:2808   */\n      swap1\n      pop\n        /* \"#utility.yul\":2818:2889   */\n      tag_200\n        /* \"#utility.yul\":2886:2887   */\n      0x00\n        /* \"#utility.yul\":2875:2884   */\n      dup4\n        /* \"#utility.yul\":2871:2888   */\n      add\n        /* \"#utility.yul\":2862:2868   */\n      dup5\n        /* \"#utility.yul\":2818:2889   */\n      tag_152\n      jump\t// in\n    tag_200:\n        /* \"#utility.yul\":2674:2896   */\n      swap3\n      swap2\n      pop\n      pop\n      jump\t// out\n        /* \"#utility.yul\":2902:3231   */\n    tag_37:\n        /* \"#utility.yul\":2961:2967   */\n      0x00\n        /* \"#utility.yul\":3010:3012   */\n      0x20\n        /* \"#utility.yul\":2998:3007   */\n      dup3\n        /* \"#utility.yul\":2989:2996   */\n      dup5\n        /* \"#utility.yul\":2985:3008   */\n      sub\n        /* \"#utility.yul\":2981:3013   */\n      slt\n        /* \"#utility.yul\":2978:3097   */\n      iszero\n      tag_202\n      jumpi\n        /* \"#utility.yul\":3016:3095   */\n      tag_203\n      tag_147\n      jump\t// in\n    tag_203:\n        /* \"#utility.yul\":2978:3097   */\n    tag_202:\n        /* \"#utility.yul\":3136:3137   */\n      0x00\n        /* \"#utility.yul\":3161:3214   */\n      tag_204\n        /* \"#utility.yul\":3206:3213   */\n      dup5\n        /* \"#utility.yul\":3197:3203   */\n      dup3\n        /* \"#utility.yul\":3186:3195   */\n      dup6\n        /* \"#utility.yul\":3182:3204   */\n      add\n        /* \"#utility.yul\":3161:3214   */\n      tag_151\n      jump\t// in\n    tag_204:\n        /* \"#utility.yul\":3151:3214   */\n      swap2\n      pop\n        /* \"#utility.yul\":3107:3224   */\n      pop\n        /* \"#utility.yul\":2902:3231   */\n      swap3\n      swap2\n      pop\n      pop\n      jump\t// out\n        /* \"#utility.yul\":3237:3351   */\n    tag_153:\n        /* \"#utility.yul\":3304:3310   */\n      0x00\n        /* \"#utility.yul\":3338:3343   */\n      dup2\n        /* \"#utility.yul\":3332:3344   */\n      mload\n        /* \"#utility.yul\":3322:3344   */\n      swap1\n      pop\n        /* \"#utility.yul\":3237:3351   */\n      swap2\n      swap1\n      pop\n      jump\t// out\n        /* \"#utility.yul\":3357:3541   */\n    tag_154:\n        /* \"#utility.yul\":3456:3467   */\n      0x00\n        /* \"#utility.yul\":3490:3496   */\n      dup3\n        /* \"#utility.yul\":3485:3488   */\n      dup3\n        /* \"#utility.yul\":3478:3497   */\n      mstore\n        /* \"#utility.yul\":3530:3534   */\n      0x20\n        /* \"#utility.yul\":3525:3528   */\n      dup3\n        /* \"#utility.yul\":3521:3535   */\n      add\n        /* \"#utility.yul\":3506:3535   */\n      swap1\n      pop\n        /* \"#utility.yul\":3357:3541   */\n      swap3\n      swap2\n      pop\n      pop\n      jump\t// out\n        /* \"#utility.yul\":3547:3679   */\n    tag_155:\n        /* \"#utility.yul\":3614:3618   */\n      0x00\n        /* \"#utility.yul\":3637:3640   */\n      dup2\n        /* \"#utility.yul\":3629:3640   */\n      swap1\n      pop\n        /* \"#utility.yul\":3667:3671   */\n      0x20\n        /* \"#utility.yul\":3662:3665   */\n      dup3\n        /* \"#utility.yul\":3658:3672   */\n      add\n        /* \"#utility.yul\":3650:3672   */\n      swap1\n      pop\n        /* \"#utility.yul\":3547:3679   */\n      swap2\n      swap1\n      pop\n      jump\t// out\n        /* \"#utility.yul\":3685:3793   */\n    tag_156:\n        /* \"#utility.yul\":3762:3786   */\n      tag_209\n        /* \"#utility.yul\":3780:3785   */\n      dup2\n        /* \"#utility.yul\":3762:3786   */\n      tag_149\n      jump\t// in\n    tag_209:\n        /* \"#utility.yul\":3757:3760   */\n      dup3\n        /* \"#utility.yul\":3750:3787   */\n      mstore\n        /* \"#utility.yul\":3685:3793   */\n      pop\n      pop\n      jump\t// out\n        /* \"#utility.yul\":3799:3978   */\n    tag_157:\n        /* \"#utility.yul\":3868:3878   */\n      0x00\n        /* \"#utility.yul\":3889:3935   */\n      tag_211\n        /* \"#utility.yul\":3931:3934   */\n      dup4\n        /* \"#utility.yul\":3923:3929   */\n      dup4\n        /* \"#utility.yul\":3889:3935   */\n      tag_156\n      jump\t// in\n    tag_211:\n        /* \"#utility.yul\":3967:3971   */\n      0x20\n        /* \"#utility.yul\":3962:3965   */\n      dup4\n        /* \"#utility.yul\":3958:3972   */\n      add\n        /* \"#utility.yul\":3944:3972   */\n      swap1\n      pop\n        /* \"#utility.yul\":3799:3978   */\n      swap3\n      swap2\n      pop\n      pop\n      jump\t// out\n        /* \"#utility.yul\":3984:4097   */\n    tag_158:\n        /* \"#utility.yul\":4054:4058   */\n      0x00\n        /* \"#utility.yul\":4086:4090   */\n      0x20\n        /* \"#utility.yul\":4081:4084   */\n      dup3\n        /* \"#utility.yul\":4077:4091   */\n      add\n        /* \"#utility.yul\":4069:4091   */\n      swap1\n      pop\n        /* \"#utility.yul\":3984:4097   */\n      swap2\n      swap1\n      pop\n      jump\t// out\n        /* \"#utility.yul\":4133:4865   */\n    tag_159:\n        /* \"#utility.yul\":4252:4255   */\n      0x00\n        /* \"#utility.yul\":4281:4335   */\n      tag_214\n        /* \"#utility.yul\":4329:4334   */\n      dup3\n        /* \"#utility.yul\":4281:4335   */\n      tag_153\n      jump\t// in\n    tag_214:\n        /* \"#utility.yul\":4351:4437   */\n      tag_215\n        /* \"#utility.yul\":4430:4436   */\n      dup2\n        /* \"#utility.yul\":4425:4428   */\n      dup6\n        /* \"#utility.yul\":4351:4437   */\n      tag_154\n      jump\t// in\n    tag_215:\n        /* \"#utility.yul\":4344:4437   */\n      swap4\n      pop\n        /* \"#utility.yul\":4461:4517   */\n      tag_216\n        /* \"#utility.yul\":4511:4516   */\n      dup4\n        /* \"#utility.yul\":4461:4517   */\n      tag_155\n      jump\t// in\n    tag_216:\n        /* \"#utility.yul\":4540:4547   */\n      dup1\n        /* \"#utility.yul\":4571:4572   */\n      0x00\n        /* \"#utility.yul\":4556:4840   */\n    tag_217:\n        /* \"#utility.yul\":4581:4587   */\n      dup4\n        /* \"#utility.yul\":4578:4579   */\n      dup2\n        /* \"#utility.yul\":4575:4588   */\n      lt\n        /* \"#utility.yul\":4556:4840   */\n      iszero\n      tag_219\n      jumpi\n        /* \"#utility.yul\":4657:4663   */\n      dup2\n        /* \"#utility.yul\":4651:4664   */\n      mload\n        /* \"#utility.yul\":4684:4747   */\n      tag_220\n        /* \"#utility.yul\":4743:4746   */\n      dup9\n        /* \"#utility.yul\":4728:4741   */\n      dup3\n        /* \"#utility.yul\":4684:4747   */\n      tag_157\n      jump\t// in\n    tag_220:\n        /* \"#utility.yul\":4677:4747   */\n      swap8\n      pop\n        /* \"#utility.yul\":4770:4830   */\n      tag_221\n        /* \"#utility.yul\":4823:4829   */\n      dup4\n        /* \"#utility.yul\":4770:4830   */\n      tag_158\n      jump\t// in\n    tag_221:\n        /* \"#utility.yul\":4760:4830   */\n      swap3\n      pop\n        /* \"#utility.yul\":4616:4840   */\n      pop\n        /* \"#utility.yul\":4603:4604   */\n      0x01\n        /* \"#utility.yul\":4600:4601   */\n      dup2\n        /* \"#utility.yul\":4596:4605   */\n      add\n        /* \"#utility.yul\":4591:4605   */\n      swap1\n      pop\n        /* \"#utility.yul\":4556:4840   */\n      jump(tag_217)\n    tag_219:\n        /* \"#utility.yul\":4560:4574   */\n      pop\n        /* \"#utility.yul\":4856:4859   */\n      dup6\n        /* \"#utility.yul\":4849:4859   */\n      swap4\n      pop\n        /* \"#utility.yul\":4257:4865   */\n      pop\n      pop\n      pop\n        /* \"#utility.yul\":4133:4865   */\n      swap3\n      swap2\n      pop\n      pop\n      jump\t// out\n        /* \"#utility.yul\":4871:5244   */\n    tag_54:\n        /* \"#utility.yul\":5014:5018   */\n      0x00\n        /* \"#utility.yul\":5052:5054   */\n      0x20\n        /* \"#utility.yul\":5041:5050   */\n      dup3\n        /* \"#utility.yul\":5037:5055   */\n      add\n        /* \"#utility.yul\":5029:5055   */\n      swap1\n      pop\n        /* \"#utility.yul\":5101:5110   */\n      dup2\n        /* \"#utility.yul\":5095:5099   */\n      dup2\n        /* \"#utility.yul\":5091:5111   */\n      sub\n        /* \"#utility.yul\":5087:5088   */\n      0x00\n        /* \"#utility.yul\":5076:5085   */\n      dup4\n        /* \"#utility.yul\":5072:5089   */\n      add\n        /* \"#utility.yul\":5065:5112   */\n      mstore\n        /* \"#utility.yul\":5129:5237   */\n      tag_223\n        /* \"#utility.yul\":5232:5236   */\n      dup2\n        /* \"#utility.yul\":5223:5229   */\n      dup5\n        /* \"#utility.yul\":5129:5237   */\n      tag_159\n      jump\t// in\n    tag_223:\n        /* \"#utility.yul\":5121:5237   */\n      swap1\n      pop\n        /* \"#utility.yul\":4871:5244   */\n      swap3\n      swap2\n      pop\n      pop\n      jump\t// out\n        /* \"#utility.yul\":5250:5327   */\n    tag_160:\n        /* \"#utility.yul\":5287:5294   */\n      0x00\n        /* \"#utility.yul\":5316:5321   */\n      dup2\n        /* \"#utility.yul\":5305:5321   */\n      swap1\n      pop\n        /* \"#utility.yul\":5250:5327   */\n      swap2\n      swap1\n      pop\n      jump\t// out\n        /* \"#utility.yul\":5333:5451   */\n    tag_161:\n        /* \"#utility.yul\":5420:5444   */\n      tag_226\n        /* \"#utility.yul\":5438:5443   */\n      dup2\n        /* \"#utility.yul\":5420:5444   */\n      tag_160\n      jump\t// in\n    tag_226:\n        /* \"#utility.yul\":5415:5418   */\n      dup3\n        /* \"#utility.yul\":5408:5445   */\n      mstore\n        /* \"#utility.yul\":5333:5451   */\n      pop\n      pop\n      jump\t// out\n        /* \"#utility.yul\":5457:5679   */\n    tag_64:\n        /* \"#utility.yul\":5550:5554   */\n      0x00\n        /* \"#utility.yul\":5588:5590   */\n      0x20\n        /* \"#utility.yul\":5577:5586   */\n      dup3\n        /* \"#utility.yul\":5573:5591   */\n      add\n        /* \"#utility.yul\":5565:5591   */\n      swap1\n      pop\n        /* \"#utility.yul\":5601:5672   */\n      tag_228\n        /* \"#utility.yul\":5669:5670   */\n      0x00\n        /* \"#utility.yul\":5658:5667   */\n      dup4\n        /* \"#utility.yul\":5654:5671   */\n      add\n        /* \"#utility.yul\":5645:5651   */\n      dup5\n        /* \"#utility.yul\":5601:5672   */\n      tag_161\n      jump\t// in\n    tag_228:\n        /* \"#utility.yul\":5457:5679   */\n      swap3\n      swap2\n      pop\n      pop\n      jump\t// out\n        /* \"#utility.yul\":5685:5865   */\n    tag_81:\n        /* \"#utility.yul\":5733:5810   */\n      0x4e487b7100000000000000000000000000000000000000000000000000000000\n        /* \"#utility.yul\":5730:5731   */\n      0x00\n        /* \"#utility.yul\":5723:5811   */\n      mstore\n        /* \"#utility.yul\":5830:5834   */\n      0x21\n        /* \"#utility.yul\":5827:5828   */\n      0x04\n        /* \"#utility.yul\":5820:5835   */\n      mstore\n        /* \"#utility.yul\":5854:5858   */\n      0x24\n        /* \"#utility.yul\":5851:5852   */\n      0x00\n        /* \"#utility.yul\":5844:5859   */\n      revert\n        /* \"#utility.yul\":5871:5984   */\n    tag_162:\n        /* \"#utility.yul\":5952:5953   */\n      0x03\n        /* \"#utility.yul\":5945:5950   */\n      dup2\n        /* \"#utility.yul\":5942:5954   */\n      lt\n        /* \"#utility.yul\":5932:5978   */\n      tag_231\n      jumpi\n        /* \"#utility.yul\":5958:5976   */\n      tag_232\n      tag_81\n      jump\t// in\n    tag_232:\n        /* \"#utility.yul\":5932:5978   */\n    tag_231:\n        /* \"#utility.yul\":5871:5984   */\n      pop\n      jump\t// out\n        /* \"#utility.yul\":5990:6117   */\n    tag_163:\n        /* \"#utility.yul\":6035:6042   */\n      0x00\n        /* \"#utility.yul\":6064:6069   */\n      dup2\n        /* \"#utility.yul\":6053:6069   */\n      swap1\n      pop\n        /* \"#utility.yul\":6070:6111   */\n      tag_234\n        /* \"#utility.yul\":6105:6110   */\n      dup3\n        /* \"#utility.yul\":6070:6111   */\n      tag_162\n      jump\t// in\n    tag_234:\n        /* \"#utility.yul\":5990:6117   */\n      swap2\n      swap1\n      pop\n      jump\t// out\n        /* \"#utility.yul\":6123:6250   */\n    tag_164:\n        /* \"#utility.yul\":6179:6188   */\n      0x00\n        /* \"#utility.yul\":6212:6244   */\n      tag_236\n        /* \"#utility.yul\":6238:6243   */\n      dup3\n        /* \"#utility.yul\":6212:6244   */\n      tag_163\n      jump\t// in\n    tag_236:\n        /* \"#utility.yul\":6199:6244   */\n      swap1\n      pop\n        /* \"#utility.yul\":6123:6250   */\n      swap2\n      swap1\n      pop\n      jump\t// out\n        /* \"#utility.yul\":6256:6399   */\n    tag_165:\n        /* \"#utility.yul\":6349:6392   */\n      tag_238\n        /* \"#utility.yul\":6386:6391   */\n      dup2\n        /* \"#utility.yul\":6349:6392   */\n      tag_164\n      jump\t// in\n    tag_238:\n        /* \"#utility.yul\":6344:6347   */\n      dup3\n        /* \"#utility.yul\":6337:6393   */\n      mstore\n        /* \"#utility.yul\":6256:6399   */\n      pop\n      pop\n      jump\t// out\n        /* \"#utility.yul\":6405:6639   */\n    tag_68:\n        /* \"#utility.yul\":6504:6508   */\n      0x00\n        /* \"#utility.yul\":6542:6544   */\n      0x20\n        /* \"#utility.yul\":6531:6540   */\n      dup3\n        /* \"#utility.yul\":6527:6545   */\n      add\n        /* \"#utility.yul\":6519:6545   */\n      swap1\n      pop\n        /* \"#utility.yul\":6555:6632   */\n      tag_240\n        /* \"#utility.yul\":6629:6630   */\n      0x00\n        /* \"#utility.yul\":6618:6627   */\n      dup4\n        /* \"#utility.yul\":6614:6631   */\n      add\n        /* \"#utility.yul\":6605:6611   */\n      dup5\n        /* \"#utility.yul\":6555:6632   */\n      tag_165\n      jump\t// in\n    tag_240:\n        /* \"#utility.yul\":6405:6639   */\n      swap3\n      swap2\n      pop\n      pop\n      jump\t// out\n        /* \"#utility.yul\":6645:6825   */\n    tag_166:\n        /* \"#utility.yul\":6693:6770   */\n      0x4e487b7100000000000000000000000000000000000000000000000000000000\n        /* \"#utility.yul\":6690:6691   */\n      0x00\n        /* \"#utility.yul\":6683:6771   */\n      mstore\n        /* \"#utility.yul\":6790:6794   */\n      0x22\n        /* \"#utility.yul\":6787:6788   */\n      0x04\n        /* \"#utility.yul\":6780:6795   */\n      mstore\n        /* \"#utility.yul\":6814:6818   */\n      0x24\n        /* \"#utility.yul\":6811:6812   */\n      0x00\n        /* \"#utility.yul\":6804:6819   */\n      revert\n        /* \"#utility.yul\":6831:7151   */\n    tag_73:\n        /* \"#utility.yul\":6875:6881   */\n      0x00\n        /* \"#utility.yul\":6912:6913   */\n      0x02\n        /* \"#utility.yul\":6906:6910   */\n      dup3\n        /* \"#utility.yul\":6902:6914   */\n      div\n        /* \"#utility.yul\":6892:6914   */\n      swap1\n      pop\n        /* \"#utility.yul\":6959:6960   */\n      0x01\n        /* \"#utility.yul\":6953:6957   */\n      dup3\n        /* \"#utility.yul\":6949:6961   */\n      and\n        /* \"#utility.yul\":6980:6998   */\n      dup1\n        /* \"#utility.yul\":6970:7051   */\n      tag_243\n      jumpi\n        /* \"#utility.yul\":7036:7040   */\n      0x7f\n        /* \"#utility.yul\":7028:7034   */\n      dup3\n        /* \"#utility.yul\":7024:7041   */\n      and\n        /* \"#utility.yul\":7014:7041   */\n      swap2\n      pop\n        /* \"#utility.yul\":6970:7051   */\n    tag_243:\n        /* \"#utility.yul\":7098:7100   */\n      0x20\n        /* \"#utility.yul\":7090:7096   */\n      dup3\n        /* \"#utility.yul\":7087:7101   */\n      lt\n        /* \"#utility.yul\":7067:7085   */\n      dup2\n        /* \"#utility.yul\":7064:7102   */\n      sub\n        /* \"#utility.yul\":7061:7145   */\n      tag_244\n      jumpi\n        /* \"#utility.yul\":7117:7135   */\n      tag_245\n      tag_166\n      jump\t// in\n    tag_245:\n        /* \"#utility.yul\":7061:7145   */\n    tag_244:\n        /* \"#utility.yul\":6882:7151   */\n      pop\n        /* \"#utility.yul\":6831:7151   */\n      swap2\n      swap1\n      pop\n      jump\t// out\n        /* \"#utility.yul\":7157:7337   */\n    tag_96:\n        /* \"#utility.yul\":7205:7282   */\n      0x4e487b7100000000000000000000000000000000000000000000000000000000\n        /* \"#utility.yul\":7202:7203   */\n      0x00\n        /* \"#utility.yul\":7195:7283   */\n      mstore\n        /* \"#utility.yul\":7302:7306   */\n      0x32\n        /* \"#utility.yul\":7299:7300   */\n      0x04\n        /* \"#utility.yul\":7292:7307   */\n      mstore\n        /* \"#utility.yul\":7326:7330   */\n      0x24\n        /* \"#utility.yul\":7323:7324   */\n      0x00\n        /* \"#utility.yul\":7316:7331   */\n      revert\n        /* \"#utility.yul\":7343:7523   */\n    tag_109:\n        /* \"#utility.yul\":7391:7468   */\n      0x4e487b7100000000000000000000000000000000000000000000000000000000\n        /* \"#utility.yul\":7388:7389   */\n      0x00\n        /* \"#utility.yul\":7381:7469   */\n      mstore\n        /* \"#utility.yul\":7488:7492   */\n      0x41\n        /* \"#utility.yul\":7485:7486   */\n      0x04\n        /* \"#utility.yul\":7478:7493   */\n      mstore\n        /* \"#utility.yul\":7512:7516   */\n      0x24\n        /* \"#utility.yul\":7509:7510   */\n      0x00\n        /* \"#utility.yul\":7502:7517   */\n      revert\n\n    auxdata: 0xa26469706673582212205d5618b906afad815dd14027b4d9b6fd245ded35d86c8ee197edf06fcb96785364736f6c634300080e0033\n}\n",
				"bytecode": {
					"linkReferences": {},
					"object": "60806040527f74657374000000000000000000000000000000000000000000000000000000006013556040518060400160405280600481526020017f74657374000000000000000000000000000000000000000000000000000000008152506014908051906020019062000075929190620000d8565b506040518060400160405280600881526020017fd182d0b5d181d18200000000000000000000000000000000000000000000000081525060159080519060200190620000c3929190620000d8565b50348015620000d157600080fd5b50620001ec565b828054620000e690620001b7565b90600052602060002090601f0160209004810192826200010a576000855562000156565b82601f106200012557805160ff191683800117855562000156565b8280016001018555821562000156579182015b828111156200015557825182559160200191906001019062000138565b5b50905062000165919062000169565b5090565b5b80821115620001845760008160009055506001016200016a565b5090565b7f4e487b7100000000000000000000000000000000000000000000000000000000600052602260045260246000fd5b60006002820490506001821680620001d057607f821691505b602082108103620001e657620001e562000188565b5b50919050565b610b4280620001fc6000396000f3fe608060405234801561001057600080fd5b50600436106100f55760003560e01c806356d88e2711610097578063c1a42d1911610066578063c1a42d1914610216578063c6b9154014610246578063ef8a923514610264578063ffb1e21014610282576100f5565b806356d88e27146101b457806378321efb146101d2578063a34343c9146101ee578063bbdfbfba1461020c576100f5565b80632724898b116100d35780632724898b14610152578063503f8cab1461015c578063526aa79a1461018c5780635464fb90146101aa576100f5565b806314d0c51e146100fa5780631b9265b8146101185780631f0393a314610122575b600080fd5b6101026102a0565b60405161010f91906107b4565b60405180910390f35b61012061032e565b005b61013c60048036038101906101379190610811565b61035a565b6040516101499190610860565b60405180910390f35b61015a610388565b005b6101766004803603810190610171919061087b565b6103fc565b6040516101839190610860565b60405180910390f35b610194610420565b6040516101a19190610860565b60405180910390f35b6101b2610436565b005b6101bc61048c565b6040516101c99190610860565b60405180910390f35b6101ec60048036038101906101e7919061087b565b610492565b005b6101f66104ca565b6040516102039190610966565b60405180910390f35b610214610543565b005b610230600480360381019061022b919061087b565b61056f565b60405161023d9190610860565b60405180910390f35b61024e61058a565b60405161025b91906109a1565b60405180910390f35b61026c610590565b6040516102799190610a33565b60405180910390f35b61028a6105a1565b60405161029791906107b4565b60405180910390f35b601580546102ad90610a7d565b80601f01602080910402602001604051908101604052809291908181526020018280546102d990610a7d565b80156103265780601f106102fb57610100808354040283529160200191610326565b820191906000526020600020905b81548152906001019060200180831161030957829003601f168201915b505050505081565b60008060006101000a81548160ff02191690836002811115610353576103526109bc565b5b0217905550565b600b826002811061036a57600080fd5b60030201816003811061037c57600080fd5b01600091509150505481565b60405180604001604052806040518060600160405280600360ff168152602001600460ff168152602001600560ff1681525081526020016040518060600160405280600660ff168152602001600760ff168152602001600860ff16815250815250600b9060026103f992919061062f565b50565b6011818154811061040c57600080fd5b906000526020600020016000915090505481565b60006014805461042f90610a7d565b9050905090565b606460016000600a811061044d5761044c610aae565b5b018190555060c8600180600a811061046857610467610aae565b5b018190555061012c60016002600a811061048557610484610aae565b5b0181905550565b60125481565b601181908060018154018082558091505060019003906000526020600020016000909190919091505560118054905060128190555050565b60606000600a67ffffffffffffffff8111156104e9576104e8610add565b5b6040519080825280602002602001820160405280156105175781602001602082028036833780820191505090505b5090506001816000815181106105305761052f610aae565b5b6020026020010181815250508091505090565b60016000806101000a81548160ff02191690836002811115610568576105676109bc565b5b0217905550565b600181600a811061057f57600080fd5b016000915090505481565b60135481565b60008054906101000a900460ff1681565b601480546105ae90610a7d565b80601f01602080910402602001604051908101604052809291908181526020018280546105da90610a7d565b80156106275780601f106105fc57610100808354040283529160200191610627565b820191906000526020600020905b81548152906001019060200180831161060a57829003601f168201915b505050505081565b826002600302810192821561066f579160200282015b8281111561066e5782518290600361065e929190610680565b5091602001919060030190610645565b5b50905061067c91906106c5565b5090565b82600381019282156106b4579160200282015b828111156106b3578251829060ff16905591602001919060010190610693565b5b5090506106c191906106e9565b5090565b5b808211156106e557600081816106dc9190610706565b506003016106c6565b5090565b5b808211156107025760008160009055506001016106ea565b5090565b50600081556001016000815560010160009055565b600081519050919050565b600082825260208201905092915050565b60005b8381101561075557808201518184015260208101905061073a565b83811115610764576000848401525b50505050565b6000601f19601f8301169050919050565b60006107868261071b565b6107908185610726565b93506107a0818560208601610737565b6107a98161076a565b840191505092915050565b600060208201905081810360008301526107ce818461077b565b905092915050565b600080fd5b6000819050919050565b6107ee816107db565b81146107f957600080fd5b50565b60008135905061080b816107e5565b92915050565b60008060408385031215610828576108276107d6565b5b6000610836858286016107fc565b9250506020610847858286016107fc565b9150509250929050565b61085a816107db565b82525050565b60006020820190506108756000830184610851565b92915050565b600060208284031215610891576108906107d6565b5b600061089f848285016107fc565b91505092915050565b600081519050919050565b600082825260208201905092915050565b6000819050602082019050919050565b6108dd816107db565b82525050565b60006108ef83836108d4565b60208301905092915050565b6000602082019050919050565b6000610913826108a8565b61091d81856108b3565b9350610928836108c4565b8060005b8381101561095957815161094088826108e3565b975061094b836108fb565b92505060018101905061092c565b5085935050505092915050565b600060208201905081810360008301526109808184610908565b905092915050565b6000819050919050565b61099b81610988565b82525050565b60006020820190506109b66000830184610992565b92915050565b7f4e487b7100000000000000000000000000000000000000000000000000000000600052602160045260246000fd5b600381106109fc576109fb6109bc565b5b50565b6000819050610a0d826109eb565b919050565b6000610a1d826109ff565b9050919050565b610a2d81610a12565b82525050565b6000602082019050610a486000830184610a24565b92915050565b7f4e487b7100000000000000000000000000000000000000000000000000000000600052602260045260246000fd5b60006002820490506001821680610a9557607f821691505b602082108103610aa857610aa7610a4e565b5b50919050565b7f4e487b7100000000000000000000000000000000000000000000000000000000600052603260045260246000fd5b7f4e487b7100000000000000000000000000000000000000000000000000000000600052604160045260246000fdfea26469706673582212205d5618b906afad815dd14027b4d9b6fd245ded35d86c8ee197edf06fcb96785364736f6c634300080e0033",
					"opcodes": "PUSH1 0x80 PUSH1 0x40 MSTORE PUSH32 0x7465737400000000000000000000000000000000000000000000000000000000 PUSH1 0x13 SSTORE PUSH1 0x40 MLOAD DUP1 PUSH1 0x40 ADD PUSH1 0x40 MSTORE DUP1 PUSH1 0x4 DUP2 MSTORE PUSH1 0x20 ADD PUSH32 0x7465737400000000000000000000000000000000000000000000000000000000 DUP2 MSTORE POP PUSH1 0x14 SWAP1 DUP1 MLOAD SWAP1 PUSH1 0x20 ADD SWAP1 PUSH3 0x75 SWAP3 SWAP2 SWAP1 PUSH3 0xD8 JUMP JUMPDEST POP PUSH1 0x40 MLOAD DUP1 PUSH1 0x40 ADD PUSH1 0x40 MSTORE DUP1 PUSH1 0x8 DUP2 MSTORE PUSH1 0x20 ADD PUSH32 0xD182D0B5D181D182000000000000000000000000000000000000000000000000 DUP2 MSTORE POP PUSH1 0x15 SWAP1 DUP1 MLOAD SWAP1 PUSH1 0x20 ADD SWAP1 PUSH3 0xC3 SWAP3 SWAP2 SWAP1 PUSH3 0xD8 JUMP JUMPDEST POP CALLVALUE DUP1 ISZERO PUSH3 0xD1 JUMPI PUSH1 0x0 DUP1 REVERT JUMPDEST POP PUSH3 0x1EC JUMP JUMPDEST DUP3 DUP1 SLOAD PUSH3 0xE6 SWAP1 PUSH3 0x1B7 JUMP JUMPDEST SWAP1 PUSH1 0x0 MSTORE PUSH1 0x20 PUSH1 0x0 KECCAK256 SWAP1 PUSH1 0x1F ADD PUSH1 0x20 SWAP1 DIV DUP2 ADD SWAP3 DUP3 PUSH3 0x10A JUMPI PUSH1 0x0 DUP6 SSTORE PUSH3 0x156 JUMP JUMPDEST DUP3 PUSH1 0x1F LT PUSH3 0x125 JUMPI DUP1 MLOAD PUSH1 0xFF NOT AND DUP4 DUP1 ADD OR DUP6 SSTORE PUSH3 0x156 JUMP JUMPDEST DUP3 DUP1 ADD PUSH1 0x1 ADD DUP6 SSTORE DUP3 ISZERO PUSH3 0x156 JUMPI SWAP2 DUP3 ADD JUMPDEST DUP3 DUP2 GT ISZERO PUSH3 0x155 JUMPI DUP3 MLOAD DUP3 SSTORE SWAP2 PUSH1 0x20 ADD SWAP2 SWAP1 PUSH1 0x1 ADD SWAP1 PUSH3 0x138 JUMP JUMPDEST JUMPDEST POP SWAP1 POP PUSH3 0x165 SWAP2 SWAP1 PUSH3 0x169 JUMP JUMPDEST POP SWAP1 JUMP JUMPDEST JUMPDEST DUP1 DUP3 GT ISZERO PUSH3 0x184 JUMPI PUSH1 0x0 DUP2 PUSH1 0x0 SWAP1 SSTORE POP PUSH1 0x1 ADD PUSH3 0x16A JUMP JUMPDEST POP SWAP1 JUMP JUMPDEST PUSH32 0x4E487B7100000000000000000000000000000000000000000000000000000000 PUSH1 0x0 MSTORE PUSH1 0x22 PUSH1 0x4 MSTORE PUSH1 0x24 PUSH1 0x0 REVERT JUMPDEST PUSH1 0x0 PUSH1 0x2 DUP3 DIV SWAP1 POP PUSH1 0x1 DUP3 AND DUP1 PUSH3 0x1D0 JUMPI PUSH1 0x7F DUP3 AND SWAP2 POP JUMPDEST PUSH1 0x20 DUP3 LT DUP2 SUB PUSH3 0x1E6 JUMPI PUSH3 0x1E5 PUSH3 0x188 JUMP JUMPDEST JUMPDEST POP SWAP2 SWAP1 POP JUMP JUMPDEST PUSH2 0xB42 DUP1 PUSH3 0x1FC PUSH1 0x0 CODECOPY PUSH1 0x0 RETURN INVALID PUSH1 0x80 PUSH1 0x40 MSTORE CALLVALUE DUP1 ISZERO PUSH2 0x10 JUMPI PUSH1 0x0 DUP1 REVERT JUMPDEST POP PUSH1 0x4 CALLDATASIZE LT PUSH2 0xF5 JUMPI PUSH1 0x0 CALLDATALOAD PUSH1 0xE0 SHR DUP1 PUSH4 0x56D88E27 GT PUSH2 0x97 JUMPI DUP1 PUSH4 0xC1A42D19 GT PUSH2 0x66 JUMPI DUP1 PUSH4 0xC1A42D19 EQ PUSH2 0x216 JUMPI DUP1 PUSH4 0xC6B91540 EQ PUSH2 0x246 JUMPI DUP1 PUSH4 0xEF8A9235 EQ PUSH2 0x264 JUMPI DUP1 PUSH4 0xFFB1E210 EQ PUSH2 0x282 JUMPI PUSH2 0xF5 JUMP JUMPDEST DUP1 PUSH4 0x56D88E27 EQ PUSH2 0x1B4 JUMPI DUP1 PUSH4 0x78321EFB EQ PUSH2 0x1D2 JUMPI DUP1 PUSH4 0xA34343C9 EQ PUSH2 0x1EE JUMPI DUP1 PUSH4 0xBBDFBFBA EQ PUSH2 0x20C JUMPI PUSH2 0xF5 JUMP JUMPDEST DUP1 PUSH4 0x2724898B GT PUSH2 0xD3 JUMPI DUP1 PUSH4 0x2724898B EQ PUSH2 0x152 JUMPI DUP1 PUSH4 0x503F8CAB EQ PUSH2 0x15C JUMPI DUP1 PUSH4 0x526AA79A EQ PUSH2 0x18C JUMPI DUP1 PUSH4 0x5464FB90 EQ PUSH2 0x1AA JUMPI PUSH2 0xF5 JUMP JUMPDEST DUP1 PUSH4 0x14D0C51E EQ PUSH2 0xFA JUMPI DUP1 PUSH4 0x1B9265B8 EQ PUSH2 0x118 JUMPI DUP1 PUSH4 0x1F0393A3 EQ PUSH2 0x122 JUMPI JUMPDEST PUSH1 0x0 DUP1 REVERT JUMPDEST PUSH2 0x102 PUSH2 0x2A0 JUMP JUMPDEST PUSH1 0x40 MLOAD PUSH2 0x10F SWAP2 SWAP1 PUSH2 0x7B4 JUMP JUMPDEST PUSH1 0x40 MLOAD DUP1 SWAP2 SUB SWAP1 RETURN JUMPDEST PUSH2 0x120 PUSH2 0x32E JUMP JUMPDEST STOP JUMPDEST PUSH2 0x13C PUSH1 0x4 DUP1 CALLDATASIZE SUB DUP2 ADD SWAP1 PUSH2 0x137 SWAP2 SWAP1 PUSH2 0x811 JUMP JUMPDEST PUSH2 0x35A JUMP JUMPDEST PUSH1 0x40 MLOAD PUSH2 0x149 SWAP2 SWAP1 PUSH2 0x860 JUMP JUMPDEST PUSH1 0x40 MLOAD DUP1 SWAP2 SUB SWAP1 RETURN JUMPDEST PUSH2 0x15A PUSH2 0x388 JUMP JUMPDEST STOP JUMPDEST PUSH2 0x176 PUSH1 0x4 DUP1 CALLDATASIZE SUB DUP2 ADD SWAP1 PUSH2 0x171 SWAP2 SWAP1 PUSH2 0x87B JUMP JUMPDEST PUSH2 0x3FC JUMP JUMPDEST PUSH1 0x40 MLOAD PUSH2 0x183 SWAP2 SWAP1 PUSH2 0x860 JUMP JUMPDEST PUSH1 0x40 MLOAD DUP1 SWAP2 SUB SWAP1 RETURN JUMPDEST PUSH2 0x194 PUSH2 0x420 JUMP JUMPDEST PUSH1 0x40 MLOAD PUSH2 0x1A1 SWAP2 SWAP1 PUSH2 0x860 JUMP JUMPDEST PUSH1 0x40 MLOAD DUP1 SWAP2 SUB SWAP1 RETURN JUMPDEST PUSH2 0x1B2 PUSH2 0x436 JUMP JUMPDEST STOP JUMPDEST PUSH2 0x1BC PUSH2 0x48C JUMP JUMPDEST PUSH1 0x40 MLOAD PUSH2 0x1C9 SWAP2 SWAP1 PUSH2 0x860 JUMP JUMPDEST PUSH1 0x40 MLOAD DUP1 SWAP2 SUB SWAP1 RETURN JUMPDEST PUSH2 0x1EC PUSH1 0x4 DUP1 CALLDATASIZE SUB DUP2 ADD SWAP1 PUSH2 0x1E7 SWAP2 SWAP1 PUSH2 0x87B JUMP JUMPDEST PUSH2 0x492 JUMP JUMPDEST STOP JUMPDEST PUSH2 0x1F6 PUSH2 0x4CA JUMP JUMPDEST PUSH1 0x40 MLOAD PUSH2 0x203 SWAP2 SWAP1 PUSH2 0x966 JUMP JUMPDEST PUSH1 0x40 MLOAD DUP1 SWAP2 SUB SWAP1 RETURN JUMPDEST PUSH2 0x214 PUSH2 0x543 JUMP JUMPDEST STOP JUMPDEST PUSH2 0x230 PUSH1 0x4 DUP1 CALLDATASIZE SUB DUP2 ADD SWAP1 PUSH2 0x22B SWAP2 SWAP1 PUSH2 0x87B JUMP JUMPDEST PUSH2 0x56F JUMP JUMPDEST PUSH1 0x40 MLOAD PUSH2 0x23D SWAP2 SWAP1 PUSH2 0x860 JUMP JUMPDEST PUSH1 0x40 MLOAD DUP1 SWAP2 SUB SWAP1 RETURN JUMPDEST PUSH2 0x24E PUSH2 0x58A JUMP JUMPDEST PUSH1 0x40 MLOAD PUSH2 0x25B SWAP2 SWAP1 PUSH2 0x9A1 JUMP JUMPDEST PUSH1 0x40 MLOAD DUP1 SWAP2 SUB SWAP1 RETURN JUMPDEST PUSH2 0x26C PUSH2 0x590 JUMP JUMPDEST PUSH1 0x40 MLOAD PUSH2 0x279 SWAP2 SWAP1 PUSH2 0xA33 JUMP JUMPDEST PUSH1 0x40 MLOAD DUP1 SWAP2 SUB SWAP1 RETURN JUMPDEST PUSH2 0x28A PUSH2 0x5A1 JUMP JUMPDEST PUSH1 0x40 MLOAD PUSH2 0x297 SWAP2 SWAP1 PUSH2 0x7B4 JUMP JUMPDEST PUSH1 0x40 MLOAD DUP1 SWAP2 SUB SWAP1 RETURN JUMPDEST PUSH1 0x15 DUP1 SLOAD PUSH2 0x2AD SWAP1 PUSH2 0xA7D JUMP JUMPDEST DUP1 PUSH1 0x1F ADD PUSH1 0x20 DUP1 SWAP2 DIV MUL PUSH1 0x20 ADD PUSH1 0x40 MLOAD SWAP1 DUP2 ADD PUSH1 0x40 MSTORE DUP1 SWAP3 SWAP2 SWAP1 DUP2 DUP2 MSTORE PUSH1 0x20 ADD DUP3 DUP1 SLOAD PUSH2 0x2D9 SWAP1 PUSH2 0xA7D JUMP JUMPDEST DUP1 ISZERO PUSH2 0x326 JUMPI DUP1 PUSH1 0x1F LT PUSH2 0x2FB JUMPI PUSH2 0x100 DUP1 DUP4 SLOAD DIV MUL DUP4 MSTORE SWAP2 PUSH1 0x20 ADD SWAP2 PUSH2 0x326 JUMP JUMPDEST DUP3 ADD SWAP2 SWAP1 PUSH1 0x0 MSTORE PUSH1 0x20 PUSH1 0x0 KECCAK256 SWAP1 JUMPDEST DUP2 SLOAD DUP2 MSTORE SWAP1 PUSH1 0x1 ADD SWAP1 PUSH1 0x20 ADD DUP1 DUP4 GT PUSH2 0x309 JUMPI DUP3 SWAP1 SUB PUSH1 0x1F AND DUP3 ADD SWAP2 JUMPDEST POP POP POP POP POP DUP2 JUMP JUMPDEST PUSH1 0x0 DUP1 PUSH1 0x0 PUSH2 0x100 EXP DUP2 SLOAD DUP2 PUSH1 0xFF MUL NOT AND SWAP1 DUP4 PUSH1 0x2 DUP2 GT ISZERO PUSH2 0x353 JUMPI PUSH2 0x352 PUSH2 0x9BC JUMP JUMPDEST JUMPDEST MUL OR SWAP1 SSTORE POP JUMP JUMPDEST PUSH1 0xB DUP3 PUSH1 0x2 DUP2 LT PUSH2 0x36A JUMPI PUSH1 0x0 DUP1 REVERT JUMPDEST PUSH1 0x3 MUL ADD DUP2 PUSH1 0x3 DUP2 LT PUSH2 0x37C JUMPI PUSH1 0x0 DUP1 REVERT JUMPDEST ADD PUSH1 0x0 SWAP2 POP SWAP2 POP POP SLOAD DUP2 JUMP JUMPDEST PUSH1 0x40 MLOAD DUP1 PUSH1 0x40 ADD PUSH1 0x40 MSTORE DUP1 PUSH1 0x40 MLOAD DUP1 PUSH1 0x60 ADD PUSH1 0x40 MSTORE DUP1 PUSH1 0x3 PUSH1 0xFF AND DUP2 MSTORE PUSH1 0x20 ADD PUSH1 0x4 PUSH1 0xFF AND DUP2 MSTORE PUSH1 0x20 ADD PUSH1 0x5 PUSH1 0xFF AND DUP2 MSTORE POP DUP2 MSTORE PUSH1 0x20 ADD PUSH1 0x40 MLOAD DUP1 PUSH1 0x60 ADD PUSH1 0x40 MSTORE DUP1 PUSH1 0x6 PUSH1 0xFF AND DUP2 MSTORE PUSH1 0x20 ADD PUSH1 0x7 PUSH1 0xFF AND DUP2 MSTORE PUSH1 0x20 ADD PUSH1 0x8 PUSH1 0xFF AND DUP2 MSTORE POP DUP2 MSTORE POP PUSH1 0xB SWAP1 PUSH1 0x2 PUSH2 0x3F9 SWAP3 SWAP2 SWAP1 PUSH2 0x62F JUMP JUMPDEST POP JUMP JUMPDEST PUSH1 0x11 DUP2 DUP2 SLOAD DUP2 LT PUSH2 0x40C JUMPI PUSH1 0x0 DUP1 REVERT JUMPDEST SWAP1 PUSH1 0x0 MSTORE PUSH1 0x20 PUSH1 0x0 KECCAK256 ADD PUSH1 0x0 SWAP2 POP SWAP1 POP SLOAD DUP2 JUMP JUMPDEST PUSH1 0x0 PUSH1 0x14 DUP1 SLOAD PUSH2 0x42F SWAP1 PUSH2 0xA7D JUMP JUMPDEST SWAP1 POP SWAP1 POP SWAP1 JUMP JUMPDEST PUSH1 0x64 PUSH1 0x1 PUSH1 0x0 PUSH1 0xA DUP2 LT PUSH2 0x44D JUMPI PUSH2 0x44C PUSH2 0xAAE JUMP JUMPDEST JUMPDEST ADD DUP2 SWAP1 SSTORE POP PUSH1 0xC8 PUSH1 0x1 DUP1 PUSH1 0xA DUP2 LT PUSH2 0x468 JUMPI PUSH2 0x467 PUSH2 0xAAE JUMP JUMPDEST JUMPDEST ADD DUP2 SWAP1 SSTORE POP PUSH2 0x12C PUSH1 0x1 PUSH1 0x2 PUSH1 0xA DUP2 LT PUSH2 0x485 JUMPI PUSH2 0x484 PUSH2 0xAAE JUMP JUMPDEST JUMPDEST ADD DUP2 SWAP1 SSTORE POP JUMP JUMPDEST PUSH1 0x12 SLOAD DUP2 JUMP JUMPDEST PUSH1 0x11 DUP2 SWAP1 DUP1 PUSH1 0x1 DUP2 SLOAD ADD DUP1 DUP3 SSTORE DUP1 SWAP2 POP POP PUSH1 0x1 SWAP1 SUB SWAP1 PUSH1 0x0 MSTORE PUSH1 0x20 PUSH1 0x0 KECCAK256 ADD PUSH1 0x0 SWAP1 SWAP2 SWAP1 SWAP2 SWAP1 SWAP2 POP SSTORE PUSH1 0x11 DUP1 SLOAD SWAP1 POP PUSH1 0x12 DUP2 SWAP1 SSTORE POP POP JUMP JUMPDEST PUSH1 0x60 PUSH1 0x0 PUSH1 0xA PUSH8 0xFFFFFFFFFFFFFFFF DUP2 GT ISZERO PUSH2 0x4E9 JUMPI PUSH2 0x4E8 PUSH2 0xADD JUMP JUMPDEST JUMPDEST PUSH1 0x40 MLOAD SWAP1 DUP1 DUP3 MSTORE DUP1 PUSH1 0x20 MUL PUSH1 0x20 ADD DUP3 ADD PUSH1 0x40 MSTORE DUP1 ISZERO PUSH2 0x517 JUMPI DUP2 PUSH1 0x20 ADD PUSH1 0x20 DUP3 MUL DUP1 CALLDATASIZE DUP4 CALLDATACOPY DUP1 DUP3 ADD SWAP2 POP POP SWAP1 POP JUMPDEST POP SWAP1 POP PUSH1 0x1 DUP2 PUSH1 0x0 DUP2 MLOAD DUP2 LT PUSH2 0x530 JUMPI PUSH2 0x52F PUSH2 0xAAE JUMP JUMPDEST JUMPDEST PUSH1 0x20 MUL PUSH1 0x20 ADD ADD DUP2 DUP2 MSTORE POP POP DUP1 SWAP2 POP POP SWAP1 JUMP JUMPDEST PUSH1 0x1 PUSH1 0x0 DUP1 PUSH2 0x100 EXP DUP2 SLOAD DUP2 PUSH1 0xFF MUL NOT AND SWAP1 DUP4 PUSH1 0x2 DUP2 GT ISZERO PUSH2 0x568 JUMPI PUSH2 0x567 PUSH2 0x9BC JUMP JUMPDEST JUMPDEST MUL OR SWAP1 SSTORE POP JUMP JUMPDEST PUSH1 0x1 DUP2 PUSH1 0xA DUP2 LT PUSH2 0x57F JUMPI PUSH1 0x0 DUP1 REVERT JUMPDEST ADD PUSH1 0x0 SWAP2 POP SWAP1 POP SLOAD DUP2 JUMP JUMPDEST PUSH1 0x13 SLOAD DUP2 JUMP JUMPDEST PUSH1 0x0 DUP1 SLOAD SWAP1 PUSH2 0x100 EXP SWAP1 DIV PUSH1 0xFF AND DUP2 JUMP JUMPDEST PUSH1 0x14 DUP1 SLOAD PUSH2 0x5AE SWAP1 PUSH2 0xA7D JUMP JUMPDEST DUP1 PUSH1 0x1F ADD PUSH1 0x20 DUP1 SWAP2 DIV MUL PUSH1 0x20 ADD PUSH1 0x40 MLOAD SWAP1 DUP2 ADD PUSH1 0x40 MSTORE DUP1 SWAP3 SWAP2 SWAP1 DUP2 DUP2 MSTORE PUSH1 0x20 ADD DUP3 DUP1 SLOAD PUSH2 0x5DA SWAP1 PUSH2 0xA7D JUMP JUMPDEST DUP1 ISZERO PUSH2 0x627 JUMPI DUP1 PUSH1 0x1F LT PUSH2 0x5FC JUMPI PUSH2 0x100 DUP1 DUP4 SLOAD DIV MUL DUP4 MSTORE SWAP2 PUSH1 0x20 ADD SWAP2 PUSH2 0x627 JUMP JUMPDEST DUP3 ADD SWAP2 SWAP1 PUSH1 0x0 MSTORE PUSH1 0x20 PUSH1 0x0 KECCAK256 SWAP1 JUMPDEST DUP2 SLOAD DUP2 MSTORE SWAP1 PUSH1 0x1 ADD SWAP1 PUSH1 0x20 ADD DUP1 DUP4 GT PUSH2 0x60A JUMPI DUP3 SWAP1 SUB PUSH1 0x1F AND DUP3 ADD SWAP2 JUMPDEST POP POP POP POP POP DUP2 JUMP JUMPDEST DUP3 PUSH1 0x2 PUSH1 0x3 MUL DUP2 ADD SWAP3 DUP3 ISZERO PUSH2 0x66F JUMPI SWAP2 PUSH1 0x20 MUL DUP3 ADD JUMPDEST DUP3 DUP2 GT ISZERO PUSH2 0x66E JUMPI DUP3 MLOAD DUP3 SWAP1 PUSH1 0x3 PUSH2 0x65E SWAP3 SWAP2 SWAP1 PUSH2 0x680 JUMP JUMPDEST POP SWAP2 PUSH1 0x20 ADD SWAP2 SWAP1 PUSH1 0x3 ADD SWAP1 PUSH2 0x645 JUMP JUMPDEST JUMPDEST POP SWAP1 POP PUSH2 0x67C SWAP2 SWAP1 PUSH2 0x6C5 JUMP JUMPDEST POP SWAP1 JUMP JUMPDEST DUP3 PUSH1 0x3 DUP2 ADD SWAP3 DUP3 ISZERO PUSH2 0x6B4 JUMPI SWAP2 PUSH1 0x20 MUL DUP3 ADD JUMPDEST DUP3 DUP2 GT ISZERO PUSH2 0x6B3 JUMPI DUP3 MLOAD DUP3 SWAP1 PUSH1 0xFF AND SWAP1 SSTORE SWAP2 PUSH1 0x20 ADD SWAP2 SWAP1 PUSH1 0x1 ADD SWAP1 PUSH2 0x693 JUMP JUMPDEST JUMPDEST POP SWAP1 POP PUSH2 0x6C1 SWAP2 SWAP1 PUSH2 0x6E9 JUMP JUMPDEST POP SWAP1 JUMP JUMPDEST JUMPDEST DUP1 DUP3 GT ISZERO PUSH2 0x6E5 JUMPI PUSH1 0x0 DUP2 DUP2 PUSH2 0x6DC SWAP2 SWAP1 PUSH2 0x706 JUMP JUMPDEST POP PUSH1 0x3 ADD PUSH2 0x6C6 JUMP JUMPDEST POP SWAP1 JUMP JUMPDEST JUMPDEST DUP1 DUP3 GT ISZERO PUSH2 0x702 JUMPI PUSH1 0x0 DUP2 PUSH1 0x0 SWAP1 SSTORE POP PUSH1 0x1 ADD PUSH2 0x6EA JUMP JUMPDEST POP SWAP1 JUMP JUMPDEST POP PUSH1 0x0 DUP2 SSTORE PUSH1 0x1 ADD PUSH1 0x0 DUP2 SSTORE PUSH1 0x1 ADD PUSH1 0x0 SWAP1 SSTORE JUMP JUMPDEST PUSH1 0x0 DUP2 MLOAD SWAP1 POP SWAP2 SWAP1 POP JUMP JUMPDEST PUSH1 0x0 DUP3 DUP3 MSTORE PUSH1 0x20 DUP3 ADD SWAP1 POP SWAP3 SWAP2 POP POP JUMP JUMPDEST PUSH1 0x0 JUMPDEST DUP4 DUP2 LT ISZERO PUSH2 0x755 JUMPI DUP1 DUP3 ADD MLOAD DUP2 DUP5 ADD MSTORE PUSH1 0x20 DUP2 ADD SWAP1 POP PUSH2 0x73A JUMP JUMPDEST DUP4 DUP2 GT ISZERO PUSH2 0x764 JUMPI PUSH1 0x0 DUP5 DUP5 ADD MSTORE JUMPDEST POP POP POP POP JUMP JUMPDEST PUSH1 0x0 PUSH1 0x1F NOT PUSH1 0x1F DUP4 ADD AND SWAP1 POP SWAP2 SWAP1 POP JUMP JUMPDEST PUSH1 0x0 PUSH2 0x786 DUP3 PUSH2 0x71B JUMP JUMPDEST PUSH2 0x790 DUP2 DUP6 PUSH2 0x726 JUMP JUMPDEST SWAP4 POP PUSH2 0x7A0 DUP2 DUP6 PUSH1 0x20 DUP7 ADD PUSH2 0x737 JUMP JUMPDEST PUSH2 0x7A9 DUP2 PUSH2 0x76A JUMP JUMPDEST DUP5 ADD SWAP2 POP POP SWAP3 SWAP2 POP POP JUMP JUMPDEST PUSH1 0x0 PUSH1 0x20 DUP3 ADD SWAP1 POP DUP2 DUP2 SUB PUSH1 0x0 DUP4 ADD MSTORE PUSH2 0x7CE DUP2 DUP5 PUSH2 0x77B JUMP JUMPDEST SWAP1 POP SWAP3 SWAP2 POP POP JUMP JUMPDEST PUSH1 0x0 DUP1 REVERT JUMPDEST PUSH1 0x0 DUP2 SWAP1 POP SWAP2 SWAP1 POP JUMP JUMPDEST PUSH2 0x7EE DUP2 PUSH2 0x7DB JUMP JUMPDEST DUP2 EQ PUSH2 0x7F9 JUMPI PUSH1 0x0 DUP1 REVERT JUMPDEST POP JUMP JUMPDEST PUSH1 0x0 DUP2 CALLDATALOAD SWAP1 POP PUSH2 0x80B DUP2 PUSH2 0x7E5 JUMP JUMPDEST SWAP3 SWAP2 POP POP JUMP JUMPDEST PUSH1 0x0 DUP1 PUSH1 0x40 DUP4 DUP6 SUB SLT ISZERO PUSH2 0x828 JUMPI PUSH2 0x827 PUSH2 0x7D6 JUMP JUMPDEST JUMPDEST PUSH1 0x0 PUSH2 0x836 DUP6 DUP3 DUP7 ADD PUSH2 0x7FC JUMP JUMPDEST SWAP3 POP POP PUSH1 0x20 PUSH2 0x847 DUP6 DUP3 DUP7 ADD PUSH2 0x7FC JUMP JUMPDEST SWAP2 POP POP SWAP3 POP SWAP3 SWAP1 POP JUMP JUMPDEST PUSH2 0x85A DUP2 PUSH2 0x7DB JUMP JUMPDEST DUP3 MSTORE POP POP JUMP JUMPDEST PUSH1 0x0 PUSH1 0x20 DUP3 ADD SWAP1 POP PUSH2 0x875 PUSH1 0x0 DUP4 ADD DUP5 PUSH2 0x851 JUMP JUMPDEST SWAP3 SWAP2 POP POP JUMP JUMPDEST PUSH1 0x0 PUSH1 0x20 DUP3 DUP5 SUB SLT ISZERO PUSH2 0x891 JUMPI PUSH2 0x890 PUSH2 0x7D6 JUMP JUMPDEST JUMPDEST PUSH1 0x0 PUSH2 0x89F DUP5 DUP3 DUP6 ADD PUSH2 0x7FC JUMP JUMPDEST SWAP2 POP POP SWAP3 SWAP2 POP POP JUMP JUMPDEST PUSH1 0x0 DUP2 MLOAD SWAP1 POP SWAP2 SWAP1 POP JUMP JUMPDEST PUSH1 0x0 DUP3 DUP3 MSTORE PUSH1 0x20 DUP3 ADD SWAP1 POP SWAP3 SWAP2 POP POP JUMP JUMPDEST PUSH1 0x0 DUP2 SWAP1 POP PUSH1 0x20 DUP3 ADD SWAP1 POP SWAP2 SWAP1 POP JUMP JUMPDEST PUSH2 0x8DD DUP2 PUSH2 0x7DB JUMP JUMPDEST DUP3 MSTORE POP POP JUMP JUMPDEST PUSH1 0x0 PUSH2 0x8EF DUP4 DUP4 PUSH2 0x8D4 JUMP JUMPDEST PUSH1 0x20 DUP4 ADD SWAP1 POP SWAP3 SWAP2 POP POP JUMP JUMPDEST PUSH1 0x0 PUSH1 0x20 DUP3 ADD SWAP1 POP SWAP2 SWAP1 POP JUMP JUMPDEST PUSH1 0x0 PUSH2 0x913 DUP3 PUSH2 0x8A8 JUMP JUMPDEST PUSH2 0x91D DUP2 DUP6 PUSH2 0x8B3 JUMP JUMPDEST SWAP4 POP PUSH2 0x928 DUP4 PUSH2 0x8C4 JUMP JUMPDEST DUP1 PUSH1 0x0 JUMPDEST DUP4 DUP2 LT ISZERO PUSH2 0x959 JUMPI DUP2 MLOAD PUSH2 0x940 DUP9 DUP3 PUSH2 0x8E3 JUMP JUMPDEST SWAP8 POP PUSH2 0x94B DUP4 PUSH2 0x8FB JUMP JUMPDEST SWAP3 POP POP PUSH1 0x1 DUP2 ADD SWAP1 POP PUSH2 0x92C JUMP JUMPDEST POP DUP6 SWAP4 POP POP POP POP SWAP3 SWAP2 POP POP JUMP JUMPDEST PUSH1 0x0 PUSH1 0x20 DUP3 ADD SWAP1 POP DUP2 DUP2 SUB PUSH1 0x0 DUP4 ADD MSTORE PUSH2 0x980 DUP2 DUP5 PUSH2 0x908 JUMP JUMPDEST SWAP1 POP SWAP3 SWAP2 POP POP JUMP JUMPDEST PUSH1 0x0 DUP2 SWAP1 POP SWAP2 SWAP1 POP JUMP JUMPDEST PUSH2 0x99B DUP2 PUSH2 0x988 JUMP JUMPDEST DUP3 MSTORE POP POP JUMP JUMPDEST PUSH1 0x0 PUSH1 0x20 DUP3 ADD SWAP1 POP PUSH2 0x9B6 PUSH1 0x0 DUP4 ADD DUP5 PUSH2 0x992 JUMP JUMPDEST SWAP3 SWAP2 POP POP JUMP JUMPDEST PUSH32 0x4E487B7100000000000000000000000000000000000000000000000000000000 PUSH1 0x0 MSTORE PUSH1 0x21 PUSH1 0x4 MSTORE PUSH1 0x24 PUSH1 0x0 REVERT JUMPDEST PUSH1 0x3 DUP2 LT PUSH2 0x9FC JUMPI PUSH2 0x9FB PUSH2 0x9BC JUMP JUMPDEST JUMPDEST POP JUMP JUMPDEST PUSH1 0x0 DUP2 SWAP1 POP PUSH2 0xA0D DUP3 PUSH2 0x9EB JUMP JUMPDEST SWAP2 SWAP1 POP JUMP JUMPDEST PUSH1 0x0 PUSH2 0xA1D DUP3 PUSH2 0x9FF JUMP JUMPDEST SWAP1 POP SWAP2 SWAP1 POP JUMP JUMPDEST PUSH2 0xA2D DUP2 PUSH2 0xA12 JUMP JUMPDEST DUP3 MSTORE POP POP JUMP JUMPDEST PUSH1 0x0 PUSH1 0x20 DUP3 ADD SWAP1 POP PUSH2 0xA48 PUSH1 0x0 DUP4 ADD DUP5 PUSH2 0xA24 JUMP JUMPDEST SWAP3 SWAP2 POP POP JUMP JUMPDEST PUSH32 0x4E487B7100000000000000000000000000000000000000000000000000000000 PUSH1 0x0 MSTORE PUSH1 0x22 PUSH1 0x4 MSTORE PUSH1 0x24 PUSH1 0x0 REVERT JUMPDEST PUSH1 0x0 PUSH1 0x2 DUP3 DIV SWAP1 POP PUSH1 0x1 DUP3 AND DUP1 PUSH2 0xA95 JUMPI PUSH1 0x7F DUP3 AND SWAP2 POP JUMPDEST PUSH1 0x20 DUP3 LT DUP2 SUB PUSH2 0xAA8 JUMPI PUSH2 0xAA7 PUSH2 0xA4E JUMP JUMPDEST JUMPDEST POP SWAP2 SWAP1 POP JUMP JUMPDEST PUSH32 0x4E487B7100000000000000000000000000000000000000000000000000000000 PUSH1 0x0 MSTORE PUSH1 0x32 PUSH1 0x4 MSTORE PUSH1 0x24 PUSH1 0x0 REVERT JUMPDEST PUSH32 0x4E487B7100000000000000000000000000000000000000000000000000000000 PUSH1 0x0 MSTORE PUSH1 0x41 PUSH1 0x4 MSTORE PUSH1 0x24 PUSH1 0x0 REVERT INVALID LOG2 PUSH5 0x6970667358 0x22 SLT KECCAK256 0x5D JUMP XOR 0xB9 MOD 0xAF 0xAD DUP2 0x5D 0xD1 BLOCKHASH 0x27 0xB4 0xD9 0xB6 REVERT 0x24 0x5D 0xED CALLDATALOAD 0xD8 PUSH13 0x8EE197EDF06FCB96785364736F PUSH13 0x634300080E0033000000000000 "
				},
				"gasEstimates": {
					"creation": {
						"codeDepositCost": "576400",
						"executionCost": "infinite",
						"totalCost": "infinite"
					},
					"external": {
						"currentStatus()": "2623",
						"delivered()": "24520",
						"getLenBytes()": "2637",
						"items0(uint256)": "infinite",
						"items1(uint256,uint256)": "infinite",
						"items2(uint256)": "infinite",
						"len()": "2452",
						"myDynVar()": "infinite",
						"myDynVarUni()": "infinite",
						"myVar()": "2473",
						"pay()": "24477",
						"pushElement(uint256)": "71096",
						"sampleMemory()": "infinite",
						"setArray()": "infinite",
						"setPartArray()": "66662"
					}
				},
				"methodIdentifiers": {
					"currentStatus()": "ef8a9235",
					"delivered()": "bbdfbfba",
					"getLenBytes()": "526aa79a",
					"items0(uint256)": "c1a42d19",
					"items1(uint256,uint256)": "1f0393a3",
					"items2(uint256)": "503f8cab",
					"len()": "56d88e27",
					"myDynVar()": "ffb1e210",
					"myDynVarUni()": "14d0c51e",
					"myVar()": "c6b91540",
					"pay()": "1b9265b8",
					"pushElement(uint256)": "78321efb",
					"sampleMemory()": "a34343c9",
					"setArray()": "2724898b",
					"setPartArray()": "5464fb90"
				}
			},
			"storageLayout": {
				"storage": [
					{
						"astId": 8,
						"contract": "04_lesson_DataTypes/DataTypes.sol:Demo",
						"label": "currentStatus",
						"offset": 0,
						"slot": "0",
						"type": "t_enum(Status)5"
					},
					{
						"astId": 30,
						"contract": "04_lesson_DataTypes/DataTypes.sol:Demo",
						"label": "items0",
						"offset": 0,
						"slot": "1",
						"type": "t_array(t_uint256)10_storage"
					},
					{
						"astId": 58,
						"contract": "04_lesson_DataTypes/DataTypes.sol:Demo",
						"label": "items1",
						"offset": 0,
						"slot": "11",
						"type": "t_array(t_array(t_uint256)3_storage)2_storage"
					},
					{
						"astId": 77,
						"contract": "04_lesson_DataTypes/DataTypes.sol:Demo",
						"label": "items2",
						"offset": 0,
						"slot": "17",
						"type": "t_array(t_uint256)dyn_storage"
					},
					{
						"astId": 79,
						"contract": "04_lesson_DataTypes/DataTypes.sol:Demo",
						"label": "len",
						"offset": 0,
						"slot": "18",
						"type": "t_uint256"
					},
					{
						"astId": 125,
						"contract": "04_lesson_DataTypes/DataTypes.sol:Demo",
						"label": "myVar",
						"offset": 0,
						"slot": "19",
						"type": "t_bytes32"
					},
					{
						"astId": 128,
						"contract": "04_lesson_DataTypes/DataTypes.sol:Demo",
						"label": "myDynVar",
						"offset": 0,
						"slot": "20",
						"type": "t_bytes_storage"
					},
					{
						"astId": 131,
						"contract": "04_lesson_DataTypes/DataTypes.sol:Demo",
						"label": "myDynVarUni",
						"offset": 0,
						"slot": "21",
						"type": "t_bytes_storage"
					}
				],
				"types": {
					"t_array(t_array(t_uint256)3_storage)2_storage": {
						"base": "t_array(t_uint256)3_storage",
						"encoding": "inplace",
						"label": "uint256[3][2]",
						"numberOfBytes": "192"
					},
					"t_array(t_uint256)10_storage": {
						"base": "t_uint256",
						"encoding": "inplace",
						"label": "uint256[10]",
						"numberOfBytes": "320"
					},
					"t_array(t_uint256)3_storage": {
						"base": "t_uint256",
						"encoding": "inplace",
						"label": "uint256[3]",
						"numberOfBytes": "96"
					},
					"t_array(t_uint256)dyn_storage": {
						"base": "t_uint256",
						"encoding": "dynamic_array",
						"label": "uint256[]",
						"numberOfBytes": "32"
					},
					"t_bytes32": {
						"encoding": "inplace",
						"label": "bytes32",
						"numberOfBytes": "32"
					},
					"t_bytes_storage": {
						"encoding": "bytes",
						"label": "bytes",
						"numberOfBytes": "32"
					},
					"t_enum(Status)5": {
						"encoding": "inplace",
						"label": "enum Demo.Status",
						"numberOfBytes": "1"
					},
					"t_uint256": {
						"encoding": "inplace",
						"label": "uint256",
						"numberOfBytes": "32"
					}
				}
			},
			"userdoc": {
				"kind": "user",
				"methods": {},
				"version": 1
			}
		}
	}
}