{
	"04_lesson_DataTypes/DataTypes.sol": {
		"Demo": {
			"abi": [
				{
					"inputs": [
						{
							"internalType": "address",
							"name": "",
							"type": "address"
						}
					],
					"name": "balances",
					"outputs": [
						{
							"internalType": "uint256",
							"name": "totalPayments",
							"type": "uint256"
						}
					],
					"stateMutability": "view",
					"type": "function"
				},
				{
					"inputs": [],
					"name": "currentStatus",
					"outputs": [
						{
							"internalType": "enum Demo.Status",
							"name": "",
							"type": "uint8"
						}
					],
					"stateMutability": "view",
					"type": "function"
				},
				{
					"inputs": [],
					"name": "delivered",
					"outputs": [],
					"stateMutability": "nonpayable",
					"type": "function"
				},
				{
					"inputs": [],
					"name": "getLenBytes",
					"outputs": [
						{
							"internalType": "uint256",
							"name": "",
							"type": "uint256"
						}
					],
					"stateMutability": "view",
					"type": "function"
				},
				{
					"inputs": [
						{
							"internalType": "uint256",
							"name": "",
							"type": "uint256"
						}
					],
					"name": "items0",
					"outputs": [
						{
							"internalType": "uint256",
							"name": "",
							"type": "uint256"
						}
					],
					"stateMutability": "view",
					"type": "function"
				},
				{
					"inputs": [
						{
							"internalType": "uint256",
							"name": "",
							"type": "uint256"
						},
						{
							"internalType": "uint256",
							"name": "",
							"type": "uint256"
						}
					],
					"name": "items1",
					"outputs": [
						{
							"internalType": "uint256",
							"name": "",
							"type": "uint256"
						}
					],
					"stateMutability": "view",
					"type": "function"
				},
				{
					"inputs": [
						{
							"internalType": "uint256",
							"name": "",
							"type": "uint256"
						}
					],
					"name": "items2",
					"outputs": [
						{
							"internalType": "uint256",
							"name": "",
							"type": "uint256"
						}
					],
					"stateMutability": "view",
					"type": "function"
				},
				{
					"inputs": [],
					"name": "len",
					"outputs": [
						{
							"internalType": "uint256",
							"name": "",
							"type": "uint256"
						}
					],
					"stateMutability": "view",
					"type": "function"
				},
				{
					"inputs": [],
					"name": "myDynVar",
					"outputs": [
						{
							"internalType": "bytes",
							"name": "",
							"type": "bytes"
						}
					],
					"stateMutability": "view",
					"type": "function"
				},
				{
					"inputs": [],
					"name": "myDynVarUni",
					"outputs": [
						{
							"internalType": "bytes",
							"name": "",
							"type": "bytes"
						}
					],
					"stateMutability": "view",
					"type": "function"
				},
				{
					"inputs": [],
					"name": "myVar",
					"outputs": [
						{
							"internalType": "bytes32",
							"name": "",
							"type": "bytes32"
						}
					],
					"stateMutability": "view",
					"type": "function"
				},
				{
					"inputs": [],
					"name": "pay",
					"outputs": [],
					"stateMutability": "nonpayable",
					"type": "function"
				},
				{
					"inputs": [
						{
							"internalType": "string",
							"name": "message",
							"type": "string"
						}
					],
					"name": "pay",
					"outputs": [],
					"stateMutability": "payable",
					"type": "function"
				},
				{
					"inputs": [
						{
							"internalType": "uint256",
							"name": "element",
							"type": "uint256"
						}
					],
					"name": "pushElement",
					"outputs": [],
					"stateMutability": "nonpayable",
					"type": "function"
				},
				{
					"inputs": [],
					"name": "sampleMemory",
					"outputs": [
						{
							"internalType": "uint256[]",
							"name": "",
							"type": "uint256[]"
						}
					],
					"stateMutability": "view",
					"type": "function"
				},
				{
					"inputs": [],
					"name": "setArray",
					"outputs": [],
					"stateMutability": "nonpayable",
					"type": "function"
				},
				{
					"inputs": [],
					"name": "setPartArray",
					"outputs": [],
					"stateMutability": "nonpayable",
					"type": "function"
				}
			],
			"devdoc": {
				"kind": "dev",
				"methods": {},
				"version": 1
			},
			"evm": {
				"assembly": "    /* \"04_lesson_DataTypes/DataTypes.sol\":57:1937  contract Demo {... */\n  mstore(0x40, 0x80)\n    /* \"04_lesson_DataTypes/DataTypes.sol\":1012:1041  bytes32 public myVar = \"test\" */\n  sstore(0x13, 0x7465737400000000000000000000000000000000000000000000000000000000)\n    /* \"04_lesson_DataTypes/DataTypes.sol\":1073:1103  bytes public myDynVar = \"test\" */\n  mload(0x40)\n  dup1\n  0x40\n  add\n  0x40\n  mstore\n  dup1\n  0x04\n  dup2\n  mstore\n  0x20\n  add\n  0x7465737400000000000000000000000000000000000000000000000000000000\n  dup2\n  mstore\n  pop\n  0x14\n  swap1\n  dup1\n  mload\n  swap1\n  0x20\n  add\n  swap1\n  tag_1\n  swap3\n  swap2\n  swap1\n  tag_2\n  jump\t// in\ntag_1:\n  pop\n    /* \"04_lesson_DataTypes/DataTypes.sol\":1109:1153  bytes public myDynVarUni = unicode\"тест\" */\n  mload(0x40)\n  dup1\n  0x40\n  add\n  0x40\n  mstore\n  dup1\n  0x08\n  dup2\n  mstore\n  0x20\n  add\n  0xd182d0b5d181d182000000000000000000000000000000000000000000000000\n  dup2\n  mstore\n  pop\n  0x15\n  swap1\n  dup1\n  mload\n  swap1\n  0x20\n  add\n  swap1\n  tag_3\n  swap3\n  swap2\n  swap1\n  tag_2\n  jump\t// in\ntag_3:\n  pop\n    /* \"04_lesson_DataTypes/DataTypes.sol\":57:1937  contract Demo {... */\n  callvalue\n  dup1\n  iszero\n  tag_4\n  jumpi\n  0x00\n  dup1\n  revert\ntag_4:\n  pop\n  jump(tag_5)\ntag_2:\n  dup3\n  dup1\n  sload\n  tag_6\n  swap1\n  tag_7\n  jump\t// in\ntag_6:\n  swap1\n  0x00\n  mstore\n  keccak256(0x00, 0x20)\n  swap1\n  0x1f\n  add\n  0x20\n  swap1\n  div\n  dup2\n  add\n  swap3\n  dup3\n  tag_9\n  jumpi\n  0x00\n  dup6\n  sstore\n  jump(tag_8)\ntag_9:\n  dup3\n  0x1f\n  lt\n  tag_10\n  jumpi\n  dup1\n  mload\n  not(0xff)\n  and\n  dup4\n  dup1\n  add\n  or\n  dup6\n  sstore\n  jump(tag_8)\ntag_10:\n  dup3\n  dup1\n  add\n  0x01\n  add\n  dup6\n  sstore\n  dup3\n  iszero\n  tag_8\n  jumpi\n  swap2\n  dup3\n  add\ntag_11:\n  dup3\n  dup2\n  gt\n  iszero\n  tag_12\n  jumpi\n  dup3\n  mload\n  dup3\n  sstore\n  swap2\n  0x20\n  add\n  swap2\n  swap1\n  0x01\n  add\n  swap1\n  jump(tag_11)\ntag_12:\ntag_8:\n  pop\n  swap1\n  pop\n  tag_13\n  swap2\n  swap1\n  tag_14\n  jump\t// in\ntag_13:\n  pop\n  swap1\n  jump\t// out\ntag_14:\ntag_15:\n  dup1\n  dup3\n  gt\n  iszero\n  tag_16\n  jumpi\n  0x00\n  dup2\n  0x00\n  swap1\n  sstore\n  pop\n  0x01\n  add\n  jump(tag_15)\ntag_16:\n  pop\n  swap1\n  jump\t// out\n    /* \"#utility.yul\":7:187   */\ntag_17:\n    /* \"#utility.yul\":55:132   */\n  0x4e487b7100000000000000000000000000000000000000000000000000000000\n    /* \"#utility.yul\":52:53   */\n  0x00\n    /* \"#utility.yul\":45:133   */\n  mstore\n    /* \"#utility.yul\":152:156   */\n  0x22\n    /* \"#utility.yul\":149:150   */\n  0x04\n    /* \"#utility.yul\":142:157   */\n  mstore\n    /* \"#utility.yul\":176:180   */\n  0x24\n    /* \"#utility.yul\":173:174   */\n  0x00\n    /* \"#utility.yul\":166:181   */\n  revert\n    /* \"#utility.yul\":193:513   */\ntag_7:\n    /* \"#utility.yul\":237:243   */\n  0x00\n    /* \"#utility.yul\":274:275   */\n  0x02\n    /* \"#utility.yul\":268:272   */\n  dup3\n    /* \"#utility.yul\":264:276   */\n  div\n    /* \"#utility.yul\":254:276   */\n  swap1\n  pop\n    /* \"#utility.yul\":321:322   */\n  0x01\n    /* \"#utility.yul\":315:319   */\n  dup3\n    /* \"#utility.yul\":311:323   */\n  and\n    /* \"#utility.yul\":342:360   */\n  dup1\n    /* \"#utility.yul\":332:413   */\n  tag_21\n  jumpi\n    /* \"#utility.yul\":398:402   */\n  0x7f\n    /* \"#utility.yul\":390:396   */\n  dup3\n    /* \"#utility.yul\":386:403   */\n  and\n    /* \"#utility.yul\":376:403   */\n  swap2\n  pop\n    /* \"#utility.yul\":332:413   */\ntag_21:\n    /* \"#utility.yul\":460:462   */\n  0x20\n    /* \"#utility.yul\":452:458   */\n  dup3\n    /* \"#utility.yul\":449:463   */\n  lt\n    /* \"#utility.yul\":429:447   */\n  dup2\n    /* \"#utility.yul\":426:464   */\n  sub\n    /* \"#utility.yul\":423:507   */\n  tag_22\n  jumpi\n    /* \"#utility.yul\":479:497   */\n  tag_23\n  tag_17\n  jump\t// in\ntag_23:\n    /* \"#utility.yul\":423:507   */\ntag_22:\n    /* \"#utility.yul\":244:513   */\n  pop\n    /* \"#utility.yul\":193:513   */\n  swap2\n  swap1\n  pop\n  jump\t// out\n    /* \"04_lesson_DataTypes/DataTypes.sol\":57:1937  contract Demo {... */\ntag_5:\n  dataSize(sub_0)\n  dup1\n  dataOffset(sub_0)\n  0x00\n  codecopy\n  0x00\n  return\nstop\n\nsub_0: assembly {\n        /* \"04_lesson_DataTypes/DataTypes.sol\":57:1937  contract Demo {... */\n      mstore(0x40, 0x80)\n      jumpi(tag_1, lt(calldatasize, 0x04))\n      shr(0xe0, calldataload(0x00))\n      dup1\n      0x5464fb90\n      gt\n      tag_19\n      jumpi\n      dup1\n      0xbbdfbfba\n      gt\n      tag_20\n      jumpi\n      dup1\n      0xbbdfbfba\n      eq\n      tag_14\n      jumpi\n      dup1\n      0xc1a42d19\n      eq\n      tag_15\n      jumpi\n      dup1\n      0xc6b91540\n      eq\n      tag_16\n      jumpi\n      dup1\n      0xef8a9235\n      eq\n      tag_17\n      jumpi\n      dup1\n      0xffb1e210\n      eq\n      tag_18\n      jumpi\n      jump(tag_1)\n    tag_20:\n      dup1\n      0x5464fb90\n      eq\n      tag_10\n      jumpi\n      dup1\n      0x56d88e27\n      eq\n      tag_11\n      jumpi\n      dup1\n      0x78321efb\n      eq\n      tag_12\n      jumpi\n      dup1\n      0xa34343c9\n      eq\n      tag_13\n      jumpi\n      jump(tag_1)\n    tag_19:\n      dup1\n      0x27e235e3\n      gt\n      tag_21\n      jumpi\n      dup1\n      0x27e235e3\n      eq\n      tag_6\n      jumpi\n      dup1\n      0x2b66d72e\n      eq\n      tag_7\n      jumpi\n      dup1\n      0x503f8cab\n      eq\n      tag_8\n      jumpi\n      dup1\n      0x526aa79a\n      eq\n      tag_9\n      jumpi\n      jump(tag_1)\n    tag_21:\n      dup1\n      0x14d0c51e\n      eq\n      tag_2\n      jumpi\n      dup1\n      0x1b9265b8\n      eq\n      tag_3\n      jumpi\n      dup1\n      0x1f0393a3\n      eq\n      tag_4\n      jumpi\n      dup1\n      0x2724898b\n      eq\n      tag_5\n      jumpi\n    tag_1:\n      0x00\n      dup1\n      revert\n        /* \"04_lesson_DataTypes/DataTypes.sol\":1109:1153  bytes public myDynVarUni = unicode\"тест\" */\n    tag_2:\n      callvalue\n      dup1\n      iszero\n      tag_22\n      jumpi\n      0x00\n      dup1\n      revert\n    tag_22:\n      pop\n      tag_23\n      tag_24\n      jump\t// in\n    tag_23:\n      mload(0x40)\n      tag_25\n      swap2\n      swap1\n      tag_26\n      jump\t// in\n    tag_25:\n      mload(0x40)\n      dup1\n      swap2\n      sub\n      swap1\n      return\n        /* \"04_lesson_DataTypes/DataTypes.sol\":171:237  function pay() public {... */\n    tag_3:\n      callvalue\n      dup1\n      iszero\n      tag_27\n      jumpi\n      0x00\n      dup1\n      revert\n    tag_27:\n      pop\n      tag_28\n      tag_29\n      jump\t// in\n    tag_28:\n      stop\n        /* \"04_lesson_DataTypes/DataTypes.sol\":489:513  uint[3][2] public items1 */\n    tag_4:\n      callvalue\n      dup1\n      iszero\n      tag_30\n      jumpi\n      0x00\n      dup1\n      revert\n    tag_30:\n      pop\n      tag_31\n      0x04\n      dup1\n      calldatasize\n      sub\n      dup2\n      add\n      swap1\n      tag_32\n      swap2\n      swap1\n      tag_33\n      jump\t// in\n    tag_32:\n      tag_34\n      jump\t// in\n    tag_31:\n      mload(0x40)\n      tag_35\n      swap2\n      swap1\n      tag_36\n      jump\t// in\n    tag_35:\n      mload(0x40)\n      dup1\n      swap2\n      sub\n      swap1\n      return\n        /* \"04_lesson_DataTypes/DataTypes.sol\":520:629  function setArray() public {... */\n    tag_5:\n      callvalue\n      dup1\n      iszero\n      tag_37\n      jumpi\n      0x00\n      dup1\n      revert\n    tag_37:\n      pop\n      tag_38\n      tag_39\n      jump\t// in\n    tag_38:\n      stop\n        /* \"04_lesson_DataTypes/DataTypes.sol\":1495:1538  mapping(address => Balance) public balances */\n    tag_6:\n      callvalue\n      dup1\n      iszero\n      tag_40\n      jumpi\n      0x00\n      dup1\n      revert\n    tag_40:\n      pop\n      tag_41\n      0x04\n      dup1\n      calldatasize\n      sub\n      dup2\n      add\n      swap1\n      tag_42\n      swap2\n      swap1\n      tag_43\n      jump\t// in\n    tag_42:\n      tag_44\n      jump\t// in\n    tag_41:\n      mload(0x40)\n      tag_45\n      swap2\n      swap1\n      tag_36\n      jump\t// in\n    tag_45:\n      mload(0x40)\n      dup1\n      swap2\n      sub\n      swap1\n      return\n        /* \"04_lesson_DataTypes/DataTypes.sol\":1545:1929  function pay(string memory message) public payable {... */\n    tag_7:\n      tag_46\n      0x04\n      dup1\n      calldatasize\n      sub\n      dup2\n      add\n      swap1\n      tag_47\n      swap2\n      swap1\n      tag_48\n      jump\t// in\n    tag_47:\n      tag_49\n      jump\t// in\n    tag_46:\n      stop\n        /* \"04_lesson_DataTypes/DataTypes.sol\":635:655  uint[] public items2 */\n    tag_8:\n      callvalue\n      dup1\n      iszero\n      tag_50\n      jumpi\n      0x00\n      dup1\n      revert\n    tag_50:\n      pop\n      tag_51\n      0x04\n      dup1\n      calldatasize\n      sub\n      dup2\n      add\n      swap1\n      tag_52\n      swap2\n      swap1\n      tag_53\n      jump\t// in\n    tag_52:\n      tag_54\n      jump\t// in\n    tag_51:\n      mload(0x40)\n      tag_55\n      swap2\n      swap1\n      tag_36\n      jump\t// in\n    tag_55:\n      mload(0x40)\n      dup1\n      swap2\n      sub\n      swap1\n      return\n        /* \"04_lesson_DataTypes/DataTypes.sol\":1160:1251  function getLenBytes() public view returns(uint) {... */\n    tag_9:\n      callvalue\n      dup1\n      iszero\n      tag_56\n      jumpi\n      0x00\n      dup1\n      revert\n    tag_56:\n      pop\n      tag_57\n      tag_58\n      jump\t// in\n    tag_57:\n      mload(0x40)\n      tag_59\n      swap2\n      swap1\n      tag_36\n      jump\t// in\n    tag_59:\n      mload(0x40)\n      dup1\n      swap2\n      sub\n      swap1\n      return\n        /* \"04_lesson_DataTypes/DataTypes.sol\":370:483  function setPartArray() public {... */\n    tag_10:\n      callvalue\n      dup1\n      iszero\n      tag_60\n      jumpi\n      0x00\n      dup1\n      revert\n    tag_60:\n      pop\n      tag_61\n      tag_62\n      jump\t// in\n    tag_61:\n      stop\n        /* \"04_lesson_DataTypes/DataTypes.sol\":661:676  uint public len */\n    tag_11:\n      callvalue\n      dup1\n      iszero\n      tag_63\n      jumpi\n      0x00\n      dup1\n      revert\n    tag_63:\n      pop\n      tag_64\n      tag_65\n      jump\t// in\n    tag_64:\n      mload(0x40)\n      tag_66\n      swap2\n      swap1\n      tag_36\n      jump\t// in\n    tag_66:\n      mload(0x40)\n      dup1\n      swap2\n      sub\n      swap1\n      return\n        /* \"04_lesson_DataTypes/DataTypes.sol\":683:791  function pushElement(uint element) public {... */\n    tag_12:\n      callvalue\n      dup1\n      iszero\n      tag_67\n      jumpi\n      0x00\n      dup1\n      revert\n    tag_67:\n      pop\n      tag_68\n      0x04\n      dup1\n      calldatasize\n      sub\n      dup2\n      add\n      swap1\n      tag_69\n      swap2\n      swap1\n      tag_53\n      jump\t// in\n    tag_69:\n      tag_70\n      jump\t// in\n    tag_68:\n      stop\n        /* \"04_lesson_DataTypes/DataTypes.sol\":824:991  function sampleMemory() public view returns(uint[] memory){... */\n    tag_13:\n      callvalue\n      dup1\n      iszero\n      tag_71\n      jumpi\n      0x00\n      dup1\n      revert\n    tag_71:\n      pop\n      tag_72\n      tag_73\n      jump\t// in\n    tag_72:\n      mload(0x40)\n      tag_74\n      swap2\n      swap1\n      tag_75\n      jump\t// in\n    tag_74:\n      mload(0x40)\n      dup1\n      swap2\n      sub\n      swap1\n      return\n        /* \"04_lesson_DataTypes/DataTypes.sol\":243:320  function delivered() public {... */\n    tag_14:\n      callvalue\n      dup1\n      iszero\n      tag_76\n      jumpi\n      0x00\n      dup1\n      revert\n    tag_76:\n      pop\n      tag_77\n      tag_78\n      jump\t// in\n    tag_77:\n      stop\n        /* \"04_lesson_DataTypes/DataTypes.sol\":341:363  uint[10] public items0 */\n    tag_15:\n      callvalue\n      dup1\n      iszero\n      tag_79\n      jumpi\n      0x00\n      dup1\n      revert\n    tag_79:\n      pop\n      tag_80\n      0x04\n      dup1\n      calldatasize\n      sub\n      dup2\n      add\n      swap1\n      tag_81\n      swap2\n      swap1\n      tag_53\n      jump\t// in\n    tag_81:\n      tag_82\n      jump\t// in\n    tag_80:\n      mload(0x40)\n      tag_83\n      swap2\n      swap1\n      tag_36\n      jump\t// in\n    tag_83:\n      mload(0x40)\n      dup1\n      swap2\n      sub\n      swap1\n      return\n        /* \"04_lesson_DataTypes/DataTypes.sol\":1012:1041  bytes32 public myVar = \"test\" */\n    tag_16:\n      callvalue\n      dup1\n      iszero\n      tag_84\n      jumpi\n      0x00\n      dup1\n      revert\n    tag_84:\n      pop\n      tag_85\n      tag_86\n      jump\t// in\n    tag_85:\n      mload(0x40)\n      tag_87\n      swap2\n      swap1\n      tag_88\n      jump\t// in\n    tag_87:\n      mload(0x40)\n      dup1\n      swap2\n      sub\n      swap1\n      return\n        /* \"04_lesson_DataTypes/DataTypes.sol\":137:164  Status public currentStatus */\n    tag_17:\n      callvalue\n      dup1\n      iszero\n      tag_89\n      jumpi\n      0x00\n      dup1\n      revert\n    tag_89:\n      pop\n      tag_90\n      tag_91\n      jump\t// in\n    tag_90:\n      mload(0x40)\n      tag_92\n      swap2\n      swap1\n      tag_93\n      jump\t// in\n    tag_92:\n      mload(0x40)\n      dup1\n      swap2\n      sub\n      swap1\n      return\n        /* \"04_lesson_DataTypes/DataTypes.sol\":1073:1103  bytes public myDynVar = \"test\" */\n    tag_18:\n      callvalue\n      dup1\n      iszero\n      tag_94\n      jumpi\n      0x00\n      dup1\n      revert\n    tag_94:\n      pop\n      tag_95\n      tag_96\n      jump\t// in\n    tag_95:\n      mload(0x40)\n      tag_97\n      swap2\n      swap1\n      tag_26\n      jump\t// in\n    tag_97:\n      mload(0x40)\n      dup1\n      swap2\n      sub\n      swap1\n      return\n        /* \"04_lesson_DataTypes/DataTypes.sol\":1109:1153  bytes public myDynVarUni = unicode\"тест\" */\n    tag_24:\n      0x15\n      dup1\n      sload\n      tag_98\n      swap1\n      tag_99\n      jump\t// in\n    tag_98:\n      dup1\n      0x1f\n      add\n      0x20\n      dup1\n      swap2\n      div\n      mul\n      0x20\n      add\n      mload(0x40)\n      swap1\n      dup2\n      add\n      0x40\n      mstore\n      dup1\n      swap3\n      swap2\n      swap1\n      dup2\n      dup2\n      mstore\n      0x20\n      add\n      dup3\n      dup1\n      sload\n      tag_100\n      swap1\n      tag_99\n      jump\t// in\n    tag_100:\n      dup1\n      iszero\n      tag_101\n      jumpi\n      dup1\n      0x1f\n      lt\n      tag_102\n      jumpi\n      0x0100\n      dup1\n      dup4\n      sload\n      div\n      mul\n      dup4\n      mstore\n      swap2\n      0x20\n      add\n      swap2\n      jump(tag_101)\n    tag_102:\n      dup3\n      add\n      swap2\n      swap1\n      0x00\n      mstore\n      keccak256(0x00, 0x20)\n      swap1\n    tag_103:\n      dup2\n      sload\n      dup2\n      mstore\n      swap1\n      0x01\n      add\n      swap1\n      0x20\n      add\n      dup1\n      dup4\n      gt\n      tag_103\n      jumpi\n      dup3\n      swap1\n      sub\n      0x1f\n      and\n      dup3\n      add\n      swap2\n    tag_101:\n      pop\n      pop\n      pop\n      pop\n      pop\n      dup2\n      jump\t// out\n        /* \"04_lesson_DataTypes/DataTypes.sol\":171:237  function pay() public {... */\n    tag_29:\n        /* \"04_lesson_DataTypes/DataTypes.sol\":219:230  Status.Paid */\n      0x00\n        /* \"04_lesson_DataTypes/DataTypes.sol\":203:216  currentStatus */\n      dup1\n      0x00\n        /* \"04_lesson_DataTypes/DataTypes.sol\":203:230  currentStatus = Status.Paid */\n      0x0100\n      exp\n      dup2\n      sload\n      dup2\n      0xff\n      mul\n      not\n      and\n      swap1\n      dup4\n      0x02\n      dup2\n      gt\n      iszero\n      tag_105\n      jumpi\n      tag_106\n      tag_107\n      jump\t// in\n    tag_106:\n    tag_105:\n      mul\n      or\n      swap1\n      sstore\n      pop\n        /* \"04_lesson_DataTypes/DataTypes.sol\":171:237  function pay() public {... */\n      jump\t// out\n        /* \"04_lesson_DataTypes/DataTypes.sol\":489:513  uint[3][2] public items1 */\n    tag_34:\n      0x0b\n      dup3\n      0x02\n      dup2\n      lt\n      tag_108\n      jumpi\n      0x00\n      dup1\n      revert\n    tag_108:\n      0x03\n      mul\n      add\n      dup2\n      0x03\n      dup2\n      lt\n      tag_110\n      jumpi\n      0x00\n      dup1\n      revert\n    tag_110:\n      add\n      0x00\n      swap2\n      pop\n      swap2\n      pop\n      pop\n      sload\n      dup2\n      jump\t// out\n        /* \"04_lesson_DataTypes/DataTypes.sol\":520:629  function setArray() public {... */\n    tag_39:\n        /* \"04_lesson_DataTypes/DataTypes.sol\":557:622  items1 = [... */\n      mload(0x40)\n      dup1\n      0x40\n      add\n      0x40\n      mstore\n      dup1\n      mload(0x40)\n      dup1\n      0x60\n      add\n      0x40\n      mstore\n      dup1\n        /* \"04_lesson_DataTypes/DataTypes.sol\":581:582  3 */\n      0x03\n        /* \"04_lesson_DataTypes/DataTypes.sol\":557:622  items1 = [... */\n      0xff\n      and\n      dup2\n      mstore\n      0x20\n      add\n        /* \"04_lesson_DataTypes/DataTypes.sol\":584:585  4 */\n      0x04\n        /* \"04_lesson_DataTypes/DataTypes.sol\":557:622  items1 = [... */\n      0xff\n      and\n      dup2\n      mstore\n      0x20\n      add\n        /* \"04_lesson_DataTypes/DataTypes.sol\":587:588  5 */\n      0x05\n        /* \"04_lesson_DataTypes/DataTypes.sol\":557:622  items1 = [... */\n      0xff\n      and\n      dup2\n      mstore\n      pop\n      dup2\n      mstore\n      0x20\n      add\n      mload(0x40)\n      dup1\n      0x60\n      add\n      0x40\n      mstore\n      dup1\n        /* \"04_lesson_DataTypes/DataTypes.sol\":604:605  6 */\n      0x06\n        /* \"04_lesson_DataTypes/DataTypes.sol\":557:622  items1 = [... */\n      0xff\n      and\n      dup2\n      mstore\n      0x20\n      add\n        /* \"04_lesson_DataTypes/DataTypes.sol\":607:608  7 */\n      0x07\n        /* \"04_lesson_DataTypes/DataTypes.sol\":557:622  items1 = [... */\n      0xff\n      and\n      dup2\n      mstore\n      0x20\n      add\n        /* \"04_lesson_DataTypes/DataTypes.sol\":610:611  8 */\n      0x08\n        /* \"04_lesson_DataTypes/DataTypes.sol\":557:622  items1 = [... */\n      0xff\n      and\n      dup2\n      mstore\n      pop\n      dup2\n      mstore\n      pop\n        /* \"04_lesson_DataTypes/DataTypes.sol\":557:563  items1 */\n      0x0b\n        /* \"04_lesson_DataTypes/DataTypes.sol\":557:622  items1 = [... */\n      swap1\n      0x02\n      tag_113\n      swap3\n      swap2\n      swap1\n      tag_114\n      jump\t// in\n    tag_113:\n      pop\n        /* \"04_lesson_DataTypes/DataTypes.sol\":520:629  function setArray() public {... */\n      jump\t// out\n        /* \"04_lesson_DataTypes/DataTypes.sol\":1495:1538  mapping(address => Balance) public balances */\n    tag_44:\n      mstore(0x20, 0x16)\n      dup1\n      0x00\n      mstore\n      keccak256(0x00, 0x40)\n      0x00\n      swap2\n      pop\n      swap1\n      pop\n      dup1\n      0x00\n      add\n      sload\n      swap1\n      pop\n      dup2\n      jump\t// out\n        /* \"04_lesson_DataTypes/DataTypes.sol\":1545:1929  function pay(string memory message) public payable {... */\n    tag_49:\n        /* \"04_lesson_DataTypes/DataTypes.sol\":1606:1621  uint paymentNum */\n      0x00\n        /* \"04_lesson_DataTypes/DataTypes.sol\":1624:1632  balances */\n      0x16\n        /* \"04_lesson_DataTypes/DataTypes.sol\":1624:1644  balances[msg.sender] */\n      0x00\n        /* \"04_lesson_DataTypes/DataTypes.sol\":1633:1643  msg.sender */\n      caller\n        /* \"04_lesson_DataTypes/DataTypes.sol\":1624:1644  balances[msg.sender] */\n      0xffffffffffffffffffffffffffffffffffffffff\n      and\n      0xffffffffffffffffffffffffffffffffffffffff\n      and\n      dup2\n      mstore\n      0x20\n      add\n      swap1\n      dup2\n      mstore\n      0x20\n      add\n      0x00\n      keccak256\n        /* \"04_lesson_DataTypes/DataTypes.sol\":1624:1658  balances[msg.sender].totalPayments */\n      0x00\n      add\n      sload\n        /* \"04_lesson_DataTypes/DataTypes.sol\":1606:1658  uint paymentNum = balances[msg.sender].totalPayments */\n      swap1\n      pop\n        /* \"04_lesson_DataTypes/DataTypes.sol\":1668:1676  balances */\n      0x16\n        /* \"04_lesson_DataTypes/DataTypes.sol\":1668:1688  balances[msg.sender] */\n      0x00\n        /* \"04_lesson_DataTypes/DataTypes.sol\":1677:1687  msg.sender */\n      caller\n        /* \"04_lesson_DataTypes/DataTypes.sol\":1668:1688  balances[msg.sender] */\n      0xffffffffffffffffffffffffffffffffffffffff\n      and\n      0xffffffffffffffffffffffffffffffffffffffff\n      and\n      dup2\n      mstore\n      0x20\n      add\n      swap1\n      dup2\n      mstore\n      0x20\n      add\n      0x00\n      keccak256\n        /* \"04_lesson_DataTypes/DataTypes.sol\":1668:1702  balances[msg.sender].totalPayments */\n      0x00\n      add\n      0x00\n        /* \"04_lesson_DataTypes/DataTypes.sol\":1668:1704  balances[msg.sender].totalPayments++ */\n      dup2\n      sload\n      dup1\n      swap3\n      swap2\n      swap1\n      tag_116\n      swap1\n      tag_117\n      jump\t// in\n    tag_116:\n      swap2\n      swap1\n      pop\n      sstore\n      pop\n        /* \"04_lesson_DataTypes/DataTypes.sol\":1715:1740  Payment memory newPayment */\n      0x00\n        /* \"04_lesson_DataTypes/DataTypes.sol\":1743:1857  Payment(... */\n      mload(0x40)\n      dup1\n      0x80\n      add\n      0x40\n      mstore\n      dup1\n        /* \"04_lesson_DataTypes/DataTypes.sol\":1764:1773  msg.value */\n      callvalue\n        /* \"04_lesson_DataTypes/DataTypes.sol\":1743:1857  Payment(... */\n      dup2\n      mstore\n      0x20\n      add\n        /* \"04_lesson_DataTypes/DataTypes.sol\":1787:1802  block.timestamp */\n      timestamp\n        /* \"04_lesson_DataTypes/DataTypes.sol\":1743:1857  Payment(... */\n      dup2\n      mstore\n      0x20\n      add\n        /* \"04_lesson_DataTypes/DataTypes.sol\":1816:1826  msg.sender */\n      caller\n        /* \"04_lesson_DataTypes/DataTypes.sol\":1743:1857  Payment(... */\n      0xffffffffffffffffffffffffffffffffffffffff\n      and\n      dup2\n      mstore\n      0x20\n      add\n        /* \"04_lesson_DataTypes/DataTypes.sol\":1840:1847  message */\n      dup5\n        /* \"04_lesson_DataTypes/DataTypes.sol\":1743:1857  Payment(... */\n      dup2\n      mstore\n      pop\n        /* \"04_lesson_DataTypes/DataTypes.sol\":1715:1857  Payment memory newPayment = Payment(... */\n      swap1\n      pop\n        /* \"04_lesson_DataTypes/DataTypes.sol\":1912:1922  newPayment */\n      dup1\n        /* \"04_lesson_DataTypes/DataTypes.sol\":1868:1876  balances */\n      0x16\n        /* \"04_lesson_DataTypes/DataTypes.sol\":1868:1888  balances[msg.sender] */\n      0x00\n        /* \"04_lesson_DataTypes/DataTypes.sol\":1877:1887  msg.sender */\n      caller\n        /* \"04_lesson_DataTypes/DataTypes.sol\":1868:1888  balances[msg.sender] */\n      0xffffffffffffffffffffffffffffffffffffffff\n      and\n      0xffffffffffffffffffffffffffffffffffffffff\n      and\n      dup2\n      mstore\n      0x20\n      add\n      swap1\n      dup2\n      mstore\n      0x20\n      add\n      0x00\n      keccak256\n        /* \"04_lesson_DataTypes/DataTypes.sol\":1868:1897  balances[msg.sender].payments */\n      0x01\n      add\n        /* \"04_lesson_DataTypes/DataTypes.sol\":1868:1909  balances[msg.sender].payments[paymentNum] */\n      0x00\n        /* \"04_lesson_DataTypes/DataTypes.sol\":1898:1908  paymentNum */\n      dup5\n        /* \"04_lesson_DataTypes/DataTypes.sol\":1868:1909  balances[msg.sender].payments[paymentNum] */\n      dup2\n      mstore\n      0x20\n      add\n      swap1\n      dup2\n      mstore\n      0x20\n      add\n      0x00\n      keccak256\n        /* \"04_lesson_DataTypes/DataTypes.sol\":1868:1922  balances[msg.sender].payments[paymentNum] = newPayment */\n      0x00\n      dup3\n      add\n      mload\n      dup2\n      0x00\n      add\n      sstore\n      0x20\n      dup3\n      add\n      mload\n      dup2\n      0x01\n      add\n      sstore\n      0x40\n      dup3\n      add\n      mload\n      dup2\n      0x02\n      add\n      exp(0x0100, 0x00)\n      dup2\n      sload\n      dup2\n      0xffffffffffffffffffffffffffffffffffffffff\n      mul\n      not\n      and\n      swap1\n      dup4\n      0xffffffffffffffffffffffffffffffffffffffff\n      and\n      mul\n      or\n      swap1\n      sstore\n      pop\n      0x60\n      dup3\n      add\n      mload\n      dup2\n      0x03\n      add\n      swap1\n      dup1\n      mload\n      swap1\n      0x20\n      add\n      swap1\n      tag_118\n      swap3\n      swap2\n      swap1\n      tag_119\n      jump\t// in\n    tag_118:\n      pop\n      swap1\n      pop\n      pop\n        /* \"04_lesson_DataTypes/DataTypes.sol\":1596:1929  {... */\n      pop\n      pop\n        /* \"04_lesson_DataTypes/DataTypes.sol\":1545:1929  function pay(string memory message) public payable {... */\n      pop\n      jump\t// out\n        /* \"04_lesson_DataTypes/DataTypes.sol\":635:655  uint[] public items2 */\n    tag_54:\n      0x11\n      dup2\n      dup2\n      sload\n      dup2\n      lt\n      tag_120\n      jumpi\n      0x00\n      dup1\n      revert\n    tag_120:\n      swap1\n      0x00\n      mstore\n      keccak256(0x00, 0x20)\n      add\n      0x00\n      swap2\n      pop\n      swap1\n      pop\n      sload\n      dup2\n      jump\t// out\n        /* \"04_lesson_DataTypes/DataTypes.sol\":1160:1251  function getLenBytes() public view returns(uint) {... */\n    tag_58:\n        /* \"04_lesson_DataTypes/DataTypes.sol\":1203:1207  uint */\n      0x00\n        /* \"04_lesson_DataTypes/DataTypes.sol\":1226:1237  myDynVarUni */\n      0x15\n        /* \"04_lesson_DataTypes/DataTypes.sol\":1226:1244  myDynVarUni.length */\n      dup1\n      sload\n      tag_123\n      swap1\n      tag_99\n      jump\t// in\n    tag_123:\n      swap1\n      pop\n        /* \"04_lesson_DataTypes/DataTypes.sol\":1219:1244  return myDynVarUni.length */\n      swap1\n      pop\n        /* \"04_lesson_DataTypes/DataTypes.sol\":1160:1251  function getLenBytes() public view returns(uint) {... */\n      swap1\n      jump\t// out\n        /* \"04_lesson_DataTypes/DataTypes.sol\":370:483  function setPartArray() public {... */\n    tag_62:\n        /* \"04_lesson_DataTypes/DataTypes.sol\":423:426  100 */\n      0x64\n        /* \"04_lesson_DataTypes/DataTypes.sol\":411:417  items0 */\n      0x01\n        /* \"04_lesson_DataTypes/DataTypes.sol\":418:419  0 */\n      0x00\n        /* \"04_lesson_DataTypes/DataTypes.sol\":411:420  items0[0] */\n      0x0a\n      dup2\n      lt\n      tag_125\n      jumpi\n      tag_126\n      tag_127\n      jump\t// in\n    tag_126:\n    tag_125:\n      add\n        /* \"04_lesson_DataTypes/DataTypes.sol\":411:426  items0[0] = 100 */\n      dup2\n      swap1\n      sstore\n      pop\n        /* \"04_lesson_DataTypes/DataTypes.sol\":448:451  200 */\n      0xc8\n        /* \"04_lesson_DataTypes/DataTypes.sol\":436:442  items0 */\n      0x01\n        /* \"04_lesson_DataTypes/DataTypes.sol\":443:444  1 */\n      dup1\n        /* \"04_lesson_DataTypes/DataTypes.sol\":436:445  items0[1] */\n      0x0a\n      dup2\n      lt\n      tag_129\n      jumpi\n      tag_130\n      tag_127\n      jump\t// in\n    tag_130:\n    tag_129:\n      add\n        /* \"04_lesson_DataTypes/DataTypes.sol\":436:451  items0[1] = 200 */\n      dup2\n      swap1\n      sstore\n      pop\n        /* \"04_lesson_DataTypes/DataTypes.sol\":473:476  300 */\n      0x012c\n        /* \"04_lesson_DataTypes/DataTypes.sol\":461:467  items0 */\n      0x01\n        /* \"04_lesson_DataTypes/DataTypes.sol\":468:469  2 */\n      0x02\n        /* \"04_lesson_DataTypes/DataTypes.sol\":461:470  items0[2] */\n      0x0a\n      dup2\n      lt\n      tag_132\n      jumpi\n      tag_133\n      tag_127\n      jump\t// in\n    tag_133:\n    tag_132:\n      add\n        /* \"04_lesson_DataTypes/DataTypes.sol\":461:476  items0[2] = 300 */\n      dup2\n      swap1\n      sstore\n      pop\n        /* \"04_lesson_DataTypes/DataTypes.sol\":370:483  function setPartArray() public {... */\n      jump\t// out\n        /* \"04_lesson_DataTypes/DataTypes.sol\":661:676  uint public len */\n    tag_65:\n      sload(0x12)\n      dup2\n      jump\t// out\n        /* \"04_lesson_DataTypes/DataTypes.sol\":683:791  function pushElement(uint element) public {... */\n    tag_70:\n        /* \"04_lesson_DataTypes/DataTypes.sol\":735:741  items2 */\n      0x11\n        /* \"04_lesson_DataTypes/DataTypes.sol\":747:754  element */\n      dup2\n        /* \"04_lesson_DataTypes/DataTypes.sol\":735:755  items2.push(element) */\n      swap1\n      dup1\n      0x01\n      dup2\n      sload\n      add\n      dup1\n      dup3\n      sstore\n      dup1\n      swap2\n      pop\n      pop\n      0x01\n      swap1\n      sub\n      swap1\n      0x00\n      mstore\n      keccak256(0x00, 0x20)\n      add\n      0x00\n      swap1\n      swap2\n      swap1\n      swap2\n      swap1\n      swap2\n      pop\n      sstore\n        /* \"04_lesson_DataTypes/DataTypes.sol\":771:777  items2 */\n      0x11\n        /* \"04_lesson_DataTypes/DataTypes.sol\":771:784  items2.length */\n      dup1\n      sload\n      swap1\n      pop\n        /* \"04_lesson_DataTypes/DataTypes.sol\":765:768  len */\n      0x12\n        /* \"04_lesson_DataTypes/DataTypes.sol\":765:784  len = items2.length */\n      dup2\n      swap1\n      sstore\n      pop\n        /* \"04_lesson_DataTypes/DataTypes.sol\":683:791  function pushElement(uint element) public {... */\n      pop\n      jump\t// out\n        /* \"04_lesson_DataTypes/DataTypes.sol\":824:991  function sampleMemory() public view returns(uint[] memory){... */\n    tag_73:\n        /* \"04_lesson_DataTypes/DataTypes.sol\":868:881  uint[] memory */\n      0x60\n        /* \"04_lesson_DataTypes/DataTypes.sol\":892:915  uint[] memory tempArray */\n      0x00\n        /* \"04_lesson_DataTypes/DataTypes.sol\":929:931  10 */\n      0x0a\n        /* \"04_lesson_DataTypes/DataTypes.sol\":918:932  new uint[](10) */\n      0xffffffffffffffff\n      dup2\n      gt\n      iszero\n      tag_138\n      jumpi\n      tag_139\n      tag_140\n      jump\t// in\n    tag_139:\n    tag_138:\n      mload(0x40)\n      swap1\n      dup1\n      dup3\n      mstore\n      dup1\n      0x20\n      mul\n      0x20\n      add\n      dup3\n      add\n      0x40\n      mstore\n      dup1\n      iszero\n      tag_141\n      jumpi\n      dup2\n      0x20\n      add\n      0x20\n      dup3\n      mul\n      dup1\n      calldatasize\n      dup4\n      calldatacopy\n      dup1\n      dup3\n      add\n      swap2\n      pop\n      pop\n      swap1\n      pop\n    tag_141:\n      pop\n        /* \"04_lesson_DataTypes/DataTypes.sol\":892:932  uint[] memory tempArray = new uint[](10) */\n      swap1\n      pop\n        /* \"04_lesson_DataTypes/DataTypes.sol\":957:958  1 */\n      0x01\n        /* \"04_lesson_DataTypes/DataTypes.sol\":942:951  tempArray */\n      dup2\n        /* \"04_lesson_DataTypes/DataTypes.sol\":952:953  0 */\n      0x00\n        /* \"04_lesson_DataTypes/DataTypes.sol\":942:954  tempArray[0] */\n      dup2\n      mload\n      dup2\n      lt\n      tag_142\n      jumpi\n      tag_143\n      tag_127\n      jump\t// in\n    tag_143:\n    tag_142:\n      0x20\n      mul\n      0x20\n      add\n      add\n        /* \"04_lesson_DataTypes/DataTypes.sol\":942:958  tempArray[0] = 1 */\n      dup2\n      dup2\n      mstore\n      pop\n      pop\n        /* \"04_lesson_DataTypes/DataTypes.sol\":975:984  tempArray */\n      dup1\n        /* \"04_lesson_DataTypes/DataTypes.sol\":968:984  return tempArray */\n      swap2\n      pop\n      pop\n        /* \"04_lesson_DataTypes/DataTypes.sol\":824:991  function sampleMemory() public view returns(uint[] memory){... */\n      swap1\n      jump\t// out\n        /* \"04_lesson_DataTypes/DataTypes.sol\":243:320  function delivered() public {... */\n    tag_78:\n        /* \"04_lesson_DataTypes/DataTypes.sol\":297:313  Status.Delivered */\n      0x01\n        /* \"04_lesson_DataTypes/DataTypes.sol\":281:294  currentStatus */\n      0x00\n      dup1\n        /* \"04_lesson_DataTypes/DataTypes.sol\":281:313  currentStatus = Status.Delivered */\n      0x0100\n      exp\n      dup2\n      sload\n      dup2\n      0xff\n      mul\n      not\n      and\n      swap1\n      dup4\n      0x02\n      dup2\n      gt\n      iszero\n      tag_145\n      jumpi\n      tag_146\n      tag_107\n      jump\t// in\n    tag_146:\n    tag_145:\n      mul\n      or\n      swap1\n      sstore\n      pop\n        /* \"04_lesson_DataTypes/DataTypes.sol\":243:320  function delivered() public {... */\n      jump\t// out\n        /* \"04_lesson_DataTypes/DataTypes.sol\":341:363  uint[10] public items0 */\n    tag_82:\n      0x01\n      dup2\n      0x0a\n      dup2\n      lt\n      tag_147\n      jumpi\n      0x00\n      dup1\n      revert\n    tag_147:\n      add\n      0x00\n      swap2\n      pop\n      swap1\n      pop\n      sload\n      dup2\n      jump\t// out\n        /* \"04_lesson_DataTypes/DataTypes.sol\":1012:1041  bytes32 public myVar = \"test\" */\n    tag_86:\n      sload(0x13)\n      dup2\n      jump\t// out\n        /* \"04_lesson_DataTypes/DataTypes.sol\":137:164  Status public currentStatus */\n    tag_91:\n      0x00\n      dup1\n      sload\n      swap1\n      0x0100\n      exp\n      swap1\n      div\n      0xff\n      and\n      dup2\n      jump\t// out\n        /* \"04_lesson_DataTypes/DataTypes.sol\":1073:1103  bytes public myDynVar = \"test\" */\n    tag_96:\n      0x14\n      dup1\n      sload\n      tag_149\n      swap1\n      tag_99\n      jump\t// in\n    tag_149:\n      dup1\n      0x1f\n      add\n      0x20\n      dup1\n      swap2\n      div\n      mul\n      0x20\n      add\n      mload(0x40)\n      swap1\n      dup2\n      add\n      0x40\n      mstore\n      dup1\n      swap3\n      swap2\n      swap1\n      dup2\n      dup2\n      mstore\n      0x20\n      add\n      dup3\n      dup1\n      sload\n      tag_150\n      swap1\n      tag_99\n      jump\t// in\n    tag_150:\n      dup1\n      iszero\n      tag_151\n      jumpi\n      dup1\n      0x1f\n      lt\n      tag_152\n      jumpi\n      0x0100\n      dup1\n      dup4\n      sload\n      div\n      mul\n      dup4\n      mstore\n      swap2\n      0x20\n      add\n      swap2\n      jump(tag_151)\n    tag_152:\n      dup3\n      add\n      swap2\n      swap1\n      0x00\n      mstore\n      keccak256(0x00, 0x20)\n      swap1\n    tag_153:\n      dup2\n      sload\n      dup2\n      mstore\n      swap1\n      0x01\n      add\n      swap1\n      0x20\n      add\n      dup1\n      dup4\n      gt\n      tag_153\n      jumpi\n      dup3\n      swap1\n      sub\n      0x1f\n      and\n      dup3\n      add\n      swap2\n    tag_151:\n      pop\n      pop\n      pop\n      pop\n      pop\n      dup2\n      jump\t// out\n    tag_114:\n      dup3\n      mul(0x03, 0x02)\n      dup2\n      add\n      swap3\n      dup3\n      iszero\n      tag_154\n      jumpi\n      swap2\n      0x20\n      mul\n      dup3\n      add\n    tag_155:\n      dup3\n      dup2\n      gt\n      iszero\n      tag_156\n      jumpi\n      dup3\n      mload\n      dup3\n      swap1\n      0x03\n      tag_157\n      swap3\n      swap2\n      swap1\n      tag_158\n      jump\t// in\n    tag_157:\n      pop\n      swap2\n      0x20\n      add\n      swap2\n      swap1\n      0x03\n      add\n      swap1\n      jump(tag_155)\n    tag_156:\n    tag_154:\n      pop\n      swap1\n      pop\n      tag_159\n      swap2\n      swap1\n      tag_160\n      jump\t// in\n    tag_159:\n      pop\n      swap1\n      jump\t// out\n    tag_119:\n      dup3\n      dup1\n      sload\n      tag_161\n      swap1\n      tag_99\n      jump\t// in\n    tag_161:\n      swap1\n      0x00\n      mstore\n      keccak256(0x00, 0x20)\n      swap1\n      0x1f\n      add\n      0x20\n      swap1\n      div\n      dup2\n      add\n      swap3\n      dup3\n      tag_163\n      jumpi\n      0x00\n      dup6\n      sstore\n      jump(tag_162)\n    tag_163:\n      dup3\n      0x1f\n      lt\n      tag_164\n      jumpi\n      dup1\n      mload\n      not(0xff)\n      and\n      dup4\n      dup1\n      add\n      or\n      dup6\n      sstore\n      jump(tag_162)\n    tag_164:\n      dup3\n      dup1\n      add\n      0x01\n      add\n      dup6\n      sstore\n      dup3\n      iszero\n      tag_162\n      jumpi\n      swap2\n      dup3\n      add\n    tag_165:\n      dup3\n      dup2\n      gt\n      iszero\n      tag_166\n      jumpi\n      dup3\n      mload\n      dup3\n      sstore\n      swap2\n      0x20\n      add\n      swap2\n      swap1\n      0x01\n      add\n      swap1\n      jump(tag_165)\n    tag_166:\n    tag_162:\n      pop\n      swap1\n      pop\n      tag_167\n      swap2\n      swap1\n      tag_168\n      jump\t// in\n    tag_167:\n      pop\n      swap1\n      jump\t// out\n    tag_158:\n      dup3\n      0x03\n      dup2\n      add\n      swap3\n      dup3\n      iszero\n      tag_169\n      jumpi\n      swap2\n      0x20\n      mul\n      dup3\n      add\n    tag_170:\n      dup3\n      dup2\n      gt\n      iszero\n      tag_171\n      jumpi\n      dup3\n      mload\n      dup3\n      swap1\n      0xff\n      and\n      swap1\n      sstore\n      swap2\n      0x20\n      add\n      swap2\n      swap1\n      0x01\n      add\n      swap1\n      jump(tag_170)\n    tag_171:\n    tag_169:\n      pop\n      swap1\n      pop\n      tag_172\n      swap2\n      swap1\n      tag_168\n      jump\t// in\n    tag_172:\n      pop\n      swap1\n      jump\t// out\n    tag_160:\n    tag_173:\n      dup1\n      dup3\n      gt\n      iszero\n      tag_174\n      jumpi\n      0x00\n      dup2\n      dup2\n      tag_175\n      swap2\n      swap1\n      tag_176\n      jump\t// in\n    tag_175:\n      pop\n      0x03\n      add\n      jump(tag_173)\n    tag_174:\n      pop\n      swap1\n      jump\t// out\n    tag_168:\n    tag_177:\n      dup1\n      dup3\n      gt\n      iszero\n      tag_178\n      jumpi\n      0x00\n      dup2\n      0x00\n      swap1\n      sstore\n      pop\n      0x01\n      add\n      jump(tag_177)\n    tag_178:\n      pop\n      swap1\n      jump\t// out\n    tag_176:\n      pop\n      0x00\n      dup2\n      sstore\n      0x01\n      add\n      0x00\n      dup2\n      sstore\n      0x01\n      add\n      0x00\n      swap1\n      sstore\n      jump\t// out\n        /* \"#utility.yul\":7:105   */\n    tag_179:\n        /* \"#utility.yul\":58:64   */\n      0x00\n        /* \"#utility.yul\":92:97   */\n      dup2\n        /* \"#utility.yul\":86:98   */\n      mload\n        /* \"#utility.yul\":76:98   */\n      swap1\n      pop\n        /* \"#utility.yul\":7:105   */\n      swap2\n      swap1\n      pop\n      jump\t// out\n        /* \"#utility.yul\":111:279   */\n    tag_180:\n        /* \"#utility.yul\":194:205   */\n      0x00\n        /* \"#utility.yul\":228:234   */\n      dup3\n        /* \"#utility.yul\":223:226   */\n      dup3\n        /* \"#utility.yul\":216:235   */\n      mstore\n        /* \"#utility.yul\":268:272   */\n      0x20\n        /* \"#utility.yul\":263:266   */\n      dup3\n        /* \"#utility.yul\":259:273   */\n      add\n        /* \"#utility.yul\":244:273   */\n      swap1\n      pop\n        /* \"#utility.yul\":111:279   */\n      swap3\n      swap2\n      pop\n      pop\n      jump\t// out\n        /* \"#utility.yul\":285:592   */\n    tag_181:\n        /* \"#utility.yul\":353:354   */\n      0x00\n        /* \"#utility.yul\":363:476   */\n    tag_222:\n        /* \"#utility.yul\":377:383   */\n      dup4\n        /* \"#utility.yul\":374:375   */\n      dup2\n        /* \"#utility.yul\":371:384   */\n      lt\n        /* \"#utility.yul\":363:476   */\n      iszero\n      tag_224\n      jumpi\n        /* \"#utility.yul\":462:463   */\n      dup1\n        /* \"#utility.yul\":457:460   */\n      dup3\n        /* \"#utility.yul\":453:464   */\n      add\n        /* \"#utility.yul\":447:465   */\n      mload\n        /* \"#utility.yul\":443:444   */\n      dup2\n        /* \"#utility.yul\":438:441   */\n      dup5\n        /* \"#utility.yul\":434:445   */\n      add\n        /* \"#utility.yul\":427:466   */\n      mstore\n        /* \"#utility.yul\":399:401   */\n      0x20\n        /* \"#utility.yul\":396:397   */\n      dup2\n        /* \"#utility.yul\":392:402   */\n      add\n        /* \"#utility.yul\":387:402   */\n      swap1\n      pop\n        /* \"#utility.yul\":363:476   */\n      jump(tag_222)\n    tag_224:\n        /* \"#utility.yul\":494:500   */\n      dup4\n        /* \"#utility.yul\":491:492   */\n      dup2\n        /* \"#utility.yul\":488:501   */\n      gt\n        /* \"#utility.yul\":485:586   */\n      iszero\n      tag_225\n      jumpi\n        /* \"#utility.yul\":574:575   */\n      0x00\n        /* \"#utility.yul\":565:571   */\n      dup5\n        /* \"#utility.yul\":560:563   */\n      dup5\n        /* \"#utility.yul\":556:572   */\n      add\n        /* \"#utility.yul\":549:576   */\n      mstore\n        /* \"#utility.yul\":485:586   */\n    tag_225:\n        /* \"#utility.yul\":334:592   */\n      pop\n        /* \"#utility.yul\":285:592   */\n      pop\n      pop\n      pop\n      jump\t// out\n        /* \"#utility.yul\":598:700   */\n    tag_182:\n        /* \"#utility.yul\":639:645   */\n      0x00\n        /* \"#utility.yul\":690:692   */\n      0x1f\n        /* \"#utility.yul\":686:693   */\n      not\n        /* \"#utility.yul\":681:683   */\n      0x1f\n        /* \"#utility.yul\":674:679   */\n      dup4\n        /* \"#utility.yul\":670:684   */\n      add\n        /* \"#utility.yul\":666:694   */\n      and\n        /* \"#utility.yul\":656:694   */\n      swap1\n      pop\n        /* \"#utility.yul\":598:700   */\n      swap2\n      swap1\n      pop\n      jump\t// out\n        /* \"#utility.yul\":706:1066   */\n    tag_183:\n        /* \"#utility.yul\":792:795   */\n      0x00\n        /* \"#utility.yul\":820:858   */\n      tag_228\n        /* \"#utility.yul\":852:857   */\n      dup3\n        /* \"#utility.yul\":820:858   */\n      tag_179\n      jump\t// in\n    tag_228:\n        /* \"#utility.yul\":874:944   */\n      tag_229\n        /* \"#utility.yul\":937:943   */\n      dup2\n        /* \"#utility.yul\":932:935   */\n      dup6\n        /* \"#utility.yul\":874:944   */\n      tag_180\n      jump\t// in\n    tag_229:\n        /* \"#utility.yul\":867:944   */\n      swap4\n      pop\n        /* \"#utility.yul\":953:1005   */\n      tag_230\n        /* \"#utility.yul\":998:1004   */\n      dup2\n        /* \"#utility.yul\":993:996   */\n      dup6\n        /* \"#utility.yul\":986:990   */\n      0x20\n        /* \"#utility.yul\":979:984   */\n      dup7\n        /* \"#utility.yul\":975:991   */\n      add\n        /* \"#utility.yul\":953:1005   */\n      tag_181\n      jump\t// in\n    tag_230:\n        /* \"#utility.yul\":1030:1059   */\n      tag_231\n        /* \"#utility.yul\":1052:1058   */\n      dup2\n        /* \"#utility.yul\":1030:1059   */\n      tag_182\n      jump\t// in\n    tag_231:\n        /* \"#utility.yul\":1025:1028   */\n      dup5\n        /* \"#utility.yul\":1021:1060   */\n      add\n        /* \"#utility.yul\":1014:1060   */\n      swap2\n      pop\n        /* \"#utility.yul\":796:1066   */\n      pop\n        /* \"#utility.yul\":706:1066   */\n      swap3\n      swap2\n      pop\n      pop\n      jump\t// out\n        /* \"#utility.yul\":1072:1381   */\n    tag_26:\n        /* \"#utility.yul\":1183:1187   */\n      0x00\n        /* \"#utility.yul\":1221:1223   */\n      0x20\n        /* \"#utility.yul\":1210:1219   */\n      dup3\n        /* \"#utility.yul\":1206:1224   */\n      add\n        /* \"#utility.yul\":1198:1224   */\n      swap1\n      pop\n        /* \"#utility.yul\":1270:1279   */\n      dup2\n        /* \"#utility.yul\":1264:1268   */\n      dup2\n        /* \"#utility.yul\":1260:1280   */\n      sub\n        /* \"#utility.yul\":1256:1257   */\n      0x00\n        /* \"#utility.yul\":1245:1254   */\n      dup4\n        /* \"#utility.yul\":1241:1258   */\n      add\n        /* \"#utility.yul\":1234:1281   */\n      mstore\n        /* \"#utility.yul\":1298:1374   */\n      tag_233\n        /* \"#utility.yul\":1369:1373   */\n      dup2\n        /* \"#utility.yul\":1360:1366   */\n      dup5\n        /* \"#utility.yul\":1298:1374   */\n      tag_183\n      jump\t// in\n    tag_233:\n        /* \"#utility.yul\":1290:1374   */\n      swap1\n      pop\n        /* \"#utility.yul\":1072:1381   */\n      swap3\n      swap2\n      pop\n      pop\n      jump\t// out\n        /* \"#utility.yul\":1387:1462   */\n    tag_184:\n        /* \"#utility.yul\":1420:1426   */\n      0x00\n        /* \"#utility.yul\":1453:1455   */\n      0x40\n        /* \"#utility.yul\":1447:1456   */\n      mload\n        /* \"#utility.yul\":1437:1456   */\n      swap1\n      pop\n        /* \"#utility.yul\":1387:1462   */\n      swap1\n      jump\t// out\n        /* \"#utility.yul\":1468:1585   */\n    tag_185:\n        /* \"#utility.yul\":1577:1578   */\n      0x00\n        /* \"#utility.yul\":1574:1575   */\n      dup1\n        /* \"#utility.yul\":1567:1579   */\n      revert\n        /* \"#utility.yul\":1591:1708   */\n    tag_186:\n        /* \"#utility.yul\":1700:1701   */\n      0x00\n        /* \"#utility.yul\":1697:1698   */\n      dup1\n        /* \"#utility.yul\":1690:1702   */\n      revert\n        /* \"#utility.yul\":1714:1791   */\n    tag_187:\n        /* \"#utility.yul\":1751:1758   */\n      0x00\n        /* \"#utility.yul\":1780:1785   */\n      dup2\n        /* \"#utility.yul\":1769:1785   */\n      swap1\n      pop\n        /* \"#utility.yul\":1714:1791   */\n      swap2\n      swap1\n      pop\n      jump\t// out\n        /* \"#utility.yul\":1797:1919   */\n    tag_188:\n        /* \"#utility.yul\":1870:1894   */\n      tag_239\n        /* \"#utility.yul\":1888:1893   */\n      dup2\n        /* \"#utility.yul\":1870:1894   */\n      tag_187\n      jump\t// in\n    tag_239:\n        /* \"#utility.yul\":1863:1868   */\n      dup2\n        /* \"#utility.yul\":1860:1895   */\n      eq\n        /* \"#utility.yul\":1850:1913   */\n      tag_240\n      jumpi\n        /* \"#utility.yul\":1909:1910   */\n      0x00\n        /* \"#utility.yul\":1906:1907   */\n      dup1\n        /* \"#utility.yul\":1899:1911   */\n      revert\n        /* \"#utility.yul\":1850:1913   */\n    tag_240:\n        /* \"#utility.yul\":1797:1919   */\n      pop\n      jump\t// out\n        /* \"#utility.yul\":1925:2064   */\n    tag_189:\n        /* \"#utility.yul\":1971:1976   */\n      0x00\n        /* \"#utility.yul\":2009:2015   */\n      dup2\n        /* \"#utility.yul\":1996:2016   */\n      calldataload\n        /* \"#utility.yul\":1987:2016   */\n      swap1\n      pop\n        /* \"#utility.yul\":2025:2058   */\n      tag_242\n        /* \"#utility.yul\":2052:2057   */\n      dup2\n        /* \"#utility.yul\":2025:2058   */\n      tag_188\n      jump\t// in\n    tag_242:\n        /* \"#utility.yul\":1925:2064   */\n      swap3\n      swap2\n      pop\n      pop\n      jump\t// out\n        /* \"#utility.yul\":2070:2544   */\n    tag_33:\n        /* \"#utility.yul\":2138:2144   */\n      0x00\n        /* \"#utility.yul\":2146:2152   */\n      dup1\n        /* \"#utility.yul\":2195:2197   */\n      0x40\n        /* \"#utility.yul\":2183:2192   */\n      dup4\n        /* \"#utility.yul\":2174:2181   */\n      dup6\n        /* \"#utility.yul\":2170:2193   */\n      sub\n        /* \"#utility.yul\":2166:2198   */\n      slt\n        /* \"#utility.yul\":2163:2282   */\n      iszero\n      tag_244\n      jumpi\n        /* \"#utility.yul\":2201:2280   */\n      tag_245\n      tag_185\n      jump\t// in\n    tag_245:\n        /* \"#utility.yul\":2163:2282   */\n    tag_244:\n        /* \"#utility.yul\":2321:2322   */\n      0x00\n        /* \"#utility.yul\":2346:2399   */\n      tag_246\n        /* \"#utility.yul\":2391:2398   */\n      dup6\n        /* \"#utility.yul\":2382:2388   */\n      dup3\n        /* \"#utility.yul\":2371:2380   */\n      dup7\n        /* \"#utility.yul\":2367:2389   */\n      add\n        /* \"#utility.yul\":2346:2399   */\n      tag_189\n      jump\t// in\n    tag_246:\n        /* \"#utility.yul\":2336:2399   */\n      swap3\n      pop\n        /* \"#utility.yul\":2292:2409   */\n      pop\n        /* \"#utility.yul\":2448:2450   */\n      0x20\n        /* \"#utility.yul\":2474:2527   */\n      tag_247\n        /* \"#utility.yul\":2519:2526   */\n      dup6\n        /* \"#utility.yul\":2510:2516   */\n      dup3\n        /* \"#utility.yul\":2499:2508   */\n      dup7\n        /* \"#utility.yul\":2495:2517   */\n      add\n        /* \"#utility.yul\":2474:2527   */\n      tag_189\n      jump\t// in\n    tag_247:\n        /* \"#utility.yul\":2464:2527   */\n      swap2\n      pop\n        /* \"#utility.yul\":2419:2537   */\n      pop\n        /* \"#utility.yul\":2070:2544   */\n      swap3\n      pop\n      swap3\n      swap1\n      pop\n      jump\t// out\n        /* \"#utility.yul\":2550:2668   */\n    tag_190:\n        /* \"#utility.yul\":2637:2661   */\n      tag_249\n        /* \"#utility.yul\":2655:2660   */\n      dup2\n        /* \"#utility.yul\":2637:2661   */\n      tag_187\n      jump\t// in\n    tag_249:\n        /* \"#utility.yul\":2632:2635   */\n      dup3\n        /* \"#utility.yul\":2625:2662   */\n      mstore\n        /* \"#utility.yul\":2550:2668   */\n      pop\n      pop\n      jump\t// out\n        /* \"#utility.yul\":2674:2896   */\n    tag_36:\n        /* \"#utility.yul\":2767:2771   */\n      0x00\n        /* \"#utility.yul\":2805:2807   */\n      0x20\n        /* \"#utility.yul\":2794:2803   */\n      dup3\n        /* \"#utility.yul\":2790:2808   */\n      add\n        /* \"#utility.yul\":2782:2808   */\n      swap1\n      pop\n        /* \"#utility.yul\":2818:2889   */\n      tag_251\n        /* \"#utility.yul\":2886:2887   */\n      0x00\n        /* \"#utility.yul\":2875:2884   */\n      dup4\n        /* \"#utility.yul\":2871:2888   */\n      add\n        /* \"#utility.yul\":2862:2868   */\n      dup5\n        /* \"#utility.yul\":2818:2889   */\n      tag_190\n      jump\t// in\n    tag_251:\n        /* \"#utility.yul\":2674:2896   */\n      swap3\n      swap2\n      pop\n      pop\n      jump\t// out\n        /* \"#utility.yul\":2902:3028   */\n    tag_191:\n        /* \"#utility.yul\":2939:2946   */\n      0x00\n        /* \"#utility.yul\":2979:3021   */\n      0xffffffffffffffffffffffffffffffffffffffff\n        /* \"#utility.yul\":2972:2977   */\n      dup3\n        /* \"#utility.yul\":2968:3022   */\n      and\n        /* \"#utility.yul\":2957:3022   */\n      swap1\n      pop\n        /* \"#utility.yul\":2902:3028   */\n      swap2\n      swap1\n      pop\n      jump\t// out\n        /* \"#utility.yul\":3034:3130   */\n    tag_192:\n        /* \"#utility.yul\":3071:3078   */\n      0x00\n        /* \"#utility.yul\":3100:3124   */\n      tag_254\n        /* \"#utility.yul\":3118:3123   */\n      dup3\n        /* \"#utility.yul\":3100:3124   */\n      tag_191\n      jump\t// in\n    tag_254:\n        /* \"#utility.yul\":3089:3124   */\n      swap1\n      pop\n        /* \"#utility.yul\":3034:3130   */\n      swap2\n      swap1\n      pop\n      jump\t// out\n        /* \"#utility.yul\":3136:3258   */\n    tag_193:\n        /* \"#utility.yul\":3209:3233   */\n      tag_256\n        /* \"#utility.yul\":3227:3232   */\n      dup2\n        /* \"#utility.yul\":3209:3233   */\n      tag_192\n      jump\t// in\n    tag_256:\n        /* \"#utility.yul\":3202:3207   */\n      dup2\n        /* \"#utility.yul\":3199:3234   */\n      eq\n        /* \"#utility.yul\":3189:3252   */\n      tag_257\n      jumpi\n        /* \"#utility.yul\":3248:3249   */\n      0x00\n        /* \"#utility.yul\":3245:3246   */\n      dup1\n        /* \"#utility.yul\":3238:3250   */\n      revert\n        /* \"#utility.yul\":3189:3252   */\n    tag_257:\n        /* \"#utility.yul\":3136:3258   */\n      pop\n      jump\t// out\n        /* \"#utility.yul\":3264:3403   */\n    tag_194:\n        /* \"#utility.yul\":3310:3315   */\n      0x00\n        /* \"#utility.yul\":3348:3354   */\n      dup2\n        /* \"#utility.yul\":3335:3355   */\n      calldataload\n        /* \"#utility.yul\":3326:3355   */\n      swap1\n      pop\n        /* \"#utility.yul\":3364:3397   */\n      tag_259\n        /* \"#utility.yul\":3391:3396   */\n      dup2\n        /* \"#utility.yul\":3364:3397   */\n      tag_193\n      jump\t// in\n    tag_259:\n        /* \"#utility.yul\":3264:3403   */\n      swap3\n      swap2\n      pop\n      pop\n      jump\t// out\n        /* \"#utility.yul\":3409:3738   */\n    tag_43:\n        /* \"#utility.yul\":3468:3474   */\n      0x00\n        /* \"#utility.yul\":3517:3519   */\n      0x20\n        /* \"#utility.yul\":3505:3514   */\n      dup3\n        /* \"#utility.yul\":3496:3503   */\n      dup5\n        /* \"#utility.yul\":3492:3515   */\n      sub\n        /* \"#utility.yul\":3488:3520   */\n      slt\n        /* \"#utility.yul\":3485:3604   */\n      iszero\n      tag_261\n      jumpi\n        /* \"#utility.yul\":3523:3602   */\n      tag_262\n      tag_185\n      jump\t// in\n    tag_262:\n        /* \"#utility.yul\":3485:3604   */\n    tag_261:\n        /* \"#utility.yul\":3643:3644   */\n      0x00\n        /* \"#utility.yul\":3668:3721   */\n      tag_263\n        /* \"#utility.yul\":3713:3720   */\n      dup5\n        /* \"#utility.yul\":3704:3710   */\n      dup3\n        /* \"#utility.yul\":3693:3702   */\n      dup6\n        /* \"#utility.yul\":3689:3711   */\n      add\n        /* \"#utility.yul\":3668:3721   */\n      tag_194\n      jump\t// in\n    tag_263:\n        /* \"#utility.yul\":3658:3721   */\n      swap2\n      pop\n        /* \"#utility.yul\":3614:3731   */\n      pop\n        /* \"#utility.yul\":3409:3738   */\n      swap3\n      swap2\n      pop\n      pop\n      jump\t// out\n        /* \"#utility.yul\":3744:3861   */\n    tag_195:\n        /* \"#utility.yul\":3853:3854   */\n      0x00\n        /* \"#utility.yul\":3850:3851   */\n      dup1\n        /* \"#utility.yul\":3843:3855   */\n      revert\n        /* \"#utility.yul\":3867:3984   */\n    tag_196:\n        /* \"#utility.yul\":3976:3977   */\n      0x00\n        /* \"#utility.yul\":3973:3974   */\n      dup1\n        /* \"#utility.yul\":3966:3978   */\n      revert\n        /* \"#utility.yul\":3990:4170   */\n    tag_140:\n        /* \"#utility.yul\":4038:4115   */\n      0x4e487b7100000000000000000000000000000000000000000000000000000000\n        /* \"#utility.yul\":4035:4036   */\n      0x00\n        /* \"#utility.yul\":4028:4116   */\n      mstore\n        /* \"#utility.yul\":4135:4139   */\n      0x41\n        /* \"#utility.yul\":4132:4133   */\n      0x04\n        /* \"#utility.yul\":4125:4140   */\n      mstore\n        /* \"#utility.yul\":4159:4163   */\n      0x24\n        /* \"#utility.yul\":4156:4157   */\n      0x00\n        /* \"#utility.yul\":4149:4164   */\n      revert\n        /* \"#utility.yul\":4176:4457   */\n    tag_197:\n        /* \"#utility.yul\":4259:4286   */\n      tag_268\n        /* \"#utility.yul\":4281:4285   */\n      dup3\n        /* \"#utility.yul\":4259:4286   */\n      tag_182\n      jump\t// in\n    tag_268:\n        /* \"#utility.yul\":4251:4257   */\n      dup2\n        /* \"#utility.yul\":4247:4287   */\n      add\n        /* \"#utility.yul\":4389:4395   */\n      dup2\n        /* \"#utility.yul\":4377:4387   */\n      dup2\n        /* \"#utility.yul\":4374:4396   */\n      lt\n        /* \"#utility.yul\":4353:4371   */\n      0xffffffffffffffff\n        /* \"#utility.yul\":4341:4351   */\n      dup3\n        /* \"#utility.yul\":4338:4372   */\n      gt\n        /* \"#utility.yul\":4335:4397   */\n      or\n        /* \"#utility.yul\":4332:4420   */\n      iszero\n      tag_269\n      jumpi\n        /* \"#utility.yul\":4400:4418   */\n      tag_270\n      tag_140\n      jump\t// in\n    tag_270:\n        /* \"#utility.yul\":4332:4420   */\n    tag_269:\n        /* \"#utility.yul\":4440:4450   */\n      dup1\n        /* \"#utility.yul\":4436:4438   */\n      0x40\n        /* \"#utility.yul\":4429:4451   */\n      mstore\n        /* \"#utility.yul\":4219:4457   */\n      pop\n        /* \"#utility.yul\":4176:4457   */\n      pop\n      pop\n      jump\t// out\n        /* \"#utility.yul\":4463:4592   */\n    tag_198:\n        /* \"#utility.yul\":4497:4503   */\n      0x00\n        /* \"#utility.yul\":4524:4544   */\n      tag_272\n      tag_184\n      jump\t// in\n    tag_272:\n        /* \"#utility.yul\":4514:4544   */\n      swap1\n      pop\n        /* \"#utility.yul\":4553:4586   */\n      tag_273\n        /* \"#utility.yul\":4581:4585   */\n      dup3\n        /* \"#utility.yul\":4573:4579   */\n      dup3\n        /* \"#utility.yul\":4553:4586   */\n      tag_197\n      jump\t// in\n    tag_273:\n        /* \"#utility.yul\":4463:4592   */\n      swap2\n      swap1\n      pop\n      jump\t// out\n        /* \"#utility.yul\":4598:4906   */\n    tag_199:\n        /* \"#utility.yul\":4660:4664   */\n      0x00\n        /* \"#utility.yul\":4750:4768   */\n      0xffffffffffffffff\n        /* \"#utility.yul\":4742:4748   */\n      dup3\n        /* \"#utility.yul\":4739:4769   */\n      gt\n        /* \"#utility.yul\":4736:4792   */\n      iszero\n      tag_275\n      jumpi\n        /* \"#utility.yul\":4772:4790   */\n      tag_276\n      tag_140\n      jump\t// in\n    tag_276:\n        /* \"#utility.yul\":4736:4792   */\n    tag_275:\n        /* \"#utility.yul\":4810:4839   */\n      tag_277\n        /* \"#utility.yul\":4832:4838   */\n      dup3\n        /* \"#utility.yul\":4810:4839   */\n      tag_182\n      jump\t// in\n    tag_277:\n        /* \"#utility.yul\":4802:4839   */\n      swap1\n      pop\n        /* \"#utility.yul\":4894:4898   */\n      0x20\n        /* \"#utility.yul\":4888:4892   */\n      dup2\n        /* \"#utility.yul\":4884:4899   */\n      add\n        /* \"#utility.yul\":4876:4899   */\n      swap1\n      pop\n        /* \"#utility.yul\":4598:4906   */\n      swap2\n      swap1\n      pop\n      jump\t// out\n        /* \"#utility.yul\":4912:5066   */\n    tag_200:\n        /* \"#utility.yul\":4996:5002   */\n      dup3\n        /* \"#utility.yul\":4991:4994   */\n      dup2\n        /* \"#utility.yul\":4986:4989   */\n      dup4\n        /* \"#utility.yul\":4973:5003   */\n      calldatacopy\n        /* \"#utility.yul\":5058:5059   */\n      0x00\n        /* \"#utility.yul\":5049:5055   */\n      dup4\n        /* \"#utility.yul\":5044:5047   */\n      dup4\n        /* \"#utility.yul\":5040:5056   */\n      add\n        /* \"#utility.yul\":5033:5060   */\n      mstore\n        /* \"#utility.yul\":4912:5066   */\n      pop\n      pop\n      pop\n      jump\t// out\n        /* \"#utility.yul\":5072:5484   */\n    tag_201:\n        /* \"#utility.yul\":5150:5155   */\n      0x00\n        /* \"#utility.yul\":5175:5241   */\n      tag_280\n        /* \"#utility.yul\":5191:5240   */\n      tag_281\n        /* \"#utility.yul\":5233:5239   */\n      dup5\n        /* \"#utility.yul\":5191:5240   */\n      tag_199\n      jump\t// in\n    tag_281:\n        /* \"#utility.yul\":5175:5241   */\n      tag_198\n      jump\t// in\n    tag_280:\n        /* \"#utility.yul\":5166:5241   */\n      swap1\n      pop\n        /* \"#utility.yul\":5264:5270   */\n      dup3\n        /* \"#utility.yul\":5257:5262   */\n      dup2\n        /* \"#utility.yul\":5250:5271   */\n      mstore\n        /* \"#utility.yul\":5302:5306   */\n      0x20\n        /* \"#utility.yul\":5295:5300   */\n      dup2\n        /* \"#utility.yul\":5291:5307   */\n      add\n        /* \"#utility.yul\":5340:5343   */\n      dup5\n        /* \"#utility.yul\":5331:5337   */\n      dup5\n        /* \"#utility.yul\":5326:5329   */\n      dup5\n        /* \"#utility.yul\":5322:5338   */\n      add\n        /* \"#utility.yul\":5319:5344   */\n      gt\n        /* \"#utility.yul\":5316:5428   */\n      iszero\n      tag_282\n      jumpi\n        /* \"#utility.yul\":5347:5426   */\n      tag_283\n      tag_196\n      jump\t// in\n    tag_283:\n        /* \"#utility.yul\":5316:5428   */\n    tag_282:\n        /* \"#utility.yul\":5437:5478   */\n      tag_284\n        /* \"#utility.yul\":5471:5477   */\n      dup5\n        /* \"#utility.yul\":5466:5469   */\n      dup3\n        /* \"#utility.yul\":5461:5464   */\n      dup6\n        /* \"#utility.yul\":5437:5478   */\n      tag_200\n      jump\t// in\n    tag_284:\n        /* \"#utility.yul\":5156:5484   */\n      pop\n        /* \"#utility.yul\":5072:5484   */\n      swap4\n      swap3\n      pop\n      pop\n      pop\n      jump\t// out\n        /* \"#utility.yul\":5504:5844   */\n    tag_202:\n        /* \"#utility.yul\":5560:5565   */\n      0x00\n        /* \"#utility.yul\":5609:5612   */\n      dup3\n        /* \"#utility.yul\":5602:5606   */\n      0x1f\n        /* \"#utility.yul\":5594:5600   */\n      dup4\n        /* \"#utility.yul\":5590:5607   */\n      add\n        /* \"#utility.yul\":5586:5613   */\n      slt\n        /* \"#utility.yul\":5576:5698   */\n      tag_286\n      jumpi\n        /* \"#utility.yul\":5617:5696   */\n      tag_287\n      tag_195\n      jump\t// in\n    tag_287:\n        /* \"#utility.yul\":5576:5698   */\n    tag_286:\n        /* \"#utility.yul\":5734:5740   */\n      dup2\n        /* \"#utility.yul\":5721:5741   */\n      calldataload\n        /* \"#utility.yul\":5759:5838   */\n      tag_288\n        /* \"#utility.yul\":5834:5837   */\n      dup5\n        /* \"#utility.yul\":5826:5832   */\n      dup3\n        /* \"#utility.yul\":5819:5823   */\n      0x20\n        /* \"#utility.yul\":5811:5817   */\n      dup7\n        /* \"#utility.yul\":5807:5824   */\n      add\n        /* \"#utility.yul\":5759:5838   */\n      tag_201\n      jump\t// in\n    tag_288:\n        /* \"#utility.yul\":5750:5838   */\n      swap2\n      pop\n        /* \"#utility.yul\":5566:5844   */\n      pop\n        /* \"#utility.yul\":5504:5844   */\n      swap3\n      swap2\n      pop\n      pop\n      jump\t// out\n        /* \"#utility.yul\":5850:6359   */\n    tag_48:\n        /* \"#utility.yul\":5919:5925   */\n      0x00\n        /* \"#utility.yul\":5968:5970   */\n      0x20\n        /* \"#utility.yul\":5956:5965   */\n      dup3\n        /* \"#utility.yul\":5947:5954   */\n      dup5\n        /* \"#utility.yul\":5943:5966   */\n      sub\n        /* \"#utility.yul\":5939:5971   */\n      slt\n        /* \"#utility.yul\":5936:6055   */\n      iszero\n      tag_290\n      jumpi\n        /* \"#utility.yul\":5974:6053   */\n      tag_291\n      tag_185\n      jump\t// in\n    tag_291:\n        /* \"#utility.yul\":5936:6055   */\n    tag_290:\n        /* \"#utility.yul\":6122:6123   */\n      0x00\n        /* \"#utility.yul\":6111:6120   */\n      dup3\n        /* \"#utility.yul\":6107:6124   */\n      add\n        /* \"#utility.yul\":6094:6125   */\n      calldataload\n        /* \"#utility.yul\":6152:6170   */\n      0xffffffffffffffff\n        /* \"#utility.yul\":6144:6150   */\n      dup2\n        /* \"#utility.yul\":6141:6171   */\n      gt\n        /* \"#utility.yul\":6138:6255   */\n      iszero\n      tag_292\n      jumpi\n        /* \"#utility.yul\":6174:6253   */\n      tag_293\n      tag_186\n      jump\t// in\n    tag_293:\n        /* \"#utility.yul\":6138:6255   */\n    tag_292:\n        /* \"#utility.yul\":6279:6342   */\n      tag_294\n        /* \"#utility.yul\":6334:6341   */\n      dup5\n        /* \"#utility.yul\":6325:6331   */\n      dup3\n        /* \"#utility.yul\":6314:6323   */\n      dup6\n        /* \"#utility.yul\":6310:6332   */\n      add\n        /* \"#utility.yul\":6279:6342   */\n      tag_202\n      jump\t// in\n    tag_294:\n        /* \"#utility.yul\":6269:6342   */\n      swap2\n      pop\n        /* \"#utility.yul\":6065:6352   */\n      pop\n        /* \"#utility.yul\":5850:6359   */\n      swap3\n      swap2\n      pop\n      pop\n      jump\t// out\n        /* \"#utility.yul\":6365:6694   */\n    tag_53:\n        /* \"#utility.yul\":6424:6430   */\n      0x00\n        /* \"#utility.yul\":6473:6475   */\n      0x20\n        /* \"#utility.yul\":6461:6470   */\n      dup3\n        /* \"#utility.yul\":6452:6459   */\n      dup5\n        /* \"#utility.yul\":6448:6471   */\n      sub\n        /* \"#utility.yul\":6444:6476   */\n      slt\n        /* \"#utility.yul\":6441:6560   */\n      iszero\n      tag_296\n      jumpi\n        /* \"#utility.yul\":6479:6558   */\n      tag_297\n      tag_185\n      jump\t// in\n    tag_297:\n        /* \"#utility.yul\":6441:6560   */\n    tag_296:\n        /* \"#utility.yul\":6599:6600   */\n      0x00\n        /* \"#utility.yul\":6624:6677   */\n      tag_298\n        /* \"#utility.yul\":6669:6676   */\n      dup5\n        /* \"#utility.yul\":6660:6666   */\n      dup3\n        /* \"#utility.yul\":6649:6658   */\n      dup6\n        /* \"#utility.yul\":6645:6667   */\n      add\n        /* \"#utility.yul\":6624:6677   */\n      tag_189\n      jump\t// in\n    tag_298:\n        /* \"#utility.yul\":6614:6677   */\n      swap2\n      pop\n        /* \"#utility.yul\":6570:6687   */\n      pop\n        /* \"#utility.yul\":6365:6694   */\n      swap3\n      swap2\n      pop\n      pop\n      jump\t// out\n        /* \"#utility.yul\":6700:6814   */\n    tag_203:\n        /* \"#utility.yul\":6767:6773   */\n      0x00\n        /* \"#utility.yul\":6801:6806   */\n      dup2\n        /* \"#utility.yul\":6795:6807   */\n      mload\n        /* \"#utility.yul\":6785:6807   */\n      swap1\n      pop\n        /* \"#utility.yul\":6700:6814   */\n      swap2\n      swap1\n      pop\n      jump\t// out\n        /* \"#utility.yul\":6820:7004   */\n    tag_204:\n        /* \"#utility.yul\":6919:6930   */\n      0x00\n        /* \"#utility.yul\":6953:6959   */\n      dup3\n        /* \"#utility.yul\":6948:6951   */\n      dup3\n        /* \"#utility.yul\":6941:6960   */\n      mstore\n        /* \"#utility.yul\":6993:6997   */\n      0x20\n        /* \"#utility.yul\":6988:6991   */\n      dup3\n        /* \"#utility.yul\":6984:6998   */\n      add\n        /* \"#utility.yul\":6969:6998   */\n      swap1\n      pop\n        /* \"#utility.yul\":6820:7004   */\n      swap3\n      swap2\n      pop\n      pop\n      jump\t// out\n        /* \"#utility.yul\":7010:7142   */\n    tag_205:\n        /* \"#utility.yul\":7077:7081   */\n      0x00\n        /* \"#utility.yul\":7100:7103   */\n      dup2\n        /* \"#utility.yul\":7092:7103   */\n      swap1\n      pop\n        /* \"#utility.yul\":7130:7134   */\n      0x20\n        /* \"#utility.yul\":7125:7128   */\n      dup3\n        /* \"#utility.yul\":7121:7135   */\n      add\n        /* \"#utility.yul\":7113:7135   */\n      swap1\n      pop\n        /* \"#utility.yul\":7010:7142   */\n      swap2\n      swap1\n      pop\n      jump\t// out\n        /* \"#utility.yul\":7148:7256   */\n    tag_206:\n        /* \"#utility.yul\":7225:7249   */\n      tag_303\n        /* \"#utility.yul\":7243:7248   */\n      dup2\n        /* \"#utility.yul\":7225:7249   */\n      tag_187\n      jump\t// in\n    tag_303:\n        /* \"#utility.yul\":7220:7223   */\n      dup3\n        /* \"#utility.yul\":7213:7250   */\n      mstore\n        /* \"#utility.yul\":7148:7256   */\n      pop\n      pop\n      jump\t// out\n        /* \"#utility.yul\":7262:7441   */\n    tag_207:\n        /* \"#utility.yul\":7331:7341   */\n      0x00\n        /* \"#utility.yul\":7352:7398   */\n      tag_305\n        /* \"#utility.yul\":7394:7397   */\n      dup4\n        /* \"#utility.yul\":7386:7392   */\n      dup4\n        /* \"#utility.yul\":7352:7398   */\n      tag_206\n      jump\t// in\n    tag_305:\n        /* \"#utility.yul\":7430:7434   */\n      0x20\n        /* \"#utility.yul\":7425:7428   */\n      dup4\n        /* \"#utility.yul\":7421:7435   */\n      add\n        /* \"#utility.yul\":7407:7435   */\n      swap1\n      pop\n        /* \"#utility.yul\":7262:7441   */\n      swap3\n      swap2\n      pop\n      pop\n      jump\t// out\n        /* \"#utility.yul\":7447:7560   */\n    tag_208:\n        /* \"#utility.yul\":7517:7521   */\n      0x00\n        /* \"#utility.yul\":7549:7553   */\n      0x20\n        /* \"#utility.yul\":7544:7547   */\n      dup3\n        /* \"#utility.yul\":7540:7554   */\n      add\n        /* \"#utility.yul\":7532:7554   */\n      swap1\n      pop\n        /* \"#utility.yul\":7447:7560   */\n      swap2\n      swap1\n      pop\n      jump\t// out\n        /* \"#utility.yul\":7596:8328   */\n    tag_209:\n        /* \"#utility.yul\":7715:7718   */\n      0x00\n        /* \"#utility.yul\":7744:7798   */\n      tag_308\n        /* \"#utility.yul\":7792:7797   */\n      dup3\n        /* \"#utility.yul\":7744:7798   */\n      tag_203\n      jump\t// in\n    tag_308:\n        /* \"#utility.yul\":7814:7900   */\n      tag_309\n        /* \"#utility.yul\":7893:7899   */\n      dup2\n        /* \"#utility.yul\":7888:7891   */\n      dup6\n        /* \"#utility.yul\":7814:7900   */\n      tag_204\n      jump\t// in\n    tag_309:\n        /* \"#utility.yul\":7807:7900   */\n      swap4\n      pop\n        /* \"#utility.yul\":7924:7980   */\n      tag_310\n        /* \"#utility.yul\":7974:7979   */\n      dup4\n        /* \"#utility.yul\":7924:7980   */\n      tag_205\n      jump\t// in\n    tag_310:\n        /* \"#utility.yul\":8003:8010   */\n      dup1\n        /* \"#utility.yul\":8034:8035   */\n      0x00\n        /* \"#utility.yul\":8019:8303   */\n    tag_311:\n        /* \"#utility.yul\":8044:8050   */\n      dup4\n        /* \"#utility.yul\":8041:8042   */\n      dup2\n        /* \"#utility.yul\":8038:8051   */\n      lt\n        /* \"#utility.yul\":8019:8303   */\n      iszero\n      tag_313\n      jumpi\n        /* \"#utility.yul\":8120:8126   */\n      dup2\n        /* \"#utility.yul\":8114:8127   */\n      mload\n        /* \"#utility.yul\":8147:8210   */\n      tag_314\n        /* \"#utility.yul\":8206:8209   */\n      dup9\n        /* \"#utility.yul\":8191:8204   */\n      dup3\n        /* \"#utility.yul\":8147:8210   */\n      tag_207\n      jump\t// in\n    tag_314:\n        /* \"#utility.yul\":8140:8210   */\n      swap8\n      pop\n        /* \"#utility.yul\":8233:8293   */\n      tag_315\n        /* \"#utility.yul\":8286:8292   */\n      dup4\n        /* \"#utility.yul\":8233:8293   */\n      tag_208\n      jump\t// in\n    tag_315:\n        /* \"#utility.yul\":8223:8293   */\n      swap3\n      pop\n        /* \"#utility.yul\":8079:8303   */\n      pop\n        /* \"#utility.yul\":8066:8067   */\n      0x01\n        /* \"#utility.yul\":8063:8064   */\n      dup2\n        /* \"#utility.yul\":8059:8068   */\n      add\n        /* \"#utility.yul\":8054:8068   */\n      swap1\n      pop\n        /* \"#utility.yul\":8019:8303   */\n      jump(tag_311)\n    tag_313:\n        /* \"#utility.yul\":8023:8037   */\n      pop\n        /* \"#utility.yul\":8319:8322   */\n      dup6\n        /* \"#utility.yul\":8312:8322   */\n      swap4\n      pop\n        /* \"#utility.yul\":7720:8328   */\n      pop\n      pop\n      pop\n        /* \"#utility.yul\":7596:8328   */\n      swap3\n      swap2\n      pop\n      pop\n      jump\t// out\n        /* \"#utility.yul\":8334:8707   */\n    tag_75:\n        /* \"#utility.yul\":8477:8481   */\n      0x00\n        /* \"#utility.yul\":8515:8517   */\n      0x20\n        /* \"#utility.yul\":8504:8513   */\n      dup3\n        /* \"#utility.yul\":8500:8518   */\n      add\n        /* \"#utility.yul\":8492:8518   */\n      swap1\n      pop\n        /* \"#utility.yul\":8564:8573   */\n      dup2\n        /* \"#utility.yul\":8558:8562   */\n      dup2\n        /* \"#utility.yul\":8554:8574   */\n      sub\n        /* \"#utility.yul\":8550:8551   */\n      0x00\n        /* \"#utility.yul\":8539:8548   */\n      dup4\n        /* \"#utility.yul\":8535:8552   */\n      add\n        /* \"#utility.yul\":8528:8575   */\n      mstore\n        /* \"#utility.yul\":8592:8700   */\n      tag_317\n        /* \"#utility.yul\":8695:8699   */\n      dup2\n        /* \"#utility.yul\":8686:8692   */\n      dup5\n        /* \"#utility.yul\":8592:8700   */\n      tag_209\n      jump\t// in\n    tag_317:\n        /* \"#utility.yul\":8584:8700   */\n      swap1\n      pop\n        /* \"#utility.yul\":8334:8707   */\n      swap3\n      swap2\n      pop\n      pop\n      jump\t// out\n        /* \"#utility.yul\":8713:8790   */\n    tag_210:\n        /* \"#utility.yul\":8750:8757   */\n      0x00\n        /* \"#utility.yul\":8779:8784   */\n      dup2\n        /* \"#utility.yul\":8768:8784   */\n      swap1\n      pop\n        /* \"#utility.yul\":8713:8790   */\n      swap2\n      swap1\n      pop\n      jump\t// out\n        /* \"#utility.yul\":8796:8914   */\n    tag_211:\n        /* \"#utility.yul\":8883:8907   */\n      tag_320\n        /* \"#utility.yul\":8901:8906   */\n      dup2\n        /* \"#utility.yul\":8883:8907   */\n      tag_210\n      jump\t// in\n    tag_320:\n        /* \"#utility.yul\":8878:8881   */\n      dup3\n        /* \"#utility.yul\":8871:8908   */\n      mstore\n        /* \"#utility.yul\":8796:8914   */\n      pop\n      pop\n      jump\t// out\n        /* \"#utility.yul\":8920:9142   */\n    tag_88:\n        /* \"#utility.yul\":9013:9017   */\n      0x00\n        /* \"#utility.yul\":9051:9053   */\n      0x20\n        /* \"#utility.yul\":9040:9049   */\n      dup3\n        /* \"#utility.yul\":9036:9054   */\n      add\n        /* \"#utility.yul\":9028:9054   */\n      swap1\n      pop\n        /* \"#utility.yul\":9064:9135   */\n      tag_322\n        /* \"#utility.yul\":9132:9133   */\n      0x00\n        /* \"#utility.yul\":9121:9130   */\n      dup4\n        /* \"#utility.yul\":9117:9134   */\n      add\n        /* \"#utility.yul\":9108:9114   */\n      dup5\n        /* \"#utility.yul\":9064:9135   */\n      tag_211\n      jump\t// in\n    tag_322:\n        /* \"#utility.yul\":8920:9142   */\n      swap3\n      swap2\n      pop\n      pop\n      jump\t// out\n        /* \"#utility.yul\":9148:9328   */\n    tag_107:\n        /* \"#utility.yul\":9196:9273   */\n      0x4e487b7100000000000000000000000000000000000000000000000000000000\n        /* \"#utility.yul\":9193:9194   */\n      0x00\n        /* \"#utility.yul\":9186:9274   */\n      mstore\n        /* \"#utility.yul\":9293:9297   */\n      0x21\n        /* \"#utility.yul\":9290:9291   */\n      0x04\n        /* \"#utility.yul\":9283:9298   */\n      mstore\n        /* \"#utility.yul\":9317:9321   */\n      0x24\n        /* \"#utility.yul\":9314:9315   */\n      0x00\n        /* \"#utility.yul\":9307:9322   */\n      revert\n        /* \"#utility.yul\":9334:9447   */\n    tag_212:\n        /* \"#utility.yul\":9415:9416   */\n      0x03\n        /* \"#utility.yul\":9408:9413   */\n      dup2\n        /* \"#utility.yul\":9405:9417   */\n      lt\n        /* \"#utility.yul\":9395:9441   */\n      tag_325\n      jumpi\n        /* \"#utility.yul\":9421:9439   */\n      tag_326\n      tag_107\n      jump\t// in\n    tag_326:\n        /* \"#utility.yul\":9395:9441   */\n    tag_325:\n        /* \"#utility.yul\":9334:9447   */\n      pop\n      jump\t// out\n        /* \"#utility.yul\":9453:9580   */\n    tag_213:\n        /* \"#utility.yul\":9498:9505   */\n      0x00\n        /* \"#utility.yul\":9527:9532   */\n      dup2\n        /* \"#utility.yul\":9516:9532   */\n      swap1\n      pop\n        /* \"#utility.yul\":9533:9574   */\n      tag_328\n        /* \"#utility.yul\":9568:9573   */\n      dup3\n        /* \"#utility.yul\":9533:9574   */\n      tag_212\n      jump\t// in\n    tag_328:\n        /* \"#utility.yul\":9453:9580   */\n      swap2\n      swap1\n      pop\n      jump\t// out\n        /* \"#utility.yul\":9586:9713   */\n    tag_214:\n        /* \"#utility.yul\":9642:9651   */\n      0x00\n        /* \"#utility.yul\":9675:9707   */\n      tag_330\n        /* \"#utility.yul\":9701:9706   */\n      dup3\n        /* \"#utility.yul\":9675:9707   */\n      tag_213\n      jump\t// in\n    tag_330:\n        /* \"#utility.yul\":9662:9707   */\n      swap1\n      pop\n        /* \"#utility.yul\":9586:9713   */\n      swap2\n      swap1\n      pop\n      jump\t// out\n        /* \"#utility.yul\":9719:9862   */\n    tag_215:\n        /* \"#utility.yul\":9812:9855   */\n      tag_332\n        /* \"#utility.yul\":9849:9854   */\n      dup2\n        /* \"#utility.yul\":9812:9855   */\n      tag_214\n      jump\t// in\n    tag_332:\n        /* \"#utility.yul\":9807:9810   */\n      dup3\n        /* \"#utility.yul\":9800:9856   */\n      mstore\n        /* \"#utility.yul\":9719:9862   */\n      pop\n      pop\n      jump\t// out\n        /* \"#utility.yul\":9868:10102   */\n    tag_93:\n        /* \"#utility.yul\":9967:9971   */\n      0x00\n        /* \"#utility.yul\":10005:10007   */\n      0x20\n        /* \"#utility.yul\":9994:10003   */\n      dup3\n        /* \"#utility.yul\":9990:10008   */\n      add\n        /* \"#utility.yul\":9982:10008   */\n      swap1\n      pop\n        /* \"#utility.yul\":10018:10095   */\n      tag_334\n        /* \"#utility.yul\":10092:10093   */\n      0x00\n        /* \"#utility.yul\":10081:10090   */\n      dup4\n        /* \"#utility.yul\":10077:10094   */\n      add\n        /* \"#utility.yul\":10068:10074   */\n      dup5\n        /* \"#utility.yul\":10018:10095   */\n      tag_215\n      jump\t// in\n    tag_334:\n        /* \"#utility.yul\":9868:10102   */\n      swap3\n      swap2\n      pop\n      pop\n      jump\t// out\n        /* \"#utility.yul\":10108:10288   */\n    tag_216:\n        /* \"#utility.yul\":10156:10233   */\n      0x4e487b7100000000000000000000000000000000000000000000000000000000\n        /* \"#utility.yul\":10153:10154   */\n      0x00\n        /* \"#utility.yul\":10146:10234   */\n      mstore\n        /* \"#utility.yul\":10253:10257   */\n      0x22\n        /* \"#utility.yul\":10250:10251   */\n      0x04\n        /* \"#utility.yul\":10243:10258   */\n      mstore\n        /* \"#utility.yul\":10277:10281   */\n      0x24\n        /* \"#utility.yul\":10274:10275   */\n      0x00\n        /* \"#utility.yul\":10267:10282   */\n      revert\n        /* \"#utility.yul\":10294:10614   */\n    tag_99:\n        /* \"#utility.yul\":10338:10344   */\n      0x00\n        /* \"#utility.yul\":10375:10376   */\n      0x02\n        /* \"#utility.yul\":10369:10373   */\n      dup3\n        /* \"#utility.yul\":10365:10377   */\n      div\n        /* \"#utility.yul\":10355:10377   */\n      swap1\n      pop\n        /* \"#utility.yul\":10422:10423   */\n      0x01\n        /* \"#utility.yul\":10416:10420   */\n      dup3\n        /* \"#utility.yul\":10412:10424   */\n      and\n        /* \"#utility.yul\":10443:10461   */\n      dup1\n        /* \"#utility.yul\":10433:10514   */\n      tag_337\n      jumpi\n        /* \"#utility.yul\":10499:10503   */\n      0x7f\n        /* \"#utility.yul\":10491:10497   */\n      dup3\n        /* \"#utility.yul\":10487:10504   */\n      and\n        /* \"#utility.yul\":10477:10504   */\n      swap2\n      pop\n        /* \"#utility.yul\":10433:10514   */\n    tag_337:\n        /* \"#utility.yul\":10561:10563   */\n      0x20\n        /* \"#utility.yul\":10553:10559   */\n      dup3\n        /* \"#utility.yul\":10550:10564   */\n      lt\n        /* \"#utility.yul\":10530:10548   */\n      dup2\n        /* \"#utility.yul\":10527:10565   */\n      sub\n        /* \"#utility.yul\":10524:10608   */\n      tag_338\n      jumpi\n        /* \"#utility.yul\":10580:10598   */\n      tag_339\n      tag_216\n      jump\t// in\n    tag_339:\n        /* \"#utility.yul\":10524:10608   */\n    tag_338:\n        /* \"#utility.yul\":10345:10614   */\n      pop\n        /* \"#utility.yul\":10294:10614   */\n      swap2\n      swap1\n      pop\n      jump\t// out\n        /* \"#utility.yul\":10620:10800   */\n    tag_217:\n        /* \"#utility.yul\":10668:10745   */\n      0x4e487b7100000000000000000000000000000000000000000000000000000000\n        /* \"#utility.yul\":10665:10666   */\n      0x00\n        /* \"#utility.yul\":10658:10746   */\n      mstore\n        /* \"#utility.yul\":10765:10769   */\n      0x11\n        /* \"#utility.yul\":10762:10763   */\n      0x04\n        /* \"#utility.yul\":10755:10770   */\n      mstore\n        /* \"#utility.yul\":10789:10793   */\n      0x24\n        /* \"#utility.yul\":10786:10787   */\n      0x00\n        /* \"#utility.yul\":10779:10794   */\n      revert\n        /* \"#utility.yul\":10806:11039   */\n    tag_117:\n        /* \"#utility.yul\":10845:10848   */\n      0x00\n        /* \"#utility.yul\":10868:10892   */\n      tag_342\n        /* \"#utility.yul\":10886:10891   */\n      dup3\n        /* \"#utility.yul\":10868:10892   */\n      tag_187\n      jump\t// in\n    tag_342:\n        /* \"#utility.yul\":10859:10892   */\n      swap2\n      pop\n        /* \"#utility.yul\":10914:10980   */\n      0xffffffffffffffffffffffffffffffffffffffffffffffffffffffffffffffff\n        /* \"#utility.yul\":10907:10912   */\n      dup3\n        /* \"#utility.yul\":10904:10981   */\n      sub\n        /* \"#utility.yul\":10901:11004   */\n      tag_343\n      jumpi\n        /* \"#utility.yul\":10984:11002   */\n      tag_344\n      tag_217\n      jump\t// in\n    tag_344:\n        /* \"#utility.yul\":10901:11004   */\n    tag_343:\n        /* \"#utility.yul\":11031:11032   */\n      0x01\n        /* \"#utility.yul\":11024:11029   */\n      dup3\n        /* \"#utility.yul\":11020:11033   */\n      add\n        /* \"#utility.yul\":11013:11033   */\n      swap1\n      pop\n        /* \"#utility.yul\":10806:11039   */\n      swap2\n      swap1\n      pop\n      jump\t// out\n        /* \"#utility.yul\":11045:11225   */\n    tag_127:\n        /* \"#utility.yul\":11093:11170   */\n      0x4e487b7100000000000000000000000000000000000000000000000000000000\n        /* \"#utility.yul\":11090:11091   */\n      0x00\n        /* \"#utility.yul\":11083:11171   */\n      mstore\n        /* \"#utility.yul\":11190:11194   */\n      0x32\n        /* \"#utility.yul\":11187:11188   */\n      0x04\n        /* \"#utility.yul\":11180:11195   */\n      mstore\n        /* \"#utility.yul\":11214:11218   */\n      0x24\n        /* \"#utility.yul\":11211:11212   */\n      0x00\n        /* \"#utility.yul\":11204:11219   */\n      revert\n\n    auxdata: 0xa2646970667358221220080750935c79729c16d28dea9aeddf692dc95edf158e6fdd4effa62896c824fe64736f6c634300080e0033\n}\n",
				"bytecode": {
					"linkReferences": {},
					"object": "60806040527f74657374000000000000000000000000000000000000000000000000000000006013556040518060400160405280600481526020017f74657374000000000000000000000000000000000000000000000000000000008152506014908051906020019062000075929190620000d8565b506040518060400160405280600881526020017fd182d0b5d181d18200000000000000000000000000000000000000000000000081525060159080519060200190620000c3929190620000d8565b50348015620000d157600080fd5b50620001ec565b828054620000e690620001b7565b90600052602060002090601f0160209004810192826200010a576000855562000156565b82601f106200012557805160ff191683800117855562000156565b8280016001018555821562000156579182015b828111156200015557825182559160200191906001019062000138565b5b50905062000165919062000169565b5090565b5b80821115620001845760008160009055506001016200016a565b5090565b7f4e487b7100000000000000000000000000000000000000000000000000000000600052602260045260246000fd5b60006002820490506001821680620001d057607f821691505b602082108103620001e657620001e562000188565b5b50919050565b61111980620001fc6000396000f3fe6080604052600436106100fe5760003560e01c80635464fb9011610095578063bbdfbfba11610064578063bbdfbfba146102f0578063c1a42d1914610307578063c6b9154014610344578063ef8a92351461036f578063ffb1e2101461039a576100fe565b80635464fb901461025a57806356d88e271461027157806378321efb1461029c578063a34343c9146102c5576100fe565b806327e235e3116100d157806327e235e3146101995780632b66d72e146101d6578063503f8cab146101f2578063526aa79a1461022f576100fe565b806314d0c51e146101035780631b9265b81461012e5780631f0393a3146101455780632724898b14610182575b600080fd5b34801561010f57600080fd5b506101186103c5565b6040516101259190610b2b565b60405180910390f35b34801561013a57600080fd5b50610143610453565b005b34801561015157600080fd5b5061016c60048036038101906101679190610b97565b61047f565b6040516101799190610be6565b60405180910390f35b34801561018e57600080fd5b506101976104ad565b005b3480156101a557600080fd5b506101c060048036038101906101bb9190610c5f565b610521565b6040516101cd9190610be6565b60405180910390f35b6101f060048036038101906101eb9190610dc1565b61053f565b005b3480156101fe57600080fd5b5061021960048036038101906102149190610e0a565b6106ed565b6040516102269190610be6565b60405180910390f35b34801561023b57600080fd5b50610244610711565b6040516102519190610be6565b60405180910390f35b34801561026657600080fd5b5061026f610727565b005b34801561027d57600080fd5b5061028661077d565b6040516102939190610be6565b60405180910390f35b3480156102a857600080fd5b506102c360048036038101906102be9190610e0a565b610783565b005b3480156102d157600080fd5b506102da6107bb565b6040516102e79190610ef5565b60405180910390f35b3480156102fc57600080fd5b50610305610834565b005b34801561031357600080fd5b5061032e60048036038101906103299190610e0a565b610860565b60405161033b9190610be6565b60405180910390f35b34801561035057600080fd5b5061035961087b565b6040516103669190610f30565b60405180910390f35b34801561037b57600080fd5b50610384610881565b6040516103919190610fc2565b60405180910390f35b3480156103a657600080fd5b506103af610892565b6040516103bc9190610b2b565b60405180910390f35b601580546103d29061100c565b80601f01602080910402602001604051908101604052809291908181526020018280546103fe9061100c565b801561044b5780601f106104205761010080835404028352916020019161044b565b820191906000526020600020905b81548152906001019060200180831161042e57829003601f168201915b505050505081565b60008060006101000a81548160ff0219169083600281111561047857610477610f4b565b5b0217905550565b600b826002811061048f57600080fd5b6003020181600381106104a157600080fd5b01600091509150505481565b60405180604001604052806040518060600160405280600360ff168152602001600460ff168152602001600560ff1681525081526020016040518060600160405280600660ff168152602001600760ff168152602001600860ff16815250815250600b90600261051e929190610920565b50565b60166020528060005260406000206000915090508060000154905081565b6000601660003373ffffffffffffffffffffffffffffffffffffffff1673ffffffffffffffffffffffffffffffffffffffff168152602001908152602001600020600001549050601660003373ffffffffffffffffffffffffffffffffffffffff1673ffffffffffffffffffffffffffffffffffffffff16815260200190815260200160002060000160008154809291906105d99061106c565b9190505550600060405180608001604052803481526020014281526020013373ffffffffffffffffffffffffffffffffffffffff16815260200184815250905080601660003373ffffffffffffffffffffffffffffffffffffffff1673ffffffffffffffffffffffffffffffffffffffff1681526020019081526020016000206001016000848152602001908152602001600020600082015181600001556020820151816001015560408201518160020160006101000a81548173ffffffffffffffffffffffffffffffffffffffff021916908373ffffffffffffffffffffffffffffffffffffffff16021790555060608201518160030190805190602001906106e4929190610971565b50905050505050565b601181815481106106fd57600080fd5b906000526020600020016000915090505481565b6000601580546107209061100c565b9050905090565b606460016000600a811061073e5761073d6110b4565b5b018190555060c8600180600a8110610759576107586110b4565b5b018190555061012c60016002600a8110610776576107756110b4565b5b0181905550565b60125481565b601181908060018154018082558091505060019003906000526020600020016000909190919091505560118054905060128190555050565b60606000600a67ffffffffffffffff8111156107da576107d9610c96565b5b6040519080825280602002602001820160405280156108085781602001602082028036833780820191505090505b509050600181600081518110610821576108206110b4565b5b6020026020010181815250508091505090565b60016000806101000a81548160ff0219169083600281111561085957610858610f4b565b5b0217905550565b600181600a811061087057600080fd5b016000915090505481565b60135481565b60008054906101000a900460ff1681565b6014805461089f9061100c565b80601f01602080910402602001604051908101604052809291908181526020018280546108cb9061100c565b80156109185780601f106108ed57610100808354040283529160200191610918565b820191906000526020600020905b8154815290600101906020018083116108fb57829003601f168201915b505050505081565b8260026003028101928215610960579160200282015b8281111561095f5782518290600361094f9291906109f7565b5091602001919060030190610936565b5b50905061096d9190610a3c565b5090565b82805461097d9061100c565b90600052602060002090601f01602090048101928261099f57600085556109e6565b82601f106109b857805160ff19168380011785556109e6565b828001600101855582156109e6579182015b828111156109e55782518255916020019190600101906109ca565b5b5090506109f39190610a60565b5090565b8260038101928215610a2b579160200282015b82811115610a2a578251829060ff16905591602001919060010190610a0a565b5b509050610a389190610a60565b5090565b5b80821115610a5c5760008181610a539190610a7d565b50600301610a3d565b5090565b5b80821115610a79576000816000905550600101610a61565b5090565b50600081556001016000815560010160009055565b600081519050919050565b600082825260208201905092915050565b60005b83811015610acc578082015181840152602081019050610ab1565b83811115610adb576000848401525b50505050565b6000601f19601f8301169050919050565b6000610afd82610a92565b610b078185610a9d565b9350610b17818560208601610aae565b610b2081610ae1565b840191505092915050565b60006020820190508181036000830152610b458184610af2565b905092915050565b6000604051905090565b600080fd5b600080fd5b6000819050919050565b610b7481610b61565b8114610b7f57600080fd5b50565b600081359050610b9181610b6b565b92915050565b60008060408385031215610bae57610bad610b57565b5b6000610bbc85828601610b82565b9250506020610bcd85828601610b82565b9150509250929050565b610be081610b61565b82525050565b6000602082019050610bfb6000830184610bd7565b92915050565b600073ffffffffffffffffffffffffffffffffffffffff82169050919050565b6000610c2c82610c01565b9050919050565b610c3c81610c21565b8114610c4757600080fd5b50565b600081359050610c5981610c33565b92915050565b600060208284031215610c7557610c74610b57565b5b6000610c8384828501610c4a565b91505092915050565b600080fd5b600080fd5b7f4e487b7100000000000000000000000000000000000000000000000000000000600052604160045260246000fd5b610cce82610ae1565b810181811067ffffffffffffffff82111715610ced57610cec610c96565b5b80604052505050565b6000610d00610b4d565b9050610d0c8282610cc5565b919050565b600067ffffffffffffffff821115610d2c57610d2b610c96565b5b610d3582610ae1565b9050602081019050919050565b82818337600083830152505050565b6000610d64610d5f84610d11565b610cf6565b905082815260208101848484011115610d8057610d7f610c91565b5b610d8b848285610d42565b509392505050565b600082601f830112610da857610da7610c8c565b5b8135610db8848260208601610d51565b91505092915050565b600060208284031215610dd757610dd6610b57565b5b600082013567ffffffffffffffff811115610df557610df4610b5c565b5b610e0184828501610d93565b91505092915050565b600060208284031215610e2057610e1f610b57565b5b6000610e2e84828501610b82565b91505092915050565b600081519050919050565b600082825260208201905092915050565b6000819050602082019050919050565b610e6c81610b61565b82525050565b6000610e7e8383610e63565b60208301905092915050565b6000602082019050919050565b6000610ea282610e37565b610eac8185610e42565b9350610eb783610e53565b8060005b83811015610ee8578151610ecf8882610e72565b9750610eda83610e8a565b925050600181019050610ebb565b5085935050505092915050565b60006020820190508181036000830152610f0f8184610e97565b905092915050565b6000819050919050565b610f2a81610f17565b82525050565b6000602082019050610f456000830184610f21565b92915050565b7f4e487b7100000000000000000000000000000000000000000000000000000000600052602160045260246000fd5b60038110610f8b57610f8a610f4b565b5b50565b6000819050610f9c82610f7a565b919050565b6000610fac82610f8e565b9050919050565b610fbc81610fa1565b82525050565b6000602082019050610fd76000830184610fb3565b92915050565b7f4e487b7100000000000000000000000000000000000000000000000000000000600052602260045260246000fd5b6000600282049050600182168061102457607f821691505b60208210810361103757611036610fdd565b5b50919050565b7f4e487b7100000000000000000000000000000000000000000000000000000000600052601160045260246000fd5b600061107782610b61565b91507fffffffffffffffffffffffffffffffffffffffffffffffffffffffffffffffff82036110a9576110a861103d565b5b600182019050919050565b7f4e487b7100000000000000000000000000000000000000000000000000000000600052603260045260246000fdfea2646970667358221220080750935c79729c16d28dea9aeddf692dc95edf158e6fdd4effa62896c824fe64736f6c634300080e0033",
					"opcodes": "PUSH1 0x80 PUSH1 0x40 MSTORE PUSH32 0x7465737400000000000000000000000000000000000000000000000000000000 PUSH1 0x13 SSTORE PUSH1 0x40 MLOAD DUP1 PUSH1 0x40 ADD PUSH1 0x40 MSTORE DUP1 PUSH1 0x4 DUP2 MSTORE PUSH1 0x20 ADD PUSH32 0x7465737400000000000000000000000000000000000000000000000000000000 DUP2 MSTORE POP PUSH1 0x14 SWAP1 DUP1 MLOAD SWAP1 PUSH1 0x20 ADD SWAP1 PUSH3 0x75 SWAP3 SWAP2 SWAP1 PUSH3 0xD8 JUMP JUMPDEST POP PUSH1 0x40 MLOAD DUP1 PUSH1 0x40 ADD PUSH1 0x40 MSTORE DUP1 PUSH1 0x8 DUP2 MSTORE PUSH1 0x20 ADD PUSH32 0xD182D0B5D181D182000000000000000000000000000000000000000000000000 DUP2 MSTORE POP PUSH1 0x15 SWAP1 DUP1 MLOAD SWAP1 PUSH1 0x20 ADD SWAP1 PUSH3 0xC3 SWAP3 SWAP2 SWAP1 PUSH3 0xD8 JUMP JUMPDEST POP CALLVALUE DUP1 ISZERO PUSH3 0xD1 JUMPI PUSH1 0x0 DUP1 REVERT JUMPDEST POP PUSH3 0x1EC JUMP JUMPDEST DUP3 DUP1 SLOAD PUSH3 0xE6 SWAP1 PUSH3 0x1B7 JUMP JUMPDEST SWAP1 PUSH1 0x0 MSTORE PUSH1 0x20 PUSH1 0x0 KECCAK256 SWAP1 PUSH1 0x1F ADD PUSH1 0x20 SWAP1 DIV DUP2 ADD SWAP3 DUP3 PUSH3 0x10A JUMPI PUSH1 0x0 DUP6 SSTORE PUSH3 0x156 JUMP JUMPDEST DUP3 PUSH1 0x1F LT PUSH3 0x125 JUMPI DUP1 MLOAD PUSH1 0xFF NOT AND DUP4 DUP1 ADD OR DUP6 SSTORE PUSH3 0x156 JUMP JUMPDEST DUP3 DUP1 ADD PUSH1 0x1 ADD DUP6 SSTORE DUP3 ISZERO PUSH3 0x156 JUMPI SWAP2 DUP3 ADD JUMPDEST DUP3 DUP2 GT ISZERO PUSH3 0x155 JUMPI DUP3 MLOAD DUP3 SSTORE SWAP2 PUSH1 0x20 ADD SWAP2 SWAP1 PUSH1 0x1 ADD SWAP1 PUSH3 0x138 JUMP JUMPDEST JUMPDEST POP SWAP1 POP PUSH3 0x165 SWAP2 SWAP1 PUSH3 0x169 JUMP JUMPDEST POP SWAP1 JUMP JUMPDEST JUMPDEST DUP1 DUP3 GT ISZERO PUSH3 0x184 JUMPI PUSH1 0x0 DUP2 PUSH1 0x0 SWAP1 SSTORE POP PUSH1 0x1 ADD PUSH3 0x16A JUMP JUMPDEST POP SWAP1 JUMP JUMPDEST PUSH32 0x4E487B7100000000000000000000000000000000000000000000000000000000 PUSH1 0x0 MSTORE PUSH1 0x22 PUSH1 0x4 MSTORE PUSH1 0x24 PUSH1 0x0 REVERT JUMPDEST PUSH1 0x0 PUSH1 0x2 DUP3 DIV SWAP1 POP PUSH1 0x1 DUP3 AND DUP1 PUSH3 0x1D0 JUMPI PUSH1 0x7F DUP3 AND SWAP2 POP JUMPDEST PUSH1 0x20 DUP3 LT DUP2 SUB PUSH3 0x1E6 JUMPI PUSH3 0x1E5 PUSH3 0x188 JUMP JUMPDEST JUMPDEST POP SWAP2 SWAP1 POP JUMP JUMPDEST PUSH2 0x1119 DUP1 PUSH3 0x1FC PUSH1 0x0 CODECOPY PUSH1 0x0 RETURN INVALID PUSH1 0x80 PUSH1 0x40 MSTORE PUSH1 0x4 CALLDATASIZE LT PUSH2 0xFE JUMPI PUSH1 0x0 CALLDATALOAD PUSH1 0xE0 SHR DUP1 PUSH4 0x5464FB90 GT PUSH2 0x95 JUMPI DUP1 PUSH4 0xBBDFBFBA GT PUSH2 0x64 JUMPI DUP1 PUSH4 0xBBDFBFBA EQ PUSH2 0x2F0 JUMPI DUP1 PUSH4 0xC1A42D19 EQ PUSH2 0x307 JUMPI DUP1 PUSH4 0xC6B91540 EQ PUSH2 0x344 JUMPI DUP1 PUSH4 0xEF8A9235 EQ PUSH2 0x36F JUMPI DUP1 PUSH4 0xFFB1E210 EQ PUSH2 0x39A JUMPI PUSH2 0xFE JUMP JUMPDEST DUP1 PUSH4 0x5464FB90 EQ PUSH2 0x25A JUMPI DUP1 PUSH4 0x56D88E27 EQ PUSH2 0x271 JUMPI DUP1 PUSH4 0x78321EFB EQ PUSH2 0x29C JUMPI DUP1 PUSH4 0xA34343C9 EQ PUSH2 0x2C5 JUMPI PUSH2 0xFE JUMP JUMPDEST DUP1 PUSH4 0x27E235E3 GT PUSH2 0xD1 JUMPI DUP1 PUSH4 0x27E235E3 EQ PUSH2 0x199 JUMPI DUP1 PUSH4 0x2B66D72E EQ PUSH2 0x1D6 JUMPI DUP1 PUSH4 0x503F8CAB EQ PUSH2 0x1F2 JUMPI DUP1 PUSH4 0x526AA79A EQ PUSH2 0x22F JUMPI PUSH2 0xFE JUMP JUMPDEST DUP1 PUSH4 0x14D0C51E EQ PUSH2 0x103 JUMPI DUP1 PUSH4 0x1B9265B8 EQ PUSH2 0x12E JUMPI DUP1 PUSH4 0x1F0393A3 EQ PUSH2 0x145 JUMPI DUP1 PUSH4 0x2724898B EQ PUSH2 0x182 JUMPI JUMPDEST PUSH1 0x0 DUP1 REVERT JUMPDEST CALLVALUE DUP1 ISZERO PUSH2 0x10F JUMPI PUSH1 0x0 DUP1 REVERT JUMPDEST POP PUSH2 0x118 PUSH2 0x3C5 JUMP JUMPDEST PUSH1 0x40 MLOAD PUSH2 0x125 SWAP2 SWAP1 PUSH2 0xB2B JUMP JUMPDEST PUSH1 0x40 MLOAD DUP1 SWAP2 SUB SWAP1 RETURN JUMPDEST CALLVALUE DUP1 ISZERO PUSH2 0x13A JUMPI PUSH1 0x0 DUP1 REVERT JUMPDEST POP PUSH2 0x143 PUSH2 0x453 JUMP JUMPDEST STOP JUMPDEST CALLVALUE DUP1 ISZERO PUSH2 0x151 JUMPI PUSH1 0x0 DUP1 REVERT JUMPDEST POP PUSH2 0x16C PUSH1 0x4 DUP1 CALLDATASIZE SUB DUP2 ADD SWAP1 PUSH2 0x167 SWAP2 SWAP1 PUSH2 0xB97 JUMP JUMPDEST PUSH2 0x47F JUMP JUMPDEST PUSH1 0x40 MLOAD PUSH2 0x179 SWAP2 SWAP1 PUSH2 0xBE6 JUMP JUMPDEST PUSH1 0x40 MLOAD DUP1 SWAP2 SUB SWAP1 RETURN JUMPDEST CALLVALUE DUP1 ISZERO PUSH2 0x18E JUMPI PUSH1 0x0 DUP1 REVERT JUMPDEST POP PUSH2 0x197 PUSH2 0x4AD JUMP JUMPDEST STOP JUMPDEST CALLVALUE DUP1 ISZERO PUSH2 0x1A5 JUMPI PUSH1 0x0 DUP1 REVERT JUMPDEST POP PUSH2 0x1C0 PUSH1 0x4 DUP1 CALLDATASIZE SUB DUP2 ADD SWAP1 PUSH2 0x1BB SWAP2 SWAP1 PUSH2 0xC5F JUMP JUMPDEST PUSH2 0x521 JUMP JUMPDEST PUSH1 0x40 MLOAD PUSH2 0x1CD SWAP2 SWAP1 PUSH2 0xBE6 JUMP JUMPDEST PUSH1 0x40 MLOAD DUP1 SWAP2 SUB SWAP1 RETURN JUMPDEST PUSH2 0x1F0 PUSH1 0x4 DUP1 CALLDATASIZE SUB DUP2 ADD SWAP1 PUSH2 0x1EB SWAP2 SWAP1 PUSH2 0xDC1 JUMP JUMPDEST PUSH2 0x53F JUMP JUMPDEST STOP JUMPDEST CALLVALUE DUP1 ISZERO PUSH2 0x1FE JUMPI PUSH1 0x0 DUP1 REVERT JUMPDEST POP PUSH2 0x219 PUSH1 0x4 DUP1 CALLDATASIZE SUB DUP2 ADD SWAP1 PUSH2 0x214 SWAP2 SWAP1 PUSH2 0xE0A JUMP JUMPDEST PUSH2 0x6ED JUMP JUMPDEST PUSH1 0x40 MLOAD PUSH2 0x226 SWAP2 SWAP1 PUSH2 0xBE6 JUMP JUMPDEST PUSH1 0x40 MLOAD DUP1 SWAP2 SUB SWAP1 RETURN JUMPDEST CALLVALUE DUP1 ISZERO PUSH2 0x23B JUMPI PUSH1 0x0 DUP1 REVERT JUMPDEST POP PUSH2 0x244 PUSH2 0x711 JUMP JUMPDEST PUSH1 0x40 MLOAD PUSH2 0x251 SWAP2 SWAP1 PUSH2 0xBE6 JUMP JUMPDEST PUSH1 0x40 MLOAD DUP1 SWAP2 SUB SWAP1 RETURN JUMPDEST CALLVALUE DUP1 ISZERO PUSH2 0x266 JUMPI PUSH1 0x0 DUP1 REVERT JUMPDEST POP PUSH2 0x26F PUSH2 0x727 JUMP JUMPDEST STOP JUMPDEST CALLVALUE DUP1 ISZERO PUSH2 0x27D JUMPI PUSH1 0x0 DUP1 REVERT JUMPDEST POP PUSH2 0x286 PUSH2 0x77D JUMP JUMPDEST PUSH1 0x40 MLOAD PUSH2 0x293 SWAP2 SWAP1 PUSH2 0xBE6 JUMP JUMPDEST PUSH1 0x40 MLOAD DUP1 SWAP2 SUB SWAP1 RETURN JUMPDEST CALLVALUE DUP1 ISZERO PUSH2 0x2A8 JUMPI PUSH1 0x0 DUP1 REVERT JUMPDEST POP PUSH2 0x2C3 PUSH1 0x4 DUP1 CALLDATASIZE SUB DUP2 ADD SWAP1 PUSH2 0x2BE SWAP2 SWAP1 PUSH2 0xE0A JUMP JUMPDEST PUSH2 0x783 JUMP JUMPDEST STOP JUMPDEST CALLVALUE DUP1 ISZERO PUSH2 0x2D1 JUMPI PUSH1 0x0 DUP1 REVERT JUMPDEST POP PUSH2 0x2DA PUSH2 0x7BB JUMP JUMPDEST PUSH1 0x40 MLOAD PUSH2 0x2E7 SWAP2 SWAP1 PUSH2 0xEF5 JUMP JUMPDEST PUSH1 0x40 MLOAD DUP1 SWAP2 SUB SWAP1 RETURN JUMPDEST CALLVALUE DUP1 ISZERO PUSH2 0x2FC JUMPI PUSH1 0x0 DUP1 REVERT JUMPDEST POP PUSH2 0x305 PUSH2 0x834 JUMP JUMPDEST STOP JUMPDEST CALLVALUE DUP1 ISZERO PUSH2 0x313 JUMPI PUSH1 0x0 DUP1 REVERT JUMPDEST POP PUSH2 0x32E PUSH1 0x4 DUP1 CALLDATASIZE SUB DUP2 ADD SWAP1 PUSH2 0x329 SWAP2 SWAP1 PUSH2 0xE0A JUMP JUMPDEST PUSH2 0x860 JUMP JUMPDEST PUSH1 0x40 MLOAD PUSH2 0x33B SWAP2 SWAP1 PUSH2 0xBE6 JUMP JUMPDEST PUSH1 0x40 MLOAD DUP1 SWAP2 SUB SWAP1 RETURN JUMPDEST CALLVALUE DUP1 ISZERO PUSH2 0x350 JUMPI PUSH1 0x0 DUP1 REVERT JUMPDEST POP PUSH2 0x359 PUSH2 0x87B JUMP JUMPDEST PUSH1 0x40 MLOAD PUSH2 0x366 SWAP2 SWAP1 PUSH2 0xF30 JUMP JUMPDEST PUSH1 0x40 MLOAD DUP1 SWAP2 SUB SWAP1 RETURN JUMPDEST CALLVALUE DUP1 ISZERO PUSH2 0x37B JUMPI PUSH1 0x0 DUP1 REVERT JUMPDEST POP PUSH2 0x384 PUSH2 0x881 JUMP JUMPDEST PUSH1 0x40 MLOAD PUSH2 0x391 SWAP2 SWAP1 PUSH2 0xFC2 JUMP JUMPDEST PUSH1 0x40 MLOAD DUP1 SWAP2 SUB SWAP1 RETURN JUMPDEST CALLVALUE DUP1 ISZERO PUSH2 0x3A6 JUMPI PUSH1 0x0 DUP1 REVERT JUMPDEST POP PUSH2 0x3AF PUSH2 0x892 JUMP JUMPDEST PUSH1 0x40 MLOAD PUSH2 0x3BC SWAP2 SWAP1 PUSH2 0xB2B JUMP JUMPDEST PUSH1 0x40 MLOAD DUP1 SWAP2 SUB SWAP1 RETURN JUMPDEST PUSH1 0x15 DUP1 SLOAD PUSH2 0x3D2 SWAP1 PUSH2 0x100C JUMP JUMPDEST DUP1 PUSH1 0x1F ADD PUSH1 0x20 DUP1 SWAP2 DIV MUL PUSH1 0x20 ADD PUSH1 0x40 MLOAD SWAP1 DUP2 ADD PUSH1 0x40 MSTORE DUP1 SWAP3 SWAP2 SWAP1 DUP2 DUP2 MSTORE PUSH1 0x20 ADD DUP3 DUP1 SLOAD PUSH2 0x3FE SWAP1 PUSH2 0x100C JUMP JUMPDEST DUP1 ISZERO PUSH2 0x44B JUMPI DUP1 PUSH1 0x1F LT PUSH2 0x420 JUMPI PUSH2 0x100 DUP1 DUP4 SLOAD DIV MUL DUP4 MSTORE SWAP2 PUSH1 0x20 ADD SWAP2 PUSH2 0x44B JUMP JUMPDEST DUP3 ADD SWAP2 SWAP1 PUSH1 0x0 MSTORE PUSH1 0x20 PUSH1 0x0 KECCAK256 SWAP1 JUMPDEST DUP2 SLOAD DUP2 MSTORE SWAP1 PUSH1 0x1 ADD SWAP1 PUSH1 0x20 ADD DUP1 DUP4 GT PUSH2 0x42E JUMPI DUP3 SWAP1 SUB PUSH1 0x1F AND DUP3 ADD SWAP2 JUMPDEST POP POP POP POP POP DUP2 JUMP JUMPDEST PUSH1 0x0 DUP1 PUSH1 0x0 PUSH2 0x100 EXP DUP2 SLOAD DUP2 PUSH1 0xFF MUL NOT AND SWAP1 DUP4 PUSH1 0x2 DUP2 GT ISZERO PUSH2 0x478 JUMPI PUSH2 0x477 PUSH2 0xF4B JUMP JUMPDEST JUMPDEST MUL OR SWAP1 SSTORE POP JUMP JUMPDEST PUSH1 0xB DUP3 PUSH1 0x2 DUP2 LT PUSH2 0x48F JUMPI PUSH1 0x0 DUP1 REVERT JUMPDEST PUSH1 0x3 MUL ADD DUP2 PUSH1 0x3 DUP2 LT PUSH2 0x4A1 JUMPI PUSH1 0x0 DUP1 REVERT JUMPDEST ADD PUSH1 0x0 SWAP2 POP SWAP2 POP POP SLOAD DUP2 JUMP JUMPDEST PUSH1 0x40 MLOAD DUP1 PUSH1 0x40 ADD PUSH1 0x40 MSTORE DUP1 PUSH1 0x40 MLOAD DUP1 PUSH1 0x60 ADD PUSH1 0x40 MSTORE DUP1 PUSH1 0x3 PUSH1 0xFF AND DUP2 MSTORE PUSH1 0x20 ADD PUSH1 0x4 PUSH1 0xFF AND DUP2 MSTORE PUSH1 0x20 ADD PUSH1 0x5 PUSH1 0xFF AND DUP2 MSTORE POP DUP2 MSTORE PUSH1 0x20 ADD PUSH1 0x40 MLOAD DUP1 PUSH1 0x60 ADD PUSH1 0x40 MSTORE DUP1 PUSH1 0x6 PUSH1 0xFF AND DUP2 MSTORE PUSH1 0x20 ADD PUSH1 0x7 PUSH1 0xFF AND DUP2 MSTORE PUSH1 0x20 ADD PUSH1 0x8 PUSH1 0xFF AND DUP2 MSTORE POP DUP2 MSTORE POP PUSH1 0xB SWAP1 PUSH1 0x2 PUSH2 0x51E SWAP3 SWAP2 SWAP1 PUSH2 0x920 JUMP JUMPDEST POP JUMP JUMPDEST PUSH1 0x16 PUSH1 0x20 MSTORE DUP1 PUSH1 0x0 MSTORE PUSH1 0x40 PUSH1 0x0 KECCAK256 PUSH1 0x0 SWAP2 POP SWAP1 POP DUP1 PUSH1 0x0 ADD SLOAD SWAP1 POP DUP2 JUMP JUMPDEST PUSH1 0x0 PUSH1 0x16 PUSH1 0x0 CALLER PUSH20 0xFFFFFFFFFFFFFFFFFFFFFFFFFFFFFFFFFFFFFFFF AND PUSH20 0xFFFFFFFFFFFFFFFFFFFFFFFFFFFFFFFFFFFFFFFF AND DUP2 MSTORE PUSH1 0x20 ADD SWAP1 DUP2 MSTORE PUSH1 0x20 ADD PUSH1 0x0 KECCAK256 PUSH1 0x0 ADD SLOAD SWAP1 POP PUSH1 0x16 PUSH1 0x0 CALLER PUSH20 0xFFFFFFFFFFFFFFFFFFFFFFFFFFFFFFFFFFFFFFFF AND PUSH20 0xFFFFFFFFFFFFFFFFFFFFFFFFFFFFFFFFFFFFFFFF AND DUP2 MSTORE PUSH1 0x20 ADD SWAP1 DUP2 MSTORE PUSH1 0x20 ADD PUSH1 0x0 KECCAK256 PUSH1 0x0 ADD PUSH1 0x0 DUP2 SLOAD DUP1 SWAP3 SWAP2 SWAP1 PUSH2 0x5D9 SWAP1 PUSH2 0x106C JUMP JUMPDEST SWAP2 SWAP1 POP SSTORE POP PUSH1 0x0 PUSH1 0x40 MLOAD DUP1 PUSH1 0x80 ADD PUSH1 0x40 MSTORE DUP1 CALLVALUE DUP2 MSTORE PUSH1 0x20 ADD TIMESTAMP DUP2 MSTORE PUSH1 0x20 ADD CALLER PUSH20 0xFFFFFFFFFFFFFFFFFFFFFFFFFFFFFFFFFFFFFFFF AND DUP2 MSTORE PUSH1 0x20 ADD DUP5 DUP2 MSTORE POP SWAP1 POP DUP1 PUSH1 0x16 PUSH1 0x0 CALLER PUSH20 0xFFFFFFFFFFFFFFFFFFFFFFFFFFFFFFFFFFFFFFFF AND PUSH20 0xFFFFFFFFFFFFFFFFFFFFFFFFFFFFFFFFFFFFFFFF AND DUP2 MSTORE PUSH1 0x20 ADD SWAP1 DUP2 MSTORE PUSH1 0x20 ADD PUSH1 0x0 KECCAK256 PUSH1 0x1 ADD PUSH1 0x0 DUP5 DUP2 MSTORE PUSH1 0x20 ADD SWAP1 DUP2 MSTORE PUSH1 0x20 ADD PUSH1 0x0 KECCAK256 PUSH1 0x0 DUP3 ADD MLOAD DUP2 PUSH1 0x0 ADD SSTORE PUSH1 0x20 DUP3 ADD MLOAD DUP2 PUSH1 0x1 ADD SSTORE PUSH1 0x40 DUP3 ADD MLOAD DUP2 PUSH1 0x2 ADD PUSH1 0x0 PUSH2 0x100 EXP DUP2 SLOAD DUP2 PUSH20 0xFFFFFFFFFFFFFFFFFFFFFFFFFFFFFFFFFFFFFFFF MUL NOT AND SWAP1 DUP4 PUSH20 0xFFFFFFFFFFFFFFFFFFFFFFFFFFFFFFFFFFFFFFFF AND MUL OR SWAP1 SSTORE POP PUSH1 0x60 DUP3 ADD MLOAD DUP2 PUSH1 0x3 ADD SWAP1 DUP1 MLOAD SWAP1 PUSH1 0x20 ADD SWAP1 PUSH2 0x6E4 SWAP3 SWAP2 SWAP1 PUSH2 0x971 JUMP JUMPDEST POP SWAP1 POP POP POP POP POP JUMP JUMPDEST PUSH1 0x11 DUP2 DUP2 SLOAD DUP2 LT PUSH2 0x6FD JUMPI PUSH1 0x0 DUP1 REVERT JUMPDEST SWAP1 PUSH1 0x0 MSTORE PUSH1 0x20 PUSH1 0x0 KECCAK256 ADD PUSH1 0x0 SWAP2 POP SWAP1 POP SLOAD DUP2 JUMP JUMPDEST PUSH1 0x0 PUSH1 0x15 DUP1 SLOAD PUSH2 0x720 SWAP1 PUSH2 0x100C JUMP JUMPDEST SWAP1 POP SWAP1 POP SWAP1 JUMP JUMPDEST PUSH1 0x64 PUSH1 0x1 PUSH1 0x0 PUSH1 0xA DUP2 LT PUSH2 0x73E JUMPI PUSH2 0x73D PUSH2 0x10B4 JUMP JUMPDEST JUMPDEST ADD DUP2 SWAP1 SSTORE POP PUSH1 0xC8 PUSH1 0x1 DUP1 PUSH1 0xA DUP2 LT PUSH2 0x759 JUMPI PUSH2 0x758 PUSH2 0x10B4 JUMP JUMPDEST JUMPDEST ADD DUP2 SWAP1 SSTORE POP PUSH2 0x12C PUSH1 0x1 PUSH1 0x2 PUSH1 0xA DUP2 LT PUSH2 0x776 JUMPI PUSH2 0x775 PUSH2 0x10B4 JUMP JUMPDEST JUMPDEST ADD DUP2 SWAP1 SSTORE POP JUMP JUMPDEST PUSH1 0x12 SLOAD DUP2 JUMP JUMPDEST PUSH1 0x11 DUP2 SWAP1 DUP1 PUSH1 0x1 DUP2 SLOAD ADD DUP1 DUP3 SSTORE DUP1 SWAP2 POP POP PUSH1 0x1 SWAP1 SUB SWAP1 PUSH1 0x0 MSTORE PUSH1 0x20 PUSH1 0x0 KECCAK256 ADD PUSH1 0x0 SWAP1 SWAP2 SWAP1 SWAP2 SWAP1 SWAP2 POP SSTORE PUSH1 0x11 DUP1 SLOAD SWAP1 POP PUSH1 0x12 DUP2 SWAP1 SSTORE POP POP JUMP JUMPDEST PUSH1 0x60 PUSH1 0x0 PUSH1 0xA PUSH8 0xFFFFFFFFFFFFFFFF DUP2 GT ISZERO PUSH2 0x7DA JUMPI PUSH2 0x7D9 PUSH2 0xC96 JUMP JUMPDEST JUMPDEST PUSH1 0x40 MLOAD SWAP1 DUP1 DUP3 MSTORE DUP1 PUSH1 0x20 MUL PUSH1 0x20 ADD DUP3 ADD PUSH1 0x40 MSTORE DUP1 ISZERO PUSH2 0x808 JUMPI DUP2 PUSH1 0x20 ADD PUSH1 0x20 DUP3 MUL DUP1 CALLDATASIZE DUP4 CALLDATACOPY DUP1 DUP3 ADD SWAP2 POP POP SWAP1 POP JUMPDEST POP SWAP1 POP PUSH1 0x1 DUP2 PUSH1 0x0 DUP2 MLOAD DUP2 LT PUSH2 0x821 JUMPI PUSH2 0x820 PUSH2 0x10B4 JUMP JUMPDEST JUMPDEST PUSH1 0x20 MUL PUSH1 0x20 ADD ADD DUP2 DUP2 MSTORE POP POP DUP1 SWAP2 POP POP SWAP1 JUMP JUMPDEST PUSH1 0x1 PUSH1 0x0 DUP1 PUSH2 0x100 EXP DUP2 SLOAD DUP2 PUSH1 0xFF MUL NOT AND SWAP1 DUP4 PUSH1 0x2 DUP2 GT ISZERO PUSH2 0x859 JUMPI PUSH2 0x858 PUSH2 0xF4B JUMP JUMPDEST JUMPDEST MUL OR SWAP1 SSTORE POP JUMP JUMPDEST PUSH1 0x1 DUP2 PUSH1 0xA DUP2 LT PUSH2 0x870 JUMPI PUSH1 0x0 DUP1 REVERT JUMPDEST ADD PUSH1 0x0 SWAP2 POP SWAP1 POP SLOAD DUP2 JUMP JUMPDEST PUSH1 0x13 SLOAD DUP2 JUMP JUMPDEST PUSH1 0x0 DUP1 SLOAD SWAP1 PUSH2 0x100 EXP SWAP1 DIV PUSH1 0xFF AND DUP2 JUMP JUMPDEST PUSH1 0x14 DUP1 SLOAD PUSH2 0x89F SWAP1 PUSH2 0x100C JUMP JUMPDEST DUP1 PUSH1 0x1F ADD PUSH1 0x20 DUP1 SWAP2 DIV MUL PUSH1 0x20 ADD PUSH1 0x40 MLOAD SWAP1 DUP2 ADD PUSH1 0x40 MSTORE DUP1 SWAP3 SWAP2 SWAP1 DUP2 DUP2 MSTORE PUSH1 0x20 ADD DUP3 DUP1 SLOAD PUSH2 0x8CB SWAP1 PUSH2 0x100C JUMP JUMPDEST DUP1 ISZERO PUSH2 0x918 JUMPI DUP1 PUSH1 0x1F LT PUSH2 0x8ED JUMPI PUSH2 0x100 DUP1 DUP4 SLOAD DIV MUL DUP4 MSTORE SWAP2 PUSH1 0x20 ADD SWAP2 PUSH2 0x918 JUMP JUMPDEST DUP3 ADD SWAP2 SWAP1 PUSH1 0x0 MSTORE PUSH1 0x20 PUSH1 0x0 KECCAK256 SWAP1 JUMPDEST DUP2 SLOAD DUP2 MSTORE SWAP1 PUSH1 0x1 ADD SWAP1 PUSH1 0x20 ADD DUP1 DUP4 GT PUSH2 0x8FB JUMPI DUP3 SWAP1 SUB PUSH1 0x1F AND DUP3 ADD SWAP2 JUMPDEST POP POP POP POP POP DUP2 JUMP JUMPDEST DUP3 PUSH1 0x2 PUSH1 0x3 MUL DUP2 ADD SWAP3 DUP3 ISZERO PUSH2 0x960 JUMPI SWAP2 PUSH1 0x20 MUL DUP3 ADD JUMPDEST DUP3 DUP2 GT ISZERO PUSH2 0x95F JUMPI DUP3 MLOAD DUP3 SWAP1 PUSH1 0x3 PUSH2 0x94F SWAP3 SWAP2 SWAP1 PUSH2 0x9F7 JUMP JUMPDEST POP SWAP2 PUSH1 0x20 ADD SWAP2 SWAP1 PUSH1 0x3 ADD SWAP1 PUSH2 0x936 JUMP JUMPDEST JUMPDEST POP SWAP1 POP PUSH2 0x96D SWAP2 SWAP1 PUSH2 0xA3C JUMP JUMPDEST POP SWAP1 JUMP JUMPDEST DUP3 DUP1 SLOAD PUSH2 0x97D SWAP1 PUSH2 0x100C JUMP JUMPDEST SWAP1 PUSH1 0x0 MSTORE PUSH1 0x20 PUSH1 0x0 KECCAK256 SWAP1 PUSH1 0x1F ADD PUSH1 0x20 SWAP1 DIV DUP2 ADD SWAP3 DUP3 PUSH2 0x99F JUMPI PUSH1 0x0 DUP6 SSTORE PUSH2 0x9E6 JUMP JUMPDEST DUP3 PUSH1 0x1F LT PUSH2 0x9B8 JUMPI DUP1 MLOAD PUSH1 0xFF NOT AND DUP4 DUP1 ADD OR DUP6 SSTORE PUSH2 0x9E6 JUMP JUMPDEST DUP3 DUP1 ADD PUSH1 0x1 ADD DUP6 SSTORE DUP3 ISZERO PUSH2 0x9E6 JUMPI SWAP2 DUP3 ADD JUMPDEST DUP3 DUP2 GT ISZERO PUSH2 0x9E5 JUMPI DUP3 MLOAD DUP3 SSTORE SWAP2 PUSH1 0x20 ADD SWAP2 SWAP1 PUSH1 0x1 ADD SWAP1 PUSH2 0x9CA JUMP JUMPDEST JUMPDEST POP SWAP1 POP PUSH2 0x9F3 SWAP2 SWAP1 PUSH2 0xA60 JUMP JUMPDEST POP SWAP1 JUMP JUMPDEST DUP3 PUSH1 0x3 DUP2 ADD SWAP3 DUP3 ISZERO PUSH2 0xA2B JUMPI SWAP2 PUSH1 0x20 MUL DUP3 ADD JUMPDEST DUP3 DUP2 GT ISZERO PUSH2 0xA2A JUMPI DUP3 MLOAD DUP3 SWAP1 PUSH1 0xFF AND SWAP1 SSTORE SWAP2 PUSH1 0x20 ADD SWAP2 SWAP1 PUSH1 0x1 ADD SWAP1 PUSH2 0xA0A JUMP JUMPDEST JUMPDEST POP SWAP1 POP PUSH2 0xA38 SWAP2 SWAP1 PUSH2 0xA60 JUMP JUMPDEST POP SWAP1 JUMP JUMPDEST JUMPDEST DUP1 DUP3 GT ISZERO PUSH2 0xA5C JUMPI PUSH1 0x0 DUP2 DUP2 PUSH2 0xA53 SWAP2 SWAP1 PUSH2 0xA7D JUMP JUMPDEST POP PUSH1 0x3 ADD PUSH2 0xA3D JUMP JUMPDEST POP SWAP1 JUMP JUMPDEST JUMPDEST DUP1 DUP3 GT ISZERO PUSH2 0xA79 JUMPI PUSH1 0x0 DUP2 PUSH1 0x0 SWAP1 SSTORE POP PUSH1 0x1 ADD PUSH2 0xA61 JUMP JUMPDEST POP SWAP1 JUMP JUMPDEST POP PUSH1 0x0 DUP2 SSTORE PUSH1 0x1 ADD PUSH1 0x0 DUP2 SSTORE PUSH1 0x1 ADD PUSH1 0x0 SWAP1 SSTORE JUMP JUMPDEST PUSH1 0x0 DUP2 MLOAD SWAP1 POP SWAP2 SWAP1 POP JUMP JUMPDEST PUSH1 0x0 DUP3 DUP3 MSTORE PUSH1 0x20 DUP3 ADD SWAP1 POP SWAP3 SWAP2 POP POP JUMP JUMPDEST PUSH1 0x0 JUMPDEST DUP4 DUP2 LT ISZERO PUSH2 0xACC JUMPI DUP1 DUP3 ADD MLOAD DUP2 DUP5 ADD MSTORE PUSH1 0x20 DUP2 ADD SWAP1 POP PUSH2 0xAB1 JUMP JUMPDEST DUP4 DUP2 GT ISZERO PUSH2 0xADB JUMPI PUSH1 0x0 DUP5 DUP5 ADD MSTORE JUMPDEST POP POP POP POP JUMP JUMPDEST PUSH1 0x0 PUSH1 0x1F NOT PUSH1 0x1F DUP4 ADD AND SWAP1 POP SWAP2 SWAP1 POP JUMP JUMPDEST PUSH1 0x0 PUSH2 0xAFD DUP3 PUSH2 0xA92 JUMP JUMPDEST PUSH2 0xB07 DUP2 DUP6 PUSH2 0xA9D JUMP JUMPDEST SWAP4 POP PUSH2 0xB17 DUP2 DUP6 PUSH1 0x20 DUP7 ADD PUSH2 0xAAE JUMP JUMPDEST PUSH2 0xB20 DUP2 PUSH2 0xAE1 JUMP JUMPDEST DUP5 ADD SWAP2 POP POP SWAP3 SWAP2 POP POP JUMP JUMPDEST PUSH1 0x0 PUSH1 0x20 DUP3 ADD SWAP1 POP DUP2 DUP2 SUB PUSH1 0x0 DUP4 ADD MSTORE PUSH2 0xB45 DUP2 DUP5 PUSH2 0xAF2 JUMP JUMPDEST SWAP1 POP SWAP3 SWAP2 POP POP JUMP JUMPDEST PUSH1 0x0 PUSH1 0x40 MLOAD SWAP1 POP SWAP1 JUMP JUMPDEST PUSH1 0x0 DUP1 REVERT JUMPDEST PUSH1 0x0 DUP1 REVERT JUMPDEST PUSH1 0x0 DUP2 SWAP1 POP SWAP2 SWAP1 POP JUMP JUMPDEST PUSH2 0xB74 DUP2 PUSH2 0xB61 JUMP JUMPDEST DUP2 EQ PUSH2 0xB7F JUMPI PUSH1 0x0 DUP1 REVERT JUMPDEST POP JUMP JUMPDEST PUSH1 0x0 DUP2 CALLDATALOAD SWAP1 POP PUSH2 0xB91 DUP2 PUSH2 0xB6B JUMP JUMPDEST SWAP3 SWAP2 POP POP JUMP JUMPDEST PUSH1 0x0 DUP1 PUSH1 0x40 DUP4 DUP6 SUB SLT ISZERO PUSH2 0xBAE JUMPI PUSH2 0xBAD PUSH2 0xB57 JUMP JUMPDEST JUMPDEST PUSH1 0x0 PUSH2 0xBBC DUP6 DUP3 DUP7 ADD PUSH2 0xB82 JUMP JUMPDEST SWAP3 POP POP PUSH1 0x20 PUSH2 0xBCD DUP6 DUP3 DUP7 ADD PUSH2 0xB82 JUMP JUMPDEST SWAP2 POP POP SWAP3 POP SWAP3 SWAP1 POP JUMP JUMPDEST PUSH2 0xBE0 DUP2 PUSH2 0xB61 JUMP JUMPDEST DUP3 MSTORE POP POP JUMP JUMPDEST PUSH1 0x0 PUSH1 0x20 DUP3 ADD SWAP1 POP PUSH2 0xBFB PUSH1 0x0 DUP4 ADD DUP5 PUSH2 0xBD7 JUMP JUMPDEST SWAP3 SWAP2 POP POP JUMP JUMPDEST PUSH1 0x0 PUSH20 0xFFFFFFFFFFFFFFFFFFFFFFFFFFFFFFFFFFFFFFFF DUP3 AND SWAP1 POP SWAP2 SWAP1 POP JUMP JUMPDEST PUSH1 0x0 PUSH2 0xC2C DUP3 PUSH2 0xC01 JUMP JUMPDEST SWAP1 POP SWAP2 SWAP1 POP JUMP JUMPDEST PUSH2 0xC3C DUP2 PUSH2 0xC21 JUMP JUMPDEST DUP2 EQ PUSH2 0xC47 JUMPI PUSH1 0x0 DUP1 REVERT JUMPDEST POP JUMP JUMPDEST PUSH1 0x0 DUP2 CALLDATALOAD SWAP1 POP PUSH2 0xC59 DUP2 PUSH2 0xC33 JUMP JUMPDEST SWAP3 SWAP2 POP POP JUMP JUMPDEST PUSH1 0x0 PUSH1 0x20 DUP3 DUP5 SUB SLT ISZERO PUSH2 0xC75 JUMPI PUSH2 0xC74 PUSH2 0xB57 JUMP JUMPDEST JUMPDEST PUSH1 0x0 PUSH2 0xC83 DUP5 DUP3 DUP6 ADD PUSH2 0xC4A JUMP JUMPDEST SWAP2 POP POP SWAP3 SWAP2 POP POP JUMP JUMPDEST PUSH1 0x0 DUP1 REVERT JUMPDEST PUSH1 0x0 DUP1 REVERT JUMPDEST PUSH32 0x4E487B7100000000000000000000000000000000000000000000000000000000 PUSH1 0x0 MSTORE PUSH1 0x41 PUSH1 0x4 MSTORE PUSH1 0x24 PUSH1 0x0 REVERT JUMPDEST PUSH2 0xCCE DUP3 PUSH2 0xAE1 JUMP JUMPDEST DUP2 ADD DUP2 DUP2 LT PUSH8 0xFFFFFFFFFFFFFFFF DUP3 GT OR ISZERO PUSH2 0xCED JUMPI PUSH2 0xCEC PUSH2 0xC96 JUMP JUMPDEST JUMPDEST DUP1 PUSH1 0x40 MSTORE POP POP POP JUMP JUMPDEST PUSH1 0x0 PUSH2 0xD00 PUSH2 0xB4D JUMP JUMPDEST SWAP1 POP PUSH2 0xD0C DUP3 DUP3 PUSH2 0xCC5 JUMP JUMPDEST SWAP2 SWAP1 POP JUMP JUMPDEST PUSH1 0x0 PUSH8 0xFFFFFFFFFFFFFFFF DUP3 GT ISZERO PUSH2 0xD2C JUMPI PUSH2 0xD2B PUSH2 0xC96 JUMP JUMPDEST JUMPDEST PUSH2 0xD35 DUP3 PUSH2 0xAE1 JUMP JUMPDEST SWAP1 POP PUSH1 0x20 DUP2 ADD SWAP1 POP SWAP2 SWAP1 POP JUMP JUMPDEST DUP3 DUP2 DUP4 CALLDATACOPY PUSH1 0x0 DUP4 DUP4 ADD MSTORE POP POP POP JUMP JUMPDEST PUSH1 0x0 PUSH2 0xD64 PUSH2 0xD5F DUP5 PUSH2 0xD11 JUMP JUMPDEST PUSH2 0xCF6 JUMP JUMPDEST SWAP1 POP DUP3 DUP2 MSTORE PUSH1 0x20 DUP2 ADD DUP5 DUP5 DUP5 ADD GT ISZERO PUSH2 0xD80 JUMPI PUSH2 0xD7F PUSH2 0xC91 JUMP JUMPDEST JUMPDEST PUSH2 0xD8B DUP5 DUP3 DUP6 PUSH2 0xD42 JUMP JUMPDEST POP SWAP4 SWAP3 POP POP POP JUMP JUMPDEST PUSH1 0x0 DUP3 PUSH1 0x1F DUP4 ADD SLT PUSH2 0xDA8 JUMPI PUSH2 0xDA7 PUSH2 0xC8C JUMP JUMPDEST JUMPDEST DUP2 CALLDATALOAD PUSH2 0xDB8 DUP5 DUP3 PUSH1 0x20 DUP7 ADD PUSH2 0xD51 JUMP JUMPDEST SWAP2 POP POP SWAP3 SWAP2 POP POP JUMP JUMPDEST PUSH1 0x0 PUSH1 0x20 DUP3 DUP5 SUB SLT ISZERO PUSH2 0xDD7 JUMPI PUSH2 0xDD6 PUSH2 0xB57 JUMP JUMPDEST JUMPDEST PUSH1 0x0 DUP3 ADD CALLDATALOAD PUSH8 0xFFFFFFFFFFFFFFFF DUP2 GT ISZERO PUSH2 0xDF5 JUMPI PUSH2 0xDF4 PUSH2 0xB5C JUMP JUMPDEST JUMPDEST PUSH2 0xE01 DUP5 DUP3 DUP6 ADD PUSH2 0xD93 JUMP JUMPDEST SWAP2 POP POP SWAP3 SWAP2 POP POP JUMP JUMPDEST PUSH1 0x0 PUSH1 0x20 DUP3 DUP5 SUB SLT ISZERO PUSH2 0xE20 JUMPI PUSH2 0xE1F PUSH2 0xB57 JUMP JUMPDEST JUMPDEST PUSH1 0x0 PUSH2 0xE2E DUP5 DUP3 DUP6 ADD PUSH2 0xB82 JUMP JUMPDEST SWAP2 POP POP SWAP3 SWAP2 POP POP JUMP JUMPDEST PUSH1 0x0 DUP2 MLOAD SWAP1 POP SWAP2 SWAP1 POP JUMP JUMPDEST PUSH1 0x0 DUP3 DUP3 MSTORE PUSH1 0x20 DUP3 ADD SWAP1 POP SWAP3 SWAP2 POP POP JUMP JUMPDEST PUSH1 0x0 DUP2 SWAP1 POP PUSH1 0x20 DUP3 ADD SWAP1 POP SWAP2 SWAP1 POP JUMP JUMPDEST PUSH2 0xE6C DUP2 PUSH2 0xB61 JUMP JUMPDEST DUP3 MSTORE POP POP JUMP JUMPDEST PUSH1 0x0 PUSH2 0xE7E DUP4 DUP4 PUSH2 0xE63 JUMP JUMPDEST PUSH1 0x20 DUP4 ADD SWAP1 POP SWAP3 SWAP2 POP POP JUMP JUMPDEST PUSH1 0x0 PUSH1 0x20 DUP3 ADD SWAP1 POP SWAP2 SWAP1 POP JUMP JUMPDEST PUSH1 0x0 PUSH2 0xEA2 DUP3 PUSH2 0xE37 JUMP JUMPDEST PUSH2 0xEAC DUP2 DUP6 PUSH2 0xE42 JUMP JUMPDEST SWAP4 POP PUSH2 0xEB7 DUP4 PUSH2 0xE53 JUMP JUMPDEST DUP1 PUSH1 0x0 JUMPDEST DUP4 DUP2 LT ISZERO PUSH2 0xEE8 JUMPI DUP2 MLOAD PUSH2 0xECF DUP9 DUP3 PUSH2 0xE72 JUMP JUMPDEST SWAP8 POP PUSH2 0xEDA DUP4 PUSH2 0xE8A JUMP JUMPDEST SWAP3 POP POP PUSH1 0x1 DUP2 ADD SWAP1 POP PUSH2 0xEBB JUMP JUMPDEST POP DUP6 SWAP4 POP POP POP POP SWAP3 SWAP2 POP POP JUMP JUMPDEST PUSH1 0x0 PUSH1 0x20 DUP3 ADD SWAP1 POP DUP2 DUP2 SUB PUSH1 0x0 DUP4 ADD MSTORE PUSH2 0xF0F DUP2 DUP5 PUSH2 0xE97 JUMP JUMPDEST SWAP1 POP SWAP3 SWAP2 POP POP JUMP JUMPDEST PUSH1 0x0 DUP2 SWAP1 POP SWAP2 SWAP1 POP JUMP JUMPDEST PUSH2 0xF2A DUP2 PUSH2 0xF17 JUMP JUMPDEST DUP3 MSTORE POP POP JUMP JUMPDEST PUSH1 0x0 PUSH1 0x20 DUP3 ADD SWAP1 POP PUSH2 0xF45 PUSH1 0x0 DUP4 ADD DUP5 PUSH2 0xF21 JUMP JUMPDEST SWAP3 SWAP2 POP POP JUMP JUMPDEST PUSH32 0x4E487B7100000000000000000000000000000000000000000000000000000000 PUSH1 0x0 MSTORE PUSH1 0x21 PUSH1 0x4 MSTORE PUSH1 0x24 PUSH1 0x0 REVERT JUMPDEST PUSH1 0x3 DUP2 LT PUSH2 0xF8B JUMPI PUSH2 0xF8A PUSH2 0xF4B JUMP JUMPDEST JUMPDEST POP JUMP JUMPDEST PUSH1 0x0 DUP2 SWAP1 POP PUSH2 0xF9C DUP3 PUSH2 0xF7A JUMP JUMPDEST SWAP2 SWAP1 POP JUMP JUMPDEST PUSH1 0x0 PUSH2 0xFAC DUP3 PUSH2 0xF8E JUMP JUMPDEST SWAP1 POP SWAP2 SWAP1 POP JUMP JUMPDEST PUSH2 0xFBC DUP2 PUSH2 0xFA1 JUMP JUMPDEST DUP3 MSTORE POP POP JUMP JUMPDEST PUSH1 0x0 PUSH1 0x20 DUP3 ADD SWAP1 POP PUSH2 0xFD7 PUSH1 0x0 DUP4 ADD DUP5 PUSH2 0xFB3 JUMP JUMPDEST SWAP3 SWAP2 POP POP JUMP JUMPDEST PUSH32 0x4E487B7100000000000000000000000000000000000000000000000000000000 PUSH1 0x0 MSTORE PUSH1 0x22 PUSH1 0x4 MSTORE PUSH1 0x24 PUSH1 0x0 REVERT JUMPDEST PUSH1 0x0 PUSH1 0x2 DUP3 DIV SWAP1 POP PUSH1 0x1 DUP3 AND DUP1 PUSH2 0x1024 JUMPI PUSH1 0x7F DUP3 AND SWAP2 POP JUMPDEST PUSH1 0x20 DUP3 LT DUP2 SUB PUSH2 0x1037 JUMPI PUSH2 0x1036 PUSH2 0xFDD JUMP JUMPDEST JUMPDEST POP SWAP2 SWAP1 POP JUMP JUMPDEST PUSH32 0x4E487B7100000000000000000000000000000000000000000000000000000000 PUSH1 0x0 MSTORE PUSH1 0x11 PUSH1 0x4 MSTORE PUSH1 0x24 PUSH1 0x0 REVERT JUMPDEST PUSH1 0x0 PUSH2 0x1077 DUP3 PUSH2 0xB61 JUMP JUMPDEST SWAP2 POP PUSH32 0xFFFFFFFFFFFFFFFFFFFFFFFFFFFFFFFFFFFFFFFFFFFFFFFFFFFFFFFFFFFFFFFF DUP3 SUB PUSH2 0x10A9 JUMPI PUSH2 0x10A8 PUSH2 0x103D JUMP JUMPDEST JUMPDEST PUSH1 0x1 DUP3 ADD SWAP1 POP SWAP2 SWAP1 POP JUMP JUMPDEST PUSH32 0x4E487B7100000000000000000000000000000000000000000000000000000000 PUSH1 0x0 MSTORE PUSH1 0x32 PUSH1 0x4 MSTORE PUSH1 0x24 PUSH1 0x0 REVERT INVALID LOG2 PUSH5 0x6970667358 0x22 SLT KECCAK256 ADDMOD SMOD POP SWAP4 0x5C PUSH26 0x729C16D28DEA9AEDDF692DC95EDF158E6FDD4EFFA62896C824FE PUSH5 0x736F6C6343 STOP ADDMOD 0xE STOP CALLER "
				},
				"gasEstimates": {
					"creation": {
						"codeDepositCost": "875400",
						"executionCost": "infinite",
						"totalCost": "infinite"
					},
					"external": {
						"balances(address)": "2851",
						"currentStatus()": "2645",
						"delivered()": "24453",
						"getLenBytes()": "2659",
						"items0(uint256)": "infinite",
						"items1(uint256,uint256)": "infinite",
						"items2(uint256)": "infinite",
						"len()": "2474",
						"myDynVar()": "infinite",
						"myDynVarUni()": "infinite",
						"myVar()": "2495",
						"pay()": "24477",
						"pay(string)": "infinite",
						"pushElement(uint256)": "71118",
						"sampleMemory()": "infinite",
						"setArray()": "infinite",
						"setPartArray()": "66596"
					}
				},
				"methodIdentifiers": {
					"balances(address)": "27e235e3",
					"currentStatus()": "ef8a9235",
					"delivered()": "bbdfbfba",
					"getLenBytes()": "526aa79a",
					"items0(uint256)": "c1a42d19",
					"items1(uint256,uint256)": "1f0393a3",
					"items2(uint256)": "503f8cab",
					"len()": "56d88e27",
					"myDynVar()": "ffb1e210",
					"myDynVarUni()": "14d0c51e",
					"myVar()": "c6b91540",
					"pay()": "1b9265b8",
					"pay(string)": "2b66d72e",
					"pushElement(uint256)": "78321efb",
					"sampleMemory()": "a34343c9",
					"setArray()": "2724898b",
					"setPartArray()": "5464fb90"
				}
			},
			"storageLayout": {
				"storage": [
					{
						"astId": 8,
						"contract": "04_lesson_DataTypes/DataTypes.sol:Demo",
						"label": "currentStatus",
						"offset": 0,
						"slot": "0",
						"type": "t_enum(Status)5"
					},
					{
						"astId": 30,
						"contract": "04_lesson_DataTypes/DataTypes.sol:Demo",
						"label": "items0",
						"offset": 0,
						"slot": "1",
						"type": "t_array(t_uint256)10_storage"
					},
					{
						"astId": 58,
						"contract": "04_lesson_DataTypes/DataTypes.sol:Demo",
						"label": "items1",
						"offset": 0,
						"slot": "11",
						"type": "t_array(t_array(t_uint256)3_storage)2_storage"
					},
					{
						"astId": 77,
						"contract": "04_lesson_DataTypes/DataTypes.sol:Demo",
						"label": "items2",
						"offset": 0,
						"slot": "17",
						"type": "t_array(t_uint256)dyn_storage"
					},
					{
						"astId": 79,
						"contract": "04_lesson_DataTypes/DataTypes.sol:Demo",
						"label": "len",
						"offset": 0,
						"slot": "18",
						"type": "t_uint256"
					},
					{
						"astId": 125,
						"contract": "04_lesson_DataTypes/DataTypes.sol:Demo",
						"label": "myVar",
						"offset": 0,
						"slot": "19",
						"type": "t_bytes32"
					},
					{
						"astId": 128,
						"contract": "04_lesson_DataTypes/DataTypes.sol:Demo",
						"label": "myDynVar",
						"offset": 0,
						"slot": "20",
						"type": "t_bytes_storage"
					},
					{
						"astId": 131,
						"contract": "04_lesson_DataTypes/DataTypes.sol:Demo",
						"label": "myDynVarUni",
						"offset": 0,
						"slot": "21",
						"type": "t_bytes_storage"
					},
					{
						"astId": 162,
						"contract": "04_lesson_DataTypes/DataTypes.sol:Demo",
						"label": "balances",
						"offset": 0,
						"slot": "22",
						"type": "t_mapping(t_address,t_struct(Balance)157_storage)"
					}
				],
				"types": {
					"t_address": {
						"encoding": "inplace",
						"label": "address",
						"numberOfBytes": "20"
					},
					"t_array(t_array(t_uint256)3_storage)2_storage": {
						"base": "t_array(t_uint256)3_storage",
						"encoding": "inplace",
						"label": "uint256[3][2]",
						"numberOfBytes": "192"
					},
					"t_array(t_uint256)10_storage": {
						"base": "t_uint256",
						"encoding": "inplace",
						"label": "uint256[10]",
						"numberOfBytes": "320"
					},
					"t_array(t_uint256)3_storage": {
						"base": "t_uint256",
						"encoding": "inplace",
						"label": "uint256[3]",
						"numberOfBytes": "96"
					},
					"t_array(t_uint256)dyn_storage": {
						"base": "t_uint256",
						"encoding": "dynamic_array",
						"label": "uint256[]",
						"numberOfBytes": "32"
					},
					"t_bytes32": {
						"encoding": "inplace",
						"label": "bytes32",
						"numberOfBytes": "32"
					},
					"t_bytes_storage": {
						"encoding": "bytes",
						"label": "bytes",
						"numberOfBytes": "32"
					},
					"t_enum(Status)5": {
						"encoding": "inplace",
						"label": "enum Demo.Status",
						"numberOfBytes": "1"
					},
					"t_mapping(t_address,t_struct(Balance)157_storage)": {
						"encoding": "mapping",
						"key": "t_address",
						"label": "mapping(address => struct Demo.Balance)",
						"numberOfBytes": "32",
						"value": "t_struct(Balance)157_storage"
					},
					"t_mapping(t_uint256,t_struct(Payment)149_storage)": {
						"encoding": "mapping",
						"key": "t_uint256",
						"label": "mapping(uint256 => struct Demo.Payment)",
						"numberOfBytes": "32",
						"value": "t_struct(Payment)149_storage"
					},
					"t_string_storage": {
						"encoding": "bytes",
						"label": "string",
						"numberOfBytes": "32"
					},
					"t_struct(Balance)157_storage": {
						"encoding": "inplace",
						"label": "struct Demo.Balance",
						"members": [
							{
								"astId": 151,
								"contract": "04_lesson_DataTypes/DataTypes.sol:Demo",
								"label": "totalPayments",
								"offset": 0,
								"slot": "0",
								"type": "t_uint256"
							},
							{
								"astId": 156,
								"contract": "04_lesson_DataTypes/DataTypes.sol:Demo",
								"label": "payments",
								"offset": 0,
								"slot": "1",
								"type": "t_mapping(t_uint256,t_struct(Payment)149_storage)"
							}
						],
						"numberOfBytes": "64"
					},
					"t_struct(Payment)149_storage": {
						"encoding": "inplace",
						"label": "struct Demo.Payment",
						"members": [
							{
								"astId": 142,
								"contract": "04_lesson_DataTypes/DataTypes.sol:Demo",
								"label": "amount",
								"offset": 0,
								"slot": "0",
								"type": "t_uint256"
							},
							{
								"astId": 144,
								"contract": "04_lesson_DataTypes/DataTypes.sol:Demo",
								"label": "timestamp",
								"offset": 0,
								"slot": "1",
								"type": "t_uint256"
							},
							{
								"astId": 146,
								"contract": "04_lesson_DataTypes/DataTypes.sol:Demo",
								"label": "from",
								"offset": 0,
								"slot": "2",
								"type": "t_address"
							},
							{
								"astId": 148,
								"contract": "04_lesson_DataTypes/DataTypes.sol:Demo",
								"label": "message",
								"offset": 0,
								"slot": "3",
								"type": "t_string_storage"
							}
						],
						"numberOfBytes": "128"
					},
					"t_uint256": {
						"encoding": "inplace",
						"label": "uint256",
						"numberOfBytes": "32"
					}
				}
			},
			"userdoc": {
				"kind": "user",
				"methods": {},
				"version": 1
			}
		}
	}
}