{
	"04_lesson_DataTypes/DataTypes.sol": {
		"Demo": {
			"abi": [
				{
					"inputs": [
						{
							"internalType": "address",
							"name": "",
							"type": "address"
						}
					],
					"name": "balances",
					"outputs": [
						{
							"internalType": "uint256",
							"name": "totalPayments",
							"type": "uint256"
						}
					],
					"stateMutability": "view",
					"type": "function"
				},
				{
					"inputs": [],
					"name": "currentStatus",
					"outputs": [
						{
							"internalType": "enum Demo.Status",
							"name": "",
							"type": "uint8"
						}
					],
					"stateMutability": "view",
					"type": "function"
				},
				{
					"inputs": [],
					"name": "delivered",
					"outputs": [],
					"stateMutability": "nonpayable",
					"type": "function"
				},
				{
					"inputs": [],
					"name": "getLenBytes",
					"outputs": [
						{
							"internalType": "uint256",
							"name": "",
							"type": "uint256"
						}
					],
					"stateMutability": "view",
					"type": "function"
				},
				{
					"inputs": [
						{
							"internalType": "address",
							"name": "_addr",
							"type": "address"
						},
						{
							"internalType": "uint256",
							"name": "_index",
							"type": "uint256"
						}
					],
					"name": "getPayment",
					"outputs": [
						{
							"components": [
								{
									"internalType": "uint256",
									"name": "amount",
									"type": "uint256"
								},
								{
									"internalType": "uint256",
									"name": "timestamp",
									"type": "uint256"
								},
								{
									"internalType": "address",
									"name": "from",
									"type": "address"
								},
								{
									"internalType": "string",
									"name": "message",
									"type": "string"
								}
							],
							"internalType": "struct Demo.Payment",
							"name": "",
							"type": "tuple"
						}
					],
					"stateMutability": "view",
					"type": "function"
				},
				{
					"inputs": [
						{
							"internalType": "uint256",
							"name": "",
							"type": "uint256"
						}
					],
					"name": "items0",
					"outputs": [
						{
							"internalType": "uint256",
							"name": "",
							"type": "uint256"
						}
					],
					"stateMutability": "view",
					"type": "function"
				},
				{
					"inputs": [
						{
							"internalType": "uint256",
							"name": "",
							"type": "uint256"
						},
						{
							"internalType": "uint256",
							"name": "",
							"type": "uint256"
						}
					],
					"name": "items1",
					"outputs": [
						{
							"internalType": "uint256",
							"name": "",
							"type": "uint256"
						}
					],
					"stateMutability": "view",
					"type": "function"
				},
				{
					"inputs": [
						{
							"internalType": "uint256",
							"name": "",
							"type": "uint256"
						}
					],
					"name": "items2",
					"outputs": [
						{
							"internalType": "uint256",
							"name": "",
							"type": "uint256"
						}
					],
					"stateMutability": "view",
					"type": "function"
				},
				{
					"inputs": [],
					"name": "len",
					"outputs": [
						{
							"internalType": "uint256",
							"name": "",
							"type": "uint256"
						}
					],
					"stateMutability": "view",
					"type": "function"
				},
				{
					"inputs": [],
					"name": "myDynVar",
					"outputs": [
						{
							"internalType": "bytes",
							"name": "",
							"type": "bytes"
						}
					],
					"stateMutability": "view",
					"type": "function"
				},
				{
					"inputs": [],
					"name": "myDynVarUni",
					"outputs": [
						{
							"internalType": "bytes",
							"name": "",
							"type": "bytes"
						}
					],
					"stateMutability": "view",
					"type": "function"
				},
				{
					"inputs": [],
					"name": "myVar",
					"outputs": [
						{
							"internalType": "bytes32",
							"name": "",
							"type": "bytes32"
						}
					],
					"stateMutability": "view",
					"type": "function"
				},
				{
					"inputs": [],
					"name": "pay",
					"outputs": [],
					"stateMutability": "nonpayable",
					"type": "function"
				},
				{
					"inputs": [
						{
							"internalType": "string",
							"name": "message",
							"type": "string"
						}
					],
					"name": "pay",
					"outputs": [],
					"stateMutability": "payable",
					"type": "function"
				},
				{
					"inputs": [
						{
							"internalType": "uint256",
							"name": "element",
							"type": "uint256"
						}
					],
					"name": "pushElement",
					"outputs": [],
					"stateMutability": "nonpayable",
					"type": "function"
				},
				{
					"inputs": [],
					"name": "sampleMemory",
					"outputs": [
						{
							"internalType": "uint256[]",
							"name": "",
							"type": "uint256[]"
						}
					],
					"stateMutability": "view",
					"type": "function"
				},
				{
					"inputs": [],
					"name": "setArray",
					"outputs": [],
					"stateMutability": "nonpayable",
					"type": "function"
				},
				{
					"inputs": [],
					"name": "setPartArray",
					"outputs": [],
					"stateMutability": "nonpayable",
					"type": "function"
				}
			],
			"devdoc": {
				"kind": "dev",
				"methods": {},
				"version": 1
			},
			"evm": {
				"assembly": "    /* \"04_lesson_DataTypes/DataTypes.sol\":57:2070  contract Demo {... */\n  mstore(0x40, 0x80)\n    /* \"04_lesson_DataTypes/DataTypes.sol\":1012:1041  bytes32 public myVar = \"test\" */\n  sstore(0x13, 0x7465737400000000000000000000000000000000000000000000000000000000)\n    /* \"04_lesson_DataTypes/DataTypes.sol\":1073:1103  bytes public myDynVar = \"test\" */\n  mload(0x40)\n  dup1\n  0x40\n  add\n  0x40\n  mstore\n  dup1\n  0x04\n  dup2\n  mstore\n  0x20\n  add\n  0x7465737400000000000000000000000000000000000000000000000000000000\n  dup2\n  mstore\n  pop\n  0x14\n  swap1\n  dup1\n  mload\n  swap1\n  0x20\n  add\n  swap1\n  tag_1\n  swap3\n  swap2\n  swap1\n  tag_2\n  jump\t// in\ntag_1:\n  pop\n    /* \"04_lesson_DataTypes/DataTypes.sol\":1109:1153  bytes public myDynVarUni = unicode\"тест\" */\n  mload(0x40)\n  dup1\n  0x40\n  add\n  0x40\n  mstore\n  dup1\n  0x08\n  dup2\n  mstore\n  0x20\n  add\n  0xd182d0b5d181d182000000000000000000000000000000000000000000000000\n  dup2\n  mstore\n  pop\n  0x15\n  swap1\n  dup1\n  mload\n  swap1\n  0x20\n  add\n  swap1\n  tag_3\n  swap3\n  swap2\n  swap1\n  tag_2\n  jump\t// in\ntag_3:\n  pop\n    /* \"04_lesson_DataTypes/DataTypes.sol\":57:2070  contract Demo {... */\n  callvalue\n  dup1\n  iszero\n  tag_4\n  jumpi\n  0x00\n  dup1\n  revert\ntag_4:\n  pop\n  jump(tag_5)\ntag_2:\n  dup3\n  dup1\n  sload\n  tag_6\n  swap1\n  tag_7\n  jump\t// in\ntag_6:\n  swap1\n  0x00\n  mstore\n  keccak256(0x00, 0x20)\n  swap1\n  0x1f\n  add\n  0x20\n  swap1\n  div\n  dup2\n  add\n  swap3\n  dup3\n  tag_9\n  jumpi\n  0x00\n  dup6\n  sstore\n  jump(tag_8)\ntag_9:\n  dup3\n  0x1f\n  lt\n  tag_10\n  jumpi\n  dup1\n  mload\n  not(0xff)\n  and\n  dup4\n  dup1\n  add\n  or\n  dup6\n  sstore\n  jump(tag_8)\ntag_10:\n  dup3\n  dup1\n  add\n  0x01\n  add\n  dup6\n  sstore\n  dup3\n  iszero\n  tag_8\n  jumpi\n  swap2\n  dup3\n  add\ntag_11:\n  dup3\n  dup2\n  gt\n  iszero\n  tag_12\n  jumpi\n  dup3\n  mload\n  dup3\n  sstore\n  swap2\n  0x20\n  add\n  swap2\n  swap1\n  0x01\n  add\n  swap1\n  jump(tag_11)\ntag_12:\ntag_8:\n  pop\n  swap1\n  pop\n  tag_13\n  swap2\n  swap1\n  tag_14\n  jump\t// in\ntag_13:\n  pop\n  swap1\n  jump\t// out\ntag_14:\ntag_15:\n  dup1\n  dup3\n  gt\n  iszero\n  tag_16\n  jumpi\n  0x00\n  dup2\n  0x00\n  swap1\n  sstore\n  pop\n  0x01\n  add\n  jump(tag_15)\ntag_16:\n  pop\n  swap1\n  jump\t// out\n    /* \"#utility.yul\":7:187   */\ntag_17:\n    /* \"#utility.yul\":55:132   */\n  0x4e487b7100000000000000000000000000000000000000000000000000000000\n    /* \"#utility.yul\":52:53   */\n  0x00\n    /* \"#utility.yul\":45:133   */\n  mstore\n    /* \"#utility.yul\":152:156   */\n  0x22\n    /* \"#utility.yul\":149:150   */\n  0x04\n    /* \"#utility.yul\":142:157   */\n  mstore\n    /* \"#utility.yul\":176:180   */\n  0x24\n    /* \"#utility.yul\":173:174   */\n  0x00\n    /* \"#utility.yul\":166:181   */\n  revert\n    /* \"#utility.yul\":193:513   */\ntag_7:\n    /* \"#utility.yul\":237:243   */\n  0x00\n    /* \"#utility.yul\":274:275   */\n  0x02\n    /* \"#utility.yul\":268:272   */\n  dup3\n    /* \"#utility.yul\":264:276   */\n  div\n    /* \"#utility.yul\":254:276   */\n  swap1\n  pop\n    /* \"#utility.yul\":321:322   */\n  0x01\n    /* \"#utility.yul\":315:319   */\n  dup3\n    /* \"#utility.yul\":311:323   */\n  and\n    /* \"#utility.yul\":342:360   */\n  dup1\n    /* \"#utility.yul\":332:413   */\n  tag_21\n  jumpi\n    /* \"#utility.yul\":398:402   */\n  0x7f\n    /* \"#utility.yul\":390:396   */\n  dup3\n    /* \"#utility.yul\":386:403   */\n  and\n    /* \"#utility.yul\":376:403   */\n  swap2\n  pop\n    /* \"#utility.yul\":332:413   */\ntag_21:\n    /* \"#utility.yul\":460:462   */\n  0x20\n    /* \"#utility.yul\":452:458   */\n  dup3\n    /* \"#utility.yul\":449:463   */\n  lt\n    /* \"#utility.yul\":429:447   */\n  dup2\n    /* \"#utility.yul\":426:464   */\n  sub\n    /* \"#utility.yul\":423:507   */\n  tag_22\n  jumpi\n    /* \"#utility.yul\":479:497   */\n  tag_23\n  tag_17\n  jump\t// in\ntag_23:\n    /* \"#utility.yul\":423:507   */\ntag_22:\n    /* \"#utility.yul\":244:513   */\n  pop\n    /* \"#utility.yul\":193:513   */\n  swap2\n  swap1\n  pop\n  jump\t// out\n    /* \"04_lesson_DataTypes/DataTypes.sol\":57:2070  contract Demo {... */\ntag_5:\n  dataSize(sub_0)\n  dup1\n  dataOffset(sub_0)\n  0x00\n  codecopy\n  0x00\n  return\nstop\n\nsub_0: assembly {\n        /* \"04_lesson_DataTypes/DataTypes.sol\":57:2070  contract Demo {... */\n      mstore(0x40, 0x80)\n      jumpi(tag_1, lt(calldatasize, 0x04))\n      shr(0xe0, calldataload(0x00))\n      dup1\n      0x56d88e27\n      gt\n      tag_20\n      jumpi\n      dup1\n      0xbbdfbfba\n      gt\n      tag_21\n      jumpi\n      dup1\n      0xbbdfbfba\n      eq\n      tag_15\n      jumpi\n      dup1\n      0xc1a42d19\n      eq\n      tag_16\n      jumpi\n      dup1\n      0xc6b91540\n      eq\n      tag_17\n      jumpi\n      dup1\n      0xef8a9235\n      eq\n      tag_18\n      jumpi\n      dup1\n      0xffb1e210\n      eq\n      tag_19\n      jumpi\n      jump(tag_1)\n    tag_21:\n      dup1\n      0x56d88e27\n      eq\n      tag_11\n      jumpi\n      dup1\n      0x78321efb\n      eq\n      tag_12\n      jumpi\n      dup1\n      0x977a767c\n      eq\n      tag_13\n      jumpi\n      dup1\n      0xa34343c9\n      eq\n      tag_14\n      jumpi\n      jump(tag_1)\n    tag_20:\n      dup1\n      0x27e235e3\n      gt\n      tag_22\n      jumpi\n      dup1\n      0x27e235e3\n      eq\n      tag_6\n      jumpi\n      dup1\n      0x2b66d72e\n      eq\n      tag_7\n      jumpi\n      dup1\n      0x503f8cab\n      eq\n      tag_8\n      jumpi\n      dup1\n      0x526aa79a\n      eq\n      tag_9\n      jumpi\n      dup1\n      0x5464fb90\n      eq\n      tag_10\n      jumpi\n      jump(tag_1)\n    tag_22:\n      dup1\n      0x14d0c51e\n      eq\n      tag_2\n      jumpi\n      dup1\n      0x1b9265b8\n      eq\n      tag_3\n      jumpi\n      dup1\n      0x1f0393a3\n      eq\n      tag_4\n      jumpi\n      dup1\n      0x2724898b\n      eq\n      tag_5\n      jumpi\n    tag_1:\n      0x00\n      dup1\n      revert\n        /* \"04_lesson_DataTypes/DataTypes.sol\":1109:1153  bytes public myDynVarUni = unicode\"тест\" */\n    tag_2:\n      callvalue\n      dup1\n      iszero\n      tag_23\n      jumpi\n      0x00\n      dup1\n      revert\n    tag_23:\n      pop\n      tag_24\n      tag_25\n      jump\t// in\n    tag_24:\n      mload(0x40)\n      tag_26\n      swap2\n      swap1\n      tag_27\n      jump\t// in\n    tag_26:\n      mload(0x40)\n      dup1\n      swap2\n      sub\n      swap1\n      return\n        /* \"04_lesson_DataTypes/DataTypes.sol\":171:237  function pay() public {... */\n    tag_3:\n      callvalue\n      dup1\n      iszero\n      tag_28\n      jumpi\n      0x00\n      dup1\n      revert\n    tag_28:\n      pop\n      tag_29\n      tag_30\n      jump\t// in\n    tag_29:\n      stop\n        /* \"04_lesson_DataTypes/DataTypes.sol\":489:513  uint[3][2] public items1 */\n    tag_4:\n      callvalue\n      dup1\n      iszero\n      tag_31\n      jumpi\n      0x00\n      dup1\n      revert\n    tag_31:\n      pop\n      tag_32\n      0x04\n      dup1\n      calldatasize\n      sub\n      dup2\n      add\n      swap1\n      tag_33\n      swap2\n      swap1\n      tag_34\n      jump\t// in\n    tag_33:\n      tag_35\n      jump\t// in\n    tag_32:\n      mload(0x40)\n      tag_36\n      swap2\n      swap1\n      tag_37\n      jump\t// in\n    tag_36:\n      mload(0x40)\n      dup1\n      swap2\n      sub\n      swap1\n      return\n        /* \"04_lesson_DataTypes/DataTypes.sol\":520:629  function setArray() public {... */\n    tag_5:\n      callvalue\n      dup1\n      iszero\n      tag_38\n      jumpi\n      0x00\n      dup1\n      revert\n    tag_38:\n      pop\n      tag_39\n      tag_40\n      jump\t// in\n    tag_39:\n      stop\n        /* \"04_lesson_DataTypes/DataTypes.sol\":1495:1538  mapping(address => Balance) public balances */\n    tag_6:\n      callvalue\n      dup1\n      iszero\n      tag_41\n      jumpi\n      0x00\n      dup1\n      revert\n    tag_41:\n      pop\n      tag_42\n      0x04\n      dup1\n      calldatasize\n      sub\n      dup2\n      add\n      swap1\n      tag_43\n      swap2\n      swap1\n      tag_44\n      jump\t// in\n    tag_43:\n      tag_45\n      jump\t// in\n    tag_42:\n      mload(0x40)\n      tag_46\n      swap2\n      swap1\n      tag_37\n      jump\t// in\n    tag_46:\n      mload(0x40)\n      dup1\n      swap2\n      sub\n      swap1\n      return\n        /* \"04_lesson_DataTypes/DataTypes.sol\":1545:1929  function pay(string memory message) public payable {... */\n    tag_7:\n      tag_47\n      0x04\n      dup1\n      calldatasize\n      sub\n      dup2\n      add\n      swap1\n      tag_48\n      swap2\n      swap1\n      tag_49\n      jump\t// in\n    tag_48:\n      tag_50\n      jump\t// in\n    tag_47:\n      stop\n        /* \"04_lesson_DataTypes/DataTypes.sol\":635:655  uint[] public items2 */\n    tag_8:\n      callvalue\n      dup1\n      iszero\n      tag_51\n      jumpi\n      0x00\n      dup1\n      revert\n    tag_51:\n      pop\n      tag_52\n      0x04\n      dup1\n      calldatasize\n      sub\n      dup2\n      add\n      swap1\n      tag_53\n      swap2\n      swap1\n      tag_54\n      jump\t// in\n    tag_53:\n      tag_55\n      jump\t// in\n    tag_52:\n      mload(0x40)\n      tag_56\n      swap2\n      swap1\n      tag_37\n      jump\t// in\n    tag_56:\n      mload(0x40)\n      dup1\n      swap2\n      sub\n      swap1\n      return\n        /* \"04_lesson_DataTypes/DataTypes.sol\":1160:1251  function getLenBytes() public view returns(uint) {... */\n    tag_9:\n      callvalue\n      dup1\n      iszero\n      tag_57\n      jumpi\n      0x00\n      dup1\n      revert\n    tag_57:\n      pop\n      tag_58\n      tag_59\n      jump\t// in\n    tag_58:\n      mload(0x40)\n      tag_60\n      swap2\n      swap1\n      tag_37\n      jump\t// in\n    tag_60:\n      mload(0x40)\n      dup1\n      swap2\n      sub\n      swap1\n      return\n        /* \"04_lesson_DataTypes/DataTypes.sol\":370:483  function setPartArray() public {... */\n    tag_10:\n      callvalue\n      dup1\n      iszero\n      tag_61\n      jumpi\n      0x00\n      dup1\n      revert\n    tag_61:\n      pop\n      tag_62\n      tag_63\n      jump\t// in\n    tag_62:\n      stop\n        /* \"04_lesson_DataTypes/DataTypes.sol\":661:676  uint public len */\n    tag_11:\n      callvalue\n      dup1\n      iszero\n      tag_64\n      jumpi\n      0x00\n      dup1\n      revert\n    tag_64:\n      pop\n      tag_65\n      tag_66\n      jump\t// in\n    tag_65:\n      mload(0x40)\n      tag_67\n      swap2\n      swap1\n      tag_37\n      jump\t// in\n    tag_67:\n      mload(0x40)\n      dup1\n      swap2\n      sub\n      swap1\n      return\n        /* \"04_lesson_DataTypes/DataTypes.sol\":683:791  function pushElement(uint element) public {... */\n    tag_12:\n      callvalue\n      dup1\n      iszero\n      tag_68\n      jumpi\n      0x00\n      dup1\n      revert\n    tag_68:\n      pop\n      tag_69\n      0x04\n      dup1\n      calldatasize\n      sub\n      dup2\n      add\n      swap1\n      tag_70\n      swap2\n      swap1\n      tag_54\n      jump\t// in\n    tag_70:\n      tag_71\n      jump\t// in\n    tag_69:\n      stop\n        /* \"04_lesson_DataTypes/DataTypes.sol\":1935:2068  function getPayment(address _addr, uint _index) public view returns(Payment memory){... */\n    tag_13:\n      callvalue\n      dup1\n      iszero\n      tag_72\n      jumpi\n      0x00\n      dup1\n      revert\n    tag_72:\n      pop\n      tag_73\n      0x04\n      dup1\n      calldatasize\n      sub\n      dup2\n      add\n      swap1\n      tag_74\n      swap2\n      swap1\n      tag_75\n      jump\t// in\n    tag_74:\n      tag_76\n      jump\t// in\n    tag_73:\n      mload(0x40)\n      tag_77\n      swap2\n      swap1\n      tag_78\n      jump\t// in\n    tag_77:\n      mload(0x40)\n      dup1\n      swap2\n      sub\n      swap1\n      return\n        /* \"04_lesson_DataTypes/DataTypes.sol\":824:991  function sampleMemory() public view returns(uint[] memory){... */\n    tag_14:\n      callvalue\n      dup1\n      iszero\n      tag_79\n      jumpi\n      0x00\n      dup1\n      revert\n    tag_79:\n      pop\n      tag_80\n      tag_81\n      jump\t// in\n    tag_80:\n      mload(0x40)\n      tag_82\n      swap2\n      swap1\n      tag_83\n      jump\t// in\n    tag_82:\n      mload(0x40)\n      dup1\n      swap2\n      sub\n      swap1\n      return\n        /* \"04_lesson_DataTypes/DataTypes.sol\":243:320  function delivered() public {... */\n    tag_15:\n      callvalue\n      dup1\n      iszero\n      tag_84\n      jumpi\n      0x00\n      dup1\n      revert\n    tag_84:\n      pop\n      tag_85\n      tag_86\n      jump\t// in\n    tag_85:\n      stop\n        /* \"04_lesson_DataTypes/DataTypes.sol\":341:363  uint[10] public items0 */\n    tag_16:\n      callvalue\n      dup1\n      iszero\n      tag_87\n      jumpi\n      0x00\n      dup1\n      revert\n    tag_87:\n      pop\n      tag_88\n      0x04\n      dup1\n      calldatasize\n      sub\n      dup2\n      add\n      swap1\n      tag_89\n      swap2\n      swap1\n      tag_54\n      jump\t// in\n    tag_89:\n      tag_90\n      jump\t// in\n    tag_88:\n      mload(0x40)\n      tag_91\n      swap2\n      swap1\n      tag_37\n      jump\t// in\n    tag_91:\n      mload(0x40)\n      dup1\n      swap2\n      sub\n      swap1\n      return\n        /* \"04_lesson_DataTypes/DataTypes.sol\":1012:1041  bytes32 public myVar = \"test\" */\n    tag_17:\n      callvalue\n      dup1\n      iszero\n      tag_92\n      jumpi\n      0x00\n      dup1\n      revert\n    tag_92:\n      pop\n      tag_93\n      tag_94\n      jump\t// in\n    tag_93:\n      mload(0x40)\n      tag_95\n      swap2\n      swap1\n      tag_96\n      jump\t// in\n    tag_95:\n      mload(0x40)\n      dup1\n      swap2\n      sub\n      swap1\n      return\n        /* \"04_lesson_DataTypes/DataTypes.sol\":137:164  Status public currentStatus */\n    tag_18:\n      callvalue\n      dup1\n      iszero\n      tag_97\n      jumpi\n      0x00\n      dup1\n      revert\n    tag_97:\n      pop\n      tag_98\n      tag_99\n      jump\t// in\n    tag_98:\n      mload(0x40)\n      tag_100\n      swap2\n      swap1\n      tag_101\n      jump\t// in\n    tag_100:\n      mload(0x40)\n      dup1\n      swap2\n      sub\n      swap1\n      return\n        /* \"04_lesson_DataTypes/DataTypes.sol\":1073:1103  bytes public myDynVar = \"test\" */\n    tag_19:\n      callvalue\n      dup1\n      iszero\n      tag_102\n      jumpi\n      0x00\n      dup1\n      revert\n    tag_102:\n      pop\n      tag_103\n      tag_104\n      jump\t// in\n    tag_103:\n      mload(0x40)\n      tag_105\n      swap2\n      swap1\n      tag_27\n      jump\t// in\n    tag_105:\n      mload(0x40)\n      dup1\n      swap2\n      sub\n      swap1\n      return\n        /* \"04_lesson_DataTypes/DataTypes.sol\":1109:1153  bytes public myDynVarUni = unicode\"тест\" */\n    tag_25:\n      0x15\n      dup1\n      sload\n      tag_106\n      swap1\n      tag_107\n      jump\t// in\n    tag_106:\n      dup1\n      0x1f\n      add\n      0x20\n      dup1\n      swap2\n      div\n      mul\n      0x20\n      add\n      mload(0x40)\n      swap1\n      dup2\n      add\n      0x40\n      mstore\n      dup1\n      swap3\n      swap2\n      swap1\n      dup2\n      dup2\n      mstore\n      0x20\n      add\n      dup3\n      dup1\n      sload\n      tag_108\n      swap1\n      tag_107\n      jump\t// in\n    tag_108:\n      dup1\n      iszero\n      tag_109\n      jumpi\n      dup1\n      0x1f\n      lt\n      tag_110\n      jumpi\n      0x0100\n      dup1\n      dup4\n      sload\n      div\n      mul\n      dup4\n      mstore\n      swap2\n      0x20\n      add\n      swap2\n      jump(tag_109)\n    tag_110:\n      dup3\n      add\n      swap2\n      swap1\n      0x00\n      mstore\n      keccak256(0x00, 0x20)\n      swap1\n    tag_111:\n      dup2\n      sload\n      dup2\n      mstore\n      swap1\n      0x01\n      add\n      swap1\n      0x20\n      add\n      dup1\n      dup4\n      gt\n      tag_111\n      jumpi\n      dup3\n      swap1\n      sub\n      0x1f\n      and\n      dup3\n      add\n      swap2\n    tag_109:\n      pop\n      pop\n      pop\n      pop\n      pop\n      dup2\n      jump\t// out\n        /* \"04_lesson_DataTypes/DataTypes.sol\":171:237  function pay() public {... */\n    tag_30:\n        /* \"04_lesson_DataTypes/DataTypes.sol\":219:230  Status.Paid */\n      0x00\n        /* \"04_lesson_DataTypes/DataTypes.sol\":203:216  currentStatus */\n      dup1\n      0x00\n        /* \"04_lesson_DataTypes/DataTypes.sol\":203:230  currentStatus = Status.Paid */\n      0x0100\n      exp\n      dup2\n      sload\n      dup2\n      0xff\n      mul\n      not\n      and\n      swap1\n      dup4\n      0x02\n      dup2\n      gt\n      iszero\n      tag_113\n      jumpi\n      tag_114\n      tag_115\n      jump\t// in\n    tag_114:\n    tag_113:\n      mul\n      or\n      swap1\n      sstore\n      pop\n        /* \"04_lesson_DataTypes/DataTypes.sol\":171:237  function pay() public {... */\n      jump\t// out\n        /* \"04_lesson_DataTypes/DataTypes.sol\":489:513  uint[3][2] public items1 */\n    tag_35:\n      0x0b\n      dup3\n      0x02\n      dup2\n      lt\n      tag_116\n      jumpi\n      0x00\n      dup1\n      revert\n    tag_116:\n      0x03\n      mul\n      add\n      dup2\n      0x03\n      dup2\n      lt\n      tag_118\n      jumpi\n      0x00\n      dup1\n      revert\n    tag_118:\n      add\n      0x00\n      swap2\n      pop\n      swap2\n      pop\n      pop\n      sload\n      dup2\n      jump\t// out\n        /* \"04_lesson_DataTypes/DataTypes.sol\":520:629  function setArray() public {... */\n    tag_40:\n        /* \"04_lesson_DataTypes/DataTypes.sol\":557:622  items1 = [... */\n      mload(0x40)\n      dup1\n      0x40\n      add\n      0x40\n      mstore\n      dup1\n      mload(0x40)\n      dup1\n      0x60\n      add\n      0x40\n      mstore\n      dup1\n        /* \"04_lesson_DataTypes/DataTypes.sol\":581:582  3 */\n      0x03\n        /* \"04_lesson_DataTypes/DataTypes.sol\":557:622  items1 = [... */\n      0xff\n      and\n      dup2\n      mstore\n      0x20\n      add\n        /* \"04_lesson_DataTypes/DataTypes.sol\":584:585  4 */\n      0x04\n        /* \"04_lesson_DataTypes/DataTypes.sol\":557:622  items1 = [... */\n      0xff\n      and\n      dup2\n      mstore\n      0x20\n      add\n        /* \"04_lesson_DataTypes/DataTypes.sol\":587:588  5 */\n      0x05\n        /* \"04_lesson_DataTypes/DataTypes.sol\":557:622  items1 = [... */\n      0xff\n      and\n      dup2\n      mstore\n      pop\n      dup2\n      mstore\n      0x20\n      add\n      mload(0x40)\n      dup1\n      0x60\n      add\n      0x40\n      mstore\n      dup1\n        /* \"04_lesson_DataTypes/DataTypes.sol\":604:605  6 */\n      0x06\n        /* \"04_lesson_DataTypes/DataTypes.sol\":557:622  items1 = [... */\n      0xff\n      and\n      dup2\n      mstore\n      0x20\n      add\n        /* \"04_lesson_DataTypes/DataTypes.sol\":607:608  7 */\n      0x07\n        /* \"04_lesson_DataTypes/DataTypes.sol\":557:622  items1 = [... */\n      0xff\n      and\n      dup2\n      mstore\n      0x20\n      add\n        /* \"04_lesson_DataTypes/DataTypes.sol\":610:611  8 */\n      0x08\n        /* \"04_lesson_DataTypes/DataTypes.sol\":557:622  items1 = [... */\n      0xff\n      and\n      dup2\n      mstore\n      pop\n      dup2\n      mstore\n      pop\n        /* \"04_lesson_DataTypes/DataTypes.sol\":557:563  items1 */\n      0x0b\n        /* \"04_lesson_DataTypes/DataTypes.sol\":557:622  items1 = [... */\n      swap1\n      0x02\n      tag_121\n      swap3\n      swap2\n      swap1\n      tag_122\n      jump\t// in\n    tag_121:\n      pop\n        /* \"04_lesson_DataTypes/DataTypes.sol\":520:629  function setArray() public {... */\n      jump\t// out\n        /* \"04_lesson_DataTypes/DataTypes.sol\":1495:1538  mapping(address => Balance) public balances */\n    tag_45:\n      mstore(0x20, 0x16)\n      dup1\n      0x00\n      mstore\n      keccak256(0x00, 0x40)\n      0x00\n      swap2\n      pop\n      swap1\n      pop\n      dup1\n      0x00\n      add\n      sload\n      swap1\n      pop\n      dup2\n      jump\t// out\n        /* \"04_lesson_DataTypes/DataTypes.sol\":1545:1929  function pay(string memory message) public payable {... */\n    tag_50:\n        /* \"04_lesson_DataTypes/DataTypes.sol\":1606:1621  uint paymentNum */\n      0x00\n        /* \"04_lesson_DataTypes/DataTypes.sol\":1624:1632  balances */\n      0x16\n        /* \"04_lesson_DataTypes/DataTypes.sol\":1624:1644  balances[msg.sender] */\n      0x00\n        /* \"04_lesson_DataTypes/DataTypes.sol\":1633:1643  msg.sender */\n      caller\n        /* \"04_lesson_DataTypes/DataTypes.sol\":1624:1644  balances[msg.sender] */\n      0xffffffffffffffffffffffffffffffffffffffff\n      and\n      0xffffffffffffffffffffffffffffffffffffffff\n      and\n      dup2\n      mstore\n      0x20\n      add\n      swap1\n      dup2\n      mstore\n      0x20\n      add\n      0x00\n      keccak256\n        /* \"04_lesson_DataTypes/DataTypes.sol\":1624:1658  balances[msg.sender].totalPayments */\n      0x00\n      add\n      sload\n        /* \"04_lesson_DataTypes/DataTypes.sol\":1606:1658  uint paymentNum = balances[msg.sender].totalPayments */\n      swap1\n      pop\n        /* \"04_lesson_DataTypes/DataTypes.sol\":1668:1676  balances */\n      0x16\n        /* \"04_lesson_DataTypes/DataTypes.sol\":1668:1688  balances[msg.sender] */\n      0x00\n        /* \"04_lesson_DataTypes/DataTypes.sol\":1677:1687  msg.sender */\n      caller\n        /* \"04_lesson_DataTypes/DataTypes.sol\":1668:1688  balances[msg.sender] */\n      0xffffffffffffffffffffffffffffffffffffffff\n      and\n      0xffffffffffffffffffffffffffffffffffffffff\n      and\n      dup2\n      mstore\n      0x20\n      add\n      swap1\n      dup2\n      mstore\n      0x20\n      add\n      0x00\n      keccak256\n        /* \"04_lesson_DataTypes/DataTypes.sol\":1668:1702  balances[msg.sender].totalPayments */\n      0x00\n      add\n      0x00\n        /* \"04_lesson_DataTypes/DataTypes.sol\":1668:1704  balances[msg.sender].totalPayments++ */\n      dup2\n      sload\n      dup1\n      swap3\n      swap2\n      swap1\n      tag_124\n      swap1\n      tag_125\n      jump\t// in\n    tag_124:\n      swap2\n      swap1\n      pop\n      sstore\n      pop\n        /* \"04_lesson_DataTypes/DataTypes.sol\":1715:1740  Payment memory newPayment */\n      0x00\n        /* \"04_lesson_DataTypes/DataTypes.sol\":1743:1857  Payment(... */\n      mload(0x40)\n      dup1\n      0x80\n      add\n      0x40\n      mstore\n      dup1\n        /* \"04_lesson_DataTypes/DataTypes.sol\":1764:1773  msg.value */\n      callvalue\n        /* \"04_lesson_DataTypes/DataTypes.sol\":1743:1857  Payment(... */\n      dup2\n      mstore\n      0x20\n      add\n        /* \"04_lesson_DataTypes/DataTypes.sol\":1787:1802  block.timestamp */\n      timestamp\n        /* \"04_lesson_DataTypes/DataTypes.sol\":1743:1857  Payment(... */\n      dup2\n      mstore\n      0x20\n      add\n        /* \"04_lesson_DataTypes/DataTypes.sol\":1816:1826  msg.sender */\n      caller\n        /* \"04_lesson_DataTypes/DataTypes.sol\":1743:1857  Payment(... */\n      0xffffffffffffffffffffffffffffffffffffffff\n      and\n      dup2\n      mstore\n      0x20\n      add\n        /* \"04_lesson_DataTypes/DataTypes.sol\":1840:1847  message */\n      dup5\n        /* \"04_lesson_DataTypes/DataTypes.sol\":1743:1857  Payment(... */\n      dup2\n      mstore\n      pop\n        /* \"04_lesson_DataTypes/DataTypes.sol\":1715:1857  Payment memory newPayment = Payment(... */\n      swap1\n      pop\n        /* \"04_lesson_DataTypes/DataTypes.sol\":1912:1922  newPayment */\n      dup1\n        /* \"04_lesson_DataTypes/DataTypes.sol\":1868:1876  balances */\n      0x16\n        /* \"04_lesson_DataTypes/DataTypes.sol\":1868:1888  balances[msg.sender] */\n      0x00\n        /* \"04_lesson_DataTypes/DataTypes.sol\":1877:1887  msg.sender */\n      caller\n        /* \"04_lesson_DataTypes/DataTypes.sol\":1868:1888  balances[msg.sender] */\n      0xffffffffffffffffffffffffffffffffffffffff\n      and\n      0xffffffffffffffffffffffffffffffffffffffff\n      and\n      dup2\n      mstore\n      0x20\n      add\n      swap1\n      dup2\n      mstore\n      0x20\n      add\n      0x00\n      keccak256\n        /* \"04_lesson_DataTypes/DataTypes.sol\":1868:1897  balances[msg.sender].payments */\n      0x01\n      add\n        /* \"04_lesson_DataTypes/DataTypes.sol\":1868:1909  balances[msg.sender].payments[paymentNum] */\n      0x00\n        /* \"04_lesson_DataTypes/DataTypes.sol\":1898:1908  paymentNum */\n      dup5\n        /* \"04_lesson_DataTypes/DataTypes.sol\":1868:1909  balances[msg.sender].payments[paymentNum] */\n      dup2\n      mstore\n      0x20\n      add\n      swap1\n      dup2\n      mstore\n      0x20\n      add\n      0x00\n      keccak256\n        /* \"04_lesson_DataTypes/DataTypes.sol\":1868:1922  balances[msg.sender].payments[paymentNum] = newPayment */\n      0x00\n      dup3\n      add\n      mload\n      dup2\n      0x00\n      add\n      sstore\n      0x20\n      dup3\n      add\n      mload\n      dup2\n      0x01\n      add\n      sstore\n      0x40\n      dup3\n      add\n      mload\n      dup2\n      0x02\n      add\n      exp(0x0100, 0x00)\n      dup2\n      sload\n      dup2\n      0xffffffffffffffffffffffffffffffffffffffff\n      mul\n      not\n      and\n      swap1\n      dup4\n      0xffffffffffffffffffffffffffffffffffffffff\n      and\n      mul\n      or\n      swap1\n      sstore\n      pop\n      0x60\n      dup3\n      add\n      mload\n      dup2\n      0x03\n      add\n      swap1\n      dup1\n      mload\n      swap1\n      0x20\n      add\n      swap1\n      tag_126\n      swap3\n      swap2\n      swap1\n      tag_127\n      jump\t// in\n    tag_126:\n      pop\n      swap1\n      pop\n      pop\n        /* \"04_lesson_DataTypes/DataTypes.sol\":1596:1929  {... */\n      pop\n      pop\n        /* \"04_lesson_DataTypes/DataTypes.sol\":1545:1929  function pay(string memory message) public payable {... */\n      pop\n      jump\t// out\n        /* \"04_lesson_DataTypes/DataTypes.sol\":635:655  uint[] public items2 */\n    tag_55:\n      0x11\n      dup2\n      dup2\n      sload\n      dup2\n      lt\n      tag_128\n      jumpi\n      0x00\n      dup1\n      revert\n    tag_128:\n      swap1\n      0x00\n      mstore\n      keccak256(0x00, 0x20)\n      add\n      0x00\n      swap2\n      pop\n      swap1\n      pop\n      sload\n      dup2\n      jump\t// out\n        /* \"04_lesson_DataTypes/DataTypes.sol\":1160:1251  function getLenBytes() public view returns(uint) {... */\n    tag_59:\n        /* \"04_lesson_DataTypes/DataTypes.sol\":1203:1207  uint */\n      0x00\n        /* \"04_lesson_DataTypes/DataTypes.sol\":1226:1237  myDynVarUni */\n      0x15\n        /* \"04_lesson_DataTypes/DataTypes.sol\":1226:1244  myDynVarUni.length */\n      dup1\n      sload\n      tag_131\n      swap1\n      tag_107\n      jump\t// in\n    tag_131:\n      swap1\n      pop\n        /* \"04_lesson_DataTypes/DataTypes.sol\":1219:1244  return myDynVarUni.length */\n      swap1\n      pop\n        /* \"04_lesson_DataTypes/DataTypes.sol\":1160:1251  function getLenBytes() public view returns(uint) {... */\n      swap1\n      jump\t// out\n        /* \"04_lesson_DataTypes/DataTypes.sol\":370:483  function setPartArray() public {... */\n    tag_63:\n        /* \"04_lesson_DataTypes/DataTypes.sol\":423:426  100 */\n      0x64\n        /* \"04_lesson_DataTypes/DataTypes.sol\":411:417  items0 */\n      0x01\n        /* \"04_lesson_DataTypes/DataTypes.sol\":418:419  0 */\n      0x00\n        /* \"04_lesson_DataTypes/DataTypes.sol\":411:420  items0[0] */\n      0x0a\n      dup2\n      lt\n      tag_133\n      jumpi\n      tag_134\n      tag_135\n      jump\t// in\n    tag_134:\n    tag_133:\n      add\n        /* \"04_lesson_DataTypes/DataTypes.sol\":411:426  items0[0] = 100 */\n      dup2\n      swap1\n      sstore\n      pop\n        /* \"04_lesson_DataTypes/DataTypes.sol\":448:451  200 */\n      0xc8\n        /* \"04_lesson_DataTypes/DataTypes.sol\":436:442  items0 */\n      0x01\n        /* \"04_lesson_DataTypes/DataTypes.sol\":443:444  1 */\n      dup1\n        /* \"04_lesson_DataTypes/DataTypes.sol\":436:445  items0[1] */\n      0x0a\n      dup2\n      lt\n      tag_137\n      jumpi\n      tag_138\n      tag_135\n      jump\t// in\n    tag_138:\n    tag_137:\n      add\n        /* \"04_lesson_DataTypes/DataTypes.sol\":436:451  items0[1] = 200 */\n      dup2\n      swap1\n      sstore\n      pop\n        /* \"04_lesson_DataTypes/DataTypes.sol\":473:476  300 */\n      0x012c\n        /* \"04_lesson_DataTypes/DataTypes.sol\":461:467  items0 */\n      0x01\n        /* \"04_lesson_DataTypes/DataTypes.sol\":468:469  2 */\n      0x02\n        /* \"04_lesson_DataTypes/DataTypes.sol\":461:470  items0[2] */\n      0x0a\n      dup2\n      lt\n      tag_140\n      jumpi\n      tag_141\n      tag_135\n      jump\t// in\n    tag_141:\n    tag_140:\n      add\n        /* \"04_lesson_DataTypes/DataTypes.sol\":461:476  items0[2] = 300 */\n      dup2\n      swap1\n      sstore\n      pop\n        /* \"04_lesson_DataTypes/DataTypes.sol\":370:483  function setPartArray() public {... */\n      jump\t// out\n        /* \"04_lesson_DataTypes/DataTypes.sol\":661:676  uint public len */\n    tag_66:\n      sload(0x12)\n      dup2\n      jump\t// out\n        /* \"04_lesson_DataTypes/DataTypes.sol\":683:791  function pushElement(uint element) public {... */\n    tag_71:\n        /* \"04_lesson_DataTypes/DataTypes.sol\":735:741  items2 */\n      0x11\n        /* \"04_lesson_DataTypes/DataTypes.sol\":747:754  element */\n      dup2\n        /* \"04_lesson_DataTypes/DataTypes.sol\":735:755  items2.push(element) */\n      swap1\n      dup1\n      0x01\n      dup2\n      sload\n      add\n      dup1\n      dup3\n      sstore\n      dup1\n      swap2\n      pop\n      pop\n      0x01\n      swap1\n      sub\n      swap1\n      0x00\n      mstore\n      keccak256(0x00, 0x20)\n      add\n      0x00\n      swap1\n      swap2\n      swap1\n      swap2\n      swap1\n      swap2\n      pop\n      sstore\n        /* \"04_lesson_DataTypes/DataTypes.sol\":771:777  items2 */\n      0x11\n        /* \"04_lesson_DataTypes/DataTypes.sol\":771:784  items2.length */\n      dup1\n      sload\n      swap1\n      pop\n        /* \"04_lesson_DataTypes/DataTypes.sol\":765:768  len */\n      0x12\n        /* \"04_lesson_DataTypes/DataTypes.sol\":765:784  len = items2.length */\n      dup2\n      swap1\n      sstore\n      pop\n        /* \"04_lesson_DataTypes/DataTypes.sol\":683:791  function pushElement(uint element) public {... */\n      pop\n      jump\t// out\n        /* \"04_lesson_DataTypes/DataTypes.sol\":1935:2068  function getPayment(address _addr, uint _index) public view returns(Payment memory){... */\n    tag_76:\n        /* \"04_lesson_DataTypes/DataTypes.sol\":2003:2017  Payment memory */\n      tag_145\n      tag_146\n      jump\t// in\n    tag_145:\n        /* \"04_lesson_DataTypes/DataTypes.sol\":2028:2036  balances */\n      0x16\n        /* \"04_lesson_DataTypes/DataTypes.sol\":2028:2043  balances[_addr] */\n      0x00\n        /* \"04_lesson_DataTypes/DataTypes.sol\":2037:2042  _addr */\n      dup5\n        /* \"04_lesson_DataTypes/DataTypes.sol\":2028:2043  balances[_addr] */\n      0xffffffffffffffffffffffffffffffffffffffff\n      and\n      0xffffffffffffffffffffffffffffffffffffffff\n      and\n      dup2\n      mstore\n      0x20\n      add\n      swap1\n      dup2\n      mstore\n      0x20\n      add\n      0x00\n      keccak256\n        /* \"04_lesson_DataTypes/DataTypes.sol\":2028:2052  balances[_addr].payments */\n      0x01\n      add\n        /* \"04_lesson_DataTypes/DataTypes.sol\":2028:2060  balances[_addr].payments[_index] */\n      0x00\n        /* \"04_lesson_DataTypes/DataTypes.sol\":2053:2059  _index */\n      dup4\n        /* \"04_lesson_DataTypes/DataTypes.sol\":2028:2060  balances[_addr].payments[_index] */\n      dup2\n      mstore\n      0x20\n      add\n      swap1\n      dup2\n      mstore\n      0x20\n      add\n      0x00\n      keccak256\n      pop\n        /* \"04_lesson_DataTypes/DataTypes.sol\":1935:2068  function getPayment(address _addr, uint _index) public view returns(Payment memory){... */\n      swap3\n      swap2\n      pop\n      pop\n      jump\t// out\n        /* \"04_lesson_DataTypes/DataTypes.sol\":824:991  function sampleMemory() public view returns(uint[] memory){... */\n    tag_81:\n        /* \"04_lesson_DataTypes/DataTypes.sol\":868:881  uint[] memory */\n      0x60\n        /* \"04_lesson_DataTypes/DataTypes.sol\":892:915  uint[] memory tempArray */\n      0x00\n        /* \"04_lesson_DataTypes/DataTypes.sol\":929:931  10 */\n      0x0a\n        /* \"04_lesson_DataTypes/DataTypes.sol\":918:932  new uint[](10) */\n      0xffffffffffffffff\n      dup2\n      gt\n      iszero\n      tag_149\n      jumpi\n      tag_150\n      tag_151\n      jump\t// in\n    tag_150:\n    tag_149:\n      mload(0x40)\n      swap1\n      dup1\n      dup3\n      mstore\n      dup1\n      0x20\n      mul\n      0x20\n      add\n      dup3\n      add\n      0x40\n      mstore\n      dup1\n      iszero\n      tag_152\n      jumpi\n      dup2\n      0x20\n      add\n      0x20\n      dup3\n      mul\n      dup1\n      calldatasize\n      dup4\n      calldatacopy\n      dup1\n      dup3\n      add\n      swap2\n      pop\n      pop\n      swap1\n      pop\n    tag_152:\n      pop\n        /* \"04_lesson_DataTypes/DataTypes.sol\":892:932  uint[] memory tempArray = new uint[](10) */\n      swap1\n      pop\n        /* \"04_lesson_DataTypes/DataTypes.sol\":957:958  1 */\n      0x01\n        /* \"04_lesson_DataTypes/DataTypes.sol\":942:951  tempArray */\n      dup2\n        /* \"04_lesson_DataTypes/DataTypes.sol\":952:953  0 */\n      0x00\n        /* \"04_lesson_DataTypes/DataTypes.sol\":942:954  tempArray[0] */\n      dup2\n      mload\n      dup2\n      lt\n      tag_153\n      jumpi\n      tag_154\n      tag_135\n      jump\t// in\n    tag_154:\n    tag_153:\n      0x20\n      mul\n      0x20\n      add\n      add\n        /* \"04_lesson_DataTypes/DataTypes.sol\":942:958  tempArray[0] = 1 */\n      dup2\n      dup2\n      mstore\n      pop\n      pop\n        /* \"04_lesson_DataTypes/DataTypes.sol\":975:984  tempArray */\n      dup1\n        /* \"04_lesson_DataTypes/DataTypes.sol\":968:984  return tempArray */\n      swap2\n      pop\n      pop\n        /* \"04_lesson_DataTypes/DataTypes.sol\":824:991  function sampleMemory() public view returns(uint[] memory){... */\n      swap1\n      jump\t// out\n        /* \"04_lesson_DataTypes/DataTypes.sol\":243:320  function delivered() public {... */\n    tag_86:\n        /* \"04_lesson_DataTypes/DataTypes.sol\":297:313  Status.Delivered */\n      0x01\n        /* \"04_lesson_DataTypes/DataTypes.sol\":281:294  currentStatus */\n      0x00\n      dup1\n        /* \"04_lesson_DataTypes/DataTypes.sol\":281:313  currentStatus = Status.Delivered */\n      0x0100\n      exp\n      dup2\n      sload\n      dup2\n      0xff\n      mul\n      not\n      and\n      swap1\n      dup4\n      0x02\n      dup2\n      gt\n      iszero\n      tag_156\n      jumpi\n      tag_157\n      tag_115\n      jump\t// in\n    tag_157:\n    tag_156:\n      mul\n      or\n      swap1\n      sstore\n      pop\n        /* \"04_lesson_DataTypes/DataTypes.sol\":243:320  function delivered() public {... */\n      jump\t// out\n        /* \"04_lesson_DataTypes/DataTypes.sol\":341:363  uint[10] public items0 */\n    tag_90:\n      0x01\n      dup2\n      0x0a\n      dup2\n      lt\n      tag_158\n      jumpi\n      0x00\n      dup1\n      revert\n    tag_158:\n      add\n      0x00\n      swap2\n      pop\n      swap1\n      pop\n      sload\n      dup2\n      jump\t// out\n        /* \"04_lesson_DataTypes/DataTypes.sol\":1012:1041  bytes32 public myVar = \"test\" */\n    tag_94:\n      sload(0x13)\n      dup2\n      jump\t// out\n        /* \"04_lesson_DataTypes/DataTypes.sol\":137:164  Status public currentStatus */\n    tag_99:\n      0x00\n      dup1\n      sload\n      swap1\n      0x0100\n      exp\n      swap1\n      div\n      0xff\n      and\n      dup2\n      jump\t// out\n        /* \"04_lesson_DataTypes/DataTypes.sol\":1073:1103  bytes public myDynVar = \"test\" */\n    tag_104:\n      0x14\n      dup1\n      sload\n      tag_160\n      swap1\n      tag_107\n      jump\t// in\n    tag_160:\n      dup1\n      0x1f\n      add\n      0x20\n      dup1\n      swap2\n      div\n      mul\n      0x20\n      add\n      mload(0x40)\n      swap1\n      dup2\n      add\n      0x40\n      mstore\n      dup1\n      swap3\n      swap2\n      swap1\n      dup2\n      dup2\n      mstore\n      0x20\n      add\n      dup3\n      dup1\n      sload\n      tag_161\n      swap1\n      tag_107\n      jump\t// in\n    tag_161:\n      dup1\n      iszero\n      tag_162\n      jumpi\n      dup1\n      0x1f\n      lt\n      tag_163\n      jumpi\n      0x0100\n      dup1\n      dup4\n      sload\n      div\n      mul\n      dup4\n      mstore\n      swap2\n      0x20\n      add\n      swap2\n      jump(tag_162)\n    tag_163:\n      dup3\n      add\n      swap2\n      swap1\n      0x00\n      mstore\n      keccak256(0x00, 0x20)\n      swap1\n    tag_164:\n      dup2\n      sload\n      dup2\n      mstore\n      swap1\n      0x01\n      add\n      swap1\n      0x20\n      add\n      dup1\n      dup4\n      gt\n      tag_164\n      jumpi\n      dup3\n      swap1\n      sub\n      0x1f\n      and\n      dup3\n      add\n      swap2\n    tag_162:\n      pop\n      pop\n      pop\n      pop\n      pop\n      dup2\n      jump\t// out\n    tag_122:\n      dup3\n      mul(0x03, 0x02)\n      dup2\n      add\n      swap3\n      dup3\n      iszero\n      tag_165\n      jumpi\n      swap2\n      0x20\n      mul\n      dup3\n      add\n    tag_166:\n      dup3\n      dup2\n      gt\n      iszero\n      tag_167\n      jumpi\n      dup3\n      mload\n      dup3\n      swap1\n      0x03\n      tag_168\n      swap3\n      swap2\n      swap1\n      tag_169\n      jump\t// in\n    tag_168:\n      pop\n      swap2\n      0x20\n      add\n      swap2\n      swap1\n      0x03\n      add\n      swap1\n      jump(tag_166)\n    tag_167:\n    tag_165:\n      pop\n      swap1\n      pop\n      tag_170\n      swap2\n      swap1\n      tag_171\n      jump\t// in\n    tag_170:\n      pop\n      swap1\n      jump\t// out\n    tag_127:\n      dup3\n      dup1\n      sload\n      tag_172\n      swap1\n      tag_107\n      jump\t// in\n    tag_172:\n      swap1\n      0x00\n      mstore\n      keccak256(0x00, 0x20)\n      swap1\n      0x1f\n      add\n      0x20\n      swap1\n      div\n      dup2\n      add\n      swap3\n      dup3\n      tag_174\n      jumpi\n      0x00\n      dup6\n      sstore\n      jump(tag_173)\n    tag_174:\n      dup3\n      0x1f\n      lt\n      tag_175\n      jumpi\n      dup1\n      mload\n      not(0xff)\n      and\n      dup4\n      dup1\n      add\n      or\n      dup6\n      sstore\n      jump(tag_173)\n    tag_175:\n      dup3\n      dup1\n      add\n      0x01\n      add\n      dup6\n      sstore\n      dup3\n      iszero\n      tag_173\n      jumpi\n      swap2\n      dup3\n      add\n    tag_176:\n      dup3\n      dup2\n      gt\n      iszero\n      tag_177\n      jumpi\n      dup3\n      mload\n      dup3\n      sstore\n      swap2\n      0x20\n      add\n      swap2\n      swap1\n      0x01\n      add\n      swap1\n      jump(tag_176)\n    tag_177:\n    tag_173:\n      pop\n      swap1\n      pop\n      tag_178\n      swap2\n      swap1\n      tag_179\n      jump\t// in\n    tag_178:\n      pop\n      swap1\n      jump\t// out\n    tag_146:\n      mload(0x40)\n      dup1\n      0x80\n      add\n      0x40\n      mstore\n      dup1\n      0x00\n      dup2\n      mstore\n      0x20\n      add\n      0x00\n      dup2\n      mstore\n      0x20\n      add\n      and(0xffffffffffffffffffffffffffffffffffffffff, 0x00)\n      dup2\n      mstore\n      0x20\n      add\n      0x60\n      dup2\n      mstore\n      pop\n      swap1\n      jump\t// out\n    tag_169:\n      dup3\n      0x03\n      dup2\n      add\n      swap3\n      dup3\n      iszero\n      tag_180\n      jumpi\n      swap2\n      0x20\n      mul\n      dup3\n      add\n    tag_181:\n      dup3\n      dup2\n      gt\n      iszero\n      tag_182\n      jumpi\n      dup3\n      mload\n      dup3\n      swap1\n      0xff\n      and\n      swap1\n      sstore\n      swap2\n      0x20\n      add\n      swap2\n      swap1\n      0x01\n      add\n      swap1\n      jump(tag_181)\n    tag_182:\n    tag_180:\n      pop\n      swap1\n      pop\n      tag_183\n      swap2\n      swap1\n      tag_179\n      jump\t// in\n    tag_183:\n      pop\n      swap1\n      jump\t// out\n    tag_171:\n    tag_184:\n      dup1\n      dup3\n      gt\n      iszero\n      tag_185\n      jumpi\n      0x00\n      dup2\n      dup2\n      tag_186\n      swap2\n      swap1\n      tag_187\n      jump\t// in\n    tag_186:\n      pop\n      0x03\n      add\n      jump(tag_184)\n    tag_185:\n      pop\n      swap1\n      jump\t// out\n    tag_179:\n    tag_188:\n      dup1\n      dup3\n      gt\n      iszero\n      tag_189\n      jumpi\n      0x00\n      dup2\n      0x00\n      swap1\n      sstore\n      pop\n      0x01\n      add\n      jump(tag_188)\n    tag_189:\n      pop\n      swap1\n      jump\t// out\n    tag_187:\n      pop\n      0x00\n      dup2\n      sstore\n      0x01\n      add\n      0x00\n      dup2\n      sstore\n      0x01\n      add\n      0x00\n      swap1\n      sstore\n      jump\t// out\n        /* \"#utility.yul\":7:105   */\n    tag_190:\n        /* \"#utility.yul\":58:64   */\n      0x00\n        /* \"#utility.yul\":92:97   */\n      dup2\n        /* \"#utility.yul\":86:98   */\n      mload\n        /* \"#utility.yul\":76:98   */\n      swap1\n      pop\n        /* \"#utility.yul\":7:105   */\n      swap2\n      swap1\n      pop\n      jump\t// out\n        /* \"#utility.yul\":111:279   */\n    tag_191:\n        /* \"#utility.yul\":194:205   */\n      0x00\n        /* \"#utility.yul\":228:234   */\n      dup3\n        /* \"#utility.yul\":223:226   */\n      dup3\n        /* \"#utility.yul\":216:235   */\n      mstore\n        /* \"#utility.yul\":268:272   */\n      0x20\n        /* \"#utility.yul\":263:266   */\n      dup3\n        /* \"#utility.yul\":259:273   */\n      add\n        /* \"#utility.yul\":244:273   */\n      swap1\n      pop\n        /* \"#utility.yul\":111:279   */\n      swap3\n      swap2\n      pop\n      pop\n      jump\t// out\n        /* \"#utility.yul\":285:592   */\n    tag_192:\n        /* \"#utility.yul\":353:354   */\n      0x00\n        /* \"#utility.yul\":363:476   */\n    tag_238:\n        /* \"#utility.yul\":377:383   */\n      dup4\n        /* \"#utility.yul\":374:375   */\n      dup2\n        /* \"#utility.yul\":371:384   */\n      lt\n        /* \"#utility.yul\":363:476   */\n      iszero\n      tag_240\n      jumpi\n        /* \"#utility.yul\":462:463   */\n      dup1\n        /* \"#utility.yul\":457:460   */\n      dup3\n        /* \"#utility.yul\":453:464   */\n      add\n        /* \"#utility.yul\":447:465   */\n      mload\n        /* \"#utility.yul\":443:444   */\n      dup2\n        /* \"#utility.yul\":438:441   */\n      dup5\n        /* \"#utility.yul\":434:445   */\n      add\n        /* \"#utility.yul\":427:466   */\n      mstore\n        /* \"#utility.yul\":399:401   */\n      0x20\n        /* \"#utility.yul\":396:397   */\n      dup2\n        /* \"#utility.yul\":392:402   */\n      add\n        /* \"#utility.yul\":387:402   */\n      swap1\n      pop\n        /* \"#utility.yul\":363:476   */\n      jump(tag_238)\n    tag_240:\n        /* \"#utility.yul\":494:500   */\n      dup4\n        /* \"#utility.yul\":491:492   */\n      dup2\n        /* \"#utility.yul\":488:501   */\n      gt\n        /* \"#utility.yul\":485:586   */\n      iszero\n      tag_241\n      jumpi\n        /* \"#utility.yul\":574:575   */\n      0x00\n        /* \"#utility.yul\":565:571   */\n      dup5\n        /* \"#utility.yul\":560:563   */\n      dup5\n        /* \"#utility.yul\":556:572   */\n      add\n        /* \"#utility.yul\":549:576   */\n      mstore\n        /* \"#utility.yul\":485:586   */\n    tag_241:\n        /* \"#utility.yul\":334:592   */\n      pop\n        /* \"#utility.yul\":285:592   */\n      pop\n      pop\n      pop\n      jump\t// out\n        /* \"#utility.yul\":598:700   */\n    tag_193:\n        /* \"#utility.yul\":639:645   */\n      0x00\n        /* \"#utility.yul\":690:692   */\n      0x1f\n        /* \"#utility.yul\":686:693   */\n      not\n        /* \"#utility.yul\":681:683   */\n      0x1f\n        /* \"#utility.yul\":674:679   */\n      dup4\n        /* \"#utility.yul\":670:684   */\n      add\n        /* \"#utility.yul\":666:694   */\n      and\n        /* \"#utility.yul\":656:694   */\n      swap1\n      pop\n        /* \"#utility.yul\":598:700   */\n      swap2\n      swap1\n      pop\n      jump\t// out\n        /* \"#utility.yul\":706:1066   */\n    tag_194:\n        /* \"#utility.yul\":792:795   */\n      0x00\n        /* \"#utility.yul\":820:858   */\n      tag_244\n        /* \"#utility.yul\":852:857   */\n      dup3\n        /* \"#utility.yul\":820:858   */\n      tag_190\n      jump\t// in\n    tag_244:\n        /* \"#utility.yul\":874:944   */\n      tag_245\n        /* \"#utility.yul\":937:943   */\n      dup2\n        /* \"#utility.yul\":932:935   */\n      dup6\n        /* \"#utility.yul\":874:944   */\n      tag_191\n      jump\t// in\n    tag_245:\n        /* \"#utility.yul\":867:944   */\n      swap4\n      pop\n        /* \"#utility.yul\":953:1005   */\n      tag_246\n        /* \"#utility.yul\":998:1004   */\n      dup2\n        /* \"#utility.yul\":993:996   */\n      dup6\n        /* \"#utility.yul\":986:990   */\n      0x20\n        /* \"#utility.yul\":979:984   */\n      dup7\n        /* \"#utility.yul\":975:991   */\n      add\n        /* \"#utility.yul\":953:1005   */\n      tag_192\n      jump\t// in\n    tag_246:\n        /* \"#utility.yul\":1030:1059   */\n      tag_247\n        /* \"#utility.yul\":1052:1058   */\n      dup2\n        /* \"#utility.yul\":1030:1059   */\n      tag_193\n      jump\t// in\n    tag_247:\n        /* \"#utility.yul\":1025:1028   */\n      dup5\n        /* \"#utility.yul\":1021:1060   */\n      add\n        /* \"#utility.yul\":1014:1060   */\n      swap2\n      pop\n        /* \"#utility.yul\":796:1066   */\n      pop\n        /* \"#utility.yul\":706:1066   */\n      swap3\n      swap2\n      pop\n      pop\n      jump\t// out\n        /* \"#utility.yul\":1072:1381   */\n    tag_27:\n        /* \"#utility.yul\":1183:1187   */\n      0x00\n        /* \"#utility.yul\":1221:1223   */\n      0x20\n        /* \"#utility.yul\":1210:1219   */\n      dup3\n        /* \"#utility.yul\":1206:1224   */\n      add\n        /* \"#utility.yul\":1198:1224   */\n      swap1\n      pop\n        /* \"#utility.yul\":1270:1279   */\n      dup2\n        /* \"#utility.yul\":1264:1268   */\n      dup2\n        /* \"#utility.yul\":1260:1280   */\n      sub\n        /* \"#utility.yul\":1256:1257   */\n      0x00\n        /* \"#utility.yul\":1245:1254   */\n      dup4\n        /* \"#utility.yul\":1241:1258   */\n      add\n        /* \"#utility.yul\":1234:1281   */\n      mstore\n        /* \"#utility.yul\":1298:1374   */\n      tag_249\n        /* \"#utility.yul\":1369:1373   */\n      dup2\n        /* \"#utility.yul\":1360:1366   */\n      dup5\n        /* \"#utility.yul\":1298:1374   */\n      tag_194\n      jump\t// in\n    tag_249:\n        /* \"#utility.yul\":1290:1374   */\n      swap1\n      pop\n        /* \"#utility.yul\":1072:1381   */\n      swap3\n      swap2\n      pop\n      pop\n      jump\t// out\n        /* \"#utility.yul\":1387:1462   */\n    tag_195:\n        /* \"#utility.yul\":1420:1426   */\n      0x00\n        /* \"#utility.yul\":1453:1455   */\n      0x40\n        /* \"#utility.yul\":1447:1456   */\n      mload\n        /* \"#utility.yul\":1437:1456   */\n      swap1\n      pop\n        /* \"#utility.yul\":1387:1462   */\n      swap1\n      jump\t// out\n        /* \"#utility.yul\":1468:1585   */\n    tag_196:\n        /* \"#utility.yul\":1577:1578   */\n      0x00\n        /* \"#utility.yul\":1574:1575   */\n      dup1\n        /* \"#utility.yul\":1567:1579   */\n      revert\n        /* \"#utility.yul\":1591:1708   */\n    tag_197:\n        /* \"#utility.yul\":1700:1701   */\n      0x00\n        /* \"#utility.yul\":1697:1698   */\n      dup1\n        /* \"#utility.yul\":1690:1702   */\n      revert\n        /* \"#utility.yul\":1714:1791   */\n    tag_198:\n        /* \"#utility.yul\":1751:1758   */\n      0x00\n        /* \"#utility.yul\":1780:1785   */\n      dup2\n        /* \"#utility.yul\":1769:1785   */\n      swap1\n      pop\n        /* \"#utility.yul\":1714:1791   */\n      swap2\n      swap1\n      pop\n      jump\t// out\n        /* \"#utility.yul\":1797:1919   */\n    tag_199:\n        /* \"#utility.yul\":1870:1894   */\n      tag_255\n        /* \"#utility.yul\":1888:1893   */\n      dup2\n        /* \"#utility.yul\":1870:1894   */\n      tag_198\n      jump\t// in\n    tag_255:\n        /* \"#utility.yul\":1863:1868   */\n      dup2\n        /* \"#utility.yul\":1860:1895   */\n      eq\n        /* \"#utility.yul\":1850:1913   */\n      tag_256\n      jumpi\n        /* \"#utility.yul\":1909:1910   */\n      0x00\n        /* \"#utility.yul\":1906:1907   */\n      dup1\n        /* \"#utility.yul\":1899:1911   */\n      revert\n        /* \"#utility.yul\":1850:1913   */\n    tag_256:\n        /* \"#utility.yul\":1797:1919   */\n      pop\n      jump\t// out\n        /* \"#utility.yul\":1925:2064   */\n    tag_200:\n        /* \"#utility.yul\":1971:1976   */\n      0x00\n        /* \"#utility.yul\":2009:2015   */\n      dup2\n        /* \"#utility.yul\":1996:2016   */\n      calldataload\n        /* \"#utility.yul\":1987:2016   */\n      swap1\n      pop\n        /* \"#utility.yul\":2025:2058   */\n      tag_258\n        /* \"#utility.yul\":2052:2057   */\n      dup2\n        /* \"#utility.yul\":2025:2058   */\n      tag_199\n      jump\t// in\n    tag_258:\n        /* \"#utility.yul\":1925:2064   */\n      swap3\n      swap2\n      pop\n      pop\n      jump\t// out\n        /* \"#utility.yul\":2070:2544   */\n    tag_34:\n        /* \"#utility.yul\":2138:2144   */\n      0x00\n        /* \"#utility.yul\":2146:2152   */\n      dup1\n        /* \"#utility.yul\":2195:2197   */\n      0x40\n        /* \"#utility.yul\":2183:2192   */\n      dup4\n        /* \"#utility.yul\":2174:2181   */\n      dup6\n        /* \"#utility.yul\":2170:2193   */\n      sub\n        /* \"#utility.yul\":2166:2198   */\n      slt\n        /* \"#utility.yul\":2163:2282   */\n      iszero\n      tag_260\n      jumpi\n        /* \"#utility.yul\":2201:2280   */\n      tag_261\n      tag_196\n      jump\t// in\n    tag_261:\n        /* \"#utility.yul\":2163:2282   */\n    tag_260:\n        /* \"#utility.yul\":2321:2322   */\n      0x00\n        /* \"#utility.yul\":2346:2399   */\n      tag_262\n        /* \"#utility.yul\":2391:2398   */\n      dup6\n        /* \"#utility.yul\":2382:2388   */\n      dup3\n        /* \"#utility.yul\":2371:2380   */\n      dup7\n        /* \"#utility.yul\":2367:2389   */\n      add\n        /* \"#utility.yul\":2346:2399   */\n      tag_200\n      jump\t// in\n    tag_262:\n        /* \"#utility.yul\":2336:2399   */\n      swap3\n      pop\n        /* \"#utility.yul\":2292:2409   */\n      pop\n        /* \"#utility.yul\":2448:2450   */\n      0x20\n        /* \"#utility.yul\":2474:2527   */\n      tag_263\n        /* \"#utility.yul\":2519:2526   */\n      dup6\n        /* \"#utility.yul\":2510:2516   */\n      dup3\n        /* \"#utility.yul\":2499:2508   */\n      dup7\n        /* \"#utility.yul\":2495:2517   */\n      add\n        /* \"#utility.yul\":2474:2527   */\n      tag_200\n      jump\t// in\n    tag_263:\n        /* \"#utility.yul\":2464:2527   */\n      swap2\n      pop\n        /* \"#utility.yul\":2419:2537   */\n      pop\n        /* \"#utility.yul\":2070:2544   */\n      swap3\n      pop\n      swap3\n      swap1\n      pop\n      jump\t// out\n        /* \"#utility.yul\":2550:2668   */\n    tag_201:\n        /* \"#utility.yul\":2637:2661   */\n      tag_265\n        /* \"#utility.yul\":2655:2660   */\n      dup2\n        /* \"#utility.yul\":2637:2661   */\n      tag_198\n      jump\t// in\n    tag_265:\n        /* \"#utility.yul\":2632:2635   */\n      dup3\n        /* \"#utility.yul\":2625:2662   */\n      mstore\n        /* \"#utility.yul\":2550:2668   */\n      pop\n      pop\n      jump\t// out\n        /* \"#utility.yul\":2674:2896   */\n    tag_37:\n        /* \"#utility.yul\":2767:2771   */\n      0x00\n        /* \"#utility.yul\":2805:2807   */\n      0x20\n        /* \"#utility.yul\":2794:2803   */\n      dup3\n        /* \"#utility.yul\":2790:2808   */\n      add\n        /* \"#utility.yul\":2782:2808   */\n      swap1\n      pop\n        /* \"#utility.yul\":2818:2889   */\n      tag_267\n        /* \"#utility.yul\":2886:2887   */\n      0x00\n        /* \"#utility.yul\":2875:2884   */\n      dup4\n        /* \"#utility.yul\":2871:2888   */\n      add\n        /* \"#utility.yul\":2862:2868   */\n      dup5\n        /* \"#utility.yul\":2818:2889   */\n      tag_201\n      jump\t// in\n    tag_267:\n        /* \"#utility.yul\":2674:2896   */\n      swap3\n      swap2\n      pop\n      pop\n      jump\t// out\n        /* \"#utility.yul\":2902:3028   */\n    tag_202:\n        /* \"#utility.yul\":2939:2946   */\n      0x00\n        /* \"#utility.yul\":2979:3021   */\n      0xffffffffffffffffffffffffffffffffffffffff\n        /* \"#utility.yul\":2972:2977   */\n      dup3\n        /* \"#utility.yul\":2968:3022   */\n      and\n        /* \"#utility.yul\":2957:3022   */\n      swap1\n      pop\n        /* \"#utility.yul\":2902:3028   */\n      swap2\n      swap1\n      pop\n      jump\t// out\n        /* \"#utility.yul\":3034:3130   */\n    tag_203:\n        /* \"#utility.yul\":3071:3078   */\n      0x00\n        /* \"#utility.yul\":3100:3124   */\n      tag_270\n        /* \"#utility.yul\":3118:3123   */\n      dup3\n        /* \"#utility.yul\":3100:3124   */\n      tag_202\n      jump\t// in\n    tag_270:\n        /* \"#utility.yul\":3089:3124   */\n      swap1\n      pop\n        /* \"#utility.yul\":3034:3130   */\n      swap2\n      swap1\n      pop\n      jump\t// out\n        /* \"#utility.yul\":3136:3258   */\n    tag_204:\n        /* \"#utility.yul\":3209:3233   */\n      tag_272\n        /* \"#utility.yul\":3227:3232   */\n      dup2\n        /* \"#utility.yul\":3209:3233   */\n      tag_203\n      jump\t// in\n    tag_272:\n        /* \"#utility.yul\":3202:3207   */\n      dup2\n        /* \"#utility.yul\":3199:3234   */\n      eq\n        /* \"#utility.yul\":3189:3252   */\n      tag_273\n      jumpi\n        /* \"#utility.yul\":3248:3249   */\n      0x00\n        /* \"#utility.yul\":3245:3246   */\n      dup1\n        /* \"#utility.yul\":3238:3250   */\n      revert\n        /* \"#utility.yul\":3189:3252   */\n    tag_273:\n        /* \"#utility.yul\":3136:3258   */\n      pop\n      jump\t// out\n        /* \"#utility.yul\":3264:3403   */\n    tag_205:\n        /* \"#utility.yul\":3310:3315   */\n      0x00\n        /* \"#utility.yul\":3348:3354   */\n      dup2\n        /* \"#utility.yul\":3335:3355   */\n      calldataload\n        /* \"#utility.yul\":3326:3355   */\n      swap1\n      pop\n        /* \"#utility.yul\":3364:3397   */\n      tag_275\n        /* \"#utility.yul\":3391:3396   */\n      dup2\n        /* \"#utility.yul\":3364:3397   */\n      tag_204\n      jump\t// in\n    tag_275:\n        /* \"#utility.yul\":3264:3403   */\n      swap3\n      swap2\n      pop\n      pop\n      jump\t// out\n        /* \"#utility.yul\":3409:3738   */\n    tag_44:\n        /* \"#utility.yul\":3468:3474   */\n      0x00\n        /* \"#utility.yul\":3517:3519   */\n      0x20\n        /* \"#utility.yul\":3505:3514   */\n      dup3\n        /* \"#utility.yul\":3496:3503   */\n      dup5\n        /* \"#utility.yul\":3492:3515   */\n      sub\n        /* \"#utility.yul\":3488:3520   */\n      slt\n        /* \"#utility.yul\":3485:3604   */\n      iszero\n      tag_277\n      jumpi\n        /* \"#utility.yul\":3523:3602   */\n      tag_278\n      tag_196\n      jump\t// in\n    tag_278:\n        /* \"#utility.yul\":3485:3604   */\n    tag_277:\n        /* \"#utility.yul\":3643:3644   */\n      0x00\n        /* \"#utility.yul\":3668:3721   */\n      tag_279\n        /* \"#utility.yul\":3713:3720   */\n      dup5\n        /* \"#utility.yul\":3704:3710   */\n      dup3\n        /* \"#utility.yul\":3693:3702   */\n      dup6\n        /* \"#utility.yul\":3689:3711   */\n      add\n        /* \"#utility.yul\":3668:3721   */\n      tag_205\n      jump\t// in\n    tag_279:\n        /* \"#utility.yul\":3658:3721   */\n      swap2\n      pop\n        /* \"#utility.yul\":3614:3731   */\n      pop\n        /* \"#utility.yul\":3409:3738   */\n      swap3\n      swap2\n      pop\n      pop\n      jump\t// out\n        /* \"#utility.yul\":3744:3861   */\n    tag_206:\n        /* \"#utility.yul\":3853:3854   */\n      0x00\n        /* \"#utility.yul\":3850:3851   */\n      dup1\n        /* \"#utility.yul\":3843:3855   */\n      revert\n        /* \"#utility.yul\":3867:3984   */\n    tag_207:\n        /* \"#utility.yul\":3976:3977   */\n      0x00\n        /* \"#utility.yul\":3973:3974   */\n      dup1\n        /* \"#utility.yul\":3966:3978   */\n      revert\n        /* \"#utility.yul\":3990:4170   */\n    tag_151:\n        /* \"#utility.yul\":4038:4115   */\n      0x4e487b7100000000000000000000000000000000000000000000000000000000\n        /* \"#utility.yul\":4035:4036   */\n      0x00\n        /* \"#utility.yul\":4028:4116   */\n      mstore\n        /* \"#utility.yul\":4135:4139   */\n      0x41\n        /* \"#utility.yul\":4132:4133   */\n      0x04\n        /* \"#utility.yul\":4125:4140   */\n      mstore\n        /* \"#utility.yul\":4159:4163   */\n      0x24\n        /* \"#utility.yul\":4156:4157   */\n      0x00\n        /* \"#utility.yul\":4149:4164   */\n      revert\n        /* \"#utility.yul\":4176:4457   */\n    tag_208:\n        /* \"#utility.yul\":4259:4286   */\n      tag_284\n        /* \"#utility.yul\":4281:4285   */\n      dup3\n        /* \"#utility.yul\":4259:4286   */\n      tag_193\n      jump\t// in\n    tag_284:\n        /* \"#utility.yul\":4251:4257   */\n      dup2\n        /* \"#utility.yul\":4247:4287   */\n      add\n        /* \"#utility.yul\":4389:4395   */\n      dup2\n        /* \"#utility.yul\":4377:4387   */\n      dup2\n        /* \"#utility.yul\":4374:4396   */\n      lt\n        /* \"#utility.yul\":4353:4371   */\n      0xffffffffffffffff\n        /* \"#utility.yul\":4341:4351   */\n      dup3\n        /* \"#utility.yul\":4338:4372   */\n      gt\n        /* \"#utility.yul\":4335:4397   */\n      or\n        /* \"#utility.yul\":4332:4420   */\n      iszero\n      tag_285\n      jumpi\n        /* \"#utility.yul\":4400:4418   */\n      tag_286\n      tag_151\n      jump\t// in\n    tag_286:\n        /* \"#utility.yul\":4332:4420   */\n    tag_285:\n        /* \"#utility.yul\":4440:4450   */\n      dup1\n        /* \"#utility.yul\":4436:4438   */\n      0x40\n        /* \"#utility.yul\":4429:4451   */\n      mstore\n        /* \"#utility.yul\":4219:4457   */\n      pop\n        /* \"#utility.yul\":4176:4457   */\n      pop\n      pop\n      jump\t// out\n        /* \"#utility.yul\":4463:4592   */\n    tag_209:\n        /* \"#utility.yul\":4497:4503   */\n      0x00\n        /* \"#utility.yul\":4524:4544   */\n      tag_288\n      tag_195\n      jump\t// in\n    tag_288:\n        /* \"#utility.yul\":4514:4544   */\n      swap1\n      pop\n        /* \"#utility.yul\":4553:4586   */\n      tag_289\n        /* \"#utility.yul\":4581:4585   */\n      dup3\n        /* \"#utility.yul\":4573:4579   */\n      dup3\n        /* \"#utility.yul\":4553:4586   */\n      tag_208\n      jump\t// in\n    tag_289:\n        /* \"#utility.yul\":4463:4592   */\n      swap2\n      swap1\n      pop\n      jump\t// out\n        /* \"#utility.yul\":4598:4906   */\n    tag_210:\n        /* \"#utility.yul\":4660:4664   */\n      0x00\n        /* \"#utility.yul\":4750:4768   */\n      0xffffffffffffffff\n        /* \"#utility.yul\":4742:4748   */\n      dup3\n        /* \"#utility.yul\":4739:4769   */\n      gt\n        /* \"#utility.yul\":4736:4792   */\n      iszero\n      tag_291\n      jumpi\n        /* \"#utility.yul\":4772:4790   */\n      tag_292\n      tag_151\n      jump\t// in\n    tag_292:\n        /* \"#utility.yul\":4736:4792   */\n    tag_291:\n        /* \"#utility.yul\":4810:4839   */\n      tag_293\n        /* \"#utility.yul\":4832:4838   */\n      dup3\n        /* \"#utility.yul\":4810:4839   */\n      tag_193\n      jump\t// in\n    tag_293:\n        /* \"#utility.yul\":4802:4839   */\n      swap1\n      pop\n        /* \"#utility.yul\":4894:4898   */\n      0x20\n        /* \"#utility.yul\":4888:4892   */\n      dup2\n        /* \"#utility.yul\":4884:4899   */\n      add\n        /* \"#utility.yul\":4876:4899   */\n      swap1\n      pop\n        /* \"#utility.yul\":4598:4906   */\n      swap2\n      swap1\n      pop\n      jump\t// out\n        /* \"#utility.yul\":4912:5066   */\n    tag_211:\n        /* \"#utility.yul\":4996:5002   */\n      dup3\n        /* \"#utility.yul\":4991:4994   */\n      dup2\n        /* \"#utility.yul\":4986:4989   */\n      dup4\n        /* \"#utility.yul\":4973:5003   */\n      calldatacopy\n        /* \"#utility.yul\":5058:5059   */\n      0x00\n        /* \"#utility.yul\":5049:5055   */\n      dup4\n        /* \"#utility.yul\":5044:5047   */\n      dup4\n        /* \"#utility.yul\":5040:5056   */\n      add\n        /* \"#utility.yul\":5033:5060   */\n      mstore\n        /* \"#utility.yul\":4912:5066   */\n      pop\n      pop\n      pop\n      jump\t// out\n        /* \"#utility.yul\":5072:5484   */\n    tag_212:\n        /* \"#utility.yul\":5150:5155   */\n      0x00\n        /* \"#utility.yul\":5175:5241   */\n      tag_296\n        /* \"#utility.yul\":5191:5240   */\n      tag_297\n        /* \"#utility.yul\":5233:5239   */\n      dup5\n        /* \"#utility.yul\":5191:5240   */\n      tag_210\n      jump\t// in\n    tag_297:\n        /* \"#utility.yul\":5175:5241   */\n      tag_209\n      jump\t// in\n    tag_296:\n        /* \"#utility.yul\":5166:5241   */\n      swap1\n      pop\n        /* \"#utility.yul\":5264:5270   */\n      dup3\n        /* \"#utility.yul\":5257:5262   */\n      dup2\n        /* \"#utility.yul\":5250:5271   */\n      mstore\n        /* \"#utility.yul\":5302:5306   */\n      0x20\n        /* \"#utility.yul\":5295:5300   */\n      dup2\n        /* \"#utility.yul\":5291:5307   */\n      add\n        /* \"#utility.yul\":5340:5343   */\n      dup5\n        /* \"#utility.yul\":5331:5337   */\n      dup5\n        /* \"#utility.yul\":5326:5329   */\n      dup5\n        /* \"#utility.yul\":5322:5338   */\n      add\n        /* \"#utility.yul\":5319:5344   */\n      gt\n        /* \"#utility.yul\":5316:5428   */\n      iszero\n      tag_298\n      jumpi\n        /* \"#utility.yul\":5347:5426   */\n      tag_299\n      tag_207\n      jump\t// in\n    tag_299:\n        /* \"#utility.yul\":5316:5428   */\n    tag_298:\n        /* \"#utility.yul\":5437:5478   */\n      tag_300\n        /* \"#utility.yul\":5471:5477   */\n      dup5\n        /* \"#utility.yul\":5466:5469   */\n      dup3\n        /* \"#utility.yul\":5461:5464   */\n      dup6\n        /* \"#utility.yul\":5437:5478   */\n      tag_211\n      jump\t// in\n    tag_300:\n        /* \"#utility.yul\":5156:5484   */\n      pop\n        /* \"#utility.yul\":5072:5484   */\n      swap4\n      swap3\n      pop\n      pop\n      pop\n      jump\t// out\n        /* \"#utility.yul\":5504:5844   */\n    tag_213:\n        /* \"#utility.yul\":5560:5565   */\n      0x00\n        /* \"#utility.yul\":5609:5612   */\n      dup3\n        /* \"#utility.yul\":5602:5606   */\n      0x1f\n        /* \"#utility.yul\":5594:5600   */\n      dup4\n        /* \"#utility.yul\":5590:5607   */\n      add\n        /* \"#utility.yul\":5586:5613   */\n      slt\n        /* \"#utility.yul\":5576:5698   */\n      tag_302\n      jumpi\n        /* \"#utility.yul\":5617:5696   */\n      tag_303\n      tag_206\n      jump\t// in\n    tag_303:\n        /* \"#utility.yul\":5576:5698   */\n    tag_302:\n        /* \"#utility.yul\":5734:5740   */\n      dup2\n        /* \"#utility.yul\":5721:5741   */\n      calldataload\n        /* \"#utility.yul\":5759:5838   */\n      tag_304\n        /* \"#utility.yul\":5834:5837   */\n      dup5\n        /* \"#utility.yul\":5826:5832   */\n      dup3\n        /* \"#utility.yul\":5819:5823   */\n      0x20\n        /* \"#utility.yul\":5811:5817   */\n      dup7\n        /* \"#utility.yul\":5807:5824   */\n      add\n        /* \"#utility.yul\":5759:5838   */\n      tag_212\n      jump\t// in\n    tag_304:\n        /* \"#utility.yul\":5750:5838   */\n      swap2\n      pop\n        /* \"#utility.yul\":5566:5844   */\n      pop\n        /* \"#utility.yul\":5504:5844   */\n      swap3\n      swap2\n      pop\n      pop\n      jump\t// out\n        /* \"#utility.yul\":5850:6359   */\n    tag_49:\n        /* \"#utility.yul\":5919:5925   */\n      0x00\n        /* \"#utility.yul\":5968:5970   */\n      0x20\n        /* \"#utility.yul\":5956:5965   */\n      dup3\n        /* \"#utility.yul\":5947:5954   */\n      dup5\n        /* \"#utility.yul\":5943:5966   */\n      sub\n        /* \"#utility.yul\":5939:5971   */\n      slt\n        /* \"#utility.yul\":5936:6055   */\n      iszero\n      tag_306\n      jumpi\n        /* \"#utility.yul\":5974:6053   */\n      tag_307\n      tag_196\n      jump\t// in\n    tag_307:\n        /* \"#utility.yul\":5936:6055   */\n    tag_306:\n        /* \"#utility.yul\":6122:6123   */\n      0x00\n        /* \"#utility.yul\":6111:6120   */\n      dup3\n        /* \"#utility.yul\":6107:6124   */\n      add\n        /* \"#utility.yul\":6094:6125   */\n      calldataload\n        /* \"#utility.yul\":6152:6170   */\n      0xffffffffffffffff\n        /* \"#utility.yul\":6144:6150   */\n      dup2\n        /* \"#utility.yul\":6141:6171   */\n      gt\n        /* \"#utility.yul\":6138:6255   */\n      iszero\n      tag_308\n      jumpi\n        /* \"#utility.yul\":6174:6253   */\n      tag_309\n      tag_197\n      jump\t// in\n    tag_309:\n        /* \"#utility.yul\":6138:6255   */\n    tag_308:\n        /* \"#utility.yul\":6279:6342   */\n      tag_310\n        /* \"#utility.yul\":6334:6341   */\n      dup5\n        /* \"#utility.yul\":6325:6331   */\n      dup3\n        /* \"#utility.yul\":6314:6323   */\n      dup6\n        /* \"#utility.yul\":6310:6332   */\n      add\n        /* \"#utility.yul\":6279:6342   */\n      tag_213\n      jump\t// in\n    tag_310:\n        /* \"#utility.yul\":6269:6342   */\n      swap2\n      pop\n        /* \"#utility.yul\":6065:6352   */\n      pop\n        /* \"#utility.yul\":5850:6359   */\n      swap3\n      swap2\n      pop\n      pop\n      jump\t// out\n        /* \"#utility.yul\":6365:6694   */\n    tag_54:\n        /* \"#utility.yul\":6424:6430   */\n      0x00\n        /* \"#utility.yul\":6473:6475   */\n      0x20\n        /* \"#utility.yul\":6461:6470   */\n      dup3\n        /* \"#utility.yul\":6452:6459   */\n      dup5\n        /* \"#utility.yul\":6448:6471   */\n      sub\n        /* \"#utility.yul\":6444:6476   */\n      slt\n        /* \"#utility.yul\":6441:6560   */\n      iszero\n      tag_312\n      jumpi\n        /* \"#utility.yul\":6479:6558   */\n      tag_313\n      tag_196\n      jump\t// in\n    tag_313:\n        /* \"#utility.yul\":6441:6560   */\n    tag_312:\n        /* \"#utility.yul\":6599:6600   */\n      0x00\n        /* \"#utility.yul\":6624:6677   */\n      tag_314\n        /* \"#utility.yul\":6669:6676   */\n      dup5\n        /* \"#utility.yul\":6660:6666   */\n      dup3\n        /* \"#utility.yul\":6649:6658   */\n      dup6\n        /* \"#utility.yul\":6645:6667   */\n      add\n        /* \"#utility.yul\":6624:6677   */\n      tag_200\n      jump\t// in\n    tag_314:\n        /* \"#utility.yul\":6614:6677   */\n      swap2\n      pop\n        /* \"#utility.yul\":6570:6687   */\n      pop\n        /* \"#utility.yul\":6365:6694   */\n      swap3\n      swap2\n      pop\n      pop\n      jump\t// out\n        /* \"#utility.yul\":6700:7174   */\n    tag_75:\n        /* \"#utility.yul\":6768:6774   */\n      0x00\n        /* \"#utility.yul\":6776:6782   */\n      dup1\n        /* \"#utility.yul\":6825:6827   */\n      0x40\n        /* \"#utility.yul\":6813:6822   */\n      dup4\n        /* \"#utility.yul\":6804:6811   */\n      dup6\n        /* \"#utility.yul\":6800:6823   */\n      sub\n        /* \"#utility.yul\":6796:6828   */\n      slt\n        /* \"#utility.yul\":6793:6912   */\n      iszero\n      tag_316\n      jumpi\n        /* \"#utility.yul\":6831:6910   */\n      tag_317\n      tag_196\n      jump\t// in\n    tag_317:\n        /* \"#utility.yul\":6793:6912   */\n    tag_316:\n        /* \"#utility.yul\":6951:6952   */\n      0x00\n        /* \"#utility.yul\":6976:7029   */\n      tag_318\n        /* \"#utility.yul\":7021:7028   */\n      dup6\n        /* \"#utility.yul\":7012:7018   */\n      dup3\n        /* \"#utility.yul\":7001:7010   */\n      dup7\n        /* \"#utility.yul\":6997:7019   */\n      add\n        /* \"#utility.yul\":6976:7029   */\n      tag_205\n      jump\t// in\n    tag_318:\n        /* \"#utility.yul\":6966:7029   */\n      swap3\n      pop\n        /* \"#utility.yul\":6922:7039   */\n      pop\n        /* \"#utility.yul\":7078:7080   */\n      0x20\n        /* \"#utility.yul\":7104:7157   */\n      tag_319\n        /* \"#utility.yul\":7149:7156   */\n      dup6\n        /* \"#utility.yul\":7140:7146   */\n      dup3\n        /* \"#utility.yul\":7129:7138   */\n      dup7\n        /* \"#utility.yul\":7125:7147   */\n      add\n        /* \"#utility.yul\":7104:7157   */\n      tag_200\n      jump\t// in\n    tag_319:\n        /* \"#utility.yul\":7094:7157   */\n      swap2\n      pop\n        /* \"#utility.yul\":7049:7167   */\n      pop\n        /* \"#utility.yul\":6700:7174   */\n      swap3\n      pop\n      swap3\n      swap1\n      pop\n      jump\t// out\n        /* \"#utility.yul\":7180:7288   */\n    tag_214:\n        /* \"#utility.yul\":7257:7281   */\n      tag_321\n        /* \"#utility.yul\":7275:7280   */\n      dup2\n        /* \"#utility.yul\":7257:7281   */\n      tag_198\n      jump\t// in\n    tag_321:\n        /* \"#utility.yul\":7252:7255   */\n      dup3\n        /* \"#utility.yul\":7245:7282   */\n      mstore\n        /* \"#utility.yul\":7180:7288   */\n      pop\n      pop\n      jump\t// out\n        /* \"#utility.yul\":7294:7402   */\n    tag_215:\n        /* \"#utility.yul\":7371:7395   */\n      tag_323\n        /* \"#utility.yul\":7389:7394   */\n      dup2\n        /* \"#utility.yul\":7371:7395   */\n      tag_203\n      jump\t// in\n    tag_323:\n        /* \"#utility.yul\":7366:7369   */\n      dup3\n        /* \"#utility.yul\":7359:7396   */\n      mstore\n        /* \"#utility.yul\":7294:7402   */\n      pop\n      pop\n      jump\t// out\n        /* \"#utility.yul\":7408:7507   */\n    tag_216:\n        /* \"#utility.yul\":7460:7466   */\n      0x00\n        /* \"#utility.yul\":7494:7499   */\n      dup2\n        /* \"#utility.yul\":7488:7500   */\n      mload\n        /* \"#utility.yul\":7478:7500   */\n      swap1\n      pop\n        /* \"#utility.yul\":7408:7507   */\n      swap2\n      swap1\n      pop\n      jump\t// out\n        /* \"#utility.yul\":7513:7672   */\n    tag_217:\n        /* \"#utility.yul\":7587:7598   */\n      0x00\n        /* \"#utility.yul\":7621:7627   */\n      dup3\n        /* \"#utility.yul\":7616:7619   */\n      dup3\n        /* \"#utility.yul\":7609:7628   */\n      mstore\n        /* \"#utility.yul\":7661:7665   */\n      0x20\n        /* \"#utility.yul\":7656:7659   */\n      dup3\n        /* \"#utility.yul\":7652:7666   */\n      add\n        /* \"#utility.yul\":7637:7666   */\n      swap1\n      pop\n        /* \"#utility.yul\":7513:7672   */\n      swap3\n      swap2\n      pop\n      pop\n      jump\t// out\n        /* \"#utility.yul\":7678:8022   */\n    tag_218:\n        /* \"#utility.yul\":7756:7759   */\n      0x00\n        /* \"#utility.yul\":7784:7823   */\n      tag_327\n        /* \"#utility.yul\":7817:7822   */\n      dup3\n        /* \"#utility.yul\":7784:7823   */\n      tag_216\n      jump\t// in\n    tag_327:\n        /* \"#utility.yul\":7839:7900   */\n      tag_328\n        /* \"#utility.yul\":7893:7899   */\n      dup2\n        /* \"#utility.yul\":7888:7891   */\n      dup6\n        /* \"#utility.yul\":7839:7900   */\n      tag_217\n      jump\t// in\n    tag_328:\n        /* \"#utility.yul\":7832:7900   */\n      swap4\n      pop\n        /* \"#utility.yul\":7909:7961   */\n      tag_329\n        /* \"#utility.yul\":7954:7960   */\n      dup2\n        /* \"#utility.yul\":7949:7952   */\n      dup6\n        /* \"#utility.yul\":7942:7946   */\n      0x20\n        /* \"#utility.yul\":7935:7940   */\n      dup7\n        /* \"#utility.yul\":7931:7947   */\n      add\n        /* \"#utility.yul\":7909:7961   */\n      tag_192\n      jump\t// in\n    tag_329:\n        /* \"#utility.yul\":7986:8015   */\n      tag_330\n        /* \"#utility.yul\":8008:8014   */\n      dup2\n        /* \"#utility.yul\":7986:8015   */\n      tag_193\n      jump\t// in\n    tag_330:\n        /* \"#utility.yul\":7981:7984   */\n      dup5\n        /* \"#utility.yul\":7977:8016   */\n      add\n        /* \"#utility.yul\":7970:8016   */\n      swap2\n      pop\n        /* \"#utility.yul\":7760:8022   */\n      pop\n        /* \"#utility.yul\":7678:8022   */\n      swap3\n      swap2\n      pop\n      pop\n      jump\t// out\n        /* \"#utility.yul\":8078:9040   */\n    tag_219:\n        /* \"#utility.yul\":8195:8198   */\n      0x00\n        /* \"#utility.yul\":8231:8235   */\n      0x80\n        /* \"#utility.yul\":8226:8229   */\n      dup4\n        /* \"#utility.yul\":8222:8236   */\n      add\n        /* \"#utility.yul\":8320:8324   */\n      0x00\n        /* \"#utility.yul\":8313:8318   */\n      dup4\n        /* \"#utility.yul\":8309:8325   */\n      add\n        /* \"#utility.yul\":8303:8326   */\n      mload\n        /* \"#utility.yul\":8339:8402   */\n      tag_332\n        /* \"#utility.yul\":8396:8400   */\n      0x00\n        /* \"#utility.yul\":8391:8394   */\n      dup7\n        /* \"#utility.yul\":8387:8401   */\n      add\n        /* \"#utility.yul\":8373:8385   */\n      dup3\n        /* \"#utility.yul\":8339:8402   */\n      tag_214\n      jump\t// in\n    tag_332:\n        /* \"#utility.yul\":8246:8412   */\n      pop\n        /* \"#utility.yul\":8499:8503   */\n      0x20\n        /* \"#utility.yul\":8492:8497   */\n      dup4\n        /* \"#utility.yul\":8488:8504   */\n      add\n        /* \"#utility.yul\":8482:8505   */\n      mload\n        /* \"#utility.yul\":8518:8581   */\n      tag_333\n        /* \"#utility.yul\":8575:8579   */\n      0x20\n        /* \"#utility.yul\":8570:8573   */\n      dup7\n        /* \"#utility.yul\":8566:8580   */\n      add\n        /* \"#utility.yul\":8552:8564   */\n      dup3\n        /* \"#utility.yul\":8518:8581   */\n      tag_214\n      jump\t// in\n    tag_333:\n        /* \"#utility.yul\":8422:8591   */\n      pop\n        /* \"#utility.yul\":8673:8677   */\n      0x40\n        /* \"#utility.yul\":8666:8671   */\n      dup4\n        /* \"#utility.yul\":8662:8678   */\n      add\n        /* \"#utility.yul\":8656:8679   */\n      mload\n        /* \"#utility.yul\":8692:8755   */\n      tag_334\n        /* \"#utility.yul\":8749:8753   */\n      0x40\n        /* \"#utility.yul\":8744:8747   */\n      dup7\n        /* \"#utility.yul\":8740:8754   */\n      add\n        /* \"#utility.yul\":8726:8738   */\n      dup3\n        /* \"#utility.yul\":8692:8755   */\n      tag_215\n      jump\t// in\n    tag_334:\n        /* \"#utility.yul\":8601:8765   */\n      pop\n        /* \"#utility.yul\":8850:8854   */\n      0x60\n        /* \"#utility.yul\":8843:8848   */\n      dup4\n        /* \"#utility.yul\":8839:8855   */\n      add\n        /* \"#utility.yul\":8833:8856   */\n      mload\n        /* \"#utility.yul\":8903:8906   */\n      dup5\n        /* \"#utility.yul\":8897:8901   */\n      dup3\n        /* \"#utility.yul\":8893:8907   */\n      sub\n        /* \"#utility.yul\":8886:8890   */\n      0x60\n        /* \"#utility.yul\":8881:8884   */\n      dup7\n        /* \"#utility.yul\":8877:8891   */\n      add\n        /* \"#utility.yul\":8870:8908   */\n      mstore\n        /* \"#utility.yul\":8929:9002   */\n      tag_335\n        /* \"#utility.yul\":8997:9001   */\n      dup3\n        /* \"#utility.yul\":8983:8995   */\n      dup3\n        /* \"#utility.yul\":8929:9002   */\n      tag_218\n      jump\t// in\n    tag_335:\n        /* \"#utility.yul\":8921:9002   */\n      swap2\n      pop\n        /* \"#utility.yul\":8775:9013   */\n      pop\n        /* \"#utility.yul\":9030:9034   */\n      dup1\n        /* \"#utility.yul\":9023:9034   */\n      swap2\n      pop\n        /* \"#utility.yul\":8200:9040   */\n      pop\n        /* \"#utility.yul\":8078:9040   */\n      swap3\n      swap2\n      pop\n      pop\n      jump\t// out\n        /* \"#utility.yul\":9046:9415   */\n    tag_78:\n        /* \"#utility.yul\":9187:9191   */\n      0x00\n        /* \"#utility.yul\":9225:9227   */\n      0x20\n        /* \"#utility.yul\":9214:9223   */\n      dup3\n        /* \"#utility.yul\":9210:9228   */\n      add\n        /* \"#utility.yul\":9202:9228   */\n      swap1\n      pop\n        /* \"#utility.yul\":9274:9283   */\n      dup2\n        /* \"#utility.yul\":9268:9272   */\n      dup2\n        /* \"#utility.yul\":9264:9284   */\n      sub\n        /* \"#utility.yul\":9260:9261   */\n      0x00\n        /* \"#utility.yul\":9249:9258   */\n      dup4\n        /* \"#utility.yul\":9245:9262   */\n      add\n        /* \"#utility.yul\":9238:9285   */\n      mstore\n        /* \"#utility.yul\":9302:9408   */\n      tag_337\n        /* \"#utility.yul\":9403:9407   */\n      dup2\n        /* \"#utility.yul\":9394:9400   */\n      dup5\n        /* \"#utility.yul\":9302:9408   */\n      tag_219\n      jump\t// in\n    tag_337:\n        /* \"#utility.yul\":9294:9408   */\n      swap1\n      pop\n        /* \"#utility.yul\":9046:9415   */\n      swap3\n      swap2\n      pop\n      pop\n      jump\t// out\n        /* \"#utility.yul\":9421:9535   */\n    tag_220:\n        /* \"#utility.yul\":9488:9494   */\n      0x00\n        /* \"#utility.yul\":9522:9527   */\n      dup2\n        /* \"#utility.yul\":9516:9528   */\n      mload\n        /* \"#utility.yul\":9506:9528   */\n      swap1\n      pop\n        /* \"#utility.yul\":9421:9535   */\n      swap2\n      swap1\n      pop\n      jump\t// out\n        /* \"#utility.yul\":9541:9725   */\n    tag_221:\n        /* \"#utility.yul\":9640:9651   */\n      0x00\n        /* \"#utility.yul\":9674:9680   */\n      dup3\n        /* \"#utility.yul\":9669:9672   */\n      dup3\n        /* \"#utility.yul\":9662:9681   */\n      mstore\n        /* \"#utility.yul\":9714:9718   */\n      0x20\n        /* \"#utility.yul\":9709:9712   */\n      dup3\n        /* \"#utility.yul\":9705:9719   */\n      add\n        /* \"#utility.yul\":9690:9719   */\n      swap1\n      pop\n        /* \"#utility.yul\":9541:9725   */\n      swap3\n      swap2\n      pop\n      pop\n      jump\t// out\n        /* \"#utility.yul\":9731:9863   */\n    tag_222:\n        /* \"#utility.yul\":9798:9802   */\n      0x00\n        /* \"#utility.yul\":9821:9824   */\n      dup2\n        /* \"#utility.yul\":9813:9824   */\n      swap1\n      pop\n        /* \"#utility.yul\":9851:9855   */\n      0x20\n        /* \"#utility.yul\":9846:9849   */\n      dup3\n        /* \"#utility.yul\":9842:9856   */\n      add\n        /* \"#utility.yul\":9834:9856   */\n      swap1\n      pop\n        /* \"#utility.yul\":9731:9863   */\n      swap2\n      swap1\n      pop\n      jump\t// out\n        /* \"#utility.yul\":9869:10048   */\n    tag_223:\n        /* \"#utility.yul\":9938:9948   */\n      0x00\n        /* \"#utility.yul\":9959:10005   */\n      tag_342\n        /* \"#utility.yul\":10001:10004   */\n      dup4\n        /* \"#utility.yul\":9993:9999   */\n      dup4\n        /* \"#utility.yul\":9959:10005   */\n      tag_214\n      jump\t// in\n    tag_342:\n        /* \"#utility.yul\":10037:10041   */\n      0x20\n        /* \"#utility.yul\":10032:10035   */\n      dup4\n        /* \"#utility.yul\":10028:10042   */\n      add\n        /* \"#utility.yul\":10014:10042   */\n      swap1\n      pop\n        /* \"#utility.yul\":9869:10048   */\n      swap3\n      swap2\n      pop\n      pop\n      jump\t// out\n        /* \"#utility.yul\":10054:10167   */\n    tag_224:\n        /* \"#utility.yul\":10124:10128   */\n      0x00\n        /* \"#utility.yul\":10156:10160   */\n      0x20\n        /* \"#utility.yul\":10151:10154   */\n      dup3\n        /* \"#utility.yul\":10147:10161   */\n      add\n        /* \"#utility.yul\":10139:10161   */\n      swap1\n      pop\n        /* \"#utility.yul\":10054:10167   */\n      swap2\n      swap1\n      pop\n      jump\t// out\n        /* \"#utility.yul\":10203:10935   */\n    tag_225:\n        /* \"#utility.yul\":10322:10325   */\n      0x00\n        /* \"#utility.yul\":10351:10405   */\n      tag_345\n        /* \"#utility.yul\":10399:10404   */\n      dup3\n        /* \"#utility.yul\":10351:10405   */\n      tag_220\n      jump\t// in\n    tag_345:\n        /* \"#utility.yul\":10421:10507   */\n      tag_346\n        /* \"#utility.yul\":10500:10506   */\n      dup2\n        /* \"#utility.yul\":10495:10498   */\n      dup6\n        /* \"#utility.yul\":10421:10507   */\n      tag_221\n      jump\t// in\n    tag_346:\n        /* \"#utility.yul\":10414:10507   */\n      swap4\n      pop\n        /* \"#utility.yul\":10531:10587   */\n      tag_347\n        /* \"#utility.yul\":10581:10586   */\n      dup4\n        /* \"#utility.yul\":10531:10587   */\n      tag_222\n      jump\t// in\n    tag_347:\n        /* \"#utility.yul\":10610:10617   */\n      dup1\n        /* \"#utility.yul\":10641:10642   */\n      0x00\n        /* \"#utility.yul\":10626:10910   */\n    tag_348:\n        /* \"#utility.yul\":10651:10657   */\n      dup4\n        /* \"#utility.yul\":10648:10649   */\n      dup2\n        /* \"#utility.yul\":10645:10658   */\n      lt\n        /* \"#utility.yul\":10626:10910   */\n      iszero\n      tag_350\n      jumpi\n        /* \"#utility.yul\":10727:10733   */\n      dup2\n        /* \"#utility.yul\":10721:10734   */\n      mload\n        /* \"#utility.yul\":10754:10817   */\n      tag_351\n        /* \"#utility.yul\":10813:10816   */\n      dup9\n        /* \"#utility.yul\":10798:10811   */\n      dup3\n        /* \"#utility.yul\":10754:10817   */\n      tag_223\n      jump\t// in\n    tag_351:\n        /* \"#utility.yul\":10747:10817   */\n      swap8\n      pop\n        /* \"#utility.yul\":10840:10900   */\n      tag_352\n        /* \"#utility.yul\":10893:10899   */\n      dup4\n        /* \"#utility.yul\":10840:10900   */\n      tag_224\n      jump\t// in\n    tag_352:\n        /* \"#utility.yul\":10830:10900   */\n      swap3\n      pop\n        /* \"#utility.yul\":10686:10910   */\n      pop\n        /* \"#utility.yul\":10673:10674   */\n      0x01\n        /* \"#utility.yul\":10670:10671   */\n      dup2\n        /* \"#utility.yul\":10666:10675   */\n      add\n        /* \"#utility.yul\":10661:10675   */\n      swap1\n      pop\n        /* \"#utility.yul\":10626:10910   */\n      jump(tag_348)\n    tag_350:\n        /* \"#utility.yul\":10630:10644   */\n      pop\n        /* \"#utility.yul\":10926:10929   */\n      dup6\n        /* \"#utility.yul\":10919:10929   */\n      swap4\n      pop\n        /* \"#utility.yul\":10327:10935   */\n      pop\n      pop\n      pop\n        /* \"#utility.yul\":10203:10935   */\n      swap3\n      swap2\n      pop\n      pop\n      jump\t// out\n        /* \"#utility.yul\":10941:11314   */\n    tag_83:\n        /* \"#utility.yul\":11084:11088   */\n      0x00\n        /* \"#utility.yul\":11122:11124   */\n      0x20\n        /* \"#utility.yul\":11111:11120   */\n      dup3\n        /* \"#utility.yul\":11107:11125   */\n      add\n        /* \"#utility.yul\":11099:11125   */\n      swap1\n      pop\n        /* \"#utility.yul\":11171:11180   */\n      dup2\n        /* \"#utility.yul\":11165:11169   */\n      dup2\n        /* \"#utility.yul\":11161:11181   */\n      sub\n        /* \"#utility.yul\":11157:11158   */\n      0x00\n        /* \"#utility.yul\":11146:11155   */\n      dup4\n        /* \"#utility.yul\":11142:11159   */\n      add\n        /* \"#utility.yul\":11135:11182   */\n      mstore\n        /* \"#utility.yul\":11199:11307   */\n      tag_354\n        /* \"#utility.yul\":11302:11306   */\n      dup2\n        /* \"#utility.yul\":11293:11299   */\n      dup5\n        /* \"#utility.yul\":11199:11307   */\n      tag_225\n      jump\t// in\n    tag_354:\n        /* \"#utility.yul\":11191:11307   */\n      swap1\n      pop\n        /* \"#utility.yul\":10941:11314   */\n      swap3\n      swap2\n      pop\n      pop\n      jump\t// out\n        /* \"#utility.yul\":11320:11397   */\n    tag_226:\n        /* \"#utility.yul\":11357:11364   */\n      0x00\n        /* \"#utility.yul\":11386:11391   */\n      dup2\n        /* \"#utility.yul\":11375:11391   */\n      swap1\n      pop\n        /* \"#utility.yul\":11320:11397   */\n      swap2\n      swap1\n      pop\n      jump\t// out\n        /* \"#utility.yul\":11403:11521   */\n    tag_227:\n        /* \"#utility.yul\":11490:11514   */\n      tag_357\n        /* \"#utility.yul\":11508:11513   */\n      dup2\n        /* \"#utility.yul\":11490:11514   */\n      tag_226\n      jump\t// in\n    tag_357:\n        /* \"#utility.yul\":11485:11488   */\n      dup3\n        /* \"#utility.yul\":11478:11515   */\n      mstore\n        /* \"#utility.yul\":11403:11521   */\n      pop\n      pop\n      jump\t// out\n        /* \"#utility.yul\":11527:11749   */\n    tag_96:\n        /* \"#utility.yul\":11620:11624   */\n      0x00\n        /* \"#utility.yul\":11658:11660   */\n      0x20\n        /* \"#utility.yul\":11647:11656   */\n      dup3\n        /* \"#utility.yul\":11643:11661   */\n      add\n        /* \"#utility.yul\":11635:11661   */\n      swap1\n      pop\n        /* \"#utility.yul\":11671:11742   */\n      tag_359\n        /* \"#utility.yul\":11739:11740   */\n      0x00\n        /* \"#utility.yul\":11728:11737   */\n      dup4\n        /* \"#utility.yul\":11724:11741   */\n      add\n        /* \"#utility.yul\":11715:11721   */\n      dup5\n        /* \"#utility.yul\":11671:11742   */\n      tag_227\n      jump\t// in\n    tag_359:\n        /* \"#utility.yul\":11527:11749   */\n      swap3\n      swap2\n      pop\n      pop\n      jump\t// out\n        /* \"#utility.yul\":11755:11935   */\n    tag_115:\n        /* \"#utility.yul\":11803:11880   */\n      0x4e487b7100000000000000000000000000000000000000000000000000000000\n        /* \"#utility.yul\":11800:11801   */\n      0x00\n        /* \"#utility.yul\":11793:11881   */\n      mstore\n        /* \"#utility.yul\":11900:11904   */\n      0x21\n        /* \"#utility.yul\":11897:11898   */\n      0x04\n        /* \"#utility.yul\":11890:11905   */\n      mstore\n        /* \"#utility.yul\":11924:11928   */\n      0x24\n        /* \"#utility.yul\":11921:11922   */\n      0x00\n        /* \"#utility.yul\":11914:11929   */\n      revert\n        /* \"#utility.yul\":11941:12054   */\n    tag_228:\n        /* \"#utility.yul\":12022:12023   */\n      0x03\n        /* \"#utility.yul\":12015:12020   */\n      dup2\n        /* \"#utility.yul\":12012:12024   */\n      lt\n        /* \"#utility.yul\":12002:12048   */\n      tag_362\n      jumpi\n        /* \"#utility.yul\":12028:12046   */\n      tag_363\n      tag_115\n      jump\t// in\n    tag_363:\n        /* \"#utility.yul\":12002:12048   */\n    tag_362:\n        /* \"#utility.yul\":11941:12054   */\n      pop\n      jump\t// out\n        /* \"#utility.yul\":12060:12187   */\n    tag_229:\n        /* \"#utility.yul\":12105:12112   */\n      0x00\n        /* \"#utility.yul\":12134:12139   */\n      dup2\n        /* \"#utility.yul\":12123:12139   */\n      swap1\n      pop\n        /* \"#utility.yul\":12140:12181   */\n      tag_365\n        /* \"#utility.yul\":12175:12180   */\n      dup3\n        /* \"#utility.yul\":12140:12181   */\n      tag_228\n      jump\t// in\n    tag_365:\n        /* \"#utility.yul\":12060:12187   */\n      swap2\n      swap1\n      pop\n      jump\t// out\n        /* \"#utility.yul\":12193:12320   */\n    tag_230:\n        /* \"#utility.yul\":12249:12258   */\n      0x00\n        /* \"#utility.yul\":12282:12314   */\n      tag_367\n        /* \"#utility.yul\":12308:12313   */\n      dup3\n        /* \"#utility.yul\":12282:12314   */\n      tag_229\n      jump\t// in\n    tag_367:\n        /* \"#utility.yul\":12269:12314   */\n      swap1\n      pop\n        /* \"#utility.yul\":12193:12320   */\n      swap2\n      swap1\n      pop\n      jump\t// out\n        /* \"#utility.yul\":12326:12469   */\n    tag_231:\n        /* \"#utility.yul\":12419:12462   */\n      tag_369\n        /* \"#utility.yul\":12456:12461   */\n      dup2\n        /* \"#utility.yul\":12419:12462   */\n      tag_230\n      jump\t// in\n    tag_369:\n        /* \"#utility.yul\":12414:12417   */\n      dup3\n        /* \"#utility.yul\":12407:12463   */\n      mstore\n        /* \"#utility.yul\":12326:12469   */\n      pop\n      pop\n      jump\t// out\n        /* \"#utility.yul\":12475:12709   */\n    tag_101:\n        /* \"#utility.yul\":12574:12578   */\n      0x00\n        /* \"#utility.yul\":12612:12614   */\n      0x20\n        /* \"#utility.yul\":12601:12610   */\n      dup3\n        /* \"#utility.yul\":12597:12615   */\n      add\n        /* \"#utility.yul\":12589:12615   */\n      swap1\n      pop\n        /* \"#utility.yul\":12625:12702   */\n      tag_371\n        /* \"#utility.yul\":12699:12700   */\n      0x00\n        /* \"#utility.yul\":12688:12697   */\n      dup4\n        /* \"#utility.yul\":12684:12701   */\n      add\n        /* \"#utility.yul\":12675:12681   */\n      dup5\n        /* \"#utility.yul\":12625:12702   */\n      tag_231\n      jump\t// in\n    tag_371:\n        /* \"#utility.yul\":12475:12709   */\n      swap3\n      swap2\n      pop\n      pop\n      jump\t// out\n        /* \"#utility.yul\":12715:12895   */\n    tag_232:\n        /* \"#utility.yul\":12763:12840   */\n      0x4e487b7100000000000000000000000000000000000000000000000000000000\n        /* \"#utility.yul\":12760:12761   */\n      0x00\n        /* \"#utility.yul\":12753:12841   */\n      mstore\n        /* \"#utility.yul\":12860:12864   */\n      0x22\n        /* \"#utility.yul\":12857:12858   */\n      0x04\n        /* \"#utility.yul\":12850:12865   */\n      mstore\n        /* \"#utility.yul\":12884:12888   */\n      0x24\n        /* \"#utility.yul\":12881:12882   */\n      0x00\n        /* \"#utility.yul\":12874:12889   */\n      revert\n        /* \"#utility.yul\":12901:13221   */\n    tag_107:\n        /* \"#utility.yul\":12945:12951   */\n      0x00\n        /* \"#utility.yul\":12982:12983   */\n      0x02\n        /* \"#utility.yul\":12976:12980   */\n      dup3\n        /* \"#utility.yul\":12972:12984   */\n      div\n        /* \"#utility.yul\":12962:12984   */\n      swap1\n      pop\n        /* \"#utility.yul\":13029:13030   */\n      0x01\n        /* \"#utility.yul\":13023:13027   */\n      dup3\n        /* \"#utility.yul\":13019:13031   */\n      and\n        /* \"#utility.yul\":13050:13068   */\n      dup1\n        /* \"#utility.yul\":13040:13121   */\n      tag_374\n      jumpi\n        /* \"#utility.yul\":13106:13110   */\n      0x7f\n        /* \"#utility.yul\":13098:13104   */\n      dup3\n        /* \"#utility.yul\":13094:13111   */\n      and\n        /* \"#utility.yul\":13084:13111   */\n      swap2\n      pop\n        /* \"#utility.yul\":13040:13121   */\n    tag_374:\n        /* \"#utility.yul\":13168:13170   */\n      0x20\n        /* \"#utility.yul\":13160:13166   */\n      dup3\n        /* \"#utility.yul\":13157:13171   */\n      lt\n        /* \"#utility.yul\":13137:13155   */\n      dup2\n        /* \"#utility.yul\":13134:13172   */\n      sub\n        /* \"#utility.yul\":13131:13215   */\n      tag_375\n      jumpi\n        /* \"#utility.yul\":13187:13205   */\n      tag_376\n      tag_232\n      jump\t// in\n    tag_376:\n        /* \"#utility.yul\":13131:13215   */\n    tag_375:\n        /* \"#utility.yul\":12952:13221   */\n      pop\n        /* \"#utility.yul\":12901:13221   */\n      swap2\n      swap1\n      pop\n      jump\t// out\n        /* \"#utility.yul\":13227:13407   */\n    tag_233:\n        /* \"#utility.yul\":13275:13352   */\n      0x4e487b7100000000000000000000000000000000000000000000000000000000\n        /* \"#utility.yul\":13272:13273   */\n      0x00\n        /* \"#utility.yul\":13265:13353   */\n      mstore\n        /* \"#utility.yul\":13372:13376   */\n      0x11\n        /* \"#utility.yul\":13369:13370   */\n      0x04\n        /* \"#utility.yul\":13362:13377   */\n      mstore\n        /* \"#utility.yul\":13396:13400   */\n      0x24\n        /* \"#utility.yul\":13393:13394   */\n      0x00\n        /* \"#utility.yul\":13386:13401   */\n      revert\n        /* \"#utility.yul\":13413:13646   */\n    tag_125:\n        /* \"#utility.yul\":13452:13455   */\n      0x00\n        /* \"#utility.yul\":13475:13499   */\n      tag_379\n        /* \"#utility.yul\":13493:13498   */\n      dup3\n        /* \"#utility.yul\":13475:13499   */\n      tag_198\n      jump\t// in\n    tag_379:\n        /* \"#utility.yul\":13466:13499   */\n      swap2\n      pop\n        /* \"#utility.yul\":13521:13587   */\n      0xffffffffffffffffffffffffffffffffffffffffffffffffffffffffffffffff\n        /* \"#utility.yul\":13514:13519   */\n      dup3\n        /* \"#utility.yul\":13511:13588   */\n      sub\n        /* \"#utility.yul\":13508:13611   */\n      tag_380\n      jumpi\n        /* \"#utility.yul\":13591:13609   */\n      tag_381\n      tag_233\n      jump\t// in\n    tag_381:\n        /* \"#utility.yul\":13508:13611   */\n    tag_380:\n        /* \"#utility.yul\":13638:13639   */\n      0x01\n        /* \"#utility.yul\":13631:13636   */\n      dup3\n        /* \"#utility.yul\":13627:13640   */\n      add\n        /* \"#utility.yul\":13620:13640   */\n      swap1\n      pop\n        /* \"#utility.yul\":13413:13646   */\n      swap2\n      swap1\n      pop\n      jump\t// out\n        /* \"#utility.yul\":13652:13832   */\n    tag_135:\n        /* \"#utility.yul\":13700:13777   */\n      0x4e487b7100000000000000000000000000000000000000000000000000000000\n        /* \"#utility.yul\":13697:13698   */\n      0x00\n        /* \"#utility.yul\":13690:13778   */\n      mstore\n        /* \"#utility.yul\":13797:13801   */\n      0x32\n        /* \"#utility.yul\":13794:13795   */\n      0x04\n        /* \"#utility.yul\":13787:13802   */\n      mstore\n        /* \"#utility.yul\":13821:13825   */\n      0x24\n        /* \"#utility.yul\":13818:13819   */\n      0x00\n        /* \"#utility.yul\":13811:13826   */\n      revert\n\n    auxdata: 0xa26469706673582212209c5b0f4156043a2d98f67fdf9d64444c38bdbc78f02499f43f6883b0d1e42d2564736f6c634300080e0033\n}\n",
				"bytecode": {
					"linkReferences": {},
					"object": "60806040527f74657374000000000000000000000000000000000000000000000000000000006013556040518060400160405280600481526020017f74657374000000000000000000000000000000000000000000000000000000008152506014908051906020019062000075929190620000d8565b506040518060400160405280600881526020017fd182d0b5d181d18200000000000000000000000000000000000000000000000081525060159080519060200190620000c3929190620000d8565b50348015620000d157600080fd5b50620001ec565b828054620000e690620001b7565b90600052602060002090601f0160209004810192826200010a576000855562000156565b82601f106200012557805160ff191683800117855562000156565b8280016001018555821562000156579182015b828111156200015557825182559160200191906001019062000138565b5b50905062000165919062000169565b5090565b5b80821115620001845760008160009055506001016200016a565b5090565b7f4e487b7100000000000000000000000000000000000000000000000000000000600052602260045260246000fd5b60006002820490506001821680620001d057607f821691505b602082108103620001e657620001e562000188565b5b50919050565b61132a80620001fc6000396000f3fe6080604052600436106101095760003560e01c806356d88e2711610095578063bbdfbfba11610064578063bbdfbfba14610338578063c1a42d191461034f578063c6b915401461038c578063ef8a9235146103b7578063ffb1e210146103e257610109565b806356d88e271461027c57806378321efb146102a7578063977a767c146102d0578063a34343c91461030d57610109565b806327e235e3116100dc57806327e235e3146101a45780632b66d72e146101e1578063503f8cab146101fd578063526aa79a1461023a5780635464fb901461026557610109565b806314d0c51e1461010e5780631b9265b8146101395780631f0393a3146101505780632724898b1461018d575b600080fd5b34801561011a57600080fd5b5061012361040d565b6040516101309190610c13565b60405180910390f35b34801561014557600080fd5b5061014e61049b565b005b34801561015c57600080fd5b5061017760048036038101906101729190610c7f565b6104c7565b6040516101849190610cce565b60405180910390f35b34801561019957600080fd5b506101a26104f5565b005b3480156101b057600080fd5b506101cb60048036038101906101c69190610d47565b610569565b6040516101d89190610cce565b60405180910390f35b6101fb60048036038101906101f69190610ea9565b610587565b005b34801561020957600080fd5b50610224600480360381019061021f9190610ef2565b610735565b6040516102319190610cce565b60405180910390f35b34801561024657600080fd5b5061024f610759565b60405161025c9190610cce565b60405180910390f35b34801561027157600080fd5b5061027a61076f565b005b34801561028857600080fd5b506102916107c5565b60405161029e9190610cce565b60405180910390f35b3480156102b357600080fd5b506102ce60048036038101906102c99190610ef2565b6107cb565b005b3480156102dc57600080fd5b506102f760048036038101906102f29190610f1f565b610803565b6040516103049190611035565b60405180910390f35b34801561031957600080fd5b50610322610865565b60405161032f9190611106565b60405180910390f35b34801561034457600080fd5b5061034d6108de565b005b34801561035b57600080fd5b5061037660048036038101906103719190610ef2565b61090a565b6040516103839190610cce565b60405180910390f35b34801561039857600080fd5b506103a1610925565b6040516103ae9190611141565b60405180910390f35b3480156103c357600080fd5b506103cc61092b565b6040516103d991906111d3565b60405180910390f35b3480156103ee57600080fd5b506103f761093c565b6040516104049190610c13565b60405180910390f35b6015805461041a9061121d565b80601f01602080910402602001604051908101604052809291908181526020018280546104469061121d565b80156104935780601f1061046857610100808354040283529160200191610493565b820191906000526020600020905b81548152906001019060200180831161047657829003601f168201915b505050505081565b60008060006101000a81548160ff021916908360028111156104c0576104bf61115c565b5b0217905550565b600b82600281106104d757600080fd5b6003020181600381106104e957600080fd5b01600091509150505481565b60405180604001604052806040518060600160405280600360ff168152602001600460ff168152602001600560ff1681525081526020016040518060600160405280600660ff168152602001600760ff168152602001600860ff16815250815250600b9060026105669291906109ca565b50565b60166020528060005260406000206000915090508060000154905081565b6000601660003373ffffffffffffffffffffffffffffffffffffffff1673ffffffffffffffffffffffffffffffffffffffff168152602001908152602001600020600001549050601660003373ffffffffffffffffffffffffffffffffffffffff1673ffffffffffffffffffffffffffffffffffffffff16815260200190815260200160002060000160008154809291906106219061127d565b9190505550600060405180608001604052803481526020014281526020013373ffffffffffffffffffffffffffffffffffffffff16815260200184815250905080601660003373ffffffffffffffffffffffffffffffffffffffff1673ffffffffffffffffffffffffffffffffffffffff1681526020019081526020016000206001016000848152602001908152602001600020600082015181600001556020820151816001015560408201518160020160006101000a81548173ffffffffffffffffffffffffffffffffffffffff021916908373ffffffffffffffffffffffffffffffffffffffff160217905550606082015181600301908051906020019061072c929190610a1b565b50905050505050565b6011818154811061074557600080fd5b906000526020600020016000915090505481565b6000601580546107689061121d565b9050905090565b606460016000600a8110610786576107856112c5565b5b018190555060c8600180600a81106107a1576107a06112c5565b5b018190555061012c60016002600a81106107be576107bd6112c5565b5b0181905550565b60125481565b601181908060018154018082558091505060019003906000526020600020016000909190919091505560118054905060128190555050565b61080b610aa1565b601660008473ffffffffffffffffffffffffffffffffffffffff1673ffffffffffffffffffffffffffffffffffffffff16815260200190815260200160002060010160008381526020019081526020016000205092915050565b60606000600a67ffffffffffffffff81111561088457610883610d7e565b5b6040519080825280602002602001820160405280156108b25781602001602082028036833780820191505090505b5090506001816000815181106108cb576108ca6112c5565b5b6020026020010181815250508091505090565b60016000806101000a81548160ff021916908360028111156109035761090261115c565b5b0217905550565b600181600a811061091a57600080fd5b016000915090505481565b60135481565b60008054906101000a900460ff1681565b601480546109499061121d565b80601f01602080910402602001604051908101604052809291908181526020018280546109759061121d565b80156109c25780601f10610997576101008083540402835291602001916109c2565b820191906000526020600020905b8154815290600101906020018083116109a557829003601f168201915b505050505081565b8260026003028101928215610a0a579160200282015b82811115610a09578251829060036109f9929190610adf565b50916020019190600301906109e0565b5b509050610a179190610b24565b5090565b828054610a279061121d565b90600052602060002090601f016020900481019282610a495760008555610a90565b82601f10610a6257805160ff1916838001178555610a90565b82800160010185558215610a90579182015b82811115610a8f578251825591602001919060010190610a74565b5b509050610a9d9190610b48565b5090565b60405180608001604052806000815260200160008152602001600073ffffffffffffffffffffffffffffffffffffffff168152602001606081525090565b8260038101928215610b13579160200282015b82811115610b12578251829060ff16905591602001919060010190610af2565b5b509050610b209190610b48565b5090565b5b80821115610b445760008181610b3b9190610b65565b50600301610b25565b5090565b5b80821115610b61576000816000905550600101610b49565b5090565b50600081556001016000815560010160009055565b600081519050919050565b600082825260208201905092915050565b60005b83811015610bb4578082015181840152602081019050610b99565b83811115610bc3576000848401525b50505050565b6000601f19601f8301169050919050565b6000610be582610b7a565b610bef8185610b85565b9350610bff818560208601610b96565b610c0881610bc9565b840191505092915050565b60006020820190508181036000830152610c2d8184610bda565b905092915050565b6000604051905090565b600080fd5b600080fd5b6000819050919050565b610c5c81610c49565b8114610c6757600080fd5b50565b600081359050610c7981610c53565b92915050565b60008060408385031215610c9657610c95610c3f565b5b6000610ca485828601610c6a565b9250506020610cb585828601610c6a565b9150509250929050565b610cc881610c49565b82525050565b6000602082019050610ce36000830184610cbf565b92915050565b600073ffffffffffffffffffffffffffffffffffffffff82169050919050565b6000610d1482610ce9565b9050919050565b610d2481610d09565b8114610d2f57600080fd5b50565b600081359050610d4181610d1b565b92915050565b600060208284031215610d5d57610d5c610c3f565b5b6000610d6b84828501610d32565b91505092915050565b600080fd5b600080fd5b7f4e487b7100000000000000000000000000000000000000000000000000000000600052604160045260246000fd5b610db682610bc9565b810181811067ffffffffffffffff82111715610dd557610dd4610d7e565b5b80604052505050565b6000610de8610c35565b9050610df48282610dad565b919050565b600067ffffffffffffffff821115610e1457610e13610d7e565b5b610e1d82610bc9565b9050602081019050919050565b82818337600083830152505050565b6000610e4c610e4784610df9565b610dde565b905082815260208101848484011115610e6857610e67610d79565b5b610e73848285610e2a565b509392505050565b600082601f830112610e9057610e8f610d74565b5b8135610ea0848260208601610e39565b91505092915050565b600060208284031215610ebf57610ebe610c3f565b5b600082013567ffffffffffffffff811115610edd57610edc610c44565b5b610ee984828501610e7b565b91505092915050565b600060208284031215610f0857610f07610c3f565b5b6000610f1684828501610c6a565b91505092915050565b60008060408385031215610f3657610f35610c3f565b5b6000610f4485828601610d32565b9250506020610f5585828601610c6a565b9150509250929050565b610f6881610c49565b82525050565b610f7781610d09565b82525050565b600081519050919050565b600082825260208201905092915050565b6000610fa482610f7d565b610fae8185610f88565b9350610fbe818560208601610b96565b610fc781610bc9565b840191505092915050565b6000608083016000830151610fea6000860182610f5f565b506020830151610ffd6020860182610f5f565b5060408301516110106040860182610f6e565b50606083015184820360608601526110288282610f99565b9150508091505092915050565b6000602082019050818103600083015261104f8184610fd2565b905092915050565b600081519050919050565b600082825260208201905092915050565b6000819050602082019050919050565b600061108f8383610f5f565b60208301905092915050565b6000602082019050919050565b60006110b382611057565b6110bd8185611062565b93506110c883611073565b8060005b838110156110f95781516110e08882611083565b97506110eb8361109b565b9250506001810190506110cc565b5085935050505092915050565b6000602082019050818103600083015261112081846110a8565b905092915050565b6000819050919050565b61113b81611128565b82525050565b60006020820190506111566000830184611132565b92915050565b7f4e487b7100000000000000000000000000000000000000000000000000000000600052602160045260246000fd5b6003811061119c5761119b61115c565b5b50565b60008190506111ad8261118b565b919050565b60006111bd8261119f565b9050919050565b6111cd816111b2565b82525050565b60006020820190506111e860008301846111c4565b92915050565b7f4e487b7100000000000000000000000000000000000000000000000000000000600052602260045260246000fd5b6000600282049050600182168061123557607f821691505b602082108103611248576112476111ee565b5b50919050565b7f4e487b7100000000000000000000000000000000000000000000000000000000600052601160045260246000fd5b600061128882610c49565b91507fffffffffffffffffffffffffffffffffffffffffffffffffffffffffffffffff82036112ba576112b961124e565b5b600182019050919050565b7f4e487b7100000000000000000000000000000000000000000000000000000000600052603260045260246000fdfea26469706673582212209c5b0f4156043a2d98f67fdf9d64444c38bdbc78f02499f43f6883b0d1e42d2564736f6c634300080e0033",
					"opcodes": "PUSH1 0x80 PUSH1 0x40 MSTORE PUSH32 0x7465737400000000000000000000000000000000000000000000000000000000 PUSH1 0x13 SSTORE PUSH1 0x40 MLOAD DUP1 PUSH1 0x40 ADD PUSH1 0x40 MSTORE DUP1 PUSH1 0x4 DUP2 MSTORE PUSH1 0x20 ADD PUSH32 0x7465737400000000000000000000000000000000000000000000000000000000 DUP2 MSTORE POP PUSH1 0x14 SWAP1 DUP1 MLOAD SWAP1 PUSH1 0x20 ADD SWAP1 PUSH3 0x75 SWAP3 SWAP2 SWAP1 PUSH3 0xD8 JUMP JUMPDEST POP PUSH1 0x40 MLOAD DUP1 PUSH1 0x40 ADD PUSH1 0x40 MSTORE DUP1 PUSH1 0x8 DUP2 MSTORE PUSH1 0x20 ADD PUSH32 0xD182D0B5D181D182000000000000000000000000000000000000000000000000 DUP2 MSTORE POP PUSH1 0x15 SWAP1 DUP1 MLOAD SWAP1 PUSH1 0x20 ADD SWAP1 PUSH3 0xC3 SWAP3 SWAP2 SWAP1 PUSH3 0xD8 JUMP JUMPDEST POP CALLVALUE DUP1 ISZERO PUSH3 0xD1 JUMPI PUSH1 0x0 DUP1 REVERT JUMPDEST POP PUSH3 0x1EC JUMP JUMPDEST DUP3 DUP1 SLOAD PUSH3 0xE6 SWAP1 PUSH3 0x1B7 JUMP JUMPDEST SWAP1 PUSH1 0x0 MSTORE PUSH1 0x20 PUSH1 0x0 KECCAK256 SWAP1 PUSH1 0x1F ADD PUSH1 0x20 SWAP1 DIV DUP2 ADD SWAP3 DUP3 PUSH3 0x10A JUMPI PUSH1 0x0 DUP6 SSTORE PUSH3 0x156 JUMP JUMPDEST DUP3 PUSH1 0x1F LT PUSH3 0x125 JUMPI DUP1 MLOAD PUSH1 0xFF NOT AND DUP4 DUP1 ADD OR DUP6 SSTORE PUSH3 0x156 JUMP JUMPDEST DUP3 DUP1 ADD PUSH1 0x1 ADD DUP6 SSTORE DUP3 ISZERO PUSH3 0x156 JUMPI SWAP2 DUP3 ADD JUMPDEST DUP3 DUP2 GT ISZERO PUSH3 0x155 JUMPI DUP3 MLOAD DUP3 SSTORE SWAP2 PUSH1 0x20 ADD SWAP2 SWAP1 PUSH1 0x1 ADD SWAP1 PUSH3 0x138 JUMP JUMPDEST JUMPDEST POP SWAP1 POP PUSH3 0x165 SWAP2 SWAP1 PUSH3 0x169 JUMP JUMPDEST POP SWAP1 JUMP JUMPDEST JUMPDEST DUP1 DUP3 GT ISZERO PUSH3 0x184 JUMPI PUSH1 0x0 DUP2 PUSH1 0x0 SWAP1 SSTORE POP PUSH1 0x1 ADD PUSH3 0x16A JUMP JUMPDEST POP SWAP1 JUMP JUMPDEST PUSH32 0x4E487B7100000000000000000000000000000000000000000000000000000000 PUSH1 0x0 MSTORE PUSH1 0x22 PUSH1 0x4 MSTORE PUSH1 0x24 PUSH1 0x0 REVERT JUMPDEST PUSH1 0x0 PUSH1 0x2 DUP3 DIV SWAP1 POP PUSH1 0x1 DUP3 AND DUP1 PUSH3 0x1D0 JUMPI PUSH1 0x7F DUP3 AND SWAP2 POP JUMPDEST PUSH1 0x20 DUP3 LT DUP2 SUB PUSH3 0x1E6 JUMPI PUSH3 0x1E5 PUSH3 0x188 JUMP JUMPDEST JUMPDEST POP SWAP2 SWAP1 POP JUMP JUMPDEST PUSH2 0x132A DUP1 PUSH3 0x1FC PUSH1 0x0 CODECOPY PUSH1 0x0 RETURN INVALID PUSH1 0x80 PUSH1 0x40 MSTORE PUSH1 0x4 CALLDATASIZE LT PUSH2 0x109 JUMPI PUSH1 0x0 CALLDATALOAD PUSH1 0xE0 SHR DUP1 PUSH4 0x56D88E27 GT PUSH2 0x95 JUMPI DUP1 PUSH4 0xBBDFBFBA GT PUSH2 0x64 JUMPI DUP1 PUSH4 0xBBDFBFBA EQ PUSH2 0x338 JUMPI DUP1 PUSH4 0xC1A42D19 EQ PUSH2 0x34F JUMPI DUP1 PUSH4 0xC6B91540 EQ PUSH2 0x38C JUMPI DUP1 PUSH4 0xEF8A9235 EQ PUSH2 0x3B7 JUMPI DUP1 PUSH4 0xFFB1E210 EQ PUSH2 0x3E2 JUMPI PUSH2 0x109 JUMP JUMPDEST DUP1 PUSH4 0x56D88E27 EQ PUSH2 0x27C JUMPI DUP1 PUSH4 0x78321EFB EQ PUSH2 0x2A7 JUMPI DUP1 PUSH4 0x977A767C EQ PUSH2 0x2D0 JUMPI DUP1 PUSH4 0xA34343C9 EQ PUSH2 0x30D JUMPI PUSH2 0x109 JUMP JUMPDEST DUP1 PUSH4 0x27E235E3 GT PUSH2 0xDC JUMPI DUP1 PUSH4 0x27E235E3 EQ PUSH2 0x1A4 JUMPI DUP1 PUSH4 0x2B66D72E EQ PUSH2 0x1E1 JUMPI DUP1 PUSH4 0x503F8CAB EQ PUSH2 0x1FD JUMPI DUP1 PUSH4 0x526AA79A EQ PUSH2 0x23A JUMPI DUP1 PUSH4 0x5464FB90 EQ PUSH2 0x265 JUMPI PUSH2 0x109 JUMP JUMPDEST DUP1 PUSH4 0x14D0C51E EQ PUSH2 0x10E JUMPI DUP1 PUSH4 0x1B9265B8 EQ PUSH2 0x139 JUMPI DUP1 PUSH4 0x1F0393A3 EQ PUSH2 0x150 JUMPI DUP1 PUSH4 0x2724898B EQ PUSH2 0x18D JUMPI JUMPDEST PUSH1 0x0 DUP1 REVERT JUMPDEST CALLVALUE DUP1 ISZERO PUSH2 0x11A JUMPI PUSH1 0x0 DUP1 REVERT JUMPDEST POP PUSH2 0x123 PUSH2 0x40D JUMP JUMPDEST PUSH1 0x40 MLOAD PUSH2 0x130 SWAP2 SWAP1 PUSH2 0xC13 JUMP JUMPDEST PUSH1 0x40 MLOAD DUP1 SWAP2 SUB SWAP1 RETURN JUMPDEST CALLVALUE DUP1 ISZERO PUSH2 0x145 JUMPI PUSH1 0x0 DUP1 REVERT JUMPDEST POP PUSH2 0x14E PUSH2 0x49B JUMP JUMPDEST STOP JUMPDEST CALLVALUE DUP1 ISZERO PUSH2 0x15C JUMPI PUSH1 0x0 DUP1 REVERT JUMPDEST POP PUSH2 0x177 PUSH1 0x4 DUP1 CALLDATASIZE SUB DUP2 ADD SWAP1 PUSH2 0x172 SWAP2 SWAP1 PUSH2 0xC7F JUMP JUMPDEST PUSH2 0x4C7 JUMP JUMPDEST PUSH1 0x40 MLOAD PUSH2 0x184 SWAP2 SWAP1 PUSH2 0xCCE JUMP JUMPDEST PUSH1 0x40 MLOAD DUP1 SWAP2 SUB SWAP1 RETURN JUMPDEST CALLVALUE DUP1 ISZERO PUSH2 0x199 JUMPI PUSH1 0x0 DUP1 REVERT JUMPDEST POP PUSH2 0x1A2 PUSH2 0x4F5 JUMP JUMPDEST STOP JUMPDEST CALLVALUE DUP1 ISZERO PUSH2 0x1B0 JUMPI PUSH1 0x0 DUP1 REVERT JUMPDEST POP PUSH2 0x1CB PUSH1 0x4 DUP1 CALLDATASIZE SUB DUP2 ADD SWAP1 PUSH2 0x1C6 SWAP2 SWAP1 PUSH2 0xD47 JUMP JUMPDEST PUSH2 0x569 JUMP JUMPDEST PUSH1 0x40 MLOAD PUSH2 0x1D8 SWAP2 SWAP1 PUSH2 0xCCE JUMP JUMPDEST PUSH1 0x40 MLOAD DUP1 SWAP2 SUB SWAP1 RETURN JUMPDEST PUSH2 0x1FB PUSH1 0x4 DUP1 CALLDATASIZE SUB DUP2 ADD SWAP1 PUSH2 0x1F6 SWAP2 SWAP1 PUSH2 0xEA9 JUMP JUMPDEST PUSH2 0x587 JUMP JUMPDEST STOP JUMPDEST CALLVALUE DUP1 ISZERO PUSH2 0x209 JUMPI PUSH1 0x0 DUP1 REVERT JUMPDEST POP PUSH2 0x224 PUSH1 0x4 DUP1 CALLDATASIZE SUB DUP2 ADD SWAP1 PUSH2 0x21F SWAP2 SWAP1 PUSH2 0xEF2 JUMP JUMPDEST PUSH2 0x735 JUMP JUMPDEST PUSH1 0x40 MLOAD PUSH2 0x231 SWAP2 SWAP1 PUSH2 0xCCE JUMP JUMPDEST PUSH1 0x40 MLOAD DUP1 SWAP2 SUB SWAP1 RETURN JUMPDEST CALLVALUE DUP1 ISZERO PUSH2 0x246 JUMPI PUSH1 0x0 DUP1 REVERT JUMPDEST POP PUSH2 0x24F PUSH2 0x759 JUMP JUMPDEST PUSH1 0x40 MLOAD PUSH2 0x25C SWAP2 SWAP1 PUSH2 0xCCE JUMP JUMPDEST PUSH1 0x40 MLOAD DUP1 SWAP2 SUB SWAP1 RETURN JUMPDEST CALLVALUE DUP1 ISZERO PUSH2 0x271 JUMPI PUSH1 0x0 DUP1 REVERT JUMPDEST POP PUSH2 0x27A PUSH2 0x76F JUMP JUMPDEST STOP JUMPDEST CALLVALUE DUP1 ISZERO PUSH2 0x288 JUMPI PUSH1 0x0 DUP1 REVERT JUMPDEST POP PUSH2 0x291 PUSH2 0x7C5 JUMP JUMPDEST PUSH1 0x40 MLOAD PUSH2 0x29E SWAP2 SWAP1 PUSH2 0xCCE JUMP JUMPDEST PUSH1 0x40 MLOAD DUP1 SWAP2 SUB SWAP1 RETURN JUMPDEST CALLVALUE DUP1 ISZERO PUSH2 0x2B3 JUMPI PUSH1 0x0 DUP1 REVERT JUMPDEST POP PUSH2 0x2CE PUSH1 0x4 DUP1 CALLDATASIZE SUB DUP2 ADD SWAP1 PUSH2 0x2C9 SWAP2 SWAP1 PUSH2 0xEF2 JUMP JUMPDEST PUSH2 0x7CB JUMP JUMPDEST STOP JUMPDEST CALLVALUE DUP1 ISZERO PUSH2 0x2DC JUMPI PUSH1 0x0 DUP1 REVERT JUMPDEST POP PUSH2 0x2F7 PUSH1 0x4 DUP1 CALLDATASIZE SUB DUP2 ADD SWAP1 PUSH2 0x2F2 SWAP2 SWAP1 PUSH2 0xF1F JUMP JUMPDEST PUSH2 0x803 JUMP JUMPDEST PUSH1 0x40 MLOAD PUSH2 0x304 SWAP2 SWAP1 PUSH2 0x1035 JUMP JUMPDEST PUSH1 0x40 MLOAD DUP1 SWAP2 SUB SWAP1 RETURN JUMPDEST CALLVALUE DUP1 ISZERO PUSH2 0x319 JUMPI PUSH1 0x0 DUP1 REVERT JUMPDEST POP PUSH2 0x322 PUSH2 0x865 JUMP JUMPDEST PUSH1 0x40 MLOAD PUSH2 0x32F SWAP2 SWAP1 PUSH2 0x1106 JUMP JUMPDEST PUSH1 0x40 MLOAD DUP1 SWAP2 SUB SWAP1 RETURN JUMPDEST CALLVALUE DUP1 ISZERO PUSH2 0x344 JUMPI PUSH1 0x0 DUP1 REVERT JUMPDEST POP PUSH2 0x34D PUSH2 0x8DE JUMP JUMPDEST STOP JUMPDEST CALLVALUE DUP1 ISZERO PUSH2 0x35B JUMPI PUSH1 0x0 DUP1 REVERT JUMPDEST POP PUSH2 0x376 PUSH1 0x4 DUP1 CALLDATASIZE SUB DUP2 ADD SWAP1 PUSH2 0x371 SWAP2 SWAP1 PUSH2 0xEF2 JUMP JUMPDEST PUSH2 0x90A JUMP JUMPDEST PUSH1 0x40 MLOAD PUSH2 0x383 SWAP2 SWAP1 PUSH2 0xCCE JUMP JUMPDEST PUSH1 0x40 MLOAD DUP1 SWAP2 SUB SWAP1 RETURN JUMPDEST CALLVALUE DUP1 ISZERO PUSH2 0x398 JUMPI PUSH1 0x0 DUP1 REVERT JUMPDEST POP PUSH2 0x3A1 PUSH2 0x925 JUMP JUMPDEST PUSH1 0x40 MLOAD PUSH2 0x3AE SWAP2 SWAP1 PUSH2 0x1141 JUMP JUMPDEST PUSH1 0x40 MLOAD DUP1 SWAP2 SUB SWAP1 RETURN JUMPDEST CALLVALUE DUP1 ISZERO PUSH2 0x3C3 JUMPI PUSH1 0x0 DUP1 REVERT JUMPDEST POP PUSH2 0x3CC PUSH2 0x92B JUMP JUMPDEST PUSH1 0x40 MLOAD PUSH2 0x3D9 SWAP2 SWAP1 PUSH2 0x11D3 JUMP JUMPDEST PUSH1 0x40 MLOAD DUP1 SWAP2 SUB SWAP1 RETURN JUMPDEST CALLVALUE DUP1 ISZERO PUSH2 0x3EE JUMPI PUSH1 0x0 DUP1 REVERT JUMPDEST POP PUSH2 0x3F7 PUSH2 0x93C JUMP JUMPDEST PUSH1 0x40 MLOAD PUSH2 0x404 SWAP2 SWAP1 PUSH2 0xC13 JUMP JUMPDEST PUSH1 0x40 MLOAD DUP1 SWAP2 SUB SWAP1 RETURN JUMPDEST PUSH1 0x15 DUP1 SLOAD PUSH2 0x41A SWAP1 PUSH2 0x121D JUMP JUMPDEST DUP1 PUSH1 0x1F ADD PUSH1 0x20 DUP1 SWAP2 DIV MUL PUSH1 0x20 ADD PUSH1 0x40 MLOAD SWAP1 DUP2 ADD PUSH1 0x40 MSTORE DUP1 SWAP3 SWAP2 SWAP1 DUP2 DUP2 MSTORE PUSH1 0x20 ADD DUP3 DUP1 SLOAD PUSH2 0x446 SWAP1 PUSH2 0x121D JUMP JUMPDEST DUP1 ISZERO PUSH2 0x493 JUMPI DUP1 PUSH1 0x1F LT PUSH2 0x468 JUMPI PUSH2 0x100 DUP1 DUP4 SLOAD DIV MUL DUP4 MSTORE SWAP2 PUSH1 0x20 ADD SWAP2 PUSH2 0x493 JUMP JUMPDEST DUP3 ADD SWAP2 SWAP1 PUSH1 0x0 MSTORE PUSH1 0x20 PUSH1 0x0 KECCAK256 SWAP1 JUMPDEST DUP2 SLOAD DUP2 MSTORE SWAP1 PUSH1 0x1 ADD SWAP1 PUSH1 0x20 ADD DUP1 DUP4 GT PUSH2 0x476 JUMPI DUP3 SWAP1 SUB PUSH1 0x1F AND DUP3 ADD SWAP2 JUMPDEST POP POP POP POP POP DUP2 JUMP JUMPDEST PUSH1 0x0 DUP1 PUSH1 0x0 PUSH2 0x100 EXP DUP2 SLOAD DUP2 PUSH1 0xFF MUL NOT AND SWAP1 DUP4 PUSH1 0x2 DUP2 GT ISZERO PUSH2 0x4C0 JUMPI PUSH2 0x4BF PUSH2 0x115C JUMP JUMPDEST JUMPDEST MUL OR SWAP1 SSTORE POP JUMP JUMPDEST PUSH1 0xB DUP3 PUSH1 0x2 DUP2 LT PUSH2 0x4D7 JUMPI PUSH1 0x0 DUP1 REVERT JUMPDEST PUSH1 0x3 MUL ADD DUP2 PUSH1 0x3 DUP2 LT PUSH2 0x4E9 JUMPI PUSH1 0x0 DUP1 REVERT JUMPDEST ADD PUSH1 0x0 SWAP2 POP SWAP2 POP POP SLOAD DUP2 JUMP JUMPDEST PUSH1 0x40 MLOAD DUP1 PUSH1 0x40 ADD PUSH1 0x40 MSTORE DUP1 PUSH1 0x40 MLOAD DUP1 PUSH1 0x60 ADD PUSH1 0x40 MSTORE DUP1 PUSH1 0x3 PUSH1 0xFF AND DUP2 MSTORE PUSH1 0x20 ADD PUSH1 0x4 PUSH1 0xFF AND DUP2 MSTORE PUSH1 0x20 ADD PUSH1 0x5 PUSH1 0xFF AND DUP2 MSTORE POP DUP2 MSTORE PUSH1 0x20 ADD PUSH1 0x40 MLOAD DUP1 PUSH1 0x60 ADD PUSH1 0x40 MSTORE DUP1 PUSH1 0x6 PUSH1 0xFF AND DUP2 MSTORE PUSH1 0x20 ADD PUSH1 0x7 PUSH1 0xFF AND DUP2 MSTORE PUSH1 0x20 ADD PUSH1 0x8 PUSH1 0xFF AND DUP2 MSTORE POP DUP2 MSTORE POP PUSH1 0xB SWAP1 PUSH1 0x2 PUSH2 0x566 SWAP3 SWAP2 SWAP1 PUSH2 0x9CA JUMP JUMPDEST POP JUMP JUMPDEST PUSH1 0x16 PUSH1 0x20 MSTORE DUP1 PUSH1 0x0 MSTORE PUSH1 0x40 PUSH1 0x0 KECCAK256 PUSH1 0x0 SWAP2 POP SWAP1 POP DUP1 PUSH1 0x0 ADD SLOAD SWAP1 POP DUP2 JUMP JUMPDEST PUSH1 0x0 PUSH1 0x16 PUSH1 0x0 CALLER PUSH20 0xFFFFFFFFFFFFFFFFFFFFFFFFFFFFFFFFFFFFFFFF AND PUSH20 0xFFFFFFFFFFFFFFFFFFFFFFFFFFFFFFFFFFFFFFFF AND DUP2 MSTORE PUSH1 0x20 ADD SWAP1 DUP2 MSTORE PUSH1 0x20 ADD PUSH1 0x0 KECCAK256 PUSH1 0x0 ADD SLOAD SWAP1 POP PUSH1 0x16 PUSH1 0x0 CALLER PUSH20 0xFFFFFFFFFFFFFFFFFFFFFFFFFFFFFFFFFFFFFFFF AND PUSH20 0xFFFFFFFFFFFFFFFFFFFFFFFFFFFFFFFFFFFFFFFF AND DUP2 MSTORE PUSH1 0x20 ADD SWAP1 DUP2 MSTORE PUSH1 0x20 ADD PUSH1 0x0 KECCAK256 PUSH1 0x0 ADD PUSH1 0x0 DUP2 SLOAD DUP1 SWAP3 SWAP2 SWAP1 PUSH2 0x621 SWAP1 PUSH2 0x127D JUMP JUMPDEST SWAP2 SWAP1 POP SSTORE POP PUSH1 0x0 PUSH1 0x40 MLOAD DUP1 PUSH1 0x80 ADD PUSH1 0x40 MSTORE DUP1 CALLVALUE DUP2 MSTORE PUSH1 0x20 ADD TIMESTAMP DUP2 MSTORE PUSH1 0x20 ADD CALLER PUSH20 0xFFFFFFFFFFFFFFFFFFFFFFFFFFFFFFFFFFFFFFFF AND DUP2 MSTORE PUSH1 0x20 ADD DUP5 DUP2 MSTORE POP SWAP1 POP DUP1 PUSH1 0x16 PUSH1 0x0 CALLER PUSH20 0xFFFFFFFFFFFFFFFFFFFFFFFFFFFFFFFFFFFFFFFF AND PUSH20 0xFFFFFFFFFFFFFFFFFFFFFFFFFFFFFFFFFFFFFFFF AND DUP2 MSTORE PUSH1 0x20 ADD SWAP1 DUP2 MSTORE PUSH1 0x20 ADD PUSH1 0x0 KECCAK256 PUSH1 0x1 ADD PUSH1 0x0 DUP5 DUP2 MSTORE PUSH1 0x20 ADD SWAP1 DUP2 MSTORE PUSH1 0x20 ADD PUSH1 0x0 KECCAK256 PUSH1 0x0 DUP3 ADD MLOAD DUP2 PUSH1 0x0 ADD SSTORE PUSH1 0x20 DUP3 ADD MLOAD DUP2 PUSH1 0x1 ADD SSTORE PUSH1 0x40 DUP3 ADD MLOAD DUP2 PUSH1 0x2 ADD PUSH1 0x0 PUSH2 0x100 EXP DUP2 SLOAD DUP2 PUSH20 0xFFFFFFFFFFFFFFFFFFFFFFFFFFFFFFFFFFFFFFFF MUL NOT AND SWAP1 DUP4 PUSH20 0xFFFFFFFFFFFFFFFFFFFFFFFFFFFFFFFFFFFFFFFF AND MUL OR SWAP1 SSTORE POP PUSH1 0x60 DUP3 ADD MLOAD DUP2 PUSH1 0x3 ADD SWAP1 DUP1 MLOAD SWAP1 PUSH1 0x20 ADD SWAP1 PUSH2 0x72C SWAP3 SWAP2 SWAP1 PUSH2 0xA1B JUMP JUMPDEST POP SWAP1 POP POP POP POP POP JUMP JUMPDEST PUSH1 0x11 DUP2 DUP2 SLOAD DUP2 LT PUSH2 0x745 JUMPI PUSH1 0x0 DUP1 REVERT JUMPDEST SWAP1 PUSH1 0x0 MSTORE PUSH1 0x20 PUSH1 0x0 KECCAK256 ADD PUSH1 0x0 SWAP2 POP SWAP1 POP SLOAD DUP2 JUMP JUMPDEST PUSH1 0x0 PUSH1 0x15 DUP1 SLOAD PUSH2 0x768 SWAP1 PUSH2 0x121D JUMP JUMPDEST SWAP1 POP SWAP1 POP SWAP1 JUMP JUMPDEST PUSH1 0x64 PUSH1 0x1 PUSH1 0x0 PUSH1 0xA DUP2 LT PUSH2 0x786 JUMPI PUSH2 0x785 PUSH2 0x12C5 JUMP JUMPDEST JUMPDEST ADD DUP2 SWAP1 SSTORE POP PUSH1 0xC8 PUSH1 0x1 DUP1 PUSH1 0xA DUP2 LT PUSH2 0x7A1 JUMPI PUSH2 0x7A0 PUSH2 0x12C5 JUMP JUMPDEST JUMPDEST ADD DUP2 SWAP1 SSTORE POP PUSH2 0x12C PUSH1 0x1 PUSH1 0x2 PUSH1 0xA DUP2 LT PUSH2 0x7BE JUMPI PUSH2 0x7BD PUSH2 0x12C5 JUMP JUMPDEST JUMPDEST ADD DUP2 SWAP1 SSTORE POP JUMP JUMPDEST PUSH1 0x12 SLOAD DUP2 JUMP JUMPDEST PUSH1 0x11 DUP2 SWAP1 DUP1 PUSH1 0x1 DUP2 SLOAD ADD DUP1 DUP3 SSTORE DUP1 SWAP2 POP POP PUSH1 0x1 SWAP1 SUB SWAP1 PUSH1 0x0 MSTORE PUSH1 0x20 PUSH1 0x0 KECCAK256 ADD PUSH1 0x0 SWAP1 SWAP2 SWAP1 SWAP2 SWAP1 SWAP2 POP SSTORE PUSH1 0x11 DUP1 SLOAD SWAP1 POP PUSH1 0x12 DUP2 SWAP1 SSTORE POP POP JUMP JUMPDEST PUSH2 0x80B PUSH2 0xAA1 JUMP JUMPDEST PUSH1 0x16 PUSH1 0x0 DUP5 PUSH20 0xFFFFFFFFFFFFFFFFFFFFFFFFFFFFFFFFFFFFFFFF AND PUSH20 0xFFFFFFFFFFFFFFFFFFFFFFFFFFFFFFFFFFFFFFFF AND DUP2 MSTORE PUSH1 0x20 ADD SWAP1 DUP2 MSTORE PUSH1 0x20 ADD PUSH1 0x0 KECCAK256 PUSH1 0x1 ADD PUSH1 0x0 DUP4 DUP2 MSTORE PUSH1 0x20 ADD SWAP1 DUP2 MSTORE PUSH1 0x20 ADD PUSH1 0x0 KECCAK256 POP SWAP3 SWAP2 POP POP JUMP JUMPDEST PUSH1 0x60 PUSH1 0x0 PUSH1 0xA PUSH8 0xFFFFFFFFFFFFFFFF DUP2 GT ISZERO PUSH2 0x884 JUMPI PUSH2 0x883 PUSH2 0xD7E JUMP JUMPDEST JUMPDEST PUSH1 0x40 MLOAD SWAP1 DUP1 DUP3 MSTORE DUP1 PUSH1 0x20 MUL PUSH1 0x20 ADD DUP3 ADD PUSH1 0x40 MSTORE DUP1 ISZERO PUSH2 0x8B2 JUMPI DUP2 PUSH1 0x20 ADD PUSH1 0x20 DUP3 MUL DUP1 CALLDATASIZE DUP4 CALLDATACOPY DUP1 DUP3 ADD SWAP2 POP POP SWAP1 POP JUMPDEST POP SWAP1 POP PUSH1 0x1 DUP2 PUSH1 0x0 DUP2 MLOAD DUP2 LT PUSH2 0x8CB JUMPI PUSH2 0x8CA PUSH2 0x12C5 JUMP JUMPDEST JUMPDEST PUSH1 0x20 MUL PUSH1 0x20 ADD ADD DUP2 DUP2 MSTORE POP POP DUP1 SWAP2 POP POP SWAP1 JUMP JUMPDEST PUSH1 0x1 PUSH1 0x0 DUP1 PUSH2 0x100 EXP DUP2 SLOAD DUP2 PUSH1 0xFF MUL NOT AND SWAP1 DUP4 PUSH1 0x2 DUP2 GT ISZERO PUSH2 0x903 JUMPI PUSH2 0x902 PUSH2 0x115C JUMP JUMPDEST JUMPDEST MUL OR SWAP1 SSTORE POP JUMP JUMPDEST PUSH1 0x1 DUP2 PUSH1 0xA DUP2 LT PUSH2 0x91A JUMPI PUSH1 0x0 DUP1 REVERT JUMPDEST ADD PUSH1 0x0 SWAP2 POP SWAP1 POP SLOAD DUP2 JUMP JUMPDEST PUSH1 0x13 SLOAD DUP2 JUMP JUMPDEST PUSH1 0x0 DUP1 SLOAD SWAP1 PUSH2 0x100 EXP SWAP1 DIV PUSH1 0xFF AND DUP2 JUMP JUMPDEST PUSH1 0x14 DUP1 SLOAD PUSH2 0x949 SWAP1 PUSH2 0x121D JUMP JUMPDEST DUP1 PUSH1 0x1F ADD PUSH1 0x20 DUP1 SWAP2 DIV MUL PUSH1 0x20 ADD PUSH1 0x40 MLOAD SWAP1 DUP2 ADD PUSH1 0x40 MSTORE DUP1 SWAP3 SWAP2 SWAP1 DUP2 DUP2 MSTORE PUSH1 0x20 ADD DUP3 DUP1 SLOAD PUSH2 0x975 SWAP1 PUSH2 0x121D JUMP JUMPDEST DUP1 ISZERO PUSH2 0x9C2 JUMPI DUP1 PUSH1 0x1F LT PUSH2 0x997 JUMPI PUSH2 0x100 DUP1 DUP4 SLOAD DIV MUL DUP4 MSTORE SWAP2 PUSH1 0x20 ADD SWAP2 PUSH2 0x9C2 JUMP JUMPDEST DUP3 ADD SWAP2 SWAP1 PUSH1 0x0 MSTORE PUSH1 0x20 PUSH1 0x0 KECCAK256 SWAP1 JUMPDEST DUP2 SLOAD DUP2 MSTORE SWAP1 PUSH1 0x1 ADD SWAP1 PUSH1 0x20 ADD DUP1 DUP4 GT PUSH2 0x9A5 JUMPI DUP3 SWAP1 SUB PUSH1 0x1F AND DUP3 ADD SWAP2 JUMPDEST POP POP POP POP POP DUP2 JUMP JUMPDEST DUP3 PUSH1 0x2 PUSH1 0x3 MUL DUP2 ADD SWAP3 DUP3 ISZERO PUSH2 0xA0A JUMPI SWAP2 PUSH1 0x20 MUL DUP3 ADD JUMPDEST DUP3 DUP2 GT ISZERO PUSH2 0xA09 JUMPI DUP3 MLOAD DUP3 SWAP1 PUSH1 0x3 PUSH2 0x9F9 SWAP3 SWAP2 SWAP1 PUSH2 0xADF JUMP JUMPDEST POP SWAP2 PUSH1 0x20 ADD SWAP2 SWAP1 PUSH1 0x3 ADD SWAP1 PUSH2 0x9E0 JUMP JUMPDEST JUMPDEST POP SWAP1 POP PUSH2 0xA17 SWAP2 SWAP1 PUSH2 0xB24 JUMP JUMPDEST POP SWAP1 JUMP JUMPDEST DUP3 DUP1 SLOAD PUSH2 0xA27 SWAP1 PUSH2 0x121D JUMP JUMPDEST SWAP1 PUSH1 0x0 MSTORE PUSH1 0x20 PUSH1 0x0 KECCAK256 SWAP1 PUSH1 0x1F ADD PUSH1 0x20 SWAP1 DIV DUP2 ADD SWAP3 DUP3 PUSH2 0xA49 JUMPI PUSH1 0x0 DUP6 SSTORE PUSH2 0xA90 JUMP JUMPDEST DUP3 PUSH1 0x1F LT PUSH2 0xA62 JUMPI DUP1 MLOAD PUSH1 0xFF NOT AND DUP4 DUP1 ADD OR DUP6 SSTORE PUSH2 0xA90 JUMP JUMPDEST DUP3 DUP1 ADD PUSH1 0x1 ADD DUP6 SSTORE DUP3 ISZERO PUSH2 0xA90 JUMPI SWAP2 DUP3 ADD JUMPDEST DUP3 DUP2 GT ISZERO PUSH2 0xA8F JUMPI DUP3 MLOAD DUP3 SSTORE SWAP2 PUSH1 0x20 ADD SWAP2 SWAP1 PUSH1 0x1 ADD SWAP1 PUSH2 0xA74 JUMP JUMPDEST JUMPDEST POP SWAP1 POP PUSH2 0xA9D SWAP2 SWAP1 PUSH2 0xB48 JUMP JUMPDEST POP SWAP1 JUMP JUMPDEST PUSH1 0x40 MLOAD DUP1 PUSH1 0x80 ADD PUSH1 0x40 MSTORE DUP1 PUSH1 0x0 DUP2 MSTORE PUSH1 0x20 ADD PUSH1 0x0 DUP2 MSTORE PUSH1 0x20 ADD PUSH1 0x0 PUSH20 0xFFFFFFFFFFFFFFFFFFFFFFFFFFFFFFFFFFFFFFFF AND DUP2 MSTORE PUSH1 0x20 ADD PUSH1 0x60 DUP2 MSTORE POP SWAP1 JUMP JUMPDEST DUP3 PUSH1 0x3 DUP2 ADD SWAP3 DUP3 ISZERO PUSH2 0xB13 JUMPI SWAP2 PUSH1 0x20 MUL DUP3 ADD JUMPDEST DUP3 DUP2 GT ISZERO PUSH2 0xB12 JUMPI DUP3 MLOAD DUP3 SWAP1 PUSH1 0xFF AND SWAP1 SSTORE SWAP2 PUSH1 0x20 ADD SWAP2 SWAP1 PUSH1 0x1 ADD SWAP1 PUSH2 0xAF2 JUMP JUMPDEST JUMPDEST POP SWAP1 POP PUSH2 0xB20 SWAP2 SWAP1 PUSH2 0xB48 JUMP JUMPDEST POP SWAP1 JUMP JUMPDEST JUMPDEST DUP1 DUP3 GT ISZERO PUSH2 0xB44 JUMPI PUSH1 0x0 DUP2 DUP2 PUSH2 0xB3B SWAP2 SWAP1 PUSH2 0xB65 JUMP JUMPDEST POP PUSH1 0x3 ADD PUSH2 0xB25 JUMP JUMPDEST POP SWAP1 JUMP JUMPDEST JUMPDEST DUP1 DUP3 GT ISZERO PUSH2 0xB61 JUMPI PUSH1 0x0 DUP2 PUSH1 0x0 SWAP1 SSTORE POP PUSH1 0x1 ADD PUSH2 0xB49 JUMP JUMPDEST POP SWAP1 JUMP JUMPDEST POP PUSH1 0x0 DUP2 SSTORE PUSH1 0x1 ADD PUSH1 0x0 DUP2 SSTORE PUSH1 0x1 ADD PUSH1 0x0 SWAP1 SSTORE JUMP JUMPDEST PUSH1 0x0 DUP2 MLOAD SWAP1 POP SWAP2 SWAP1 POP JUMP JUMPDEST PUSH1 0x0 DUP3 DUP3 MSTORE PUSH1 0x20 DUP3 ADD SWAP1 POP SWAP3 SWAP2 POP POP JUMP JUMPDEST PUSH1 0x0 JUMPDEST DUP4 DUP2 LT ISZERO PUSH2 0xBB4 JUMPI DUP1 DUP3 ADD MLOAD DUP2 DUP5 ADD MSTORE PUSH1 0x20 DUP2 ADD SWAP1 POP PUSH2 0xB99 JUMP JUMPDEST DUP4 DUP2 GT ISZERO PUSH2 0xBC3 JUMPI PUSH1 0x0 DUP5 DUP5 ADD MSTORE JUMPDEST POP POP POP POP JUMP JUMPDEST PUSH1 0x0 PUSH1 0x1F NOT PUSH1 0x1F DUP4 ADD AND SWAP1 POP SWAP2 SWAP1 POP JUMP JUMPDEST PUSH1 0x0 PUSH2 0xBE5 DUP3 PUSH2 0xB7A JUMP JUMPDEST PUSH2 0xBEF DUP2 DUP6 PUSH2 0xB85 JUMP JUMPDEST SWAP4 POP PUSH2 0xBFF DUP2 DUP6 PUSH1 0x20 DUP7 ADD PUSH2 0xB96 JUMP JUMPDEST PUSH2 0xC08 DUP2 PUSH2 0xBC9 JUMP JUMPDEST DUP5 ADD SWAP2 POP POP SWAP3 SWAP2 POP POP JUMP JUMPDEST PUSH1 0x0 PUSH1 0x20 DUP3 ADD SWAP1 POP DUP2 DUP2 SUB PUSH1 0x0 DUP4 ADD MSTORE PUSH2 0xC2D DUP2 DUP5 PUSH2 0xBDA JUMP JUMPDEST SWAP1 POP SWAP3 SWAP2 POP POP JUMP JUMPDEST PUSH1 0x0 PUSH1 0x40 MLOAD SWAP1 POP SWAP1 JUMP JUMPDEST PUSH1 0x0 DUP1 REVERT JUMPDEST PUSH1 0x0 DUP1 REVERT JUMPDEST PUSH1 0x0 DUP2 SWAP1 POP SWAP2 SWAP1 POP JUMP JUMPDEST PUSH2 0xC5C DUP2 PUSH2 0xC49 JUMP JUMPDEST DUP2 EQ PUSH2 0xC67 JUMPI PUSH1 0x0 DUP1 REVERT JUMPDEST POP JUMP JUMPDEST PUSH1 0x0 DUP2 CALLDATALOAD SWAP1 POP PUSH2 0xC79 DUP2 PUSH2 0xC53 JUMP JUMPDEST SWAP3 SWAP2 POP POP JUMP JUMPDEST PUSH1 0x0 DUP1 PUSH1 0x40 DUP4 DUP6 SUB SLT ISZERO PUSH2 0xC96 JUMPI PUSH2 0xC95 PUSH2 0xC3F JUMP JUMPDEST JUMPDEST PUSH1 0x0 PUSH2 0xCA4 DUP6 DUP3 DUP7 ADD PUSH2 0xC6A JUMP JUMPDEST SWAP3 POP POP PUSH1 0x20 PUSH2 0xCB5 DUP6 DUP3 DUP7 ADD PUSH2 0xC6A JUMP JUMPDEST SWAP2 POP POP SWAP3 POP SWAP3 SWAP1 POP JUMP JUMPDEST PUSH2 0xCC8 DUP2 PUSH2 0xC49 JUMP JUMPDEST DUP3 MSTORE POP POP JUMP JUMPDEST PUSH1 0x0 PUSH1 0x20 DUP3 ADD SWAP1 POP PUSH2 0xCE3 PUSH1 0x0 DUP4 ADD DUP5 PUSH2 0xCBF JUMP JUMPDEST SWAP3 SWAP2 POP POP JUMP JUMPDEST PUSH1 0x0 PUSH20 0xFFFFFFFFFFFFFFFFFFFFFFFFFFFFFFFFFFFFFFFF DUP3 AND SWAP1 POP SWAP2 SWAP1 POP JUMP JUMPDEST PUSH1 0x0 PUSH2 0xD14 DUP3 PUSH2 0xCE9 JUMP JUMPDEST SWAP1 POP SWAP2 SWAP1 POP JUMP JUMPDEST PUSH2 0xD24 DUP2 PUSH2 0xD09 JUMP JUMPDEST DUP2 EQ PUSH2 0xD2F JUMPI PUSH1 0x0 DUP1 REVERT JUMPDEST POP JUMP JUMPDEST PUSH1 0x0 DUP2 CALLDATALOAD SWAP1 POP PUSH2 0xD41 DUP2 PUSH2 0xD1B JUMP JUMPDEST SWAP3 SWAP2 POP POP JUMP JUMPDEST PUSH1 0x0 PUSH1 0x20 DUP3 DUP5 SUB SLT ISZERO PUSH2 0xD5D JUMPI PUSH2 0xD5C PUSH2 0xC3F JUMP JUMPDEST JUMPDEST PUSH1 0x0 PUSH2 0xD6B DUP5 DUP3 DUP6 ADD PUSH2 0xD32 JUMP JUMPDEST SWAP2 POP POP SWAP3 SWAP2 POP POP JUMP JUMPDEST PUSH1 0x0 DUP1 REVERT JUMPDEST PUSH1 0x0 DUP1 REVERT JUMPDEST PUSH32 0x4E487B7100000000000000000000000000000000000000000000000000000000 PUSH1 0x0 MSTORE PUSH1 0x41 PUSH1 0x4 MSTORE PUSH1 0x24 PUSH1 0x0 REVERT JUMPDEST PUSH2 0xDB6 DUP3 PUSH2 0xBC9 JUMP JUMPDEST DUP2 ADD DUP2 DUP2 LT PUSH8 0xFFFFFFFFFFFFFFFF DUP3 GT OR ISZERO PUSH2 0xDD5 JUMPI PUSH2 0xDD4 PUSH2 0xD7E JUMP JUMPDEST JUMPDEST DUP1 PUSH1 0x40 MSTORE POP POP POP JUMP JUMPDEST PUSH1 0x0 PUSH2 0xDE8 PUSH2 0xC35 JUMP JUMPDEST SWAP1 POP PUSH2 0xDF4 DUP3 DUP3 PUSH2 0xDAD JUMP JUMPDEST SWAP2 SWAP1 POP JUMP JUMPDEST PUSH1 0x0 PUSH8 0xFFFFFFFFFFFFFFFF DUP3 GT ISZERO PUSH2 0xE14 JUMPI PUSH2 0xE13 PUSH2 0xD7E JUMP JUMPDEST JUMPDEST PUSH2 0xE1D DUP3 PUSH2 0xBC9 JUMP JUMPDEST SWAP1 POP PUSH1 0x20 DUP2 ADD SWAP1 POP SWAP2 SWAP1 POP JUMP JUMPDEST DUP3 DUP2 DUP4 CALLDATACOPY PUSH1 0x0 DUP4 DUP4 ADD MSTORE POP POP POP JUMP JUMPDEST PUSH1 0x0 PUSH2 0xE4C PUSH2 0xE47 DUP5 PUSH2 0xDF9 JUMP JUMPDEST PUSH2 0xDDE JUMP JUMPDEST SWAP1 POP DUP3 DUP2 MSTORE PUSH1 0x20 DUP2 ADD DUP5 DUP5 DUP5 ADD GT ISZERO PUSH2 0xE68 JUMPI PUSH2 0xE67 PUSH2 0xD79 JUMP JUMPDEST JUMPDEST PUSH2 0xE73 DUP5 DUP3 DUP6 PUSH2 0xE2A JUMP JUMPDEST POP SWAP4 SWAP3 POP POP POP JUMP JUMPDEST PUSH1 0x0 DUP3 PUSH1 0x1F DUP4 ADD SLT PUSH2 0xE90 JUMPI PUSH2 0xE8F PUSH2 0xD74 JUMP JUMPDEST JUMPDEST DUP2 CALLDATALOAD PUSH2 0xEA0 DUP5 DUP3 PUSH1 0x20 DUP7 ADD PUSH2 0xE39 JUMP JUMPDEST SWAP2 POP POP SWAP3 SWAP2 POP POP JUMP JUMPDEST PUSH1 0x0 PUSH1 0x20 DUP3 DUP5 SUB SLT ISZERO PUSH2 0xEBF JUMPI PUSH2 0xEBE PUSH2 0xC3F JUMP JUMPDEST JUMPDEST PUSH1 0x0 DUP3 ADD CALLDATALOAD PUSH8 0xFFFFFFFFFFFFFFFF DUP2 GT ISZERO PUSH2 0xEDD JUMPI PUSH2 0xEDC PUSH2 0xC44 JUMP JUMPDEST JUMPDEST PUSH2 0xEE9 DUP5 DUP3 DUP6 ADD PUSH2 0xE7B JUMP JUMPDEST SWAP2 POP POP SWAP3 SWAP2 POP POP JUMP JUMPDEST PUSH1 0x0 PUSH1 0x20 DUP3 DUP5 SUB SLT ISZERO PUSH2 0xF08 JUMPI PUSH2 0xF07 PUSH2 0xC3F JUMP JUMPDEST JUMPDEST PUSH1 0x0 PUSH2 0xF16 DUP5 DUP3 DUP6 ADD PUSH2 0xC6A JUMP JUMPDEST SWAP2 POP POP SWAP3 SWAP2 POP POP JUMP JUMPDEST PUSH1 0x0 DUP1 PUSH1 0x40 DUP4 DUP6 SUB SLT ISZERO PUSH2 0xF36 JUMPI PUSH2 0xF35 PUSH2 0xC3F JUMP JUMPDEST JUMPDEST PUSH1 0x0 PUSH2 0xF44 DUP6 DUP3 DUP7 ADD PUSH2 0xD32 JUMP JUMPDEST SWAP3 POP POP PUSH1 0x20 PUSH2 0xF55 DUP6 DUP3 DUP7 ADD PUSH2 0xC6A JUMP JUMPDEST SWAP2 POP POP SWAP3 POP SWAP3 SWAP1 POP JUMP JUMPDEST PUSH2 0xF68 DUP2 PUSH2 0xC49 JUMP JUMPDEST DUP3 MSTORE POP POP JUMP JUMPDEST PUSH2 0xF77 DUP2 PUSH2 0xD09 JUMP JUMPDEST DUP3 MSTORE POP POP JUMP JUMPDEST PUSH1 0x0 DUP2 MLOAD SWAP1 POP SWAP2 SWAP1 POP JUMP JUMPDEST PUSH1 0x0 DUP3 DUP3 MSTORE PUSH1 0x20 DUP3 ADD SWAP1 POP SWAP3 SWAP2 POP POP JUMP JUMPDEST PUSH1 0x0 PUSH2 0xFA4 DUP3 PUSH2 0xF7D JUMP JUMPDEST PUSH2 0xFAE DUP2 DUP6 PUSH2 0xF88 JUMP JUMPDEST SWAP4 POP PUSH2 0xFBE DUP2 DUP6 PUSH1 0x20 DUP7 ADD PUSH2 0xB96 JUMP JUMPDEST PUSH2 0xFC7 DUP2 PUSH2 0xBC9 JUMP JUMPDEST DUP5 ADD SWAP2 POP POP SWAP3 SWAP2 POP POP JUMP JUMPDEST PUSH1 0x0 PUSH1 0x80 DUP4 ADD PUSH1 0x0 DUP4 ADD MLOAD PUSH2 0xFEA PUSH1 0x0 DUP7 ADD DUP3 PUSH2 0xF5F JUMP JUMPDEST POP PUSH1 0x20 DUP4 ADD MLOAD PUSH2 0xFFD PUSH1 0x20 DUP7 ADD DUP3 PUSH2 0xF5F JUMP JUMPDEST POP PUSH1 0x40 DUP4 ADD MLOAD PUSH2 0x1010 PUSH1 0x40 DUP7 ADD DUP3 PUSH2 0xF6E JUMP JUMPDEST POP PUSH1 0x60 DUP4 ADD MLOAD DUP5 DUP3 SUB PUSH1 0x60 DUP7 ADD MSTORE PUSH2 0x1028 DUP3 DUP3 PUSH2 0xF99 JUMP JUMPDEST SWAP2 POP POP DUP1 SWAP2 POP POP SWAP3 SWAP2 POP POP JUMP JUMPDEST PUSH1 0x0 PUSH1 0x20 DUP3 ADD SWAP1 POP DUP2 DUP2 SUB PUSH1 0x0 DUP4 ADD MSTORE PUSH2 0x104F DUP2 DUP5 PUSH2 0xFD2 JUMP JUMPDEST SWAP1 POP SWAP3 SWAP2 POP POP JUMP JUMPDEST PUSH1 0x0 DUP2 MLOAD SWAP1 POP SWAP2 SWAP1 POP JUMP JUMPDEST PUSH1 0x0 DUP3 DUP3 MSTORE PUSH1 0x20 DUP3 ADD SWAP1 POP SWAP3 SWAP2 POP POP JUMP JUMPDEST PUSH1 0x0 DUP2 SWAP1 POP PUSH1 0x20 DUP3 ADD SWAP1 POP SWAP2 SWAP1 POP JUMP JUMPDEST PUSH1 0x0 PUSH2 0x108F DUP4 DUP4 PUSH2 0xF5F JUMP JUMPDEST PUSH1 0x20 DUP4 ADD SWAP1 POP SWAP3 SWAP2 POP POP JUMP JUMPDEST PUSH1 0x0 PUSH1 0x20 DUP3 ADD SWAP1 POP SWAP2 SWAP1 POP JUMP JUMPDEST PUSH1 0x0 PUSH2 0x10B3 DUP3 PUSH2 0x1057 JUMP JUMPDEST PUSH2 0x10BD DUP2 DUP6 PUSH2 0x1062 JUMP JUMPDEST SWAP4 POP PUSH2 0x10C8 DUP4 PUSH2 0x1073 JUMP JUMPDEST DUP1 PUSH1 0x0 JUMPDEST DUP4 DUP2 LT ISZERO PUSH2 0x10F9 JUMPI DUP2 MLOAD PUSH2 0x10E0 DUP9 DUP3 PUSH2 0x1083 JUMP JUMPDEST SWAP8 POP PUSH2 0x10EB DUP4 PUSH2 0x109B JUMP JUMPDEST SWAP3 POP POP PUSH1 0x1 DUP2 ADD SWAP1 POP PUSH2 0x10CC JUMP JUMPDEST POP DUP6 SWAP4 POP POP POP POP SWAP3 SWAP2 POP POP JUMP JUMPDEST PUSH1 0x0 PUSH1 0x20 DUP3 ADD SWAP1 POP DUP2 DUP2 SUB PUSH1 0x0 DUP4 ADD MSTORE PUSH2 0x1120 DUP2 DUP5 PUSH2 0x10A8 JUMP JUMPDEST SWAP1 POP SWAP3 SWAP2 POP POP JUMP JUMPDEST PUSH1 0x0 DUP2 SWAP1 POP SWAP2 SWAP1 POP JUMP JUMPDEST PUSH2 0x113B DUP2 PUSH2 0x1128 JUMP JUMPDEST DUP3 MSTORE POP POP JUMP JUMPDEST PUSH1 0x0 PUSH1 0x20 DUP3 ADD SWAP1 POP PUSH2 0x1156 PUSH1 0x0 DUP4 ADD DUP5 PUSH2 0x1132 JUMP JUMPDEST SWAP3 SWAP2 POP POP JUMP JUMPDEST PUSH32 0x4E487B7100000000000000000000000000000000000000000000000000000000 PUSH1 0x0 MSTORE PUSH1 0x21 PUSH1 0x4 MSTORE PUSH1 0x24 PUSH1 0x0 REVERT JUMPDEST PUSH1 0x3 DUP2 LT PUSH2 0x119C JUMPI PUSH2 0x119B PUSH2 0x115C JUMP JUMPDEST JUMPDEST POP JUMP JUMPDEST PUSH1 0x0 DUP2 SWAP1 POP PUSH2 0x11AD DUP3 PUSH2 0x118B JUMP JUMPDEST SWAP2 SWAP1 POP JUMP JUMPDEST PUSH1 0x0 PUSH2 0x11BD DUP3 PUSH2 0x119F JUMP JUMPDEST SWAP1 POP SWAP2 SWAP1 POP JUMP JUMPDEST PUSH2 0x11CD DUP2 PUSH2 0x11B2 JUMP JUMPDEST DUP3 MSTORE POP POP JUMP JUMPDEST PUSH1 0x0 PUSH1 0x20 DUP3 ADD SWAP1 POP PUSH2 0x11E8 PUSH1 0x0 DUP4 ADD DUP5 PUSH2 0x11C4 JUMP JUMPDEST SWAP3 SWAP2 POP POP JUMP JUMPDEST PUSH32 0x4E487B7100000000000000000000000000000000000000000000000000000000 PUSH1 0x0 MSTORE PUSH1 0x22 PUSH1 0x4 MSTORE PUSH1 0x24 PUSH1 0x0 REVERT JUMPDEST PUSH1 0x0 PUSH1 0x2 DUP3 DIV SWAP1 POP PUSH1 0x1 DUP3 AND DUP1 PUSH2 0x1235 JUMPI PUSH1 0x7F DUP3 AND SWAP2 POP JUMPDEST PUSH1 0x20 DUP3 LT DUP2 SUB PUSH2 0x1248 JUMPI PUSH2 0x1247 PUSH2 0x11EE JUMP JUMPDEST JUMPDEST POP SWAP2 SWAP1 POP JUMP JUMPDEST PUSH32 0x4E487B7100000000000000000000000000000000000000000000000000000000 PUSH1 0x0 MSTORE PUSH1 0x11 PUSH1 0x4 MSTORE PUSH1 0x24 PUSH1 0x0 REVERT JUMPDEST PUSH1 0x0 PUSH2 0x1288 DUP3 PUSH2 0xC49 JUMP JUMPDEST SWAP2 POP PUSH32 0xFFFFFFFFFFFFFFFFFFFFFFFFFFFFFFFFFFFFFFFFFFFFFFFFFFFFFFFFFFFFFFFF DUP3 SUB PUSH2 0x12BA JUMPI PUSH2 0x12B9 PUSH2 0x124E JUMP JUMPDEST JUMPDEST PUSH1 0x1 DUP3 ADD SWAP1 POP SWAP2 SWAP1 POP JUMP JUMPDEST PUSH32 0x4E487B7100000000000000000000000000000000000000000000000000000000 PUSH1 0x0 MSTORE PUSH1 0x32 PUSH1 0x4 MSTORE PUSH1 0x24 PUSH1 0x0 REVERT INVALID LOG2 PUSH5 0x6970667358 0x22 SLT KECCAK256 SWAP13 JUMPDEST 0xF COINBASE JUMP DIV GASPRICE 0x2D SWAP9 0xF6 PUSH32 0xDF9D64444C38BDBC78F02499F43F6883B0D1E42D2564736F6C634300080E0033 "
				},
				"gasEstimates": {
					"creation": {
						"codeDepositCost": "981200",
						"executionCost": "infinite",
						"totalCost": "infinite"
					},
					"external": {
						"balances(address)": "2851",
						"currentStatus()": "2645",
						"delivered()": "24453",
						"getLenBytes()": "2659",
						"getPayment(address,uint256)": "infinite",
						"items0(uint256)": "infinite",
						"items1(uint256,uint256)": "infinite",
						"items2(uint256)": "infinite",
						"len()": "2452",
						"myDynVar()": "infinite",
						"myDynVarUni()": "infinite",
						"myVar()": "2495",
						"pay()": "24477",
						"pay(string)": "infinite",
						"pushElement(uint256)": "71096",
						"sampleMemory()": "infinite",
						"setArray()": "infinite",
						"setPartArray()": "66684"
					}
				},
				"methodIdentifiers": {
					"balances(address)": "27e235e3",
					"currentStatus()": "ef8a9235",
					"delivered()": "bbdfbfba",
					"getLenBytes()": "526aa79a",
					"getPayment(address,uint256)": "977a767c",
					"items0(uint256)": "c1a42d19",
					"items1(uint256,uint256)": "1f0393a3",
					"items2(uint256)": "503f8cab",
					"len()": "56d88e27",
					"myDynVar()": "ffb1e210",
					"myDynVarUni()": "14d0c51e",
					"myVar()": "c6b91540",
					"pay()": "1b9265b8",
					"pay(string)": "2b66d72e",
					"pushElement(uint256)": "78321efb",
					"sampleMemory()": "a34343c9",
					"setArray()": "2724898b",
					"setPartArray()": "5464fb90"
				}
			},
			"storageLayout": {
				"storage": [
					{
						"astId": 8,
						"contract": "04_lesson_DataTypes/DataTypes.sol:Demo",
						"label": "currentStatus",
						"offset": 0,
						"slot": "0",
						"type": "t_enum(Status)5"
					},
					{
						"astId": 30,
						"contract": "04_lesson_DataTypes/DataTypes.sol:Demo",
						"label": "items0",
						"offset": 0,
						"slot": "1",
						"type": "t_array(t_uint256)10_storage"
					},
					{
						"astId": 58,
						"contract": "04_lesson_DataTypes/DataTypes.sol:Demo",
						"label": "items1",
						"offset": 0,
						"slot": "11",
						"type": "t_array(t_array(t_uint256)3_storage)2_storage"
					},
					{
						"astId": 77,
						"contract": "04_lesson_DataTypes/DataTypes.sol:Demo",
						"label": "items2",
						"offset": 0,
						"slot": "17",
						"type": "t_array(t_uint256)dyn_storage"
					},
					{
						"astId": 79,
						"contract": "04_lesson_DataTypes/DataTypes.sol:Demo",
						"label": "len",
						"offset": 0,
						"slot": "18",
						"type": "t_uint256"
					},
					{
						"astId": 125,
						"contract": "04_lesson_DataTypes/DataTypes.sol:Demo",
						"label": "myVar",
						"offset": 0,
						"slot": "19",
						"type": "t_bytes32"
					},
					{
						"astId": 128,
						"contract": "04_lesson_DataTypes/DataTypes.sol:Demo",
						"label": "myDynVar",
						"offset": 0,
						"slot": "20",
						"type": "t_bytes_storage"
					},
					{
						"astId": 131,
						"contract": "04_lesson_DataTypes/DataTypes.sol:Demo",
						"label": "myDynVarUni",
						"offset": 0,
						"slot": "21",
						"type": "t_bytes_storage"
					},
					{
						"astId": 162,
						"contract": "04_lesson_DataTypes/DataTypes.sol:Demo",
						"label": "balances",
						"offset": 0,
						"slot": "22",
						"type": "t_mapping(t_address,t_struct(Balance)157_storage)"
					}
				],
				"types": {
					"t_address": {
						"encoding": "inplace",
						"label": "address",
						"numberOfBytes": "20"
					},
					"t_array(t_array(t_uint256)3_storage)2_storage": {
						"base": "t_array(t_uint256)3_storage",
						"encoding": "inplace",
						"label": "uint256[3][2]",
						"numberOfBytes": "192"
					},
					"t_array(t_uint256)10_storage": {
						"base": "t_uint256",
						"encoding": "inplace",
						"label": "uint256[10]",
						"numberOfBytes": "320"
					},
					"t_array(t_uint256)3_storage": {
						"base": "t_uint256",
						"encoding": "inplace",
						"label": "uint256[3]",
						"numberOfBytes": "96"
					},
					"t_array(t_uint256)dyn_storage": {
						"base": "t_uint256",
						"encoding": "dynamic_array",
						"label": "uint256[]",
						"numberOfBytes": "32"
					},
					"t_bytes32": {
						"encoding": "inplace",
						"label": "bytes32",
						"numberOfBytes": "32"
					},
					"t_bytes_storage": {
						"encoding": "bytes",
						"label": "bytes",
						"numberOfBytes": "32"
					},
					"t_enum(Status)5": {
						"encoding": "inplace",
						"label": "enum Demo.Status",
						"numberOfBytes": "1"
					},
					"t_mapping(t_address,t_struct(Balance)157_storage)": {
						"encoding": "mapping",
						"key": "t_address",
						"label": "mapping(address => struct Demo.Balance)",
						"numberOfBytes": "32",
						"value": "t_struct(Balance)157_storage"
					},
					"t_mapping(t_uint256,t_struct(Payment)149_storage)": {
						"encoding": "mapping",
						"key": "t_uint256",
						"label": "mapping(uint256 => struct Demo.Payment)",
						"numberOfBytes": "32",
						"value": "t_struct(Payment)149_storage"
					},
					"t_string_storage": {
						"encoding": "bytes",
						"label": "string",
						"numberOfBytes": "32"
					},
					"t_struct(Balance)157_storage": {
						"encoding": "inplace",
						"label": "struct Demo.Balance",
						"members": [
							{
								"astId": 151,
								"contract": "04_lesson_DataTypes/DataTypes.sol:Demo",
								"label": "totalPayments",
								"offset": 0,
								"slot": "0",
								"type": "t_uint256"
							},
							{
								"astId": 156,
								"contract": "04_lesson_DataTypes/DataTypes.sol:Demo",
								"label": "payments",
								"offset": 0,
								"slot": "1",
								"type": "t_mapping(t_uint256,t_struct(Payment)149_storage)"
							}
						],
						"numberOfBytes": "64"
					},
					"t_struct(Payment)149_storage": {
						"encoding": "inplace",
						"label": "struct Demo.Payment",
						"members": [
							{
								"astId": 142,
								"contract": "04_lesson_DataTypes/DataTypes.sol:Demo",
								"label": "amount",
								"offset": 0,
								"slot": "0",
								"type": "t_uint256"
							},
							{
								"astId": 144,
								"contract": "04_lesson_DataTypes/DataTypes.sol:Demo",
								"label": "timestamp",
								"offset": 0,
								"slot": "1",
								"type": "t_uint256"
							},
							{
								"astId": 146,
								"contract": "04_lesson_DataTypes/DataTypes.sol:Demo",
								"label": "from",
								"offset": 0,
								"slot": "2",
								"type": "t_address"
							},
							{
								"astId": 148,
								"contract": "04_lesson_DataTypes/DataTypes.sol:Demo",
								"label": "message",
								"offset": 0,
								"slot": "3",
								"type": "t_string_storage"
							}
						],
						"numberOfBytes": "128"
					},
					"t_uint256": {
						"encoding": "inplace",
						"label": "uint256",
						"numberOfBytes": "32"
					}
				}
			},
			"userdoc": {
				"kind": "user",
				"methods": {},
				"version": 1
			}
		}
	}
}