{
	"04_lesson_DataTypes/DataTypes.sol": {
		"Demo": {
			"abi": [
				{
					"inputs": [],
					"name": "currentStatus",
					"outputs": [
						{
							"internalType": "enum Demo.Status",
							"name": "",
							"type": "uint8"
						}
					],
					"stateMutability": "view",
					"type": "function"
				},
				{
					"inputs": [],
					"name": "delivered",
					"outputs": [],
					"stateMutability": "nonpayable",
					"type": "function"
				},
				{
					"inputs": [
						{
							"internalType": "uint256",
							"name": "",
							"type": "uint256"
						}
					],
					"name": "items0",
					"outputs": [
						{
							"internalType": "uint256",
							"name": "",
							"type": "uint256"
						}
					],
					"stateMutability": "view",
					"type": "function"
				},
				{
					"inputs": [
						{
							"internalType": "uint256",
							"name": "",
							"type": "uint256"
						},
						{
							"internalType": "uint256",
							"name": "",
							"type": "uint256"
						}
					],
					"name": "items1",
					"outputs": [
						{
							"internalType": "uint256",
							"name": "",
							"type": "uint256"
						}
					],
					"stateMutability": "view",
					"type": "function"
				},
				{
					"inputs": [
						{
							"internalType": "uint256",
							"name": "",
							"type": "uint256"
						}
					],
					"name": "items2",
					"outputs": [
						{
							"internalType": "uint256",
							"name": "",
							"type": "uint256"
						}
					],
					"stateMutability": "view",
					"type": "function"
				},
				{
					"inputs": [],
					"name": "len",
					"outputs": [
						{
							"internalType": "uint256",
							"name": "",
							"type": "uint256"
						}
					],
					"stateMutability": "view",
					"type": "function"
				},
				{
					"inputs": [],
					"name": "pay",
					"outputs": [],
					"stateMutability": "nonpayable",
					"type": "function"
				},
				{
					"inputs": [
						{
							"internalType": "uint256",
							"name": "element",
							"type": "uint256"
						}
					],
					"name": "pushElement",
					"outputs": [],
					"stateMutability": "nonpayable",
					"type": "function"
				},
				{
					"inputs": [],
					"name": "sampleMemory",
					"outputs": [],
					"stateMutability": "nonpayable",
					"type": "function"
				},
				{
					"inputs": [],
					"name": "setArray",
					"outputs": [],
					"stateMutability": "nonpayable",
					"type": "function"
				},
				{
					"inputs": [],
					"name": "setPartArray",
					"outputs": [],
					"stateMutability": "nonpayable",
					"type": "function"
				}
			],
			"devdoc": {
				"kind": "dev",
				"methods": {},
				"version": 1
			},
			"evm": {
				"assembly": "    /* \"04_lesson_DataTypes/DataTypes.sol\":57:952  contract Demo {... */\n  mstore(0x40, 0x80)\n  callvalue\n  dup1\n  iszero\n  tag_1\n  jumpi\n  0x00\n  dup1\n  revert\ntag_1:\n  pop\n  dataSize(sub_0)\n  dup1\n  dataOffset(sub_0)\n  0x00\n  codecopy\n  0x00\n  return\nstop\n\nsub_0: assembly {\n        /* \"04_lesson_DataTypes/DataTypes.sol\":57:952  contract Demo {... */\n      mstore(0x40, 0x80)\n      callvalue\n      dup1\n      iszero\n      tag_1\n      jumpi\n      0x00\n      dup1\n      revert\n    tag_1:\n      pop\n      jumpi(tag_2, lt(calldatasize, 0x04))\n      shr(0xe0, calldataload(0x00))\n      dup1\n      0x56d88e27\n      gt\n      tag_14\n      jumpi\n      dup1\n      0x56d88e27\n      eq\n      tag_8\n      jumpi\n      dup1\n      0x78321efb\n      eq\n      tag_9\n      jumpi\n      dup1\n      0xa34343c9\n      eq\n      tag_10\n      jumpi\n      dup1\n      0xbbdfbfba\n      eq\n      tag_11\n      jumpi\n      dup1\n      0xc1a42d19\n      eq\n      tag_12\n      jumpi\n      dup1\n      0xef8a9235\n      eq\n      tag_13\n      jumpi\n      jump(tag_2)\n    tag_14:\n      dup1\n      0x1b9265b8\n      eq\n      tag_3\n      jumpi\n      dup1\n      0x1f0393a3\n      eq\n      tag_4\n      jumpi\n      dup1\n      0x2724898b\n      eq\n      tag_5\n      jumpi\n      dup1\n      0x503f8cab\n      eq\n      tag_6\n      jumpi\n      dup1\n      0x5464fb90\n      eq\n      tag_7\n      jumpi\n    tag_2:\n      0x00\n      dup1\n      revert\n        /* \"04_lesson_DataTypes/DataTypes.sol\":171:237  function pay() public {... */\n    tag_3:\n      tag_15\n      tag_16\n      jump\t// in\n    tag_15:\n      stop\n        /* \"04_lesson_DataTypes/DataTypes.sol\":500:524  uint[3][2] public items1 */\n    tag_4:\n      tag_17\n      0x04\n      dup1\n      calldatasize\n      sub\n      dup2\n      add\n      swap1\n      tag_18\n      swap2\n      swap1\n      tag_19\n      jump\t// in\n    tag_18:\n      tag_20\n      jump\t// in\n    tag_17:\n      mload(0x40)\n      tag_21\n      swap2\n      swap1\n      tag_22\n      jump\t// in\n    tag_21:\n      mload(0x40)\n      dup1\n      swap2\n      sub\n      swap1\n      return\n        /* \"04_lesson_DataTypes/DataTypes.sol\":531:640  function setArray() public {... */\n    tag_5:\n      tag_23\n      tag_24\n      jump\t// in\n    tag_23:\n      stop\n        /* \"04_lesson_DataTypes/DataTypes.sol\":646:666  uint[] public items2 */\n    tag_6:\n      tag_25\n      0x04\n      dup1\n      calldatasize\n      sub\n      dup2\n      add\n      swap1\n      tag_26\n      swap2\n      swap1\n      tag_27\n      jump\t// in\n    tag_26:\n      tag_28\n      jump\t// in\n    tag_25:\n      mload(0x40)\n      tag_29\n      swap2\n      swap1\n      tag_22\n      jump\t// in\n    tag_29:\n      mload(0x40)\n      dup1\n      swap2\n      sub\n      swap1\n      return\n        /* \"04_lesson_DataTypes/DataTypes.sol\":368:481  function setPartArray() public {... */\n    tag_7:\n      tag_30\n      tag_31\n      jump\t// in\n    tag_30:\n      stop\n        /* \"04_lesson_DataTypes/DataTypes.sol\":672:687  uint public len */\n    tag_8:\n      tag_32\n      tag_33\n      jump\t// in\n    tag_32:\n      mload(0x40)\n      tag_34\n      swap2\n      swap1\n      tag_22\n      jump\t// in\n    tag_34:\n      mload(0x40)\n      dup1\n      swap2\n      sub\n      swap1\n      return\n        /* \"04_lesson_DataTypes/DataTypes.sol\":694:802  function pushElement(uint element) public {... */\n    tag_9:\n      tag_35\n      0x04\n      dup1\n      calldatasize\n      sub\n      dup2\n      add\n      swap1\n      tag_36\n      swap2\n      swap1\n      tag_27\n      jump\t// in\n    tag_36:\n      tag_37\n      jump\t// in\n    tag_35:\n      stop\n        /* \"04_lesson_DataTypes/DataTypes.sol\":835:949  function sampleMemory() public {... */\n    tag_10:\n      tag_38\n      tag_39\n      jump\t// in\n    tag_38:\n      stop\n        /* \"04_lesson_DataTypes/DataTypes.sol\":243:320  function delivered() public {... */\n    tag_11:\n      tag_40\n      tag_41\n      jump\t// in\n    tag_40:\n      stop\n        /* \"04_lesson_DataTypes/DataTypes.sol\":339:361  uint[10] public items0 */\n    tag_12:\n      tag_42\n      0x04\n      dup1\n      calldatasize\n      sub\n      dup2\n      add\n      swap1\n      tag_43\n      swap2\n      swap1\n      tag_27\n      jump\t// in\n    tag_43:\n      tag_44\n      jump\t// in\n    tag_42:\n      mload(0x40)\n      tag_45\n      swap2\n      swap1\n      tag_22\n      jump\t// in\n    tag_45:\n      mload(0x40)\n      dup1\n      swap2\n      sub\n      swap1\n      return\n        /* \"04_lesson_DataTypes/DataTypes.sol\":137:164  Status public currentStatus */\n    tag_13:\n      tag_46\n      tag_47\n      jump\t// in\n    tag_46:\n      mload(0x40)\n      tag_48\n      swap2\n      swap1\n      tag_49\n      jump\t// in\n    tag_48:\n      mload(0x40)\n      dup1\n      swap2\n      sub\n      swap1\n      return\n        /* \"04_lesson_DataTypes/DataTypes.sol\":171:237  function pay() public {... */\n    tag_16:\n        /* \"04_lesson_DataTypes/DataTypes.sol\":219:230  Status.Paid */\n      0x00\n        /* \"04_lesson_DataTypes/DataTypes.sol\":203:216  currentStatus */\n      dup1\n      0x00\n        /* \"04_lesson_DataTypes/DataTypes.sol\":203:230  currentStatus = Status.Paid */\n      0x0100\n      exp\n      dup2\n      sload\n      dup2\n      0xff\n      mul\n      not\n      and\n      swap1\n      dup4\n      0x02\n      dup2\n      gt\n      iszero\n      tag_51\n      jumpi\n      tag_52\n      tag_53\n      jump\t// in\n    tag_52:\n    tag_51:\n      mul\n      or\n      swap1\n      sstore\n      pop\n        /* \"04_lesson_DataTypes/DataTypes.sol\":171:237  function pay() public {... */\n      jump\t// out\n        /* \"04_lesson_DataTypes/DataTypes.sol\":500:524  uint[3][2] public items1 */\n    tag_20:\n      0x0b\n      dup3\n      0x02\n      dup2\n      lt\n      tag_54\n      jumpi\n      0x00\n      dup1\n      revert\n    tag_54:\n      0x03\n      mul\n      add\n      dup2\n      0x03\n      dup2\n      lt\n      tag_56\n      jumpi\n      0x00\n      dup1\n      revert\n    tag_56:\n      add\n      0x00\n      swap2\n      pop\n      swap2\n      pop\n      pop\n      sload\n      dup2\n      jump\t// out\n        /* \"04_lesson_DataTypes/DataTypes.sol\":531:640  function setArray() public {... */\n    tag_24:\n        /* \"04_lesson_DataTypes/DataTypes.sol\":568:633  items1 = [... */\n      mload(0x40)\n      dup1\n      0x40\n      add\n      0x40\n      mstore\n      dup1\n      mload(0x40)\n      dup1\n      0x60\n      add\n      0x40\n      mstore\n      dup1\n        /* \"04_lesson_DataTypes/DataTypes.sol\":592:593  3 */\n      0x03\n        /* \"04_lesson_DataTypes/DataTypes.sol\":568:633  items1 = [... */\n      0xff\n      and\n      dup2\n      mstore\n      0x20\n      add\n        /* \"04_lesson_DataTypes/DataTypes.sol\":595:596  4 */\n      0x04\n        /* \"04_lesson_DataTypes/DataTypes.sol\":568:633  items1 = [... */\n      0xff\n      and\n      dup2\n      mstore\n      0x20\n      add\n        /* \"04_lesson_DataTypes/DataTypes.sol\":598:599  5 */\n      0x05\n        /* \"04_lesson_DataTypes/DataTypes.sol\":568:633  items1 = [... */\n      0xff\n      and\n      dup2\n      mstore\n      pop\n      dup2\n      mstore\n      0x20\n      add\n      mload(0x40)\n      dup1\n      0x60\n      add\n      0x40\n      mstore\n      dup1\n        /* \"04_lesson_DataTypes/DataTypes.sol\":615:616  6 */\n      0x06\n        /* \"04_lesson_DataTypes/DataTypes.sol\":568:633  items1 = [... */\n      0xff\n      and\n      dup2\n      mstore\n      0x20\n      add\n        /* \"04_lesson_DataTypes/DataTypes.sol\":618:619  7 */\n      0x07\n        /* \"04_lesson_DataTypes/DataTypes.sol\":568:633  items1 = [... */\n      0xff\n      and\n      dup2\n      mstore\n      0x20\n      add\n        /* \"04_lesson_DataTypes/DataTypes.sol\":621:622  8 */\n      0x08\n        /* \"04_lesson_DataTypes/DataTypes.sol\":568:633  items1 = [... */\n      0xff\n      and\n      dup2\n      mstore\n      pop\n      dup2\n      mstore\n      pop\n        /* \"04_lesson_DataTypes/DataTypes.sol\":568:574  items1 */\n      0x0b\n        /* \"04_lesson_DataTypes/DataTypes.sol\":568:633  items1 = [... */\n      swap1\n      0x02\n      tag_59\n      swap3\n      swap2\n      swap1\n      tag_60\n      jump\t// in\n    tag_59:\n      pop\n        /* \"04_lesson_DataTypes/DataTypes.sol\":531:640  function setArray() public {... */\n      jump\t// out\n        /* \"04_lesson_DataTypes/DataTypes.sol\":646:666  uint[] public items2 */\n    tag_28:\n      0x11\n      dup2\n      dup2\n      sload\n      dup2\n      lt\n      tag_61\n      jumpi\n      0x00\n      dup1\n      revert\n    tag_61:\n      swap1\n      0x00\n      mstore\n      keccak256(0x00, 0x20)\n      add\n      0x00\n      swap2\n      pop\n      swap1\n      pop\n      sload\n      dup2\n      jump\t// out\n        /* \"04_lesson_DataTypes/DataTypes.sol\":368:481  function setPartArray() public {... */\n    tag_31:\n        /* \"04_lesson_DataTypes/DataTypes.sol\":421:424  100 */\n      0x64\n        /* \"04_lesson_DataTypes/DataTypes.sol\":409:415  items0 */\n      0x01\n        /* \"04_lesson_DataTypes/DataTypes.sol\":416:417  0 */\n      0x00\n        /* \"04_lesson_DataTypes/DataTypes.sol\":409:418  items0[0] */\n      0x0a\n      dup2\n      lt\n      tag_64\n      jumpi\n      tag_65\n      tag_66\n      jump\t// in\n    tag_65:\n    tag_64:\n      add\n        /* \"04_lesson_DataTypes/DataTypes.sol\":409:424  items0[0] = 100 */\n      dup2\n      swap1\n      sstore\n      pop\n        /* \"04_lesson_DataTypes/DataTypes.sol\":446:449  200 */\n      0xc8\n        /* \"04_lesson_DataTypes/DataTypes.sol\":434:440  items0 */\n      0x01\n        /* \"04_lesson_DataTypes/DataTypes.sol\":441:442  1 */\n      dup1\n        /* \"04_lesson_DataTypes/DataTypes.sol\":434:443  items0[1] */\n      0x0a\n      dup2\n      lt\n      tag_68\n      jumpi\n      tag_69\n      tag_66\n      jump\t// in\n    tag_69:\n    tag_68:\n      add\n        /* \"04_lesson_DataTypes/DataTypes.sol\":434:449  items0[1] = 200 */\n      dup2\n      swap1\n      sstore\n      pop\n        /* \"04_lesson_DataTypes/DataTypes.sol\":471:474  300 */\n      0x012c\n        /* \"04_lesson_DataTypes/DataTypes.sol\":459:465  items0 */\n      0x01\n        /* \"04_lesson_DataTypes/DataTypes.sol\":466:467  2 */\n      0x02\n        /* \"04_lesson_DataTypes/DataTypes.sol\":459:468  items0[2] */\n      0x0a\n      dup2\n      lt\n      tag_71\n      jumpi\n      tag_72\n      tag_66\n      jump\t// in\n    tag_72:\n    tag_71:\n      add\n        /* \"04_lesson_DataTypes/DataTypes.sol\":459:474  items0[2] = 300 */\n      dup2\n      swap1\n      sstore\n      pop\n        /* \"04_lesson_DataTypes/DataTypes.sol\":368:481  function setPartArray() public {... */\n      jump\t// out\n        /* \"04_lesson_DataTypes/DataTypes.sol\":672:687  uint public len */\n    tag_33:\n      sload(0x12)\n      dup2\n      jump\t// out\n        /* \"04_lesson_DataTypes/DataTypes.sol\":694:802  function pushElement(uint element) public {... */\n    tag_37:\n        /* \"04_lesson_DataTypes/DataTypes.sol\":746:752  items2 */\n      0x11\n        /* \"04_lesson_DataTypes/DataTypes.sol\":758:765  element */\n      dup2\n        /* \"04_lesson_DataTypes/DataTypes.sol\":746:766  items2.push(element) */\n      swap1\n      dup1\n      0x01\n      dup2\n      sload\n      add\n      dup1\n      dup3\n      sstore\n      dup1\n      swap2\n      pop\n      pop\n      0x01\n      swap1\n      sub\n      swap1\n      0x00\n      mstore\n      keccak256(0x00, 0x20)\n      add\n      0x00\n      swap1\n      swap2\n      swap1\n      swap2\n      swap1\n      swap2\n      pop\n      sstore\n        /* \"04_lesson_DataTypes/DataTypes.sol\":782:788  items2 */\n      0x11\n        /* \"04_lesson_DataTypes/DataTypes.sol\":782:795  items2.length */\n      dup1\n      sload\n      swap1\n      pop\n        /* \"04_lesson_DataTypes/DataTypes.sol\":776:779  len */\n      0x12\n        /* \"04_lesson_DataTypes/DataTypes.sol\":776:795  len = items2.length */\n      dup2\n      swap1\n      sstore\n      pop\n        /* \"04_lesson_DataTypes/DataTypes.sol\":694:802  function pushElement(uint element) public {... */\n      pop\n      jump\t// out\n        /* \"04_lesson_DataTypes/DataTypes.sol\":835:949  function sampleMemory() public {... */\n    tag_39:\n        /* \"04_lesson_DataTypes/DataTypes.sol\":876:899  uint[] memory tempArray */\n      0x00\n        /* \"04_lesson_DataTypes/DataTypes.sol\":913:915  10 */\n      0x0a\n        /* \"04_lesson_DataTypes/DataTypes.sol\":902:916  new uint[](10) */\n      0xffffffffffffffff\n      dup2\n      gt\n      iszero\n      tag_77\n      jumpi\n      tag_78\n      tag_79\n      jump\t// in\n    tag_78:\n    tag_77:\n      mload(0x40)\n      swap1\n      dup1\n      dup3\n      mstore\n      dup1\n      0x20\n      mul\n      0x20\n      add\n      dup3\n      add\n      0x40\n      mstore\n      dup1\n      iszero\n      tag_80\n      jumpi\n      dup2\n      0x20\n      add\n      0x20\n      dup3\n      mul\n      dup1\n      calldatasize\n      dup4\n      calldatacopy\n      dup1\n      dup3\n      add\n      swap2\n      pop\n      pop\n      swap1\n      pop\n    tag_80:\n      pop\n        /* \"04_lesson_DataTypes/DataTypes.sol\":876:916  uint[] memory tempArray = new uint[](10) */\n      swap1\n      pop\n        /* \"04_lesson_DataTypes/DataTypes.sol\":941:942  1 */\n      0x01\n        /* \"04_lesson_DataTypes/DataTypes.sol\":926:935  tempArray */\n      dup2\n        /* \"04_lesson_DataTypes/DataTypes.sol\":936:937  0 */\n      0x00\n        /* \"04_lesson_DataTypes/DataTypes.sol\":926:938  tempArray[0] */\n      dup2\n      mload\n      dup2\n      lt\n      tag_81\n      jumpi\n      tag_82\n      tag_66\n      jump\t// in\n    tag_82:\n    tag_81:\n      0x20\n      mul\n      0x20\n      add\n      add\n        /* \"04_lesson_DataTypes/DataTypes.sol\":926:942  tempArray[0] = 1 */\n      dup2\n      dup2\n      mstore\n      pop\n      pop\n        /* \"04_lesson_DataTypes/DataTypes.sol\":866:949  {... */\n      pop\n        /* \"04_lesson_DataTypes/DataTypes.sol\":835:949  function sampleMemory() public {... */\n      jump\t// out\n        /* \"04_lesson_DataTypes/DataTypes.sol\":243:320  function delivered() public {... */\n    tag_41:\n        /* \"04_lesson_DataTypes/DataTypes.sol\":297:313  Status.Delivered */\n      0x01\n        /* \"04_lesson_DataTypes/DataTypes.sol\":281:294  currentStatus */\n      0x00\n      dup1\n        /* \"04_lesson_DataTypes/DataTypes.sol\":281:313  currentStatus = Status.Delivered */\n      0x0100\n      exp\n      dup2\n      sload\n      dup2\n      0xff\n      mul\n      not\n      and\n      swap1\n      dup4\n      0x02\n      dup2\n      gt\n      iszero\n      tag_84\n      jumpi\n      tag_85\n      tag_53\n      jump\t// in\n    tag_85:\n    tag_84:\n      mul\n      or\n      swap1\n      sstore\n      pop\n        /* \"04_lesson_DataTypes/DataTypes.sol\":243:320  function delivered() public {... */\n      jump\t// out\n        /* \"04_lesson_DataTypes/DataTypes.sol\":339:361  uint[10] public items0 */\n    tag_44:\n      0x01\n      dup2\n      0x0a\n      dup2\n      lt\n      tag_86\n      jumpi\n      0x00\n      dup1\n      revert\n    tag_86:\n      add\n      0x00\n      swap2\n      pop\n      swap1\n      pop\n      sload\n      dup2\n      jump\t// out\n        /* \"04_lesson_DataTypes/DataTypes.sol\":137:164  Status public currentStatus */\n    tag_47:\n      0x00\n      dup1\n      sload\n      swap1\n      0x0100\n      exp\n      swap1\n      div\n      0xff\n      and\n      dup2\n      jump\t// out\n    tag_60:\n      dup3\n      mul(0x03, 0x02)\n      dup2\n      add\n      swap3\n      dup3\n      iszero\n      tag_88\n      jumpi\n      swap2\n      0x20\n      mul\n      dup3\n      add\n    tag_89:\n      dup3\n      dup2\n      gt\n      iszero\n      tag_90\n      jumpi\n      dup3\n      mload\n      dup3\n      swap1\n      0x03\n      tag_91\n      swap3\n      swap2\n      swap1\n      tag_92\n      jump\t// in\n    tag_91:\n      pop\n      swap2\n      0x20\n      add\n      swap2\n      swap1\n      0x03\n      add\n      swap1\n      jump(tag_89)\n    tag_90:\n    tag_88:\n      pop\n      swap1\n      pop\n      tag_93\n      swap2\n      swap1\n      tag_94\n      jump\t// in\n    tag_93:\n      pop\n      swap1\n      jump\t// out\n    tag_92:\n      dup3\n      0x03\n      dup2\n      add\n      swap3\n      dup3\n      iszero\n      tag_95\n      jumpi\n      swap2\n      0x20\n      mul\n      dup3\n      add\n    tag_96:\n      dup3\n      dup2\n      gt\n      iszero\n      tag_97\n      jumpi\n      dup3\n      mload\n      dup3\n      swap1\n      0xff\n      and\n      swap1\n      sstore\n      swap2\n      0x20\n      add\n      swap2\n      swap1\n      0x01\n      add\n      swap1\n      jump(tag_96)\n    tag_97:\n    tag_95:\n      pop\n      swap1\n      pop\n      tag_98\n      swap2\n      swap1\n      tag_99\n      jump\t// in\n    tag_98:\n      pop\n      swap1\n      jump\t// out\n    tag_94:\n    tag_100:\n      dup1\n      dup3\n      gt\n      iszero\n      tag_101\n      jumpi\n      0x00\n      dup2\n      dup2\n      tag_102\n      swap2\n      swap1\n      tag_103\n      jump\t// in\n    tag_102:\n      pop\n      0x03\n      add\n      jump(tag_100)\n    tag_101:\n      pop\n      swap1\n      jump\t// out\n    tag_99:\n    tag_104:\n      dup1\n      dup3\n      gt\n      iszero\n      tag_105\n      jumpi\n      0x00\n      dup2\n      0x00\n      swap1\n      sstore\n      pop\n      0x01\n      add\n      jump(tag_104)\n    tag_105:\n      pop\n      swap1\n      jump\t// out\n    tag_103:\n      pop\n      0x00\n      dup2\n      sstore\n      0x01\n      add\n      0x00\n      dup2\n      sstore\n      0x01\n      add\n      0x00\n      swap1\n      sstore\n      jump\t// out\n        /* \"#utility.yul\":88:205   */\n    tag_107:\n        /* \"#utility.yul\":197:198   */\n      0x00\n        /* \"#utility.yul\":194:195   */\n      dup1\n        /* \"#utility.yul\":187:199   */\n      revert\n        /* \"#utility.yul\":334:411   */\n    tag_109:\n        /* \"#utility.yul\":371:378   */\n      0x00\n        /* \"#utility.yul\":400:405   */\n      dup2\n        /* \"#utility.yul\":389:405   */\n      swap1\n      pop\n        /* \"#utility.yul\":334:411   */\n      swap2\n      swap1\n      pop\n      jump\t// out\n        /* \"#utility.yul\":417:539   */\n    tag_110:\n        /* \"#utility.yul\":490:514   */\n      tag_123\n        /* \"#utility.yul\":508:513   */\n      dup2\n        /* \"#utility.yul\":490:514   */\n      tag_109\n      jump\t// in\n    tag_123:\n        /* \"#utility.yul\":483:488   */\n      dup2\n        /* \"#utility.yul\":480:515   */\n      eq\n        /* \"#utility.yul\":470:533   */\n      tag_124\n      jumpi\n        /* \"#utility.yul\":529:530   */\n      0x00\n        /* \"#utility.yul\":526:527   */\n      dup1\n        /* \"#utility.yul\":519:531   */\n      revert\n        /* \"#utility.yul\":470:533   */\n    tag_124:\n        /* \"#utility.yul\":417:539   */\n      pop\n      jump\t// out\n        /* \"#utility.yul\":545:684   */\n    tag_111:\n        /* \"#utility.yul\":591:596   */\n      0x00\n        /* \"#utility.yul\":629:635   */\n      dup2\n        /* \"#utility.yul\":616:636   */\n      calldataload\n        /* \"#utility.yul\":607:636   */\n      swap1\n      pop\n        /* \"#utility.yul\":645:678   */\n      tag_126\n        /* \"#utility.yul\":672:677   */\n      dup2\n        /* \"#utility.yul\":645:678   */\n      tag_110\n      jump\t// in\n    tag_126:\n        /* \"#utility.yul\":545:684   */\n      swap3\n      swap2\n      pop\n      pop\n      jump\t// out\n        /* \"#utility.yul\":690:1164   */\n    tag_19:\n        /* \"#utility.yul\":758:764   */\n      0x00\n        /* \"#utility.yul\":766:772   */\n      dup1\n        /* \"#utility.yul\":815:817   */\n      0x40\n        /* \"#utility.yul\":803:812   */\n      dup4\n        /* \"#utility.yul\":794:801   */\n      dup6\n        /* \"#utility.yul\":790:813   */\n      sub\n        /* \"#utility.yul\":786:818   */\n      slt\n        /* \"#utility.yul\":783:902   */\n      iszero\n      tag_128\n      jumpi\n        /* \"#utility.yul\":821:900   */\n      tag_129\n      tag_107\n      jump\t// in\n    tag_129:\n        /* \"#utility.yul\":783:902   */\n    tag_128:\n        /* \"#utility.yul\":941:942   */\n      0x00\n        /* \"#utility.yul\":966:1019   */\n      tag_130\n        /* \"#utility.yul\":1011:1018   */\n      dup6\n        /* \"#utility.yul\":1002:1008   */\n      dup3\n        /* \"#utility.yul\":991:1000   */\n      dup7\n        /* \"#utility.yul\":987:1009   */\n      add\n        /* \"#utility.yul\":966:1019   */\n      tag_111\n      jump\t// in\n    tag_130:\n        /* \"#utility.yul\":956:1019   */\n      swap3\n      pop\n        /* \"#utility.yul\":912:1029   */\n      pop\n        /* \"#utility.yul\":1068:1070   */\n      0x20\n        /* \"#utility.yul\":1094:1147   */\n      tag_131\n        /* \"#utility.yul\":1139:1146   */\n      dup6\n        /* \"#utility.yul\":1130:1136   */\n      dup3\n        /* \"#utility.yul\":1119:1128   */\n      dup7\n        /* \"#utility.yul\":1115:1137   */\n      add\n        /* \"#utility.yul\":1094:1147   */\n      tag_111\n      jump\t// in\n    tag_131:\n        /* \"#utility.yul\":1084:1147   */\n      swap2\n      pop\n        /* \"#utility.yul\":1039:1157   */\n      pop\n        /* \"#utility.yul\":690:1164   */\n      swap3\n      pop\n      swap3\n      swap1\n      pop\n      jump\t// out\n        /* \"#utility.yul\":1170:1288   */\n    tag_112:\n        /* \"#utility.yul\":1257:1281   */\n      tag_133\n        /* \"#utility.yul\":1275:1280   */\n      dup2\n        /* \"#utility.yul\":1257:1281   */\n      tag_109\n      jump\t// in\n    tag_133:\n        /* \"#utility.yul\":1252:1255   */\n      dup3\n        /* \"#utility.yul\":1245:1282   */\n      mstore\n        /* \"#utility.yul\":1170:1288   */\n      pop\n      pop\n      jump\t// out\n        /* \"#utility.yul\":1294:1516   */\n    tag_22:\n        /* \"#utility.yul\":1387:1391   */\n      0x00\n        /* \"#utility.yul\":1425:1427   */\n      0x20\n        /* \"#utility.yul\":1414:1423   */\n      dup3\n        /* \"#utility.yul\":1410:1428   */\n      add\n        /* \"#utility.yul\":1402:1428   */\n      swap1\n      pop\n        /* \"#utility.yul\":1438:1509   */\n      tag_135\n        /* \"#utility.yul\":1506:1507   */\n      0x00\n        /* \"#utility.yul\":1495:1504   */\n      dup4\n        /* \"#utility.yul\":1491:1508   */\n      add\n        /* \"#utility.yul\":1482:1488   */\n      dup5\n        /* \"#utility.yul\":1438:1509   */\n      tag_112\n      jump\t// in\n    tag_135:\n        /* \"#utility.yul\":1294:1516   */\n      swap3\n      swap2\n      pop\n      pop\n      jump\t// out\n        /* \"#utility.yul\":1522:1851   */\n    tag_27:\n        /* \"#utility.yul\":1581:1587   */\n      0x00\n        /* \"#utility.yul\":1630:1632   */\n      0x20\n        /* \"#utility.yul\":1618:1627   */\n      dup3\n        /* \"#utility.yul\":1609:1616   */\n      dup5\n        /* \"#utility.yul\":1605:1628   */\n      sub\n        /* \"#utility.yul\":1601:1633   */\n      slt\n        /* \"#utility.yul\":1598:1717   */\n      iszero\n      tag_137\n      jumpi\n        /* \"#utility.yul\":1636:1715   */\n      tag_138\n      tag_107\n      jump\t// in\n    tag_138:\n        /* \"#utility.yul\":1598:1717   */\n    tag_137:\n        /* \"#utility.yul\":1756:1757   */\n      0x00\n        /* \"#utility.yul\":1781:1834   */\n      tag_139\n        /* \"#utility.yul\":1826:1833   */\n      dup5\n        /* \"#utility.yul\":1817:1823   */\n      dup3\n        /* \"#utility.yul\":1806:1815   */\n      dup6\n        /* \"#utility.yul\":1802:1824   */\n      add\n        /* \"#utility.yul\":1781:1834   */\n      tag_111\n      jump\t// in\n    tag_139:\n        /* \"#utility.yul\":1771:1834   */\n      swap2\n      pop\n        /* \"#utility.yul\":1727:1844   */\n      pop\n        /* \"#utility.yul\":1522:1851   */\n      swap3\n      swap2\n      pop\n      pop\n      jump\t// out\n        /* \"#utility.yul\":1857:2037   */\n    tag_53:\n        /* \"#utility.yul\":1905:1982   */\n      0x4e487b7100000000000000000000000000000000000000000000000000000000\n        /* \"#utility.yul\":1902:1903   */\n      0x00\n        /* \"#utility.yul\":1895:1983   */\n      mstore\n        /* \"#utility.yul\":2002:2006   */\n      0x21\n        /* \"#utility.yul\":1999:2000   */\n      0x04\n        /* \"#utility.yul\":1992:2007   */\n      mstore\n        /* \"#utility.yul\":2026:2030   */\n      0x24\n        /* \"#utility.yul\":2023:2024   */\n      0x00\n        /* \"#utility.yul\":2016:2031   */\n      revert\n        /* \"#utility.yul\":2043:2156   */\n    tag_113:\n        /* \"#utility.yul\":2124:2125   */\n      0x03\n        /* \"#utility.yul\":2117:2122   */\n      dup2\n        /* \"#utility.yul\":2114:2126   */\n      lt\n        /* \"#utility.yul\":2104:2150   */\n      tag_142\n      jumpi\n        /* \"#utility.yul\":2130:2148   */\n      tag_143\n      tag_53\n      jump\t// in\n    tag_143:\n        /* \"#utility.yul\":2104:2150   */\n    tag_142:\n        /* \"#utility.yul\":2043:2156   */\n      pop\n      jump\t// out\n        /* \"#utility.yul\":2162:2289   */\n    tag_114:\n        /* \"#utility.yul\":2207:2214   */\n      0x00\n        /* \"#utility.yul\":2236:2241   */\n      dup2\n        /* \"#utility.yul\":2225:2241   */\n      swap1\n      pop\n        /* \"#utility.yul\":2242:2283   */\n      tag_145\n        /* \"#utility.yul\":2277:2282   */\n      dup3\n        /* \"#utility.yul\":2242:2283   */\n      tag_113\n      jump\t// in\n    tag_145:\n        /* \"#utility.yul\":2162:2289   */\n      swap2\n      swap1\n      pop\n      jump\t// out\n        /* \"#utility.yul\":2295:2422   */\n    tag_115:\n        /* \"#utility.yul\":2351:2360   */\n      0x00\n        /* \"#utility.yul\":2384:2416   */\n      tag_147\n        /* \"#utility.yul\":2410:2415   */\n      dup3\n        /* \"#utility.yul\":2384:2416   */\n      tag_114\n      jump\t// in\n    tag_147:\n        /* \"#utility.yul\":2371:2416   */\n      swap1\n      pop\n        /* \"#utility.yul\":2295:2422   */\n      swap2\n      swap1\n      pop\n      jump\t// out\n        /* \"#utility.yul\":2428:2571   */\n    tag_116:\n        /* \"#utility.yul\":2521:2564   */\n      tag_149\n        /* \"#utility.yul\":2558:2563   */\n      dup2\n        /* \"#utility.yul\":2521:2564   */\n      tag_115\n      jump\t// in\n    tag_149:\n        /* \"#utility.yul\":2516:2519   */\n      dup3\n        /* \"#utility.yul\":2509:2565   */\n      mstore\n        /* \"#utility.yul\":2428:2571   */\n      pop\n      pop\n      jump\t// out\n        /* \"#utility.yul\":2577:2811   */\n    tag_49:\n        /* \"#utility.yul\":2676:2680   */\n      0x00\n        /* \"#utility.yul\":2714:2716   */\n      0x20\n        /* \"#utility.yul\":2703:2712   */\n      dup3\n        /* \"#utility.yul\":2699:2717   */\n      add\n        /* \"#utility.yul\":2691:2717   */\n      swap1\n      pop\n        /* \"#utility.yul\":2727:2804   */\n      tag_151\n        /* \"#utility.yul\":2801:2802   */\n      0x00\n        /* \"#utility.yul\":2790:2799   */\n      dup4\n        /* \"#utility.yul\":2786:2803   */\n      add\n        /* \"#utility.yul\":2777:2783   */\n      dup5\n        /* \"#utility.yul\":2727:2804   */\n      tag_116\n      jump\t// in\n    tag_151:\n        /* \"#utility.yul\":2577:2811   */\n      swap3\n      swap2\n      pop\n      pop\n      jump\t// out\n        /* \"#utility.yul\":2817:2997   */\n    tag_66:\n        /* \"#utility.yul\":2865:2942   */\n      0x4e487b7100000000000000000000000000000000000000000000000000000000\n        /* \"#utility.yul\":2862:2863   */\n      0x00\n        /* \"#utility.yul\":2855:2943   */\n      mstore\n        /* \"#utility.yul\":2962:2966   */\n      0x32\n        /* \"#utility.yul\":2959:2960   */\n      0x04\n        /* \"#utility.yul\":2952:2967   */\n      mstore\n        /* \"#utility.yul\":2986:2990   */\n      0x24\n        /* \"#utility.yul\":2983:2984   */\n      0x00\n        /* \"#utility.yul\":2976:2991   */\n      revert\n        /* \"#utility.yul\":3003:3183   */\n    tag_79:\n        /* \"#utility.yul\":3051:3128   */\n      0x4e487b7100000000000000000000000000000000000000000000000000000000\n        /* \"#utility.yul\":3048:3049   */\n      0x00\n        /* \"#utility.yul\":3041:3129   */\n      mstore\n        /* \"#utility.yul\":3148:3152   */\n      0x41\n        /* \"#utility.yul\":3145:3146   */\n      0x04\n        /* \"#utility.yul\":3138:3153   */\n      mstore\n        /* \"#utility.yul\":3172:3176   */\n      0x24\n        /* \"#utility.yul\":3169:3170   */\n      0x00\n        /* \"#utility.yul\":3162:3177   */\n      revert\n\n    auxdata: 0xa2646970667358221220b65360c91a35253600f6d2410182e8c9b69dfd5df8fbec26d24e7c7951f7c06464736f6c634300080e0033\n}\n",
				"bytecode": {
					"linkReferences": {},
					"object": "608060405234801561001057600080fd5b506106fd806100206000396000f3fe608060405234801561001057600080fd5b50600436106100a95760003560e01c806356d88e271161007157806356d88e271461012c57806378321efb1461014a578063a34343c914610166578063bbdfbfba14610170578063c1a42d191461017a578063ef8a9235146101aa576100a9565b80631b9265b8146100ae5780631f0393a3146100b85780632724898b146100e8578063503f8cab146100f25780635464fb9014610122575b600080fd5b6100b66101c8565b005b6100d260048036038101906100cd9190610540565b6101f4565b6040516100df919061058f565b60405180910390f35b6100f0610222565b005b61010c600480360381019061010791906105aa565b610296565b604051610119919061058f565b60405180910390f35b61012a6102ba565b005b610134610310565b604051610141919061058f565b60405180910390f35b610164600480360381019061015f91906105aa565b610316565b005b61016e61034e565b005b6101786103c1565b005b610194600480360381019061018f91906105aa565b6103ed565b6040516101a1919061058f565b60405180910390f35b6101b2610408565b6040516101bf919061064e565b60405180910390f35b60008060006101000a81548160ff021916908360028111156101ed576101ec6105d7565b5b0217905550565b600b826002811061020457600080fd5b60030201816003811061021657600080fd5b01600091509150505481565b60405180604001604052806040518060600160405280600360ff168152602001600460ff168152602001600560ff1681525081526020016040518060600160405280600660ff168152602001600760ff168152602001600860ff16815250815250600b906002610293929190610419565b50565b601181815481106102a657600080fd5b906000526020600020016000915090505481565b606460016000600a81106102d1576102d0610669565b5b018190555060c8600180600a81106102ec576102eb610669565b5b018190555061012c60016002600a811061030957610308610669565b5b0181905550565b60125481565b601181908060018154018082558091505060019003906000526020600020016000909190919091505560118054905060128190555050565b6000600a67ffffffffffffffff81111561036b5761036a610698565b5b6040519080825280602002602001820160405280156103995781602001602082028036833780820191505090505b5090506001816000815181106103b2576103b1610669565b5b60200260200101818152505050565b60016000806101000a81548160ff021916908360028111156103e6576103e56105d7565b5b0217905550565b600181600a81106103fd57600080fd5b016000915090505481565b60008054906101000a900460ff1681565b8260026003028101928215610459579160200282015b828111156104585782518290600361044892919061046a565b509160200191906003019061042f565b5b50905061046691906104af565b5090565b826003810192821561049e579160200282015b8281111561049d578251829060ff1690559160200191906001019061047d565b5b5090506104ab91906104d3565b5090565b5b808211156104cf57600081816104c691906104f0565b506003016104b0565b5090565b5b808211156104ec5760008160009055506001016104d4565b5090565b50600081556001016000815560010160009055565b600080fd5b6000819050919050565b61051d8161050a565b811461052857600080fd5b50565b60008135905061053a81610514565b92915050565b6000806040838503121561055757610556610505565b5b60006105658582860161052b565b92505060206105768582860161052b565b9150509250929050565b6105898161050a565b82525050565b60006020820190506105a46000830184610580565b92915050565b6000602082840312156105c0576105bf610505565b5b60006105ce8482850161052b565b91505092915050565b7f4e487b7100000000000000000000000000000000000000000000000000000000600052602160045260246000fd5b60038110610617576106166105d7565b5b50565b600081905061062882610606565b919050565b60006106388261061a565b9050919050565b6106488161062d565b82525050565b6000602082019050610663600083018461063f565b92915050565b7f4e487b7100000000000000000000000000000000000000000000000000000000600052603260045260246000fd5b7f4e487b7100000000000000000000000000000000000000000000000000000000600052604160045260246000fdfea2646970667358221220b65360c91a35253600f6d2410182e8c9b69dfd5df8fbec26d24e7c7951f7c06464736f6c634300080e0033",
					"opcodes": "PUSH1 0x80 PUSH1 0x40 MSTORE CALLVALUE DUP1 ISZERO PUSH2 0x10 JUMPI PUSH1 0x0 DUP1 REVERT JUMPDEST POP PUSH2 0x6FD DUP1 PUSH2 0x20 PUSH1 0x0 CODECOPY PUSH1 0x0 RETURN INVALID PUSH1 0x80 PUSH1 0x40 MSTORE CALLVALUE DUP1 ISZERO PUSH2 0x10 JUMPI PUSH1 0x0 DUP1 REVERT JUMPDEST POP PUSH1 0x4 CALLDATASIZE LT PUSH2 0xA9 JUMPI PUSH1 0x0 CALLDATALOAD PUSH1 0xE0 SHR DUP1 PUSH4 0x56D88E27 GT PUSH2 0x71 JUMPI DUP1 PUSH4 0x56D88E27 EQ PUSH2 0x12C JUMPI DUP1 PUSH4 0x78321EFB EQ PUSH2 0x14A JUMPI DUP1 PUSH4 0xA34343C9 EQ PUSH2 0x166 JUMPI DUP1 PUSH4 0xBBDFBFBA EQ PUSH2 0x170 JUMPI DUP1 PUSH4 0xC1A42D19 EQ PUSH2 0x17A JUMPI DUP1 PUSH4 0xEF8A9235 EQ PUSH2 0x1AA JUMPI PUSH2 0xA9 JUMP JUMPDEST DUP1 PUSH4 0x1B9265B8 EQ PUSH2 0xAE JUMPI DUP1 PUSH4 0x1F0393A3 EQ PUSH2 0xB8 JUMPI DUP1 PUSH4 0x2724898B EQ PUSH2 0xE8 JUMPI DUP1 PUSH4 0x503F8CAB EQ PUSH2 0xF2 JUMPI DUP1 PUSH4 0x5464FB90 EQ PUSH2 0x122 JUMPI JUMPDEST PUSH1 0x0 DUP1 REVERT JUMPDEST PUSH2 0xB6 PUSH2 0x1C8 JUMP JUMPDEST STOP JUMPDEST PUSH2 0xD2 PUSH1 0x4 DUP1 CALLDATASIZE SUB DUP2 ADD SWAP1 PUSH2 0xCD SWAP2 SWAP1 PUSH2 0x540 JUMP JUMPDEST PUSH2 0x1F4 JUMP JUMPDEST PUSH1 0x40 MLOAD PUSH2 0xDF SWAP2 SWAP1 PUSH2 0x58F JUMP JUMPDEST PUSH1 0x40 MLOAD DUP1 SWAP2 SUB SWAP1 RETURN JUMPDEST PUSH2 0xF0 PUSH2 0x222 JUMP JUMPDEST STOP JUMPDEST PUSH2 0x10C PUSH1 0x4 DUP1 CALLDATASIZE SUB DUP2 ADD SWAP1 PUSH2 0x107 SWAP2 SWAP1 PUSH2 0x5AA JUMP JUMPDEST PUSH2 0x296 JUMP JUMPDEST PUSH1 0x40 MLOAD PUSH2 0x119 SWAP2 SWAP1 PUSH2 0x58F JUMP JUMPDEST PUSH1 0x40 MLOAD DUP1 SWAP2 SUB SWAP1 RETURN JUMPDEST PUSH2 0x12A PUSH2 0x2BA JUMP JUMPDEST STOP JUMPDEST PUSH2 0x134 PUSH2 0x310 JUMP JUMPDEST PUSH1 0x40 MLOAD PUSH2 0x141 SWAP2 SWAP1 PUSH2 0x58F JUMP JUMPDEST PUSH1 0x40 MLOAD DUP1 SWAP2 SUB SWAP1 RETURN JUMPDEST PUSH2 0x164 PUSH1 0x4 DUP1 CALLDATASIZE SUB DUP2 ADD SWAP1 PUSH2 0x15F SWAP2 SWAP1 PUSH2 0x5AA JUMP JUMPDEST PUSH2 0x316 JUMP JUMPDEST STOP JUMPDEST PUSH2 0x16E PUSH2 0x34E JUMP JUMPDEST STOP JUMPDEST PUSH2 0x178 PUSH2 0x3C1 JUMP JUMPDEST STOP JUMPDEST PUSH2 0x194 PUSH1 0x4 DUP1 CALLDATASIZE SUB DUP2 ADD SWAP1 PUSH2 0x18F SWAP2 SWAP1 PUSH2 0x5AA JUMP JUMPDEST PUSH2 0x3ED JUMP JUMPDEST PUSH1 0x40 MLOAD PUSH2 0x1A1 SWAP2 SWAP1 PUSH2 0x58F JUMP JUMPDEST PUSH1 0x40 MLOAD DUP1 SWAP2 SUB SWAP1 RETURN JUMPDEST PUSH2 0x1B2 PUSH2 0x408 JUMP JUMPDEST PUSH1 0x40 MLOAD PUSH2 0x1BF SWAP2 SWAP1 PUSH2 0x64E JUMP JUMPDEST PUSH1 0x40 MLOAD DUP1 SWAP2 SUB SWAP1 RETURN JUMPDEST PUSH1 0x0 DUP1 PUSH1 0x0 PUSH2 0x100 EXP DUP2 SLOAD DUP2 PUSH1 0xFF MUL NOT AND SWAP1 DUP4 PUSH1 0x2 DUP2 GT ISZERO PUSH2 0x1ED JUMPI PUSH2 0x1EC PUSH2 0x5D7 JUMP JUMPDEST JUMPDEST MUL OR SWAP1 SSTORE POP JUMP JUMPDEST PUSH1 0xB DUP3 PUSH1 0x2 DUP2 LT PUSH2 0x204 JUMPI PUSH1 0x0 DUP1 REVERT JUMPDEST PUSH1 0x3 MUL ADD DUP2 PUSH1 0x3 DUP2 LT PUSH2 0x216 JUMPI PUSH1 0x0 DUP1 REVERT JUMPDEST ADD PUSH1 0x0 SWAP2 POP SWAP2 POP POP SLOAD DUP2 JUMP JUMPDEST PUSH1 0x40 MLOAD DUP1 PUSH1 0x40 ADD PUSH1 0x40 MSTORE DUP1 PUSH1 0x40 MLOAD DUP1 PUSH1 0x60 ADD PUSH1 0x40 MSTORE DUP1 PUSH1 0x3 PUSH1 0xFF AND DUP2 MSTORE PUSH1 0x20 ADD PUSH1 0x4 PUSH1 0xFF AND DUP2 MSTORE PUSH1 0x20 ADD PUSH1 0x5 PUSH1 0xFF AND DUP2 MSTORE POP DUP2 MSTORE PUSH1 0x20 ADD PUSH1 0x40 MLOAD DUP1 PUSH1 0x60 ADD PUSH1 0x40 MSTORE DUP1 PUSH1 0x6 PUSH1 0xFF AND DUP2 MSTORE PUSH1 0x20 ADD PUSH1 0x7 PUSH1 0xFF AND DUP2 MSTORE PUSH1 0x20 ADD PUSH1 0x8 PUSH1 0xFF AND DUP2 MSTORE POP DUP2 MSTORE POP PUSH1 0xB SWAP1 PUSH1 0x2 PUSH2 0x293 SWAP3 SWAP2 SWAP1 PUSH2 0x419 JUMP JUMPDEST POP JUMP JUMPDEST PUSH1 0x11 DUP2 DUP2 SLOAD DUP2 LT PUSH2 0x2A6 JUMPI PUSH1 0x0 DUP1 REVERT JUMPDEST SWAP1 PUSH1 0x0 MSTORE PUSH1 0x20 PUSH1 0x0 KECCAK256 ADD PUSH1 0x0 SWAP2 POP SWAP1 POP SLOAD DUP2 JUMP JUMPDEST PUSH1 0x64 PUSH1 0x1 PUSH1 0x0 PUSH1 0xA DUP2 LT PUSH2 0x2D1 JUMPI PUSH2 0x2D0 PUSH2 0x669 JUMP JUMPDEST JUMPDEST ADD DUP2 SWAP1 SSTORE POP PUSH1 0xC8 PUSH1 0x1 DUP1 PUSH1 0xA DUP2 LT PUSH2 0x2EC JUMPI PUSH2 0x2EB PUSH2 0x669 JUMP JUMPDEST JUMPDEST ADD DUP2 SWAP1 SSTORE POP PUSH2 0x12C PUSH1 0x1 PUSH1 0x2 PUSH1 0xA DUP2 LT PUSH2 0x309 JUMPI PUSH2 0x308 PUSH2 0x669 JUMP JUMPDEST JUMPDEST ADD DUP2 SWAP1 SSTORE POP JUMP JUMPDEST PUSH1 0x12 SLOAD DUP2 JUMP JUMPDEST PUSH1 0x11 DUP2 SWAP1 DUP1 PUSH1 0x1 DUP2 SLOAD ADD DUP1 DUP3 SSTORE DUP1 SWAP2 POP POP PUSH1 0x1 SWAP1 SUB SWAP1 PUSH1 0x0 MSTORE PUSH1 0x20 PUSH1 0x0 KECCAK256 ADD PUSH1 0x0 SWAP1 SWAP2 SWAP1 SWAP2 SWAP1 SWAP2 POP SSTORE PUSH1 0x11 DUP1 SLOAD SWAP1 POP PUSH1 0x12 DUP2 SWAP1 SSTORE POP POP JUMP JUMPDEST PUSH1 0x0 PUSH1 0xA PUSH8 0xFFFFFFFFFFFFFFFF DUP2 GT ISZERO PUSH2 0x36B JUMPI PUSH2 0x36A PUSH2 0x698 JUMP JUMPDEST JUMPDEST PUSH1 0x40 MLOAD SWAP1 DUP1 DUP3 MSTORE DUP1 PUSH1 0x20 MUL PUSH1 0x20 ADD DUP3 ADD PUSH1 0x40 MSTORE DUP1 ISZERO PUSH2 0x399 JUMPI DUP2 PUSH1 0x20 ADD PUSH1 0x20 DUP3 MUL DUP1 CALLDATASIZE DUP4 CALLDATACOPY DUP1 DUP3 ADD SWAP2 POP POP SWAP1 POP JUMPDEST POP SWAP1 POP PUSH1 0x1 DUP2 PUSH1 0x0 DUP2 MLOAD DUP2 LT PUSH2 0x3B2 JUMPI PUSH2 0x3B1 PUSH2 0x669 JUMP JUMPDEST JUMPDEST PUSH1 0x20 MUL PUSH1 0x20 ADD ADD DUP2 DUP2 MSTORE POP POP POP JUMP JUMPDEST PUSH1 0x1 PUSH1 0x0 DUP1 PUSH2 0x100 EXP DUP2 SLOAD DUP2 PUSH1 0xFF MUL NOT AND SWAP1 DUP4 PUSH1 0x2 DUP2 GT ISZERO PUSH2 0x3E6 JUMPI PUSH2 0x3E5 PUSH2 0x5D7 JUMP JUMPDEST JUMPDEST MUL OR SWAP1 SSTORE POP JUMP JUMPDEST PUSH1 0x1 DUP2 PUSH1 0xA DUP2 LT PUSH2 0x3FD JUMPI PUSH1 0x0 DUP1 REVERT JUMPDEST ADD PUSH1 0x0 SWAP2 POP SWAP1 POP SLOAD DUP2 JUMP JUMPDEST PUSH1 0x0 DUP1 SLOAD SWAP1 PUSH2 0x100 EXP SWAP1 DIV PUSH1 0xFF AND DUP2 JUMP JUMPDEST DUP3 PUSH1 0x2 PUSH1 0x3 MUL DUP2 ADD SWAP3 DUP3 ISZERO PUSH2 0x459 JUMPI SWAP2 PUSH1 0x20 MUL DUP3 ADD JUMPDEST DUP3 DUP2 GT ISZERO PUSH2 0x458 JUMPI DUP3 MLOAD DUP3 SWAP1 PUSH1 0x3 PUSH2 0x448 SWAP3 SWAP2 SWAP1 PUSH2 0x46A JUMP JUMPDEST POP SWAP2 PUSH1 0x20 ADD SWAP2 SWAP1 PUSH1 0x3 ADD SWAP1 PUSH2 0x42F JUMP JUMPDEST JUMPDEST POP SWAP1 POP PUSH2 0x466 SWAP2 SWAP1 PUSH2 0x4AF JUMP JUMPDEST POP SWAP1 JUMP JUMPDEST DUP3 PUSH1 0x3 DUP2 ADD SWAP3 DUP3 ISZERO PUSH2 0x49E JUMPI SWAP2 PUSH1 0x20 MUL DUP3 ADD JUMPDEST DUP3 DUP2 GT ISZERO PUSH2 0x49D JUMPI DUP3 MLOAD DUP3 SWAP1 PUSH1 0xFF AND SWAP1 SSTORE SWAP2 PUSH1 0x20 ADD SWAP2 SWAP1 PUSH1 0x1 ADD SWAP1 PUSH2 0x47D JUMP JUMPDEST JUMPDEST POP SWAP1 POP PUSH2 0x4AB SWAP2 SWAP1 PUSH2 0x4D3 JUMP JUMPDEST POP SWAP1 JUMP JUMPDEST JUMPDEST DUP1 DUP3 GT ISZERO PUSH2 0x4CF JUMPI PUSH1 0x0 DUP2 DUP2 PUSH2 0x4C6 SWAP2 SWAP1 PUSH2 0x4F0 JUMP JUMPDEST POP PUSH1 0x3 ADD PUSH2 0x4B0 JUMP JUMPDEST POP SWAP1 JUMP JUMPDEST JUMPDEST DUP1 DUP3 GT ISZERO PUSH2 0x4EC JUMPI PUSH1 0x0 DUP2 PUSH1 0x0 SWAP1 SSTORE POP PUSH1 0x1 ADD PUSH2 0x4D4 JUMP JUMPDEST POP SWAP1 JUMP JUMPDEST POP PUSH1 0x0 DUP2 SSTORE PUSH1 0x1 ADD PUSH1 0x0 DUP2 SSTORE PUSH1 0x1 ADD PUSH1 0x0 SWAP1 SSTORE JUMP JUMPDEST PUSH1 0x0 DUP1 REVERT JUMPDEST PUSH1 0x0 DUP2 SWAP1 POP SWAP2 SWAP1 POP JUMP JUMPDEST PUSH2 0x51D DUP2 PUSH2 0x50A JUMP JUMPDEST DUP2 EQ PUSH2 0x528 JUMPI PUSH1 0x0 DUP1 REVERT JUMPDEST POP JUMP JUMPDEST PUSH1 0x0 DUP2 CALLDATALOAD SWAP1 POP PUSH2 0x53A DUP2 PUSH2 0x514 JUMP JUMPDEST SWAP3 SWAP2 POP POP JUMP JUMPDEST PUSH1 0x0 DUP1 PUSH1 0x40 DUP4 DUP6 SUB SLT ISZERO PUSH2 0x557 JUMPI PUSH2 0x556 PUSH2 0x505 JUMP JUMPDEST JUMPDEST PUSH1 0x0 PUSH2 0x565 DUP6 DUP3 DUP7 ADD PUSH2 0x52B JUMP JUMPDEST SWAP3 POP POP PUSH1 0x20 PUSH2 0x576 DUP6 DUP3 DUP7 ADD PUSH2 0x52B JUMP JUMPDEST SWAP2 POP POP SWAP3 POP SWAP3 SWAP1 POP JUMP JUMPDEST PUSH2 0x589 DUP2 PUSH2 0x50A JUMP JUMPDEST DUP3 MSTORE POP POP JUMP JUMPDEST PUSH1 0x0 PUSH1 0x20 DUP3 ADD SWAP1 POP PUSH2 0x5A4 PUSH1 0x0 DUP4 ADD DUP5 PUSH2 0x580 JUMP JUMPDEST SWAP3 SWAP2 POP POP JUMP JUMPDEST PUSH1 0x0 PUSH1 0x20 DUP3 DUP5 SUB SLT ISZERO PUSH2 0x5C0 JUMPI PUSH2 0x5BF PUSH2 0x505 JUMP JUMPDEST JUMPDEST PUSH1 0x0 PUSH2 0x5CE DUP5 DUP3 DUP6 ADD PUSH2 0x52B JUMP JUMPDEST SWAP2 POP POP SWAP3 SWAP2 POP POP JUMP JUMPDEST PUSH32 0x4E487B7100000000000000000000000000000000000000000000000000000000 PUSH1 0x0 MSTORE PUSH1 0x21 PUSH1 0x4 MSTORE PUSH1 0x24 PUSH1 0x0 REVERT JUMPDEST PUSH1 0x3 DUP2 LT PUSH2 0x617 JUMPI PUSH2 0x616 PUSH2 0x5D7 JUMP JUMPDEST JUMPDEST POP JUMP JUMPDEST PUSH1 0x0 DUP2 SWAP1 POP PUSH2 0x628 DUP3 PUSH2 0x606 JUMP JUMPDEST SWAP2 SWAP1 POP JUMP JUMPDEST PUSH1 0x0 PUSH2 0x638 DUP3 PUSH2 0x61A JUMP JUMPDEST SWAP1 POP SWAP2 SWAP1 POP JUMP JUMPDEST PUSH2 0x648 DUP2 PUSH2 0x62D JUMP JUMPDEST DUP3 MSTORE POP POP JUMP JUMPDEST PUSH1 0x0 PUSH1 0x20 DUP3 ADD SWAP1 POP PUSH2 0x663 PUSH1 0x0 DUP4 ADD DUP5 PUSH2 0x63F JUMP JUMPDEST SWAP3 SWAP2 POP POP JUMP JUMPDEST PUSH32 0x4E487B7100000000000000000000000000000000000000000000000000000000 PUSH1 0x0 MSTORE PUSH1 0x32 PUSH1 0x4 MSTORE PUSH1 0x24 PUSH1 0x0 REVERT JUMPDEST PUSH32 0x4E487B7100000000000000000000000000000000000000000000000000000000 PUSH1 0x0 MSTORE PUSH1 0x41 PUSH1 0x4 MSTORE PUSH1 0x24 PUSH1 0x0 REVERT INVALID LOG2 PUSH5 0x6970667358 0x22 SLT KECCAK256 0xB6 MSTORE8 PUSH1 0xC9 BYTE CALLDATALOAD 0x25 CALLDATASIZE STOP 0xF6 0xD2 COINBASE ADD DUP3 0xE8 0xC9 0xB6 SWAP14 REVERT 0x5D 0xF8 0xFB 0xEC 0x26 0xD2 0x4E PUSH29 0x7951F7C06464736F6C634300080E003300000000000000000000000000 "
				},
				"gasEstimates": {
					"creation": {
						"codeDepositCost": "357800",
						"executionCost": "393",
						"totalCost": "358193"
					},
					"external": {
						"currentStatus()": "2667",
						"delivered()": "24497",
						"items0(uint256)": "infinite",
						"items1(uint256,uint256)": "infinite",
						"items2(uint256)": "infinite",
						"len()": "2429",
						"pay()": "24432",
						"pushElement(uint256)": "71073",
						"sampleMemory()": "479",
						"setArray()": "infinite",
						"setPartArray()": "66662"
					}
				},
				"methodIdentifiers": {
					"currentStatus()": "ef8a9235",
					"delivered()": "bbdfbfba",
					"items0(uint256)": "c1a42d19",
					"items1(uint256,uint256)": "1f0393a3",
					"items2(uint256)": "503f8cab",
					"len()": "56d88e27",
					"pay()": "1b9265b8",
					"pushElement(uint256)": "78321efb",
					"sampleMemory()": "a34343c9",
					"setArray()": "2724898b",
					"setPartArray()": "5464fb90"
				}
			},
			"storageLayout": {
				"storage": [
					{
						"astId": 8,
						"contract": "04_lesson_DataTypes/DataTypes.sol:Demo",
						"label": "currentStatus",
						"offset": 0,
						"slot": "0",
						"type": "t_enum(Status)5"
					},
					{
						"astId": 30,
						"contract": "04_lesson_DataTypes/DataTypes.sol:Demo",
						"label": "items0",
						"offset": 0,
						"slot": "1",
						"type": "t_array(t_uint256)10_storage"
					},
					{
						"astId": 58,
						"contract": "04_lesson_DataTypes/DataTypes.sol:Demo",
						"label": "items1",
						"offset": 0,
						"slot": "11",
						"type": "t_array(t_array(t_uint256)3_storage)2_storage"
					},
					{
						"astId": 77,
						"contract": "04_lesson_DataTypes/DataTypes.sol:Demo",
						"label": "items2",
						"offset": 0,
						"slot": "17",
						"type": "t_array(t_uint256)dyn_storage"
					},
					{
						"astId": 79,
						"contract": "04_lesson_DataTypes/DataTypes.sol:Demo",
						"label": "len",
						"offset": 0,
						"slot": "18",
						"type": "t_uint256"
					}
				],
				"types": {
					"t_array(t_array(t_uint256)3_storage)2_storage": {
						"base": "t_array(t_uint256)3_storage",
						"encoding": "inplace",
						"label": "uint256[3][2]",
						"numberOfBytes": "192"
					},
					"t_array(t_uint256)10_storage": {
						"base": "t_uint256",
						"encoding": "inplace",
						"label": "uint256[10]",
						"numberOfBytes": "320"
					},
					"t_array(t_uint256)3_storage": {
						"base": "t_uint256",
						"encoding": "inplace",
						"label": "uint256[3]",
						"numberOfBytes": "96"
					},
					"t_array(t_uint256)dyn_storage": {
						"base": "t_uint256",
						"encoding": "dynamic_array",
						"label": "uint256[]",
						"numberOfBytes": "32"
					},
					"t_enum(Status)5": {
						"encoding": "inplace",
						"label": "enum Demo.Status",
						"numberOfBytes": "1"
					},
					"t_uint256": {
						"encoding": "inplace",
						"label": "uint256",
						"numberOfBytes": "32"
					}
				}
			},
			"userdoc": {
				"kind": "user",
				"methods": {},
				"version": 1
			}
		}
	}
}